{"contracts/OAuth.sol":{"OAuth":{"abi":[{"inputs":[],"stateMutability":"nonpayable","type":"constructor"},{"inputs":[{"internalType":"address","name":"owner","type":"address"}],"name":"OwnableInvalidOwner","type":"error"},{"inputs":[{"internalType":"address","name":"account","type":"address"}],"name":"OwnableUnauthorizedAccount","type":"error"},{"anonymous":false,"inputs":[{"indexed":false,"internalType":"uint256","name":"id","type":"uint256"},{"indexed":false,"internalType":"string","name":"actionType","type":"string"},{"indexed":true,"internalType":"address","name":"executor","type":"address"},{"indexed":false,"internalType":"uint256","name":"timestamp","type":"uint256"}],"name":"CardAction","type":"event"},{"anonymous":false,"inputs":[{"indexed":true,"internalType":"address","name":"previousOwner","type":"address"},{"indexed":true,"internalType":"address","name":"newOwner","type":"address"}],"name":"OwnershipTransferred","type":"event"},{"anonymous":false,"inputs":[{"indexed":false,"internalType":"uint256","name":"id","type":"uint256"},{"indexed":false,"internalType":"string","name":"actionType","type":"string"},{"indexed":true,"internalType":"address","name":"executor","type":"address"},{"indexed":false,"internalType":"uint256","name":"timestamp","type":"uint256"}],"name":"ProviderAction","type":"event"},{"anonymous":false,"inputs":[{"indexed":false,"internalType":"uint256","name":"id","type":"uint256"},{"indexed":false,"internalType":"string","name":"actionType","type":"string"},{"indexed":true,"internalType":"address","name":"executor","type":"address"},{"indexed":false,"internalType":"uint256","name":"timestamp","type":"uint256"}],"name":"SessionTokenAction","type":"event"},{"inputs":[{"internalType":"string","name":"_username","type":"string"},{"internalType":"string","name":"_pfp","type":"string"},{"internalType":"string","name":"_emailAddress","type":"string"},{"internalType":"string","name":"_bio","type":"string"}],"name":"createCard","outputs":[],"stateMutability":"nonpayable","type":"function"},{"inputs":[{"internalType":"uint256","name":"_cardId","type":"uint256"},{"internalType":"uint256","name":"_dappId","type":"uint256"},{"internalType":"address","name":"_user","type":"address"},{"internalType":"string","name":"_message","type":"string"},{"internalType":"bytes","name":"_signature","type":"bytes"}],"name":"createSession","outputs":[{"internalType":"bytes32","name":"","type":"bytes32"}],"stateMutability":"nonpayable","type":"function"},{"inputs":[{"internalType":"bytes32","name":"_token","type":"bytes32"}],"name":"deactivateSessionFromToken","outputs":[],"stateMutability":"nonpayable","type":"function"},{"inputs":[{"internalType":"uint256","name":"_id","type":"uint256"}],"name":"deleteCard","outputs":[],"stateMutability":"nonpayable","type":"function"},{"inputs":[{"internalType":"uint256","name":"_id","type":"uint256"}],"name":"deleteDapp","outputs":[],"stateMutability":"nonpayable","type":"function"},{"inputs":[{"internalType":"bytes32","name":"_token","type":"bytes32"}],"name":"fetchUserInfo","outputs":[{"components":[{"internalType":"uint256","name":"id","type":"uint256"},{"internalType":"address","name":"owner","type":"address"},{"internalType":"string","name":"username","type":"string"},{"internalType":"string","name":"pfp","type":"string"},{"internalType":"string","name":"emailAddress","type":"string"},{"internalType":"string","name":"bio","type":"string"},{"internalType":"bool","name":"isDeleted","type":"bool"},{"internalType":"uint256","name":"createdAt","type":"uint256"},{"internalType":"uint256","name":"updatedAt","type":"uint256"}],"internalType":"struct OAuth.CardStruct","name":"Card","type":"tuple"}],"stateMutability":"view","type":"function"},{"inputs":[{"internalType":"uint256","name":"_dappId","type":"uint256"}],"name":"getDapp","outputs":[{"components":[{"internalType":"uint256","name":"id","type":"uint256"},{"internalType":"string","name":"domain","type":"string"},{"internalType":"string","name":"accessToken","type":"string"},{"internalType":"address","name":"owner","type":"address"},{"internalType":"bool","name":"isDeleted","type":"bool"},{"internalType":"uint256","name":"createdAt","type":"uint256"},{"internalType":"uint256","name":"updatedAt","type":"uint256"}],"internalType":"struct OAuth.ProviderDappStruct","name":"dApp","type":"tuple"}],"stateMutability":"view","type":"function"},{"inputs":[{"internalType":"string","name":"_token","type":"string"}],"name":"getDappFromToken","outputs":[{"components":[{"internalType":"uint256","name":"id","type":"uint256"},{"internalType":"string","name":"domain","type":"string"},{"internalType":"string","name":"accessToken","type":"string"},{"internalType":"address","name":"owner","type":"address"},{"internalType":"bool","name":"isDeleted","type":"bool"},{"internalType":"uint256","name":"createdAt","type":"uint256"},{"internalType":"uint256","name":"updatedAt","type":"uint256"}],"internalType":"struct OAuth.ProviderDappStruct","name":"dApp","type":"tuple"}],"stateMutability":"view","type":"function"},{"inputs":[{"internalType":"address","name":"_user","type":"address"}],"name":"getDapps","outputs":[{"components":[{"internalType":"uint256","name":"id","type":"uint256"},{"internalType":"string","name":"domain","type":"string"},{"internalType":"string","name":"accessToken","type":"string"},{"internalType":"address","name":"owner","type":"address"},{"internalType":"bool","name":"isDeleted","type":"bool"},{"internalType":"uint256","name":"createdAt","type":"uint256"},{"internalType":"uint256","name":"updatedAt","type":"uint256"}],"internalType":"struct OAuth.ProviderDappStruct[]","name":"dApps","type":"tuple[]"}],"stateMutability":"view","type":"function"},{"inputs":[{"internalType":"address","name":"_user","type":"address"},{"internalType":"uint256","name":"_cardId","type":"uint256"}],"name":"getDappsConnectedToCard","outputs":[{"components":[{"internalType":"uint256","name":"id","type":"uint256"},{"internalType":"string","name":"domain","type":"string"},{"internalType":"string","name":"accessToken","type":"string"},{"internalType":"address","name":"owner","type":"address"},{"internalType":"bool","name":"isDeleted","type":"bool"},{"internalType":"uint256","name":"createdAt","type":"uint256"},{"internalType":"uint256","name":"updatedAt","type":"uint256"}],"internalType":"struct OAuth.ProviderDappStruct[]","name":"dApps","type":"tuple[]"}],"stateMutability":"view","type":"function"},{"inputs":[{"internalType":"uint256","name":"_cardId","type":"uint256"}],"name":"getUserCard","outputs":[{"components":[{"internalType":"uint256","name":"id","type":"uint256"},{"internalType":"address","name":"owner","type":"address"},{"internalType":"string","name":"username","type":"string"},{"internalType":"string","name":"pfp","type":"string"},{"internalType":"string","name":"emailAddress","type":"string"},{"internalType":"string","name":"bio","type":"string"},{"internalType":"bool","name":"isDeleted","type":"bool"},{"internalType":"uint256","name":"createdAt","type":"uint256"},{"internalType":"uint256","name":"updatedAt","type":"uint256"}],"internalType":"struct OAuth.CardStruct","name":"Card","type":"tuple"}],"stateMutability":"view","type":"function"},{"inputs":[{"internalType":"address","name":"_user","type":"address"}],"name":"getUserCards","outputs":[{"components":[{"internalType":"uint256","name":"id","type":"uint256"},{"internalType":"address","name":"owner","type":"address"},{"internalType":"string","name":"username","type":"string"},{"internalType":"string","name":"pfp","type":"string"},{"internalType":"string","name":"emailAddress","type":"string"},{"internalType":"string","name":"bio","type":"string"},{"internalType":"bool","name":"isDeleted","type":"bool"},{"internalType":"uint256","name":"createdAt","type":"uint256"},{"internalType":"uint256","name":"updatedAt","type":"uint256"}],"internalType":"struct OAuth.CardStruct[]","name":"Cards","type":"tuple[]"}],"stateMutability":"view","type":"function"},{"inputs":[{"internalType":"uint256","name":"_id","type":"uint256"},{"internalType":"string","name":"_domain","type":"string"}],"name":"modifyDapp","outputs":[],"stateMutability":"nonpayable","type":"function"},{"inputs":[],"name":"owner","outputs":[{"internalType":"address","name":"","type":"address"}],"stateMutability":"view","type":"function"},{"inputs":[{"internalType":"string","name":"_domain","type":"string"},{"internalType":"string","name":"_accessToken","type":"string"}],"name":"registerDapp","outputs":[],"stateMutability":"nonpayable","type":"function"},{"inputs":[],"name":"renounceOwnership","outputs":[],"stateMutability":"nonpayable","type":"function"},{"inputs":[{"internalType":"address","name":"newOwner","type":"address"}],"name":"transferOwnership","outputs":[],"stateMutability":"nonpayable","type":"function"},{"inputs":[{"internalType":"address","name":"_user","type":"address"},{"internalType":"uint256","name":"_dappId","type":"uint256"},{"internalType":"string","name":"_message","type":"string"},{"internalType":"bytes","name":"_signature","type":"bytes"}],"name":"triggerLogin","outputs":[{"internalType":"bytes32","name":"","type":"bytes32"},{"components":[{"internalType":"uint256","name":"id","type":"uint256"},{"internalType":"address","name":"owner","type":"address"},{"internalType":"string","name":"username","type":"string"},{"internalType":"string","name":"pfp","type":"string"},{"internalType":"string","name":"emailAddress","type":"string"},{"internalType":"string","name":"bio","type":"string"},{"internalType":"bool","name":"isDeleted","type":"bool"},{"internalType":"uint256","name":"createdAt","type":"uint256"},{"internalType":"uint256","name":"updatedAt","type":"uint256"}],"internalType":"struct OAuth.CardStruct[]","name":"Cards","type":"tuple[]"}],"stateMutability":"view","type":"function"},{"inputs":[{"internalType":"uint256","name":"_cardId","type":"uint256"},{"internalType":"string","name":"_username","type":"string"},{"internalType":"string","name":"_pfp","type":"string"},{"internalType":"string","name":"_emailAddress","type":"string"},{"internalType":"string","name":"_bio","type":"string"}],"name":"updateCard","outputs":[],"stateMutability":"nonpayable","type":"function"}],"evm":{"bytecode":{"linkReferences":{},"object":"60806040523480156200001157600080fd5b5033600073ffffffffffffffffffffffffffffffffffffffff168173ffffffffffffffffffffffffffffffffffffffff1603620000885760006040517f1e4fbdf70000000000000000000000000000000000000000000000000000000081526004016200007f9190620001a9565b60405180910390fd5b6200009981620000a060201b60201c565b50620001c6565b60008060009054906101000a900473ffffffffffffffffffffffffffffffffffffffff169050816000806101000a81548173ffffffffffffffffffffffffffffffffffffffff021916908373ffffffffffffffffffffffffffffffffffffffff1602179055508173ffffffffffffffffffffffffffffffffffffffff168173ffffffffffffffffffffffffffffffffffffffff167f8be0079c531659141344cd1fd0a4f28419497f9722a3daafe3b4186f6b6457e060405160405180910390a35050565b600073ffffffffffffffffffffffffffffffffffffffff82169050919050565b6000620001918262000164565b9050919050565b620001a38162000184565b82525050565b6000602082019050620001c0600083018462000198565b92915050565b61598b80620001d66000396000f3fe608060405234801561001057600080fd5b50600436106101215760003560e01c8063715018a6116100ad578063dd55c1b011610071578063dd55c1b014610317578063e10b79fa14610347578063e247dea814610377578063f2fde38b14610393578063f7c91c03146103af57610121565b8063715018a61461025f57806388d9f40d146102695780638da5cb5b14610299578063a3104eb5146102b7578063c392b0df146102e757610121565b806346d8066e116100f457806346d8066e146101bf57806348bf10c9146101db57806353d85919146101f7578063555f7817146102275780635e1acf651461024357610121565b806306bdd454146101265780630c2ad3f9146101575780631d12aa9b146101735780633901a9081461018f575b600080fd5b610140600480360381019061013b9190613d24565b6103df565b60405161014e929190614030565b60405180910390f35b610171600480360381019061016c9190614060565b610525565b005b61018d60048036038101906101889190614163565b610926565b005b6101a960048036038101906101a49190614190565b61098d565b6040516101b6919061427c565b60405180910390f35b6101d960048036038101906101d4919061429e565b610b93565b005b6101f560048036038101906101f09190614316565b610ef1565b005b610211600480360381019061020c9190614401565b611215565b60405161021e919061427c565b60405180910390f35b610241600480360381019061023c919061442e565b6113f5565b005b61025d60048036038101906102589190614401565b6115de565b005b6102676117b9565b005b610283600480360381019061027e919061448a565b6117cd565b60405161029091906144b7565b60405180910390f35b6102a1611e1a565b6040516102ae91906144e8565b60405180910390f35b6102d160048036038101906102cc919061448a565b611e43565b6040516102de9190614668565b60405180910390f35b61030160048036038101906102fc919061468a565b612363565b60405161030e9190614668565b60405180910390f35b610331600480360381019061032c91906146ca565b612529565b60405161033e919061477d565b60405180910390f35b610361600480360381019061035c9190614401565b6129d5565b60405161036e9190614872565b60405180910390f35b610391600480360381019061038c9190614401565b612cda565b005b6103ad60048036038101906103a8919061448a565b612ebe565b005b6103c960048036038101906103c49190614163565b612f44565b6040516103d69190614872565b60405180910390f35b600060606103eb613330565b604183511461042f576040517f08c379a0000000000000000000000000000000000000000000000000000000008152600401610426906148f1565b60405180910390fd5b61043a8487856133b7565b610479576040517f08c379a00000000000000000000000000000000000000000000000000000000081526004016104709061495d565b60405180910390fd5b60006104858787613415565b9050600081036104aa57600061049a886117cd565b8160001b9150925092505061051c565b6009600082815260200190815260200160002060040154600067ffffffffffffffff8111156104dc576104db613b58565b5b60405190808252806020026020018201604052801561051557816020015b61050261397c565b8152602001906001900390816104fa5790505b5092509250505b94509492505050565b6000845111610569576040517f08c379a0000000000000000000000000000000000000000000000000000000008152600401610560906149c9565b60405180910390fd5b60008351116105ad576040517f08c379a00000000000000000000000000000000000000000000000000000000081526004016105a490614a35565b60405180910390fd5b60008251116105f1576040517f08c379a00000000000000000000000000000000000000000000000000000000081526004016105e890614aa1565b60405180910390fd5b6000815111610635576040517f08c379a000000000000000000000000000000000000000000000000000000000815260040161062c90614b0d565b60405180910390fd5b61063d61397c565b60016000815461064c90614b5c565b91905081905581600001818152505084816040018190525033816020019073ffffffffffffffffffffffffffffffffffffffff16908173ffffffffffffffffffffffffffffffffffffffff1681525050838160600181905250828160800181905250818160a001819052506106bf61354d565b8160e00181815250506106d061354d565b816101000181815250508060056000836000015181526020019081526020016000206000820151816000015560208201518160010160006101000a81548173ffffffffffffffffffffffffffffffffffffffff021916908373ffffffffffffffffffffffffffffffffffffffff16021790555060408201518160020190816107589190614db0565b50606082015181600301908161076e9190614db0565b5060808201518160040190816107849190614db0565b5060a082015181600501908161079a9190614db0565b5060c08201518160060160006101000a81548160ff02191690831515021790555060e0820151816007015561010082015181600801559050506001600460008360000151815260200190815260200160002060006101000a81548160ff021916908315150217905550600660003373ffffffffffffffffffffffffffffffffffffffff1673ffffffffffffffffffffffffffffffffffffffff168152602001908152602001600020816000015190806001815401808255809150506001900390600052602060002001600090919091909150556001600760003373ffffffffffffffffffffffffffffffffffffffff1673ffffffffffffffffffffffffffffffffffffffff16815260200190815260200160002060008282546108bd9190614e82565b925050819055503373ffffffffffffffffffffffffffffffffffffffff167ff8d4d3ff62faf01eaf82f3b586f2fbeb141edb1f566b539ee6ae9df44fdb6c6b826000015161090961354d565b604051610917929190614f11565b60405180910390a25050505050565b61092e613330565b60006109398261356d565b03610979576040517f08c379a000000000000000000000000000000000000000000000000000000000815260040161097090614fbf565b60405180910390fd5b61098a6109858261356d565b6135e4565b50565b6109956139e0565b61099d613330565b600f60006010846040516109b1919061501b565b90815260200160405180910390205481526020019081526020016000206040518060e0016040529081600082015481526020016001820180546109f390614bd3565b80601f0160208091040260200160405190810160405280929190818152602001828054610a1f90614bd3565b8015610a6c5780601f10610a4157610100808354040283529160200191610a6c565b820191906000526020600020905b815481529060010190602001808311610a4f57829003601f168201915b50505050508152602001600282018054610a8590614bd3565b80601f0160208091040260200160405190810160405280929190818152602001828054610ab190614bd3565b8015610afe5780601f10610ad357610100808354040283529160200191610afe565b820191906000526020600020905b815481529060010190602001808311610ae157829003601f168201915b505050505081526020016003820160009054906101000a900473ffffffffffffffffffffffffffffffffffffffff1673ffffffffffffffffffffffffffffffffffffffff1673ffffffffffffffffffffffffffffffffffffffff1681526020016003820160149054906101000a900460ff16151515158152602001600482015481526020016005820154815250509050919050565b6000825111610bd7576040517f08c379a0000000000000000000000000000000000000000000000000000000008152600401610bce9061507e565b60405180910390fd5b6000815111610c1b576040517f08c379a0000000000000000000000000000000000000000000000000000000008152600401610c12906150ea565b60405180910390fd5b610c236139e0565b600260008154610c3290614b5c565b91905081905581600001818152505082816020018190525081816040018190525033816060019073ffffffffffffffffffffffffffffffffffffffff16908173ffffffffffffffffffffffffffffffffffffffff1681525050610c9361354d565b8160a0018181525050610ca461354d565b8160c001818152505080600f600083600001518152602001908152602001600020600082015181600001556020820151816001019081610ce49190614db0565b506040820151816002019081610cfa9190614db0565b5060608201518160030160006101000a81548173ffffffffffffffffffffffffffffffffffffffff021916908373ffffffffffffffffffffffffffffffffffffffff16021790555060808201518160030160146101000a81548160ff02191690831515021790555060a0820151816004015560c082015181600501559050506001600e60008360000151815260200190815260200160002060006101000a81548160ff0219169083151502179055508060000151601083604051610dbe919061501b565b908152602001604051809103902081905550601160003373ffffffffffffffffffffffffffffffffffffffff1673ffffffffffffffffffffffffffffffffffffffff168152602001908152602001600020816000015190806001815401808255809150506001900390600052602060002001600090919091909150556001601260003373ffffffffffffffffffffffffffffffffffffffff1673ffffffffffffffffffffffffffffffffffffffff1681526020019081526020016000206000828254610e8a9190614e82565b925050819055503373ffffffffffffffffffffffffffffffffffffffff167fcf40bd3705e373a5f70135f1d9765c2d97154b94b433601f78a9572c576571248260000151610ed661354d565b604051610ee4929190615156565b60405180910390a2505050565b6004600086815260200190815260200160002060009054906101000a900460ff16610f51576040517f08c379a0000000000000000000000000000000000000000000000000000000008152600401610f48906151de565b60405180910390fd5b3373ffffffffffffffffffffffffffffffffffffffff166005600087815260200190815260200160002060010160009054906101000a900473ffffffffffffffffffffffffffffffffffffffff1673ffffffffffffffffffffffffffffffffffffffff1614610ff5576040517f08c379a0000000000000000000000000000000000000000000000000000000008152600401610fec9061524a565b60405180910390fd5b6000845111611039576040517f08c379a0000000000000000000000000000000000000000000000000000000008152600401611030906149c9565b60405180910390fd5b600083511161107d576040517f08c379a000000000000000000000000000000000000000000000000000000000815260040161107490614a35565b60405180910390fd5b60008251116110c1576040517f08c379a00000000000000000000000000000000000000000000000000000000081526004016110b890614aa1565b60405180910390fd5b6000815111611105576040517f08c379a00000000000000000000000000000000000000000000000000000000081526004016110fc90614b0d565b60405180910390fd5b836005600087815260200190815260200160002060020190816111289190614db0565b508260056000878152602001908152602001600020600301908161114c9190614db0565b50816005600087815260200190815260200160002060040190816111709190614db0565b50806005600087815260200190815260200160002060050190816111949190614db0565b5061119d61354d565b60056000878152602001908152602001600020600801819055503373ffffffffffffffffffffffffffffffffffffffff167ff8d4d3ff62faf01eaf82f3b586f2fbeb141edb1f566b539ee6ae9df44fdb6c6b866111f861354d565b6040516112069291906152b6565b60405180910390a25050505050565b61121d6139e0565b600f60008381526020019081526020016000206040518060e00160405290816000820154815260200160018201805461125590614bd3565b80601f016020809104026020016040519081016040528092919081815260200182805461128190614bd3565b80156112ce5780601f106112a3576101008083540402835291602001916112ce565b820191906000526020600020905b8154815290600101906020018083116112b157829003601f168201915b505050505081526020016002820180546112e790614bd3565b80601f016020809104026020016040519081016040528092919081815260200182805461131390614bd3565b80156113605780601f1061133557610100808354040283529160200191611360565b820191906000526020600020905b81548152906001019060200180831161134357829003601f168201915b505050505081526020016003820160009054906101000a900473ffffffffffffffffffffffffffffffffffffffff1673ffffffffffffffffffffffffffffffffffffffff1673ffffffffffffffffffffffffffffffffffffffff1681526020016003820160149054906101000a900460ff16151515158152602001600482015481526020016005820154815250509050919050565b600e600083815260200190815260200160002060009054906101000a900460ff16611455576040517f08c379a000000000000000000000000000000000000000000000000000000000815260040161144c9061533e565b60405180910390fd5b3373ffffffffffffffffffffffffffffffffffffffff16600f600084815260200190815260200160002060030160009054906101000a900473ffffffffffffffffffffffffffffffffffffffff1673ffffffffffffffffffffffffffffffffffffffff16146114f9576040517f08c379a00000000000000000000000000000000000000000000000000000000081526004016114f09061524a565b60405180910390fd5b600081511161153d576040517f08c379a00000000000000000000000000000000000000000000000000000000081526004016115349061507e565b60405180910390fd5b80600f600084815260200190815260200160002060010190816115609190614db0565b5061156961354d565b600f6000848152602001908152602001600020600501819055503373ffffffffffffffffffffffffffffffffffffffff167fcf40bd3705e373a5f70135f1d9765c2d97154b94b433601f78a9572c57657124836115c461354d565b6040516115d29291906153aa565b60405180910390a25050565b6004600082815260200190815260200160002060009054906101000a900460ff1661163e576040517f08c379a0000000000000000000000000000000000000000000000000000000008152600401611635906151de565b60405180910390fd5b3373ffffffffffffffffffffffffffffffffffffffff166005600083815260200190815260200160002060010160009054906101000a900473ffffffffffffffffffffffffffffffffffffffff1673ffffffffffffffffffffffffffffffffffffffff16146116e2576040517f08c379a00000000000000000000000000000000000000000000000000000000081526004016116d99061524a565b60405180910390fd5b60006004600083815260200190815260200160002060006101000a81548160ff02191690831515021790555060016005600083815260200190815260200160002060060160006101000a81548160ff02191690831515021790555061174561354d565b60056000838152602001908152602001600020600801819055503373ffffffffffffffffffffffffffffffffffffffff167ff8d4d3ff62faf01eaf82f3b586f2fbeb141edb1f566b539ee6ae9df44fdb6c6b826117a061354d565b6040516117ae929190615432565b60405180910390a250565b6117c1613330565b6117cb60006136bb565b565b60606117d7613330565b600080600090505b600760008573ffffffffffffffffffffffffffffffffffffffff1673ffffffffffffffffffffffffffffffffffffffff16815260200190815260200160002054811015611940576000600660008673ffffffffffffffffffffffffffffffffffffffff1673ffffffffffffffffffffffffffffffffffffffff16815260200190815260200160002082815481106118795761187861546e565b5b906000526020600020015490508473ffffffffffffffffffffffffffffffffffffffff166005600083815260200190815260200160002060010160009054906101000a900473ffffffffffffffffffffffffffffffffffffffff1673ffffffffffffffffffffffffffffffffffffffff1614801561191857506005600082815260200190815260200160002060060160009054906101000a900460ff16155b1561192c57828061192890614b5c565b9350505b50808061193890614b5c565b9150506117df565b508067ffffffffffffffff81111561195b5761195a613b58565b5b60405190808252806020026020018201604052801561199457816020015b61198161397c565b8152602001906001900390816119795790505b509150600080600090505b600760008673ffffffffffffffffffffffffffffffffffffffff1673ffffffffffffffffffffffffffffffffffffffff16815260200190815260200160002054811015611e12576000600660008773ffffffffffffffffffffffffffffffffffffffff1673ffffffffffffffffffffffffffffffffffffffff1681526020019081526020016000208281548110611a3957611a3861546e565b5b906000526020600020015490508573ffffffffffffffffffffffffffffffffffffffff166005600083815260200190815260200160002060010160009054906101000a900473ffffffffffffffffffffffffffffffffffffffff1673ffffffffffffffffffffffffffffffffffffffff16148015611ad857506005600082815260200190815260200160002060060160009054906101000a900460ff16155b15611dfe576005600082815260200190815260200160002060405180610120016040529081600082015481526020016001820160009054906101000a900473ffffffffffffffffffffffffffffffffffffffff1673ffffffffffffffffffffffffffffffffffffffff1673ffffffffffffffffffffffffffffffffffffffff168152602001600282018054611b6c90614bd3565b80601f0160208091040260200160405190810160405280929190818152602001828054611b9890614bd3565b8015611be55780601f10611bba57610100808354040283529160200191611be5565b820191906000526020600020905b815481529060010190602001808311611bc857829003601f168201915b50505050508152602001600382018054611bfe90614bd3565b80601f0160208091040260200160405190810160405280929190818152602001828054611c2a90614bd3565b8015611c775780601f10611c4c57610100808354040283529160200191611c77565b820191906000526020600020905b815481529060010190602001808311611c5a57829003601f168201915b50505050508152602001600482018054611c9090614bd3565b80601f0160208091040260200160405190810160405280929190818152602001828054611cbc90614bd3565b8015611d095780601f10611cde57610100808354040283529160200191611d09565b820191906000526020600020905b815481529060010190602001808311611cec57829003601f168201915b50505050508152602001600582018054611d2290614bd3565b80601f0160208091040260200160405190810160405280929190818152602001828054611d4e90614bd3565b8015611d9b5780601f10611d7057610100808354040283529160200191611d9b565b820191906000526020600020905b815481529060010190602001808311611d7e57829003601f168201915b505050505081526020016006820160009054906101000a900460ff1615151515815260200160078201548152602001600882015481525050858480611ddf90614b5c565b955081518110611df257611df161546e565b5b60200260200101819052505b508080611e0a90614b5c565b91505061199f565b505050919050565b60008060009054906101000a900473ffffffffffffffffffffffffffffffffffffffff16905090565b6060600080600090505b601260008573ffffffffffffffffffffffffffffffffffffffff1673ffffffffffffffffffffffffffffffffffffffff16815260200190815260200160002054811015611fae576000601160008673ffffffffffffffffffffffffffffffffffffffff1673ffffffffffffffffffffffffffffffffffffffff1681526020019081526020016000208281548110611ee757611ee661546e565b5b906000526020600020015490508473ffffffffffffffffffffffffffffffffffffffff16600f600083815260200190815260200160002060030160009054906101000a900473ffffffffffffffffffffffffffffffffffffffff1673ffffffffffffffffffffffffffffffffffffffff16148015611f865750600f600082815260200190815260200160002060030160149054906101000a900460ff16155b15611f9a578280611f9690614b5c565b9350505b508080611fa690614b5c565b915050611e4d565b508067ffffffffffffffff811115611fc957611fc8613b58565b5b60405190808252806020026020018201604052801561200257816020015b611fef6139e0565b815260200190600190039081611fe75790505b509150600080600090505b601260008673ffffffffffffffffffffffffffffffffffffffff1673ffffffffffffffffffffffffffffffffffffffff1681526020019081526020016000205481101561235b576000601160008773ffffffffffffffffffffffffffffffffffffffff1673ffffffffffffffffffffffffffffffffffffffff16815260200190815260200160002082815481106120a7576120a661546e565b5b906000526020600020015490508573ffffffffffffffffffffffffffffffffffffffff16600f600083815260200190815260200160002060030160009054906101000a900473ffffffffffffffffffffffffffffffffffffffff1673ffffffffffffffffffffffffffffffffffffffff161480156121465750600f600082815260200190815260200160002060030160149054906101000a900460ff16155b1561234757600f60008281526020019081526020016000206040518060e00160405290816000820154815260200160018201805461218390614bd3565b80601f01602080910402602001604051908101604052809291908181526020018280546121af90614bd3565b80156121fc5780601f106121d1576101008083540402835291602001916121fc565b820191906000526020600020905b8154815290600101906020018083116121df57829003601f168201915b5050505050815260200160028201805461221590614bd3565b80601f016020809104026020016040519081016040528092919081815260200182805461224190614bd3565b801561228e5780601f106122635761010080835404028352916020019161228e565b820191906000526020600020905b81548152906001019060200180831161227157829003601f168201915b505050505081526020016003820160009054906101000a900473ffffffffffffffffffffffffffffffffffffffff1673ffffffffffffffffffffffffffffffffffffffff1673ffffffffffffffffffffffffffffffffffffffff1681526020016003820160149054906101000a900460ff161515151581526020016004820154815260200160058201548152505085848061232890614b5c565b95508151811061233b5761233a61546e565b5b60200260200101819052505b50808061235390614b5c565b91505061200d565b505050919050565b6060600080600090505b600d6000858152602001908152602001600020805490508110156123ed5760006123c686600d600088815260200190815260200160002084815481106123b6576123b561546e565b5b9060005260206000200154613415565b146123da5781806123d690614b5c565b9250505b80806123e590614b5c565b91505061236d565b508067ffffffffffffffff81111561240857612407613b58565b5b60405190808252806020026020018201604052801561244157816020015b61242e6139e0565b8152602001906001900390816124265790505b509150600080600090505b600d6000868152602001908152602001600020805490508110156125205760006124a587600d600089815260200190815260200160002084815481106124955761249461546e565b5b9060005260206000200154613415565b1461250d576124e2600d600087815260200190815260200160002082815481106124d2576124d161546e565b5b9060005260206000200154611215565b8483806124ee90614b5c565b9450815181106125015761250061546e565b5b60200260200101819052505b808061251890614b5c565b91505061244c565b50505092915050565b6000612533613330565b6004600087815260200190815260200160002060009054906101000a900460ff16612593576040517f08c379a000000000000000000000000000000000000000000000000000000000815260040161258a906154e9565b60405180910390fd5b8373ffffffffffffffffffffffffffffffffffffffff166005600088815260200190815260200160002060010160009054906101000a900473ffffffffffffffffffffffffffffffffffffffff1673ffffffffffffffffffffffffffffffffffffffff1614612637576040517f08c379a000000000000000000000000000000000000000000000000000000000815260040161262e90615555565b60405180910390fd5b600e600086815260200190815260200160002060009054906101000a900460ff16612697576040517f08c379a000000000000000000000000000000000000000000000000000000000815260040161268e9061533e565b60405180910390fd5b6126a28385846133b7565b6126e1576040517f08c379a00000000000000000000000000000000000000000000000000000000081526004016126d89061495d565b60405180910390fd5b60008685876040516020016126f8939291906155de565b604051602081830303815290604052805190602001209050612718613a35565b60036000815461272790614b5c565b919050819055816000018181525050878160200181815250508681604001818152505085816060019073ffffffffffffffffffffffffffffffffffffffff16908173ffffffffffffffffffffffffffffffffffffffff16815250508181608001818152505060018160a00190151590811515815250506127a561354d565b8160c00181815250506127b661354d565b8160e001818152505080600960008360000151815260200190815260200160002060008201518160000155602082015181600101556040820151816002015560608201518160030160006101000a81548173ffffffffffffffffffffffffffffffffffffffff021916908373ffffffffffffffffffffffffffffffffffffffff1602179055506080820151816004015560a08201518160050160006101000a81548160ff02191690831515021790555060c0820151816006015560e082015181600701559050506001600860008360000151815260200190815260200160002060006101000a81548160ff021916908315150217905550600b6000888152602001908152602001600020816000015190806001815401808255809150506001900390600052602060002001600090919091909150556001600c6000898152602001908152602001600020600082825461290f9190614e82565b925050819055508060000151600a600084815260200190815260200160002081905550600d60008981526020019081526020016000208790806001815401808255809150506001900390600052602060002001600090919091909150553373ffffffffffffffffffffffffffffffffffffffff167fe63a460b8dabeb604b9976b03437e24ba6d9e603af187bb174d50ce4f6b3022982600001516129b161354d565b6040516129bf929190615667565b60405180910390a2819250505095945050505050565b6129dd61397c565b6005600083815260200190815260200160002060405180610120016040529081600082015481526020016001820160009054906101000a900473ffffffffffffffffffffffffffffffffffffffff1673ffffffffffffffffffffffffffffffffffffffff1673ffffffffffffffffffffffffffffffffffffffff168152602001600282018054612a6c90614bd3565b80601f0160208091040260200160405190810160405280929190818152602001828054612a9890614bd3565b8015612ae55780601f10612aba57610100808354040283529160200191612ae5565b820191906000526020600020905b815481529060010190602001808311612ac857829003601f168201915b50505050508152602001600382018054612afe90614bd3565b80601f0160208091040260200160405190810160405280929190818152602001828054612b2a90614bd3565b8015612b775780601f10612b4c57610100808354040283529160200191612b77565b820191906000526020600020905b815481529060010190602001808311612b5a57829003601f168201915b50505050508152602001600482018054612b9090614bd3565b80601f0160208091040260200160405190810160405280929190818152602001828054612bbc90614bd3565b8015612c095780601f10612bde57610100808354040283529160200191612c09565b820191906000526020600020905b815481529060010190602001808311612bec57829003601f168201915b50505050508152602001600582018054612c2290614bd3565b80601f0160208091040260200160405190810160405280929190818152602001828054612c4e90614bd3565b8015612c9b5780601f10612c7057610100808354040283529160200191612c9b565b820191906000526020600020905b815481529060010190602001808311612c7e57829003601f168201915b505050505081526020016006820160009054906101000a900460ff16151515158152602001600782015481526020016008820154815250509050919050565b600e600082815260200190815260200160002060009054906101000a900460ff16612d3a576040517f08c379a0000000000000000000000000000000000000000000000000000000008152600401612d319061533e565b60405180910390fd5b3373ffffffffffffffffffffffffffffffffffffffff16600f600083815260200190815260200160002060030160009054906101000a900473ffffffffffffffffffffffffffffffffffffffff1673ffffffffffffffffffffffffffffffffffffffff1614612dde576040517f08c379a0000000000000000000000000000000000000000000000000000000008152600401612dd59061524a565b60405180910390fd5b6000600e600083815260200190815260200160002060006101000a81548160ff0219169083151502179055506001600f600083815260200190815260200160002060030160146101000a81548160ff021916908315150217905550612e4161354d565b600f600083815260200190815260200160002060050181905550612e648161377f565b3373ffffffffffffffffffffffffffffffffffffffff167fcf40bd3705e373a5f70135f1d9765c2d97154b94b433601f78a9572c5765712482612ea561354d565b604051612eb39291906156ef565b60405180910390a250565b612ec6613330565b600073ffffffffffffffffffffffffffffffffffffffff168173ffffffffffffffffffffffffffffffffffffffff1603612f385760006040517f1e4fbdf7000000000000000000000000000000000000000000000000000000008152600401612f2f91906144e8565b60405180910390fd5b612f41816136bb565b50565b612f4c61397c565b6000612f578361356d565b03612f97576040517f08c379a0000000000000000000000000000000000000000000000000000000008152600401612f8e90614fbf565b60405180910390fd5b6004600060096000612fa88661356d565b815260200190815260200160002060010154815260200190815260200160002060009054906101000a900460ff16613015576040517f08c379a000000000000000000000000000000000000000000000000000000000815260040161300c90615777565b60405180910390fd5b60056000600960006130268661356d565b815260200190815260200160002060010154815260200190815260200160002060405180610120016040529081600082015481526020016001820160009054906101000a900473ffffffffffffffffffffffffffffffffffffffff1673ffffffffffffffffffffffffffffffffffffffff1673ffffffffffffffffffffffffffffffffffffffff1681526020016002820180546130c290614bd3565b80601f01602080910402602001604051908101604052809291908181526020018280546130ee90614bd3565b801561313b5780601f106131105761010080835404028352916020019161313b565b820191906000526020600020905b81548152906001019060200180831161311e57829003601f168201915b5050505050815260200160038201805461315490614bd3565b80601f016020809104026020016040519081016040528092919081815260200182805461318090614bd3565b80156131cd5780601f106131a2576101008083540402835291602001916131cd565b820191906000526020600020905b8154815290600101906020018083116131b057829003601f168201915b505050505081526020016004820180546131e690614bd3565b80601f016020809104026020016040519081016040528092919081815260200182805461321290614bd3565b801561325f5780601f106132345761010080835404028352916020019161325f565b820191906000526020600020905b81548152906001019060200180831161324257829003601f168201915b5050505050815260200160058201805461327890614bd3565b80601f01602080910402602001604051908101604052809291908181526020018280546132a490614bd3565b80156132f15780601f106132c6576101008083540402835291602001916132f1565b820191906000526020600020905b8154815290600101906020018083116132d457829003601f168201915b505050505081526020016006820160009054906101000a900460ff16151515158152602001600782015481526020016008820154815250509050919050565b61333861383d565b73ffffffffffffffffffffffffffffffffffffffff16613356611e1a565b73ffffffffffffffffffffffffffffffffffffffff16146133b55761337961383d565b6040517f118cdaa70000000000000000000000000000000000000000000000000000000081526004016133ac91906144e8565b60405180910390fd5b565b6000806133c385613845565b905060006133d082613875565b90508473ffffffffffffffffffffffffffffffffffffffff166133f382866138a5565b73ffffffffffffffffffffffffffffffffffffffff1614925050509392505050565b600080600090505b600c600084815260200190815260200160002054811015613541576000600b6000858152602001908152602001600020828154811061345f5761345e61546e565b5b906000526020600020015490508473ffffffffffffffffffffffffffffffffffffffff166009600083815260200190815260200160002060030160009054906101000a900473ffffffffffffffffffffffffffffffffffffffff1673ffffffffffffffffffffffffffffffffffffffff161480156134fd57506009600082815260200190815260200160002060050160009054906101000a900460ff165b801561351e5750836009600083815260200190815260200160002060020154145b1561352d578092505050613547565b50808061353990614b5c565b91505061341d565b50600090505b92915050565b60006103e8804261355e9190615797565b6135689190614e82565b905090565b600080600a60008481526020019081526020016000205490506009600082815260200190815260200160002060050160009054906101000a900460ff1680156135cb5750826009600083815260200190815260200160002060040154145b156135d957809150506135df565b60009150505b919050565b60006009600083815260200190815260200160002060050160006101000a81548160ff02191690831515021790555061361b61354d565b600960008381526020019081526020016000206007018190555060006008600083815260200190815260200160002060006101000a81548160ff0219169083151502179055503373ffffffffffffffffffffffffffffffffffffffff167fe63a460b8dabeb604b9976b03437e24ba6d9e603af187bb174d50ce4f6b30229826136a261354d565b6040516136b0929190615825565b60405180910390a250565b60008060009054906101000a900473ffffffffffffffffffffffffffffffffffffffff169050816000806101000a81548173ffffffffffffffffffffffffffffffffffffffff021916908373ffffffffffffffffffffffffffffffffffffffff1602179055508173ffffffffffffffffffffffffffffffffffffffff168173ffffffffffffffffffffffffffffffffffffffff167f8be0079c531659141344cd1fd0a4f28419497f9722a3daafe3b4186f6b6457e060405160405180910390a35050565b60005b600c600083815260200190815260200160002054811015613839576000600b600084815260200190815260200160002082815481106137c4576137c361546e565b5b9060005260206000200154905082600960008381526020019081526020016000206002015414801561381657506009600082815260200190815260200160002060050160009054906101000a900460ff165b1561382557613824816135e4565b5b50808061383190614b5c565b915050613782565b5050565b600033905090565b600081604051602001613858919061501b565b604051602081830303815290604052805190602001209050919050565b60008160405160200161388891906158ce565b604051602081830303815290604052805190602001209050919050565b6000806000806138b485613914565b925092509250600186828585604051600081526020016040526040516138dd9493929190615910565b6020604051602081039080840390855afa1580156138ff573d6000803e3d6000fd5b50505060206040510351935050505092915050565b6000806000604184511461395d576040517f08c379a0000000000000000000000000000000000000000000000000000000008152600401613954906148f1565b60405180910390fd5b6020840151925060408401519150606084015160001a90509193909250565b60405180610120016040528060008152602001600073ffffffffffffffffffffffffffffffffffffffff1681526020016060815260200160608152602001606081526020016060815260200160001515815260200160008152602001600081525090565b6040518060e00160405280600081526020016060815260200160608152602001600073ffffffffffffffffffffffffffffffffffffffff16815260200160001515815260200160008152602001600081525090565b604051806101000160405280600081526020016000815260200160008152602001600073ffffffffffffffffffffffffffffffffffffffff1681526020016000801916815260200160001515815260200160008152602001600081525090565b6000604051905090565b600080fd5b600080fd5b600073ffffffffffffffffffffffffffffffffffffffff82169050919050565b6000613ad482613aa9565b9050919050565b613ae481613ac9565b8114613aef57600080fd5b50565b600081359050613b0181613adb565b92915050565b6000819050919050565b613b1a81613b07565b8114613b2557600080fd5b50565b600081359050613b3781613b11565b92915050565b600080fd5b600080fd5b6000601f19601f8301169050919050565b7f4e487b7100000000000000000000000000000000000000000000000000000000600052604160045260246000fd5b613b9082613b47565b810181811067ffffffffffffffff82111715613baf57613bae613b58565b5b80604052505050565b6000613bc2613a95565b9050613bce8282613b87565b919050565b600067ffffffffffffffff821115613bee57613bed613b58565b5b613bf782613b47565b9050602081019050919050565b82818337600083830152505050565b6000613c26613c2184613bd3565b613bb8565b905082815260208101848484011115613c4257613c41613b42565b5b613c4d848285613c04565b509392505050565b600082601f830112613c6a57613c69613b3d565b5b8135613c7a848260208601613c13565b91505092915050565b600067ffffffffffffffff821115613c9e57613c9d613b58565b5b613ca782613b47565b9050602081019050919050565b6000613cc7613cc284613c83565b613bb8565b905082815260208101848484011115613ce357613ce2613b42565b5b613cee848285613c04565b509392505050565b600082601f830112613d0b57613d0a613b3d565b5b8135613d1b848260208601613cb4565b91505092915050565b60008060008060808587031215613d3e57613d3d613a9f565b5b6000613d4c87828801613af2565b9450506020613d5d87828801613b28565b935050604085013567ffffffffffffffff811115613d7e57613d7d613aa4565b5b613d8a87828801613c55565b925050606085013567ffffffffffffffff811115613dab57613daa613aa4565b5b613db787828801613cf6565b91505092959194509250565b6000819050919050565b613dd681613dc3565b82525050565b600081519050919050565b600082825260208201905092915050565b6000819050602082019050919050565b613e1181613b07565b82525050565b613e2081613ac9565b82525050565b600081519050919050565b600082825260208201905092915050565b60005b83811015613e60578082015181840152602081019050613e45565b60008484015250505050565b6000613e7782613e26565b613e818185613e31565b9350613e91818560208601613e42565b613e9a81613b47565b840191505092915050565b60008115159050919050565b613eba81613ea5565b82525050565b600061012083016000830151613ed96000860182613e08565b506020830151613eec6020860182613e17565b5060408301518482036040860152613f048282613e6c565b91505060608301518482036060860152613f1e8282613e6c565b91505060808301518482036080860152613f388282613e6c565b91505060a083015184820360a0860152613f528282613e6c565b91505060c0830151613f6760c0860182613eb1565b5060e0830151613f7a60e0860182613e08565b50610100830151613f8f610100860182613e08565b508091505092915050565b6000613fa68383613ec0565b905092915050565b6000602082019050919050565b6000613fc682613ddc565b613fd08185613de7565b935083602082028501613fe285613df8565b8060005b8581101561401e5784840389528151613fff8582613f9a565b945061400a83613fae565b925060208a01995050600181019050613fe6565b50829750879550505050505092915050565b60006040820190506140456000830185613dcd565b81810360208301526140578184613fbb565b90509392505050565b6000806000806080858703121561407a57614079613a9f565b5b600085013567ffffffffffffffff81111561409857614097613aa4565b5b6140a487828801613c55565b945050602085013567ffffffffffffffff8111156140c5576140c4613aa4565b5b6140d187828801613c55565b935050604085013567ffffffffffffffff8111156140f2576140f1613aa4565b5b6140fe87828801613c55565b925050606085013567ffffffffffffffff81111561411f5761411e613aa4565b5b61412b87828801613c55565b91505092959194509250565b61414081613dc3565b811461414b57600080fd5b50565b60008135905061415d81614137565b92915050565b60006020828403121561417957614178613a9f565b5b60006141878482850161414e565b91505092915050565b6000602082840312156141a6576141a5613a9f565b5b600082013567ffffffffffffffff8111156141c4576141c3613aa4565b5b6141d084828501613c55565b91505092915050565b600060e0830160008301516141f16000860182613e08565b50602083015184820360208601526142098282613e6c565b915050604083015184820360408601526142238282613e6c565b91505060608301516142386060860182613e17565b50608083015161424b6080860182613eb1565b5060a083015161425e60a0860182613e08565b5060c083015161427160c0860182613e08565b508091505092915050565b6000602082019050818103600083015261429681846141d9565b905092915050565b600080604083850312156142b5576142b4613a9f565b5b600083013567ffffffffffffffff8111156142d3576142d2613aa4565b5b6142df85828601613c55565b925050602083013567ffffffffffffffff811115614300576142ff613aa4565b5b61430c85828601613c55565b9150509250929050565b600080600080600060a0868803121561433257614331613a9f565b5b600061434088828901613b28565b955050602086013567ffffffffffffffff81111561436157614360613aa4565b5b61436d88828901613c55565b945050604086013567ffffffffffffffff81111561438e5761438d613aa4565b5b61439a88828901613c55565b935050606086013567ffffffffffffffff8111156143bb576143ba613aa4565b5b6143c788828901613c55565b925050608086013567ffffffffffffffff8111156143e8576143e7613aa4565b5b6143f488828901613c55565b9150509295509295909350565b60006020828403121561441757614416613a9f565b5b600061442584828501613b28565b91505092915050565b6000806040838503121561444557614444613a9f565b5b600061445385828601613b28565b925050602083013567ffffffffffffffff81111561447457614473613aa4565b5b61448085828601613c55565b9150509250929050565b6000602082840312156144a05761449f613a9f565b5b60006144ae84828501613af2565b91505092915050565b600060208201905081810360008301526144d18184613fbb565b905092915050565b6144e281613ac9565b82525050565b60006020820190506144fd60008301846144d9565b92915050565b600081519050919050565b600082825260208201905092915050565b6000819050602082019050919050565b600060e0830160008301516145476000860182613e08565b506020830151848203602086015261455f8282613e6c565b915050604083015184820360408601526145798282613e6c565b915050606083015161458e6060860182613e17565b5060808301516145a16080860182613eb1565b5060a08301516145b460a0860182613e08565b5060c08301516145c760c0860182613e08565b508091505092915050565b60006145de838361452f565b905092915050565b6000602082019050919050565b60006145fe82614503565b614608818561450e565b93508360208202850161461a8561451f565b8060005b85811015614656578484038952815161463785826145d2565b9450614642836145e6565b925060208a0199505060018101905061461e565b50829750879550505050505092915050565b6000602082019050818103600083015261468281846145f3565b905092915050565b600080604083850312156146a1576146a0613a9f565b5b60006146af85828601613af2565b92505060206146c085828601613b28565b9150509250929050565b600080600080600060a086880312156146e6576146e5613a9f565b5b60006146f488828901613b28565b955050602061470588828901613b28565b945050604061471688828901613af2565b935050606086013567ffffffffffffffff81111561473757614736613aa4565b5b61474388828901613c55565b925050608086013567ffffffffffffffff81111561476457614763613aa4565b5b61477088828901613cf6565b9150509295509295909350565b60006020820190506147926000830184613dcd565b92915050565b6000610120830160008301516147b16000860182613e08565b5060208301516147c46020860182613e17565b50604083015184820360408601526147dc8282613e6c565b915050606083015184820360608601526147f68282613e6c565b915050608083015184820360808601526148108282613e6c565b91505060a083015184820360a086015261482a8282613e6c565b91505060c083015161483f60c0860182613eb1565b5060e083015161485260e0860182613e08565b50610100830151614867610100860182613e08565b508091505092915050565b6000602082019050818103600083015261488c8184614798565b905092915050565b600082825260208201905092915050565b7f496e76616c6964207369676e6174757265206c656e6774680000000000000000600082015250565b60006148db601883614894565b91506148e6826148a5565b602082019050919050565b6000602082019050818103600083015261490a816148ce565b9050919050565b7f556e61626c6520746f2076616c6964617465207369676e617475726500000000600082015250565b6000614947601c83614894565b915061495282614911565b602082019050919050565b600060208201905081810360008301526149768161493a565b9050919050565b7f557365726e616d65206d757374206e6f7420626520656d707479000000000000600082015250565b60006149b3601a83614894565b91506149be8261497d565b602082019050919050565b600060208201905081810360008301526149e2816149a6565b9050919050565b7f504650206d757374206e6f7420626520656d7074790000000000000000000000600082015250565b6000614a1f601583614894565b9150614a2a826149e9565b602082019050919050565b60006020820190508181036000830152614a4e81614a12565b9050919050565b7f456d61696c2061646472657373206d757374206e6f7420626520656d70747900600082015250565b6000614a8b601f83614894565b9150614a9682614a55565b602082019050919050565b60006020820190508181036000830152614aba81614a7e565b9050919050565b7f42696f206d757374206e6f7420626520656d7074790000000000000000000000600082015250565b6000614af7601583614894565b9150614b0282614ac1565b602082019050919050565b60006020820190508181036000830152614b2681614aea565b9050919050565b7f4e487b7100000000000000000000000000000000000000000000000000000000600052601160045260246000fd5b6000614b6782613b07565b91507fffffffffffffffffffffffffffffffffffffffffffffffffffffffffffffffff8203614b9957614b98614b2d565b5b600182019050919050565b7f4e487b7100000000000000000000000000000000000000000000000000000000600052602260045260246000fd5b60006002820490506001821680614beb57607f821691505b602082108103614bfe57614bfd614ba4565b5b50919050565b60008190508160005260206000209050919050565b60006020601f8301049050919050565b600082821b905092915050565b600060088302614c667fffffffffffffffffffffffffffffffffffffffffffffffffffffffffffffffff82614c29565b614c708683614c29565b95508019841693508086168417925050509392505050565b6000819050919050565b6000614cad614ca8614ca384613b07565b614c88565b613b07565b9050919050565b6000819050919050565b614cc783614c92565b614cdb614cd382614cb4565b848454614c36565b825550505050565b600090565b614cf0614ce3565b614cfb818484614cbe565b505050565b5b81811015614d1f57614d14600082614ce8565b600181019050614d01565b5050565b601f821115614d6457614d3581614c04565b614d3e84614c19565b81016020851015614d4d578190505b614d61614d5985614c19565b830182614d00565b50505b505050565b600082821c905092915050565b6000614d8760001984600802614d69565b1980831691505092915050565b6000614da08383614d76565b9150826002028217905092915050565b614db982613e26565b67ffffffffffffffff811115614dd257614dd1613b58565b5b614ddc8254614bd3565b614de7828285614d23565b600060209050601f831160018114614e1a5760008415614e08578287015190505b614e128582614d94565b865550614e7a565b601f198416614e2886614c04565b60005b82811015614e5057848901518255600182019150602085019450602081019050614e2b565b86831015614e6d5784890151614e69601f891682614d76565b8355505b6001600288020188555050505b505050505050565b6000614e8d82613b07565b9150614e9883613b07565b9250828201905080821115614eb057614eaf614b2d565b5b92915050565b614ebf81613b07565b82525050565b7f4372656174656420436172640000000000000000000000000000000000000000600082015250565b6000614efb600c83614894565b9150614f0682614ec5565b602082019050919050565b6000606082019050614f266000830185614eb6565b8181036020830152614f3781614eee565b9050614f466040830184614eb6565b9392505050565b7f496e76616c6964206f72204578706972656420746f6b656e2070726f7669646560008201527f6400000000000000000000000000000000000000000000000000000000000000602082015250565b6000614fa9602183614894565b9150614fb482614f4d565b604082019050919050565b60006020820190508181036000830152614fd881614f9c565b9050919050565b600081905092915050565b6000614ff582613e26565b614fff8185614fdf565b935061500f818560208601613e42565b80840191505092915050565b60006150278284614fea565b915081905092915050565b7f446f6d61696e206d757374206e6f7420626520656d7074790000000000000000600082015250565b6000615068601883614894565b915061507382615032565b602082019050919050565b600060208201905081810360008301526150978161505b565b9050919050565b7f41636365737320546f6b656e206d757374206e6f7420626520656d7074790000600082015250565b60006150d4601e83614894565b91506150df8261509e565b602082019050919050565b60006020820190508181036000830152615103816150c7565b9050919050565b7f5265676973746572656420644170700000000000000000000000000000000000600082015250565b6000615140600f83614894565b915061514b8261510a565b602082019050919050565b600060608201905061516b6000830185614eb6565b818103602083015261517c81615133565b905061518b6040830184614eb6565b9392505050565b7f43617264206e6f7420666f756e64000000000000000000000000000000000000600082015250565b60006151c8600e83614894565b91506151d382615192565b602082019050919050565b600060208201905081810360008301526151f7816151bb565b9050919050565b7f556e617574686f72697a65640000000000000000000000000000000000000000600082015250565b6000615234600c83614894565b915061523f826151fe565b602082019050919050565b6000602082019050818103600083015261526381615227565b9050919050565b7f5570646174656420436172640000000000000000000000000000000000000000600082015250565b60006152a0600c83614894565b91506152ab8261526a565b602082019050919050565b60006060820190506152cb6000830185614eb6565b81810360208301526152dc81615293565b90506152eb6040830184614eb6565b9392505050565b7f64417070206e6f74207265676973746572656400000000000000000000000000600082015250565b6000615328601383614894565b9150615333826152f2565b602082019050919050565b600060208201905081810360008301526153578161531b565b9050919050565b7f5570646174656420644170700000000000000000000000000000000000000000600082015250565b6000615394600c83614894565b915061539f8261535e565b602082019050919050565b60006060820190506153bf6000830185614eb6565b81810360208301526153d081615387565b90506153df6040830184614eb6565b9392505050565b7f44656c6574656420436172640000000000000000000000000000000000000000600082015250565b600061541c600c83614894565b9150615427826153e6565b602082019050919050565b60006060820190506154476000830185614eb6565b81810360208301526154588161540f565b90506154676040830184614eb6565b9392505050565b7f4e487b7100000000000000000000000000000000000000000000000000000000600052603260045260246000fd5b7f4361726420646f6573206e6f7420657869737400000000000000000000000000600082015250565b60006154d3601383614894565b91506154de8261549d565b602082019050919050565b60006020820190508181036000830152615502816154c6565b9050919050565b7f4163636573732064656e69656400000000000000000000000000000000000000600082015250565b600061553f600d83614894565b915061554a82615509565b602082019050919050565b6000602082019050818103600083015261556e81615532565b9050919050565b6000819050919050565b61559061558b82613b07565b615575565b82525050565b60008160601b9050919050565b60006155ae82615596565b9050919050565b60006155c0826155a3565b9050919050565b6155d86155d382613ac9565b6155b5565b82525050565b60006155ea828661557f565b6020820191506155fa82856155c7565b60148201915061560a828461557f565b602082019150819050949350505050565b7f437265617465642053657373696f6e20546f6b656e0000000000000000000000600082015250565b6000615651601583614894565b915061565c8261561b565b602082019050919050565b600060608201905061567c6000830185614eb6565b818103602083015261568d81615644565b905061569c6040830184614eb6565b9392505050565b7f44656c6574656420644170700000000000000000000000000000000000000000600082015250565b60006156d9600c83614894565b91506156e4826156a3565b602082019050919050565b60006060820190506157046000830185614eb6565b8181036020830152615715816156cc565b90506157246040830184614eb6565b9392505050565b7f43617264206e6f7420666f756e64210000000000000000000000000000000000600082015250565b6000615761600f83614894565b915061576c8261572b565b602082019050919050565b6000602082019050818103600083015261579081615754565b9050919050565b60006157a282613b07565b91506157ad83613b07565b92508282026157bb81613b07565b915082820484148315176157d2576157d1614b2d565b5b5092915050565b7f44656163746976617465642053657373696f6e20546f6b656e00000000000000600082015250565b600061580f601983614894565b915061581a826157d9565b602082019050919050565b600060608201905061583a6000830185614eb6565b818103602083015261584b81615802565b905061585a6040830184614eb6565b9392505050565b7f19457468657265756d205369676e6564204d6573736167653a0a333200000000600082015250565b6000615897601c83614fdf565b91506158a282615861565b601c82019050919050565b6000819050919050565b6158c86158c382613dc3565b6158ad565b82525050565b60006158d98261588a565b91506158e582846158b7565b60208201915081905092915050565b600060ff82169050919050565b61590a816158f4565b82525050565b60006080820190506159256000830187613dcd565b6159326020830186615901565b61593f6040830185613dcd565b61594c6060830184613dcd565b9594505050505056fea2646970667358221220eca93d0c871c8de3bfcc8f42f33e91acf0c9e5ad08465b296d5df684f0b6951264736f6c63430008140033","opcodes":"PUSH1 0x80 PUSH1 0x40 MSTORE CALLVALUE DUP1 ISZERO PUSH3 0x11 JUMPI PUSH1 0x0 DUP1 REVERT JUMPDEST POP CALLER PUSH1 0x0 PUSH20 0xFFFFFFFFFFFFFFFFFFFFFFFFFFFFFFFFFFFFFFFF AND DUP2 PUSH20 0xFFFFFFFFFFFFFFFFFFFFFFFFFFFFFFFFFFFFFFFF AND SUB PUSH3 0x88 JUMPI PUSH1 0x0 PUSH1 0x40 MLOAD PUSH32 0x1E4FBDF700000000000000000000000000000000000000000000000000000000 DUP2 MSTORE PUSH1 0x4 ADD PUSH3 0x7F SWAP2 SWAP1 PUSH3 0x1A9 JUMP JUMPDEST PUSH1 0x40 MLOAD DUP1 SWAP2 SUB SWAP1 REVERT JUMPDEST PUSH3 0x99 DUP2 PUSH3 0xA0 PUSH1 0x20 SHL PUSH1 0x20 SHR JUMP JUMPDEST POP PUSH3 0x1C6 JUMP JUMPDEST PUSH1 0x0 DUP1 PUSH1 0x0 SWAP1 SLOAD SWAP1 PUSH2 0x100 EXP SWAP1 DIV PUSH20 0xFFFFFFFFFFFFFFFFFFFFFFFFFFFFFFFFFFFFFFFF AND SWAP1 POP DUP2 PUSH1 0x0 DUP1 PUSH2 0x100 EXP DUP2 SLOAD DUP2 PUSH20 0xFFFFFFFFFFFFFFFFFFFFFFFFFFFFFFFFFFFFFFFF MUL NOT AND SWAP1 DUP4 PUSH20 0xFFFFFFFFFFFFFFFFFFFFFFFFFFFFFFFFFFFFFFFF AND MUL OR SWAP1 SSTORE POP DUP2 PUSH20 0xFFFFFFFFFFFFFFFFFFFFFFFFFFFFFFFFFFFFFFFF AND DUP2 PUSH20 0xFFFFFFFFFFFFFFFFFFFFFFFFFFFFFFFFFFFFFFFF AND PUSH32 0x8BE0079C531659141344CD1FD0A4F28419497F9722A3DAAFE3B4186F6B6457E0 PUSH1 0x40 MLOAD PUSH1 0x40 MLOAD DUP1 SWAP2 SUB SWAP1 LOG3 POP POP JUMP JUMPDEST PUSH1 0x0 PUSH20 0xFFFFFFFFFFFFFFFFFFFFFFFFFFFFFFFFFFFFFFFF DUP3 AND SWAP1 POP SWAP2 SWAP1 POP JUMP JUMPDEST PUSH1 0x0 PUSH3 0x191 DUP3 PUSH3 0x164 JUMP JUMPDEST SWAP1 POP SWAP2 SWAP1 POP JUMP JUMPDEST PUSH3 0x1A3 DUP2 PUSH3 0x184 JUMP JUMPDEST DUP3 MSTORE POP POP JUMP JUMPDEST PUSH1 0x0 PUSH1 0x20 DUP3 ADD SWAP1 POP PUSH3 0x1C0 PUSH1 0x0 DUP4 ADD DUP5 PUSH3 0x198 JUMP JUMPDEST SWAP3 SWAP2 POP POP JUMP JUMPDEST PUSH2 0x598B DUP1 PUSH3 0x1D6 PUSH1 0x0 CODECOPY PUSH1 0x0 RETURN INVALID PUSH1 0x80 PUSH1 0x40 MSTORE CALLVALUE DUP1 ISZERO PUSH2 0x10 JUMPI PUSH1 0x0 DUP1 REVERT JUMPDEST POP PUSH1 0x4 CALLDATASIZE LT PUSH2 0x121 JUMPI PUSH1 0x0 CALLDATALOAD PUSH1 0xE0 SHR DUP1 PUSH4 0x715018A6 GT PUSH2 0xAD JUMPI DUP1 PUSH4 0xDD55C1B0 GT PUSH2 0x71 JUMPI DUP1 PUSH4 0xDD55C1B0 EQ PUSH2 0x317 JUMPI DUP1 PUSH4 0xE10B79FA EQ PUSH2 0x347 JUMPI DUP1 PUSH4 0xE247DEA8 EQ PUSH2 0x377 JUMPI DUP1 PUSH4 0xF2FDE38B EQ PUSH2 0x393 JUMPI DUP1 PUSH4 0xF7C91C03 EQ PUSH2 0x3AF JUMPI PUSH2 0x121 JUMP JUMPDEST DUP1 PUSH4 0x715018A6 EQ PUSH2 0x25F JUMPI DUP1 PUSH4 0x88D9F40D EQ PUSH2 0x269 JUMPI DUP1 PUSH4 0x8DA5CB5B EQ PUSH2 0x299 JUMPI DUP1 PUSH4 0xA3104EB5 EQ PUSH2 0x2B7 JUMPI DUP1 PUSH4 0xC392B0DF EQ PUSH2 0x2E7 JUMPI PUSH2 0x121 JUMP JUMPDEST DUP1 PUSH4 0x46D8066E GT PUSH2 0xF4 JUMPI DUP1 PUSH4 0x46D8066E EQ PUSH2 0x1BF JUMPI DUP1 PUSH4 0x48BF10C9 EQ PUSH2 0x1DB JUMPI DUP1 PUSH4 0x53D85919 EQ PUSH2 0x1F7 JUMPI DUP1 PUSH4 0x555F7817 EQ PUSH2 0x227 JUMPI DUP1 PUSH4 0x5E1ACF65 EQ PUSH2 0x243 JUMPI PUSH2 0x121 JUMP JUMPDEST DUP1 PUSH4 0x6BDD454 EQ PUSH2 0x126 JUMPI DUP1 PUSH4 0xC2AD3F9 EQ PUSH2 0x157 JUMPI DUP1 PUSH4 0x1D12AA9B EQ PUSH2 0x173 JUMPI DUP1 PUSH4 0x3901A908 EQ PUSH2 0x18F JUMPI JUMPDEST PUSH1 0x0 DUP1 REVERT JUMPDEST PUSH2 0x140 PUSH1 0x4 DUP1 CALLDATASIZE SUB DUP2 ADD SWAP1 PUSH2 0x13B SWAP2 SWAP1 PUSH2 0x3D24 JUMP JUMPDEST PUSH2 0x3DF JUMP JUMPDEST PUSH1 0x40 MLOAD PUSH2 0x14E SWAP3 SWAP2 SWAP1 PUSH2 0x4030 JUMP JUMPDEST PUSH1 0x40 MLOAD DUP1 SWAP2 SUB SWAP1 RETURN JUMPDEST PUSH2 0x171 PUSH1 0x4 DUP1 CALLDATASIZE SUB DUP2 ADD SWAP1 PUSH2 0x16C SWAP2 SWAP1 PUSH2 0x4060 JUMP JUMPDEST PUSH2 0x525 JUMP JUMPDEST STOP JUMPDEST PUSH2 0x18D PUSH1 0x4 DUP1 CALLDATASIZE SUB DUP2 ADD SWAP1 PUSH2 0x188 SWAP2 SWAP1 PUSH2 0x4163 JUMP JUMPDEST PUSH2 0x926 JUMP JUMPDEST STOP JUMPDEST PUSH2 0x1A9 PUSH1 0x4 DUP1 CALLDATASIZE SUB DUP2 ADD SWAP1 PUSH2 0x1A4 SWAP2 SWAP1 PUSH2 0x4190 JUMP JUMPDEST PUSH2 0x98D JUMP JUMPDEST PUSH1 0x40 MLOAD PUSH2 0x1B6 SWAP2 SWAP1 PUSH2 0x427C JUMP JUMPDEST PUSH1 0x40 MLOAD DUP1 SWAP2 SUB SWAP1 RETURN JUMPDEST PUSH2 0x1D9 PUSH1 0x4 DUP1 CALLDATASIZE SUB DUP2 ADD SWAP1 PUSH2 0x1D4 SWAP2 SWAP1 PUSH2 0x429E JUMP JUMPDEST PUSH2 0xB93 JUMP JUMPDEST STOP JUMPDEST PUSH2 0x1F5 PUSH1 0x4 DUP1 CALLDATASIZE SUB DUP2 ADD SWAP1 PUSH2 0x1F0 SWAP2 SWAP1 PUSH2 0x4316 JUMP JUMPDEST PUSH2 0xEF1 JUMP JUMPDEST STOP JUMPDEST PUSH2 0x211 PUSH1 0x4 DUP1 CALLDATASIZE SUB DUP2 ADD SWAP1 PUSH2 0x20C SWAP2 SWAP1 PUSH2 0x4401 JUMP JUMPDEST PUSH2 0x1215 JUMP JUMPDEST PUSH1 0x40 MLOAD PUSH2 0x21E SWAP2 SWAP1 PUSH2 0x427C JUMP JUMPDEST PUSH1 0x40 MLOAD DUP1 SWAP2 SUB SWAP1 RETURN JUMPDEST PUSH2 0x241 PUSH1 0x4 DUP1 CALLDATASIZE SUB DUP2 ADD SWAP1 PUSH2 0x23C SWAP2 SWAP1 PUSH2 0x442E JUMP JUMPDEST PUSH2 0x13F5 JUMP JUMPDEST STOP JUMPDEST PUSH2 0x25D PUSH1 0x4 DUP1 CALLDATASIZE SUB DUP2 ADD SWAP1 PUSH2 0x258 SWAP2 SWAP1 PUSH2 0x4401 JUMP JUMPDEST PUSH2 0x15DE JUMP JUMPDEST STOP JUMPDEST PUSH2 0x267 PUSH2 0x17B9 JUMP JUMPDEST STOP JUMPDEST PUSH2 0x283 PUSH1 0x4 DUP1 CALLDATASIZE SUB DUP2 ADD SWAP1 PUSH2 0x27E SWAP2 SWAP1 PUSH2 0x448A JUMP JUMPDEST PUSH2 0x17CD JUMP JUMPDEST PUSH1 0x40 MLOAD PUSH2 0x290 SWAP2 SWAP1 PUSH2 0x44B7 JUMP JUMPDEST PUSH1 0x40 MLOAD DUP1 SWAP2 SUB SWAP1 RETURN JUMPDEST PUSH2 0x2A1 PUSH2 0x1E1A JUMP JUMPDEST PUSH1 0x40 MLOAD PUSH2 0x2AE SWAP2 SWAP1 PUSH2 0x44E8 JUMP JUMPDEST PUSH1 0x40 MLOAD DUP1 SWAP2 SUB SWAP1 RETURN JUMPDEST PUSH2 0x2D1 PUSH1 0x4 DUP1 CALLDATASIZE SUB DUP2 ADD SWAP1 PUSH2 0x2CC SWAP2 SWAP1 PUSH2 0x448A JUMP JUMPDEST PUSH2 0x1E43 JUMP JUMPDEST PUSH1 0x40 MLOAD PUSH2 0x2DE SWAP2 SWAP1 PUSH2 0x4668 JUMP JUMPDEST PUSH1 0x40 MLOAD DUP1 SWAP2 SUB SWAP1 RETURN JUMPDEST PUSH2 0x301 PUSH1 0x4 DUP1 CALLDATASIZE SUB DUP2 ADD SWAP1 PUSH2 0x2FC SWAP2 SWAP1 PUSH2 0x468A JUMP JUMPDEST PUSH2 0x2363 JUMP JUMPDEST PUSH1 0x40 MLOAD PUSH2 0x30E SWAP2 SWAP1 PUSH2 0x4668 JUMP JUMPDEST PUSH1 0x40 MLOAD DUP1 SWAP2 SUB SWAP1 RETURN JUMPDEST PUSH2 0x331 PUSH1 0x4 DUP1 CALLDATASIZE SUB DUP2 ADD SWAP1 PUSH2 0x32C SWAP2 SWAP1 PUSH2 0x46CA JUMP JUMPDEST PUSH2 0x2529 JUMP JUMPDEST PUSH1 0x40 MLOAD PUSH2 0x33E SWAP2 SWAP1 PUSH2 0x477D JUMP JUMPDEST PUSH1 0x40 MLOAD DUP1 SWAP2 SUB SWAP1 RETURN JUMPDEST PUSH2 0x361 PUSH1 0x4 DUP1 CALLDATASIZE SUB DUP2 ADD SWAP1 PUSH2 0x35C SWAP2 SWAP1 PUSH2 0x4401 JUMP JUMPDEST PUSH2 0x29D5 JUMP JUMPDEST PUSH1 0x40 MLOAD PUSH2 0x36E SWAP2 SWAP1 PUSH2 0x4872 JUMP JUMPDEST PUSH1 0x40 MLOAD DUP1 SWAP2 SUB SWAP1 RETURN JUMPDEST PUSH2 0x391 PUSH1 0x4 DUP1 CALLDATASIZE SUB DUP2 ADD SWAP1 PUSH2 0x38C SWAP2 SWAP1 PUSH2 0x4401 JUMP JUMPDEST PUSH2 0x2CDA JUMP JUMPDEST STOP JUMPDEST PUSH2 0x3AD PUSH1 0x4 DUP1 CALLDATASIZE SUB DUP2 ADD SWAP1 PUSH2 0x3A8 SWAP2 SWAP1 PUSH2 0x448A JUMP JUMPDEST PUSH2 0x2EBE JUMP JUMPDEST STOP JUMPDEST PUSH2 0x3C9 PUSH1 0x4 DUP1 CALLDATASIZE SUB DUP2 ADD SWAP1 PUSH2 0x3C4 SWAP2 SWAP1 PUSH2 0x4163 JUMP JUMPDEST PUSH2 0x2F44 JUMP JUMPDEST PUSH1 0x40 MLOAD PUSH2 0x3D6 SWAP2 SWAP1 PUSH2 0x4872 JUMP JUMPDEST PUSH1 0x40 MLOAD DUP1 SWAP2 SUB SWAP1 RETURN JUMPDEST PUSH1 0x0 PUSH1 0x60 PUSH2 0x3EB PUSH2 0x3330 JUMP JUMPDEST PUSH1 0x41 DUP4 MLOAD EQ PUSH2 0x42F JUMPI PUSH1 0x40 MLOAD PUSH32 0x8C379A000000000000000000000000000000000000000000000000000000000 DUP2 MSTORE PUSH1 0x4 ADD PUSH2 0x426 SWAP1 PUSH2 0x48F1 JUMP JUMPDEST PUSH1 0x40 MLOAD DUP1 SWAP2 SUB SWAP1 REVERT JUMPDEST PUSH2 0x43A DUP5 DUP8 DUP6 PUSH2 0x33B7 JUMP JUMPDEST PUSH2 0x479 JUMPI PUSH1 0x40 MLOAD PUSH32 0x8C379A000000000000000000000000000000000000000000000000000000000 DUP2 MSTORE PUSH1 0x4 ADD PUSH2 0x470 SWAP1 PUSH2 0x495D JUMP JUMPDEST PUSH1 0x40 MLOAD DUP1 SWAP2 SUB SWAP1 REVERT JUMPDEST PUSH1 0x0 PUSH2 0x485 DUP8 DUP8 PUSH2 0x3415 JUMP JUMPDEST SWAP1 POP PUSH1 0x0 DUP2 SUB PUSH2 0x4AA JUMPI PUSH1 0x0 PUSH2 0x49A DUP9 PUSH2 0x17CD JUMP JUMPDEST DUP2 PUSH1 0x0 SHL SWAP2 POP SWAP3 POP SWAP3 POP POP PUSH2 0x51C JUMP JUMPDEST PUSH1 0x9 PUSH1 0x0 DUP3 DUP2 MSTORE PUSH1 0x20 ADD SWAP1 DUP2 MSTORE PUSH1 0x20 ADD PUSH1 0x0 KECCAK256 PUSH1 0x4 ADD SLOAD PUSH1 0x0 PUSH8 0xFFFFFFFFFFFFFFFF DUP2 GT ISZERO PUSH2 0x4DC JUMPI PUSH2 0x4DB PUSH2 0x3B58 JUMP JUMPDEST JUMPDEST PUSH1 0x40 MLOAD SWAP1 DUP1 DUP3 MSTORE DUP1 PUSH1 0x20 MUL PUSH1 0x20 ADD DUP3 ADD PUSH1 0x40 MSTORE DUP1 ISZERO PUSH2 0x515 JUMPI DUP2 PUSH1 0x20 ADD JUMPDEST PUSH2 0x502 PUSH2 0x397C JUMP JUMPDEST DUP2 MSTORE PUSH1 0x20 ADD SWAP1 PUSH1 0x1 SWAP1 SUB SWAP1 DUP2 PUSH2 0x4FA JUMPI SWAP1 POP JUMPDEST POP SWAP3 POP SWAP3 POP POP JUMPDEST SWAP5 POP SWAP5 SWAP3 POP POP POP JUMP JUMPDEST PUSH1 0x0 DUP5 MLOAD GT PUSH2 0x569 JUMPI PUSH1 0x40 MLOAD PUSH32 0x8C379A000000000000000000000000000000000000000000000000000000000 DUP2 MSTORE PUSH1 0x4 ADD PUSH2 0x560 SWAP1 PUSH2 0x49C9 JUMP JUMPDEST PUSH1 0x40 MLOAD DUP1 SWAP2 SUB SWAP1 REVERT JUMPDEST PUSH1 0x0 DUP4 MLOAD GT PUSH2 0x5AD JUMPI PUSH1 0x40 MLOAD PUSH32 0x8C379A000000000000000000000000000000000000000000000000000000000 DUP2 MSTORE PUSH1 0x4 ADD PUSH2 0x5A4 SWAP1 PUSH2 0x4A35 JUMP JUMPDEST PUSH1 0x40 MLOAD DUP1 SWAP2 SUB SWAP1 REVERT JUMPDEST PUSH1 0x0 DUP3 MLOAD GT PUSH2 0x5F1 JUMPI PUSH1 0x40 MLOAD PUSH32 0x8C379A000000000000000000000000000000000000000000000000000000000 DUP2 MSTORE PUSH1 0x4 ADD PUSH2 0x5E8 SWAP1 PUSH2 0x4AA1 JUMP JUMPDEST PUSH1 0x40 MLOAD DUP1 SWAP2 SUB SWAP1 REVERT JUMPDEST PUSH1 0x0 DUP2 MLOAD GT PUSH2 0x635 JUMPI PUSH1 0x40 MLOAD PUSH32 0x8C379A000000000000000000000000000000000000000000000000000000000 DUP2 MSTORE PUSH1 0x4 ADD PUSH2 0x62C SWAP1 PUSH2 0x4B0D JUMP JUMPDEST PUSH1 0x40 MLOAD DUP1 SWAP2 SUB SWAP1 REVERT JUMPDEST PUSH2 0x63D PUSH2 0x397C JUMP JUMPDEST PUSH1 0x1 PUSH1 0x0 DUP2 SLOAD PUSH2 0x64C SWAP1 PUSH2 0x4B5C JUMP JUMPDEST SWAP2 SWAP1 POP DUP2 SWAP1 SSTORE DUP2 PUSH1 0x0 ADD DUP2 DUP2 MSTORE POP POP DUP5 DUP2 PUSH1 0x40 ADD DUP2 SWAP1 MSTORE POP CALLER DUP2 PUSH1 0x20 ADD SWAP1 PUSH20 0xFFFFFFFFFFFFFFFFFFFFFFFFFFFFFFFFFFFFFFFF AND SWAP1 DUP2 PUSH20 0xFFFFFFFFFFFFFFFFFFFFFFFFFFFFFFFFFFFFFFFF AND DUP2 MSTORE POP POP DUP4 DUP2 PUSH1 0x60 ADD DUP2 SWAP1 MSTORE POP DUP3 DUP2 PUSH1 0x80 ADD DUP2 SWAP1 MSTORE POP DUP2 DUP2 PUSH1 0xA0 ADD DUP2 SWAP1 MSTORE POP PUSH2 0x6BF PUSH2 0x354D JUMP JUMPDEST DUP2 PUSH1 0xE0 ADD DUP2 DUP2 MSTORE POP POP PUSH2 0x6D0 PUSH2 0x354D JUMP JUMPDEST DUP2 PUSH2 0x100 ADD DUP2 DUP2 MSTORE POP POP DUP1 PUSH1 0x5 PUSH1 0x0 DUP4 PUSH1 0x0 ADD MLOAD DUP2 MSTORE PUSH1 0x20 ADD SWAP1 DUP2 MSTORE PUSH1 0x20 ADD PUSH1 0x0 KECCAK256 PUSH1 0x0 DUP3 ADD MLOAD DUP2 PUSH1 0x0 ADD SSTORE PUSH1 0x20 DUP3 ADD MLOAD DUP2 PUSH1 0x1 ADD PUSH1 0x0 PUSH2 0x100 EXP DUP2 SLOAD DUP2 PUSH20 0xFFFFFFFFFFFFFFFFFFFFFFFFFFFFFFFFFFFFFFFF MUL NOT AND SWAP1 DUP4 PUSH20 0xFFFFFFFFFFFFFFFFFFFFFFFFFFFFFFFFFFFFFFFF AND MUL OR SWAP1 SSTORE POP PUSH1 0x40 DUP3 ADD MLOAD DUP2 PUSH1 0x2 ADD SWAP1 DUP2 PUSH2 0x758 SWAP2 SWAP1 PUSH2 0x4DB0 JUMP JUMPDEST POP PUSH1 0x60 DUP3 ADD MLOAD DUP2 PUSH1 0x3 ADD SWAP1 DUP2 PUSH2 0x76E SWAP2 SWAP1 PUSH2 0x4DB0 JUMP JUMPDEST POP PUSH1 0x80 DUP3 ADD MLOAD DUP2 PUSH1 0x4 ADD SWAP1 DUP2 PUSH2 0x784 SWAP2 SWAP1 PUSH2 0x4DB0 JUMP JUMPDEST POP PUSH1 0xA0 DUP3 ADD MLOAD DUP2 PUSH1 0x5 ADD SWAP1 DUP2 PUSH2 0x79A SWAP2 SWAP1 PUSH2 0x4DB0 JUMP JUMPDEST POP PUSH1 0xC0 DUP3 ADD MLOAD DUP2 PUSH1 0x6 ADD PUSH1 0x0 PUSH2 0x100 EXP DUP2 SLOAD DUP2 PUSH1 0xFF MUL NOT AND SWAP1 DUP4 ISZERO ISZERO MUL OR SWAP1 SSTORE POP PUSH1 0xE0 DUP3 ADD MLOAD DUP2 PUSH1 0x7 ADD SSTORE PUSH2 0x100 DUP3 ADD MLOAD DUP2 PUSH1 0x8 ADD SSTORE SWAP1 POP POP PUSH1 0x1 PUSH1 0x4 PUSH1 0x0 DUP4 PUSH1 0x0 ADD MLOAD DUP2 MSTORE PUSH1 0x20 ADD SWAP1 DUP2 MSTORE PUSH1 0x20 ADD PUSH1 0x0 KECCAK256 PUSH1 0x0 PUSH2 0x100 EXP DUP2 SLOAD DUP2 PUSH1 0xFF MUL NOT AND SWAP1 DUP4 ISZERO ISZERO MUL OR SWAP1 SSTORE POP PUSH1 0x6 PUSH1 0x0 CALLER PUSH20 0xFFFFFFFFFFFFFFFFFFFFFFFFFFFFFFFFFFFFFFFF AND PUSH20 0xFFFFFFFFFFFFFFFFFFFFFFFFFFFFFFFFFFFFFFFF AND DUP2 MSTORE PUSH1 0x20 ADD SWAP1 DUP2 MSTORE PUSH1 0x20 ADD PUSH1 0x0 KECCAK256 DUP2 PUSH1 0x0 ADD MLOAD SWAP1 DUP1 PUSH1 0x1 DUP2 SLOAD ADD DUP1 DUP3 SSTORE DUP1 SWAP2 POP POP PUSH1 0x1 SWAP1 SUB SWAP1 PUSH1 0x0 MSTORE PUSH1 0x20 PUSH1 0x0 KECCAK256 ADD PUSH1 0x0 SWAP1 SWAP2 SWAP1 SWAP2 SWAP1 SWAP2 POP SSTORE PUSH1 0x1 PUSH1 0x7 PUSH1 0x0 CALLER PUSH20 0xFFFFFFFFFFFFFFFFFFFFFFFFFFFFFFFFFFFFFFFF AND PUSH20 0xFFFFFFFFFFFFFFFFFFFFFFFFFFFFFFFFFFFFFFFF AND DUP2 MSTORE PUSH1 0x20 ADD SWAP1 DUP2 MSTORE PUSH1 0x20 ADD PUSH1 0x0 KECCAK256 PUSH1 0x0 DUP3 DUP3 SLOAD PUSH2 0x8BD SWAP2 SWAP1 PUSH2 0x4E82 JUMP JUMPDEST SWAP3 POP POP DUP2 SWAP1 SSTORE POP CALLER PUSH20 0xFFFFFFFFFFFFFFFFFFFFFFFFFFFFFFFFFFFFFFFF AND PUSH32 0xF8D4D3FF62FAF01EAF82F3B586F2FBEB141EDB1F566B539EE6AE9DF44FDB6C6B DUP3 PUSH1 0x0 ADD MLOAD PUSH2 0x909 PUSH2 0x354D JUMP JUMPDEST PUSH1 0x40 MLOAD PUSH2 0x917 SWAP3 SWAP2 SWAP1 PUSH2 0x4F11 JUMP JUMPDEST PUSH1 0x40 MLOAD DUP1 SWAP2 SUB SWAP1 LOG2 POP POP POP POP POP JUMP JUMPDEST PUSH2 0x92E PUSH2 0x3330 JUMP JUMPDEST PUSH1 0x0 PUSH2 0x939 DUP3 PUSH2 0x356D JUMP JUMPDEST SUB PUSH2 0x979 JUMPI PUSH1 0x40 MLOAD PUSH32 0x8C379A000000000000000000000000000000000000000000000000000000000 DUP2 MSTORE PUSH1 0x4 ADD PUSH2 0x970 SWAP1 PUSH2 0x4FBF JUMP JUMPDEST PUSH1 0x40 MLOAD DUP1 SWAP2 SUB SWAP1 REVERT JUMPDEST PUSH2 0x98A PUSH2 0x985 DUP3 PUSH2 0x356D JUMP JUMPDEST PUSH2 0x35E4 JUMP JUMPDEST POP JUMP JUMPDEST PUSH2 0x995 PUSH2 0x39E0 JUMP JUMPDEST PUSH2 0x99D PUSH2 0x3330 JUMP JUMPDEST PUSH1 0xF PUSH1 0x0 PUSH1 0x10 DUP5 PUSH1 0x40 MLOAD PUSH2 0x9B1 SWAP2 SWAP1 PUSH2 0x501B JUMP JUMPDEST SWAP1 DUP2 MSTORE PUSH1 0x20 ADD PUSH1 0x40 MLOAD DUP1 SWAP2 SUB SWAP1 KECCAK256 SLOAD DUP2 MSTORE PUSH1 0x20 ADD SWAP1 DUP2 MSTORE PUSH1 0x20 ADD PUSH1 0x0 KECCAK256 PUSH1 0x40 MLOAD DUP1 PUSH1 0xE0 ADD PUSH1 0x40 MSTORE SWAP1 DUP2 PUSH1 0x0 DUP3 ADD SLOAD DUP2 MSTORE PUSH1 0x20 ADD PUSH1 0x1 DUP3 ADD DUP1 SLOAD PUSH2 0x9F3 SWAP1 PUSH2 0x4BD3 JUMP JUMPDEST DUP1 PUSH1 0x1F ADD PUSH1 0x20 DUP1 SWAP2 DIV MUL PUSH1 0x20 ADD PUSH1 0x40 MLOAD SWAP1 DUP2 ADD PUSH1 0x40 MSTORE DUP1 SWAP3 SWAP2 SWAP1 DUP2 DUP2 MSTORE PUSH1 0x20 ADD DUP3 DUP1 SLOAD PUSH2 0xA1F SWAP1 PUSH2 0x4BD3 JUMP JUMPDEST DUP1 ISZERO PUSH2 0xA6C JUMPI DUP1 PUSH1 0x1F LT PUSH2 0xA41 JUMPI PUSH2 0x100 DUP1 DUP4 SLOAD DIV MUL DUP4 MSTORE SWAP2 PUSH1 0x20 ADD SWAP2 PUSH2 0xA6C JUMP JUMPDEST DUP3 ADD SWAP2 SWAP1 PUSH1 0x0 MSTORE PUSH1 0x20 PUSH1 0x0 KECCAK256 SWAP1 JUMPDEST DUP2 SLOAD DUP2 MSTORE SWAP1 PUSH1 0x1 ADD SWAP1 PUSH1 0x20 ADD DUP1 DUP4 GT PUSH2 0xA4F JUMPI DUP3 SWAP1 SUB PUSH1 0x1F AND DUP3 ADD SWAP2 JUMPDEST POP POP POP POP POP DUP2 MSTORE PUSH1 0x20 ADD PUSH1 0x2 DUP3 ADD DUP1 SLOAD PUSH2 0xA85 SWAP1 PUSH2 0x4BD3 JUMP JUMPDEST DUP1 PUSH1 0x1F ADD PUSH1 0x20 DUP1 SWAP2 DIV MUL PUSH1 0x20 ADD PUSH1 0x40 MLOAD SWAP1 DUP2 ADD PUSH1 0x40 MSTORE DUP1 SWAP3 SWAP2 SWAP1 DUP2 DUP2 MSTORE PUSH1 0x20 ADD DUP3 DUP1 SLOAD PUSH2 0xAB1 SWAP1 PUSH2 0x4BD3 JUMP JUMPDEST DUP1 ISZERO PUSH2 0xAFE JUMPI DUP1 PUSH1 0x1F LT PUSH2 0xAD3 JUMPI PUSH2 0x100 DUP1 DUP4 SLOAD DIV MUL DUP4 MSTORE SWAP2 PUSH1 0x20 ADD SWAP2 PUSH2 0xAFE JUMP JUMPDEST DUP3 ADD SWAP2 SWAP1 PUSH1 0x0 MSTORE PUSH1 0x20 PUSH1 0x0 KECCAK256 SWAP1 JUMPDEST DUP2 SLOAD DUP2 MSTORE SWAP1 PUSH1 0x1 ADD SWAP1 PUSH1 0x20 ADD DUP1 DUP4 GT PUSH2 0xAE1 JUMPI DUP3 SWAP1 SUB PUSH1 0x1F AND DUP3 ADD SWAP2 JUMPDEST POP POP POP POP POP DUP2 MSTORE PUSH1 0x20 ADD PUSH1 0x3 DUP3 ADD PUSH1 0x0 SWAP1 SLOAD SWAP1 PUSH2 0x100 EXP SWAP1 DIV PUSH20 0xFFFFFFFFFFFFFFFFFFFFFFFFFFFFFFFFFFFFFFFF AND PUSH20 0xFFFFFFFFFFFFFFFFFFFFFFFFFFFFFFFFFFFFFFFF AND PUSH20 0xFFFFFFFFFFFFFFFFFFFFFFFFFFFFFFFFFFFFFFFF AND DUP2 MSTORE PUSH1 0x20 ADD PUSH1 0x3 DUP3 ADD PUSH1 0x14 SWAP1 SLOAD SWAP1 PUSH2 0x100 EXP SWAP1 DIV PUSH1 0xFF AND ISZERO ISZERO ISZERO ISZERO DUP2 MSTORE PUSH1 0x20 ADD PUSH1 0x4 DUP3 ADD SLOAD DUP2 MSTORE PUSH1 0x20 ADD PUSH1 0x5 DUP3 ADD SLOAD DUP2 MSTORE POP POP SWAP1 POP SWAP2 SWAP1 POP JUMP JUMPDEST PUSH1 0x0 DUP3 MLOAD GT PUSH2 0xBD7 JUMPI PUSH1 0x40 MLOAD PUSH32 0x8C379A000000000000000000000000000000000000000000000000000000000 DUP2 MSTORE PUSH1 0x4 ADD PUSH2 0xBCE SWAP1 PUSH2 0x507E JUMP JUMPDEST PUSH1 0x40 MLOAD DUP1 SWAP2 SUB SWAP1 REVERT JUMPDEST PUSH1 0x0 DUP2 MLOAD GT PUSH2 0xC1B JUMPI PUSH1 0x40 MLOAD PUSH32 0x8C379A000000000000000000000000000000000000000000000000000000000 DUP2 MSTORE PUSH1 0x4 ADD PUSH2 0xC12 SWAP1 PUSH2 0x50EA JUMP JUMPDEST PUSH1 0x40 MLOAD DUP1 SWAP2 SUB SWAP1 REVERT JUMPDEST PUSH2 0xC23 PUSH2 0x39E0 JUMP JUMPDEST PUSH1 0x2 PUSH1 0x0 DUP2 SLOAD PUSH2 0xC32 SWAP1 PUSH2 0x4B5C JUMP JUMPDEST SWAP2 SWAP1 POP DUP2 SWAP1 SSTORE DUP2 PUSH1 0x0 ADD DUP2 DUP2 MSTORE POP POP DUP3 DUP2 PUSH1 0x20 ADD DUP2 SWAP1 MSTORE POP DUP2 DUP2 PUSH1 0x40 ADD DUP2 SWAP1 MSTORE POP CALLER DUP2 PUSH1 0x60 ADD SWAP1 PUSH20 0xFFFFFFFFFFFFFFFFFFFFFFFFFFFFFFFFFFFFFFFF AND SWAP1 DUP2 PUSH20 0xFFFFFFFFFFFFFFFFFFFFFFFFFFFFFFFFFFFFFFFF AND DUP2 MSTORE POP POP PUSH2 0xC93 PUSH2 0x354D JUMP JUMPDEST DUP2 PUSH1 0xA0 ADD DUP2 DUP2 MSTORE POP POP PUSH2 0xCA4 PUSH2 0x354D JUMP JUMPDEST DUP2 PUSH1 0xC0 ADD DUP2 DUP2 MSTORE POP POP DUP1 PUSH1 0xF PUSH1 0x0 DUP4 PUSH1 0x0 ADD MLOAD DUP2 MSTORE PUSH1 0x20 ADD SWAP1 DUP2 MSTORE PUSH1 0x20 ADD PUSH1 0x0 KECCAK256 PUSH1 0x0 DUP3 ADD MLOAD DUP2 PUSH1 0x0 ADD SSTORE PUSH1 0x20 DUP3 ADD MLOAD DUP2 PUSH1 0x1 ADD SWAP1 DUP2 PUSH2 0xCE4 SWAP2 SWAP1 PUSH2 0x4DB0 JUMP JUMPDEST POP PUSH1 0x40 DUP3 ADD MLOAD DUP2 PUSH1 0x2 ADD SWAP1 DUP2 PUSH2 0xCFA SWAP2 SWAP1 PUSH2 0x4DB0 JUMP JUMPDEST POP PUSH1 0x60 DUP3 ADD MLOAD DUP2 PUSH1 0x3 ADD PUSH1 0x0 PUSH2 0x100 EXP DUP2 SLOAD DUP2 PUSH20 0xFFFFFFFFFFFFFFFFFFFFFFFFFFFFFFFFFFFFFFFF MUL NOT AND SWAP1 DUP4 PUSH20 0xFFFFFFFFFFFFFFFFFFFFFFFFFFFFFFFFFFFFFFFF AND MUL OR SWAP1 SSTORE POP PUSH1 0x80 DUP3 ADD MLOAD DUP2 PUSH1 0x3 ADD PUSH1 0x14 PUSH2 0x100 EXP DUP2 SLOAD DUP2 PUSH1 0xFF MUL NOT AND SWAP1 DUP4 ISZERO ISZERO MUL OR SWAP1 SSTORE POP PUSH1 0xA0 DUP3 ADD MLOAD DUP2 PUSH1 0x4 ADD SSTORE PUSH1 0xC0 DUP3 ADD MLOAD DUP2 PUSH1 0x5 ADD SSTORE SWAP1 POP POP PUSH1 0x1 PUSH1 0xE PUSH1 0x0 DUP4 PUSH1 0x0 ADD MLOAD DUP2 MSTORE PUSH1 0x20 ADD SWAP1 DUP2 MSTORE PUSH1 0x20 ADD PUSH1 0x0 KECCAK256 PUSH1 0x0 PUSH2 0x100 EXP DUP2 SLOAD DUP2 PUSH1 0xFF MUL NOT AND SWAP1 DUP4 ISZERO ISZERO MUL OR SWAP1 SSTORE POP DUP1 PUSH1 0x0 ADD MLOAD PUSH1 0x10 DUP4 PUSH1 0x40 MLOAD PUSH2 0xDBE SWAP2 SWAP1 PUSH2 0x501B JUMP JUMPDEST SWAP1 DUP2 MSTORE PUSH1 0x20 ADD PUSH1 0x40 MLOAD DUP1 SWAP2 SUB SWAP1 KECCAK256 DUP2 SWAP1 SSTORE POP PUSH1 0x11 PUSH1 0x0 CALLER PUSH20 0xFFFFFFFFFFFFFFFFFFFFFFFFFFFFFFFFFFFFFFFF AND PUSH20 0xFFFFFFFFFFFFFFFFFFFFFFFFFFFFFFFFFFFFFFFF AND DUP2 MSTORE PUSH1 0x20 ADD SWAP1 DUP2 MSTORE PUSH1 0x20 ADD PUSH1 0x0 KECCAK256 DUP2 PUSH1 0x0 ADD MLOAD SWAP1 DUP1 PUSH1 0x1 DUP2 SLOAD ADD DUP1 DUP3 SSTORE DUP1 SWAP2 POP POP PUSH1 0x1 SWAP1 SUB SWAP1 PUSH1 0x0 MSTORE PUSH1 0x20 PUSH1 0x0 KECCAK256 ADD PUSH1 0x0 SWAP1 SWAP2 SWAP1 SWAP2 SWAP1 SWAP2 POP SSTORE PUSH1 0x1 PUSH1 0x12 PUSH1 0x0 CALLER PUSH20 0xFFFFFFFFFFFFFFFFFFFFFFFFFFFFFFFFFFFFFFFF AND PUSH20 0xFFFFFFFFFFFFFFFFFFFFFFFFFFFFFFFFFFFFFFFF AND DUP2 MSTORE PUSH1 0x20 ADD SWAP1 DUP2 MSTORE PUSH1 0x20 ADD PUSH1 0x0 KECCAK256 PUSH1 0x0 DUP3 DUP3 SLOAD PUSH2 0xE8A SWAP2 SWAP1 PUSH2 0x4E82 JUMP JUMPDEST SWAP3 POP POP DUP2 SWAP1 SSTORE POP CALLER PUSH20 0xFFFFFFFFFFFFFFFFFFFFFFFFFFFFFFFFFFFFFFFF AND PUSH32 0xCF40BD3705E373A5F70135F1D9765C2D97154B94B433601F78A9572C57657124 DUP3 PUSH1 0x0 ADD MLOAD PUSH2 0xED6 PUSH2 0x354D JUMP JUMPDEST PUSH1 0x40 MLOAD PUSH2 0xEE4 SWAP3 SWAP2 SWAP1 PUSH2 0x5156 JUMP JUMPDEST PUSH1 0x40 MLOAD DUP1 SWAP2 SUB SWAP1 LOG2 POP POP POP JUMP JUMPDEST PUSH1 0x4 PUSH1 0x0 DUP7 DUP2 MSTORE PUSH1 0x20 ADD SWAP1 DUP2 MSTORE PUSH1 0x20 ADD PUSH1 0x0 KECCAK256 PUSH1 0x0 SWAP1 SLOAD SWAP1 PUSH2 0x100 EXP SWAP1 DIV PUSH1 0xFF AND PUSH2 0xF51 JUMPI PUSH1 0x40 MLOAD PUSH32 0x8C379A000000000000000000000000000000000000000000000000000000000 DUP2 MSTORE PUSH1 0x4 ADD PUSH2 0xF48 SWAP1 PUSH2 0x51DE JUMP JUMPDEST PUSH1 0x40 MLOAD DUP1 SWAP2 SUB SWAP1 REVERT JUMPDEST CALLER PUSH20 0xFFFFFFFFFFFFFFFFFFFFFFFFFFFFFFFFFFFFFFFF AND PUSH1 0x5 PUSH1 0x0 DUP8 DUP2 MSTORE PUSH1 0x20 ADD SWAP1 DUP2 MSTORE PUSH1 0x20 ADD PUSH1 0x0 KECCAK256 PUSH1 0x1 ADD PUSH1 0x0 SWAP1 SLOAD SWAP1 PUSH2 0x100 EXP SWAP1 DIV PUSH20 0xFFFFFFFFFFFFFFFFFFFFFFFFFFFFFFFFFFFFFFFF AND PUSH20 0xFFFFFFFFFFFFFFFFFFFFFFFFFFFFFFFFFFFFFFFF AND EQ PUSH2 0xFF5 JUMPI PUSH1 0x40 MLOAD PUSH32 0x8C379A000000000000000000000000000000000000000000000000000000000 DUP2 MSTORE PUSH1 0x4 ADD PUSH2 0xFEC SWAP1 PUSH2 0x524A JUMP JUMPDEST PUSH1 0x40 MLOAD DUP1 SWAP2 SUB SWAP1 REVERT JUMPDEST PUSH1 0x0 DUP5 MLOAD GT PUSH2 0x1039 JUMPI PUSH1 0x40 MLOAD PUSH32 0x8C379A000000000000000000000000000000000000000000000000000000000 DUP2 MSTORE PUSH1 0x4 ADD PUSH2 0x1030 SWAP1 PUSH2 0x49C9 JUMP JUMPDEST PUSH1 0x40 MLOAD DUP1 SWAP2 SUB SWAP1 REVERT JUMPDEST PUSH1 0x0 DUP4 MLOAD GT PUSH2 0x107D JUMPI PUSH1 0x40 MLOAD PUSH32 0x8C379A000000000000000000000000000000000000000000000000000000000 DUP2 MSTORE PUSH1 0x4 ADD PUSH2 0x1074 SWAP1 PUSH2 0x4A35 JUMP JUMPDEST PUSH1 0x40 MLOAD DUP1 SWAP2 SUB SWAP1 REVERT JUMPDEST PUSH1 0x0 DUP3 MLOAD GT PUSH2 0x10C1 JUMPI PUSH1 0x40 MLOAD PUSH32 0x8C379A000000000000000000000000000000000000000000000000000000000 DUP2 MSTORE PUSH1 0x4 ADD PUSH2 0x10B8 SWAP1 PUSH2 0x4AA1 JUMP JUMPDEST PUSH1 0x40 MLOAD DUP1 SWAP2 SUB SWAP1 REVERT JUMPDEST PUSH1 0x0 DUP2 MLOAD GT PUSH2 0x1105 JUMPI PUSH1 0x40 MLOAD PUSH32 0x8C379A000000000000000000000000000000000000000000000000000000000 DUP2 MSTORE PUSH1 0x4 ADD PUSH2 0x10FC SWAP1 PUSH2 0x4B0D JUMP JUMPDEST PUSH1 0x40 MLOAD DUP1 SWAP2 SUB SWAP1 REVERT JUMPDEST DUP4 PUSH1 0x5 PUSH1 0x0 DUP8 DUP2 MSTORE PUSH1 0x20 ADD SWAP1 DUP2 MSTORE PUSH1 0x20 ADD PUSH1 0x0 KECCAK256 PUSH1 0x2 ADD SWAP1 DUP2 PUSH2 0x1128 SWAP2 SWAP1 PUSH2 0x4DB0 JUMP JUMPDEST POP DUP3 PUSH1 0x5 PUSH1 0x0 DUP8 DUP2 MSTORE PUSH1 0x20 ADD SWAP1 DUP2 MSTORE PUSH1 0x20 ADD PUSH1 0x0 KECCAK256 PUSH1 0x3 ADD SWAP1 DUP2 PUSH2 0x114C SWAP2 SWAP1 PUSH2 0x4DB0 JUMP JUMPDEST POP DUP2 PUSH1 0x5 PUSH1 0x0 DUP8 DUP2 MSTORE PUSH1 0x20 ADD SWAP1 DUP2 MSTORE PUSH1 0x20 ADD PUSH1 0x0 KECCAK256 PUSH1 0x4 ADD SWAP1 DUP2 PUSH2 0x1170 SWAP2 SWAP1 PUSH2 0x4DB0 JUMP JUMPDEST POP DUP1 PUSH1 0x5 PUSH1 0x0 DUP8 DUP2 MSTORE PUSH1 0x20 ADD SWAP1 DUP2 MSTORE PUSH1 0x20 ADD PUSH1 0x0 KECCAK256 PUSH1 0x5 ADD SWAP1 DUP2 PUSH2 0x1194 SWAP2 SWAP1 PUSH2 0x4DB0 JUMP JUMPDEST POP PUSH2 0x119D PUSH2 0x354D JUMP JUMPDEST PUSH1 0x5 PUSH1 0x0 DUP8 DUP2 MSTORE PUSH1 0x20 ADD SWAP1 DUP2 MSTORE PUSH1 0x20 ADD PUSH1 0x0 KECCAK256 PUSH1 0x8 ADD DUP2 SWAP1 SSTORE POP CALLER PUSH20 0xFFFFFFFFFFFFFFFFFFFFFFFFFFFFFFFFFFFFFFFF AND PUSH32 0xF8D4D3FF62FAF01EAF82F3B586F2FBEB141EDB1F566B539EE6AE9DF44FDB6C6B DUP7 PUSH2 0x11F8 PUSH2 0x354D JUMP JUMPDEST PUSH1 0x40 MLOAD PUSH2 0x1206 SWAP3 SWAP2 SWAP1 PUSH2 0x52B6 JUMP JUMPDEST PUSH1 0x40 MLOAD DUP1 SWAP2 SUB SWAP1 LOG2 POP POP POP POP POP JUMP JUMPDEST PUSH2 0x121D PUSH2 0x39E0 JUMP JUMPDEST PUSH1 0xF PUSH1 0x0 DUP4 DUP2 MSTORE PUSH1 0x20 ADD SWAP1 DUP2 MSTORE PUSH1 0x20 ADD PUSH1 0x0 KECCAK256 PUSH1 0x40 MLOAD DUP1 PUSH1 0xE0 ADD PUSH1 0x40 MSTORE SWAP1 DUP2 PUSH1 0x0 DUP3 ADD SLOAD DUP2 MSTORE PUSH1 0x20 ADD PUSH1 0x1 DUP3 ADD DUP1 SLOAD PUSH2 0x1255 SWAP1 PUSH2 0x4BD3 JUMP JUMPDEST DUP1 PUSH1 0x1F ADD PUSH1 0x20 DUP1 SWAP2 DIV MUL PUSH1 0x20 ADD PUSH1 0x40 MLOAD SWAP1 DUP2 ADD PUSH1 0x40 MSTORE DUP1 SWAP3 SWAP2 SWAP1 DUP2 DUP2 MSTORE PUSH1 0x20 ADD DUP3 DUP1 SLOAD PUSH2 0x1281 SWAP1 PUSH2 0x4BD3 JUMP JUMPDEST DUP1 ISZERO PUSH2 0x12CE JUMPI DUP1 PUSH1 0x1F LT PUSH2 0x12A3 JUMPI PUSH2 0x100 DUP1 DUP4 SLOAD DIV MUL DUP4 MSTORE SWAP2 PUSH1 0x20 ADD SWAP2 PUSH2 0x12CE JUMP JUMPDEST DUP3 ADD SWAP2 SWAP1 PUSH1 0x0 MSTORE PUSH1 0x20 PUSH1 0x0 KECCAK256 SWAP1 JUMPDEST DUP2 SLOAD DUP2 MSTORE SWAP1 PUSH1 0x1 ADD SWAP1 PUSH1 0x20 ADD DUP1 DUP4 GT PUSH2 0x12B1 JUMPI DUP3 SWAP1 SUB PUSH1 0x1F AND DUP3 ADD SWAP2 JUMPDEST POP POP POP POP POP DUP2 MSTORE PUSH1 0x20 ADD PUSH1 0x2 DUP3 ADD DUP1 SLOAD PUSH2 0x12E7 SWAP1 PUSH2 0x4BD3 JUMP JUMPDEST DUP1 PUSH1 0x1F ADD PUSH1 0x20 DUP1 SWAP2 DIV MUL PUSH1 0x20 ADD PUSH1 0x40 MLOAD SWAP1 DUP2 ADD PUSH1 0x40 MSTORE DUP1 SWAP3 SWAP2 SWAP1 DUP2 DUP2 MSTORE PUSH1 0x20 ADD DUP3 DUP1 SLOAD PUSH2 0x1313 SWAP1 PUSH2 0x4BD3 JUMP JUMPDEST DUP1 ISZERO PUSH2 0x1360 JUMPI DUP1 PUSH1 0x1F LT PUSH2 0x1335 JUMPI PUSH2 0x100 DUP1 DUP4 SLOAD DIV MUL DUP4 MSTORE SWAP2 PUSH1 0x20 ADD SWAP2 PUSH2 0x1360 JUMP JUMPDEST DUP3 ADD SWAP2 SWAP1 PUSH1 0x0 MSTORE PUSH1 0x20 PUSH1 0x0 KECCAK256 SWAP1 JUMPDEST DUP2 SLOAD DUP2 MSTORE SWAP1 PUSH1 0x1 ADD SWAP1 PUSH1 0x20 ADD DUP1 DUP4 GT PUSH2 0x1343 JUMPI DUP3 SWAP1 SUB PUSH1 0x1F AND DUP3 ADD SWAP2 JUMPDEST POP POP POP POP POP DUP2 MSTORE PUSH1 0x20 ADD PUSH1 0x3 DUP3 ADD PUSH1 0x0 SWAP1 SLOAD SWAP1 PUSH2 0x100 EXP SWAP1 DIV PUSH20 0xFFFFFFFFFFFFFFFFFFFFFFFFFFFFFFFFFFFFFFFF AND PUSH20 0xFFFFFFFFFFFFFFFFFFFFFFFFFFFFFFFFFFFFFFFF AND PUSH20 0xFFFFFFFFFFFFFFFFFFFFFFFFFFFFFFFFFFFFFFFF AND DUP2 MSTORE PUSH1 0x20 ADD PUSH1 0x3 DUP3 ADD PUSH1 0x14 SWAP1 SLOAD SWAP1 PUSH2 0x100 EXP SWAP1 DIV PUSH1 0xFF AND ISZERO ISZERO ISZERO ISZERO DUP2 MSTORE PUSH1 0x20 ADD PUSH1 0x4 DUP3 ADD SLOAD DUP2 MSTORE PUSH1 0x20 ADD PUSH1 0x5 DUP3 ADD SLOAD DUP2 MSTORE POP POP SWAP1 POP SWAP2 SWAP1 POP JUMP JUMPDEST PUSH1 0xE PUSH1 0x0 DUP4 DUP2 MSTORE PUSH1 0x20 ADD SWAP1 DUP2 MSTORE PUSH1 0x20 ADD PUSH1 0x0 KECCAK256 PUSH1 0x0 SWAP1 SLOAD SWAP1 PUSH2 0x100 EXP SWAP1 DIV PUSH1 0xFF AND PUSH2 0x1455 JUMPI PUSH1 0x40 MLOAD PUSH32 0x8C379A000000000000000000000000000000000000000000000000000000000 DUP2 MSTORE PUSH1 0x4 ADD PUSH2 0x144C SWAP1 PUSH2 0x533E JUMP JUMPDEST PUSH1 0x40 MLOAD DUP1 SWAP2 SUB SWAP1 REVERT JUMPDEST CALLER PUSH20 0xFFFFFFFFFFFFFFFFFFFFFFFFFFFFFFFFFFFFFFFF AND PUSH1 0xF PUSH1 0x0 DUP5 DUP2 MSTORE PUSH1 0x20 ADD SWAP1 DUP2 MSTORE PUSH1 0x20 ADD PUSH1 0x0 KECCAK256 PUSH1 0x3 ADD PUSH1 0x0 SWAP1 SLOAD SWAP1 PUSH2 0x100 EXP SWAP1 DIV PUSH20 0xFFFFFFFFFFFFFFFFFFFFFFFFFFFFFFFFFFFFFFFF AND PUSH20 0xFFFFFFFFFFFFFFFFFFFFFFFFFFFFFFFFFFFFFFFF AND EQ PUSH2 0x14F9 JUMPI PUSH1 0x40 MLOAD PUSH32 0x8C379A000000000000000000000000000000000000000000000000000000000 DUP2 MSTORE PUSH1 0x4 ADD PUSH2 0x14F0 SWAP1 PUSH2 0x524A JUMP JUMPDEST PUSH1 0x40 MLOAD DUP1 SWAP2 SUB SWAP1 REVERT JUMPDEST PUSH1 0x0 DUP2 MLOAD GT PUSH2 0x153D JUMPI PUSH1 0x40 MLOAD PUSH32 0x8C379A000000000000000000000000000000000000000000000000000000000 DUP2 MSTORE PUSH1 0x4 ADD PUSH2 0x1534 SWAP1 PUSH2 0x507E JUMP JUMPDEST PUSH1 0x40 MLOAD DUP1 SWAP2 SUB SWAP1 REVERT JUMPDEST DUP1 PUSH1 0xF PUSH1 0x0 DUP5 DUP2 MSTORE PUSH1 0x20 ADD SWAP1 DUP2 MSTORE PUSH1 0x20 ADD PUSH1 0x0 KECCAK256 PUSH1 0x1 ADD SWAP1 DUP2 PUSH2 0x1560 SWAP2 SWAP1 PUSH2 0x4DB0 JUMP JUMPDEST POP PUSH2 0x1569 PUSH2 0x354D JUMP JUMPDEST PUSH1 0xF PUSH1 0x0 DUP5 DUP2 MSTORE PUSH1 0x20 ADD SWAP1 DUP2 MSTORE PUSH1 0x20 ADD PUSH1 0x0 KECCAK256 PUSH1 0x5 ADD DUP2 SWAP1 SSTORE POP CALLER PUSH20 0xFFFFFFFFFFFFFFFFFFFFFFFFFFFFFFFFFFFFFFFF AND PUSH32 0xCF40BD3705E373A5F70135F1D9765C2D97154B94B433601F78A9572C57657124 DUP4 PUSH2 0x15C4 PUSH2 0x354D JUMP JUMPDEST PUSH1 0x40 MLOAD PUSH2 0x15D2 SWAP3 SWAP2 SWAP1 PUSH2 0x53AA JUMP JUMPDEST PUSH1 0x40 MLOAD DUP1 SWAP2 SUB SWAP1 LOG2 POP POP JUMP JUMPDEST PUSH1 0x4 PUSH1 0x0 DUP3 DUP2 MSTORE PUSH1 0x20 ADD SWAP1 DUP2 MSTORE PUSH1 0x20 ADD PUSH1 0x0 KECCAK256 PUSH1 0x0 SWAP1 SLOAD SWAP1 PUSH2 0x100 EXP SWAP1 DIV PUSH1 0xFF AND PUSH2 0x163E JUMPI PUSH1 0x40 MLOAD PUSH32 0x8C379A000000000000000000000000000000000000000000000000000000000 DUP2 MSTORE PUSH1 0x4 ADD PUSH2 0x1635 SWAP1 PUSH2 0x51DE JUMP JUMPDEST PUSH1 0x40 MLOAD DUP1 SWAP2 SUB SWAP1 REVERT JUMPDEST CALLER PUSH20 0xFFFFFFFFFFFFFFFFFFFFFFFFFFFFFFFFFFFFFFFF AND PUSH1 0x5 PUSH1 0x0 DUP4 DUP2 MSTORE PUSH1 0x20 ADD SWAP1 DUP2 MSTORE PUSH1 0x20 ADD PUSH1 0x0 KECCAK256 PUSH1 0x1 ADD PUSH1 0x0 SWAP1 SLOAD SWAP1 PUSH2 0x100 EXP SWAP1 DIV PUSH20 0xFFFFFFFFFFFFFFFFFFFFFFFFFFFFFFFFFFFFFFFF AND PUSH20 0xFFFFFFFFFFFFFFFFFFFFFFFFFFFFFFFFFFFFFFFF AND EQ PUSH2 0x16E2 JUMPI PUSH1 0x40 MLOAD PUSH32 0x8C379A000000000000000000000000000000000000000000000000000000000 DUP2 MSTORE PUSH1 0x4 ADD PUSH2 0x16D9 SWAP1 PUSH2 0x524A JUMP JUMPDEST PUSH1 0x40 MLOAD DUP1 SWAP2 SUB SWAP1 REVERT JUMPDEST PUSH1 0x0 PUSH1 0x4 PUSH1 0x0 DUP4 DUP2 MSTORE PUSH1 0x20 ADD SWAP1 DUP2 MSTORE PUSH1 0x20 ADD PUSH1 0x0 KECCAK256 PUSH1 0x0 PUSH2 0x100 EXP DUP2 SLOAD DUP2 PUSH1 0xFF MUL NOT AND SWAP1 DUP4 ISZERO ISZERO MUL OR SWAP1 SSTORE POP PUSH1 0x1 PUSH1 0x5 PUSH1 0x0 DUP4 DUP2 MSTORE PUSH1 0x20 ADD SWAP1 DUP2 MSTORE PUSH1 0x20 ADD PUSH1 0x0 KECCAK256 PUSH1 0x6 ADD PUSH1 0x0 PUSH2 0x100 EXP DUP2 SLOAD DUP2 PUSH1 0xFF MUL NOT AND SWAP1 DUP4 ISZERO ISZERO MUL OR SWAP1 SSTORE POP PUSH2 0x1745 PUSH2 0x354D JUMP JUMPDEST PUSH1 0x5 PUSH1 0x0 DUP4 DUP2 MSTORE PUSH1 0x20 ADD SWAP1 DUP2 MSTORE PUSH1 0x20 ADD PUSH1 0x0 KECCAK256 PUSH1 0x8 ADD DUP2 SWAP1 SSTORE POP CALLER PUSH20 0xFFFFFFFFFFFFFFFFFFFFFFFFFFFFFFFFFFFFFFFF AND PUSH32 0xF8D4D3FF62FAF01EAF82F3B586F2FBEB141EDB1F566B539EE6AE9DF44FDB6C6B DUP3 PUSH2 0x17A0 PUSH2 0x354D JUMP JUMPDEST PUSH1 0x40 MLOAD PUSH2 0x17AE SWAP3 SWAP2 SWAP1 PUSH2 0x5432 JUMP JUMPDEST PUSH1 0x40 MLOAD DUP1 SWAP2 SUB SWAP1 LOG2 POP JUMP JUMPDEST PUSH2 0x17C1 PUSH2 0x3330 JUMP JUMPDEST PUSH2 0x17CB PUSH1 0x0 PUSH2 0x36BB JUMP JUMPDEST JUMP JUMPDEST PUSH1 0x60 PUSH2 0x17D7 PUSH2 0x3330 JUMP JUMPDEST PUSH1 0x0 DUP1 PUSH1 0x0 SWAP1 POP JUMPDEST PUSH1 0x7 PUSH1 0x0 DUP6 PUSH20 0xFFFFFFFFFFFFFFFFFFFFFFFFFFFFFFFFFFFFFFFF AND PUSH20 0xFFFFFFFFFFFFFFFFFFFFFFFFFFFFFFFFFFFFFFFF AND DUP2 MSTORE PUSH1 0x20 ADD SWAP1 DUP2 MSTORE PUSH1 0x20 ADD PUSH1 0x0 KECCAK256 SLOAD DUP2 LT ISZERO PUSH2 0x1940 JUMPI PUSH1 0x0 PUSH1 0x6 PUSH1 0x0 DUP7 PUSH20 0xFFFFFFFFFFFFFFFFFFFFFFFFFFFFFFFFFFFFFFFF AND PUSH20 0xFFFFFFFFFFFFFFFFFFFFFFFFFFFFFFFFFFFFFFFF AND DUP2 MSTORE PUSH1 0x20 ADD SWAP1 DUP2 MSTORE PUSH1 0x20 ADD PUSH1 0x0 KECCAK256 DUP3 DUP2 SLOAD DUP2 LT PUSH2 0x1879 JUMPI PUSH2 0x1878 PUSH2 0x546E JUMP JUMPDEST JUMPDEST SWAP1 PUSH1 0x0 MSTORE PUSH1 0x20 PUSH1 0x0 KECCAK256 ADD SLOAD SWAP1 POP DUP5 PUSH20 0xFFFFFFFFFFFFFFFFFFFFFFFFFFFFFFFFFFFFFFFF AND PUSH1 0x5 PUSH1 0x0 DUP4 DUP2 MSTORE PUSH1 0x20 ADD SWAP1 DUP2 MSTORE PUSH1 0x20 ADD PUSH1 0x0 KECCAK256 PUSH1 0x1 ADD PUSH1 0x0 SWAP1 SLOAD SWAP1 PUSH2 0x100 EXP SWAP1 DIV PUSH20 0xFFFFFFFFFFFFFFFFFFFFFFFFFFFFFFFFFFFFFFFF AND PUSH20 0xFFFFFFFFFFFFFFFFFFFFFFFFFFFFFFFFFFFFFFFF AND EQ DUP1 ISZERO PUSH2 0x1918 JUMPI POP PUSH1 0x5 PUSH1 0x0 DUP3 DUP2 MSTORE PUSH1 0x20 ADD SWAP1 DUP2 MSTORE PUSH1 0x20 ADD PUSH1 0x0 KECCAK256 PUSH1 0x6 ADD PUSH1 0x0 SWAP1 SLOAD SWAP1 PUSH2 0x100 EXP SWAP1 DIV PUSH1 0xFF AND ISZERO JUMPDEST ISZERO PUSH2 0x192C JUMPI DUP3 DUP1 PUSH2 0x1928 SWAP1 PUSH2 0x4B5C JUMP JUMPDEST SWAP4 POP POP JUMPDEST POP DUP1 DUP1 PUSH2 0x1938 SWAP1 PUSH2 0x4B5C JUMP JUMPDEST SWAP2 POP POP PUSH2 0x17DF JUMP JUMPDEST POP DUP1 PUSH8 0xFFFFFFFFFFFFFFFF DUP2 GT ISZERO PUSH2 0x195B JUMPI PUSH2 0x195A PUSH2 0x3B58 JUMP JUMPDEST JUMPDEST PUSH1 0x40 MLOAD SWAP1 DUP1 DUP3 MSTORE DUP1 PUSH1 0x20 MUL PUSH1 0x20 ADD DUP3 ADD PUSH1 0x40 MSTORE DUP1 ISZERO PUSH2 0x1994 JUMPI DUP2 PUSH1 0x20 ADD JUMPDEST PUSH2 0x1981 PUSH2 0x397C JUMP JUMPDEST DUP2 MSTORE PUSH1 0x20 ADD SWAP1 PUSH1 0x1 SWAP1 SUB SWAP1 DUP2 PUSH2 0x1979 JUMPI SWAP1 POP JUMPDEST POP SWAP2 POP PUSH1 0x0 DUP1 PUSH1 0x0 SWAP1 POP JUMPDEST PUSH1 0x7 PUSH1 0x0 DUP7 PUSH20 0xFFFFFFFFFFFFFFFFFFFFFFFFFFFFFFFFFFFFFFFF AND PUSH20 0xFFFFFFFFFFFFFFFFFFFFFFFFFFFFFFFFFFFFFFFF AND DUP2 MSTORE PUSH1 0x20 ADD SWAP1 DUP2 MSTORE PUSH1 0x20 ADD PUSH1 0x0 KECCAK256 SLOAD DUP2 LT ISZERO PUSH2 0x1E12 JUMPI PUSH1 0x0 PUSH1 0x6 PUSH1 0x0 DUP8 PUSH20 0xFFFFFFFFFFFFFFFFFFFFFFFFFFFFFFFFFFFFFFFF AND PUSH20 0xFFFFFFFFFFFFFFFFFFFFFFFFFFFFFFFFFFFFFFFF AND DUP2 MSTORE PUSH1 0x20 ADD SWAP1 DUP2 MSTORE PUSH1 0x20 ADD PUSH1 0x0 KECCAK256 DUP3 DUP2 SLOAD DUP2 LT PUSH2 0x1A39 JUMPI PUSH2 0x1A38 PUSH2 0x546E JUMP JUMPDEST JUMPDEST SWAP1 PUSH1 0x0 MSTORE PUSH1 0x20 PUSH1 0x0 KECCAK256 ADD SLOAD SWAP1 POP DUP6 PUSH20 0xFFFFFFFFFFFFFFFFFFFFFFFFFFFFFFFFFFFFFFFF AND PUSH1 0x5 PUSH1 0x0 DUP4 DUP2 MSTORE PUSH1 0x20 ADD SWAP1 DUP2 MSTORE PUSH1 0x20 ADD PUSH1 0x0 KECCAK256 PUSH1 0x1 ADD PUSH1 0x0 SWAP1 SLOAD SWAP1 PUSH2 0x100 EXP SWAP1 DIV PUSH20 0xFFFFFFFFFFFFFFFFFFFFFFFFFFFFFFFFFFFFFFFF AND PUSH20 0xFFFFFFFFFFFFFFFFFFFFFFFFFFFFFFFFFFFFFFFF AND EQ DUP1 ISZERO PUSH2 0x1AD8 JUMPI POP PUSH1 0x5 PUSH1 0x0 DUP3 DUP2 MSTORE PUSH1 0x20 ADD SWAP1 DUP2 MSTORE PUSH1 0x20 ADD PUSH1 0x0 KECCAK256 PUSH1 0x6 ADD PUSH1 0x0 SWAP1 SLOAD SWAP1 PUSH2 0x100 EXP SWAP1 DIV PUSH1 0xFF AND ISZERO JUMPDEST ISZERO PUSH2 0x1DFE JUMPI PUSH1 0x5 PUSH1 0x0 DUP3 DUP2 MSTORE PUSH1 0x20 ADD SWAP1 DUP2 MSTORE PUSH1 0x20 ADD PUSH1 0x0 KECCAK256 PUSH1 0x40 MLOAD DUP1 PUSH2 0x120 ADD PUSH1 0x40 MSTORE SWAP1 DUP2 PUSH1 0x0 DUP3 ADD SLOAD DUP2 MSTORE PUSH1 0x20 ADD PUSH1 0x1 DUP3 ADD PUSH1 0x0 SWAP1 SLOAD SWAP1 PUSH2 0x100 EXP SWAP1 DIV PUSH20 0xFFFFFFFFFFFFFFFFFFFFFFFFFFFFFFFFFFFFFFFF AND PUSH20 0xFFFFFFFFFFFFFFFFFFFFFFFFFFFFFFFFFFFFFFFF AND PUSH20 0xFFFFFFFFFFFFFFFFFFFFFFFFFFFFFFFFFFFFFFFF AND DUP2 MSTORE PUSH1 0x20 ADD PUSH1 0x2 DUP3 ADD DUP1 SLOAD PUSH2 0x1B6C SWAP1 PUSH2 0x4BD3 JUMP JUMPDEST DUP1 PUSH1 0x1F ADD PUSH1 0x20 DUP1 SWAP2 DIV MUL PUSH1 0x20 ADD PUSH1 0x40 MLOAD SWAP1 DUP2 ADD PUSH1 0x40 MSTORE DUP1 SWAP3 SWAP2 SWAP1 DUP2 DUP2 MSTORE PUSH1 0x20 ADD DUP3 DUP1 SLOAD PUSH2 0x1B98 SWAP1 PUSH2 0x4BD3 JUMP JUMPDEST DUP1 ISZERO PUSH2 0x1BE5 JUMPI DUP1 PUSH1 0x1F LT PUSH2 0x1BBA JUMPI PUSH2 0x100 DUP1 DUP4 SLOAD DIV MUL DUP4 MSTORE SWAP2 PUSH1 0x20 ADD SWAP2 PUSH2 0x1BE5 JUMP JUMPDEST DUP3 ADD SWAP2 SWAP1 PUSH1 0x0 MSTORE PUSH1 0x20 PUSH1 0x0 KECCAK256 SWAP1 JUMPDEST DUP2 SLOAD DUP2 MSTORE SWAP1 PUSH1 0x1 ADD SWAP1 PUSH1 0x20 ADD DUP1 DUP4 GT PUSH2 0x1BC8 JUMPI DUP3 SWAP1 SUB PUSH1 0x1F AND DUP3 ADD SWAP2 JUMPDEST POP POP POP POP POP DUP2 MSTORE PUSH1 0x20 ADD PUSH1 0x3 DUP3 ADD DUP1 SLOAD PUSH2 0x1BFE SWAP1 PUSH2 0x4BD3 JUMP JUMPDEST DUP1 PUSH1 0x1F ADD PUSH1 0x20 DUP1 SWAP2 DIV MUL PUSH1 0x20 ADD PUSH1 0x40 MLOAD SWAP1 DUP2 ADD PUSH1 0x40 MSTORE DUP1 SWAP3 SWAP2 SWAP1 DUP2 DUP2 MSTORE PUSH1 0x20 ADD DUP3 DUP1 SLOAD PUSH2 0x1C2A SWAP1 PUSH2 0x4BD3 JUMP JUMPDEST DUP1 ISZERO PUSH2 0x1C77 JUMPI DUP1 PUSH1 0x1F LT PUSH2 0x1C4C JUMPI PUSH2 0x100 DUP1 DUP4 SLOAD DIV MUL DUP4 MSTORE SWAP2 PUSH1 0x20 ADD SWAP2 PUSH2 0x1C77 JUMP JUMPDEST DUP3 ADD SWAP2 SWAP1 PUSH1 0x0 MSTORE PUSH1 0x20 PUSH1 0x0 KECCAK256 SWAP1 JUMPDEST DUP2 SLOAD DUP2 MSTORE SWAP1 PUSH1 0x1 ADD SWAP1 PUSH1 0x20 ADD DUP1 DUP4 GT PUSH2 0x1C5A JUMPI DUP3 SWAP1 SUB PUSH1 0x1F AND DUP3 ADD SWAP2 JUMPDEST POP POP POP POP POP DUP2 MSTORE PUSH1 0x20 ADD PUSH1 0x4 DUP3 ADD DUP1 SLOAD PUSH2 0x1C90 SWAP1 PUSH2 0x4BD3 JUMP JUMPDEST DUP1 PUSH1 0x1F ADD PUSH1 0x20 DUP1 SWAP2 DIV MUL PUSH1 0x20 ADD PUSH1 0x40 MLOAD SWAP1 DUP2 ADD PUSH1 0x40 MSTORE DUP1 SWAP3 SWAP2 SWAP1 DUP2 DUP2 MSTORE PUSH1 0x20 ADD DUP3 DUP1 SLOAD PUSH2 0x1CBC SWAP1 PUSH2 0x4BD3 JUMP JUMPDEST DUP1 ISZERO PUSH2 0x1D09 JUMPI DUP1 PUSH1 0x1F LT PUSH2 0x1CDE JUMPI PUSH2 0x100 DUP1 DUP4 SLOAD DIV MUL DUP4 MSTORE SWAP2 PUSH1 0x20 ADD SWAP2 PUSH2 0x1D09 JUMP JUMPDEST DUP3 ADD SWAP2 SWAP1 PUSH1 0x0 MSTORE PUSH1 0x20 PUSH1 0x0 KECCAK256 SWAP1 JUMPDEST DUP2 SLOAD DUP2 MSTORE SWAP1 PUSH1 0x1 ADD SWAP1 PUSH1 0x20 ADD DUP1 DUP4 GT PUSH2 0x1CEC JUMPI DUP3 SWAP1 SUB PUSH1 0x1F AND DUP3 ADD SWAP2 JUMPDEST POP POP POP POP POP DUP2 MSTORE PUSH1 0x20 ADD PUSH1 0x5 DUP3 ADD DUP1 SLOAD PUSH2 0x1D22 SWAP1 PUSH2 0x4BD3 JUMP JUMPDEST DUP1 PUSH1 0x1F ADD PUSH1 0x20 DUP1 SWAP2 DIV MUL PUSH1 0x20 ADD PUSH1 0x40 MLOAD SWAP1 DUP2 ADD PUSH1 0x40 MSTORE DUP1 SWAP3 SWAP2 SWAP1 DUP2 DUP2 MSTORE PUSH1 0x20 ADD DUP3 DUP1 SLOAD PUSH2 0x1D4E SWAP1 PUSH2 0x4BD3 JUMP JUMPDEST DUP1 ISZERO PUSH2 0x1D9B JUMPI DUP1 PUSH1 0x1F LT PUSH2 0x1D70 JUMPI PUSH2 0x100 DUP1 DUP4 SLOAD DIV MUL DUP4 MSTORE SWAP2 PUSH1 0x20 ADD SWAP2 PUSH2 0x1D9B JUMP JUMPDEST DUP3 ADD SWAP2 SWAP1 PUSH1 0x0 MSTORE PUSH1 0x20 PUSH1 0x0 KECCAK256 SWAP1 JUMPDEST DUP2 SLOAD DUP2 MSTORE SWAP1 PUSH1 0x1 ADD SWAP1 PUSH1 0x20 ADD DUP1 DUP4 GT PUSH2 0x1D7E JUMPI DUP3 SWAP1 SUB PUSH1 0x1F AND DUP3 ADD SWAP2 JUMPDEST POP POP POP POP POP DUP2 MSTORE PUSH1 0x20 ADD PUSH1 0x6 DUP3 ADD PUSH1 0x0 SWAP1 SLOAD SWAP1 PUSH2 0x100 EXP SWAP1 DIV PUSH1 0xFF AND ISZERO ISZERO ISZERO ISZERO DUP2 MSTORE PUSH1 0x20 ADD PUSH1 0x7 DUP3 ADD SLOAD DUP2 MSTORE PUSH1 0x20 ADD PUSH1 0x8 DUP3 ADD SLOAD DUP2 MSTORE POP POP DUP6 DUP5 DUP1 PUSH2 0x1DDF SWAP1 PUSH2 0x4B5C JUMP JUMPDEST SWAP6 POP DUP2 MLOAD DUP2 LT PUSH2 0x1DF2 JUMPI PUSH2 0x1DF1 PUSH2 0x546E JUMP JUMPDEST JUMPDEST PUSH1 0x20 MUL PUSH1 0x20 ADD ADD DUP2 SWAP1 MSTORE POP JUMPDEST POP DUP1 DUP1 PUSH2 0x1E0A SWAP1 PUSH2 0x4B5C JUMP JUMPDEST SWAP2 POP POP PUSH2 0x199F JUMP JUMPDEST POP POP POP SWAP2 SWAP1 POP JUMP JUMPDEST PUSH1 0x0 DUP1 PUSH1 0x0 SWAP1 SLOAD SWAP1 PUSH2 0x100 EXP SWAP1 DIV PUSH20 0xFFFFFFFFFFFFFFFFFFFFFFFFFFFFFFFFFFFFFFFF AND SWAP1 POP SWAP1 JUMP JUMPDEST PUSH1 0x60 PUSH1 0x0 DUP1 PUSH1 0x0 SWAP1 POP JUMPDEST PUSH1 0x12 PUSH1 0x0 DUP6 PUSH20 0xFFFFFFFFFFFFFFFFFFFFFFFFFFFFFFFFFFFFFFFF AND PUSH20 0xFFFFFFFFFFFFFFFFFFFFFFFFFFFFFFFFFFFFFFFF AND DUP2 MSTORE PUSH1 0x20 ADD SWAP1 DUP2 MSTORE PUSH1 0x20 ADD PUSH1 0x0 KECCAK256 SLOAD DUP2 LT ISZERO PUSH2 0x1FAE JUMPI PUSH1 0x0 PUSH1 0x11 PUSH1 0x0 DUP7 PUSH20 0xFFFFFFFFFFFFFFFFFFFFFFFFFFFFFFFFFFFFFFFF AND PUSH20 0xFFFFFFFFFFFFFFFFFFFFFFFFFFFFFFFFFFFFFFFF AND DUP2 MSTORE PUSH1 0x20 ADD SWAP1 DUP2 MSTORE PUSH1 0x20 ADD PUSH1 0x0 KECCAK256 DUP3 DUP2 SLOAD DUP2 LT PUSH2 0x1EE7 JUMPI PUSH2 0x1EE6 PUSH2 0x546E JUMP JUMPDEST JUMPDEST SWAP1 PUSH1 0x0 MSTORE PUSH1 0x20 PUSH1 0x0 KECCAK256 ADD SLOAD SWAP1 POP DUP5 PUSH20 0xFFFFFFFFFFFFFFFFFFFFFFFFFFFFFFFFFFFFFFFF AND PUSH1 0xF PUSH1 0x0 DUP4 DUP2 MSTORE PUSH1 0x20 ADD SWAP1 DUP2 MSTORE PUSH1 0x20 ADD PUSH1 0x0 KECCAK256 PUSH1 0x3 ADD PUSH1 0x0 SWAP1 SLOAD SWAP1 PUSH2 0x100 EXP SWAP1 DIV PUSH20 0xFFFFFFFFFFFFFFFFFFFFFFFFFFFFFFFFFFFFFFFF AND PUSH20 0xFFFFFFFFFFFFFFFFFFFFFFFFFFFFFFFFFFFFFFFF AND EQ DUP1 ISZERO PUSH2 0x1F86 JUMPI POP PUSH1 0xF PUSH1 0x0 DUP3 DUP2 MSTORE PUSH1 0x20 ADD SWAP1 DUP2 MSTORE PUSH1 0x20 ADD PUSH1 0x0 KECCAK256 PUSH1 0x3 ADD PUSH1 0x14 SWAP1 SLOAD SWAP1 PUSH2 0x100 EXP SWAP1 DIV PUSH1 0xFF AND ISZERO JUMPDEST ISZERO PUSH2 0x1F9A JUMPI DUP3 DUP1 PUSH2 0x1F96 SWAP1 PUSH2 0x4B5C JUMP JUMPDEST SWAP4 POP POP JUMPDEST POP DUP1 DUP1 PUSH2 0x1FA6 SWAP1 PUSH2 0x4B5C JUMP JUMPDEST SWAP2 POP POP PUSH2 0x1E4D JUMP JUMPDEST POP DUP1 PUSH8 0xFFFFFFFFFFFFFFFF DUP2 GT ISZERO PUSH2 0x1FC9 JUMPI PUSH2 0x1FC8 PUSH2 0x3B58 JUMP JUMPDEST JUMPDEST PUSH1 0x40 MLOAD SWAP1 DUP1 DUP3 MSTORE DUP1 PUSH1 0x20 MUL PUSH1 0x20 ADD DUP3 ADD PUSH1 0x40 MSTORE DUP1 ISZERO PUSH2 0x2002 JUMPI DUP2 PUSH1 0x20 ADD JUMPDEST PUSH2 0x1FEF PUSH2 0x39E0 JUMP JUMPDEST DUP2 MSTORE PUSH1 0x20 ADD SWAP1 PUSH1 0x1 SWAP1 SUB SWAP1 DUP2 PUSH2 0x1FE7 JUMPI SWAP1 POP JUMPDEST POP SWAP2 POP PUSH1 0x0 DUP1 PUSH1 0x0 SWAP1 POP JUMPDEST PUSH1 0x12 PUSH1 0x0 DUP7 PUSH20 0xFFFFFFFFFFFFFFFFFFFFFFFFFFFFFFFFFFFFFFFF AND PUSH20 0xFFFFFFFFFFFFFFFFFFFFFFFFFFFFFFFFFFFFFFFF AND DUP2 MSTORE PUSH1 0x20 ADD SWAP1 DUP2 MSTORE PUSH1 0x20 ADD PUSH1 0x0 KECCAK256 SLOAD DUP2 LT ISZERO PUSH2 0x235B JUMPI PUSH1 0x0 PUSH1 0x11 PUSH1 0x0 DUP8 PUSH20 0xFFFFFFFFFFFFFFFFFFFFFFFFFFFFFFFFFFFFFFFF AND PUSH20 0xFFFFFFFFFFFFFFFFFFFFFFFFFFFFFFFFFFFFFFFF AND DUP2 MSTORE PUSH1 0x20 ADD SWAP1 DUP2 MSTORE PUSH1 0x20 ADD PUSH1 0x0 KECCAK256 DUP3 DUP2 SLOAD DUP2 LT PUSH2 0x20A7 JUMPI PUSH2 0x20A6 PUSH2 0x546E JUMP JUMPDEST JUMPDEST SWAP1 PUSH1 0x0 MSTORE PUSH1 0x20 PUSH1 0x0 KECCAK256 ADD SLOAD SWAP1 POP DUP6 PUSH20 0xFFFFFFFFFFFFFFFFFFFFFFFFFFFFFFFFFFFFFFFF AND PUSH1 0xF PUSH1 0x0 DUP4 DUP2 MSTORE PUSH1 0x20 ADD SWAP1 DUP2 MSTORE PUSH1 0x20 ADD PUSH1 0x0 KECCAK256 PUSH1 0x3 ADD PUSH1 0x0 SWAP1 SLOAD SWAP1 PUSH2 0x100 EXP SWAP1 DIV PUSH20 0xFFFFFFFFFFFFFFFFFFFFFFFFFFFFFFFFFFFFFFFF AND PUSH20 0xFFFFFFFFFFFFFFFFFFFFFFFFFFFFFFFFFFFFFFFF AND EQ DUP1 ISZERO PUSH2 0x2146 JUMPI POP PUSH1 0xF PUSH1 0x0 DUP3 DUP2 MSTORE PUSH1 0x20 ADD SWAP1 DUP2 MSTORE PUSH1 0x20 ADD PUSH1 0x0 KECCAK256 PUSH1 0x3 ADD PUSH1 0x14 SWAP1 SLOAD SWAP1 PUSH2 0x100 EXP SWAP1 DIV PUSH1 0xFF AND ISZERO JUMPDEST ISZERO PUSH2 0x2347 JUMPI PUSH1 0xF PUSH1 0x0 DUP3 DUP2 MSTORE PUSH1 0x20 ADD SWAP1 DUP2 MSTORE PUSH1 0x20 ADD PUSH1 0x0 KECCAK256 PUSH1 0x40 MLOAD DUP1 PUSH1 0xE0 ADD PUSH1 0x40 MSTORE SWAP1 DUP2 PUSH1 0x0 DUP3 ADD SLOAD DUP2 MSTORE PUSH1 0x20 ADD PUSH1 0x1 DUP3 ADD DUP1 SLOAD PUSH2 0x2183 SWAP1 PUSH2 0x4BD3 JUMP JUMPDEST DUP1 PUSH1 0x1F ADD PUSH1 0x20 DUP1 SWAP2 DIV MUL PUSH1 0x20 ADD PUSH1 0x40 MLOAD SWAP1 DUP2 ADD PUSH1 0x40 MSTORE DUP1 SWAP3 SWAP2 SWAP1 DUP2 DUP2 MSTORE PUSH1 0x20 ADD DUP3 DUP1 SLOAD PUSH2 0x21AF SWAP1 PUSH2 0x4BD3 JUMP JUMPDEST DUP1 ISZERO PUSH2 0x21FC JUMPI DUP1 PUSH1 0x1F LT PUSH2 0x21D1 JUMPI PUSH2 0x100 DUP1 DUP4 SLOAD DIV MUL DUP4 MSTORE SWAP2 PUSH1 0x20 ADD SWAP2 PUSH2 0x21FC JUMP JUMPDEST DUP3 ADD SWAP2 SWAP1 PUSH1 0x0 MSTORE PUSH1 0x20 PUSH1 0x0 KECCAK256 SWAP1 JUMPDEST DUP2 SLOAD DUP2 MSTORE SWAP1 PUSH1 0x1 ADD SWAP1 PUSH1 0x20 ADD DUP1 DUP4 GT PUSH2 0x21DF JUMPI DUP3 SWAP1 SUB PUSH1 0x1F AND DUP3 ADD SWAP2 JUMPDEST POP POP POP POP POP DUP2 MSTORE PUSH1 0x20 ADD PUSH1 0x2 DUP3 ADD DUP1 SLOAD PUSH2 0x2215 SWAP1 PUSH2 0x4BD3 JUMP JUMPDEST DUP1 PUSH1 0x1F ADD PUSH1 0x20 DUP1 SWAP2 DIV MUL PUSH1 0x20 ADD PUSH1 0x40 MLOAD SWAP1 DUP2 ADD PUSH1 0x40 MSTORE DUP1 SWAP3 SWAP2 SWAP1 DUP2 DUP2 MSTORE PUSH1 0x20 ADD DUP3 DUP1 SLOAD PUSH2 0x2241 SWAP1 PUSH2 0x4BD3 JUMP JUMPDEST DUP1 ISZERO PUSH2 0x228E JUMPI DUP1 PUSH1 0x1F LT PUSH2 0x2263 JUMPI PUSH2 0x100 DUP1 DUP4 SLOAD DIV MUL DUP4 MSTORE SWAP2 PUSH1 0x20 ADD SWAP2 PUSH2 0x228E JUMP JUMPDEST DUP3 ADD SWAP2 SWAP1 PUSH1 0x0 MSTORE PUSH1 0x20 PUSH1 0x0 KECCAK256 SWAP1 JUMPDEST DUP2 SLOAD DUP2 MSTORE SWAP1 PUSH1 0x1 ADD SWAP1 PUSH1 0x20 ADD DUP1 DUP4 GT PUSH2 0x2271 JUMPI DUP3 SWAP1 SUB PUSH1 0x1F AND DUP3 ADD SWAP2 JUMPDEST POP POP POP POP POP DUP2 MSTORE PUSH1 0x20 ADD PUSH1 0x3 DUP3 ADD PUSH1 0x0 SWAP1 SLOAD SWAP1 PUSH2 0x100 EXP SWAP1 DIV PUSH20 0xFFFFFFFFFFFFFFFFFFFFFFFFFFFFFFFFFFFFFFFF AND PUSH20 0xFFFFFFFFFFFFFFFFFFFFFFFFFFFFFFFFFFFFFFFF AND PUSH20 0xFFFFFFFFFFFFFFFFFFFFFFFFFFFFFFFFFFFFFFFF AND DUP2 MSTORE PUSH1 0x20 ADD PUSH1 0x3 DUP3 ADD PUSH1 0x14 SWAP1 SLOAD SWAP1 PUSH2 0x100 EXP SWAP1 DIV PUSH1 0xFF AND ISZERO ISZERO ISZERO ISZERO DUP2 MSTORE PUSH1 0x20 ADD PUSH1 0x4 DUP3 ADD SLOAD DUP2 MSTORE PUSH1 0x20 ADD PUSH1 0x5 DUP3 ADD SLOAD DUP2 MSTORE POP POP DUP6 DUP5 DUP1 PUSH2 0x2328 SWAP1 PUSH2 0x4B5C JUMP JUMPDEST SWAP6 POP DUP2 MLOAD DUP2 LT PUSH2 0x233B JUMPI PUSH2 0x233A PUSH2 0x546E JUMP JUMPDEST JUMPDEST PUSH1 0x20 MUL PUSH1 0x20 ADD ADD DUP2 SWAP1 MSTORE POP JUMPDEST POP DUP1 DUP1 PUSH2 0x2353 SWAP1 PUSH2 0x4B5C JUMP JUMPDEST SWAP2 POP POP PUSH2 0x200D JUMP JUMPDEST POP POP POP SWAP2 SWAP1 POP JUMP JUMPDEST PUSH1 0x60 PUSH1 0x0 DUP1 PUSH1 0x0 SWAP1 POP JUMPDEST PUSH1 0xD PUSH1 0x0 DUP6 DUP2 MSTORE PUSH1 0x20 ADD SWAP1 DUP2 MSTORE PUSH1 0x20 ADD PUSH1 0x0 KECCAK256 DUP1 SLOAD SWAP1 POP DUP2 LT ISZERO PUSH2 0x23ED JUMPI PUSH1 0x0 PUSH2 0x23C6 DUP7 PUSH1 0xD PUSH1 0x0 DUP9 DUP2 MSTORE PUSH1 0x20 ADD SWAP1 DUP2 MSTORE PUSH1 0x20 ADD PUSH1 0x0 KECCAK256 DUP5 DUP2 SLOAD DUP2 LT PUSH2 0x23B6 JUMPI PUSH2 0x23B5 PUSH2 0x546E JUMP JUMPDEST JUMPDEST SWAP1 PUSH1 0x0 MSTORE PUSH1 0x20 PUSH1 0x0 KECCAK256 ADD SLOAD PUSH2 0x3415 JUMP JUMPDEST EQ PUSH2 0x23DA JUMPI DUP2 DUP1 PUSH2 0x23D6 SWAP1 PUSH2 0x4B5C JUMP JUMPDEST SWAP3 POP POP JUMPDEST DUP1 DUP1 PUSH2 0x23E5 SWAP1 PUSH2 0x4B5C JUMP JUMPDEST SWAP2 POP POP PUSH2 0x236D JUMP JUMPDEST POP DUP1 PUSH8 0xFFFFFFFFFFFFFFFF DUP2 GT ISZERO PUSH2 0x2408 JUMPI PUSH2 0x2407 PUSH2 0x3B58 JUMP JUMPDEST JUMPDEST PUSH1 0x40 MLOAD SWAP1 DUP1 DUP3 MSTORE DUP1 PUSH1 0x20 MUL PUSH1 0x20 ADD DUP3 ADD PUSH1 0x40 MSTORE DUP1 ISZERO PUSH2 0x2441 JUMPI DUP2 PUSH1 0x20 ADD JUMPDEST PUSH2 0x242E PUSH2 0x39E0 JUMP JUMPDEST DUP2 MSTORE PUSH1 0x20 ADD SWAP1 PUSH1 0x1 SWAP1 SUB SWAP1 DUP2 PUSH2 0x2426 JUMPI SWAP1 POP JUMPDEST POP SWAP2 POP PUSH1 0x0 DUP1 PUSH1 0x0 SWAP1 POP JUMPDEST PUSH1 0xD PUSH1 0x0 DUP7 DUP2 MSTORE PUSH1 0x20 ADD SWAP1 DUP2 MSTORE PUSH1 0x20 ADD PUSH1 0x0 KECCAK256 DUP1 SLOAD SWAP1 POP DUP2 LT ISZERO PUSH2 0x2520 JUMPI PUSH1 0x0 PUSH2 0x24A5 DUP8 PUSH1 0xD PUSH1 0x0 DUP10 DUP2 MSTORE PUSH1 0x20 ADD SWAP1 DUP2 MSTORE PUSH1 0x20 ADD PUSH1 0x0 KECCAK256 DUP5 DUP2 SLOAD DUP2 LT PUSH2 0x2495 JUMPI PUSH2 0x2494 PUSH2 0x546E JUMP JUMPDEST JUMPDEST SWAP1 PUSH1 0x0 MSTORE PUSH1 0x20 PUSH1 0x0 KECCAK256 ADD SLOAD PUSH2 0x3415 JUMP JUMPDEST EQ PUSH2 0x250D JUMPI PUSH2 0x24E2 PUSH1 0xD PUSH1 0x0 DUP8 DUP2 MSTORE PUSH1 0x20 ADD SWAP1 DUP2 MSTORE PUSH1 0x20 ADD PUSH1 0x0 KECCAK256 DUP3 DUP2 SLOAD DUP2 LT PUSH2 0x24D2 JUMPI PUSH2 0x24D1 PUSH2 0x546E JUMP JUMPDEST JUMPDEST SWAP1 PUSH1 0x0 MSTORE PUSH1 0x20 PUSH1 0x0 KECCAK256 ADD SLOAD PUSH2 0x1215 JUMP JUMPDEST DUP5 DUP4 DUP1 PUSH2 0x24EE SWAP1 PUSH2 0x4B5C JUMP JUMPDEST SWAP5 POP DUP2 MLOAD DUP2 LT PUSH2 0x2501 JUMPI PUSH2 0x2500 PUSH2 0x546E JUMP JUMPDEST JUMPDEST PUSH1 0x20 MUL PUSH1 0x20 ADD ADD DUP2 SWAP1 MSTORE POP JUMPDEST DUP1 DUP1 PUSH2 0x2518 SWAP1 PUSH2 0x4B5C JUMP JUMPDEST SWAP2 POP POP PUSH2 0x244C JUMP JUMPDEST POP POP POP SWAP3 SWAP2 POP POP JUMP JUMPDEST PUSH1 0x0 PUSH2 0x2533 PUSH2 0x3330 JUMP JUMPDEST PUSH1 0x4 PUSH1 0x0 DUP8 DUP2 MSTORE PUSH1 0x20 ADD SWAP1 DUP2 MSTORE PUSH1 0x20 ADD PUSH1 0x0 KECCAK256 PUSH1 0x0 SWAP1 SLOAD SWAP1 PUSH2 0x100 EXP SWAP1 DIV PUSH1 0xFF AND PUSH2 0x2593 JUMPI PUSH1 0x40 MLOAD PUSH32 0x8C379A000000000000000000000000000000000000000000000000000000000 DUP2 MSTORE PUSH1 0x4 ADD PUSH2 0x258A SWAP1 PUSH2 0x54E9 JUMP JUMPDEST PUSH1 0x40 MLOAD DUP1 SWAP2 SUB SWAP1 REVERT JUMPDEST DUP4 PUSH20 0xFFFFFFFFFFFFFFFFFFFFFFFFFFFFFFFFFFFFFFFF AND PUSH1 0x5 PUSH1 0x0 DUP9 DUP2 MSTORE PUSH1 0x20 ADD SWAP1 DUP2 MSTORE PUSH1 0x20 ADD PUSH1 0x0 KECCAK256 PUSH1 0x1 ADD PUSH1 0x0 SWAP1 SLOAD SWAP1 PUSH2 0x100 EXP SWAP1 DIV PUSH20 0xFFFFFFFFFFFFFFFFFFFFFFFFFFFFFFFFFFFFFFFF AND PUSH20 0xFFFFFFFFFFFFFFFFFFFFFFFFFFFFFFFFFFFFFFFF AND EQ PUSH2 0x2637 JUMPI PUSH1 0x40 MLOAD PUSH32 0x8C379A000000000000000000000000000000000000000000000000000000000 DUP2 MSTORE PUSH1 0x4 ADD PUSH2 0x262E SWAP1 PUSH2 0x5555 JUMP JUMPDEST PUSH1 0x40 MLOAD DUP1 SWAP2 SUB SWAP1 REVERT JUMPDEST PUSH1 0xE PUSH1 0x0 DUP7 DUP2 MSTORE PUSH1 0x20 ADD SWAP1 DUP2 MSTORE PUSH1 0x20 ADD PUSH1 0x0 KECCAK256 PUSH1 0x0 SWAP1 SLOAD SWAP1 PUSH2 0x100 EXP SWAP1 DIV PUSH1 0xFF AND PUSH2 0x2697 JUMPI PUSH1 0x40 MLOAD PUSH32 0x8C379A000000000000000000000000000000000000000000000000000000000 DUP2 MSTORE PUSH1 0x4 ADD PUSH2 0x268E SWAP1 PUSH2 0x533E JUMP JUMPDEST PUSH1 0x40 MLOAD DUP1 SWAP2 SUB SWAP1 REVERT JUMPDEST PUSH2 0x26A2 DUP4 DUP6 DUP5 PUSH2 0x33B7 JUMP JUMPDEST PUSH2 0x26E1 JUMPI PUSH1 0x40 MLOAD PUSH32 0x8C379A000000000000000000000000000000000000000000000000000000000 DUP2 MSTORE PUSH1 0x4 ADD PUSH2 0x26D8 SWAP1 PUSH2 0x495D JUMP JUMPDEST PUSH1 0x40 MLOAD DUP1 SWAP2 SUB SWAP1 REVERT JUMPDEST PUSH1 0x0 DUP7 DUP6 DUP8 PUSH1 0x40 MLOAD PUSH1 0x20 ADD PUSH2 0x26F8 SWAP4 SWAP3 SWAP2 SWAP1 PUSH2 0x55DE JUMP JUMPDEST PUSH1 0x40 MLOAD PUSH1 0x20 DUP2 DUP4 SUB SUB DUP2 MSTORE SWAP1 PUSH1 0x40 MSTORE DUP1 MLOAD SWAP1 PUSH1 0x20 ADD KECCAK256 SWAP1 POP PUSH2 0x2718 PUSH2 0x3A35 JUMP JUMPDEST PUSH1 0x3 PUSH1 0x0 DUP2 SLOAD PUSH2 0x2727 SWAP1 PUSH2 0x4B5C JUMP JUMPDEST SWAP2 SWAP1 POP DUP2 SWAP1 SSTORE DUP2 PUSH1 0x0 ADD DUP2 DUP2 MSTORE POP POP DUP8 DUP2 PUSH1 0x20 ADD DUP2 DUP2 MSTORE POP POP DUP7 DUP2 PUSH1 0x40 ADD DUP2 DUP2 MSTORE POP POP DUP6 DUP2 PUSH1 0x60 ADD SWAP1 PUSH20 0xFFFFFFFFFFFFFFFFFFFFFFFFFFFFFFFFFFFFFFFF AND SWAP1 DUP2 PUSH20 0xFFFFFFFFFFFFFFFFFFFFFFFFFFFFFFFFFFFFFFFF AND DUP2 MSTORE POP POP DUP2 DUP2 PUSH1 0x80 ADD DUP2 DUP2 MSTORE POP POP PUSH1 0x1 DUP2 PUSH1 0xA0 ADD SWAP1 ISZERO ISZERO SWAP1 DUP2 ISZERO ISZERO DUP2 MSTORE POP POP PUSH2 0x27A5 PUSH2 0x354D JUMP JUMPDEST DUP2 PUSH1 0xC0 ADD DUP2 DUP2 MSTORE POP POP PUSH2 0x27B6 PUSH2 0x354D JUMP JUMPDEST DUP2 PUSH1 0xE0 ADD DUP2 DUP2 MSTORE POP POP DUP1 PUSH1 0x9 PUSH1 0x0 DUP4 PUSH1 0x0 ADD MLOAD DUP2 MSTORE PUSH1 0x20 ADD SWAP1 DUP2 MSTORE PUSH1 0x20 ADD PUSH1 0x0 KECCAK256 PUSH1 0x0 DUP3 ADD MLOAD DUP2 PUSH1 0x0 ADD SSTORE PUSH1 0x20 DUP3 ADD MLOAD DUP2 PUSH1 0x1 ADD SSTORE PUSH1 0x40 DUP3 ADD MLOAD DUP2 PUSH1 0x2 ADD SSTORE PUSH1 0x60 DUP3 ADD MLOAD DUP2 PUSH1 0x3 ADD PUSH1 0x0 PUSH2 0x100 EXP DUP2 SLOAD DUP2 PUSH20 0xFFFFFFFFFFFFFFFFFFFFFFFFFFFFFFFFFFFFFFFF MUL NOT AND SWAP1 DUP4 PUSH20 0xFFFFFFFFFFFFFFFFFFFFFFFFFFFFFFFFFFFFFFFF AND MUL OR SWAP1 SSTORE POP PUSH1 0x80 DUP3 ADD MLOAD DUP2 PUSH1 0x4 ADD SSTORE PUSH1 0xA0 DUP3 ADD MLOAD DUP2 PUSH1 0x5 ADD PUSH1 0x0 PUSH2 0x100 EXP DUP2 SLOAD DUP2 PUSH1 0xFF MUL NOT AND SWAP1 DUP4 ISZERO ISZERO MUL OR SWAP1 SSTORE POP PUSH1 0xC0 DUP3 ADD MLOAD DUP2 PUSH1 0x6 ADD SSTORE PUSH1 0xE0 DUP3 ADD MLOAD DUP2 PUSH1 0x7 ADD SSTORE SWAP1 POP POP PUSH1 0x1 PUSH1 0x8 PUSH1 0x0 DUP4 PUSH1 0x0 ADD MLOAD DUP2 MSTORE PUSH1 0x20 ADD SWAP1 DUP2 MSTORE PUSH1 0x20 ADD PUSH1 0x0 KECCAK256 PUSH1 0x0 PUSH2 0x100 EXP DUP2 SLOAD DUP2 PUSH1 0xFF MUL NOT AND SWAP1 DUP4 ISZERO ISZERO MUL OR SWAP1 SSTORE POP PUSH1 0xB PUSH1 0x0 DUP9 DUP2 MSTORE PUSH1 0x20 ADD SWAP1 DUP2 MSTORE PUSH1 0x20 ADD PUSH1 0x0 KECCAK256 DUP2 PUSH1 0x0 ADD MLOAD SWAP1 DUP1 PUSH1 0x1 DUP2 SLOAD ADD DUP1 DUP3 SSTORE DUP1 SWAP2 POP POP PUSH1 0x1 SWAP1 SUB SWAP1 PUSH1 0x0 MSTORE PUSH1 0x20 PUSH1 0x0 KECCAK256 ADD PUSH1 0x0 SWAP1 SWAP2 SWAP1 SWAP2 SWAP1 SWAP2 POP SSTORE PUSH1 0x1 PUSH1 0xC PUSH1 0x0 DUP10 DUP2 MSTORE PUSH1 0x20 ADD SWAP1 DUP2 MSTORE PUSH1 0x20 ADD PUSH1 0x0 KECCAK256 PUSH1 0x0 DUP3 DUP3 SLOAD PUSH2 0x290F SWAP2 SWAP1 PUSH2 0x4E82 JUMP JUMPDEST SWAP3 POP POP DUP2 SWAP1 SSTORE POP DUP1 PUSH1 0x0 ADD MLOAD PUSH1 0xA PUSH1 0x0 DUP5 DUP2 MSTORE PUSH1 0x20 ADD SWAP1 DUP2 MSTORE PUSH1 0x20 ADD PUSH1 0x0 KECCAK256 DUP2 SWAP1 SSTORE POP PUSH1 0xD PUSH1 0x0 DUP10 DUP2 MSTORE PUSH1 0x20 ADD SWAP1 DUP2 MSTORE PUSH1 0x20 ADD PUSH1 0x0 KECCAK256 DUP8 SWAP1 DUP1 PUSH1 0x1 DUP2 SLOAD ADD DUP1 DUP3 SSTORE DUP1 SWAP2 POP POP PUSH1 0x1 SWAP1 SUB SWAP1 PUSH1 0x0 MSTORE PUSH1 0x20 PUSH1 0x0 KECCAK256 ADD PUSH1 0x0 SWAP1 SWAP2 SWAP1 SWAP2 SWAP1 SWAP2 POP SSTORE CALLER PUSH20 0xFFFFFFFFFFFFFFFFFFFFFFFFFFFFFFFFFFFFFFFF AND PUSH32 0xE63A460B8DABEB604B9976B03437E24BA6D9E603AF187BB174D50CE4F6B30229 DUP3 PUSH1 0x0 ADD MLOAD PUSH2 0x29B1 PUSH2 0x354D JUMP JUMPDEST PUSH1 0x40 MLOAD PUSH2 0x29BF SWAP3 SWAP2 SWAP1 PUSH2 0x5667 JUMP JUMPDEST PUSH1 0x40 MLOAD DUP1 SWAP2 SUB SWAP1 LOG2 DUP2 SWAP3 POP POP POP SWAP6 SWAP5 POP POP POP POP POP JUMP JUMPDEST PUSH2 0x29DD PUSH2 0x397C JUMP JUMPDEST PUSH1 0x5 PUSH1 0x0 DUP4 DUP2 MSTORE PUSH1 0x20 ADD SWAP1 DUP2 MSTORE PUSH1 0x20 ADD PUSH1 0x0 KECCAK256 PUSH1 0x40 MLOAD DUP1 PUSH2 0x120 ADD PUSH1 0x40 MSTORE SWAP1 DUP2 PUSH1 0x0 DUP3 ADD SLOAD DUP2 MSTORE PUSH1 0x20 ADD PUSH1 0x1 DUP3 ADD PUSH1 0x0 SWAP1 SLOAD SWAP1 PUSH2 0x100 EXP SWAP1 DIV PUSH20 0xFFFFFFFFFFFFFFFFFFFFFFFFFFFFFFFFFFFFFFFF AND PUSH20 0xFFFFFFFFFFFFFFFFFFFFFFFFFFFFFFFFFFFFFFFF AND PUSH20 0xFFFFFFFFFFFFFFFFFFFFFFFFFFFFFFFFFFFFFFFF AND DUP2 MSTORE PUSH1 0x20 ADD PUSH1 0x2 DUP3 ADD DUP1 SLOAD PUSH2 0x2A6C SWAP1 PUSH2 0x4BD3 JUMP JUMPDEST DUP1 PUSH1 0x1F ADD PUSH1 0x20 DUP1 SWAP2 DIV MUL PUSH1 0x20 ADD PUSH1 0x40 MLOAD SWAP1 DUP2 ADD PUSH1 0x40 MSTORE DUP1 SWAP3 SWAP2 SWAP1 DUP2 DUP2 MSTORE PUSH1 0x20 ADD DUP3 DUP1 SLOAD PUSH2 0x2A98 SWAP1 PUSH2 0x4BD3 JUMP JUMPDEST DUP1 ISZERO PUSH2 0x2AE5 JUMPI DUP1 PUSH1 0x1F LT PUSH2 0x2ABA JUMPI PUSH2 0x100 DUP1 DUP4 SLOAD DIV MUL DUP4 MSTORE SWAP2 PUSH1 0x20 ADD SWAP2 PUSH2 0x2AE5 JUMP JUMPDEST DUP3 ADD SWAP2 SWAP1 PUSH1 0x0 MSTORE PUSH1 0x20 PUSH1 0x0 KECCAK256 SWAP1 JUMPDEST DUP2 SLOAD DUP2 MSTORE SWAP1 PUSH1 0x1 ADD SWAP1 PUSH1 0x20 ADD DUP1 DUP4 GT PUSH2 0x2AC8 JUMPI DUP3 SWAP1 SUB PUSH1 0x1F AND DUP3 ADD SWAP2 JUMPDEST POP POP POP POP POP DUP2 MSTORE PUSH1 0x20 ADD PUSH1 0x3 DUP3 ADD DUP1 SLOAD PUSH2 0x2AFE SWAP1 PUSH2 0x4BD3 JUMP JUMPDEST DUP1 PUSH1 0x1F ADD PUSH1 0x20 DUP1 SWAP2 DIV MUL PUSH1 0x20 ADD PUSH1 0x40 MLOAD SWAP1 DUP2 ADD PUSH1 0x40 MSTORE DUP1 SWAP3 SWAP2 SWAP1 DUP2 DUP2 MSTORE PUSH1 0x20 ADD DUP3 DUP1 SLOAD PUSH2 0x2B2A SWAP1 PUSH2 0x4BD3 JUMP JUMPDEST DUP1 ISZERO PUSH2 0x2B77 JUMPI DUP1 PUSH1 0x1F LT PUSH2 0x2B4C JUMPI PUSH2 0x100 DUP1 DUP4 SLOAD DIV MUL DUP4 MSTORE SWAP2 PUSH1 0x20 ADD SWAP2 PUSH2 0x2B77 JUMP JUMPDEST DUP3 ADD SWAP2 SWAP1 PUSH1 0x0 MSTORE PUSH1 0x20 PUSH1 0x0 KECCAK256 SWAP1 JUMPDEST DUP2 SLOAD DUP2 MSTORE SWAP1 PUSH1 0x1 ADD SWAP1 PUSH1 0x20 ADD DUP1 DUP4 GT PUSH2 0x2B5A JUMPI DUP3 SWAP1 SUB PUSH1 0x1F AND DUP3 ADD SWAP2 JUMPDEST POP POP POP POP POP DUP2 MSTORE PUSH1 0x20 ADD PUSH1 0x4 DUP3 ADD DUP1 SLOAD PUSH2 0x2B90 SWAP1 PUSH2 0x4BD3 JUMP JUMPDEST DUP1 PUSH1 0x1F ADD PUSH1 0x20 DUP1 SWAP2 DIV MUL PUSH1 0x20 ADD PUSH1 0x40 MLOAD SWAP1 DUP2 ADD PUSH1 0x40 MSTORE DUP1 SWAP3 SWAP2 SWAP1 DUP2 DUP2 MSTORE PUSH1 0x20 ADD DUP3 DUP1 SLOAD PUSH2 0x2BBC SWAP1 PUSH2 0x4BD3 JUMP JUMPDEST DUP1 ISZERO PUSH2 0x2C09 JUMPI DUP1 PUSH1 0x1F LT PUSH2 0x2BDE JUMPI PUSH2 0x100 DUP1 DUP4 SLOAD DIV MUL DUP4 MSTORE SWAP2 PUSH1 0x20 ADD SWAP2 PUSH2 0x2C09 JUMP JUMPDEST DUP3 ADD SWAP2 SWAP1 PUSH1 0x0 MSTORE PUSH1 0x20 PUSH1 0x0 KECCAK256 SWAP1 JUMPDEST DUP2 SLOAD DUP2 MSTORE SWAP1 PUSH1 0x1 ADD SWAP1 PUSH1 0x20 ADD DUP1 DUP4 GT PUSH2 0x2BEC JUMPI DUP3 SWAP1 SUB PUSH1 0x1F AND DUP3 ADD SWAP2 JUMPDEST POP POP POP POP POP DUP2 MSTORE PUSH1 0x20 ADD PUSH1 0x5 DUP3 ADD DUP1 SLOAD PUSH2 0x2C22 SWAP1 PUSH2 0x4BD3 JUMP JUMPDEST DUP1 PUSH1 0x1F ADD PUSH1 0x20 DUP1 SWAP2 DIV MUL PUSH1 0x20 ADD PUSH1 0x40 MLOAD SWAP1 DUP2 ADD PUSH1 0x40 MSTORE DUP1 SWAP3 SWAP2 SWAP1 DUP2 DUP2 MSTORE PUSH1 0x20 ADD DUP3 DUP1 SLOAD PUSH2 0x2C4E SWAP1 PUSH2 0x4BD3 JUMP JUMPDEST DUP1 ISZERO PUSH2 0x2C9B JUMPI DUP1 PUSH1 0x1F LT PUSH2 0x2C70 JUMPI PUSH2 0x100 DUP1 DUP4 SLOAD DIV MUL DUP4 MSTORE SWAP2 PUSH1 0x20 ADD SWAP2 PUSH2 0x2C9B JUMP JUMPDEST DUP3 ADD SWAP2 SWAP1 PUSH1 0x0 MSTORE PUSH1 0x20 PUSH1 0x0 KECCAK256 SWAP1 JUMPDEST DUP2 SLOAD DUP2 MSTORE SWAP1 PUSH1 0x1 ADD SWAP1 PUSH1 0x20 ADD DUP1 DUP4 GT PUSH2 0x2C7E JUMPI DUP3 SWAP1 SUB PUSH1 0x1F AND DUP3 ADD SWAP2 JUMPDEST POP POP POP POP POP DUP2 MSTORE PUSH1 0x20 ADD PUSH1 0x6 DUP3 ADD PUSH1 0x0 SWAP1 SLOAD SWAP1 PUSH2 0x100 EXP SWAP1 DIV PUSH1 0xFF AND ISZERO ISZERO ISZERO ISZERO DUP2 MSTORE PUSH1 0x20 ADD PUSH1 0x7 DUP3 ADD SLOAD DUP2 MSTORE PUSH1 0x20 ADD PUSH1 0x8 DUP3 ADD SLOAD DUP2 MSTORE POP POP SWAP1 POP SWAP2 SWAP1 POP JUMP JUMPDEST PUSH1 0xE PUSH1 0x0 DUP3 DUP2 MSTORE PUSH1 0x20 ADD SWAP1 DUP2 MSTORE PUSH1 0x20 ADD PUSH1 0x0 KECCAK256 PUSH1 0x0 SWAP1 SLOAD SWAP1 PUSH2 0x100 EXP SWAP1 DIV PUSH1 0xFF AND PUSH2 0x2D3A JUMPI PUSH1 0x40 MLOAD PUSH32 0x8C379A000000000000000000000000000000000000000000000000000000000 DUP2 MSTORE PUSH1 0x4 ADD PUSH2 0x2D31 SWAP1 PUSH2 0x533E JUMP JUMPDEST PUSH1 0x40 MLOAD DUP1 SWAP2 SUB SWAP1 REVERT JUMPDEST CALLER PUSH20 0xFFFFFFFFFFFFFFFFFFFFFFFFFFFFFFFFFFFFFFFF AND PUSH1 0xF PUSH1 0x0 DUP4 DUP2 MSTORE PUSH1 0x20 ADD SWAP1 DUP2 MSTORE PUSH1 0x20 ADD PUSH1 0x0 KECCAK256 PUSH1 0x3 ADD PUSH1 0x0 SWAP1 SLOAD SWAP1 PUSH2 0x100 EXP SWAP1 DIV PUSH20 0xFFFFFFFFFFFFFFFFFFFFFFFFFFFFFFFFFFFFFFFF AND PUSH20 0xFFFFFFFFFFFFFFFFFFFFFFFFFFFFFFFFFFFFFFFF AND EQ PUSH2 0x2DDE JUMPI PUSH1 0x40 MLOAD PUSH32 0x8C379A000000000000000000000000000000000000000000000000000000000 DUP2 MSTORE PUSH1 0x4 ADD PUSH2 0x2DD5 SWAP1 PUSH2 0x524A JUMP JUMPDEST PUSH1 0x40 MLOAD DUP1 SWAP2 SUB SWAP1 REVERT JUMPDEST PUSH1 0x0 PUSH1 0xE PUSH1 0x0 DUP4 DUP2 MSTORE PUSH1 0x20 ADD SWAP1 DUP2 MSTORE PUSH1 0x20 ADD PUSH1 0x0 KECCAK256 PUSH1 0x0 PUSH2 0x100 EXP DUP2 SLOAD DUP2 PUSH1 0xFF MUL NOT AND SWAP1 DUP4 ISZERO ISZERO MUL OR SWAP1 SSTORE POP PUSH1 0x1 PUSH1 0xF PUSH1 0x0 DUP4 DUP2 MSTORE PUSH1 0x20 ADD SWAP1 DUP2 MSTORE PUSH1 0x20 ADD PUSH1 0x0 KECCAK256 PUSH1 0x3 ADD PUSH1 0x14 PUSH2 0x100 EXP DUP2 SLOAD DUP2 PUSH1 0xFF MUL NOT AND SWAP1 DUP4 ISZERO ISZERO MUL OR SWAP1 SSTORE POP PUSH2 0x2E41 PUSH2 0x354D JUMP JUMPDEST PUSH1 0xF PUSH1 0x0 DUP4 DUP2 MSTORE PUSH1 0x20 ADD SWAP1 DUP2 MSTORE PUSH1 0x20 ADD PUSH1 0x0 KECCAK256 PUSH1 0x5 ADD DUP2 SWAP1 SSTORE POP PUSH2 0x2E64 DUP2 PUSH2 0x377F JUMP JUMPDEST CALLER PUSH20 0xFFFFFFFFFFFFFFFFFFFFFFFFFFFFFFFFFFFFFFFF AND PUSH32 0xCF40BD3705E373A5F70135F1D9765C2D97154B94B433601F78A9572C57657124 DUP3 PUSH2 0x2EA5 PUSH2 0x354D JUMP JUMPDEST PUSH1 0x40 MLOAD PUSH2 0x2EB3 SWAP3 SWAP2 SWAP1 PUSH2 0x56EF JUMP JUMPDEST PUSH1 0x40 MLOAD DUP1 SWAP2 SUB SWAP1 LOG2 POP JUMP JUMPDEST PUSH2 0x2EC6 PUSH2 0x3330 JUMP JUMPDEST PUSH1 0x0 PUSH20 0xFFFFFFFFFFFFFFFFFFFFFFFFFFFFFFFFFFFFFFFF AND DUP2 PUSH20 0xFFFFFFFFFFFFFFFFFFFFFFFFFFFFFFFFFFFFFFFF AND SUB PUSH2 0x2F38 JUMPI PUSH1 0x0 PUSH1 0x40 MLOAD PUSH32 0x1E4FBDF700000000000000000000000000000000000000000000000000000000 DUP2 MSTORE PUSH1 0x4 ADD PUSH2 0x2F2F SWAP2 SWAP1 PUSH2 0x44E8 JUMP JUMPDEST PUSH1 0x40 MLOAD DUP1 SWAP2 SUB SWAP1 REVERT JUMPDEST PUSH2 0x2F41 DUP2 PUSH2 0x36BB JUMP JUMPDEST POP JUMP JUMPDEST PUSH2 0x2F4C PUSH2 0x397C JUMP JUMPDEST PUSH1 0x0 PUSH2 0x2F57 DUP4 PUSH2 0x356D JUMP JUMPDEST SUB PUSH2 0x2F97 JUMPI PUSH1 0x40 MLOAD PUSH32 0x8C379A000000000000000000000000000000000000000000000000000000000 DUP2 MSTORE PUSH1 0x4 ADD PUSH2 0x2F8E SWAP1 PUSH2 0x4FBF JUMP JUMPDEST PUSH1 0x40 MLOAD DUP1 SWAP2 SUB SWAP1 REVERT JUMPDEST PUSH1 0x4 PUSH1 0x0 PUSH1 0x9 PUSH1 0x0 PUSH2 0x2FA8 DUP7 PUSH2 0x356D JUMP JUMPDEST DUP2 MSTORE PUSH1 0x20 ADD SWAP1 DUP2 MSTORE PUSH1 0x20 ADD PUSH1 0x0 KECCAK256 PUSH1 0x1 ADD SLOAD DUP2 MSTORE PUSH1 0x20 ADD SWAP1 DUP2 MSTORE PUSH1 0x20 ADD PUSH1 0x0 KECCAK256 PUSH1 0x0 SWAP1 SLOAD SWAP1 PUSH2 0x100 EXP SWAP1 DIV PUSH1 0xFF AND PUSH2 0x3015 JUMPI PUSH1 0x40 MLOAD PUSH32 0x8C379A000000000000000000000000000000000000000000000000000000000 DUP2 MSTORE PUSH1 0x4 ADD PUSH2 0x300C SWAP1 PUSH2 0x5777 JUMP JUMPDEST PUSH1 0x40 MLOAD DUP1 SWAP2 SUB SWAP1 REVERT JUMPDEST PUSH1 0x5 PUSH1 0x0 PUSH1 0x9 PUSH1 0x0 PUSH2 0x3026 DUP7 PUSH2 0x356D JUMP JUMPDEST DUP2 MSTORE PUSH1 0x20 ADD SWAP1 DUP2 MSTORE PUSH1 0x20 ADD PUSH1 0x0 KECCAK256 PUSH1 0x1 ADD SLOAD DUP2 MSTORE PUSH1 0x20 ADD SWAP1 DUP2 MSTORE PUSH1 0x20 ADD PUSH1 0x0 KECCAK256 PUSH1 0x40 MLOAD DUP1 PUSH2 0x120 ADD PUSH1 0x40 MSTORE SWAP1 DUP2 PUSH1 0x0 DUP3 ADD SLOAD DUP2 MSTORE PUSH1 0x20 ADD PUSH1 0x1 DUP3 ADD PUSH1 0x0 SWAP1 SLOAD SWAP1 PUSH2 0x100 EXP SWAP1 DIV PUSH20 0xFFFFFFFFFFFFFFFFFFFFFFFFFFFFFFFFFFFFFFFF AND PUSH20 0xFFFFFFFFFFFFFFFFFFFFFFFFFFFFFFFFFFFFFFFF AND PUSH20 0xFFFFFFFFFFFFFFFFFFFFFFFFFFFFFFFFFFFFFFFF AND DUP2 MSTORE PUSH1 0x20 ADD PUSH1 0x2 DUP3 ADD DUP1 SLOAD PUSH2 0x30C2 SWAP1 PUSH2 0x4BD3 JUMP JUMPDEST DUP1 PUSH1 0x1F ADD PUSH1 0x20 DUP1 SWAP2 DIV MUL PUSH1 0x20 ADD PUSH1 0x40 MLOAD SWAP1 DUP2 ADD PUSH1 0x40 MSTORE DUP1 SWAP3 SWAP2 SWAP1 DUP2 DUP2 MSTORE PUSH1 0x20 ADD DUP3 DUP1 SLOAD PUSH2 0x30EE SWAP1 PUSH2 0x4BD3 JUMP JUMPDEST DUP1 ISZERO PUSH2 0x313B JUMPI DUP1 PUSH1 0x1F LT PUSH2 0x3110 JUMPI PUSH2 0x100 DUP1 DUP4 SLOAD DIV MUL DUP4 MSTORE SWAP2 PUSH1 0x20 ADD SWAP2 PUSH2 0x313B JUMP JUMPDEST DUP3 ADD SWAP2 SWAP1 PUSH1 0x0 MSTORE PUSH1 0x20 PUSH1 0x0 KECCAK256 SWAP1 JUMPDEST DUP2 SLOAD DUP2 MSTORE SWAP1 PUSH1 0x1 ADD SWAP1 PUSH1 0x20 ADD DUP1 DUP4 GT PUSH2 0x311E JUMPI DUP3 SWAP1 SUB PUSH1 0x1F AND DUP3 ADD SWAP2 JUMPDEST POP POP POP POP POP DUP2 MSTORE PUSH1 0x20 ADD PUSH1 0x3 DUP3 ADD DUP1 SLOAD PUSH2 0x3154 SWAP1 PUSH2 0x4BD3 JUMP JUMPDEST DUP1 PUSH1 0x1F ADD PUSH1 0x20 DUP1 SWAP2 DIV MUL PUSH1 0x20 ADD PUSH1 0x40 MLOAD SWAP1 DUP2 ADD PUSH1 0x40 MSTORE DUP1 SWAP3 SWAP2 SWAP1 DUP2 DUP2 MSTORE PUSH1 0x20 ADD DUP3 DUP1 SLOAD PUSH2 0x3180 SWAP1 PUSH2 0x4BD3 JUMP JUMPDEST DUP1 ISZERO PUSH2 0x31CD JUMPI DUP1 PUSH1 0x1F LT PUSH2 0x31A2 JUMPI PUSH2 0x100 DUP1 DUP4 SLOAD DIV MUL DUP4 MSTORE SWAP2 PUSH1 0x20 ADD SWAP2 PUSH2 0x31CD JUMP JUMPDEST DUP3 ADD SWAP2 SWAP1 PUSH1 0x0 MSTORE PUSH1 0x20 PUSH1 0x0 KECCAK256 SWAP1 JUMPDEST DUP2 SLOAD DUP2 MSTORE SWAP1 PUSH1 0x1 ADD SWAP1 PUSH1 0x20 ADD DUP1 DUP4 GT PUSH2 0x31B0 JUMPI DUP3 SWAP1 SUB PUSH1 0x1F AND DUP3 ADD SWAP2 JUMPDEST POP POP POP POP POP DUP2 MSTORE PUSH1 0x20 ADD PUSH1 0x4 DUP3 ADD DUP1 SLOAD PUSH2 0x31E6 SWAP1 PUSH2 0x4BD3 JUMP JUMPDEST DUP1 PUSH1 0x1F ADD PUSH1 0x20 DUP1 SWAP2 DIV MUL PUSH1 0x20 ADD PUSH1 0x40 MLOAD SWAP1 DUP2 ADD PUSH1 0x40 MSTORE DUP1 SWAP3 SWAP2 SWAP1 DUP2 DUP2 MSTORE PUSH1 0x20 ADD DUP3 DUP1 SLOAD PUSH2 0x3212 SWAP1 PUSH2 0x4BD3 JUMP JUMPDEST DUP1 ISZERO PUSH2 0x325F JUMPI DUP1 PUSH1 0x1F LT PUSH2 0x3234 JUMPI PUSH2 0x100 DUP1 DUP4 SLOAD DIV MUL DUP4 MSTORE SWAP2 PUSH1 0x20 ADD SWAP2 PUSH2 0x325F JUMP JUMPDEST DUP3 ADD SWAP2 SWAP1 PUSH1 0x0 MSTORE PUSH1 0x20 PUSH1 0x0 KECCAK256 SWAP1 JUMPDEST DUP2 SLOAD DUP2 MSTORE SWAP1 PUSH1 0x1 ADD SWAP1 PUSH1 0x20 ADD DUP1 DUP4 GT PUSH2 0x3242 JUMPI DUP3 SWAP1 SUB PUSH1 0x1F AND DUP3 ADD SWAP2 JUMPDEST POP POP POP POP POP DUP2 MSTORE PUSH1 0x20 ADD PUSH1 0x5 DUP3 ADD DUP1 SLOAD PUSH2 0x3278 SWAP1 PUSH2 0x4BD3 JUMP JUMPDEST DUP1 PUSH1 0x1F ADD PUSH1 0x20 DUP1 SWAP2 DIV MUL PUSH1 0x20 ADD PUSH1 0x40 MLOAD SWAP1 DUP2 ADD PUSH1 0x40 MSTORE DUP1 SWAP3 SWAP2 SWAP1 DUP2 DUP2 MSTORE PUSH1 0x20 ADD DUP3 DUP1 SLOAD PUSH2 0x32A4 SWAP1 PUSH2 0x4BD3 JUMP JUMPDEST DUP1 ISZERO PUSH2 0x32F1 JUMPI DUP1 PUSH1 0x1F LT PUSH2 0x32C6 JUMPI PUSH2 0x100 DUP1 DUP4 SLOAD DIV MUL DUP4 MSTORE SWAP2 PUSH1 0x20 ADD SWAP2 PUSH2 0x32F1 JUMP JUMPDEST DUP3 ADD SWAP2 SWAP1 PUSH1 0x0 MSTORE PUSH1 0x20 PUSH1 0x0 KECCAK256 SWAP1 JUMPDEST DUP2 SLOAD DUP2 MSTORE SWAP1 PUSH1 0x1 ADD SWAP1 PUSH1 0x20 ADD DUP1 DUP4 GT PUSH2 0x32D4 JUMPI DUP3 SWAP1 SUB PUSH1 0x1F AND DUP3 ADD SWAP2 JUMPDEST POP POP POP POP POP DUP2 MSTORE PUSH1 0x20 ADD PUSH1 0x6 DUP3 ADD PUSH1 0x0 SWAP1 SLOAD SWAP1 PUSH2 0x100 EXP SWAP1 DIV PUSH1 0xFF AND ISZERO ISZERO ISZERO ISZERO DUP2 MSTORE PUSH1 0x20 ADD PUSH1 0x7 DUP3 ADD SLOAD DUP2 MSTORE PUSH1 0x20 ADD PUSH1 0x8 DUP3 ADD SLOAD DUP2 MSTORE POP POP SWAP1 POP SWAP2 SWAP1 POP JUMP JUMPDEST PUSH2 0x3338 PUSH2 0x383D JUMP JUMPDEST PUSH20 0xFFFFFFFFFFFFFFFFFFFFFFFFFFFFFFFFFFFFFFFF AND PUSH2 0x3356 PUSH2 0x1E1A JUMP JUMPDEST PUSH20 0xFFFFFFFFFFFFFFFFFFFFFFFFFFFFFFFFFFFFFFFF AND EQ PUSH2 0x33B5 JUMPI PUSH2 0x3379 PUSH2 0x383D JUMP JUMPDEST PUSH1 0x40 MLOAD PUSH32 0x118CDAA700000000000000000000000000000000000000000000000000000000 DUP2 MSTORE PUSH1 0x4 ADD PUSH2 0x33AC SWAP2 SWAP1 PUSH2 0x44E8 JUMP JUMPDEST PUSH1 0x40 MLOAD DUP1 SWAP2 SUB SWAP1 REVERT JUMPDEST JUMP JUMPDEST PUSH1 0x0 DUP1 PUSH2 0x33C3 DUP6 PUSH2 0x3845 JUMP JUMPDEST SWAP1 POP PUSH1 0x0 PUSH2 0x33D0 DUP3 PUSH2 0x3875 JUMP JUMPDEST SWAP1 POP DUP5 PUSH20 0xFFFFFFFFFFFFFFFFFFFFFFFFFFFFFFFFFFFFFFFF AND PUSH2 0x33F3 DUP3 DUP7 PUSH2 0x38A5 JUMP JUMPDEST PUSH20 0xFFFFFFFFFFFFFFFFFFFFFFFFFFFFFFFFFFFFFFFF AND EQ SWAP3 POP POP POP SWAP4 SWAP3 POP POP POP JUMP JUMPDEST PUSH1 0x0 DUP1 PUSH1 0x0 SWAP1 POP JUMPDEST PUSH1 0xC PUSH1 0x0 DUP5 DUP2 MSTORE PUSH1 0x20 ADD SWAP1 DUP2 MSTORE PUSH1 0x20 ADD PUSH1 0x0 KECCAK256 SLOAD DUP2 LT ISZERO PUSH2 0x3541 JUMPI PUSH1 0x0 PUSH1 0xB PUSH1 0x0 DUP6 DUP2 MSTORE PUSH1 0x20 ADD SWAP1 DUP2 MSTORE PUSH1 0x20 ADD PUSH1 0x0 KECCAK256 DUP3 DUP2 SLOAD DUP2 LT PUSH2 0x345F JUMPI PUSH2 0x345E PUSH2 0x546E JUMP JUMPDEST JUMPDEST SWAP1 PUSH1 0x0 MSTORE PUSH1 0x20 PUSH1 0x0 KECCAK256 ADD SLOAD SWAP1 POP DUP5 PUSH20 0xFFFFFFFFFFFFFFFFFFFFFFFFFFFFFFFFFFFFFFFF AND PUSH1 0x9 PUSH1 0x0 DUP4 DUP2 MSTORE PUSH1 0x20 ADD SWAP1 DUP2 MSTORE PUSH1 0x20 ADD PUSH1 0x0 KECCAK256 PUSH1 0x3 ADD PUSH1 0x0 SWAP1 SLOAD SWAP1 PUSH2 0x100 EXP SWAP1 DIV PUSH20 0xFFFFFFFFFFFFFFFFFFFFFFFFFFFFFFFFFFFFFFFF AND PUSH20 0xFFFFFFFFFFFFFFFFFFFFFFFFFFFFFFFFFFFFFFFF AND EQ DUP1 ISZERO PUSH2 0x34FD JUMPI POP PUSH1 0x9 PUSH1 0x0 DUP3 DUP2 MSTORE PUSH1 0x20 ADD SWAP1 DUP2 MSTORE PUSH1 0x20 ADD PUSH1 0x0 KECCAK256 PUSH1 0x5 ADD PUSH1 0x0 SWAP1 SLOAD SWAP1 PUSH2 0x100 EXP SWAP1 DIV PUSH1 0xFF AND JUMPDEST DUP1 ISZERO PUSH2 0x351E JUMPI POP DUP4 PUSH1 0x9 PUSH1 0x0 DUP4 DUP2 MSTORE PUSH1 0x20 ADD SWAP1 DUP2 MSTORE PUSH1 0x20 ADD PUSH1 0x0 KECCAK256 PUSH1 0x2 ADD SLOAD EQ JUMPDEST ISZERO PUSH2 0x352D JUMPI DUP1 SWAP3 POP POP POP PUSH2 0x3547 JUMP JUMPDEST POP DUP1 DUP1 PUSH2 0x3539 SWAP1 PUSH2 0x4B5C JUMP JUMPDEST SWAP2 POP POP PUSH2 0x341D JUMP JUMPDEST POP PUSH1 0x0 SWAP1 POP JUMPDEST SWAP3 SWAP2 POP POP JUMP JUMPDEST PUSH1 0x0 PUSH2 0x3E8 DUP1 TIMESTAMP PUSH2 0x355E SWAP2 SWAP1 PUSH2 0x5797 JUMP JUMPDEST PUSH2 0x3568 SWAP2 SWAP1 PUSH2 0x4E82 JUMP JUMPDEST SWAP1 POP SWAP1 JUMP JUMPDEST PUSH1 0x0 DUP1 PUSH1 0xA PUSH1 0x0 DUP5 DUP2 MSTORE PUSH1 0x20 ADD SWAP1 DUP2 MSTORE PUSH1 0x20 ADD PUSH1 0x0 KECCAK256 SLOAD SWAP1 POP PUSH1 0x9 PUSH1 0x0 DUP3 DUP2 MSTORE PUSH1 0x20 ADD SWAP1 DUP2 MSTORE PUSH1 0x20 ADD PUSH1 0x0 KECCAK256 PUSH1 0x5 ADD PUSH1 0x0 SWAP1 SLOAD SWAP1 PUSH2 0x100 EXP SWAP1 DIV PUSH1 0xFF AND DUP1 ISZERO PUSH2 0x35CB JUMPI POP DUP3 PUSH1 0x9 PUSH1 0x0 DUP4 DUP2 MSTORE PUSH1 0x20 ADD SWAP1 DUP2 MSTORE PUSH1 0x20 ADD PUSH1 0x0 KECCAK256 PUSH1 0x4 ADD SLOAD EQ JUMPDEST ISZERO PUSH2 0x35D9 JUMPI DUP1 SWAP2 POP POP PUSH2 0x35DF JUMP JUMPDEST PUSH1 0x0 SWAP2 POP POP JUMPDEST SWAP2 SWAP1 POP JUMP JUMPDEST PUSH1 0x0 PUSH1 0x9 PUSH1 0x0 DUP4 DUP2 MSTORE PUSH1 0x20 ADD SWAP1 DUP2 MSTORE PUSH1 0x20 ADD PUSH1 0x0 KECCAK256 PUSH1 0x5 ADD PUSH1 0x0 PUSH2 0x100 EXP DUP2 SLOAD DUP2 PUSH1 0xFF MUL NOT AND SWAP1 DUP4 ISZERO ISZERO MUL OR SWAP1 SSTORE POP PUSH2 0x361B PUSH2 0x354D JUMP JUMPDEST PUSH1 0x9 PUSH1 0x0 DUP4 DUP2 MSTORE PUSH1 0x20 ADD SWAP1 DUP2 MSTORE PUSH1 0x20 ADD PUSH1 0x0 KECCAK256 PUSH1 0x7 ADD DUP2 SWAP1 SSTORE POP PUSH1 0x0 PUSH1 0x8 PUSH1 0x0 DUP4 DUP2 MSTORE PUSH1 0x20 ADD SWAP1 DUP2 MSTORE PUSH1 0x20 ADD PUSH1 0x0 KECCAK256 PUSH1 0x0 PUSH2 0x100 EXP DUP2 SLOAD DUP2 PUSH1 0xFF MUL NOT AND SWAP1 DUP4 ISZERO ISZERO MUL OR SWAP1 SSTORE POP CALLER PUSH20 0xFFFFFFFFFFFFFFFFFFFFFFFFFFFFFFFFFFFFFFFF AND PUSH32 0xE63A460B8DABEB604B9976B03437E24BA6D9E603AF187BB174D50CE4F6B30229 DUP3 PUSH2 0x36A2 PUSH2 0x354D JUMP JUMPDEST PUSH1 0x40 MLOAD PUSH2 0x36B0 SWAP3 SWAP2 SWAP1 PUSH2 0x5825 JUMP JUMPDEST PUSH1 0x40 MLOAD DUP1 SWAP2 SUB SWAP1 LOG2 POP JUMP JUMPDEST PUSH1 0x0 DUP1 PUSH1 0x0 SWAP1 SLOAD SWAP1 PUSH2 0x100 EXP SWAP1 DIV PUSH20 0xFFFFFFFFFFFFFFFFFFFFFFFFFFFFFFFFFFFFFFFF AND SWAP1 POP DUP2 PUSH1 0x0 DUP1 PUSH2 0x100 EXP DUP2 SLOAD DUP2 PUSH20 0xFFFFFFFFFFFFFFFFFFFFFFFFFFFFFFFFFFFFFFFF MUL NOT AND SWAP1 DUP4 PUSH20 0xFFFFFFFFFFFFFFFFFFFFFFFFFFFFFFFFFFFFFFFF AND MUL OR SWAP1 SSTORE POP DUP2 PUSH20 0xFFFFFFFFFFFFFFFFFFFFFFFFFFFFFFFFFFFFFFFF AND DUP2 PUSH20 0xFFFFFFFFFFFFFFFFFFFFFFFFFFFFFFFFFFFFFFFF AND PUSH32 0x8BE0079C531659141344CD1FD0A4F28419497F9722A3DAAFE3B4186F6B6457E0 PUSH1 0x40 MLOAD PUSH1 0x40 MLOAD DUP1 SWAP2 SUB SWAP1 LOG3 POP POP JUMP JUMPDEST PUSH1 0x0 JUMPDEST PUSH1 0xC PUSH1 0x0 DUP4 DUP2 MSTORE PUSH1 0x20 ADD SWAP1 DUP2 MSTORE PUSH1 0x20 ADD PUSH1 0x0 KECCAK256 SLOAD DUP2 LT ISZERO PUSH2 0x3839 JUMPI PUSH1 0x0 PUSH1 0xB PUSH1 0x0 DUP5 DUP2 MSTORE PUSH1 0x20 ADD SWAP1 DUP2 MSTORE PUSH1 0x20 ADD PUSH1 0x0 KECCAK256 DUP3 DUP2 SLOAD DUP2 LT PUSH2 0x37C4 JUMPI PUSH2 0x37C3 PUSH2 0x546E JUMP JUMPDEST JUMPDEST SWAP1 PUSH1 0x0 MSTORE PUSH1 0x20 PUSH1 0x0 KECCAK256 ADD SLOAD SWAP1 POP DUP3 PUSH1 0x9 PUSH1 0x0 DUP4 DUP2 MSTORE PUSH1 0x20 ADD SWAP1 DUP2 MSTORE PUSH1 0x20 ADD PUSH1 0x0 KECCAK256 PUSH1 0x2 ADD SLOAD EQ DUP1 ISZERO PUSH2 0x3816 JUMPI POP PUSH1 0x9 PUSH1 0x0 DUP3 DUP2 MSTORE PUSH1 0x20 ADD SWAP1 DUP2 MSTORE PUSH1 0x20 ADD PUSH1 0x0 KECCAK256 PUSH1 0x5 ADD PUSH1 0x0 SWAP1 SLOAD SWAP1 PUSH2 0x100 EXP SWAP1 DIV PUSH1 0xFF AND JUMPDEST ISZERO PUSH2 0x3825 JUMPI PUSH2 0x3824 DUP2 PUSH2 0x35E4 JUMP JUMPDEST JUMPDEST POP DUP1 DUP1 PUSH2 0x3831 SWAP1 PUSH2 0x4B5C JUMP JUMPDEST SWAP2 POP POP PUSH2 0x3782 JUMP JUMPDEST POP POP JUMP JUMPDEST PUSH1 0x0 CALLER SWAP1 POP SWAP1 JUMP JUMPDEST PUSH1 0x0 DUP2 PUSH1 0x40 MLOAD PUSH1 0x20 ADD PUSH2 0x3858 SWAP2 SWAP1 PUSH2 0x501B JUMP JUMPDEST PUSH1 0x40 MLOAD PUSH1 0x20 DUP2 DUP4 SUB SUB DUP2 MSTORE SWAP1 PUSH1 0x40 MSTORE DUP1 MLOAD SWAP1 PUSH1 0x20 ADD KECCAK256 SWAP1 POP SWAP2 SWAP1 POP JUMP JUMPDEST PUSH1 0x0 DUP2 PUSH1 0x40 MLOAD PUSH1 0x20 ADD PUSH2 0x3888 SWAP2 SWAP1 PUSH2 0x58CE JUMP JUMPDEST PUSH1 0x40 MLOAD PUSH1 0x20 DUP2 DUP4 SUB SUB DUP2 MSTORE SWAP1 PUSH1 0x40 MSTORE DUP1 MLOAD SWAP1 PUSH1 0x20 ADD KECCAK256 SWAP1 POP SWAP2 SWAP1 POP JUMP JUMPDEST PUSH1 0x0 DUP1 PUSH1 0x0 DUP1 PUSH2 0x38B4 DUP6 PUSH2 0x3914 JUMP JUMPDEST SWAP3 POP SWAP3 POP SWAP3 POP PUSH1 0x1 DUP7 DUP3 DUP6 DUP6 PUSH1 0x40 MLOAD PUSH1 0x0 DUP2 MSTORE PUSH1 0x20 ADD PUSH1 0x40 MSTORE PUSH1 0x40 MLOAD PUSH2 0x38DD SWAP5 SWAP4 SWAP3 SWAP2 SWAP1 PUSH2 0x5910 JUMP JUMPDEST PUSH1 0x20 PUSH1 0x40 MLOAD PUSH1 0x20 DUP2 SUB SWAP1 DUP1 DUP5 SUB SWAP1 DUP6 GAS STATICCALL ISZERO DUP1 ISZERO PUSH2 0x38FF JUMPI RETURNDATASIZE PUSH1 0x0 DUP1 RETURNDATACOPY RETURNDATASIZE PUSH1 0x0 REVERT JUMPDEST POP POP POP PUSH1 0x20 PUSH1 0x40 MLOAD SUB MLOAD SWAP4 POP POP POP POP SWAP3 SWAP2 POP POP JUMP JUMPDEST PUSH1 0x0 DUP1 PUSH1 0x0 PUSH1 0x41 DUP5 MLOAD EQ PUSH2 0x395D JUMPI PUSH1 0x40 MLOAD PUSH32 0x8C379A000000000000000000000000000000000000000000000000000000000 DUP2 MSTORE PUSH1 0x4 ADD PUSH2 0x3954 SWAP1 PUSH2 0x48F1 JUMP JUMPDEST PUSH1 0x40 MLOAD DUP1 SWAP2 SUB SWAP1 REVERT JUMPDEST PUSH1 0x20 DUP5 ADD MLOAD SWAP3 POP PUSH1 0x40 DUP5 ADD MLOAD SWAP2 POP PUSH1 0x60 DUP5 ADD MLOAD PUSH1 0x0 BYTE SWAP1 POP SWAP2 SWAP4 SWAP1 SWAP3 POP JUMP JUMPDEST PUSH1 0x40 MLOAD DUP1 PUSH2 0x120 ADD PUSH1 0x40 MSTORE DUP1 PUSH1 0x0 DUP2 MSTORE PUSH1 0x20 ADD PUSH1 0x0 PUSH20 0xFFFFFFFFFFFFFFFFFFFFFFFFFFFFFFFFFFFFFFFF AND DUP2 MSTORE PUSH1 0x20 ADD PUSH1 0x60 DUP2 MSTORE PUSH1 0x20 ADD PUSH1 0x60 DUP2 MSTORE PUSH1 0x20 ADD PUSH1 0x60 DUP2 MSTORE PUSH1 0x20 ADD PUSH1 0x60 DUP2 MSTORE PUSH1 0x20 ADD PUSH1 0x0 ISZERO ISZERO DUP2 MSTORE PUSH1 0x20 ADD PUSH1 0x0 DUP2 MSTORE PUSH1 0x20 ADD PUSH1 0x0 DUP2 MSTORE POP SWAP1 JUMP JUMPDEST PUSH1 0x40 MLOAD DUP1 PUSH1 0xE0 ADD PUSH1 0x40 MSTORE DUP1 PUSH1 0x0 DUP2 MSTORE PUSH1 0x20 ADD PUSH1 0x60 DUP2 MSTORE PUSH1 0x20 ADD PUSH1 0x60 DUP2 MSTORE PUSH1 0x20 ADD PUSH1 0x0 PUSH20 0xFFFFFFFFFFFFFFFFFFFFFFFFFFFFFFFFFFFFFFFF AND DUP2 MSTORE PUSH1 0x20 ADD PUSH1 0x0 ISZERO ISZERO DUP2 MSTORE PUSH1 0x20 ADD PUSH1 0x0 DUP2 MSTORE PUSH1 0x20 ADD PUSH1 0x0 DUP2 MSTORE POP SWAP1 JUMP JUMPDEST PUSH1 0x40 MLOAD DUP1 PUSH2 0x100 ADD PUSH1 0x40 MSTORE DUP1 PUSH1 0x0 DUP2 MSTORE PUSH1 0x20 ADD PUSH1 0x0 DUP2 MSTORE PUSH1 0x20 ADD PUSH1 0x0 DUP2 MSTORE PUSH1 0x20 ADD PUSH1 0x0 PUSH20 0xFFFFFFFFFFFFFFFFFFFFFFFFFFFFFFFFFFFFFFFF AND DUP2 MSTORE PUSH1 0x20 ADD PUSH1 0x0 DUP1 NOT AND DUP2 MSTORE PUSH1 0x20 ADD PUSH1 0x0 ISZERO ISZERO DUP2 MSTORE PUSH1 0x20 ADD PUSH1 0x0 DUP2 MSTORE PUSH1 0x20 ADD PUSH1 0x0 DUP2 MSTORE POP SWAP1 JUMP JUMPDEST PUSH1 0x0 PUSH1 0x40 MLOAD SWAP1 POP SWAP1 JUMP JUMPDEST PUSH1 0x0 DUP1 REVERT JUMPDEST PUSH1 0x0 DUP1 REVERT JUMPDEST PUSH1 0x0 PUSH20 0xFFFFFFFFFFFFFFFFFFFFFFFFFFFFFFFFFFFFFFFF DUP3 AND SWAP1 POP SWAP2 SWAP1 POP JUMP JUMPDEST PUSH1 0x0 PUSH2 0x3AD4 DUP3 PUSH2 0x3AA9 JUMP JUMPDEST SWAP1 POP SWAP2 SWAP1 POP JUMP JUMPDEST PUSH2 0x3AE4 DUP2 PUSH2 0x3AC9 JUMP JUMPDEST DUP2 EQ PUSH2 0x3AEF JUMPI PUSH1 0x0 DUP1 REVERT JUMPDEST POP JUMP JUMPDEST PUSH1 0x0 DUP2 CALLDATALOAD SWAP1 POP PUSH2 0x3B01 DUP2 PUSH2 0x3ADB JUMP JUMPDEST SWAP3 SWAP2 POP POP JUMP JUMPDEST PUSH1 0x0 DUP2 SWAP1 POP SWAP2 SWAP1 POP JUMP JUMPDEST PUSH2 0x3B1A DUP2 PUSH2 0x3B07 JUMP JUMPDEST DUP2 EQ PUSH2 0x3B25 JUMPI PUSH1 0x0 DUP1 REVERT JUMPDEST POP JUMP JUMPDEST PUSH1 0x0 DUP2 CALLDATALOAD SWAP1 POP PUSH2 0x3B37 DUP2 PUSH2 0x3B11 JUMP JUMPDEST SWAP3 SWAP2 POP POP JUMP JUMPDEST PUSH1 0x0 DUP1 REVERT JUMPDEST PUSH1 0x0 DUP1 REVERT JUMPDEST PUSH1 0x0 PUSH1 0x1F NOT PUSH1 0x1F DUP4 ADD AND SWAP1 POP SWAP2 SWAP1 POP JUMP JUMPDEST PUSH32 0x4E487B7100000000000000000000000000000000000000000000000000000000 PUSH1 0x0 MSTORE PUSH1 0x41 PUSH1 0x4 MSTORE PUSH1 0x24 PUSH1 0x0 REVERT JUMPDEST PUSH2 0x3B90 DUP3 PUSH2 0x3B47 JUMP JUMPDEST DUP2 ADD DUP2 DUP2 LT PUSH8 0xFFFFFFFFFFFFFFFF DUP3 GT OR ISZERO PUSH2 0x3BAF JUMPI PUSH2 0x3BAE PUSH2 0x3B58 JUMP JUMPDEST JUMPDEST DUP1 PUSH1 0x40 MSTORE POP POP POP JUMP JUMPDEST PUSH1 0x0 PUSH2 0x3BC2 PUSH2 0x3A95 JUMP JUMPDEST SWAP1 POP PUSH2 0x3BCE DUP3 DUP3 PUSH2 0x3B87 JUMP JUMPDEST SWAP2 SWAP1 POP JUMP JUMPDEST PUSH1 0x0 PUSH8 0xFFFFFFFFFFFFFFFF DUP3 GT ISZERO PUSH2 0x3BEE JUMPI PUSH2 0x3BED PUSH2 0x3B58 JUMP JUMPDEST JUMPDEST PUSH2 0x3BF7 DUP3 PUSH2 0x3B47 JUMP JUMPDEST SWAP1 POP PUSH1 0x20 DUP2 ADD SWAP1 POP SWAP2 SWAP1 POP JUMP JUMPDEST DUP3 DUP2 DUP4 CALLDATACOPY PUSH1 0x0 DUP4 DUP4 ADD MSTORE POP POP POP JUMP JUMPDEST PUSH1 0x0 PUSH2 0x3C26 PUSH2 0x3C21 DUP5 PUSH2 0x3BD3 JUMP JUMPDEST PUSH2 0x3BB8 JUMP JUMPDEST SWAP1 POP DUP3 DUP2 MSTORE PUSH1 0x20 DUP2 ADD DUP5 DUP5 DUP5 ADD GT ISZERO PUSH2 0x3C42 JUMPI PUSH2 0x3C41 PUSH2 0x3B42 JUMP JUMPDEST JUMPDEST PUSH2 0x3C4D DUP5 DUP3 DUP6 PUSH2 0x3C04 JUMP JUMPDEST POP SWAP4 SWAP3 POP POP POP JUMP JUMPDEST PUSH1 0x0 DUP3 PUSH1 0x1F DUP4 ADD SLT PUSH2 0x3C6A JUMPI PUSH2 0x3C69 PUSH2 0x3B3D JUMP JUMPDEST JUMPDEST DUP2 CALLDATALOAD PUSH2 0x3C7A DUP5 DUP3 PUSH1 0x20 DUP7 ADD PUSH2 0x3C13 JUMP JUMPDEST SWAP2 POP POP SWAP3 SWAP2 POP POP JUMP JUMPDEST PUSH1 0x0 PUSH8 0xFFFFFFFFFFFFFFFF DUP3 GT ISZERO PUSH2 0x3C9E JUMPI PUSH2 0x3C9D PUSH2 0x3B58 JUMP JUMPDEST JUMPDEST PUSH2 0x3CA7 DUP3 PUSH2 0x3B47 JUMP JUMPDEST SWAP1 POP PUSH1 0x20 DUP2 ADD SWAP1 POP SWAP2 SWAP1 POP JUMP JUMPDEST PUSH1 0x0 PUSH2 0x3CC7 PUSH2 0x3CC2 DUP5 PUSH2 0x3C83 JUMP JUMPDEST PUSH2 0x3BB8 JUMP JUMPDEST SWAP1 POP DUP3 DUP2 MSTORE PUSH1 0x20 DUP2 ADD DUP5 DUP5 DUP5 ADD GT ISZERO PUSH2 0x3CE3 JUMPI PUSH2 0x3CE2 PUSH2 0x3B42 JUMP JUMPDEST JUMPDEST PUSH2 0x3CEE DUP5 DUP3 DUP6 PUSH2 0x3C04 JUMP JUMPDEST POP SWAP4 SWAP3 POP POP POP JUMP JUMPDEST PUSH1 0x0 DUP3 PUSH1 0x1F DUP4 ADD SLT PUSH2 0x3D0B JUMPI PUSH2 0x3D0A PUSH2 0x3B3D JUMP JUMPDEST JUMPDEST DUP2 CALLDATALOAD PUSH2 0x3D1B DUP5 DUP3 PUSH1 0x20 DUP7 ADD PUSH2 0x3CB4 JUMP JUMPDEST SWAP2 POP POP SWAP3 SWAP2 POP POP JUMP JUMPDEST PUSH1 0x0 DUP1 PUSH1 0x0 DUP1 PUSH1 0x80 DUP6 DUP8 SUB SLT ISZERO PUSH2 0x3D3E JUMPI PUSH2 0x3D3D PUSH2 0x3A9F JUMP JUMPDEST JUMPDEST PUSH1 0x0 PUSH2 0x3D4C DUP8 DUP3 DUP9 ADD PUSH2 0x3AF2 JUMP JUMPDEST SWAP5 POP POP PUSH1 0x20 PUSH2 0x3D5D DUP8 DUP3 DUP9 ADD PUSH2 0x3B28 JUMP JUMPDEST SWAP4 POP POP PUSH1 0x40 DUP6 ADD CALLDATALOAD PUSH8 0xFFFFFFFFFFFFFFFF DUP2 GT ISZERO PUSH2 0x3D7E JUMPI PUSH2 0x3D7D PUSH2 0x3AA4 JUMP JUMPDEST JUMPDEST PUSH2 0x3D8A DUP8 DUP3 DUP9 ADD PUSH2 0x3C55 JUMP JUMPDEST SWAP3 POP POP PUSH1 0x60 DUP6 ADD CALLDATALOAD PUSH8 0xFFFFFFFFFFFFFFFF DUP2 GT ISZERO PUSH2 0x3DAB JUMPI PUSH2 0x3DAA PUSH2 0x3AA4 JUMP JUMPDEST JUMPDEST PUSH2 0x3DB7 DUP8 DUP3 DUP9 ADD PUSH2 0x3CF6 JUMP JUMPDEST SWAP2 POP POP SWAP3 SWAP6 SWAP2 SWAP5 POP SWAP3 POP JUMP JUMPDEST PUSH1 0x0 DUP2 SWAP1 POP SWAP2 SWAP1 POP JUMP JUMPDEST PUSH2 0x3DD6 DUP2 PUSH2 0x3DC3 JUMP JUMPDEST DUP3 MSTORE POP POP JUMP JUMPDEST PUSH1 0x0 DUP2 MLOAD SWAP1 POP SWAP2 SWAP1 POP JUMP JUMPDEST PUSH1 0x0 DUP3 DUP3 MSTORE PUSH1 0x20 DUP3 ADD SWAP1 POP SWAP3 SWAP2 POP POP JUMP JUMPDEST PUSH1 0x0 DUP2 SWAP1 POP PUSH1 0x20 DUP3 ADD SWAP1 POP SWAP2 SWAP1 POP JUMP JUMPDEST PUSH2 0x3E11 DUP2 PUSH2 0x3B07 JUMP JUMPDEST DUP3 MSTORE POP POP JUMP JUMPDEST PUSH2 0x3E20 DUP2 PUSH2 0x3AC9 JUMP JUMPDEST DUP3 MSTORE POP POP JUMP JUMPDEST PUSH1 0x0 DUP2 MLOAD SWAP1 POP SWAP2 SWAP1 POP JUMP JUMPDEST PUSH1 0x0 DUP3 DUP3 MSTORE PUSH1 0x20 DUP3 ADD SWAP1 POP SWAP3 SWAP2 POP POP JUMP JUMPDEST PUSH1 0x0 JUMPDEST DUP4 DUP2 LT ISZERO PUSH2 0x3E60 JUMPI DUP1 DUP3 ADD MLOAD DUP2 DUP5 ADD MSTORE PUSH1 0x20 DUP2 ADD SWAP1 POP PUSH2 0x3E45 JUMP JUMPDEST PUSH1 0x0 DUP5 DUP5 ADD MSTORE POP POP POP POP JUMP JUMPDEST PUSH1 0x0 PUSH2 0x3E77 DUP3 PUSH2 0x3E26 JUMP JUMPDEST PUSH2 0x3E81 DUP2 DUP6 PUSH2 0x3E31 JUMP JUMPDEST SWAP4 POP PUSH2 0x3E91 DUP2 DUP6 PUSH1 0x20 DUP7 ADD PUSH2 0x3E42 JUMP JUMPDEST PUSH2 0x3E9A DUP2 PUSH2 0x3B47 JUMP JUMPDEST DUP5 ADD SWAP2 POP POP SWAP3 SWAP2 POP POP JUMP JUMPDEST PUSH1 0x0 DUP2 ISZERO ISZERO SWAP1 POP SWAP2 SWAP1 POP JUMP JUMPDEST PUSH2 0x3EBA DUP2 PUSH2 0x3EA5 JUMP JUMPDEST DUP3 MSTORE POP POP JUMP JUMPDEST PUSH1 0x0 PUSH2 0x120 DUP4 ADD PUSH1 0x0 DUP4 ADD MLOAD PUSH2 0x3ED9 PUSH1 0x0 DUP7 ADD DUP3 PUSH2 0x3E08 JUMP JUMPDEST POP PUSH1 0x20 DUP4 ADD MLOAD PUSH2 0x3EEC PUSH1 0x20 DUP7 ADD DUP3 PUSH2 0x3E17 JUMP JUMPDEST POP PUSH1 0x40 DUP4 ADD MLOAD DUP5 DUP3 SUB PUSH1 0x40 DUP7 ADD MSTORE PUSH2 0x3F04 DUP3 DUP3 PUSH2 0x3E6C JUMP JUMPDEST SWAP2 POP POP PUSH1 0x60 DUP4 ADD MLOAD DUP5 DUP3 SUB PUSH1 0x60 DUP7 ADD MSTORE PUSH2 0x3F1E DUP3 DUP3 PUSH2 0x3E6C JUMP JUMPDEST SWAP2 POP POP PUSH1 0x80 DUP4 ADD MLOAD DUP5 DUP3 SUB PUSH1 0x80 DUP7 ADD MSTORE PUSH2 0x3F38 DUP3 DUP3 PUSH2 0x3E6C JUMP JUMPDEST SWAP2 POP POP PUSH1 0xA0 DUP4 ADD MLOAD DUP5 DUP3 SUB PUSH1 0xA0 DUP7 ADD MSTORE PUSH2 0x3F52 DUP3 DUP3 PUSH2 0x3E6C JUMP JUMPDEST SWAP2 POP POP PUSH1 0xC0 DUP4 ADD MLOAD PUSH2 0x3F67 PUSH1 0xC0 DUP7 ADD DUP3 PUSH2 0x3EB1 JUMP JUMPDEST POP PUSH1 0xE0 DUP4 ADD MLOAD PUSH2 0x3F7A PUSH1 0xE0 DUP7 ADD DUP3 PUSH2 0x3E08 JUMP JUMPDEST POP PUSH2 0x100 DUP4 ADD MLOAD PUSH2 0x3F8F PUSH2 0x100 DUP7 ADD DUP3 PUSH2 0x3E08 JUMP JUMPDEST POP DUP1 SWAP2 POP POP SWAP3 SWAP2 POP POP JUMP JUMPDEST PUSH1 0x0 PUSH2 0x3FA6 DUP4 DUP4 PUSH2 0x3EC0 JUMP JUMPDEST SWAP1 POP SWAP3 SWAP2 POP POP JUMP JUMPDEST PUSH1 0x0 PUSH1 0x20 DUP3 ADD SWAP1 POP SWAP2 SWAP1 POP JUMP JUMPDEST PUSH1 0x0 PUSH2 0x3FC6 DUP3 PUSH2 0x3DDC JUMP JUMPDEST PUSH2 0x3FD0 DUP2 DUP6 PUSH2 0x3DE7 JUMP JUMPDEST SWAP4 POP DUP4 PUSH1 0x20 DUP3 MUL DUP6 ADD PUSH2 0x3FE2 DUP6 PUSH2 0x3DF8 JUMP JUMPDEST DUP1 PUSH1 0x0 JUMPDEST DUP6 DUP2 LT ISZERO PUSH2 0x401E JUMPI DUP5 DUP5 SUB DUP10 MSTORE DUP2 MLOAD PUSH2 0x3FFF DUP6 DUP3 PUSH2 0x3F9A JUMP JUMPDEST SWAP5 POP PUSH2 0x400A DUP4 PUSH2 0x3FAE JUMP JUMPDEST SWAP3 POP PUSH1 0x20 DUP11 ADD SWAP10 POP POP PUSH1 0x1 DUP2 ADD SWAP1 POP PUSH2 0x3FE6 JUMP JUMPDEST POP DUP3 SWAP8 POP DUP8 SWAP6 POP POP POP POP POP POP SWAP3 SWAP2 POP POP JUMP JUMPDEST PUSH1 0x0 PUSH1 0x40 DUP3 ADD SWAP1 POP PUSH2 0x4045 PUSH1 0x0 DUP4 ADD DUP6 PUSH2 0x3DCD JUMP JUMPDEST DUP2 DUP2 SUB PUSH1 0x20 DUP4 ADD MSTORE PUSH2 0x4057 DUP2 DUP5 PUSH2 0x3FBB JUMP JUMPDEST SWAP1 POP SWAP4 SWAP3 POP POP POP JUMP JUMPDEST PUSH1 0x0 DUP1 PUSH1 0x0 DUP1 PUSH1 0x80 DUP6 DUP8 SUB SLT ISZERO PUSH2 0x407A JUMPI PUSH2 0x4079 PUSH2 0x3A9F JUMP JUMPDEST JUMPDEST PUSH1 0x0 DUP6 ADD CALLDATALOAD PUSH8 0xFFFFFFFFFFFFFFFF DUP2 GT ISZERO PUSH2 0x4098 JUMPI PUSH2 0x4097 PUSH2 0x3AA4 JUMP JUMPDEST JUMPDEST PUSH2 0x40A4 DUP8 DUP3 DUP9 ADD PUSH2 0x3C55 JUMP JUMPDEST SWAP5 POP POP PUSH1 0x20 DUP6 ADD CALLDATALOAD PUSH8 0xFFFFFFFFFFFFFFFF DUP2 GT ISZERO PUSH2 0x40C5 JUMPI PUSH2 0x40C4 PUSH2 0x3AA4 JUMP JUMPDEST JUMPDEST PUSH2 0x40D1 DUP8 DUP3 DUP9 ADD PUSH2 0x3C55 JUMP JUMPDEST SWAP4 POP POP PUSH1 0x40 DUP6 ADD CALLDATALOAD PUSH8 0xFFFFFFFFFFFFFFFF DUP2 GT ISZERO PUSH2 0x40F2 JUMPI PUSH2 0x40F1 PUSH2 0x3AA4 JUMP JUMPDEST JUMPDEST PUSH2 0x40FE DUP8 DUP3 DUP9 ADD PUSH2 0x3C55 JUMP JUMPDEST SWAP3 POP POP PUSH1 0x60 DUP6 ADD CALLDATALOAD PUSH8 0xFFFFFFFFFFFFFFFF DUP2 GT ISZERO PUSH2 0x411F JUMPI PUSH2 0x411E PUSH2 0x3AA4 JUMP JUMPDEST JUMPDEST PUSH2 0x412B DUP8 DUP3 DUP9 ADD PUSH2 0x3C55 JUMP JUMPDEST SWAP2 POP POP SWAP3 SWAP6 SWAP2 SWAP5 POP SWAP3 POP JUMP JUMPDEST PUSH2 0x4140 DUP2 PUSH2 0x3DC3 JUMP JUMPDEST DUP2 EQ PUSH2 0x414B JUMPI PUSH1 0x0 DUP1 REVERT JUMPDEST POP JUMP JUMPDEST PUSH1 0x0 DUP2 CALLDATALOAD SWAP1 POP PUSH2 0x415D DUP2 PUSH2 0x4137 JUMP JUMPDEST SWAP3 SWAP2 POP POP JUMP JUMPDEST PUSH1 0x0 PUSH1 0x20 DUP3 DUP5 SUB SLT ISZERO PUSH2 0x4179 JUMPI PUSH2 0x4178 PUSH2 0x3A9F JUMP JUMPDEST JUMPDEST PUSH1 0x0 PUSH2 0x4187 DUP5 DUP3 DUP6 ADD PUSH2 0x414E JUMP JUMPDEST SWAP2 POP POP SWAP3 SWAP2 POP POP JUMP JUMPDEST PUSH1 0x0 PUSH1 0x20 DUP3 DUP5 SUB SLT ISZERO PUSH2 0x41A6 JUMPI PUSH2 0x41A5 PUSH2 0x3A9F JUMP JUMPDEST JUMPDEST PUSH1 0x0 DUP3 ADD CALLDATALOAD PUSH8 0xFFFFFFFFFFFFFFFF DUP2 GT ISZERO PUSH2 0x41C4 JUMPI PUSH2 0x41C3 PUSH2 0x3AA4 JUMP JUMPDEST JUMPDEST PUSH2 0x41D0 DUP5 DUP3 DUP6 ADD PUSH2 0x3C55 JUMP JUMPDEST SWAP2 POP POP SWAP3 SWAP2 POP POP JUMP JUMPDEST PUSH1 0x0 PUSH1 0xE0 DUP4 ADD PUSH1 0x0 DUP4 ADD MLOAD PUSH2 0x41F1 PUSH1 0x0 DUP7 ADD DUP3 PUSH2 0x3E08 JUMP JUMPDEST POP PUSH1 0x20 DUP4 ADD MLOAD DUP5 DUP3 SUB PUSH1 0x20 DUP7 ADD MSTORE PUSH2 0x4209 DUP3 DUP3 PUSH2 0x3E6C JUMP JUMPDEST SWAP2 POP POP PUSH1 0x40 DUP4 ADD MLOAD DUP5 DUP3 SUB PUSH1 0x40 DUP7 ADD MSTORE PUSH2 0x4223 DUP3 DUP3 PUSH2 0x3E6C JUMP JUMPDEST SWAP2 POP POP PUSH1 0x60 DUP4 ADD MLOAD PUSH2 0x4238 PUSH1 0x60 DUP7 ADD DUP3 PUSH2 0x3E17 JUMP JUMPDEST POP PUSH1 0x80 DUP4 ADD MLOAD PUSH2 0x424B PUSH1 0x80 DUP7 ADD DUP3 PUSH2 0x3EB1 JUMP JUMPDEST POP PUSH1 0xA0 DUP4 ADD MLOAD PUSH2 0x425E PUSH1 0xA0 DUP7 ADD DUP3 PUSH2 0x3E08 JUMP JUMPDEST POP PUSH1 0xC0 DUP4 ADD MLOAD PUSH2 0x4271 PUSH1 0xC0 DUP7 ADD DUP3 PUSH2 0x3E08 JUMP JUMPDEST POP DUP1 SWAP2 POP POP SWAP3 SWAP2 POP POP JUMP JUMPDEST PUSH1 0x0 PUSH1 0x20 DUP3 ADD SWAP1 POP DUP2 DUP2 SUB PUSH1 0x0 DUP4 ADD MSTORE PUSH2 0x4296 DUP2 DUP5 PUSH2 0x41D9 JUMP JUMPDEST SWAP1 POP SWAP3 SWAP2 POP POP JUMP JUMPDEST PUSH1 0x0 DUP1 PUSH1 0x40 DUP4 DUP6 SUB SLT ISZERO PUSH2 0x42B5 JUMPI PUSH2 0x42B4 PUSH2 0x3A9F JUMP JUMPDEST JUMPDEST PUSH1 0x0 DUP4 ADD CALLDATALOAD PUSH8 0xFFFFFFFFFFFFFFFF DUP2 GT ISZERO PUSH2 0x42D3 JUMPI PUSH2 0x42D2 PUSH2 0x3AA4 JUMP JUMPDEST JUMPDEST PUSH2 0x42DF DUP6 DUP3 DUP7 ADD PUSH2 0x3C55 JUMP JUMPDEST SWAP3 POP POP PUSH1 0x20 DUP4 ADD CALLDATALOAD PUSH8 0xFFFFFFFFFFFFFFFF DUP2 GT ISZERO PUSH2 0x4300 JUMPI PUSH2 0x42FF PUSH2 0x3AA4 JUMP JUMPDEST JUMPDEST PUSH2 0x430C DUP6 DUP3 DUP7 ADD PUSH2 0x3C55 JUMP JUMPDEST SWAP2 POP POP SWAP3 POP SWAP3 SWAP1 POP JUMP JUMPDEST PUSH1 0x0 DUP1 PUSH1 0x0 DUP1 PUSH1 0x0 PUSH1 0xA0 DUP7 DUP9 SUB SLT ISZERO PUSH2 0x4332 JUMPI PUSH2 0x4331 PUSH2 0x3A9F JUMP JUMPDEST JUMPDEST PUSH1 0x0 PUSH2 0x4340 DUP9 DUP3 DUP10 ADD PUSH2 0x3B28 JUMP JUMPDEST SWAP6 POP POP PUSH1 0x20 DUP7 ADD CALLDATALOAD PUSH8 0xFFFFFFFFFFFFFFFF DUP2 GT ISZERO PUSH2 0x4361 JUMPI PUSH2 0x4360 PUSH2 0x3AA4 JUMP JUMPDEST JUMPDEST PUSH2 0x436D DUP9 DUP3 DUP10 ADD PUSH2 0x3C55 JUMP JUMPDEST SWAP5 POP POP PUSH1 0x40 DUP7 ADD CALLDATALOAD PUSH8 0xFFFFFFFFFFFFFFFF DUP2 GT ISZERO PUSH2 0x438E JUMPI PUSH2 0x438D PUSH2 0x3AA4 JUMP JUMPDEST JUMPDEST PUSH2 0x439A DUP9 DUP3 DUP10 ADD PUSH2 0x3C55 JUMP JUMPDEST SWAP4 POP POP PUSH1 0x60 DUP7 ADD CALLDATALOAD PUSH8 0xFFFFFFFFFFFFFFFF DUP2 GT ISZERO PUSH2 0x43BB JUMPI PUSH2 0x43BA PUSH2 0x3AA4 JUMP JUMPDEST JUMPDEST PUSH2 0x43C7 DUP9 DUP3 DUP10 ADD PUSH2 0x3C55 JUMP JUMPDEST SWAP3 POP POP PUSH1 0x80 DUP7 ADD CALLDATALOAD PUSH8 0xFFFFFFFFFFFFFFFF DUP2 GT ISZERO PUSH2 0x43E8 JUMPI PUSH2 0x43E7 PUSH2 0x3AA4 JUMP JUMPDEST JUMPDEST PUSH2 0x43F4 DUP9 DUP3 DUP10 ADD PUSH2 0x3C55 JUMP JUMPDEST SWAP2 POP POP SWAP3 SWAP6 POP SWAP3 SWAP6 SWAP1 SWAP4 POP JUMP JUMPDEST PUSH1 0x0 PUSH1 0x20 DUP3 DUP5 SUB SLT ISZERO PUSH2 0x4417 JUMPI PUSH2 0x4416 PUSH2 0x3A9F JUMP JUMPDEST JUMPDEST PUSH1 0x0 PUSH2 0x4425 DUP5 DUP3 DUP6 ADD PUSH2 0x3B28 JUMP JUMPDEST SWAP2 POP POP SWAP3 SWAP2 POP POP JUMP JUMPDEST PUSH1 0x0 DUP1 PUSH1 0x40 DUP4 DUP6 SUB SLT ISZERO PUSH2 0x4445 JUMPI PUSH2 0x4444 PUSH2 0x3A9F JUMP JUMPDEST JUMPDEST PUSH1 0x0 PUSH2 0x4453 DUP6 DUP3 DUP7 ADD PUSH2 0x3B28 JUMP JUMPDEST SWAP3 POP POP PUSH1 0x20 DUP4 ADD CALLDATALOAD PUSH8 0xFFFFFFFFFFFFFFFF DUP2 GT ISZERO PUSH2 0x4474 JUMPI PUSH2 0x4473 PUSH2 0x3AA4 JUMP JUMPDEST JUMPDEST PUSH2 0x4480 DUP6 DUP3 DUP7 ADD PUSH2 0x3C55 JUMP JUMPDEST SWAP2 POP POP SWAP3 POP SWAP3 SWAP1 POP JUMP JUMPDEST PUSH1 0x0 PUSH1 0x20 DUP3 DUP5 SUB SLT ISZERO PUSH2 0x44A0 JUMPI PUSH2 0x449F PUSH2 0x3A9F JUMP JUMPDEST JUMPDEST PUSH1 0x0 PUSH2 0x44AE DUP5 DUP3 DUP6 ADD PUSH2 0x3AF2 JUMP JUMPDEST SWAP2 POP POP SWAP3 SWAP2 POP POP JUMP JUMPDEST PUSH1 0x0 PUSH1 0x20 DUP3 ADD SWAP1 POP DUP2 DUP2 SUB PUSH1 0x0 DUP4 ADD MSTORE PUSH2 0x44D1 DUP2 DUP5 PUSH2 0x3FBB JUMP JUMPDEST SWAP1 POP SWAP3 SWAP2 POP POP JUMP JUMPDEST PUSH2 0x44E2 DUP2 PUSH2 0x3AC9 JUMP JUMPDEST DUP3 MSTORE POP POP JUMP JUMPDEST PUSH1 0x0 PUSH1 0x20 DUP3 ADD SWAP1 POP PUSH2 0x44FD PUSH1 0x0 DUP4 ADD DUP5 PUSH2 0x44D9 JUMP JUMPDEST SWAP3 SWAP2 POP POP JUMP JUMPDEST PUSH1 0x0 DUP2 MLOAD SWAP1 POP SWAP2 SWAP1 POP JUMP JUMPDEST PUSH1 0x0 DUP3 DUP3 MSTORE PUSH1 0x20 DUP3 ADD SWAP1 POP SWAP3 SWAP2 POP POP JUMP JUMPDEST PUSH1 0x0 DUP2 SWAP1 POP PUSH1 0x20 DUP3 ADD SWAP1 POP SWAP2 SWAP1 POP JUMP JUMPDEST PUSH1 0x0 PUSH1 0xE0 DUP4 ADD PUSH1 0x0 DUP4 ADD MLOAD PUSH2 0x4547 PUSH1 0x0 DUP7 ADD DUP3 PUSH2 0x3E08 JUMP JUMPDEST POP PUSH1 0x20 DUP4 ADD MLOAD DUP5 DUP3 SUB PUSH1 0x20 DUP7 ADD MSTORE PUSH2 0x455F DUP3 DUP3 PUSH2 0x3E6C JUMP JUMPDEST SWAP2 POP POP PUSH1 0x40 DUP4 ADD MLOAD DUP5 DUP3 SUB PUSH1 0x40 DUP7 ADD MSTORE PUSH2 0x4579 DUP3 DUP3 PUSH2 0x3E6C JUMP JUMPDEST SWAP2 POP POP PUSH1 0x60 DUP4 ADD MLOAD PUSH2 0x458E PUSH1 0x60 DUP7 ADD DUP3 PUSH2 0x3E17 JUMP JUMPDEST POP PUSH1 0x80 DUP4 ADD MLOAD PUSH2 0x45A1 PUSH1 0x80 DUP7 ADD DUP3 PUSH2 0x3EB1 JUMP JUMPDEST POP PUSH1 0xA0 DUP4 ADD MLOAD PUSH2 0x45B4 PUSH1 0xA0 DUP7 ADD DUP3 PUSH2 0x3E08 JUMP JUMPDEST POP PUSH1 0xC0 DUP4 ADD MLOAD PUSH2 0x45C7 PUSH1 0xC0 DUP7 ADD DUP3 PUSH2 0x3E08 JUMP JUMPDEST POP DUP1 SWAP2 POP POP SWAP3 SWAP2 POP POP JUMP JUMPDEST PUSH1 0x0 PUSH2 0x45DE DUP4 DUP4 PUSH2 0x452F JUMP JUMPDEST SWAP1 POP SWAP3 SWAP2 POP POP JUMP JUMPDEST PUSH1 0x0 PUSH1 0x20 DUP3 ADD SWAP1 POP SWAP2 SWAP1 POP JUMP JUMPDEST PUSH1 0x0 PUSH2 0x45FE DUP3 PUSH2 0x4503 JUMP JUMPDEST PUSH2 0x4608 DUP2 DUP6 PUSH2 0x450E JUMP JUMPDEST SWAP4 POP DUP4 PUSH1 0x20 DUP3 MUL DUP6 ADD PUSH2 0x461A DUP6 PUSH2 0x451F JUMP JUMPDEST DUP1 PUSH1 0x0 JUMPDEST DUP6 DUP2 LT ISZERO PUSH2 0x4656 JUMPI DUP5 DUP5 SUB DUP10 MSTORE DUP2 MLOAD PUSH2 0x4637 DUP6 DUP3 PUSH2 0x45D2 JUMP JUMPDEST SWAP5 POP PUSH2 0x4642 DUP4 PUSH2 0x45E6 JUMP JUMPDEST SWAP3 POP PUSH1 0x20 DUP11 ADD SWAP10 POP POP PUSH1 0x1 DUP2 ADD SWAP1 POP PUSH2 0x461E JUMP JUMPDEST POP DUP3 SWAP8 POP DUP8 SWAP6 POP POP POP POP POP POP SWAP3 SWAP2 POP POP JUMP JUMPDEST PUSH1 0x0 PUSH1 0x20 DUP3 ADD SWAP1 POP DUP2 DUP2 SUB PUSH1 0x0 DUP4 ADD MSTORE PUSH2 0x4682 DUP2 DUP5 PUSH2 0x45F3 JUMP JUMPDEST SWAP1 POP SWAP3 SWAP2 POP POP JUMP JUMPDEST PUSH1 0x0 DUP1 PUSH1 0x40 DUP4 DUP6 SUB SLT ISZERO PUSH2 0x46A1 JUMPI PUSH2 0x46A0 PUSH2 0x3A9F JUMP JUMPDEST JUMPDEST PUSH1 0x0 PUSH2 0x46AF DUP6 DUP3 DUP7 ADD PUSH2 0x3AF2 JUMP JUMPDEST SWAP3 POP POP PUSH1 0x20 PUSH2 0x46C0 DUP6 DUP3 DUP7 ADD PUSH2 0x3B28 JUMP JUMPDEST SWAP2 POP POP SWAP3 POP SWAP3 SWAP1 POP JUMP JUMPDEST PUSH1 0x0 DUP1 PUSH1 0x0 DUP1 PUSH1 0x0 PUSH1 0xA0 DUP7 DUP9 SUB SLT ISZERO PUSH2 0x46E6 JUMPI PUSH2 0x46E5 PUSH2 0x3A9F JUMP JUMPDEST JUMPDEST PUSH1 0x0 PUSH2 0x46F4 DUP9 DUP3 DUP10 ADD PUSH2 0x3B28 JUMP JUMPDEST SWAP6 POP POP PUSH1 0x20 PUSH2 0x4705 DUP9 DUP3 DUP10 ADD PUSH2 0x3B28 JUMP JUMPDEST SWAP5 POP POP PUSH1 0x40 PUSH2 0x4716 DUP9 DUP3 DUP10 ADD PUSH2 0x3AF2 JUMP JUMPDEST SWAP4 POP POP PUSH1 0x60 DUP7 ADD CALLDATALOAD PUSH8 0xFFFFFFFFFFFFFFFF DUP2 GT ISZERO PUSH2 0x4737 JUMPI PUSH2 0x4736 PUSH2 0x3AA4 JUMP JUMPDEST JUMPDEST PUSH2 0x4743 DUP9 DUP3 DUP10 ADD PUSH2 0x3C55 JUMP JUMPDEST SWAP3 POP POP PUSH1 0x80 DUP7 ADD CALLDATALOAD PUSH8 0xFFFFFFFFFFFFFFFF DUP2 GT ISZERO PUSH2 0x4764 JUMPI PUSH2 0x4763 PUSH2 0x3AA4 JUMP JUMPDEST JUMPDEST PUSH2 0x4770 DUP9 DUP3 DUP10 ADD PUSH2 0x3CF6 JUMP JUMPDEST SWAP2 POP POP SWAP3 SWAP6 POP SWAP3 SWAP6 SWAP1 SWAP4 POP JUMP JUMPDEST PUSH1 0x0 PUSH1 0x20 DUP3 ADD SWAP1 POP PUSH2 0x4792 PUSH1 0x0 DUP4 ADD DUP5 PUSH2 0x3DCD JUMP JUMPDEST SWAP3 SWAP2 POP POP JUMP JUMPDEST PUSH1 0x0 PUSH2 0x120 DUP4 ADD PUSH1 0x0 DUP4 ADD MLOAD PUSH2 0x47B1 PUSH1 0x0 DUP7 ADD DUP3 PUSH2 0x3E08 JUMP JUMPDEST POP PUSH1 0x20 DUP4 ADD MLOAD PUSH2 0x47C4 PUSH1 0x20 DUP7 ADD DUP3 PUSH2 0x3E17 JUMP JUMPDEST POP PUSH1 0x40 DUP4 ADD MLOAD DUP5 DUP3 SUB PUSH1 0x40 DUP7 ADD MSTORE PUSH2 0x47DC DUP3 DUP3 PUSH2 0x3E6C JUMP JUMPDEST SWAP2 POP POP PUSH1 0x60 DUP4 ADD MLOAD DUP5 DUP3 SUB PUSH1 0x60 DUP7 ADD MSTORE PUSH2 0x47F6 DUP3 DUP3 PUSH2 0x3E6C JUMP JUMPDEST SWAP2 POP POP PUSH1 0x80 DUP4 ADD MLOAD DUP5 DUP3 SUB PUSH1 0x80 DUP7 ADD MSTORE PUSH2 0x4810 DUP3 DUP3 PUSH2 0x3E6C JUMP JUMPDEST SWAP2 POP POP PUSH1 0xA0 DUP4 ADD MLOAD DUP5 DUP3 SUB PUSH1 0xA0 DUP7 ADD MSTORE PUSH2 0x482A DUP3 DUP3 PUSH2 0x3E6C JUMP JUMPDEST SWAP2 POP POP PUSH1 0xC0 DUP4 ADD MLOAD PUSH2 0x483F PUSH1 0xC0 DUP7 ADD DUP3 PUSH2 0x3EB1 JUMP JUMPDEST POP PUSH1 0xE0 DUP4 ADD MLOAD PUSH2 0x4852 PUSH1 0xE0 DUP7 ADD DUP3 PUSH2 0x3E08 JUMP JUMPDEST POP PUSH2 0x100 DUP4 ADD MLOAD PUSH2 0x4867 PUSH2 0x100 DUP7 ADD DUP3 PUSH2 0x3E08 JUMP JUMPDEST POP DUP1 SWAP2 POP POP SWAP3 SWAP2 POP POP JUMP JUMPDEST PUSH1 0x0 PUSH1 0x20 DUP3 ADD SWAP1 POP DUP2 DUP2 SUB PUSH1 0x0 DUP4 ADD MSTORE PUSH2 0x488C DUP2 DUP5 PUSH2 0x4798 JUMP JUMPDEST SWAP1 POP SWAP3 SWAP2 POP POP JUMP JUMPDEST PUSH1 0x0 DUP3 DUP3 MSTORE PUSH1 0x20 DUP3 ADD SWAP1 POP SWAP3 SWAP2 POP POP JUMP JUMPDEST PUSH32 0x496E76616C6964207369676E6174757265206C656E6774680000000000000000 PUSH1 0x0 DUP3 ADD MSTORE POP JUMP JUMPDEST PUSH1 0x0 PUSH2 0x48DB PUSH1 0x18 DUP4 PUSH2 0x4894 JUMP JUMPDEST SWAP2 POP PUSH2 0x48E6 DUP3 PUSH2 0x48A5 JUMP JUMPDEST PUSH1 0x20 DUP3 ADD SWAP1 POP SWAP2 SWAP1 POP JUMP JUMPDEST PUSH1 0x0 PUSH1 0x20 DUP3 ADD SWAP1 POP DUP2 DUP2 SUB PUSH1 0x0 DUP4 ADD MSTORE PUSH2 0x490A DUP2 PUSH2 0x48CE JUMP JUMPDEST SWAP1 POP SWAP2 SWAP1 POP JUMP JUMPDEST PUSH32 0x556E61626C6520746F2076616C6964617465207369676E617475726500000000 PUSH1 0x0 DUP3 ADD MSTORE POP JUMP JUMPDEST PUSH1 0x0 PUSH2 0x4947 PUSH1 0x1C DUP4 PUSH2 0x4894 JUMP JUMPDEST SWAP2 POP PUSH2 0x4952 DUP3 PUSH2 0x4911 JUMP JUMPDEST PUSH1 0x20 DUP3 ADD SWAP1 POP SWAP2 SWAP1 POP JUMP JUMPDEST PUSH1 0x0 PUSH1 0x20 DUP3 ADD SWAP1 POP DUP2 DUP2 SUB PUSH1 0x0 DUP4 ADD MSTORE PUSH2 0x4976 DUP2 PUSH2 0x493A JUMP JUMPDEST SWAP1 POP SWAP2 SWAP1 POP JUMP JUMPDEST PUSH32 0x557365726E616D65206D757374206E6F7420626520656D707479000000000000 PUSH1 0x0 DUP3 ADD MSTORE POP JUMP JUMPDEST PUSH1 0x0 PUSH2 0x49B3 PUSH1 0x1A DUP4 PUSH2 0x4894 JUMP JUMPDEST SWAP2 POP PUSH2 0x49BE DUP3 PUSH2 0x497D JUMP JUMPDEST PUSH1 0x20 DUP3 ADD SWAP1 POP SWAP2 SWAP1 POP JUMP JUMPDEST PUSH1 0x0 PUSH1 0x20 DUP3 ADD SWAP1 POP DUP2 DUP2 SUB PUSH1 0x0 DUP4 ADD MSTORE PUSH2 0x49E2 DUP2 PUSH2 0x49A6 JUMP JUMPDEST SWAP1 POP SWAP2 SWAP1 POP JUMP JUMPDEST PUSH32 0x504650206D757374206E6F7420626520656D7074790000000000000000000000 PUSH1 0x0 DUP3 ADD MSTORE POP JUMP JUMPDEST PUSH1 0x0 PUSH2 0x4A1F PUSH1 0x15 DUP4 PUSH2 0x4894 JUMP JUMPDEST SWAP2 POP PUSH2 0x4A2A DUP3 PUSH2 0x49E9 JUMP JUMPDEST PUSH1 0x20 DUP3 ADD SWAP1 POP SWAP2 SWAP1 POP JUMP JUMPDEST PUSH1 0x0 PUSH1 0x20 DUP3 ADD SWAP1 POP DUP2 DUP2 SUB PUSH1 0x0 DUP4 ADD MSTORE PUSH2 0x4A4E DUP2 PUSH2 0x4A12 JUMP JUMPDEST SWAP1 POP SWAP2 SWAP1 POP JUMP JUMPDEST PUSH32 0x456D61696C2061646472657373206D757374206E6F7420626520656D70747900 PUSH1 0x0 DUP3 ADD MSTORE POP JUMP JUMPDEST PUSH1 0x0 PUSH2 0x4A8B PUSH1 0x1F DUP4 PUSH2 0x4894 JUMP JUMPDEST SWAP2 POP PUSH2 0x4A96 DUP3 PUSH2 0x4A55 JUMP JUMPDEST PUSH1 0x20 DUP3 ADD SWAP1 POP SWAP2 SWAP1 POP JUMP JUMPDEST PUSH1 0x0 PUSH1 0x20 DUP3 ADD SWAP1 POP DUP2 DUP2 SUB PUSH1 0x0 DUP4 ADD MSTORE PUSH2 0x4ABA DUP2 PUSH2 0x4A7E JUMP JUMPDEST SWAP1 POP SWAP2 SWAP1 POP JUMP JUMPDEST PUSH32 0x42696F206D757374206E6F7420626520656D7074790000000000000000000000 PUSH1 0x0 DUP3 ADD MSTORE POP JUMP JUMPDEST PUSH1 0x0 PUSH2 0x4AF7 PUSH1 0x15 DUP4 PUSH2 0x4894 JUMP JUMPDEST SWAP2 POP PUSH2 0x4B02 DUP3 PUSH2 0x4AC1 JUMP JUMPDEST PUSH1 0x20 DUP3 ADD SWAP1 POP SWAP2 SWAP1 POP JUMP JUMPDEST PUSH1 0x0 PUSH1 0x20 DUP3 ADD SWAP1 POP DUP2 DUP2 SUB PUSH1 0x0 DUP4 ADD MSTORE PUSH2 0x4B26 DUP2 PUSH2 0x4AEA JUMP JUMPDEST SWAP1 POP SWAP2 SWAP1 POP JUMP JUMPDEST PUSH32 0x4E487B7100000000000000000000000000000000000000000000000000000000 PUSH1 0x0 MSTORE PUSH1 0x11 PUSH1 0x4 MSTORE PUSH1 0x24 PUSH1 0x0 REVERT JUMPDEST PUSH1 0x0 PUSH2 0x4B67 DUP3 PUSH2 0x3B07 JUMP JUMPDEST SWAP2 POP PUSH32 0xFFFFFFFFFFFFFFFFFFFFFFFFFFFFFFFFFFFFFFFFFFFFFFFFFFFFFFFFFFFFFFFF DUP3 SUB PUSH2 0x4B99 JUMPI PUSH2 0x4B98 PUSH2 0x4B2D JUMP JUMPDEST JUMPDEST PUSH1 0x1 DUP3 ADD SWAP1 POP SWAP2 SWAP1 POP JUMP JUMPDEST PUSH32 0x4E487B7100000000000000000000000000000000000000000000000000000000 PUSH1 0x0 MSTORE PUSH1 0x22 PUSH1 0x4 MSTORE PUSH1 0x24 PUSH1 0x0 REVERT JUMPDEST PUSH1 0x0 PUSH1 0x2 DUP3 DIV SWAP1 POP PUSH1 0x1 DUP3 AND DUP1 PUSH2 0x4BEB JUMPI PUSH1 0x7F DUP3 AND SWAP2 POP JUMPDEST PUSH1 0x20 DUP3 LT DUP2 SUB PUSH2 0x4BFE JUMPI PUSH2 0x4BFD PUSH2 0x4BA4 JUMP JUMPDEST JUMPDEST POP SWAP2 SWAP1 POP JUMP JUMPDEST PUSH1 0x0 DUP2 SWAP1 POP DUP2 PUSH1 0x0 MSTORE PUSH1 0x20 PUSH1 0x0 KECCAK256 SWAP1 POP SWAP2 SWAP1 POP JUMP JUMPDEST PUSH1 0x0 PUSH1 0x20 PUSH1 0x1F DUP4 ADD DIV SWAP1 POP SWAP2 SWAP1 POP JUMP JUMPDEST PUSH1 0x0 DUP3 DUP3 SHL SWAP1 POP SWAP3 SWAP2 POP POP JUMP JUMPDEST PUSH1 0x0 PUSH1 0x8 DUP4 MUL PUSH2 0x4C66 PUSH32 0xFFFFFFFFFFFFFFFFFFFFFFFFFFFFFFFFFFFFFFFFFFFFFFFFFFFFFFFFFFFFFFFF DUP3 PUSH2 0x4C29 JUMP JUMPDEST PUSH2 0x4C70 DUP7 DUP4 PUSH2 0x4C29 JUMP JUMPDEST SWAP6 POP DUP1 NOT DUP5 AND SWAP4 POP DUP1 DUP7 AND DUP5 OR SWAP3 POP POP POP SWAP4 SWAP3 POP POP POP JUMP JUMPDEST PUSH1 0x0 DUP2 SWAP1 POP SWAP2 SWAP1 POP JUMP JUMPDEST PUSH1 0x0 PUSH2 0x4CAD PUSH2 0x4CA8 PUSH2 0x4CA3 DUP5 PUSH2 0x3B07 JUMP JUMPDEST PUSH2 0x4C88 JUMP JUMPDEST PUSH2 0x3B07 JUMP JUMPDEST SWAP1 POP SWAP2 SWAP1 POP JUMP JUMPDEST PUSH1 0x0 DUP2 SWAP1 POP SWAP2 SWAP1 POP JUMP JUMPDEST PUSH2 0x4CC7 DUP4 PUSH2 0x4C92 JUMP JUMPDEST PUSH2 0x4CDB PUSH2 0x4CD3 DUP3 PUSH2 0x4CB4 JUMP JUMPDEST DUP5 DUP5 SLOAD PUSH2 0x4C36 JUMP JUMPDEST DUP3 SSTORE POP POP POP POP JUMP JUMPDEST PUSH1 0x0 SWAP1 JUMP JUMPDEST PUSH2 0x4CF0 PUSH2 0x4CE3 JUMP JUMPDEST PUSH2 0x4CFB DUP2 DUP5 DUP5 PUSH2 0x4CBE JUMP JUMPDEST POP POP POP JUMP JUMPDEST JUMPDEST DUP2 DUP2 LT ISZERO PUSH2 0x4D1F JUMPI PUSH2 0x4D14 PUSH1 0x0 DUP3 PUSH2 0x4CE8 JUMP JUMPDEST PUSH1 0x1 DUP2 ADD SWAP1 POP PUSH2 0x4D01 JUMP JUMPDEST POP POP JUMP JUMPDEST PUSH1 0x1F DUP3 GT ISZERO PUSH2 0x4D64 JUMPI PUSH2 0x4D35 DUP2 PUSH2 0x4C04 JUMP JUMPDEST PUSH2 0x4D3E DUP5 PUSH2 0x4C19 JUMP JUMPDEST DUP2 ADD PUSH1 0x20 DUP6 LT ISZERO PUSH2 0x4D4D JUMPI DUP2 SWAP1 POP JUMPDEST PUSH2 0x4D61 PUSH2 0x4D59 DUP6 PUSH2 0x4C19 JUMP JUMPDEST DUP4 ADD DUP3 PUSH2 0x4D00 JUMP JUMPDEST POP POP JUMPDEST POP POP POP JUMP JUMPDEST PUSH1 0x0 DUP3 DUP3 SHR SWAP1 POP SWAP3 SWAP2 POP POP JUMP JUMPDEST PUSH1 0x0 PUSH2 0x4D87 PUSH1 0x0 NOT DUP5 PUSH1 0x8 MUL PUSH2 0x4D69 JUMP JUMPDEST NOT DUP1 DUP4 AND SWAP2 POP POP SWAP3 SWAP2 POP POP JUMP JUMPDEST PUSH1 0x0 PUSH2 0x4DA0 DUP4 DUP4 PUSH2 0x4D76 JUMP JUMPDEST SWAP2 POP DUP3 PUSH1 0x2 MUL DUP3 OR SWAP1 POP SWAP3 SWAP2 POP POP JUMP JUMPDEST PUSH2 0x4DB9 DUP3 PUSH2 0x3E26 JUMP JUMPDEST PUSH8 0xFFFFFFFFFFFFFFFF DUP2 GT ISZERO PUSH2 0x4DD2 JUMPI PUSH2 0x4DD1 PUSH2 0x3B58 JUMP JUMPDEST JUMPDEST PUSH2 0x4DDC DUP3 SLOAD PUSH2 0x4BD3 JUMP JUMPDEST PUSH2 0x4DE7 DUP3 DUP3 DUP6 PUSH2 0x4D23 JUMP JUMPDEST PUSH1 0x0 PUSH1 0x20 SWAP1 POP PUSH1 0x1F DUP4 GT PUSH1 0x1 DUP2 EQ PUSH2 0x4E1A JUMPI PUSH1 0x0 DUP5 ISZERO PUSH2 0x4E08 JUMPI DUP3 DUP8 ADD MLOAD SWAP1 POP JUMPDEST PUSH2 0x4E12 DUP6 DUP3 PUSH2 0x4D94 JUMP JUMPDEST DUP7 SSTORE POP PUSH2 0x4E7A JUMP JUMPDEST PUSH1 0x1F NOT DUP5 AND PUSH2 0x4E28 DUP7 PUSH2 0x4C04 JUMP JUMPDEST PUSH1 0x0 JUMPDEST DUP3 DUP2 LT ISZERO PUSH2 0x4E50 JUMPI DUP5 DUP10 ADD MLOAD DUP3 SSTORE PUSH1 0x1 DUP3 ADD SWAP2 POP PUSH1 0x20 DUP6 ADD SWAP5 POP PUSH1 0x20 DUP2 ADD SWAP1 POP PUSH2 0x4E2B JUMP JUMPDEST DUP7 DUP4 LT ISZERO PUSH2 0x4E6D JUMPI DUP5 DUP10 ADD MLOAD PUSH2 0x4E69 PUSH1 0x1F DUP10 AND DUP3 PUSH2 0x4D76 JUMP JUMPDEST DUP4 SSTORE POP JUMPDEST PUSH1 0x1 PUSH1 0x2 DUP9 MUL ADD DUP9 SSTORE POP POP POP JUMPDEST POP POP POP POP POP POP JUMP JUMPDEST PUSH1 0x0 PUSH2 0x4E8D DUP3 PUSH2 0x3B07 JUMP JUMPDEST SWAP2 POP PUSH2 0x4E98 DUP4 PUSH2 0x3B07 JUMP JUMPDEST SWAP3 POP DUP3 DUP3 ADD SWAP1 POP DUP1 DUP3 GT ISZERO PUSH2 0x4EB0 JUMPI PUSH2 0x4EAF PUSH2 0x4B2D JUMP JUMPDEST JUMPDEST SWAP3 SWAP2 POP POP JUMP JUMPDEST PUSH2 0x4EBF DUP2 PUSH2 0x3B07 JUMP JUMPDEST DUP3 MSTORE POP POP JUMP JUMPDEST PUSH32 0x4372656174656420436172640000000000000000000000000000000000000000 PUSH1 0x0 DUP3 ADD MSTORE POP JUMP JUMPDEST PUSH1 0x0 PUSH2 0x4EFB PUSH1 0xC DUP4 PUSH2 0x4894 JUMP JUMPDEST SWAP2 POP PUSH2 0x4F06 DUP3 PUSH2 0x4EC5 JUMP JUMPDEST PUSH1 0x20 DUP3 ADD SWAP1 POP SWAP2 SWAP1 POP JUMP JUMPDEST PUSH1 0x0 PUSH1 0x60 DUP3 ADD SWAP1 POP PUSH2 0x4F26 PUSH1 0x0 DUP4 ADD DUP6 PUSH2 0x4EB6 JUMP JUMPDEST DUP2 DUP2 SUB PUSH1 0x20 DUP4 ADD MSTORE PUSH2 0x4F37 DUP2 PUSH2 0x4EEE JUMP JUMPDEST SWAP1 POP PUSH2 0x4F46 PUSH1 0x40 DUP4 ADD DUP5 PUSH2 0x4EB6 JUMP JUMPDEST SWAP4 SWAP3 POP POP POP JUMP JUMPDEST PUSH32 0x496E76616C6964206F72204578706972656420746F6B656E2070726F76696465 PUSH1 0x0 DUP3 ADD MSTORE PUSH32 0x6400000000000000000000000000000000000000000000000000000000000000 PUSH1 0x20 DUP3 ADD MSTORE POP JUMP JUMPDEST PUSH1 0x0 PUSH2 0x4FA9 PUSH1 0x21 DUP4 PUSH2 0x4894 JUMP JUMPDEST SWAP2 POP PUSH2 0x4FB4 DUP3 PUSH2 0x4F4D JUMP JUMPDEST PUSH1 0x40 DUP3 ADD SWAP1 POP SWAP2 SWAP1 POP JUMP JUMPDEST PUSH1 0x0 PUSH1 0x20 DUP3 ADD SWAP1 POP DUP2 DUP2 SUB PUSH1 0x0 DUP4 ADD MSTORE PUSH2 0x4FD8 DUP2 PUSH2 0x4F9C JUMP JUMPDEST SWAP1 POP SWAP2 SWAP1 POP JUMP JUMPDEST PUSH1 0x0 DUP2 SWAP1 POP SWAP3 SWAP2 POP POP JUMP JUMPDEST PUSH1 0x0 PUSH2 0x4FF5 DUP3 PUSH2 0x3E26 JUMP JUMPDEST PUSH2 0x4FFF DUP2 DUP6 PUSH2 0x4FDF JUMP JUMPDEST SWAP4 POP PUSH2 0x500F DUP2 DUP6 PUSH1 0x20 DUP7 ADD PUSH2 0x3E42 JUMP JUMPDEST DUP1 DUP5 ADD SWAP2 POP POP SWAP3 SWAP2 POP POP JUMP JUMPDEST PUSH1 0x0 PUSH2 0x5027 DUP3 DUP5 PUSH2 0x4FEA JUMP JUMPDEST SWAP2 POP DUP2 SWAP1 POP SWAP3 SWAP2 POP POP JUMP JUMPDEST PUSH32 0x446F6D61696E206D757374206E6F7420626520656D7074790000000000000000 PUSH1 0x0 DUP3 ADD MSTORE POP JUMP JUMPDEST PUSH1 0x0 PUSH2 0x5068 PUSH1 0x18 DUP4 PUSH2 0x4894 JUMP JUMPDEST SWAP2 POP PUSH2 0x5073 DUP3 PUSH2 0x5032 JUMP JUMPDEST PUSH1 0x20 DUP3 ADD SWAP1 POP SWAP2 SWAP1 POP JUMP JUMPDEST PUSH1 0x0 PUSH1 0x20 DUP3 ADD SWAP1 POP DUP2 DUP2 SUB PUSH1 0x0 DUP4 ADD MSTORE PUSH2 0x5097 DUP2 PUSH2 0x505B JUMP JUMPDEST SWAP1 POP SWAP2 SWAP1 POP JUMP JUMPDEST PUSH32 0x41636365737320546F6B656E206D757374206E6F7420626520656D7074790000 PUSH1 0x0 DUP3 ADD MSTORE POP JUMP JUMPDEST PUSH1 0x0 PUSH2 0x50D4 PUSH1 0x1E DUP4 PUSH2 0x4894 JUMP JUMPDEST SWAP2 POP PUSH2 0x50DF DUP3 PUSH2 0x509E JUMP JUMPDEST PUSH1 0x20 DUP3 ADD SWAP1 POP SWAP2 SWAP1 POP JUMP JUMPDEST PUSH1 0x0 PUSH1 0x20 DUP3 ADD SWAP1 POP DUP2 DUP2 SUB PUSH1 0x0 DUP4 ADD MSTORE PUSH2 0x5103 DUP2 PUSH2 0x50C7 JUMP JUMPDEST SWAP1 POP SWAP2 SWAP1 POP JUMP JUMPDEST PUSH32 0x5265676973746572656420644170700000000000000000000000000000000000 PUSH1 0x0 DUP3 ADD MSTORE POP JUMP JUMPDEST PUSH1 0x0 PUSH2 0x5140 PUSH1 0xF DUP4 PUSH2 0x4894 JUMP JUMPDEST SWAP2 POP PUSH2 0x514B DUP3 PUSH2 0x510A JUMP JUMPDEST PUSH1 0x20 DUP3 ADD SWAP1 POP SWAP2 SWAP1 POP JUMP JUMPDEST PUSH1 0x0 PUSH1 0x60 DUP3 ADD SWAP1 POP PUSH2 0x516B PUSH1 0x0 DUP4 ADD DUP6 PUSH2 0x4EB6 JUMP JUMPDEST DUP2 DUP2 SUB PUSH1 0x20 DUP4 ADD MSTORE PUSH2 0x517C DUP2 PUSH2 0x5133 JUMP JUMPDEST SWAP1 POP PUSH2 0x518B PUSH1 0x40 DUP4 ADD DUP5 PUSH2 0x4EB6 JUMP JUMPDEST SWAP4 SWAP3 POP POP POP JUMP JUMPDEST PUSH32 0x43617264206E6F7420666F756E64000000000000000000000000000000000000 PUSH1 0x0 DUP3 ADD MSTORE POP JUMP JUMPDEST PUSH1 0x0 PUSH2 0x51C8 PUSH1 0xE DUP4 PUSH2 0x4894 JUMP JUMPDEST SWAP2 POP PUSH2 0x51D3 DUP3 PUSH2 0x5192 JUMP JUMPDEST PUSH1 0x20 DUP3 ADD SWAP1 POP SWAP2 SWAP1 POP JUMP JUMPDEST PUSH1 0x0 PUSH1 0x20 DUP3 ADD SWAP1 POP DUP2 DUP2 SUB PUSH1 0x0 DUP4 ADD MSTORE PUSH2 0x51F7 DUP2 PUSH2 0x51BB JUMP JUMPDEST SWAP1 POP SWAP2 SWAP1 POP JUMP JUMPDEST PUSH32 0x556E617574686F72697A65640000000000000000000000000000000000000000 PUSH1 0x0 DUP3 ADD MSTORE POP JUMP JUMPDEST PUSH1 0x0 PUSH2 0x5234 PUSH1 0xC DUP4 PUSH2 0x4894 JUMP JUMPDEST SWAP2 POP PUSH2 0x523F DUP3 PUSH2 0x51FE JUMP JUMPDEST PUSH1 0x20 DUP3 ADD SWAP1 POP SWAP2 SWAP1 POP JUMP JUMPDEST PUSH1 0x0 PUSH1 0x20 DUP3 ADD SWAP1 POP DUP2 DUP2 SUB PUSH1 0x0 DUP4 ADD MSTORE PUSH2 0x5263 DUP2 PUSH2 0x5227 JUMP JUMPDEST SWAP1 POP SWAP2 SWAP1 POP JUMP JUMPDEST PUSH32 0x5570646174656420436172640000000000000000000000000000000000000000 PUSH1 0x0 DUP3 ADD MSTORE POP JUMP JUMPDEST PUSH1 0x0 PUSH2 0x52A0 PUSH1 0xC DUP4 PUSH2 0x4894 JUMP JUMPDEST SWAP2 POP PUSH2 0x52AB DUP3 PUSH2 0x526A JUMP JUMPDEST PUSH1 0x20 DUP3 ADD SWAP1 POP SWAP2 SWAP1 POP JUMP JUMPDEST PUSH1 0x0 PUSH1 0x60 DUP3 ADD SWAP1 POP PUSH2 0x52CB PUSH1 0x0 DUP4 ADD DUP6 PUSH2 0x4EB6 JUMP JUMPDEST DUP2 DUP2 SUB PUSH1 0x20 DUP4 ADD MSTORE PUSH2 0x52DC DUP2 PUSH2 0x5293 JUMP JUMPDEST SWAP1 POP PUSH2 0x52EB PUSH1 0x40 DUP4 ADD DUP5 PUSH2 0x4EB6 JUMP JUMPDEST SWAP4 SWAP3 POP POP POP JUMP JUMPDEST PUSH32 0x64417070206E6F74207265676973746572656400000000000000000000000000 PUSH1 0x0 DUP3 ADD MSTORE POP JUMP JUMPDEST PUSH1 0x0 PUSH2 0x5328 PUSH1 0x13 DUP4 PUSH2 0x4894 JUMP JUMPDEST SWAP2 POP PUSH2 0x5333 DUP3 PUSH2 0x52F2 JUMP JUMPDEST PUSH1 0x20 DUP3 ADD SWAP1 POP SWAP2 SWAP1 POP JUMP JUMPDEST PUSH1 0x0 PUSH1 0x20 DUP3 ADD SWAP1 POP DUP2 DUP2 SUB PUSH1 0x0 DUP4 ADD MSTORE PUSH2 0x5357 DUP2 PUSH2 0x531B JUMP JUMPDEST SWAP1 POP SWAP2 SWAP1 POP JUMP JUMPDEST PUSH32 0x5570646174656420644170700000000000000000000000000000000000000000 PUSH1 0x0 DUP3 ADD MSTORE POP JUMP JUMPDEST PUSH1 0x0 PUSH2 0x5394 PUSH1 0xC DUP4 PUSH2 0x4894 JUMP JUMPDEST SWAP2 POP PUSH2 0x539F DUP3 PUSH2 0x535E JUMP JUMPDEST PUSH1 0x20 DUP3 ADD SWAP1 POP SWAP2 SWAP1 POP JUMP JUMPDEST PUSH1 0x0 PUSH1 0x60 DUP3 ADD SWAP1 POP PUSH2 0x53BF PUSH1 0x0 DUP4 ADD DUP6 PUSH2 0x4EB6 JUMP JUMPDEST DUP2 DUP2 SUB PUSH1 0x20 DUP4 ADD MSTORE PUSH2 0x53D0 DUP2 PUSH2 0x5387 JUMP JUMPDEST SWAP1 POP PUSH2 0x53DF PUSH1 0x40 DUP4 ADD DUP5 PUSH2 0x4EB6 JUMP JUMPDEST SWAP4 SWAP3 POP POP POP JUMP JUMPDEST PUSH32 0x44656C6574656420436172640000000000000000000000000000000000000000 PUSH1 0x0 DUP3 ADD MSTORE POP JUMP JUMPDEST PUSH1 0x0 PUSH2 0x541C PUSH1 0xC DUP4 PUSH2 0x4894 JUMP JUMPDEST SWAP2 POP PUSH2 0x5427 DUP3 PUSH2 0x53E6 JUMP JUMPDEST PUSH1 0x20 DUP3 ADD SWAP1 POP SWAP2 SWAP1 POP JUMP JUMPDEST PUSH1 0x0 PUSH1 0x60 DUP3 ADD SWAP1 POP PUSH2 0x5447 PUSH1 0x0 DUP4 ADD DUP6 PUSH2 0x4EB6 JUMP JUMPDEST DUP2 DUP2 SUB PUSH1 0x20 DUP4 ADD MSTORE PUSH2 0x5458 DUP2 PUSH2 0x540F JUMP JUMPDEST SWAP1 POP PUSH2 0x5467 PUSH1 0x40 DUP4 ADD DUP5 PUSH2 0x4EB6 JUMP JUMPDEST SWAP4 SWAP3 POP POP POP JUMP JUMPDEST PUSH32 0x4E487B7100000000000000000000000000000000000000000000000000000000 PUSH1 0x0 MSTORE PUSH1 0x32 PUSH1 0x4 MSTORE PUSH1 0x24 PUSH1 0x0 REVERT JUMPDEST PUSH32 0x4361726420646F6573206E6F7420657869737400000000000000000000000000 PUSH1 0x0 DUP3 ADD MSTORE POP JUMP JUMPDEST PUSH1 0x0 PUSH2 0x54D3 PUSH1 0x13 DUP4 PUSH2 0x4894 JUMP JUMPDEST SWAP2 POP PUSH2 0x54DE DUP3 PUSH2 0x549D JUMP JUMPDEST PUSH1 0x20 DUP3 ADD SWAP1 POP SWAP2 SWAP1 POP JUMP JUMPDEST PUSH1 0x0 PUSH1 0x20 DUP3 ADD SWAP1 POP DUP2 DUP2 SUB PUSH1 0x0 DUP4 ADD MSTORE PUSH2 0x5502 DUP2 PUSH2 0x54C6 JUMP JUMPDEST SWAP1 POP SWAP2 SWAP1 POP JUMP JUMPDEST PUSH32 0x4163636573732064656E69656400000000000000000000000000000000000000 PUSH1 0x0 DUP3 ADD MSTORE POP JUMP JUMPDEST PUSH1 0x0 PUSH2 0x553F PUSH1 0xD DUP4 PUSH2 0x4894 JUMP JUMPDEST SWAP2 POP PUSH2 0x554A DUP3 PUSH2 0x5509 JUMP JUMPDEST PUSH1 0x20 DUP3 ADD SWAP1 POP SWAP2 SWAP1 POP JUMP JUMPDEST PUSH1 0x0 PUSH1 0x20 DUP3 ADD SWAP1 POP DUP2 DUP2 SUB PUSH1 0x0 DUP4 ADD MSTORE PUSH2 0x556E DUP2 PUSH2 0x5532 JUMP JUMPDEST SWAP1 POP SWAP2 SWAP1 POP JUMP JUMPDEST PUSH1 0x0 DUP2 SWAP1 POP SWAP2 SWAP1 POP JUMP JUMPDEST PUSH2 0x5590 PUSH2 0x558B DUP3 PUSH2 0x3B07 JUMP JUMPDEST PUSH2 0x5575 JUMP JUMPDEST DUP3 MSTORE POP POP JUMP JUMPDEST PUSH1 0x0 DUP2 PUSH1 0x60 SHL SWAP1 POP SWAP2 SWAP1 POP JUMP JUMPDEST PUSH1 0x0 PUSH2 0x55AE DUP3 PUSH2 0x5596 JUMP JUMPDEST SWAP1 POP SWAP2 SWAP1 POP JUMP JUMPDEST PUSH1 0x0 PUSH2 0x55C0 DUP3 PUSH2 0x55A3 JUMP JUMPDEST SWAP1 POP SWAP2 SWAP1 POP JUMP JUMPDEST PUSH2 0x55D8 PUSH2 0x55D3 DUP3 PUSH2 0x3AC9 JUMP JUMPDEST PUSH2 0x55B5 JUMP JUMPDEST DUP3 MSTORE POP POP JUMP JUMPDEST PUSH1 0x0 PUSH2 0x55EA DUP3 DUP7 PUSH2 0x557F JUMP JUMPDEST PUSH1 0x20 DUP3 ADD SWAP2 POP PUSH2 0x55FA DUP3 DUP6 PUSH2 0x55C7 JUMP JUMPDEST PUSH1 0x14 DUP3 ADD SWAP2 POP PUSH2 0x560A DUP3 DUP5 PUSH2 0x557F JUMP JUMPDEST PUSH1 0x20 DUP3 ADD SWAP2 POP DUP2 SWAP1 POP SWAP5 SWAP4 POP POP POP POP JUMP JUMPDEST PUSH32 0x437265617465642053657373696F6E20546F6B656E0000000000000000000000 PUSH1 0x0 DUP3 ADD MSTORE POP JUMP JUMPDEST PUSH1 0x0 PUSH2 0x5651 PUSH1 0x15 DUP4 PUSH2 0x4894 JUMP JUMPDEST SWAP2 POP PUSH2 0x565C DUP3 PUSH2 0x561B JUMP JUMPDEST PUSH1 0x20 DUP3 ADD SWAP1 POP SWAP2 SWAP1 POP JUMP JUMPDEST PUSH1 0x0 PUSH1 0x60 DUP3 ADD SWAP1 POP PUSH2 0x567C PUSH1 0x0 DUP4 ADD DUP6 PUSH2 0x4EB6 JUMP JUMPDEST DUP2 DUP2 SUB PUSH1 0x20 DUP4 ADD MSTORE PUSH2 0x568D DUP2 PUSH2 0x5644 JUMP JUMPDEST SWAP1 POP PUSH2 0x569C PUSH1 0x40 DUP4 ADD DUP5 PUSH2 0x4EB6 JUMP JUMPDEST SWAP4 SWAP3 POP POP POP JUMP JUMPDEST PUSH32 0x44656C6574656420644170700000000000000000000000000000000000000000 PUSH1 0x0 DUP3 ADD MSTORE POP JUMP JUMPDEST PUSH1 0x0 PUSH2 0x56D9 PUSH1 0xC DUP4 PUSH2 0x4894 JUMP JUMPDEST SWAP2 POP PUSH2 0x56E4 DUP3 PUSH2 0x56A3 JUMP JUMPDEST PUSH1 0x20 DUP3 ADD SWAP1 POP SWAP2 SWAP1 POP JUMP JUMPDEST PUSH1 0x0 PUSH1 0x60 DUP3 ADD SWAP1 POP PUSH2 0x5704 PUSH1 0x0 DUP4 ADD DUP6 PUSH2 0x4EB6 JUMP JUMPDEST DUP2 DUP2 SUB PUSH1 0x20 DUP4 ADD MSTORE PUSH2 0x5715 DUP2 PUSH2 0x56CC JUMP JUMPDEST SWAP1 POP PUSH2 0x5724 PUSH1 0x40 DUP4 ADD DUP5 PUSH2 0x4EB6 JUMP JUMPDEST SWAP4 SWAP3 POP POP POP JUMP JUMPDEST PUSH32 0x43617264206E6F7420666F756E64210000000000000000000000000000000000 PUSH1 0x0 DUP3 ADD MSTORE POP JUMP JUMPDEST PUSH1 0x0 PUSH2 0x5761 PUSH1 0xF DUP4 PUSH2 0x4894 JUMP JUMPDEST SWAP2 POP PUSH2 0x576C DUP3 PUSH2 0x572B JUMP JUMPDEST PUSH1 0x20 DUP3 ADD SWAP1 POP SWAP2 SWAP1 POP JUMP JUMPDEST PUSH1 0x0 PUSH1 0x20 DUP3 ADD SWAP1 POP DUP2 DUP2 SUB PUSH1 0x0 DUP4 ADD MSTORE PUSH2 0x5790 DUP2 PUSH2 0x5754 JUMP JUMPDEST SWAP1 POP SWAP2 SWAP1 POP JUMP JUMPDEST PUSH1 0x0 PUSH2 0x57A2 DUP3 PUSH2 0x3B07 JUMP JUMPDEST SWAP2 POP PUSH2 0x57AD DUP4 PUSH2 0x3B07 JUMP JUMPDEST SWAP3 POP DUP3 DUP3 MUL PUSH2 0x57BB DUP2 PUSH2 0x3B07 JUMP JUMPDEST SWAP2 POP DUP3 DUP3 DIV DUP5 EQ DUP4 ISZERO OR PUSH2 0x57D2 JUMPI PUSH2 0x57D1 PUSH2 0x4B2D JUMP JUMPDEST JUMPDEST POP SWAP3 SWAP2 POP POP JUMP JUMPDEST PUSH32 0x44656163746976617465642053657373696F6E20546F6B656E00000000000000 PUSH1 0x0 DUP3 ADD MSTORE POP JUMP JUMPDEST PUSH1 0x0 PUSH2 0x580F PUSH1 0x19 DUP4 PUSH2 0x4894 JUMP JUMPDEST SWAP2 POP PUSH2 0x581A DUP3 PUSH2 0x57D9 JUMP JUMPDEST PUSH1 0x20 DUP3 ADD SWAP1 POP SWAP2 SWAP1 POP JUMP JUMPDEST PUSH1 0x0 PUSH1 0x60 DUP3 ADD SWAP1 POP PUSH2 0x583A PUSH1 0x0 DUP4 ADD DUP6 PUSH2 0x4EB6 JUMP JUMPDEST DUP2 DUP2 SUB PUSH1 0x20 DUP4 ADD MSTORE PUSH2 0x584B DUP2 PUSH2 0x5802 JUMP JUMPDEST SWAP1 POP PUSH2 0x585A PUSH1 0x40 DUP4 ADD DUP5 PUSH2 0x4EB6 JUMP JUMPDEST SWAP4 SWAP3 POP POP POP JUMP JUMPDEST PUSH32 0x19457468657265756D205369676E6564204D6573736167653A0A333200000000 PUSH1 0x0 DUP3 ADD MSTORE POP JUMP JUMPDEST PUSH1 0x0 PUSH2 0x5897 PUSH1 0x1C DUP4 PUSH2 0x4FDF JUMP JUMPDEST SWAP2 POP PUSH2 0x58A2 DUP3 PUSH2 0x5861 JUMP JUMPDEST PUSH1 0x1C DUP3 ADD SWAP1 POP SWAP2 SWAP1 POP JUMP JUMPDEST PUSH1 0x0 DUP2 SWAP1 POP SWAP2 SWAP1 POP JUMP JUMPDEST PUSH2 0x58C8 PUSH2 0x58C3 DUP3 PUSH2 0x3DC3 JUMP JUMPDEST PUSH2 0x58AD JUMP JUMPDEST DUP3 MSTORE POP POP JUMP JUMPDEST PUSH1 0x0 PUSH2 0x58D9 DUP3 PUSH2 0x588A JUMP JUMPDEST SWAP2 POP PUSH2 0x58E5 DUP3 DUP5 PUSH2 0x58B7 JUMP JUMPDEST PUSH1 0x20 DUP3 ADD SWAP2 POP DUP2 SWAP1 POP SWAP3 SWAP2 POP POP JUMP JUMPDEST PUSH1 0x0 PUSH1 0xFF DUP3 AND SWAP1 POP SWAP2 SWAP1 POP JUMP JUMPDEST PUSH2 0x590A DUP2 PUSH2 0x58F4 JUMP JUMPDEST DUP3 MSTORE POP POP JUMP JUMPDEST PUSH1 0x0 PUSH1 0x80 DUP3 ADD SWAP1 POP PUSH2 0x5925 PUSH1 0x0 DUP4 ADD DUP8 PUSH2 0x3DCD JUMP JUMPDEST PUSH2 0x5932 PUSH1 0x20 DUP4 ADD DUP7 PUSH2 0x5901 JUMP JUMPDEST PUSH2 0x593F PUSH1 0x40 DUP4 ADD DUP6 PUSH2 0x3DCD JUMP JUMPDEST PUSH2 0x594C PUSH1 0x60 DUP4 ADD DUP5 PUSH2 0x3DCD JUMP JUMPDEST SWAP6 SWAP5 POP POP POP POP POP JUMP INVALID LOG2 PUSH5 0x6970667358 0x22 SLT KECCAK256 0xEC 0xA9 RETURNDATASIZE 0xC DUP8 SHR DUP14 0xE3 0xBF 0xCC DUP16 TIMESTAMP RETURN RETURNDATACOPY SWAP2 0xAC CREATE 0xC9 0xE5 0xAD ADDMOD CHAINID JUMPDEST 0x29 PUSH14 0x5DF684F0B6951264736F6C634300 ADDMOD EQ STOP CALLER "},"methodIdentifiers":{"createCard(string,string,string,string)":"0c2ad3f9","createSession(uint256,uint256,address,string,bytes)":"dd55c1b0","deactivateSessionFromToken(bytes32)":"1d12aa9b","deleteCard(uint256)":"5e1acf65","deleteDapp(uint256)":"e247dea8","fetchUserInfo(bytes32)":"f7c91c03","getDapp(uint256)":"53d85919","getDappFromToken(string)":"3901a908","getDapps(address)":"a3104eb5","getDappsConnectedToCard(address,uint256)":"c392b0df","getUserCard(uint256)":"e10b79fa","getUserCards(address)":"88d9f40d","modifyDapp(uint256,string)":"555f7817","owner()":"8da5cb5b","registerDapp(string,string)":"46d8066e","renounceOwnership()":"715018a6","transferOwnership(address)":"f2fde38b","triggerLogin(address,uint256,string,bytes)":"06bdd454","updateCard(uint256,string,string,string,string)":"48bf10c9"}}}}}