{
  "_format": "hh-sol-artifact-1",
  "contractName": "Utils",
  "sourceName": "contracts/extra/Utils.sol",
  "abi": [
    {
      "inputs": [
        {
          "internalType": "string",
          "name": "salt",
          "type": "string"
        }
      ],
      "name": "generateHash",
      "outputs": [
        {
          "internalType": "bytes32",
          "name": "",
          "type": "bytes32"
        }
      ],
      "stateMutability": "view",
      "type": "function"
    }
  ],
  "bytecode": "0x6104b1610053600b82828239805160001a607314610046577f4e487b7100000000000000000000000000000000000000000000000000000000600052600060045260246000fd5b30600052607381538281f3fe73000000000000000000000000000000000000000030146080604052600436106100355760003560e01c8063b063152a1461003a575b600080fd5b610054600480360381019061004f9190610209565b61006a565b604051610061919061026b565b60405180910390f35b600060014361007991906102bf565b40425a4185604051602001610092959493929190610420565b604051602081830303815290604052805190602001209050919050565b6000604051905090565b600080fd5b600080fd5b600080fd5b600080fd5b6000601f19601f8301169050919050565b7f4e487b7100000000000000000000000000000000000000000000000000000000600052604160045260246000fd5b610116826100cd565b810181811067ffffffffffffffff82111715610135576101346100de565b5b80604052505050565b60006101486100af565b9050610154828261010d565b919050565b600067ffffffffffffffff821115610174576101736100de565b5b61017d826100cd565b9050602081019050919050565b82818337600083830152505050565b60006101ac6101a784610159565b61013e565b9050828152602081018484840111156101c8576101c76100c8565b5b6101d384828561018a565b509392505050565b600082601f8301126101f0576101ef6100c3565b5b8135610200848260208601610199565b91505092915050565b60006020828403121561021f5761021e6100b9565b5b600082013567ffffffffffffffff81111561023d5761023c6100be565b5b610249848285016101db565b91505092915050565b6000819050919050565b61026581610252565b82525050565b6000602082019050610280600083018461025c565b92915050565b6000819050919050565b7f4e487b7100000000000000000000000000000000000000000000000000000000600052601160045260246000fd5b60006102ca82610286565b91506102d583610286565b92508282039050818111156102ed576102ec610290565b5b92915050565b6000819050919050565b61030e61030982610252565b6102f3565b82525050565b6000819050919050565b61032f61032a82610286565b610314565b82525050565b600073ffffffffffffffffffffffffffffffffffffffff82169050919050565b600061036082610335565b9050919050565b60008160601b9050919050565b600061037f82610367565b9050919050565b600061039182610374565b9050919050565b6103a96103a482610355565b610386565b82525050565b600081519050919050565b600081905092915050565b60005b838110156103e35780820151818401526020810190506103c8565b60008484015250505050565b60006103fa826103af565b61040481856103ba565b93506104148185602086016103c5565b80840191505092915050565b600061042c82886102fd565b60208201915061043c828761031e565b60208201915061044c828661031e565b60208201915061045c8285610398565b60148201915061046c82846103ef565b9150819050969550505050505056fea2646970667358221220866dd6967d31ad1ae0e14d66cb909956738722a8ea93c85a76218fbb488c07a864736f6c63430008140033",
  "linkReferences": {},
  "deployedLinkReferences": {}
}