{
  "_format": "hh-sol-artifact-1",
  "contractName": "OAuth",
  "sourceName": "contracts/OAuth.sol",
  "abi": [
    {
      "inputs": [],
      "stateMutability": "nonpayable",
      "type": "constructor"
    },
    {
      "inputs": [
        {
          "internalType": "address",
          "name": "owner",
          "type": "address"
        }
      ],
      "name": "OwnableInvalidOwner",
      "type": "error"
    },
    {
      "inputs": [
        {
          "internalType": "address",
          "name": "account",
          "type": "address"
        }
      ],
      "name": "OwnableUnauthorizedAccount",
      "type": "error"
    },
    {
      "anonymous": false,
      "inputs": [
        {
          "indexed": false,
          "internalType": "uint256",
          "name": "id",
          "type": "uint256"
        },
        {
          "indexed": false,
          "internalType": "string",
          "name": "actionType",
          "type": "string"
        },
        {
          "indexed": true,
          "internalType": "address",
          "name": "executor",
          "type": "address"
        },
        {
          "indexed": false,
          "internalType": "uint256",
          "name": "timestamp",
          "type": "uint256"
        }
      ],
      "name": "CardAction",
      "type": "event"
    },
    {
      "anonymous": false,
      "inputs": [
        {
          "indexed": true,
          "internalType": "address",
          "name": "previousOwner",
          "type": "address"
        },
        {
          "indexed": true,
          "internalType": "address",
          "name": "newOwner",
          "type": "address"
        }
      ],
      "name": "OwnershipTransferred",
      "type": "event"
    },
    {
      "anonymous": false,
      "inputs": [
        {
          "indexed": false,
          "internalType": "uint256",
          "name": "id",
          "type": "uint256"
        },
        {
          "indexed": false,
          "internalType": "string",
          "name": "actionType",
          "type": "string"
        },
        {
          "indexed": true,
          "internalType": "address",
          "name": "executor",
          "type": "address"
        },
        {
          "indexed": false,
          "internalType": "uint256",
          "name": "timestamp",
          "type": "uint256"
        }
      ],
      "name": "ProviderAction",
      "type": "event"
    },
    {
      "anonymous": false,
      "inputs": [
        {
          "indexed": false,
          "internalType": "uint256",
          "name": "id",
          "type": "uint256"
        },
        {
          "indexed": false,
          "internalType": "string",
          "name": "actionType",
          "type": "string"
        },
        {
          "indexed": true,
          "internalType": "address",
          "name": "executor",
          "type": "address"
        },
        {
          "indexed": false,
          "internalType": "uint256",
          "name": "timestamp",
          "type": "uint256"
        }
      ],
      "name": "SessionTokenAction",
      "type": "event"
    },
    {
      "inputs": [
        {
          "internalType": "string",
          "name": "_username",
          "type": "string"
        },
        {
          "internalType": "string",
          "name": "_pfp",
          "type": "string"
        },
        {
          "internalType": "string",
          "name": "_emailAddress",
          "type": "string"
        },
        {
          "internalType": "string",
          "name": "_bio",
          "type": "string"
        }
      ],
      "name": "createCard",
      "outputs": [],
      "stateMutability": "nonpayable",
      "type": "function"
    },
    {
      "inputs": [
        {
          "internalType": "uint256",
          "name": "_cardId",
          "type": "uint256"
        },
        {
          "internalType": "uint256",
          "name": "_dappId",
          "type": "uint256"
        },
        {
          "internalType": "address",
          "name": "_user",
          "type": "address"
        },
        {
          "internalType": "string",
          "name": "_message",
          "type": "string"
        },
        {
          "internalType": "bytes",
          "name": "_signature",
          "type": "bytes"
        }
      ],
      "name": "createSession",
      "outputs": [
        {
          "internalType": "bytes32",
          "name": "",
          "type": "bytes32"
        }
      ],
      "stateMutability": "nonpayable",
      "type": "function"
    },
    {
      "inputs": [
        {
          "internalType": "bytes32",
          "name": "_token",
          "type": "bytes32"
        }
      ],
      "name": "deactivateSessionFromToken",
      "outputs": [],
      "stateMutability": "nonpayable",
      "type": "function"
    },
    {
      "inputs": [
        {
          "internalType": "uint256",
          "name": "_id",
          "type": "uint256"
        }
      ],
      "name": "deleteCard",
      "outputs": [],
      "stateMutability": "nonpayable",
      "type": "function"
    },
    {
      "inputs": [
        {
          "internalType": "uint256",
          "name": "_id",
          "type": "uint256"
        }
      ],
      "name": "deleteDapp",
      "outputs": [],
      "stateMutability": "nonpayable",
      "type": "function"
    },
    {
      "inputs": [
        {
          "internalType": "bytes32",
          "name": "_token",
          "type": "bytes32"
        }
      ],
      "name": "fetchUserInfo",
      "outputs": [
        {
          "components": [
            {
              "internalType": "uint256",
              "name": "id",
              "type": "uint256"
            },
            {
              "internalType": "address",
              "name": "owner",
              "type": "address"
            },
            {
              "internalType": "string",
              "name": "username",
              "type": "string"
            },
            {
              "internalType": "string",
              "name": "pfp",
              "type": "string"
            },
            {
              "internalType": "string",
              "name": "emailAddress",
              "type": "string"
            },
            {
              "internalType": "string",
              "name": "bio",
              "type": "string"
            },
            {
              "internalType": "bool",
              "name": "isDeleted",
              "type": "bool"
            },
            {
              "internalType": "uint256",
              "name": "createdAt",
              "type": "uint256"
            },
            {
              "internalType": "uint256",
              "name": "updatedAt",
              "type": "uint256"
            }
          ],
          "internalType": "struct OAuth.CardStruct",
          "name": "Card",
          "type": "tuple"
        }
      ],
      "stateMutability": "view",
      "type": "function"
    },
    {
      "inputs": [
        {
          "internalType": "uint256",
          "name": "_dappId",
          "type": "uint256"
        }
      ],
      "name": "getDapp",
      "outputs": [
        {
          "components": [
            {
              "internalType": "uint256",
              "name": "id",
              "type": "uint256"
            },
            {
              "internalType": "string",
              "name": "domain",
              "type": "string"
            },
            {
              "internalType": "string",
              "name": "accessToken",
              "type": "string"
            },
            {
              "internalType": "address",
              "name": "owner",
              "type": "address"
            },
            {
              "internalType": "bool",
              "name": "isDeleted",
              "type": "bool"
            },
            {
              "internalType": "uint256",
              "name": "createdAt",
              "type": "uint256"
            },
            {
              "internalType": "uint256",
              "name": "updatedAt",
              "type": "uint256"
            }
          ],
          "internalType": "struct OAuth.ProviderDappStruct",
          "name": "dApp",
          "type": "tuple"
        }
      ],
      "stateMutability": "view",
      "type": "function"
    },
    {
      "inputs": [
        {
          "internalType": "string",
          "name": "_token",
          "type": "string"
        }
      ],
      "name": "getDappFromToken",
      "outputs": [
        {
          "components": [
            {
              "internalType": "uint256",
              "name": "id",
              "type": "uint256"
            },
            {
              "internalType": "string",
              "name": "domain",
              "type": "string"
            },
            {
              "internalType": "string",
              "name": "accessToken",
              "type": "string"
            },
            {
              "internalType": "address",
              "name": "owner",
              "type": "address"
            },
            {
              "internalType": "bool",
              "name": "isDeleted",
              "type": "bool"
            },
            {
              "internalType": "uint256",
              "name": "createdAt",
              "type": "uint256"
            },
            {
              "internalType": "uint256",
              "name": "updatedAt",
              "type": "uint256"
            }
          ],
          "internalType": "struct OAuth.ProviderDappStruct",
          "name": "dApp",
          "type": "tuple"
        }
      ],
      "stateMutability": "view",
      "type": "function"
    },
    {
      "inputs": [
        {
          "internalType": "address",
          "name": "_user",
          "type": "address"
        }
      ],
      "name": "getDapps",
      "outputs": [
        {
          "components": [
            {
              "internalType": "uint256",
              "name": "id",
              "type": "uint256"
            },
            {
              "internalType": "string",
              "name": "domain",
              "type": "string"
            },
            {
              "internalType": "string",
              "name": "accessToken",
              "type": "string"
            },
            {
              "internalType": "address",
              "name": "owner",
              "type": "address"
            },
            {
              "internalType": "bool",
              "name": "isDeleted",
              "type": "bool"
            },
            {
              "internalType": "uint256",
              "name": "createdAt",
              "type": "uint256"
            },
            {
              "internalType": "uint256",
              "name": "updatedAt",
              "type": "uint256"
            }
          ],
          "internalType": "struct OAuth.ProviderDappStruct[]",
          "name": "dApps",
          "type": "tuple[]"
        }
      ],
      "stateMutability": "view",
      "type": "function"
    },
    {
      "inputs": [
        {
          "internalType": "address",
          "name": "_user",
          "type": "address"
        },
        {
          "internalType": "uint256",
          "name": "_cardId",
          "type": "uint256"
        }
      ],
      "name": "getDappsConnectedToCard",
      "outputs": [
        {
          "components": [
            {
              "internalType": "uint256",
              "name": "id",
              "type": "uint256"
            },
            {
              "internalType": "string",
              "name": "domain",
              "type": "string"
            },
            {
              "internalType": "string",
              "name": "accessToken",
              "type": "string"
            },
            {
              "internalType": "address",
              "name": "owner",
              "type": "address"
            },
            {
              "internalType": "bool",
              "name": "isDeleted",
              "type": "bool"
            },
            {
              "internalType": "uint256",
              "name": "createdAt",
              "type": "uint256"
            },
            {
              "internalType": "uint256",
              "name": "updatedAt",
              "type": "uint256"
            }
          ],
          "internalType": "struct OAuth.ProviderDappStruct[]",
          "name": "dApps",
          "type": "tuple[]"
        }
      ],
      "stateMutability": "view",
      "type": "function"
    },
    {
      "inputs": [
        {
          "internalType": "uint256",
          "name": "_cardId",
          "type": "uint256"
        }
      ],
      "name": "getUserCard",
      "outputs": [
        {
          "components": [
            {
              "internalType": "uint256",
              "name": "id",
              "type": "uint256"
            },
            {
              "internalType": "address",
              "name": "owner",
              "type": "address"
            },
            {
              "internalType": "string",
              "name": "username",
              "type": "string"
            },
            {
              "internalType": "string",
              "name": "pfp",
              "type": "string"
            },
            {
              "internalType": "string",
              "name": "emailAddress",
              "type": "string"
            },
            {
              "internalType": "string",
              "name": "bio",
              "type": "string"
            },
            {
              "internalType": "bool",
              "name": "isDeleted",
              "type": "bool"
            },
            {
              "internalType": "uint256",
              "name": "createdAt",
              "type": "uint256"
            },
            {
              "internalType": "uint256",
              "name": "updatedAt",
              "type": "uint256"
            }
          ],
          "internalType": "struct OAuth.CardStruct",
          "name": "Card",
          "type": "tuple"
        }
      ],
      "stateMutability": "view",
      "type": "function"
    },
    {
      "inputs": [
        {
          "internalType": "address",
          "name": "_user",
          "type": "address"
        }
      ],
      "name": "getUserCards",
      "outputs": [
        {
          "components": [
            {
              "internalType": "uint256",
              "name": "id",
              "type": "uint256"
            },
            {
              "internalType": "address",
              "name": "owner",
              "type": "address"
            },
            {
              "internalType": "string",
              "name": "username",
              "type": "string"
            },
            {
              "internalType": "string",
              "name": "pfp",
              "type": "string"
            },
            {
              "internalType": "string",
              "name": "emailAddress",
              "type": "string"
            },
            {
              "internalType": "string",
              "name": "bio",
              "type": "string"
            },
            {
              "internalType": "bool",
              "name": "isDeleted",
              "type": "bool"
            },
            {
              "internalType": "uint256",
              "name": "createdAt",
              "type": "uint256"
            },
            {
              "internalType": "uint256",
              "name": "updatedAt",
              "type": "uint256"
            }
          ],
          "internalType": "struct OAuth.CardStruct[]",
          "name": "Cards",
          "type": "tuple[]"
        }
      ],
      "stateMutability": "view",
      "type": "function"
    },
    {
      "inputs": [
        {
          "internalType": "uint256",
          "name": "_id",
          "type": "uint256"
        },
        {
          "internalType": "string",
          "name": "_domain",
          "type": "string"
        }
      ],
      "name": "modifyDapp",
      "outputs": [],
      "stateMutability": "nonpayable",
      "type": "function"
    },
    {
      "inputs": [],
      "name": "owner",
      "outputs": [
        {
          "internalType": "address",
          "name": "",
          "type": "address"
        }
      ],
      "stateMutability": "view",
      "type": "function"
    },
    {
      "inputs": [
        {
          "internalType": "string",
          "name": "_domain",
          "type": "string"
        },
        {
          "internalType": "string",
          "name": "_accessToken",
          "type": "string"
        }
      ],
      "name": "registerDapp",
      "outputs": [],
      "stateMutability": "nonpayable",
      "type": "function"
    },
    {
      "inputs": [],
      "name": "renounceOwnership",
      "outputs": [],
      "stateMutability": "nonpayable",
      "type": "function"
    },
    {
      "inputs": [
        {
          "internalType": "address",
          "name": "newOwner",
          "type": "address"
        }
      ],
      "name": "transferOwnership",
      "outputs": [],
      "stateMutability": "nonpayable",
      "type": "function"
    },
    {
      "inputs": [
        {
          "internalType": "address",
          "name": "_user",
          "type": "address"
        },
        {
          "internalType": "uint256",
          "name": "_dappId",
          "type": "uint256"
        },
        {
          "internalType": "string",
          "name": "_message",
          "type": "string"
        },
        {
          "internalType": "bytes",
          "name": "_signature",
          "type": "bytes"
        }
      ],
      "name": "triggerLogin",
      "outputs": [
        {
          "internalType": "bytes32",
          "name": "",
          "type": "bytes32"
        },
        {
          "components": [
            {
              "internalType": "uint256",
              "name": "id",
              "type": "uint256"
            },
            {
              "internalType": "address",
              "name": "owner",
              "type": "address"
            },
            {
              "internalType": "string",
              "name": "username",
              "type": "string"
            },
            {
              "internalType": "string",
              "name": "pfp",
              "type": "string"
            },
            {
              "internalType": "string",
              "name": "emailAddress",
              "type": "string"
            },
            {
              "internalType": "string",
              "name": "bio",
              "type": "string"
            },
            {
              "internalType": "bool",
              "name": "isDeleted",
              "type": "bool"
            },
            {
              "internalType": "uint256",
              "name": "createdAt",
              "type": "uint256"
            },
            {
              "internalType": "uint256",
              "name": "updatedAt",
              "type": "uint256"
            }
          ],
          "internalType": "struct OAuth.CardStruct[]",
          "name": "Cards",
          "type": "tuple[]"
        }
      ],
      "stateMutability": "view",
      "type": "function"
    },
    {
      "inputs": [
        {
          "internalType": "uint256",
          "name": "_cardId",
          "type": "uint256"
        },
        {
          "internalType": "string",
          "name": "_username",
          "type": "string"
        },
        {
          "internalType": "string",
          "name": "_pfp",
          "type": "string"
        },
        {
          "internalType": "string",
          "name": "_emailAddress",
          "type": "string"
        },
        {
          "internalType": "string",
          "name": "_bio",
          "type": "string"
        }
      ],
      "name": "updateCard",
      "outputs": [],
      "stateMutability": "nonpayable",
      "type": "function"
    }
  ],
  "bytecode": "0x60806040523480156200001157600080fd5b5033600073ffffffffffffffffffffffffffffffffffffffff168173ffffffffffffffffffffffffffffffffffffffff1603620000885760006040517f1e4fbdf70000000000000000000000000000000000000000000000000000000081526004016200007f9190620001a9565b60405180910390fd5b6200009981620000a060201b60201c565b50620001c6565b60008060009054906101000a900473ffffffffffffffffffffffffffffffffffffffff169050816000806101000a81548173ffffffffffffffffffffffffffffffffffffffff021916908373ffffffffffffffffffffffffffffffffffffffff1602179055508173ffffffffffffffffffffffffffffffffffffffff168173ffffffffffffffffffffffffffffffffffffffff167f8be0079c531659141344cd1fd0a4f28419497f9722a3daafe3b4186f6b6457e060405160405180910390a35050565b600073ffffffffffffffffffffffffffffffffffffffff82169050919050565b6000620001918262000164565b9050919050565b620001a38162000184565b82525050565b6000602082019050620001c0600083018462000198565b92915050565b61598b80620001d66000396000f3fe608060405234801561001057600080fd5b50600436106101215760003560e01c8063715018a6116100ad578063dd55c1b011610071578063dd55c1b014610317578063e10b79fa14610347578063e247dea814610377578063f2fde38b14610393578063f7c91c03146103af57610121565b8063715018a61461025f57806388d9f40d146102695780638da5cb5b14610299578063a3104eb5146102b7578063c392b0df146102e757610121565b806346d8066e116100f457806346d8066e146101bf57806348bf10c9146101db57806353d85919146101f7578063555f7817146102275780635e1acf651461024357610121565b806306bdd454146101265780630c2ad3f9146101575780631d12aa9b146101735780633901a9081461018f575b600080fd5b610140600480360381019061013b9190613d24565b6103df565b60405161014e929190614030565b60405180910390f35b610171600480360381019061016c9190614060565b610525565b005b61018d60048036038101906101889190614163565b610926565b005b6101a960048036038101906101a49190614190565b61098d565b6040516101b6919061427c565b60405180910390f35b6101d960048036038101906101d4919061429e565b610b93565b005b6101f560048036038101906101f09190614316565b610ef1565b005b610211600480360381019061020c9190614401565b611215565b60405161021e919061427c565b60405180910390f35b610241600480360381019061023c919061442e565b6113f5565b005b61025d60048036038101906102589190614401565b6115de565b005b6102676117b9565b005b610283600480360381019061027e919061448a565b6117cd565b60405161029091906144b7565b60405180910390f35b6102a1611e1a565b6040516102ae91906144e8565b60405180910390f35b6102d160048036038101906102cc919061448a565b611e43565b6040516102de9190614668565b60405180910390f35b61030160048036038101906102fc919061468a565b612363565b60405161030e9190614668565b60405180910390f35b610331600480360381019061032c91906146ca565b612529565b60405161033e919061477d565b60405180910390f35b610361600480360381019061035c9190614401565b6129d5565b60405161036e9190614872565b60405180910390f35b610391600480360381019061038c9190614401565b612cda565b005b6103ad60048036038101906103a8919061448a565b612ebe565b005b6103c960048036038101906103c49190614163565b612f44565b6040516103d69190614872565b60405180910390f35b600060606103eb613330565b604183511461042f576040517f08c379a0000000000000000000000000000000000000000000000000000000008152600401610426906148f1565b60405180910390fd5b61043a8487856133b7565b610479576040517f08c379a00000000000000000000000000000000000000000000000000000000081526004016104709061495d565b60405180910390fd5b60006104858787613415565b9050600081036104aa57600061049a886117cd565b8160001b9150925092505061051c565b6009600082815260200190815260200160002060040154600067ffffffffffffffff8111156104dc576104db613b58565b5b60405190808252806020026020018201604052801561051557816020015b61050261397c565b8152602001906001900390816104fa5790505b5092509250505b94509492505050565b6000845111610569576040517f08c379a0000000000000000000000000000000000000000000000000000000008152600401610560906149c9565b60405180910390fd5b60008351116105ad576040517f08c379a00000000000000000000000000000000000000000000000000000000081526004016105a490614a35565b60405180910390fd5b60008251116105f1576040517f08c379a00000000000000000000000000000000000000000000000000000000081526004016105e890614aa1565b60405180910390fd5b6000815111610635576040517f08c379a000000000000000000000000000000000000000000000000000000000815260040161062c90614b0d565b60405180910390fd5b61063d61397c565b60016000815461064c90614b5c565b91905081905581600001818152505084816040018190525033816020019073ffffffffffffffffffffffffffffffffffffffff16908173ffffffffffffffffffffffffffffffffffffffff1681525050838160600181905250828160800181905250818160a001819052506106bf61354d565b8160e00181815250506106d061354d565b816101000181815250508060056000836000015181526020019081526020016000206000820151816000015560208201518160010160006101000a81548173ffffffffffffffffffffffffffffffffffffffff021916908373ffffffffffffffffffffffffffffffffffffffff16021790555060408201518160020190816107589190614db0565b50606082015181600301908161076e9190614db0565b5060808201518160040190816107849190614db0565b5060a082015181600501908161079a9190614db0565b5060c08201518160060160006101000a81548160ff02191690831515021790555060e0820151816007015561010082015181600801559050506001600460008360000151815260200190815260200160002060006101000a81548160ff021916908315150217905550600660003373ffffffffffffffffffffffffffffffffffffffff1673ffffffffffffffffffffffffffffffffffffffff168152602001908152602001600020816000015190806001815401808255809150506001900390600052602060002001600090919091909150556001600760003373ffffffffffffffffffffffffffffffffffffffff1673ffffffffffffffffffffffffffffffffffffffff16815260200190815260200160002060008282546108bd9190614e82565b925050819055503373ffffffffffffffffffffffffffffffffffffffff167ff8d4d3ff62faf01eaf82f3b586f2fbeb141edb1f566b539ee6ae9df44fdb6c6b826000015161090961354d565b604051610917929190614f11565b60405180910390a25050505050565b61092e613330565b60006109398261356d565b03610979576040517f08c379a000000000000000000000000000000000000000000000000000000000815260040161097090614fbf565b60405180910390fd5b61098a6109858261356d565b6135e4565b50565b6109956139e0565b61099d613330565b600f60006010846040516109b1919061501b565b90815260200160405180910390205481526020019081526020016000206040518060e0016040529081600082015481526020016001820180546109f390614bd3565b80601f0160208091040260200160405190810160405280929190818152602001828054610a1f90614bd3565b8015610a6c5780601f10610a4157610100808354040283529160200191610a6c565b820191906000526020600020905b815481529060010190602001808311610a4f57829003601f168201915b50505050508152602001600282018054610a8590614bd3565b80601f0160208091040260200160405190810160405280929190818152602001828054610ab190614bd3565b8015610afe5780601f10610ad357610100808354040283529160200191610afe565b820191906000526020600020905b815481529060010190602001808311610ae157829003601f168201915b505050505081526020016003820160009054906101000a900473ffffffffffffffffffffffffffffffffffffffff1673ffffffffffffffffffffffffffffffffffffffff1673ffffffffffffffffffffffffffffffffffffffff1681526020016003820160149054906101000a900460ff16151515158152602001600482015481526020016005820154815250509050919050565b6000825111610bd7576040517f08c379a0000000000000000000000000000000000000000000000000000000008152600401610bce9061507e565b60405180910390fd5b6000815111610c1b576040517f08c379a0000000000000000000000000000000000000000000000000000000008152600401610c12906150ea565b60405180910390fd5b610c236139e0565b600260008154610c3290614b5c565b91905081905581600001818152505082816020018190525081816040018190525033816060019073ffffffffffffffffffffffffffffffffffffffff16908173ffffffffffffffffffffffffffffffffffffffff1681525050610c9361354d565b8160a0018181525050610ca461354d565b8160c001818152505080600f600083600001518152602001908152602001600020600082015181600001556020820151816001019081610ce49190614db0565b506040820151816002019081610cfa9190614db0565b5060608201518160030160006101000a81548173ffffffffffffffffffffffffffffffffffffffff021916908373ffffffffffffffffffffffffffffffffffffffff16021790555060808201518160030160146101000a81548160ff02191690831515021790555060a0820151816004015560c082015181600501559050506001600e60008360000151815260200190815260200160002060006101000a81548160ff0219169083151502179055508060000151601083604051610dbe919061501b565b908152602001604051809103902081905550601160003373ffffffffffffffffffffffffffffffffffffffff1673ffffffffffffffffffffffffffffffffffffffff168152602001908152602001600020816000015190806001815401808255809150506001900390600052602060002001600090919091909150556001601260003373ffffffffffffffffffffffffffffffffffffffff1673ffffffffffffffffffffffffffffffffffffffff1681526020019081526020016000206000828254610e8a9190614e82565b925050819055503373ffffffffffffffffffffffffffffffffffffffff167fcf40bd3705e373a5f70135f1d9765c2d97154b94b433601f78a9572c576571248260000151610ed661354d565b604051610ee4929190615156565b60405180910390a2505050565b6004600086815260200190815260200160002060009054906101000a900460ff16610f51576040517f08c379a0000000000000000000000000000000000000000000000000000000008152600401610f48906151de565b60405180910390fd5b3373ffffffffffffffffffffffffffffffffffffffff166005600087815260200190815260200160002060010160009054906101000a900473ffffffffffffffffffffffffffffffffffffffff1673ffffffffffffffffffffffffffffffffffffffff1614610ff5576040517f08c379a0000000000000000000000000000000000000000000000000000000008152600401610fec9061524a565b60405180910390fd5b6000845111611039576040517f08c379a0000000000000000000000000000000000000000000000000000000008152600401611030906149c9565b60405180910390fd5b600083511161107d576040517f08c379a000000000000000000000000000000000000000000000000000000000815260040161107490614a35565b60405180910390fd5b60008251116110c1576040517f08c379a00000000000000000000000000000000000000000000000000000000081526004016110b890614aa1565b60405180910390fd5b6000815111611105576040517f08c379a00000000000000000000000000000000000000000000000000000000081526004016110fc90614b0d565b60405180910390fd5b836005600087815260200190815260200160002060020190816111289190614db0565b508260056000878152602001908152602001600020600301908161114c9190614db0565b50816005600087815260200190815260200160002060040190816111709190614db0565b50806005600087815260200190815260200160002060050190816111949190614db0565b5061119d61354d565b60056000878152602001908152602001600020600801819055503373ffffffffffffffffffffffffffffffffffffffff167ff8d4d3ff62faf01eaf82f3b586f2fbeb141edb1f566b539ee6ae9df44fdb6c6b866111f861354d565b6040516112069291906152b6565b60405180910390a25050505050565b61121d6139e0565b600f60008381526020019081526020016000206040518060e00160405290816000820154815260200160018201805461125590614bd3565b80601f016020809104026020016040519081016040528092919081815260200182805461128190614bd3565b80156112ce5780601f106112a3576101008083540402835291602001916112ce565b820191906000526020600020905b8154815290600101906020018083116112b157829003601f168201915b505050505081526020016002820180546112e790614bd3565b80601f016020809104026020016040519081016040528092919081815260200182805461131390614bd3565b80156113605780601f1061133557610100808354040283529160200191611360565b820191906000526020600020905b81548152906001019060200180831161134357829003601f168201915b505050505081526020016003820160009054906101000a900473ffffffffffffffffffffffffffffffffffffffff1673ffffffffffffffffffffffffffffffffffffffff1673ffffffffffffffffffffffffffffffffffffffff1681526020016003820160149054906101000a900460ff16151515158152602001600482015481526020016005820154815250509050919050565b600e600083815260200190815260200160002060009054906101000a900460ff16611455576040517f08c379a000000000000000000000000000000000000000000000000000000000815260040161144c9061533e565b60405180910390fd5b3373ffffffffffffffffffffffffffffffffffffffff16600f600084815260200190815260200160002060030160009054906101000a900473ffffffffffffffffffffffffffffffffffffffff1673ffffffffffffffffffffffffffffffffffffffff16146114f9576040517f08c379a00000000000000000000000000000000000000000000000000000000081526004016114f09061524a565b60405180910390fd5b600081511161153d576040517f08c379a00000000000000000000000000000000000000000000000000000000081526004016115349061507e565b60405180910390fd5b80600f600084815260200190815260200160002060010190816115609190614db0565b5061156961354d565b600f6000848152602001908152602001600020600501819055503373ffffffffffffffffffffffffffffffffffffffff167fcf40bd3705e373a5f70135f1d9765c2d97154b94b433601f78a9572c57657124836115c461354d565b6040516115d29291906153aa565b60405180910390a25050565b6004600082815260200190815260200160002060009054906101000a900460ff1661163e576040517f08c379a0000000000000000000000000000000000000000000000000000000008152600401611635906151de565b60405180910390fd5b3373ffffffffffffffffffffffffffffffffffffffff166005600083815260200190815260200160002060010160009054906101000a900473ffffffffffffffffffffffffffffffffffffffff1673ffffffffffffffffffffffffffffffffffffffff16146116e2576040517f08c379a00000000000000000000000000000000000000000000000000000000081526004016116d99061524a565b60405180910390fd5b60006004600083815260200190815260200160002060006101000a81548160ff02191690831515021790555060016005600083815260200190815260200160002060060160006101000a81548160ff02191690831515021790555061174561354d565b60056000838152602001908152602001600020600801819055503373ffffffffffffffffffffffffffffffffffffffff167ff8d4d3ff62faf01eaf82f3b586f2fbeb141edb1f566b539ee6ae9df44fdb6c6b826117a061354d565b6040516117ae929190615432565b60405180910390a250565b6117c1613330565b6117cb60006136bb565b565b60606117d7613330565b600080600090505b600760008573ffffffffffffffffffffffffffffffffffffffff1673ffffffffffffffffffffffffffffffffffffffff16815260200190815260200160002054811015611940576000600660008673ffffffffffffffffffffffffffffffffffffffff1673ffffffffffffffffffffffffffffffffffffffff16815260200190815260200160002082815481106118795761187861546e565b5b906000526020600020015490508473ffffffffffffffffffffffffffffffffffffffff166005600083815260200190815260200160002060010160009054906101000a900473ffffffffffffffffffffffffffffffffffffffff1673ffffffffffffffffffffffffffffffffffffffff1614801561191857506005600082815260200190815260200160002060060160009054906101000a900460ff16155b1561192c57828061192890614b5c565b9350505b50808061193890614b5c565b9150506117df565b508067ffffffffffffffff81111561195b5761195a613b58565b5b60405190808252806020026020018201604052801561199457816020015b61198161397c565b8152602001906001900390816119795790505b509150600080600090505b600760008673ffffffffffffffffffffffffffffffffffffffff1673ffffffffffffffffffffffffffffffffffffffff16815260200190815260200160002054811015611e12576000600660008773ffffffffffffffffffffffffffffffffffffffff1673ffffffffffffffffffffffffffffffffffffffff1681526020019081526020016000208281548110611a3957611a3861546e565b5b906000526020600020015490508573ffffffffffffffffffffffffffffffffffffffff166005600083815260200190815260200160002060010160009054906101000a900473ffffffffffffffffffffffffffffffffffffffff1673ffffffffffffffffffffffffffffffffffffffff16148015611ad857506005600082815260200190815260200160002060060160009054906101000a900460ff16155b15611dfe576005600082815260200190815260200160002060405180610120016040529081600082015481526020016001820160009054906101000a900473ffffffffffffffffffffffffffffffffffffffff1673ffffffffffffffffffffffffffffffffffffffff1673ffffffffffffffffffffffffffffffffffffffff168152602001600282018054611b6c90614bd3565b80601f0160208091040260200160405190810160405280929190818152602001828054611b9890614bd3565b8015611be55780601f10611bba57610100808354040283529160200191611be5565b820191906000526020600020905b815481529060010190602001808311611bc857829003601f168201915b50505050508152602001600382018054611bfe90614bd3565b80601f0160208091040260200160405190810160405280929190818152602001828054611c2a90614bd3565b8015611c775780601f10611c4c57610100808354040283529160200191611c77565b820191906000526020600020905b815481529060010190602001808311611c5a57829003601f168201915b50505050508152602001600482018054611c9090614bd3565b80601f0160208091040260200160405190810160405280929190818152602001828054611cbc90614bd3565b8015611d095780601f10611cde57610100808354040283529160200191611d09565b820191906000526020600020905b815481529060010190602001808311611cec57829003601f168201915b50505050508152602001600582018054611d2290614bd3565b80601f0160208091040260200160405190810160405280929190818152602001828054611d4e90614bd3565b8015611d9b5780601f10611d7057610100808354040283529160200191611d9b565b820191906000526020600020905b815481529060010190602001808311611d7e57829003601f168201915b505050505081526020016006820160009054906101000a900460ff1615151515815260200160078201548152602001600882015481525050858480611ddf90614b5c565b955081518110611df257611df161546e565b5b60200260200101819052505b508080611e0a90614b5c565b91505061199f565b505050919050565b60008060009054906101000a900473ffffffffffffffffffffffffffffffffffffffff16905090565b6060600080600090505b601260008573ffffffffffffffffffffffffffffffffffffffff1673ffffffffffffffffffffffffffffffffffffffff16815260200190815260200160002054811015611fae576000601160008673ffffffffffffffffffffffffffffffffffffffff1673ffffffffffffffffffffffffffffffffffffffff1681526020019081526020016000208281548110611ee757611ee661546e565b5b906000526020600020015490508473ffffffffffffffffffffffffffffffffffffffff16600f600083815260200190815260200160002060030160009054906101000a900473ffffffffffffffffffffffffffffffffffffffff1673ffffffffffffffffffffffffffffffffffffffff16148015611f865750600f600082815260200190815260200160002060030160149054906101000a900460ff16155b15611f9a578280611f9690614b5c565b9350505b508080611fa690614b5c565b915050611e4d565b508067ffffffffffffffff811115611fc957611fc8613b58565b5b60405190808252806020026020018201604052801561200257816020015b611fef6139e0565b815260200190600190039081611fe75790505b509150600080600090505b601260008673ffffffffffffffffffffffffffffffffffffffff1673ffffffffffffffffffffffffffffffffffffffff1681526020019081526020016000205481101561235b576000601160008773ffffffffffffffffffffffffffffffffffffffff1673ffffffffffffffffffffffffffffffffffffffff16815260200190815260200160002082815481106120a7576120a661546e565b5b906000526020600020015490508573ffffffffffffffffffffffffffffffffffffffff16600f600083815260200190815260200160002060030160009054906101000a900473ffffffffffffffffffffffffffffffffffffffff1673ffffffffffffffffffffffffffffffffffffffff161480156121465750600f600082815260200190815260200160002060030160149054906101000a900460ff16155b1561234757600f60008281526020019081526020016000206040518060e00160405290816000820154815260200160018201805461218390614bd3565b80601f01602080910402602001604051908101604052809291908181526020018280546121af90614bd3565b80156121fc5780601f106121d1576101008083540402835291602001916121fc565b820191906000526020600020905b8154815290600101906020018083116121df57829003601f168201915b5050505050815260200160028201805461221590614bd3565b80601f016020809104026020016040519081016040528092919081815260200182805461224190614bd3565b801561228e5780601f106122635761010080835404028352916020019161228e565b820191906000526020600020905b81548152906001019060200180831161227157829003601f168201915b505050505081526020016003820160009054906101000a900473ffffffffffffffffffffffffffffffffffffffff1673ffffffffffffffffffffffffffffffffffffffff1673ffffffffffffffffffffffffffffffffffffffff1681526020016003820160149054906101000a900460ff161515151581526020016004820154815260200160058201548152505085848061232890614b5c565b95508151811061233b5761233a61546e565b5b60200260200101819052505b50808061235390614b5c565b91505061200d565b505050919050565b6060600080600090505b600d6000858152602001908152602001600020805490508110156123ed5760006123c686600d600088815260200190815260200160002084815481106123b6576123b561546e565b5b9060005260206000200154613415565b146123da5781806123d690614b5c565b9250505b80806123e590614b5c565b91505061236d565b508067ffffffffffffffff81111561240857612407613b58565b5b60405190808252806020026020018201604052801561244157816020015b61242e6139e0565b8152602001906001900390816124265790505b509150600080600090505b600d6000868152602001908152602001600020805490508110156125205760006124a587600d600089815260200190815260200160002084815481106124955761249461546e565b5b9060005260206000200154613415565b1461250d576124e2600d600087815260200190815260200160002082815481106124d2576124d161546e565b5b9060005260206000200154611215565b8483806124ee90614b5c565b9450815181106125015761250061546e565b5b60200260200101819052505b808061251890614b5c565b91505061244c565b50505092915050565b6000612533613330565b6004600087815260200190815260200160002060009054906101000a900460ff16612593576040517f08c379a000000000000000000000000000000000000000000000000000000000815260040161258a906154e9565b60405180910390fd5b8373ffffffffffffffffffffffffffffffffffffffff166005600088815260200190815260200160002060010160009054906101000a900473ffffffffffffffffffffffffffffffffffffffff1673ffffffffffffffffffffffffffffffffffffffff1614612637576040517f08c379a000000000000000000000000000000000000000000000000000000000815260040161262e90615555565b60405180910390fd5b600e600086815260200190815260200160002060009054906101000a900460ff16612697576040517f08c379a000000000000000000000000000000000000000000000000000000000815260040161268e9061533e565b60405180910390fd5b6126a28385846133b7565b6126e1576040517f08c379a00000000000000000000000000000000000000000000000000000000081526004016126d89061495d565b60405180910390fd5b60008685876040516020016126f8939291906155de565b604051602081830303815290604052805190602001209050612718613a35565b60036000815461272790614b5c565b919050819055816000018181525050878160200181815250508681604001818152505085816060019073ffffffffffffffffffffffffffffffffffffffff16908173ffffffffffffffffffffffffffffffffffffffff16815250508181608001818152505060018160a00190151590811515815250506127a561354d565b8160c00181815250506127b661354d565b8160e001818152505080600960008360000151815260200190815260200160002060008201518160000155602082015181600101556040820151816002015560608201518160030160006101000a81548173ffffffffffffffffffffffffffffffffffffffff021916908373ffffffffffffffffffffffffffffffffffffffff1602179055506080820151816004015560a08201518160050160006101000a81548160ff02191690831515021790555060c0820151816006015560e082015181600701559050506001600860008360000151815260200190815260200160002060006101000a81548160ff021916908315150217905550600b6000888152602001908152602001600020816000015190806001815401808255809150506001900390600052602060002001600090919091909150556001600c6000898152602001908152602001600020600082825461290f9190614e82565b925050819055508060000151600a600084815260200190815260200160002081905550600d60008981526020019081526020016000208790806001815401808255809150506001900390600052602060002001600090919091909150553373ffffffffffffffffffffffffffffffffffffffff167fe63a460b8dabeb604b9976b03437e24ba6d9e603af187bb174d50ce4f6b3022982600001516129b161354d565b6040516129bf929190615667565b60405180910390a2819250505095945050505050565b6129dd61397c565b6005600083815260200190815260200160002060405180610120016040529081600082015481526020016001820160009054906101000a900473ffffffffffffffffffffffffffffffffffffffff1673ffffffffffffffffffffffffffffffffffffffff1673ffffffffffffffffffffffffffffffffffffffff168152602001600282018054612a6c90614bd3565b80601f0160208091040260200160405190810160405280929190818152602001828054612a9890614bd3565b8015612ae55780601f10612aba57610100808354040283529160200191612ae5565b820191906000526020600020905b815481529060010190602001808311612ac857829003601f168201915b50505050508152602001600382018054612afe90614bd3565b80601f0160208091040260200160405190810160405280929190818152602001828054612b2a90614bd3565b8015612b775780601f10612b4c57610100808354040283529160200191612b77565b820191906000526020600020905b815481529060010190602001808311612b5a57829003601f168201915b50505050508152602001600482018054612b9090614bd3565b80601f0160208091040260200160405190810160405280929190818152602001828054612bbc90614bd3565b8015612c095780601f10612bde57610100808354040283529160200191612c09565b820191906000526020600020905b815481529060010190602001808311612bec57829003601f168201915b50505050508152602001600582018054612c2290614bd3565b80601f0160208091040260200160405190810160405280929190818152602001828054612c4e90614bd3565b8015612c9b5780601f10612c7057610100808354040283529160200191612c9b565b820191906000526020600020905b815481529060010190602001808311612c7e57829003601f168201915b505050505081526020016006820160009054906101000a900460ff16151515158152602001600782015481526020016008820154815250509050919050565b600e600082815260200190815260200160002060009054906101000a900460ff16612d3a576040517f08c379a0000000000000000000000000000000000000000000000000000000008152600401612d319061533e565b60405180910390fd5b3373ffffffffffffffffffffffffffffffffffffffff16600f600083815260200190815260200160002060030160009054906101000a900473ffffffffffffffffffffffffffffffffffffffff1673ffffffffffffffffffffffffffffffffffffffff1614612dde576040517f08c379a0000000000000000000000000000000000000000000000000000000008152600401612dd59061524a565b60405180910390fd5b6000600e600083815260200190815260200160002060006101000a81548160ff0219169083151502179055506001600f600083815260200190815260200160002060030160146101000a81548160ff021916908315150217905550612e4161354d565b600f600083815260200190815260200160002060050181905550612e648161377f565b3373ffffffffffffffffffffffffffffffffffffffff167fcf40bd3705e373a5f70135f1d9765c2d97154b94b433601f78a9572c5765712482612ea561354d565b604051612eb39291906156ef565b60405180910390a250565b612ec6613330565b600073ffffffffffffffffffffffffffffffffffffffff168173ffffffffffffffffffffffffffffffffffffffff1603612f385760006040517f1e4fbdf7000000000000000000000000000000000000000000000000000000008152600401612f2f91906144e8565b60405180910390fd5b612f41816136bb565b50565b612f4c61397c565b6000612f578361356d565b03612f97576040517f08c379a0000000000000000000000000000000000000000000000000000000008152600401612f8e90614fbf565b60405180910390fd5b6004600060096000612fa88661356d565b815260200190815260200160002060010154815260200190815260200160002060009054906101000a900460ff16613015576040517f08c379a000000000000000000000000000000000000000000000000000000000815260040161300c90615777565b60405180910390fd5b60056000600960006130268661356d565b815260200190815260200160002060010154815260200190815260200160002060405180610120016040529081600082015481526020016001820160009054906101000a900473ffffffffffffffffffffffffffffffffffffffff1673ffffffffffffffffffffffffffffffffffffffff1673ffffffffffffffffffffffffffffffffffffffff1681526020016002820180546130c290614bd3565b80601f01602080910402602001604051908101604052809291908181526020018280546130ee90614bd3565b801561313b5780601f106131105761010080835404028352916020019161313b565b820191906000526020600020905b81548152906001019060200180831161311e57829003601f168201915b5050505050815260200160038201805461315490614bd3565b80601f016020809104026020016040519081016040528092919081815260200182805461318090614bd3565b80156131cd5780601f106131a2576101008083540402835291602001916131cd565b820191906000526020600020905b8154815290600101906020018083116131b057829003601f168201915b505050505081526020016004820180546131e690614bd3565b80601f016020809104026020016040519081016040528092919081815260200182805461321290614bd3565b801561325f5780601f106132345761010080835404028352916020019161325f565b820191906000526020600020905b81548152906001019060200180831161324257829003601f168201915b5050505050815260200160058201805461327890614bd3565b80601f01602080910402602001604051908101604052809291908181526020018280546132a490614bd3565b80156132f15780601f106132c6576101008083540402835291602001916132f1565b820191906000526020600020905b8154815290600101906020018083116132d457829003601f168201915b505050505081526020016006820160009054906101000a900460ff16151515158152602001600782015481526020016008820154815250509050919050565b61333861383d565b73ffffffffffffffffffffffffffffffffffffffff16613356611e1a565b73ffffffffffffffffffffffffffffffffffffffff16146133b55761337961383d565b6040517f118cdaa70000000000000000000000000000000000000000000000000000000081526004016133ac91906144e8565b60405180910390fd5b565b6000806133c385613845565b905060006133d082613875565b90508473ffffffffffffffffffffffffffffffffffffffff166133f382866138a5565b73ffffffffffffffffffffffffffffffffffffffff1614925050509392505050565b600080600090505b600c600084815260200190815260200160002054811015613541576000600b6000858152602001908152602001600020828154811061345f5761345e61546e565b5b906000526020600020015490508473ffffffffffffffffffffffffffffffffffffffff166009600083815260200190815260200160002060030160009054906101000a900473ffffffffffffffffffffffffffffffffffffffff1673ffffffffffffffffffffffffffffffffffffffff161480156134fd57506009600082815260200190815260200160002060050160009054906101000a900460ff165b801561351e5750836009600083815260200190815260200160002060020154145b1561352d578092505050613547565b50808061353990614b5c565b91505061341d565b50600090505b92915050565b60006103e8804261355e9190615797565b6135689190614e82565b905090565b600080600a60008481526020019081526020016000205490506009600082815260200190815260200160002060050160009054906101000a900460ff1680156135cb5750826009600083815260200190815260200160002060040154145b156135d957809150506135df565b60009150505b919050565b60006009600083815260200190815260200160002060050160006101000a81548160ff02191690831515021790555061361b61354d565b600960008381526020019081526020016000206007018190555060006008600083815260200190815260200160002060006101000a81548160ff0219169083151502179055503373ffffffffffffffffffffffffffffffffffffffff167fe63a460b8dabeb604b9976b03437e24ba6d9e603af187bb174d50ce4f6b30229826136a261354d565b6040516136b0929190615825565b60405180910390a250565b60008060009054906101000a900473ffffffffffffffffffffffffffffffffffffffff169050816000806101000a81548173ffffffffffffffffffffffffffffffffffffffff021916908373ffffffffffffffffffffffffffffffffffffffff1602179055508173ffffffffffffffffffffffffffffffffffffffff168173ffffffffffffffffffffffffffffffffffffffff167f8be0079c531659141344cd1fd0a4f28419497f9722a3daafe3b4186f6b6457e060405160405180910390a35050565b60005b600c600083815260200190815260200160002054811015613839576000600b600084815260200190815260200160002082815481106137c4576137c361546e565b5b9060005260206000200154905082600960008381526020019081526020016000206002015414801561381657506009600082815260200190815260200160002060050160009054906101000a900460ff165b1561382557613824816135e4565b5b50808061383190614b5c565b915050613782565b5050565b600033905090565b600081604051602001613858919061501b565b604051602081830303815290604052805190602001209050919050565b60008160405160200161388891906158ce565b604051602081830303815290604052805190602001209050919050565b6000806000806138b485613914565b925092509250600186828585604051600081526020016040526040516138dd9493929190615910565b6020604051602081039080840390855afa1580156138ff573d6000803e3d6000fd5b50505060206040510351935050505092915050565b6000806000604184511461395d576040517f08c379a0000000000000000000000000000000000000000000000000000000008152600401613954906148f1565b60405180910390fd5b6020840151925060408401519150606084015160001a90509193909250565b60405180610120016040528060008152602001600073ffffffffffffffffffffffffffffffffffffffff1681526020016060815260200160608152602001606081526020016060815260200160001515815260200160008152602001600081525090565b6040518060e00160405280600081526020016060815260200160608152602001600073ffffffffffffffffffffffffffffffffffffffff16815260200160001515815260200160008152602001600081525090565b604051806101000160405280600081526020016000815260200160008152602001600073ffffffffffffffffffffffffffffffffffffffff1681526020016000801916815260200160001515815260200160008152602001600081525090565b6000604051905090565b600080fd5b600080fd5b600073ffffffffffffffffffffffffffffffffffffffff82169050919050565b6000613ad482613aa9565b9050919050565b613ae481613ac9565b8114613aef57600080fd5b50565b600081359050613b0181613adb565b92915050565b6000819050919050565b613b1a81613b07565b8114613b2557600080fd5b50565b600081359050613b3781613b11565b92915050565b600080fd5b600080fd5b6000601f19601f8301169050919050565b7f4e487b7100000000000000000000000000000000000000000000000000000000600052604160045260246000fd5b613b9082613b47565b810181811067ffffffffffffffff82111715613baf57613bae613b58565b5b80604052505050565b6000613bc2613a95565b9050613bce8282613b87565b919050565b600067ffffffffffffffff821115613bee57613bed613b58565b5b613bf782613b47565b9050602081019050919050565b82818337600083830152505050565b6000613c26613c2184613bd3565b613bb8565b905082815260208101848484011115613c4257613c41613b42565b5b613c4d848285613c04565b509392505050565b600082601f830112613c6a57613c69613b3d565b5b8135613c7a848260208601613c13565b91505092915050565b600067ffffffffffffffff821115613c9e57613c9d613b58565b5b613ca782613b47565b9050602081019050919050565b6000613cc7613cc284613c83565b613bb8565b905082815260208101848484011115613ce357613ce2613b42565b5b613cee848285613c04565b509392505050565b600082601f830112613d0b57613d0a613b3d565b5b8135613d1b848260208601613cb4565b91505092915050565b60008060008060808587031215613d3e57613d3d613a9f565b5b6000613d4c87828801613af2565b9450506020613d5d87828801613b28565b935050604085013567ffffffffffffffff811115613d7e57613d7d613aa4565b5b613d8a87828801613c55565b925050606085013567ffffffffffffffff811115613dab57613daa613aa4565b5b613db787828801613cf6565b91505092959194509250565b6000819050919050565b613dd681613dc3565b82525050565b600081519050919050565b600082825260208201905092915050565b6000819050602082019050919050565b613e1181613b07565b82525050565b613e2081613ac9565b82525050565b600081519050919050565b600082825260208201905092915050565b60005b83811015613e60578082015181840152602081019050613e45565b60008484015250505050565b6000613e7782613e26565b613e818185613e31565b9350613e91818560208601613e42565b613e9a81613b47565b840191505092915050565b60008115159050919050565b613eba81613ea5565b82525050565b600061012083016000830151613ed96000860182613e08565b506020830151613eec6020860182613e17565b5060408301518482036040860152613f048282613e6c565b91505060608301518482036060860152613f1e8282613e6c565b91505060808301518482036080860152613f388282613e6c565b91505060a083015184820360a0860152613f528282613e6c565b91505060c0830151613f6760c0860182613eb1565b5060e0830151613f7a60e0860182613e08565b50610100830151613f8f610100860182613e08565b508091505092915050565b6000613fa68383613ec0565b905092915050565b6000602082019050919050565b6000613fc682613ddc565b613fd08185613de7565b935083602082028501613fe285613df8565b8060005b8581101561401e5784840389528151613fff8582613f9a565b945061400a83613fae565b925060208a01995050600181019050613fe6565b50829750879550505050505092915050565b60006040820190506140456000830185613dcd565b81810360208301526140578184613fbb565b90509392505050565b6000806000806080858703121561407a57614079613a9f565b5b600085013567ffffffffffffffff81111561409857614097613aa4565b5b6140a487828801613c55565b945050602085013567ffffffffffffffff8111156140c5576140c4613aa4565b5b6140d187828801613c55565b935050604085013567ffffffffffffffff8111156140f2576140f1613aa4565b5b6140fe87828801613c55565b925050606085013567ffffffffffffffff81111561411f5761411e613aa4565b5b61412b87828801613c55565b91505092959194509250565b61414081613dc3565b811461414b57600080fd5b50565b60008135905061415d81614137565b92915050565b60006020828403121561417957614178613a9f565b5b60006141878482850161414e565b91505092915050565b6000602082840312156141a6576141a5613a9f565b5b600082013567ffffffffffffffff8111156141c4576141c3613aa4565b5b6141d084828501613c55565b91505092915050565b600060e0830160008301516141f16000860182613e08565b50602083015184820360208601526142098282613e6c565b915050604083015184820360408601526142238282613e6c565b91505060608301516142386060860182613e17565b50608083015161424b6080860182613eb1565b5060a083015161425e60a0860182613e08565b5060c083015161427160c0860182613e08565b508091505092915050565b6000602082019050818103600083015261429681846141d9565b905092915050565b600080604083850312156142b5576142b4613a9f565b5b600083013567ffffffffffffffff8111156142d3576142d2613aa4565b5b6142df85828601613c55565b925050602083013567ffffffffffffffff811115614300576142ff613aa4565b5b61430c85828601613c55565b9150509250929050565b600080600080600060a0868803121561433257614331613a9f565b5b600061434088828901613b28565b955050602086013567ffffffffffffffff81111561436157614360613aa4565b5b61436d88828901613c55565b945050604086013567ffffffffffffffff81111561438e5761438d613aa4565b5b61439a88828901613c55565b935050606086013567ffffffffffffffff8111156143bb576143ba613aa4565b5b6143c788828901613c55565b925050608086013567ffffffffffffffff8111156143e8576143e7613aa4565b5b6143f488828901613c55565b9150509295509295909350565b60006020828403121561441757614416613a9f565b5b600061442584828501613b28565b91505092915050565b6000806040838503121561444557614444613a9f565b5b600061445385828601613b28565b925050602083013567ffffffffffffffff81111561447457614473613aa4565b5b61448085828601613c55565b9150509250929050565b6000602082840312156144a05761449f613a9f565b5b60006144ae84828501613af2565b91505092915050565b600060208201905081810360008301526144d18184613fbb565b905092915050565b6144e281613ac9565b82525050565b60006020820190506144fd60008301846144d9565b92915050565b600081519050919050565b600082825260208201905092915050565b6000819050602082019050919050565b600060e0830160008301516145476000860182613e08565b506020830151848203602086015261455f8282613e6c565b915050604083015184820360408601526145798282613e6c565b915050606083015161458e6060860182613e17565b5060808301516145a16080860182613eb1565b5060a08301516145b460a0860182613e08565b5060c08301516145c760c0860182613e08565b508091505092915050565b60006145de838361452f565b905092915050565b6000602082019050919050565b60006145fe82614503565b614608818561450e565b93508360208202850161461a8561451f565b8060005b85811015614656578484038952815161463785826145d2565b9450614642836145e6565b925060208a0199505060018101905061461e565b50829750879550505050505092915050565b6000602082019050818103600083015261468281846145f3565b905092915050565b600080604083850312156146a1576146a0613a9f565b5b60006146af85828601613af2565b92505060206146c085828601613b28565b9150509250929050565b600080600080600060a086880312156146e6576146e5613a9f565b5b60006146f488828901613b28565b955050602061470588828901613b28565b945050604061471688828901613af2565b935050606086013567ffffffffffffffff81111561473757614736613aa4565b5b61474388828901613c55565b925050608086013567ffffffffffffffff81111561476457614763613aa4565b5b61477088828901613cf6565b9150509295509295909350565b60006020820190506147926000830184613dcd565b92915050565b6000610120830160008301516147b16000860182613e08565b5060208301516147c46020860182613e17565b50604083015184820360408601526147dc8282613e6c565b915050606083015184820360608601526147f68282613e6c565b915050608083015184820360808601526148108282613e6c565b91505060a083015184820360a086015261482a8282613e6c565b91505060c083015161483f60c0860182613eb1565b5060e083015161485260e0860182613e08565b50610100830151614867610100860182613e08565b508091505092915050565b6000602082019050818103600083015261488c8184614798565b905092915050565b600082825260208201905092915050565b7f496e76616c6964207369676e6174757265206c656e6774680000000000000000600082015250565b60006148db601883614894565b91506148e6826148a5565b602082019050919050565b6000602082019050818103600083015261490a816148ce565b9050919050565b7f556e61626c6520746f2076616c6964617465207369676e617475726500000000600082015250565b6000614947601c83614894565b915061495282614911565b602082019050919050565b600060208201905081810360008301526149768161493a565b9050919050565b7f557365726e616d65206d757374206e6f7420626520656d707479000000000000600082015250565b60006149b3601a83614894565b91506149be8261497d565b602082019050919050565b600060208201905081810360008301526149e2816149a6565b9050919050565b7f504650206d757374206e6f7420626520656d7074790000000000000000000000600082015250565b6000614a1f601583614894565b9150614a2a826149e9565b602082019050919050565b60006020820190508181036000830152614a4e81614a12565b9050919050565b7f456d61696c2061646472657373206d757374206e6f7420626520656d70747900600082015250565b6000614a8b601f83614894565b9150614a9682614a55565b602082019050919050565b60006020820190508181036000830152614aba81614a7e565b9050919050565b7f42696f206d757374206e6f7420626520656d7074790000000000000000000000600082015250565b6000614af7601583614894565b9150614b0282614ac1565b602082019050919050565b60006020820190508181036000830152614b2681614aea565b9050919050565b7f4e487b7100000000000000000000000000000000000000000000000000000000600052601160045260246000fd5b6000614b6782613b07565b91507fffffffffffffffffffffffffffffffffffffffffffffffffffffffffffffffff8203614b9957614b98614b2d565b5b600182019050919050565b7f4e487b7100000000000000000000000000000000000000000000000000000000600052602260045260246000fd5b60006002820490506001821680614beb57607f821691505b602082108103614bfe57614bfd614ba4565b5b50919050565b60008190508160005260206000209050919050565b60006020601f8301049050919050565b600082821b905092915050565b600060088302614c667fffffffffffffffffffffffffffffffffffffffffffffffffffffffffffffffff82614c29565b614c708683614c29565b95508019841693508086168417925050509392505050565b6000819050919050565b6000614cad614ca8614ca384613b07565b614c88565b613b07565b9050919050565b6000819050919050565b614cc783614c92565b614cdb614cd382614cb4565b848454614c36565b825550505050565b600090565b614cf0614ce3565b614cfb818484614cbe565b505050565b5b81811015614d1f57614d14600082614ce8565b600181019050614d01565b5050565b601f821115614d6457614d3581614c04565b614d3e84614c19565b81016020851015614d4d578190505b614d61614d5985614c19565b830182614d00565b50505b505050565b600082821c905092915050565b6000614d8760001984600802614d69565b1980831691505092915050565b6000614da08383614d76565b9150826002028217905092915050565b614db982613e26565b67ffffffffffffffff811115614dd257614dd1613b58565b5b614ddc8254614bd3565b614de7828285614d23565b600060209050601f831160018114614e1a5760008415614e08578287015190505b614e128582614d94565b865550614e7a565b601f198416614e2886614c04565b60005b82811015614e5057848901518255600182019150602085019450602081019050614e2b565b86831015614e6d5784890151614e69601f891682614d76565b8355505b6001600288020188555050505b505050505050565b6000614e8d82613b07565b9150614e9883613b07565b9250828201905080821115614eb057614eaf614b2d565b5b92915050565b614ebf81613b07565b82525050565b7f4372656174656420436172640000000000000000000000000000000000000000600082015250565b6000614efb600c83614894565b9150614f0682614ec5565b602082019050919050565b6000606082019050614f266000830185614eb6565b8181036020830152614f3781614eee565b9050614f466040830184614eb6565b9392505050565b7f496e76616c6964206f72204578706972656420746f6b656e2070726f7669646560008201527f6400000000000000000000000000000000000000000000000000000000000000602082015250565b6000614fa9602183614894565b9150614fb482614f4d565b604082019050919050565b60006020820190508181036000830152614fd881614f9c565b9050919050565b600081905092915050565b6000614ff582613e26565b614fff8185614fdf565b935061500f818560208601613e42565b80840191505092915050565b60006150278284614fea565b915081905092915050565b7f446f6d61696e206d757374206e6f7420626520656d7074790000000000000000600082015250565b6000615068601883614894565b915061507382615032565b602082019050919050565b600060208201905081810360008301526150978161505b565b9050919050565b7f41636365737320546f6b656e206d757374206e6f7420626520656d7074790000600082015250565b60006150d4601e83614894565b91506150df8261509e565b602082019050919050565b60006020820190508181036000830152615103816150c7565b9050919050565b7f5265676973746572656420644170700000000000000000000000000000000000600082015250565b6000615140600f83614894565b915061514b8261510a565b602082019050919050565b600060608201905061516b6000830185614eb6565b818103602083015261517c81615133565b905061518b6040830184614eb6565b9392505050565b7f43617264206e6f7420666f756e64000000000000000000000000000000000000600082015250565b60006151c8600e83614894565b91506151d382615192565b602082019050919050565b600060208201905081810360008301526151f7816151bb565b9050919050565b7f556e617574686f72697a65640000000000000000000000000000000000000000600082015250565b6000615234600c83614894565b915061523f826151fe565b602082019050919050565b6000602082019050818103600083015261526381615227565b9050919050565b7f5570646174656420436172640000000000000000000000000000000000000000600082015250565b60006152a0600c83614894565b91506152ab8261526a565b602082019050919050565b60006060820190506152cb6000830185614eb6565b81810360208301526152dc81615293565b90506152eb6040830184614eb6565b9392505050565b7f64417070206e6f74207265676973746572656400000000000000000000000000600082015250565b6000615328601383614894565b9150615333826152f2565b602082019050919050565b600060208201905081810360008301526153578161531b565b9050919050565b7f5570646174656420644170700000000000000000000000000000000000000000600082015250565b6000615394600c83614894565b915061539f8261535e565b602082019050919050565b60006060820190506153bf6000830185614eb6565b81810360208301526153d081615387565b90506153df6040830184614eb6565b9392505050565b7f44656c6574656420436172640000000000000000000000000000000000000000600082015250565b600061541c600c83614894565b9150615427826153e6565b602082019050919050565b60006060820190506154476000830185614eb6565b81810360208301526154588161540f565b90506154676040830184614eb6565b9392505050565b7f4e487b7100000000000000000000000000000000000000000000000000000000600052603260045260246000fd5b7f4361726420646f6573206e6f7420657869737400000000000000000000000000600082015250565b60006154d3601383614894565b91506154de8261549d565b602082019050919050565b60006020820190508181036000830152615502816154c6565b9050919050565b7f4163636573732064656e69656400000000000000000000000000000000000000600082015250565b600061553f600d83614894565b915061554a82615509565b602082019050919050565b6000602082019050818103600083015261556e81615532565b9050919050565b6000819050919050565b61559061558b82613b07565b615575565b82525050565b60008160601b9050919050565b60006155ae82615596565b9050919050565b60006155c0826155a3565b9050919050565b6155d86155d382613ac9565b6155b5565b82525050565b60006155ea828661557f565b6020820191506155fa82856155c7565b60148201915061560a828461557f565b602082019150819050949350505050565b7f437265617465642053657373696f6e20546f6b656e0000000000000000000000600082015250565b6000615651601583614894565b915061565c8261561b565b602082019050919050565b600060608201905061567c6000830185614eb6565b818103602083015261568d81615644565b905061569c6040830184614eb6565b9392505050565b7f44656c6574656420644170700000000000000000000000000000000000000000600082015250565b60006156d9600c83614894565b91506156e4826156a3565b602082019050919050565b60006060820190506157046000830185614eb6565b8181036020830152615715816156cc565b90506157246040830184614eb6565b9392505050565b7f43617264206e6f7420666f756e64210000000000000000000000000000000000600082015250565b6000615761600f83614894565b915061576c8261572b565b602082019050919050565b6000602082019050818103600083015261579081615754565b9050919050565b60006157a282613b07565b91506157ad83613b07565b92508282026157bb81613b07565b915082820484148315176157d2576157d1614b2d565b5b5092915050565b7f44656163746976617465642053657373696f6e20546f6b656e00000000000000600082015250565b600061580f601983614894565b915061581a826157d9565b602082019050919050565b600060608201905061583a6000830185614eb6565b818103602083015261584b81615802565b905061585a6040830184614eb6565b9392505050565b7f19457468657265756d205369676e6564204d6573736167653a0a333200000000600082015250565b6000615897601c83614fdf565b91506158a282615861565b601c82019050919050565b6000819050919050565b6158c86158c382613dc3565b6158ad565b82525050565b60006158d98261588a565b91506158e582846158b7565b60208201915081905092915050565b600060ff82169050919050565b61590a816158f4565b82525050565b60006080820190506159256000830187613dcd565b6159326020830186615901565b61593f6040830185613dcd565b61594c6060830184613dcd565b9594505050505056fea2646970667358221220eca93d0c871c8de3bfcc8f42f33e91acf0c9e5ad08465b296d5df684f0b6951264736f6c63430008140033",
  "linkReferences": {},
  "deployedLinkReferences": {}
}