{
  "_format": "hh-sol-artifact-1",
  "contractName": "OAuth",
  "sourceName": "contracts/OAuth.sol",
  "abi": [
    {
      "inputs": [],
      "stateMutability": "nonpayable",
      "type": "constructor"
    },
    {
      "anonymous": false,
      "inputs": [
        {
          "indexed": false,
          "internalType": "uint256",
          "name": "cardId",
          "type": "uint256"
        },
        {
          "indexed": true,
          "internalType": "address",
          "name": "user",
          "type": "address"
        },
        {
          "indexed": false,
          "internalType": "uint256",
          "name": "timestamp",
          "type": "uint256"
        }
      ],
      "name": "CreateCard",
      "type": "event"
    },
    {
      "anonymous": false,
      "inputs": [
        {
          "indexed": true,
          "internalType": "address",
          "name": "user",
          "type": "address"
        },
        {
          "indexed": false,
          "internalType": "uint256",
          "name": "timestamp",
          "type": "uint256"
        }
      ],
      "name": "CreateToken",
      "type": "event"
    },
    {
      "anonymous": false,
      "inputs": [
        {
          "indexed": false,
          "internalType": "uint256",
          "name": "cardId",
          "type": "uint256"
        },
        {
          "indexed": true,
          "internalType": "address",
          "name": "user",
          "type": "address"
        },
        {
          "indexed": false,
          "internalType": "uint256",
          "name": "timestamp",
          "type": "uint256"
        }
      ],
      "name": "DeleteCard",
      "type": "event"
    },
    {
      "anonymous": false,
      "inputs": [
        {
          "indexed": true,
          "internalType": "address",
          "name": "user",
          "type": "address"
        },
        {
          "indexed": false,
          "internalType": "uint256",
          "name": "timestamp",
          "type": "uint256"
        }
      ],
      "name": "DeleteToken",
      "type": "event"
    },
    {
      "anonymous": false,
      "inputs": [
        {
          "indexed": false,
          "internalType": "uint256",
          "name": "dAppId",
          "type": "uint256"
        },
        {
          "indexed": true,
          "internalType": "address",
          "name": "user",
          "type": "address"
        },
        {
          "indexed": false,
          "internalType": "uint256",
          "name": "timestamp",
          "type": "uint256"
        }
      ],
      "name": "DeletedApp",
      "type": "event"
    },
    {
      "anonymous": false,
      "inputs": [
        {
          "indexed": false,
          "internalType": "uint256",
          "name": "dAppId",
          "type": "uint256"
        },
        {
          "indexed": true,
          "internalType": "address",
          "name": "user",
          "type": "address"
        },
        {
          "indexed": false,
          "internalType": "uint256",
          "name": "timestamp",
          "type": "uint256"
        }
      ],
      "name": "RegisterdApp",
      "type": "event"
    },
    {
      "anonymous": false,
      "inputs": [
        {
          "indexed": false,
          "internalType": "uint256",
          "name": "cardId",
          "type": "uint256"
        },
        {
          "indexed": true,
          "internalType": "address",
          "name": "user",
          "type": "address"
        },
        {
          "indexed": false,
          "internalType": "uint256",
          "name": "timestamp",
          "type": "uint256"
        }
      ],
      "name": "UpdateCard",
      "type": "event"
    },
    {
      "inputs": [
        {
          "internalType": "string",
          "name": "username",
          "type": "string"
        },
        {
          "internalType": "string",
          "name": "pfp",
          "type": "string"
        },
        {
          "internalType": "string",
          "name": "email",
          "type": "string"
        },
        {
          "internalType": "string",
          "name": "bio",
          "type": "string"
        }
      ],
      "name": "createCard",
      "outputs": [],
      "stateMutability": "nonpayable",
      "type": "function"
    },
    {
      "inputs": [
        {
          "internalType": "uint256",
          "name": "cardId",
          "type": "uint256"
        },
        {
          "internalType": "uint256",
          "name": "dAppId",
          "type": "uint256"
        },
        {
          "internalType": "address",
          "name": "signer",
          "type": "address"
        },
        {
          "internalType": "uint256",
          "name": "nonce",
          "type": "uint256"
        },
        {
          "internalType": "bytes",
          "name": "signature",
          "type": "bytes"
        }
      ],
      "name": "createToken",
      "outputs": [],
      "stateMutability": "nonpayable",
      "type": "function"
    },
    {
      "inputs": [
        {
          "internalType": "uint256",
          "name": "id",
          "type": "uint256"
        }
      ],
      "name": "deleteCard",
      "outputs": [],
      "stateMutability": "nonpayable",
      "type": "function"
    },
    {
      "inputs": [
        {
          "internalType": "bytes32",
          "name": "token",
          "type": "bytes32"
        }
      ],
      "name": "deleteToken",
      "outputs": [],
      "stateMutability": "nonpayable",
      "type": "function"
    },
    {
      "inputs": [
        {
          "internalType": "uint256",
          "name": "id",
          "type": "uint256"
        }
      ],
      "name": "deletedApp",
      "outputs": [],
      "stateMutability": "nonpayable",
      "type": "function"
    },
    {
      "inputs": [
        {
          "internalType": "bytes32",
          "name": "token",
          "type": "bytes32"
        }
      ],
      "name": "fetchUserInfoFromToken",
      "outputs": [
        {
          "components": [
            {
              "internalType": "uint256",
              "name": "id",
              "type": "uint256"
            },
            {
              "internalType": "address",
              "name": "owner",
              "type": "address"
            },
            {
              "internalType": "string",
              "name": "username",
              "type": "string"
            },
            {
              "internalType": "string",
              "name": "pfp",
              "type": "string"
            },
            {
              "internalType": "string",
              "name": "email",
              "type": "string"
            },
            {
              "internalType": "string",
              "name": "bio",
              "type": "string"
            },
            {
              "internalType": "bool",
              "name": "isDeleted",
              "type": "bool"
            },
            {
              "internalType": "uint256",
              "name": "createdAt",
              "type": "uint256"
            },
            {
              "internalType": "uint256",
              "name": "updatedAt",
              "type": "uint256"
            }
          ],
          "internalType": "struct CARD.Card",
          "name": "",
          "type": "tuple"
        }
      ],
      "stateMutability": "view",
      "type": "function"
    },
    {
      "inputs": [
        {
          "internalType": "bytes32[]",
          "name": "tokens",
          "type": "bytes32[]"
        }
      ],
      "name": "fetchUsersInfoFromTokens",
      "outputs": [
        {
          "components": [
            {
              "internalType": "uint256",
              "name": "id",
              "type": "uint256"
            },
            {
              "internalType": "address",
              "name": "owner",
              "type": "address"
            },
            {
              "internalType": "string",
              "name": "username",
              "type": "string"
            },
            {
              "internalType": "string",
              "name": "pfp",
              "type": "string"
            },
            {
              "internalType": "string",
              "name": "email",
              "type": "string"
            },
            {
              "internalType": "string",
              "name": "bio",
              "type": "string"
            },
            {
              "internalType": "bool",
              "name": "isDeleted",
              "type": "bool"
            },
            {
              "internalType": "uint256",
              "name": "createdAt",
              "type": "uint256"
            },
            {
              "internalType": "uint256",
              "name": "updatedAt",
              "type": "uint256"
            }
          ],
          "internalType": "struct CARD.Card[]",
          "name": "",
          "type": "tuple[]"
        }
      ],
      "stateMutability": "view",
      "type": "function"
    },
    {
      "inputs": [
        {
          "internalType": "address",
          "name": "user",
          "type": "address"
        },
        {
          "internalType": "uint256",
          "name": "dAppId",
          "type": "uint256"
        }
      ],
      "name": "getActiveTokenId",
      "outputs": [
        {
          "internalType": "bool",
          "name": "",
          "type": "bool"
        },
        {
          "internalType": "uint256",
          "name": "",
          "type": "uint256"
        }
      ],
      "stateMutability": "view",
      "type": "function"
    },
    {
      "inputs": [
        {
          "internalType": "uint256",
          "name": "id",
          "type": "uint256"
        }
      ],
      "name": "getCard",
      "outputs": [
        {
          "components": [
            {
              "internalType": "uint256",
              "name": "id",
              "type": "uint256"
            },
            {
              "internalType": "address",
              "name": "owner",
              "type": "address"
            },
            {
              "internalType": "string",
              "name": "username",
              "type": "string"
            },
            {
              "internalType": "string",
              "name": "pfp",
              "type": "string"
            },
            {
              "internalType": "string",
              "name": "email",
              "type": "string"
            },
            {
              "internalType": "string",
              "name": "bio",
              "type": "string"
            },
            {
              "internalType": "bool",
              "name": "isDeleted",
              "type": "bool"
            },
            {
              "internalType": "uint256",
              "name": "createdAt",
              "type": "uint256"
            },
            {
              "internalType": "uint256",
              "name": "updatedAt",
              "type": "uint256"
            }
          ],
          "internalType": "struct CARD.Card",
          "name": "",
          "type": "tuple"
        }
      ],
      "stateMutability": "view",
      "type": "function"
    },
    {
      "inputs": [
        {
          "internalType": "uint256",
          "name": "id",
          "type": "uint256"
        }
      ],
      "name": "getTokenDetails",
      "outputs": [
        {
          "components": [
            {
              "internalType": "uint256",
              "name": "id",
              "type": "uint256"
            },
            {
              "internalType": "uint256",
              "name": "cardId",
              "type": "uint256"
            },
            {
              "internalType": "uint256",
              "name": "dAppId",
              "type": "uint256"
            },
            {
              "internalType": "address",
              "name": "user",
              "type": "address"
            },
            {
              "internalType": "bytes32",
              "name": "token",
              "type": "bytes32"
            },
            {
              "internalType": "bool",
              "name": "isDeleted",
              "type": "bool"
            },
            {
              "internalType": "uint256",
              "name": "createdAt",
              "type": "uint256"
            },
            {
              "internalType": "uint256",
              "name": "updatedAt",
              "type": "uint256"
            }
          ],
          "internalType": "struct TOKEN.Token",
          "name": "",
          "type": "tuple"
        }
      ],
      "stateMutability": "view",
      "type": "function"
    },
    {
      "inputs": [
        {
          "internalType": "address",
          "name": "user",
          "type": "address"
        }
      ],
      "name": "getUserCards",
      "outputs": [
        {
          "components": [
            {
              "internalType": "uint256",
              "name": "id",
              "type": "uint256"
            },
            {
              "internalType": "address",
              "name": "owner",
              "type": "address"
            },
            {
              "internalType": "string",
              "name": "username",
              "type": "string"
            },
            {
              "internalType": "string",
              "name": "pfp",
              "type": "string"
            },
            {
              "internalType": "string",
              "name": "email",
              "type": "string"
            },
            {
              "internalType": "string",
              "name": "bio",
              "type": "string"
            },
            {
              "internalType": "bool",
              "name": "isDeleted",
              "type": "bool"
            },
            {
              "internalType": "uint256",
              "name": "createdAt",
              "type": "uint256"
            },
            {
              "internalType": "uint256",
              "name": "updatedAt",
              "type": "uint256"
            }
          ],
          "internalType": "struct CARD.Card[]",
          "name": "",
          "type": "tuple[]"
        }
      ],
      "stateMutability": "view",
      "type": "function"
    },
    {
      "inputs": [
        {
          "internalType": "uint256",
          "name": "id",
          "type": "uint256"
        }
      ],
      "name": "getdApp",
      "outputs": [
        {
          "components": [
            {
              "internalType": "uint256",
              "name": "id",
              "type": "uint256"
            },
            {
              "internalType": "string",
              "name": "domain",
              "type": "string"
            },
            {
              "internalType": "bytes32",
              "name": "accessToken",
              "type": "bytes32"
            },
            {
              "internalType": "address",
              "name": "owner",
              "type": "address"
            },
            {
              "internalType": "bool",
              "name": "isDeleted",
              "type": "bool"
            },
            {
              "internalType": "uint256",
              "name": "createdAt",
              "type": "uint256"
            },
            {
              "internalType": "uint256",
              "name": "updatedAt",
              "type": "uint256"
            }
          ],
          "internalType": "struct DAPP.dApp",
          "name": "",
          "type": "tuple"
        }
      ],
      "stateMutability": "view",
      "type": "function"
    },
    {
      "inputs": [
        {
          "internalType": "bytes32",
          "name": "token",
          "type": "bytes32"
        }
      ],
      "name": "getdAppFromToken",
      "outputs": [
        {
          "components": [
            {
              "internalType": "uint256",
              "name": "id",
              "type": "uint256"
            },
            {
              "internalType": "string",
              "name": "domain",
              "type": "string"
            },
            {
              "internalType": "bytes32",
              "name": "accessToken",
              "type": "bytes32"
            },
            {
              "internalType": "address",
              "name": "owner",
              "type": "address"
            },
            {
              "internalType": "bool",
              "name": "isDeleted",
              "type": "bool"
            },
            {
              "internalType": "uint256",
              "name": "createdAt",
              "type": "uint256"
            },
            {
              "internalType": "uint256",
              "name": "updatedAt",
              "type": "uint256"
            }
          ],
          "internalType": "struct DAPP.dApp",
          "name": "",
          "type": "tuple"
        }
      ],
      "stateMutability": "view",
      "type": "function"
    },
    {
      "inputs": [
        {
          "internalType": "string",
          "name": "domain",
          "type": "string"
        }
      ],
      "name": "getdAppIdFromDomain",
      "outputs": [
        {
          "internalType": "uint256",
          "name": "",
          "type": "uint256"
        }
      ],
      "stateMutability": "view",
      "type": "function"
    },
    {
      "inputs": [],
      "name": "getdApps",
      "outputs": [
        {
          "components": [
            {
              "internalType": "uint256",
              "name": "id",
              "type": "uint256"
            },
            {
              "internalType": "string",
              "name": "domain",
              "type": "string"
            },
            {
              "internalType": "bytes32",
              "name": "accessToken",
              "type": "bytes32"
            },
            {
              "internalType": "address",
              "name": "owner",
              "type": "address"
            },
            {
              "internalType": "bool",
              "name": "isDeleted",
              "type": "bool"
            },
            {
              "internalType": "uint256",
              "name": "createdAt",
              "type": "uint256"
            },
            {
              "internalType": "uint256",
              "name": "updatedAt",
              "type": "uint256"
            }
          ],
          "internalType": "struct DAPP.dApp[]",
          "name": "",
          "type": "tuple[]"
        }
      ],
      "stateMutability": "view",
      "type": "function"
    },
    {
      "inputs": [
        {
          "internalType": "uint256",
          "name": "cardId",
          "type": "uint256"
        }
      ],
      "name": "getdAppsConnectedToCard",
      "outputs": [
        {
          "components": [
            {
              "internalType": "uint256",
              "name": "id",
              "type": "uint256"
            },
            {
              "internalType": "string",
              "name": "domain",
              "type": "string"
            },
            {
              "internalType": "bytes32",
              "name": "accessToken",
              "type": "bytes32"
            },
            {
              "internalType": "address",
              "name": "owner",
              "type": "address"
            },
            {
              "internalType": "bool",
              "name": "isDeleted",
              "type": "bool"
            },
            {
              "internalType": "uint256",
              "name": "createdAt",
              "type": "uint256"
            },
            {
              "internalType": "uint256",
              "name": "updatedAt",
              "type": "uint256"
            }
          ],
          "internalType": "struct DAPP.dApp[]",
          "name": "",
          "type": "tuple[]"
        }
      ],
      "stateMutability": "view",
      "type": "function"
    },
    {
      "inputs": [
        {
          "internalType": "string",
          "name": "domain",
          "type": "string"
        }
      ],
      "name": "registerdApp",
      "outputs": [],
      "stateMutability": "nonpayable",
      "type": "function"
    },
    {
      "inputs": [],
      "name": "totalCards",
      "outputs": [
        {
          "internalType": "uint256",
          "name": "",
          "type": "uint256"
        }
      ],
      "stateMutability": "view",
      "type": "function"
    },
    {
      "inputs": [],
      "name": "totalTokens",
      "outputs": [
        {
          "internalType": "uint256",
          "name": "",
          "type": "uint256"
        }
      ],
      "stateMutability": "view",
      "type": "function"
    },
    {
      "inputs": [],
      "name": "totaldApps",
      "outputs": [
        {
          "internalType": "uint256",
          "name": "",
          "type": "uint256"
        }
      ],
      "stateMutability": "view",
      "type": "function"
    },
    {
      "inputs": [
        {
          "internalType": "address",
          "name": "signer",
          "type": "address"
        },
        {
          "internalType": "uint256",
          "name": "dAppId",
          "type": "uint256"
        },
        {
          "internalType": "uint256",
          "name": "nonce",
          "type": "uint256"
        },
        {
          "internalType": "bytes",
          "name": "signature",
          "type": "bytes"
        }
      ],
      "name": "triggerLogin",
      "outputs": [
        {
          "internalType": "bytes32",
          "name": "",
          "type": "bytes32"
        },
        {
          "components": [
            {
              "internalType": "uint256",
              "name": "id",
              "type": "uint256"
            },
            {
              "internalType": "address",
              "name": "owner",
              "type": "address"
            },
            {
              "internalType": "string",
              "name": "username",
              "type": "string"
            },
            {
              "internalType": "string",
              "name": "pfp",
              "type": "string"
            },
            {
              "internalType": "string",
              "name": "email",
              "type": "string"
            },
            {
              "internalType": "string",
              "name": "bio",
              "type": "string"
            },
            {
              "internalType": "bool",
              "name": "isDeleted",
              "type": "bool"
            },
            {
              "internalType": "uint256",
              "name": "createdAt",
              "type": "uint256"
            },
            {
              "internalType": "uint256",
              "name": "updatedAt",
              "type": "uint256"
            }
          ],
          "internalType": "struct CARD.Card[]",
          "name": "",
          "type": "tuple[]"
        }
      ],
      "stateMutability": "view",
      "type": "function"
    },
    {
      "inputs": [
        {
          "internalType": "uint256",
          "name": "id",
          "type": "uint256"
        },
        {
          "internalType": "string",
          "name": "username",
          "type": "string"
        },
        {
          "internalType": "string",
          "name": "pfp",
          "type": "string"
        },
        {
          "internalType": "string",
          "name": "email",
          "type": "string"
        },
        {
          "internalType": "string",
          "name": "bio",
          "type": "string"
        }
      ],
      "name": "updateCard",
      "outputs": [],
      "stateMutability": "nonpayable",
      "type": "function"
    }
  ],
  "bytecode": "0x60806040523480156200001157600080fd5b5033600360006101000a81548173ffffffffffffffffffffffffffffffffffffffff021916908373ffffffffffffffffffffffffffffffffffffffff160217905550620000996040518060400160405280600981526020017f6c6f63616c686f737400000000000000000000000000000000000000000000008152506200009f60201b60201c565b62000d09565b6000815103620000e6576040517f08c379a0000000000000000000000000000000000000000000000000000000008152600401620000dd906200062d565b60405180910390fd5b60006200012f826040518060400160405280600981526020017f6c6f63616c686f737400000000000000000000000000000000000000000000008152506200025560201b60201c565b90508080156200014b5750600360149054906101000a900460ff165b156200018e576040517f08c379a000000000000000000000000000000000000000000000000000000000815260040162000185906200069f565b60405180910390fd5b6001600360146101000a81548160ff021916908315150217905550620001c6600760086009600a600b3388886200029760201b60201c565b60026000815480929190620001db90620006fa565b919050555080620001ed5733620001f0565b60005b73ffffffffffffffffffffffffffffffffffffffff167f38c218d407ab09a28ad8ac48d547cc738df834b4ef0ac7fb464af97679525b2b600160025462000238919062000747565b426040516200024992919062000793565b60405180910390a25050565b600081518351146200026b576000905062000291565b6200027c826200059a60201b60201c565b6200028d846200059a60201b60201c565b1490505b92915050565b60008683604051620002aa919062000839565b90815260200160405180910390205414620002fc576040517f08c379a0000000000000000000000000000000000000000000000000000000008152600401620002f390620008a2565b60405180910390fd5b600088805490509050600073__$e47faa944e4dc2fafddac4070fbe11d151$__63b063152a856040518263ffffffff1660e01b815260040162000340919062000927565b602060405180830381865af41580156200035e573d6000803e3d6000fd5b505050506040513d601f19601f820116820180604052508101906200038491906200098b565b9050896040518060e0016040528084815260200186815260200183815260200185620003b15787620003b4565b60005b73ffffffffffffffffffffffffffffffffffffffff1681526020016000151581526020014281526020014281525090806001815401808255809150506001900390600052602060002090600602016000909190919091506000820151816000015560208201518160010190816200042c919062000c22565b506040820151816002015560608201518160030160006101000a81548173ffffffffffffffffffffffffffffffffffffffff021916908373ffffffffffffffffffffffffffffffffffffffff16021790555060808201518160030160146101000a81548160ff02191690831515021790555060a0820151816004015560c082015181600501555050818885604051620004c6919062000839565b908152602001604051809103902081905550600187600084815260200190815260200160002060006101000a81548160ff0219169083151502179055508860008462000513578662000516565b60005b73ffffffffffffffffffffffffffffffffffffffff1673ffffffffffffffffffffffffffffffffffffffff168152602001908152602001600020829080600181540180825580915050600190039060005260206000200160009091909190915055818660008381526020019081526020016000208190555050505050505050505050565b600081604051602001620005af919062000839565b604051602081830303815290604052805190602001209050919050565b600082825260208201905092915050565b7f646f6d61696e2069732072657175697265640000000000000000000000000000600082015250565b600062000615601283620005cc565b91506200062282620005dd565b602082019050919050565b60006020820190508181036000830152620006488162000606565b9050919050565b7f6261642072657175657374000000000000000000000000000000000000000000600082015250565b600062000687600b83620005cc565b915062000694826200064f565b602082019050919050565b60006020820190508181036000830152620006ba8162000678565b9050919050565b7f4e487b7100000000000000000000000000000000000000000000000000000000600052601160045260246000fd5b6000819050919050565b60006200070782620006f0565b91507fffffffffffffffffffffffffffffffffffffffffffffffffffffffffffffffff82036200073c576200073b620006c1565b5b600182019050919050565b60006200075482620006f0565b91506200076183620006f0565b92508282039050818111156200077c576200077b620006c1565b5b92915050565b6200078d81620006f0565b82525050565b6000604082019050620007aa600083018562000782565b620007b9602083018462000782565b9392505050565b600081519050919050565b600081905092915050565b60005b83811015620007f6578082015181840152602081019050620007d9565b60008484015250505050565b60006200080f82620007c0565b6200081b8185620007cb565b93506200082d818560208601620007d6565b80840191505092915050565b600062000847828462000802565b915081905092915050565b7f647570696361746520646f6d61696e20656e7472790000000000000000000000600082015250565b60006200088a601583620005cc565b9150620008978262000852565b602082019050919050565b60006020820190508181036000830152620008bd816200087b565b9050919050565b600082825260208201905092915050565b6000601f19601f8301169050919050565b6000620008f382620007c0565b620008ff8185620008c4565b935062000911818560208601620007d6565b6200091c81620008d5565b840191505092915050565b60006020820190508181036000830152620009438184620008e6565b905092915050565b600080fd5b6000819050919050565b620009658162000950565b81146200097157600080fd5b50565b60008151905062000985816200095a565b92915050565b600060208284031215620009a457620009a36200094b565b5b6000620009b48482850162000974565b91505092915050565b7f4e487b7100000000000000000000000000000000000000000000000000000000600052604160045260246000fd5b7f4e487b7100000000000000000000000000000000000000000000000000000000600052602260045260246000fd5b6000600282049050600182168062000a3457607f821691505b60208210810362000a4a5762000a49620009ec565b5b50919050565b60008190508160005260206000209050919050565b60006020601f8301049050919050565b600082821b905092915050565b60006008830262000ab47fffffffffffffffffffffffffffffffffffffffffffffffffffffffffffffffff8262000a75565b62000ac0868362000a75565b95508019841693508086168417925050509392505050565b6000819050919050565b600062000b0362000afd62000af784620006f0565b62000ad8565b620006f0565b9050919050565b6000819050919050565b62000b1f8362000ae2565b62000b3762000b2e8262000b0a565b84845462000a82565b825550505050565b600090565b62000b4e62000b3f565b62000b5b81848462000b14565b505050565b5b8181101562000b835762000b7760008262000b44565b60018101905062000b61565b5050565b601f82111562000bd25762000b9c8162000a50565b62000ba78462000a65565b8101602085101562000bb7578190505b62000bcf62000bc68562000a65565b83018262000b60565b50505b505050565b600082821c905092915050565b600062000bf76000198460080262000bd7565b1980831691505092915050565b600062000c12838362000be4565b9150826002028217905092915050565b62000c2d82620007c0565b67ffffffffffffffff81111562000c495762000c48620009bd565b5b62000c55825462000a1b565b62000c6282828562000b87565b600060209050601f83116001811462000c9a576000841562000c85578287015190505b62000c91858262000c04565b86555062000d01565b601f19841662000caa8662000a50565b60005b8281101562000cd45784890151825560018201915060208501945060208101905062000cad565b8683101562000cf4578489015162000cf0601f89168262000be4565b8355505b6001600288020188555050505b505050505050565b615ec38062000d196000396000f3fe608060405234801561001057600080fd5b50600436106101425760003560e01c806392d15c7c116100b8578063c1e037281161007c578063c1e037281461039b578063e7b49088146103cb578063e994c15d146103fb578063ed886b2714610419578063f1a3b94314610449578063f7eeea6a1461046557610142565b806392d15c7c146102d0578063968652f31461030057806397be2d5314610330578063a5e029b11461034e578063b10926671461037f57610142565b80634add3ac51161010a5780634add3ac5146101fc5780635e1acf651461021a5780637e1c0c0914610236578063801b13c41461025457806388d9f40d146102705780639188d312146102a057610142565b80630510271c146101475780630c2ad3f9146101785780631fc93a3a1461019457806329b579f7146101c457806348bf10c9146101e0575b600080fd5b610161600480360381019061015c9190614585565b610495565b60405161016f929190614875565b60405180910390f35b610192600480360381019061018d9190614946565b6105c5565b005b6101ae60048036038101906101a99190614a1d565b610688565b6040516101bb9190614af5565b60405180910390f35b6101de60048036038101906101d99190614a1d565b6106fe565b005b6101fa60048036038101906101f59190614b17565b61089e565b005b61020461093c565b6040516102119190614c11565b60405180910390f35b610234600480360381019061022f9190614a1d565b610942565b005b61023e6109a3565b60405161024b9190614c11565b60405180910390f35b61026e60048036038101906102699190614c2c565b6109a9565b005b61028a60048036038101906102859190614c75565b610b40565b6040516102979190614ca2565b60405180910390f35b6102ba60048036038101906102b59190614a1d565b610bb2565b6040516102c79190614d9e565b60405180910390f35b6102ea60048036038101906102e59190614dec565b610c86565b6040516102f79190614d9e565b60405180910390f35b61031a60048036038101906103159190614c2c565b611052565b6040516103279190614c11565b60405180910390f35b6103386110e7565b6040516103459190614f77565b60405180910390f35b61036860048036038101906103639190614f99565b6110fd565b604051610376929190614fe8565b60405180910390f35b61039960048036038101906103949190615011565b6112b7565b005b6103b560048036038101906103b09190614a1d565b6113af565b6040516103c2919061514a565b60405180910390f35b6103e560048036038101906103e09190614a1d565b611425565b6040516103f29190614f77565b60405180910390f35b6104036118d1565b6040516104109190614c11565b60405180910390f35b610433600480360381019061042e9190614dec565b6118d7565b6040516104409190614af5565b60405180910390f35b610463600480360381019061045e9190614dec565b611967565b005b61047f600480360381019061047a919061522e565b6119db565b60405161048c9190614ca2565b60405180910390f35b600060603373ffffffffffffffffffffffffffffffffffffffff16600360009054906101000a900473ffffffffffffffffffffffffffffffffffffffff1673ffffffffffffffffffffffffffffffffffffffff16146104f357600080fd5b6104fe848488611e2f565b61050757600080fd5b60008061051488886110fd565b9150915081156105a457600c818154811061053257610531615277565b5b906000526020600020906008020160040154600067ffffffffffffffff81111561055f5761055e61445a565b5b60405190808252806020026020018201604052801561059857816020015b61058561427b565b81526020019060019003908161057d5790505b509350935050506105bc565b60006105af89610b40565b8160001b91509350935050505b94509492505050565b600084511180156105d7575060008351115b80156105e4575060008251115b80156105f1575060008151115b6105fa57600080fd5b61060d600460056006338888888861204d565b60008081548092919061061f906152d5565b91905055503373ffffffffffffffffffffffffffffffffffffffff167f779361fe8de3a59da5c59d133119cf78c0706260542a08cd8ea6475870134367600160005461066b919061531d565b4260405161067a929190615351565b60405180910390a250505050565b6106906142df565b3373ffffffffffffffffffffffffffffffffffffffff16600360009054906101000a900473ffffffffffffffffffffffffffffffffffffffff1673ffffffffffffffffffffffffffffffffffffffff16146106ea57600080fd5b6106f76007600a84612254565b9050919050565b600a600082815260200190815260200160002060009054906101000a900460ff1661075e576040517f08c379a0000000000000000000000000000000000000000000000000000000008152600401610755906153d7565b60405180910390fd5b3373ffffffffffffffffffffffffffffffffffffffff166007828154811061078957610788615277565b5b906000526020600020906006020160030160009054906101000a900473ffffffffffffffffffffffffffffffffffffffff1673ffffffffffffffffffffffffffffffffffffffff16148061082a5750600360009054906101000a900473ffffffffffffffffffffffffffffffffffffffff1673ffffffffffffffffffffffffffffffffffffffff163373ffffffffffffffffffffffffffffffffffffffff16145b61083357600080fd5b61084260076009600a8461241b565b61084b816124f8565b3373ffffffffffffffffffffffffffffffffffffffff167fbd81a0594dd8ad3d8a63942a67b1eabb1dbc8b59f46315753d3d1f61a4952fc08242604051610893929190615351565b60405180910390a250565b600084511180156108b0575060008351115b80156108bd575060008251115b80156108ca575060008151115b6108d357600080fd5b6108e5600460063388888888886125be565b3373ffffffffffffffffffffffffffffffffffffffff167fe172739fcd2c1344b918e5979a85167a8c38da7f33e26d6d2497cedeb551bc6e864260405161092d929190615351565b60405180910390a25050505050565b60025481565b61095060046006338461271a565b3373ffffffffffffffffffffffffffffffffffffffff167fc8d59d0304b179a93831748dcb35af0e80f6464ee84bcc11f1e368f1ceb25ec58242604051610998929190615351565b60405180910390a250565b60015481565b60008151036109ed576040517f08c379a00000000000000000000000000000000000000000000000000000000081526004016109e490615443565b60405180910390fd5b6000610a2e826040518060400160405280600981526020017f6c6f63616c686f73740000000000000000000000000000000000000000000000815250612872565b9050808015610a495750600360149054906101000a900460ff165b15610a89576040517f08c379a0000000000000000000000000000000000000000000000000000000008152600401610a80906154af565b60405180910390fd5b6001600360146101000a81548160ff021916908315150217905550610ab9600760086009600a600b3388886128a2565b60026000815480929190610acc906152d5565b919050555080610adc5733610adf565b60005b73ffffffffffffffffffffffffffffffffffffffff167f38c218d407ab09a28ad8ac48d547cc738df834b4ef0ac7fb464af97679525b2b6001600254610b25919061531d565b42604051610b34929190615351565b60405180910390a25050565b60603373ffffffffffffffffffffffffffffffffffffffff16600360009054906101000a900473ffffffffffffffffffffffffffffffffffffffff1673ffffffffffffffffffffffffffffffffffffffff1614610b9c57600080fd5b610bab60046005600685612b93565b9050919050565b610bba61427b565b3373ffffffffffffffffffffffffffffffffffffffff16600360009054906101000a900473ffffffffffffffffffffffffffffffffffffffff1673ffffffffffffffffffffffffffffffffffffffff1614610c1457600080fd5b6006600083815260200190815260200160002060009054906101000a900460ff16610c74576040517f08c379a0000000000000000000000000000000000000000000000000000000008152600401610c6b906153d7565b60405180910390fd5b610c7f600483613058565b9050919050565b610c8e61427b565b6000610c998361336c565b905060066000600c8381548110610cb357610cb2615277565b5b906000526020600020906008020160010154815260200190815260200160002060009054906101000a900460ff16610d20576040517f08c379a0000000000000000000000000000000000000000000000000000000008152600401610d17906153d7565b60405180910390fd5b6004600c8281548110610d3657610d35615277565b5b90600052602060002090600802016001015481548110610d5957610d58615277565b5b906000526020600020906009020160405180610120016040529081600082015481526020016001820160009054906101000a900473ffffffffffffffffffffffffffffffffffffffff1673ffffffffffffffffffffffffffffffffffffffff1673ffffffffffffffffffffffffffffffffffffffff168152602001600282018054610de3906154fe565b80601f0160208091040260200160405190810160405280929190818152602001828054610e0f906154fe565b8015610e5c5780601f10610e3157610100808354040283529160200191610e5c565b820191906000526020600020905b815481529060010190602001808311610e3f57829003601f168201915b50505050508152602001600382018054610e75906154fe565b80601f0160208091040260200160405190810160405280929190818152602001828054610ea1906154fe565b8015610eee5780601f10610ec357610100808354040283529160200191610eee565b820191906000526020600020905b815481529060010190602001808311610ed157829003601f168201915b50505050508152602001600482018054610f07906154fe565b80601f0160208091040260200160405190810160405280929190818152602001828054610f33906154fe565b8015610f805780601f10610f5557610100808354040283529160200191610f80565b820191906000526020600020905b815481529060010190602001808311610f6357829003601f168201915b50505050508152602001600582018054610f99906154fe565b80601f0160208091040260200160405190810160405280929190818152602001828054610fc5906154fe565b80156110125780601f10610fe757610100808354040283529160200191611012565b820191906000526020600020905b815481529060010190602001808311610ff557829003601f168201915b505050505081526020016006820160009054906101000a900460ff1615151515815260200160078201548152602001600882015481525050915050919050565b60003373ffffffffffffffffffffffffffffffffffffffff16600360009054906101000a900473ffffffffffffffffffffffffffffffffffffffff1673ffffffffffffffffffffffffffffffffffffffff16146110ae57600080fd5b60006009836040516110c0919061556b565b90815260200160405180910390205490506110df6007600a8584613384565b915050919050565b60606110f860076008600a336134af565b905090565b6000803373ffffffffffffffffffffffffffffffffffffffff16600360009054906101000a900473ffffffffffffffffffffffffffffffffffffffff1673ffffffffffffffffffffffffffffffffffffffff161461115a57600080fd5b6000600f60008673ffffffffffffffffffffffffffffffffffffffff1673ffffffffffffffffffffffffffffffffffffffff16815260200190815260200160002060008581526020019081526020016000205490508473ffffffffffffffffffffffffffffffffffffffff16600c82815481106111da576111d9615277565b5b906000526020600020906008020160030160009054906101000a900473ffffffffffffffffffffffffffffffffffffffff1673ffffffffffffffffffffffffffffffffffffffff16148015611253575083600c828154811061123f5761123e615277565b5b906000526020600020906008020160020154145b8015611295575060001515600c828154811061127257611271615277565b5b906000526020600020906008020160050160009054906101000a900460ff161515145b156112a75760018192509250506112b0565b60008092509250505b9250929050565b3373ffffffffffffffffffffffffffffffffffffffff16600360009054906101000a900473ffffffffffffffffffffffffffffffffffffffff1673ffffffffffffffffffffffffffffffffffffffff161461131157600080fd5b61131c828285611e2f565b61132557600080fd5b611342600c600d600e600f601060116006600a60048e8e8e6137c7565b60016000815480929190611355906152d5565b91905055508273ffffffffffffffffffffffffffffffffffffffff167fb378e89b40ac5bbe0e2241b596fbe1adc3cf1fb7c982aa1b4560165cf264ee93426040516113a09190614c11565b60405180910390a25050505050565b6113b7614337565b3373ffffffffffffffffffffffffffffffffffffffff16600360009054906101000a900473ffffffffffffffffffffffffffffffffffffffff1673ffffffffffffffffffffffffffffffffffffffff161461141157600080fd5b61141e600c600d84613b73565b9050919050565b60603373ffffffffffffffffffffffffffffffffffffffff16600360009054906101000a900473ffffffffffffffffffffffffffffffffffffffff1673ffffffffffffffffffffffffffffffffffffffff161461148157600080fd5b6006600083815260200190815260200160002060009054906101000a900460ff166114e1576040517f08c379a00000000000000000000000000000000000000000000000000000000081526004016114d8906153d7565b60405180910390fd5b3373ffffffffffffffffffffffffffffffffffffffff166004838154811061150c5761150b615277565b5b906000526020600020906009020160010160009054906101000a900473ffffffffffffffffffffffffffffffffffffffff1673ffffffffffffffffffffffffffffffffffffffff1614806115ad5750600360009054906101000a900473ffffffffffffffffffffffffffffffffffffffff1673ffffffffffffffffffffffffffffffffffffffff163373ffffffffffffffffffffffffffffffffffffffff16145b6115b657600080fd5b600080600090505b601060008581526020019081526020016000208054905081101561165357600a600060106000878152602001908152602001600020838154811061160557611604615277565b5b9060005260206000200154815260200190815260200160002060009054906101000a900460ff161561164057818061163c906152d5565b9250505b808061164b906152d5565b9150506115be565b5060008167ffffffffffffffff8111156116705761166f61445a565b5b6040519080825280602002602001820160405280156116a957816020015b6116966142df565b81526020019060019003908161168e5790505b509050600080600090505b60106000878152602001908152602001600020805490508110156118c55760006010600088815260200190815260200160002082815481106116f9576116f8615277565b5b90600052602060002001549050600a600082815260200190815260200160002060009054906101000a900460ff16156118b157600781815481106117405761173f615277565b5b90600052602060002090600602016040518060e001604052908160008201548152602001600182018054611773906154fe565b80601f016020809104026020016040519081016040528092919081815260200182805461179f906154fe565b80156117ec5780601f106117c1576101008083540402835291602001916117ec565b820191906000526020600020905b8154815290600101906020018083116117cf57829003601f168201915b50505050508152602001600282015481526020016003820160009054906101000a900473ffffffffffffffffffffffffffffffffffffffff1673ffffffffffffffffffffffffffffffffffffffff1673ffffffffffffffffffffffffffffffffffffffff1681526020016003820160149054906101000a900460ff161515151581526020016004820154815260200160058201548152505084848151811061189757611896615277565b5b602002602001018190525082806118ad906152d5565b9350505b5080806118bd906152d5565b9150506116b4565b50819350505050919050565b60005481565b6118df6142df565b3373ffffffffffffffffffffffffffffffffffffffff16600360009054906101000a900473ffffffffffffffffffffffffffffffffffffffff1673ffffffffffffffffffffffffffffffffffffffff161461193957600080fd5b6000600b600084815260200190815260200160002054905061195f6007600a8386613cbd565b915050919050565b3373ffffffffffffffffffffffffffffffffffffffff16600360009054906101000a900473ffffffffffffffffffffffffffffffffffffffff1673ffffffffffffffffffffffffffffffffffffffff16146119c157600080fd5b60006119cc8261336c565b90506119d781613eb5565b5050565b60606000825167ffffffffffffffff8111156119fa576119f961445a565b5b604051908082528060200260200182016040528015611a3357816020015b611a2061427b565b815260200190600190039081611a185790505b509050600080600090505b8451811015611e24576000611a6c868381518110611a5f57611a5e615277565b5b602002602001015161336c565b905060066000600c8381548110611a8657611a85615277565b5b906000526020600020906008020160010154815260200190815260200160002060009054906101000a900460ff1615611e10576004600c8281548110611acf57611ace615277565b5b90600052602060002090600802016001015481548110611af257611af1615277565b5b906000526020600020906009020160405180610120016040529081600082015481526020016001820160009054906101000a900473ffffffffffffffffffffffffffffffffffffffff1673ffffffffffffffffffffffffffffffffffffffff1673ffffffffffffffffffffffffffffffffffffffff168152602001600282018054611b7c906154fe565b80601f0160208091040260200160405190810160405280929190818152602001828054611ba8906154fe565b8015611bf55780601f10611bca57610100808354040283529160200191611bf5565b820191906000526020600020905b815481529060010190602001808311611bd857829003601f168201915b50505050508152602001600382018054611c0e906154fe565b80601f0160208091040260200160405190810160405280929190818152602001828054611c3a906154fe565b8015611c875780601f10611c5c57610100808354040283529160200191611c87565b820191906000526020600020905b815481529060010190602001808311611c6a57829003601f168201915b50505050508152602001600482018054611ca0906154fe565b80601f0160208091040260200160405190810160405280929190818152602001828054611ccc906154fe565b8015611d195780601f10611cee57610100808354040283529160200191611d19565b820191906000526020600020905b815481529060010190602001808311611cfc57829003601f168201915b50505050508152602001600582018054611d32906154fe565b80601f0160208091040260200160405190810160405280929190818152602001828054611d5e906154fe565b8015611dab5780601f10611d8057610100808354040283529160200191611dab565b820191906000526020600020905b815481529060010190602001808311611d8e57829003601f168201915b505050505081526020016006820160009054906101000a900460ff1615151515815260200160078201548152602001600882015481525050848481518110611df657611df5615277565b5b60200260200101819052508280611e0c906152d5565b9350505b508080611e1c906152d5565b915050611a3e565b508192505050919050565b600080604051806080016040528060528152602001615e3c60529139604051602001611e5b919061556b565b604051602081830303815290604052805190602001206040518060400160405280600a81526020017f57656233204f4175746800000000000000000000000000000000000000000000815250604051602001611eb7919061556b565b604051602081830303815290604052805190602001206040518060400160405280600181526020017f3100000000000000000000000000000000000000000000000000000000000000815250604051602001611f13919061556b565b604051602081830303815290604052805190602001206203113e30604051602001611f42959493929190615591565b6040516020818303038152906040528051906020012090506000816040518060400160405280601681526020017f4d6573736167652875696e74323536206e6f6e63652900000000000000000000815250604051602001611fa3919061556b565b6040516020818303038152906040528051906020012087604051602001611fcb9291906155e4565b60405160208183030381529060405280519060200120604051602001611ff292919061567a565b6040516020818303038152906040528051906020012090508373ffffffffffffffffffffffffffffffffffffffff1661202b8683613f58565b73ffffffffffffffffffffffffffffffffffffffff1614925050509392505050565b600088805490509050886040518061012001604052808381526020018873ffffffffffffffffffffffffffffffffffffffff1681526020018781526020018681526020018581526020018481526020016000151581526020014281526020014281525090806001815401808255809150506001900390600052602060002090600902016000909190919091506000820151816000015560208201518160010160006101000a81548173ffffffffffffffffffffffffffffffffffffffff021916908373ffffffffffffffffffffffffffffffffffffffff160217905550604082015181600201908161213f919061585d565b506060820151816003019081612155919061585d565b50608082015181600401908161216b919061585d565b5060a0820151816005019081612181919061585d565b5060c08201518160060160006101000a81548160ff02191690831515021790555060e08201518160070155610100820151816008015550508760008773ffffffffffffffffffffffffffffffffffffffff1673ffffffffffffffffffffffffffffffffffffffff168152602001908152602001600020819080600181540180825580915050600190039060005260206000200160009091909190915055600187600083815260200190815260200160002060006101000a81548160ff021916908315150217905550505050505050505050565b61225c6142df565b82600083815260200190815260200160002060009054906101000a900460ff166122bb576040517f08c379a00000000000000000000000000000000000000000000000000000000081526004016122b2906153d7565b60405180910390fd5b8382815481106122ce576122cd615277565b5b90600052602060002090600602016040518060e001604052908160008201548152602001600182018054612301906154fe565b80601f016020809104026020016040519081016040528092919081815260200182805461232d906154fe565b801561237a5780601f1061234f5761010080835404028352916020019161237a565b820191906000526020600020905b81548152906001019060200180831161235d57829003601f168201915b50505050508152602001600282015481526020016003820160009054906101000a900473ffffffffffffffffffffffffffffffffffffffff1673ffffffffffffffffffffffffffffffffffffffff1673ffffffffffffffffffffffffffffffffffffffff1681526020016003820160149054906101000a900460ff161515151581526020016004820154815260200160058201548152505090509392505050565b60008385838154811061243157612430615277565b5b906000526020600020906006020160010160405161244f91906159b2565b908152602001604051809103902081905550600082600083815260200190815260200160002060006101000a81548160ff02191690831515021790555060018482815481106124a1576124a0615277565b5b906000526020600020906006020160030160146101000a81548160ff021916908315150217905550428482815481106124dd576124dc615277565b5b90600052602060002090600602016005018190555050505050565b60005b60116000838152602001908152602001600020805490508110156125ba57600d600060116000858152602001908152602001600020838154811061254257612541615277565b5b9060005260206000200154815260200190815260200160002060009054906101000a900460ff16156125a7576125a660116000848152602001908152602001600020828154811061259657612595615277565b5b9060005260206000200154613eb5565b5b80806125b2906152d5565b9150506124fb565b5050565b86600086815260200190815260200160002060009054906101000a900460ff1661261d576040517f08c379a0000000000000000000000000000000000000000000000000000000008152600401612614906153d7565b60405180910390fd5b8573ffffffffffffffffffffffffffffffffffffffff1688868154811061264757612646615277565b5b906000526020600020906009020160010160009054906101000a900473ffffffffffffffffffffffffffffffffffffffff1673ffffffffffffffffffffffffffffffffffffffff161461269957600080fd5b60008886815481106126ae576126ad615277565b5b90600052602060002090600902019050848160020190816126cf919061585d565b50838160030190816126e1919061585d565b50828160040190816126f3919061585d565b5081816005019081612705919061585d565b50428160080181905550505050505050505050565b82600082815260200190815260200160002060009054906101000a900460ff16612779576040517f08c379a0000000000000000000000000000000000000000000000000000000008152600401612770906153d7565b60405180910390fd5b8173ffffffffffffffffffffffffffffffffffffffff168482815481106127a3576127a2615277565b5b906000526020600020906009020160010160009054906101000a900473ffffffffffffffffffffffffffffffffffffffff1673ffffffffffffffffffffffffffffffffffffffff16146127f557600080fd5b600084828154811061280a57612809615277565b5b9060005260206000209060090201905060018160060160006101000a81548160ff021916908315150217905550428160080181905550600084600084815260200190815260200160002060006101000a81548160ff0219169083151502179055505050505050565b60008151835114612886576000905061289c565b61288f82614084565b61289884614084565b1490505b92915050565b600086836040516128b3919061556b565b90815260200160405180910390205414612902576040517f08c379a00000000000000000000000000000000000000000000000000000000081526004016128f990615a15565b60405180910390fd5b600088805490509050600073__$e47faa944e4dc2fafddac4070fbe11d151$__63b063152a856040518263ffffffff1660e01b81526004016129449190615a7f565b602060405180830381865af4158015612961573d6000803e3d6000fd5b505050506040513d601f19601f820116820180604052508101906129859190615ab6565b9050896040518060e00160405280848152602001868152602001838152602001856129b057876129b3565b60005b73ffffffffffffffffffffffffffffffffffffffff168152602001600015158152602001428152602001428152509080600181540180825580915050600190039060005260206000209060060201600090919091909150600082015181600001556020820151816001019081612a29919061585d565b506040820151816002015560608201518160030160006101000a81548173ffffffffffffffffffffffffffffffffffffffff021916908373ffffffffffffffffffffffffffffffffffffffff16021790555060808201518160030160146101000a81548160ff02191690831515021790555060a0820151816004015560c082015181600501555050818885604051612ac1919061556b565b908152602001604051809103902081905550600187600084815260200190815260200160002060006101000a81548160ff02191690831515021790555088600084612b0c5786612b0f565b60005b73ffffffffffffffffffffffffffffffffffffffff1673ffffffffffffffffffffffffffffffffffffffff168152602001908152602001600020829080600181540180825580915050600190039060005260206000200160009091909190915055818660008381526020019081526020016000208190555050505050505050505050565b606060008460008473ffffffffffffffffffffffffffffffffffffffff1673ffffffffffffffffffffffffffffffffffffffff1681526020019081526020016000209050600080600090505b8280549050811015612c4f57856000848381548110612c0157612c00615277565b5b9060005260206000200154815260200190815260200160002060009054906101000a900460ff1615612c3c578180612c38906152d5565b9250505b8080612c47906152d5565b915050612bdf565b5060008167ffffffffffffffff811115612c6c57612c6b61445a565b5b604051908082528060200260200182016040528015612ca557816020015b612c9261427b565b815260200190600190039081612c8a5790505b509050600080600090505b8480549050811015613048576000858281548110612cd157612cd0615277565b5b9060005260206000200154905088600082815260200190815260200160002060009054906101000a900460ff1615613034578a8181548110612d1657612d15615277565b5b906000526020600020906009020160405180610120016040529081600082015481526020016001820160009054906101000a900473ffffffffffffffffffffffffffffffffffffffff1673ffffffffffffffffffffffffffffffffffffffff1673ffffffffffffffffffffffffffffffffffffffff168152602001600282018054612da0906154fe565b80601f0160208091040260200160405190810160405280929190818152602001828054612dcc906154fe565b8015612e195780601f10612dee57610100808354040283529160200191612e19565b820191906000526020600020905b815481529060010190602001808311612dfc57829003601f168201915b50505050508152602001600382018054612e32906154fe565b80601f0160208091040260200160405190810160405280929190818152602001828054612e5e906154fe565b8015612eab5780601f10612e8057610100808354040283529160200191612eab565b820191906000526020600020905b815481529060010190602001808311612e8e57829003601f168201915b50505050508152602001600482018054612ec4906154fe565b80601f0160208091040260200160405190810160405280929190818152602001828054612ef0906154fe565b8015612f3d5780601f10612f1257610100808354040283529160200191612f3d565b820191906000526020600020905b815481529060010190602001808311612f2057829003601f168201915b50505050508152602001600582018054612f56906154fe565b80601f0160208091040260200160405190810160405280929190818152602001828054612f82906154fe565b8015612fcf5780601f10612fa457610100808354040283529160200191612fcf565b820191906000526020600020905b815481529060010190602001808311612fb257829003601f168201915b505050505081526020016006820160009054906101000a900460ff161515151581526020016007820154815260200160088201548152505084848151811061301a57613019615277565b5b60200260200101819052508280613030906152d5565b9350505b508080613040906152d5565b915050612cb0565b5081945050505050949350505050565b61306061427b565b82828154811061307357613072615277565b5b906000526020600020906009020160405180610120016040529081600082015481526020016001820160009054906101000a900473ffffffffffffffffffffffffffffffffffffffff1673ffffffffffffffffffffffffffffffffffffffff1673ffffffffffffffffffffffffffffffffffffffff1681526020016002820180546130fd906154fe565b80601f0160208091040260200160405190810160405280929190818152602001828054613129906154fe565b80156131765780601f1061314b57610100808354040283529160200191613176565b820191906000526020600020905b81548152906001019060200180831161315957829003601f168201915b5050505050815260200160038201805461318f906154fe565b80601f01602080910402602001604051908101604052809291908181526020018280546131bb906154fe565b80156132085780601f106131dd57610100808354040283529160200191613208565b820191906000526020600020905b8154815290600101906020018083116131eb57829003601f168201915b50505050508152602001600482018054613221906154fe565b80601f016020809104026020016040519081016040528092919081815260200182805461324d906154fe565b801561329a5780601f1061326f5761010080835404028352916020019161329a565b820191906000526020600020905b81548152906001019060200180831161327d57829003601f168201915b505050505081526020016005820180546132b3906154fe565b80601f01602080910402602001604051908101604052809291908181526020018280546132df906154fe565b801561332c5780601f106133015761010080835404028352916020019161332c565b820191906000526020600020905b81548152906001019060200180831161330f57829003601f168201915b505050505081526020016006820160009054906101000a900460ff1615151515815260200160078201548152602001600882015481525050905092915050565b600061337d600c600d600e856140b4565b9050919050565b600083600083815260200190815260200160002060009054906101000a900460ff166133e5576040517f08c379a00000000000000000000000000000000000000000000000000000000081526004016133dc906153d7565b60405180910390fd5b61349b8583815481106133fb576133fa615277565b5b90600052602060002090600602016001018054613417906154fe565b80601f0160208091040260200160405190810160405280929190818152602001828054613443906154fe565b80156134905780601f1061346557610100808354040283529160200191613490565b820191906000526020600020905b81548152906001019060200180831161347357829003601f168201915b505050505084612872565b6134a457600080fd5b819050949350505050565b606060008460008473ffffffffffffffffffffffffffffffffffffffff1673ffffffffffffffffffffffffffffffffffffffff1681526020019081526020016000209050600080600090505b828054905081101561356b5785600084838154811061351d5761351c615277565b5b9060005260206000200154815260200190815260200160002060009054906101000a900460ff1615613558578180613554906152d5565b9250505b8080613563906152d5565b9150506134fb565b5060008167ffffffffffffffff8111156135885761358761445a565b5b6040519080825280602002602001820160405280156135c157816020015b6135ae6142df565b8152602001906001900390816135a65790505b509050600080600090505b84805490508110156137b75760008582815481106135ed576135ec615277565b5b9060005260206000200154905088600082815260200190815260200160002060009054906101000a900460ff16156137a3578a818154811061363257613631615277565b5b90600052602060002090600602016040518060e001604052908160008201548152602001600182018054613665906154fe565b80601f0160208091040260200160405190810160405280929190818152602001828054613691906154fe565b80156136de5780601f106136b3576101008083540402835291602001916136de565b820191906000526020600020905b8154815290600101906020018083116136c157829003601f168201915b50505050508152602001600282015481526020016003820160009054906101000a900473ffffffffffffffffffffffffffffffffffffffff1673ffffffffffffffffffffffffffffffffffffffff1673ffffffffffffffffffffffffffffffffffffffff1681526020016003820160149054906101000a900460ff161515151581526020016004820154815260200160058201548152505084848151811061378957613788615277565b5b6020026020010181905250828061379f906152d5565b9350505b5080806137af906152d5565b9150506135cc565b5081945050505050949350505050565b85600084815260200190815260200160002060009054906101000a900460ff16613826576040517f08c379a000000000000000000000000000000000000000000000000000000000815260040161381d90615b2f565b60405180910390fd5b84600083815260200190815260200160002060009054906101000a900460ff16613885576040517f08c379a000000000000000000000000000000000000000000000000000000000815260040161387c90615b9b565b60405180910390fd5b8073ffffffffffffffffffffffffffffffffffffffff168484815481106138af576138ae615277565b5b906000526020600020906009020160010160009054906101000a900473ffffffffffffffffffffffffffffffffffffffff1673ffffffffffffffffffffffffffffffffffffffff161461390157600080fd5b60008c805490509050600084838560405160200161392193929190615c24565b6040516020818303038152906040528051906020012090508d6040518061010001604052808481526020018781526020018681526020018573ffffffffffffffffffffffffffffffffffffffff16815260200183815260200160001515815260200142815260200142815250908060018154018082558091505060019003906000526020600020906008020160009091909190915060008201518160000155602082015181600101556040820151816002015560608201518160030160006101000a81548173ffffffffffffffffffffffffffffffffffffffff021916908373ffffffffffffffffffffffffffffffffffffffff1602179055506080820151816004015560a08201518160050160006101000a81548160ff02191690831515021790555060c0820151816006015560e08201518160070155505060018d600084815260200190815260200160002060006101000a81548160ff021916908315150217905550818c600083815260200190815260200160002081905550818b60008573ffffffffffffffffffffffffffffffffffffffff1673ffffffffffffffffffffffffffffffffffffffff1681526020019081526020016000206000868152602001908152602001600020819055508960008681526020019081526020016000208490806001815401808255809150506001900390600052602060002001600090919091909150558860008581526020019081526020016000208290806001815401808255809150506001900390600052602060002001600090919091909150555050505050505050505050505050565b613b7b614337565b82600083815260200190815260200160002060009054906101000a900460ff16613bda576040517f08c379a0000000000000000000000000000000000000000000000000000000008152600401613bd1906153d7565b60405180910390fd5b838281548110613bed57613bec615277565b5b9060005260206000209060080201604051806101000160405290816000820154815260200160018201548152602001600282015481526020016003820160009054906101000a900473ffffffffffffffffffffffffffffffffffffffff1673ffffffffffffffffffffffffffffffffffffffff1673ffffffffffffffffffffffffffffffffffffffff168152602001600482015481526020016005820160009054906101000a900460ff161515151581526020016006820154815260200160078201548152505090509392505050565b613cc56142df565b83600084815260200190815260200160002060009054906101000a900460ff16613d24576040517f08c379a0000000000000000000000000000000000000000000000000000000008152600401613d1b906153d7565b60405180910390fd5b81858481548110613d3857613d37615277565b5b90600052602060002090600602016002015414613d5457600080fd5b848381548110613d6757613d66615277565b5b90600052602060002090600602016040518060e001604052908160008201548152602001600182018054613d9a906154fe565b80601f0160208091040260200160405190810160405280929190818152602001828054613dc6906154fe565b8015613e135780601f10613de857610100808354040283529160200191613e13565b820191906000526020600020905b815481529060010190602001808311613df657829003601f168201915b50505050508152602001600282015481526020016003820160009054906101000a900473ffffffffffffffffffffffffffffffffffffffff1673ffffffffffffffffffffffffffffffffffffffff1673ffffffffffffffffffffffffffffffffffffffff1681526020016003820160149054906101000a900460ff16151515158152602001600482015481526020016005820154815250509050949350505050565b613ec2600c600d83614186565b600c8181548110613ed657613ed5615277565b5b906000526020600020906008020160030160009054906101000a900473ffffffffffffffffffffffffffffffffffffffff1673ffffffffffffffffffffffffffffffffffffffff167f3446a75847a6ec140826047c567c6387e91c7a1e53a993151f87c730467201e342604051613f4d9190614c11565b60405180910390a250565b6000806000806041865114613fa2576040517f08c379a0000000000000000000000000000000000000000000000000000000008152600401613f9990615cad565b60405180910390fd5b6020860151925060408601519150606086015160001a9050601b8160ff161015613fd657601b81613fd39190615cda565b90505b601b8160ff161480613feb5750601c8160ff16145b61402a576040517f08c379a000000000000000000000000000000000000000000000000000000000815260040161402190615d5b565b60405180910390fd5b6001858285856040516000815260200160405260405161404d9493929190615d8a565b6020604051602081039080840390855afa15801561406f573d6000803e3d6000fd5b50505060206040510351935050505092915050565b600081604051602001614097919061556b565b604051602081830303815290604052805190602001209050919050565b600083600084600085815260200190815260200160002054815260200190815260200160002060009054906101000a900460ff16614127576040517f08c379a000000000000000000000000000000000000000000000000000000000815260040161411e90615e1b565b60405180910390fd5b8185846000858152602001908152602001600020548154811061414d5761414c615277565b5b9060005260206000209060080201600401541461416957600080fd5b826000838152602001908152602001600020549050949350505050565b81600082815260200190815260200160002060009054906101000a900460ff166141e5576040517f08c379a00000000000000000000000000000000000000000000000000000000081526004016141dc90615e1b565b60405180910390fd5b600082600083815260200190815260200160002060006101000a81548160ff021916908315150217905550600183828154811061422557614224615277565b5b906000526020600020906008020160050160006101000a81548160ff0219169083151502179055504283828154811061426157614260615277565b5b906000526020600020906008020160070181905550505050565b60405180610120016040528060008152602001600073ffffffffffffffffffffffffffffffffffffffff1681526020016060815260200160608152602001606081526020016060815260200160001515815260200160008152602001600081525090565b6040518060e00160405280600081526020016060815260200160008019168152602001600073ffffffffffffffffffffffffffffffffffffffff16815260200160001515815260200160008152602001600081525090565b604051806101000160405280600081526020016000815260200160008152602001600073ffffffffffffffffffffffffffffffffffffffff1681526020016000801916815260200160001515815260200160008152602001600081525090565b6000604051905090565b600080fd5b600080fd5b600073ffffffffffffffffffffffffffffffffffffffff82169050919050565b60006143d6826143ab565b9050919050565b6143e6816143cb565b81146143f157600080fd5b50565b600081359050614403816143dd565b92915050565b6000819050919050565b61441c81614409565b811461442757600080fd5b50565b60008135905061443981614413565b92915050565b600080fd5b600080fd5b6000601f19601f8301169050919050565b7f4e487b7100000000000000000000000000000000000000000000000000000000600052604160045260246000fd5b61449282614449565b810181811067ffffffffffffffff821117156144b1576144b061445a565b5b80604052505050565b60006144c4614397565b90506144d08282614489565b919050565b600067ffffffffffffffff8211156144f0576144ef61445a565b5b6144f982614449565b9050602081019050919050565b82818337600083830152505050565b6000614528614523846144d5565b6144ba565b90508281526020810184848401111561454457614543614444565b5b61454f848285614506565b509392505050565b600082601f83011261456c5761456b61443f565b5b813561457c848260208601614515565b91505092915050565b6000806000806080858703121561459f5761459e6143a1565b5b60006145ad878288016143f4565b94505060206145be8782880161442a565b93505060406145cf8782880161442a565b925050606085013567ffffffffffffffff8111156145f0576145ef6143a6565b5b6145fc87828801614557565b91505092959194509250565b6000819050919050565b61461b81614608565b82525050565b600081519050919050565b600082825260208201905092915050565b6000819050602082019050919050565b61465681614409565b82525050565b614665816143cb565b82525050565b600081519050919050565b600082825260208201905092915050565b60005b838110156146a557808201518184015260208101905061468a565b60008484015250505050565b60006146bc8261466b565b6146c68185614676565b93506146d6818560208601614687565b6146df81614449565b840191505092915050565b60008115159050919050565b6146ff816146ea565b82525050565b60006101208301600083015161471e600086018261464d565b506020830151614731602086018261465c565b506040830151848203604086015261474982826146b1565b9150506060830151848203606086015261476382826146b1565b9150506080830151848203608086015261477d82826146b1565b91505060a083015184820360a086015261479782826146b1565b91505060c08301516147ac60c08601826146f6565b5060e08301516147bf60e086018261464d565b506101008301516147d461010086018261464d565b508091505092915050565b60006147eb8383614705565b905092915050565b6000602082019050919050565b600061480b82614621565b614815818561462c565b9350836020820285016148278561463d565b8060005b85811015614863578484038952815161484485826147df565b945061484f836147f3565b925060208a0199505060018101905061482b565b50829750879550505050505092915050565b600060408201905061488a6000830185614612565b818103602083015261489c8184614800565b90509392505050565b600067ffffffffffffffff8211156148c0576148bf61445a565b5b6148c982614449565b9050602081019050919050565b60006148e96148e4846148a5565b6144ba565b90508281526020810184848401111561490557614904614444565b5b614910848285614506565b509392505050565b600082601f83011261492d5761492c61443f565b5b813561493d8482602086016148d6565b91505092915050565b600080600080608085870312156149605761495f6143a1565b5b600085013567ffffffffffffffff81111561497e5761497d6143a6565b5b61498a87828801614918565b945050602085013567ffffffffffffffff8111156149ab576149aa6143a6565b5b6149b787828801614918565b935050604085013567ffffffffffffffff8111156149d8576149d76143a6565b5b6149e487828801614918565b925050606085013567ffffffffffffffff811115614a0557614a046143a6565b5b614a1187828801614918565b91505092959194509250565b600060208284031215614a3357614a326143a1565b5b6000614a418482850161442a565b91505092915050565b614a5381614608565b82525050565b600060e083016000830151614a71600086018261464d565b5060208301518482036020860152614a8982826146b1565b9150506040830151614a9e6040860182614a4a565b506060830151614ab1606086018261465c565b506080830151614ac460808601826146f6565b5060a0830151614ad760a086018261464d565b5060c0830151614aea60c086018261464d565b508091505092915050565b60006020820190508181036000830152614b0f8184614a59565b905092915050565b600080600080600060a08688031215614b3357614b326143a1565b5b6000614b418882890161442a565b955050602086013567ffffffffffffffff811115614b6257614b616143a6565b5b614b6e88828901614918565b945050604086013567ffffffffffffffff811115614b8f57614b8e6143a6565b5b614b9b88828901614918565b935050606086013567ffffffffffffffff811115614bbc57614bbb6143a6565b5b614bc888828901614918565b925050608086013567ffffffffffffffff811115614be957614be86143a6565b5b614bf588828901614918565b9150509295509295909350565b614c0b81614409565b82525050565b6000602082019050614c266000830184614c02565b92915050565b600060208284031215614c4257614c416143a1565b5b600082013567ffffffffffffffff811115614c6057614c5f6143a6565b5b614c6c84828501614918565b91505092915050565b600060208284031215614c8b57614c8a6143a1565b5b6000614c99848285016143f4565b91505092915050565b60006020820190508181036000830152614cbc8184614800565b905092915050565b600061012083016000830151614cdd600086018261464d565b506020830151614cf0602086018261465c565b5060408301518482036040860152614d0882826146b1565b91505060608301518482036060860152614d2282826146b1565b91505060808301518482036080860152614d3c82826146b1565b91505060a083015184820360a0860152614d5682826146b1565b91505060c0830151614d6b60c08601826146f6565b5060e0830151614d7e60e086018261464d565b50610100830151614d9361010086018261464d565b508091505092915050565b60006020820190508181036000830152614db88184614cc4565b905092915050565b614dc981614608565b8114614dd457600080fd5b50565b600081359050614de681614dc0565b92915050565b600060208284031215614e0257614e016143a1565b5b6000614e1084828501614dd7565b91505092915050565b600081519050919050565b600082825260208201905092915050565b6000819050602082019050919050565b600060e083016000830151614e5d600086018261464d565b5060208301518482036020860152614e7582826146b1565b9150506040830151614e8a6040860182614a4a565b506060830151614e9d606086018261465c565b506080830151614eb060808601826146f6565b5060a0830151614ec360a086018261464d565b5060c0830151614ed660c086018261464d565b508091505092915050565b6000614eed8383614e45565b905092915050565b6000602082019050919050565b6000614f0d82614e19565b614f178185614e24565b935083602082028501614f2985614e35565b8060005b85811015614f655784840389528151614f468582614ee1565b9450614f5183614ef5565b925060208a01995050600181019050614f2d565b50829750879550505050505092915050565b60006020820190508181036000830152614f918184614f02565b905092915050565b60008060408385031215614fb057614faf6143a1565b5b6000614fbe858286016143f4565b9250506020614fcf8582860161442a565b9150509250929050565b614fe2816146ea565b82525050565b6000604082019050614ffd6000830185614fd9565b61500a6020830184614c02565b9392505050565b600080600080600060a0868803121561502d5761502c6143a1565b5b600061503b8882890161442a565b955050602061504c8882890161442a565b945050604061505d888289016143f4565b935050606061506e8882890161442a565b925050608086013567ffffffffffffffff81111561508f5761508e6143a6565b5b61509b88828901614557565b9150509295509295909350565b610100820160008201516150bf600085018261464d565b5060208201516150d2602085018261464d565b5060408201516150e5604085018261464d565b5060608201516150f8606085018261465c565b50608082015161510b6080850182614a4a565b5060a082015161511e60a08501826146f6565b5060c082015161513160c085018261464d565b5060e082015161514460e085018261464d565b50505050565b60006101008201905061516060008301846150a8565b92915050565b600067ffffffffffffffff8211156151815761518061445a565b5b602082029050602081019050919050565b600080fd5b60006151aa6151a584615166565b6144ba565b905080838252602082019050602084028301858111156151cd576151cc615192565b5b835b818110156151f657806151e28882614dd7565b8452602084019350506020810190506151cf565b5050509392505050565b600082601f8301126152155761521461443f565b5b8135615225848260208601615197565b91505092915050565b600060208284031215615244576152436143a1565b5b600082013567ffffffffffffffff811115615262576152616143a6565b5b61526e84828501615200565b91505092915050565b7f4e487b7100000000000000000000000000000000000000000000000000000000600052603260045260246000fd5b7f4e487b7100000000000000000000000000000000000000000000000000000000600052601160045260246000fd5b60006152e082614409565b91507fffffffffffffffffffffffffffffffffffffffffffffffffffffffffffffffff8203615312576153116152a6565b5b600182019050919050565b600061532882614409565b915061533383614409565b925082820390508181111561534b5761534a6152a6565b5b92915050565b60006040820190506153666000830185614c02565b6153736020830184614c02565b9392505050565b600082825260208201905092915050565b7f6e6f7420666f756e640000000000000000000000000000000000000000000000600082015250565b60006153c160098361537a565b91506153cc8261538b565b602082019050919050565b600060208201905081810360008301526153f0816153b4565b9050919050565b7f646f6d61696e2069732072657175697265640000000000000000000000000000600082015250565b600061542d60128361537a565b9150615438826153f7565b602082019050919050565b6000602082019050818103600083015261545c81615420565b9050919050565b7f6261642072657175657374000000000000000000000000000000000000000000600082015250565b6000615499600b8361537a565b91506154a482615463565b602082019050919050565b600060208201905081810360008301526154c88161548c565b9050919050565b7f4e487b7100000000000000000000000000000000000000000000000000000000600052602260045260246000fd5b6000600282049050600182168061551657607f821691505b602082108103615529576155286154cf565b5b50919050565b600081905092915050565b60006155458261466b565b61554f818561552f565b935061555f818560208601614687565b80840191505092915050565b6000615577828461553a565b915081905092915050565b61558b816143cb565b82525050565b600060a0820190506155a66000830188614612565b6155b36020830187614612565b6155c06040830186614612565b6155cd6060830185614c02565b6155da6080830184615582565b9695505050505050565b60006040820190506155f96000830185614612565b6156066020830184614c02565b9392505050565b7f1901000000000000000000000000000000000000000000000000000000000000600082015250565b600061564360028361552f565b915061564e8261560d565b600282019050919050565b6000819050919050565b61567461566f82614608565b615659565b82525050565b600061568582615636565b91506156918285615663565b6020820191506156a18284615663565b6020820191508190509392505050565b60008190508160005260206000209050919050565b60006020601f8301049050919050565b600082821b905092915050565b6000600883026157137fffffffffffffffffffffffffffffffffffffffffffffffffffffffffffffffff826156d6565b61571d86836156d6565b95508019841693508086168417925050509392505050565b6000819050919050565b600061575a61575561575084614409565b615735565b614409565b9050919050565b6000819050919050565b6157748361573f565b61578861578082615761565b8484546156e3565b825550505050565b600090565b61579d615790565b6157a881848461576b565b505050565b5b818110156157cc576157c1600082615795565b6001810190506157ae565b5050565b601f821115615811576157e2816156b1565b6157eb846156c6565b810160208510156157fa578190505b61580e615806856156c6565b8301826157ad565b50505b505050565b600082821c905092915050565b600061583460001984600802615816565b1980831691505092915050565b600061584d8383615823565b9150826002028217905092915050565b6158668261466b565b67ffffffffffffffff81111561587f5761587e61445a565b5b61588982546154fe565b6158948282856157d0565b600060209050601f8311600181146158c757600084156158b5578287015190505b6158bf8582615841565b865550615927565b601f1984166158d5866156b1565b60005b828110156158fd578489015182556001820191506020850194506020810190506158d8565b8683101561591a5784890151615916601f891682615823565b8355505b6001600288020188555050505b505050505050565b6000815461593c816154fe565b615946818661552f565b945060018216600081146159615760018114615976576159a9565b60ff19831686528115158202860193506159a9565b61597f856156b1565b60005b838110156159a157815481890152600182019150602081019050615982565b838801955050505b50505092915050565b60006159be828461592f565b915081905092915050565b7f647570696361746520646f6d61696e20656e7472790000000000000000000000600082015250565b60006159ff60158361537a565b9150615a0a826159c9565b602082019050919050565b60006020820190508181036000830152615a2e816159f2565b9050919050565b600082825260208201905092915050565b6000615a518261466b565b615a5b8185615a35565b9350615a6b818560208601614687565b615a7481614449565b840191505092915050565b60006020820190508181036000830152615a998184615a46565b905092915050565b600081519050615ab081614dc0565b92915050565b600060208284031215615acc57615acb6143a1565b5b6000615ada84828501615aa1565b91505092915050565b7f43617264206e6f7420666f756e64000000000000000000000000000000000000600082015250565b6000615b19600e8361537a565b9150615b2482615ae3565b602082019050919050565b60006020820190508181036000830152615b4881615b0c565b9050919050565b7f64417070206e6f7420666f756e64000000000000000000000000000000000000600082015250565b6000615b85600e8361537a565b9150615b9082615b4f565b602082019050919050565b60006020820190508181036000830152615bb481615b78565b9050919050565b6000819050919050565b615bd6615bd182614409565b615bbb565b82525050565b60008160601b9050919050565b6000615bf482615bdc565b9050919050565b6000615c0682615be9565b9050919050565b615c1e615c19826143cb565b615bfb565b82525050565b6000615c308286615bc5565b602082019150615c408285615c0d565b601482019150615c508284615bc5565b602082019150819050949350505050565b7f496e76616c6964207369676e6174757265206c656e6774680000000000000000600082015250565b6000615c9760188361537a565b9150615ca282615c61565b602082019050919050565b60006020820190508181036000830152615cc681615c8a565b9050919050565b600060ff82169050919050565b6000615ce582615ccd565b9150615cf083615ccd565b9250828201905060ff811115615d0957615d086152a6565b5b92915050565b7f496e76616c6964207369676e6174757265207265636f76657279206964000000600082015250565b6000615d45601d8361537a565b9150615d5082615d0f565b602082019050919050565b60006020820190508181036000830152615d7481615d38565b9050919050565b615d8481615ccd565b82525050565b6000608082019050615d9f6000830187614612565b615dac6020830186615d7b565b615db96040830185614612565b615dc66060830184614612565b95945050505050565b7f696e76616c69642f64656c6574656420746f6b656e0000000000000000000000600082015250565b6000615e0560158361537a565b9150615e1082615dcf565b602082019050919050565b60006020820190508181036000830152615e3481615df8565b905091905056fe454950373132446f6d61696e28737472696e67206e616d652c737472696e672076657273696f6e2c75696e7432353620636861696e49642c6164647265737320766572696679696e67436f6e747261637429a26469706673582212206e4f65f0ef3ccbb16c35c44ae82509bb8074f42453514908f9c9dba4f2ed607764736f6c63430008140033",
  "linkReferences": {
    "contracts/extra/Utils.sol": {
      "Utils": [
        {
          "length": 20,
          "start": 777
        },
        {
          "length": 20,
          "start": 13864
        }
      ]
    }
  },
  "deployedLinkReferences": {
    "contracts/extra/Utils.sol": {
      "Utils": [
        {
          "length": 20,
          "start": 10511
        }
      ]
    }
  }
}