{
  "_format": "hh-sol-artifact-1",
  "contractName": "OAuth",
  "sourceName": "contracts/OAuth.sol",
  "abi": [
    {
      "inputs": [],
      "stateMutability": "nonpayable",
      "type": "constructor"
    },
    {
      "inputs": [
        {
          "internalType": "address",
          "name": "owner",
          "type": "address"
        }
      ],
      "name": "OwnableInvalidOwner",
      "type": "error"
    },
    {
      "inputs": [
        {
          "internalType": "address",
          "name": "account",
          "type": "address"
        }
      ],
      "name": "OwnableUnauthorizedAccount",
      "type": "error"
    },
    {
      "anonymous": false,
      "inputs": [
        {
          "indexed": false,
          "internalType": "uint256",
          "name": "id",
          "type": "uint256"
        },
        {
          "indexed": false,
          "internalType": "string",
          "name": "actionType",
          "type": "string"
        },
        {
          "indexed": true,
          "internalType": "address",
          "name": "executor",
          "type": "address"
        },
        {
          "indexed": false,
          "internalType": "uint256",
          "name": "timestamp",
          "type": "uint256"
        }
      ],
      "name": "CardAction",
      "type": "event"
    },
    {
      "anonymous": false,
      "inputs": [
        {
          "indexed": true,
          "internalType": "address",
          "name": "previousOwner",
          "type": "address"
        },
        {
          "indexed": true,
          "internalType": "address",
          "name": "newOwner",
          "type": "address"
        }
      ],
      "name": "OwnershipTransferred",
      "type": "event"
    },
    {
      "anonymous": false,
      "inputs": [
        {
          "indexed": false,
          "internalType": "uint256",
          "name": "id",
          "type": "uint256"
        },
        {
          "indexed": false,
          "internalType": "string",
          "name": "actionType",
          "type": "string"
        },
        {
          "indexed": true,
          "internalType": "address",
          "name": "executor",
          "type": "address"
        },
        {
          "indexed": false,
          "internalType": "uint256",
          "name": "timestamp",
          "type": "uint256"
        }
      ],
      "name": "ProviderAction",
      "type": "event"
    },
    {
      "anonymous": false,
      "inputs": [
        {
          "indexed": false,
          "internalType": "uint256",
          "name": "id",
          "type": "uint256"
        },
        {
          "indexed": false,
          "internalType": "string",
          "name": "actionType",
          "type": "string"
        },
        {
          "indexed": true,
          "internalType": "address",
          "name": "executor",
          "type": "address"
        },
        {
          "indexed": false,
          "internalType": "uint256",
          "name": "timestamp",
          "type": "uint256"
        }
      ],
      "name": "SessionTokenAction",
      "type": "event"
    },
    {
      "inputs": [
        {
          "internalType": "string",
          "name": "_username",
          "type": "string"
        },
        {
          "internalType": "string",
          "name": "_pfp",
          "type": "string"
        },
        {
          "internalType": "string",
          "name": "_emailAddress",
          "type": "string"
        },
        {
          "internalType": "string",
          "name": "_bio",
          "type": "string"
        }
      ],
      "name": "createCard",
      "outputs": [],
      "stateMutability": "nonpayable",
      "type": "function"
    },
    {
      "inputs": [
        {
          "internalType": "uint256",
          "name": "_cardId",
          "type": "uint256"
        },
        {
          "internalType": "uint256",
          "name": "_dappId",
          "type": "uint256"
        },
        {
          "internalType": "address",
          "name": "_user",
          "type": "address"
        },
        {
          "internalType": "string",
          "name": "_message",
          "type": "string"
        },
        {
          "internalType": "bytes",
          "name": "_signature",
          "type": "bytes"
        }
      ],
      "name": "createSession",
      "outputs": [
        {
          "internalType": "bytes32",
          "name": "",
          "type": "bytes32"
        }
      ],
      "stateMutability": "nonpayable",
      "type": "function"
    },
    {
      "inputs": [
        {
          "internalType": "bytes32",
          "name": "_token",
          "type": "bytes32"
        }
      ],
      "name": "deactivateSessionFromToken",
      "outputs": [],
      "stateMutability": "nonpayable",
      "type": "function"
    },
    {
      "inputs": [
        {
          "internalType": "uint256",
          "name": "_id",
          "type": "uint256"
        }
      ],
      "name": "deleteCard",
      "outputs": [],
      "stateMutability": "nonpayable",
      "type": "function"
    },
    {
      "inputs": [
        {
          "internalType": "uint256",
          "name": "_id",
          "type": "uint256"
        }
      ],
      "name": "deleteDapp",
      "outputs": [],
      "stateMutability": "nonpayable",
      "type": "function"
    },
    {
      "inputs": [
        {
          "internalType": "bytes32",
          "name": "_token",
          "type": "bytes32"
        }
      ],
      "name": "fetchUserInfo",
      "outputs": [
        {
          "components": [
            {
              "internalType": "uint256",
              "name": "id",
              "type": "uint256"
            },
            {
              "internalType": "address",
              "name": "owner",
              "type": "address"
            },
            {
              "internalType": "string",
              "name": "username",
              "type": "string"
            },
            {
              "internalType": "string",
              "name": "pfp",
              "type": "string"
            },
            {
              "internalType": "string",
              "name": "emailAddress",
              "type": "string"
            },
            {
              "internalType": "string",
              "name": "bio",
              "type": "string"
            },
            {
              "internalType": "bool",
              "name": "isDeleted",
              "type": "bool"
            },
            {
              "internalType": "uint256",
              "name": "createdAt",
              "type": "uint256"
            },
            {
              "internalType": "uint256",
              "name": "updatedAt",
              "type": "uint256"
            }
          ],
          "internalType": "struct OAuth.CardStruct",
          "name": "Card",
          "type": "tuple"
        }
      ],
      "stateMutability": "view",
      "type": "function"
    },
    {
      "inputs": [
        {
          "internalType": "uint256",
          "name": "_dappId",
          "type": "uint256"
        }
      ],
      "name": "getDapp",
      "outputs": [
        {
          "components": [
            {
              "internalType": "uint256",
              "name": "id",
              "type": "uint256"
            },
            {
              "internalType": "string",
              "name": "domain",
              "type": "string"
            },
            {
              "internalType": "string",
              "name": "accessToken",
              "type": "string"
            },
            {
              "internalType": "address",
              "name": "owner",
              "type": "address"
            },
            {
              "internalType": "bool",
              "name": "isDeleted",
              "type": "bool"
            },
            {
              "internalType": "uint256",
              "name": "createdAt",
              "type": "uint256"
            },
            {
              "internalType": "uint256",
              "name": "updatedAt",
              "type": "uint256"
            }
          ],
          "internalType": "struct OAuth.ProviderDappStruct",
          "name": "Dapp",
          "type": "tuple"
        }
      ],
      "stateMutability": "view",
      "type": "function"
    },
    {
      "inputs": [
        {
          "internalType": "address",
          "name": "_user",
          "type": "address"
        }
      ],
      "name": "getDapps",
      "outputs": [
        {
          "components": [
            {
              "internalType": "uint256",
              "name": "id",
              "type": "uint256"
            },
            {
              "internalType": "string",
              "name": "domain",
              "type": "string"
            },
            {
              "internalType": "string",
              "name": "accessToken",
              "type": "string"
            },
            {
              "internalType": "address",
              "name": "owner",
              "type": "address"
            },
            {
              "internalType": "bool",
              "name": "isDeleted",
              "type": "bool"
            },
            {
              "internalType": "uint256",
              "name": "createdAt",
              "type": "uint256"
            },
            {
              "internalType": "uint256",
              "name": "updatedAt",
              "type": "uint256"
            }
          ],
          "internalType": "struct OAuth.ProviderDappStruct[]",
          "name": "Dapps",
          "type": "tuple[]"
        }
      ],
      "stateMutability": "view",
      "type": "function"
    },
    {
      "inputs": [
        {
          "internalType": "address",
          "name": "_user",
          "type": "address"
        },
        {
          "internalType": "uint256",
          "name": "_cardId",
          "type": "uint256"
        }
      ],
      "name": "getDappsConnectedToCard",
      "outputs": [
        {
          "components": [
            {
              "internalType": "uint256",
              "name": "id",
              "type": "uint256"
            },
            {
              "internalType": "string",
              "name": "domain",
              "type": "string"
            },
            {
              "internalType": "string",
              "name": "accessToken",
              "type": "string"
            },
            {
              "internalType": "address",
              "name": "owner",
              "type": "address"
            },
            {
              "internalType": "bool",
              "name": "isDeleted",
              "type": "bool"
            },
            {
              "internalType": "uint256",
              "name": "createdAt",
              "type": "uint256"
            },
            {
              "internalType": "uint256",
              "name": "updatedAt",
              "type": "uint256"
            }
          ],
          "internalType": "struct OAuth.ProviderDappStruct[]",
          "name": "dApps",
          "type": "tuple[]"
        }
      ],
      "stateMutability": "view",
      "type": "function"
    },
    {
      "inputs": [
        {
          "internalType": "uint256",
          "name": "_cardId",
          "type": "uint256"
        }
      ],
      "name": "getUserCard",
      "outputs": [
        {
          "components": [
            {
              "internalType": "uint256",
              "name": "id",
              "type": "uint256"
            },
            {
              "internalType": "address",
              "name": "owner",
              "type": "address"
            },
            {
              "internalType": "string",
              "name": "username",
              "type": "string"
            },
            {
              "internalType": "string",
              "name": "pfp",
              "type": "string"
            },
            {
              "internalType": "string",
              "name": "emailAddress",
              "type": "string"
            },
            {
              "internalType": "string",
              "name": "bio",
              "type": "string"
            },
            {
              "internalType": "bool",
              "name": "isDeleted",
              "type": "bool"
            },
            {
              "internalType": "uint256",
              "name": "createdAt",
              "type": "uint256"
            },
            {
              "internalType": "uint256",
              "name": "updatedAt",
              "type": "uint256"
            }
          ],
          "internalType": "struct OAuth.CardStruct",
          "name": "Card",
          "type": "tuple"
        }
      ],
      "stateMutability": "view",
      "type": "function"
    },
    {
      "inputs": [
        {
          "internalType": "address",
          "name": "_user",
          "type": "address"
        }
      ],
      "name": "getUserCards",
      "outputs": [
        {
          "components": [
            {
              "internalType": "uint256",
              "name": "id",
              "type": "uint256"
            },
            {
              "internalType": "address",
              "name": "owner",
              "type": "address"
            },
            {
              "internalType": "string",
              "name": "username",
              "type": "string"
            },
            {
              "internalType": "string",
              "name": "pfp",
              "type": "string"
            },
            {
              "internalType": "string",
              "name": "emailAddress",
              "type": "string"
            },
            {
              "internalType": "string",
              "name": "bio",
              "type": "string"
            },
            {
              "internalType": "bool",
              "name": "isDeleted",
              "type": "bool"
            },
            {
              "internalType": "uint256",
              "name": "createdAt",
              "type": "uint256"
            },
            {
              "internalType": "uint256",
              "name": "updatedAt",
              "type": "uint256"
            }
          ],
          "internalType": "struct OAuth.CardStruct[]",
          "name": "Cards",
          "type": "tuple[]"
        }
      ],
      "stateMutability": "view",
      "type": "function"
    },
    {
      "inputs": [
        {
          "internalType": "uint256",
          "name": "_id",
          "type": "uint256"
        },
        {
          "internalType": "string",
          "name": "_domain",
          "type": "string"
        }
      ],
      "name": "modifyDapp",
      "outputs": [],
      "stateMutability": "nonpayable",
      "type": "function"
    },
    {
      "inputs": [],
      "name": "owner",
      "outputs": [
        {
          "internalType": "address",
          "name": "",
          "type": "address"
        }
      ],
      "stateMutability": "view",
      "type": "function"
    },
    {
      "inputs": [
        {
          "internalType": "string",
          "name": "_domain",
          "type": "string"
        },
        {
          "internalType": "string",
          "name": "_accessToken",
          "type": "string"
        }
      ],
      "name": "registerDapp",
      "outputs": [],
      "stateMutability": "nonpayable",
      "type": "function"
    },
    {
      "inputs": [],
      "name": "renounceOwnership",
      "outputs": [],
      "stateMutability": "nonpayable",
      "type": "function"
    },
    {
      "inputs": [
        {
          "internalType": "address",
          "name": "newOwner",
          "type": "address"
        }
      ],
      "name": "transferOwnership",
      "outputs": [],
      "stateMutability": "nonpayable",
      "type": "function"
    },
    {
      "inputs": [
        {
          "internalType": "address",
          "name": "_user",
          "type": "address"
        },
        {
          "internalType": "uint256",
          "name": "_dappId",
          "type": "uint256"
        },
        {
          "internalType": "string",
          "name": "_message",
          "type": "string"
        },
        {
          "internalType": "bytes",
          "name": "_signature",
          "type": "bytes"
        }
      ],
      "name": "triggerLogin",
      "outputs": [
        {
          "internalType": "bytes32",
          "name": "",
          "type": "bytes32"
        },
        {
          "components": [
            {
              "internalType": "uint256",
              "name": "id",
              "type": "uint256"
            },
            {
              "internalType": "address",
              "name": "owner",
              "type": "address"
            },
            {
              "internalType": "string",
              "name": "username",
              "type": "string"
            },
            {
              "internalType": "string",
              "name": "pfp",
              "type": "string"
            },
            {
              "internalType": "string",
              "name": "emailAddress",
              "type": "string"
            },
            {
              "internalType": "string",
              "name": "bio",
              "type": "string"
            },
            {
              "internalType": "bool",
              "name": "isDeleted",
              "type": "bool"
            },
            {
              "internalType": "uint256",
              "name": "createdAt",
              "type": "uint256"
            },
            {
              "internalType": "uint256",
              "name": "updatedAt",
              "type": "uint256"
            }
          ],
          "internalType": "struct OAuth.CardStruct[]",
          "name": "Cards",
          "type": "tuple[]"
        }
      ],
      "stateMutability": "view",
      "type": "function"
    },
    {
      "inputs": [
        {
          "internalType": "uint256",
          "name": "_id",
          "type": "uint256"
        },
        {
          "internalType": "string",
          "name": "_username",
          "type": "string"
        },
        {
          "internalType": "string",
          "name": "_pfp",
          "type": "string"
        },
        {
          "internalType": "string",
          "name": "_emailAddress",
          "type": "string"
        },
        {
          "internalType": "string",
          "name": "_bio",
          "type": "string"
        }
      ],
      "name": "updateCard",
      "outputs": [],
      "stateMutability": "nonpayable",
      "type": "function"
    },
    {
      "inputs": [
        {
          "internalType": "string",
          "name": "_message",
          "type": "string"
        },
        {
          "internalType": "address",
          "name": "_signer",
          "type": "address"
        },
        {
          "internalType": "bytes",
          "name": "_signature",
          "type": "bytes"
        }
      ],
      "name": "verify",
      "outputs": [
        {
          "internalType": "bool",
          "name": "",
          "type": "bool"
        }
      ],
      "stateMutability": "pure",
      "type": "function"
    }
  ],
  "bytecode": "0x60806040523480156200001157600080fd5b5033600073ffffffffffffffffffffffffffffffffffffffff168173ffffffffffffffffffffffffffffffffffffffff1603620000885760006040517f1e4fbdf70000000000000000000000000000000000000000000000000000000081526004016200007f9190620001a9565b60405180910390fd5b6200009981620000a060201b60201c565b50620001c6565b60008060009054906101000a900473ffffffffffffffffffffffffffffffffffffffff169050816000806101000a81548173ffffffffffffffffffffffffffffffffffffffff021916908373ffffffffffffffffffffffffffffffffffffffff1602179055508173ffffffffffffffffffffffffffffffffffffffff168173ffffffffffffffffffffffffffffffffffffffff167f8be0079c531659141344cd1fd0a4f28419497f9722a3daafe3b4186f6b6457e060405160405180910390a35050565b600073ffffffffffffffffffffffffffffffffffffffff82169050919050565b6000620001918262000164565b9050919050565b620001a38162000184565b82525050565b6000602082019050620001c0600083018462000198565b92915050565b6156e880620001d66000396000f3fe608060405234801561001057600080fd5b50600436106101215760003560e01c8063846d1d83116100ad578063dd55c1b011610071578063dd55c1b014610317578063e10b79fa14610347578063e247dea814610377578063f2fde38b14610393578063f7c91c03146103af57610121565b8063846d1d831461023957806388d9f40d146102695780638da5cb5b14610299578063a3104eb5146102b7578063c392b0df146102e757610121565b806348bf10c9116100f457806348bf10c9146101ab57806353d85919146101c7578063555f7817146101f75780635e1acf6514610213578063715018a61461022f57610121565b806306bdd454146101265780630c2ad3f9146101575780631d12aa9b1461017357806346d8066e1461018f575b600080fd5b610140600480360381019061013b9190613a81565b6103df565b60405161014e929190613d8d565b60405180910390f35b610171600480360381019061016c9190613dbd565b610525565b005b61018d60048036038101906101889190613ec0565b610926565b005b6101a960048036038101906101a49190613eed565b61098d565b005b6101c560048036038101906101c09190613f65565b610cc4565b005b6101e160048036038101906101dc9190614050565b610fe8565b6040516101ee9190614120565b60405180910390f35b610211600480360381019061020c9190614142565b6111c8565b005b61022d60048036038101906102289190614050565b6113b1565b005b61023761158c565b005b610253600480360381019061024e919061419e565b6115a0565b6040516102609190614238565b60405180910390f35b610283600480360381019061027e9190614253565b6115fe565b6040516102909190614280565b60405180910390f35b6102a1611c4b565b6040516102ae91906142b1565b60405180910390f35b6102d160048036038101906102cc9190614253565b611c74565b6040516102de9190614431565b60405180910390f35b61030160048036038101906102fc9190614453565b612194565b60405161030e9190614431565b60405180910390f35b610331600480360381019061032c9190614493565b61235a565b60405161033e9190614546565b60405180910390f35b610361600480360381019061035c9190614050565b612806565b60405161036e919061463b565b60405180910390f35b610391600480360381019061038c9190614050565b612b13565b005b6103ad60048036038101906103a89190614253565b612cf7565b005b6103c960048036038101906103c49190613ec0565b612d7d565b6040516103d6919061463b565b60405180910390f35b600060606103eb6130eb565b604183511461042f576040517f08c379a0000000000000000000000000000000000000000000000000000000008152600401610426906146ba565b60405180910390fd5b61043a8487856115a0565b610479576040517f08c379a000000000000000000000000000000000000000000000000000000000815260040161047090614726565b60405180910390fd5b60006104858787613172565b9050600081036104aa57600061049a886115fe565b8160001b9150925092505061051c565b6009600082815260200190815260200160002060040154600067ffffffffffffffff8111156104dc576104db6138b5565b5b60405190808252806020026020018201604052801561051557816020015b6105026136d9565b8152602001906001900390816104fa5790505b5092509250505b94509492505050565b6000845111610569576040517f08c379a000000000000000000000000000000000000000000000000000000000815260040161056090614792565b60405180910390fd5b60008351116105ad576040517f08c379a00000000000000000000000000000000000000000000000000000000081526004016105a4906147fe565b60405180910390fd5b60008251116105f1576040517f08c379a00000000000000000000000000000000000000000000000000000000081526004016105e89061486a565b60405180910390fd5b6000815111610635576040517f08c379a000000000000000000000000000000000000000000000000000000000815260040161062c906148d6565b60405180910390fd5b61063d6136d9565b60016000815461064c90614925565b91905081905581600001818152505084816040018190525033816020019073ffffffffffffffffffffffffffffffffffffffff16908173ffffffffffffffffffffffffffffffffffffffff1681525050838160600181905250828160800181905250818160a001819052506106bf6132aa565b8160e00181815250506106d06132aa565b816101000181815250508060056000836000015181526020019081526020016000206000820151816000015560208201518160010160006101000a81548173ffffffffffffffffffffffffffffffffffffffff021916908373ffffffffffffffffffffffffffffffffffffffff16021790555060408201518160020190816107589190614b79565b50606082015181600301908161076e9190614b79565b5060808201518160040190816107849190614b79565b5060a082015181600501908161079a9190614b79565b5060c08201518160060160006101000a81548160ff02191690831515021790555060e0820151816007015561010082015181600801559050506001600460008360000151815260200190815260200160002060006101000a81548160ff021916908315150217905550600660003373ffffffffffffffffffffffffffffffffffffffff1673ffffffffffffffffffffffffffffffffffffffff168152602001908152602001600020816000015190806001815401808255809150506001900390600052602060002001600090919091909150556001600760003373ffffffffffffffffffffffffffffffffffffffff1673ffffffffffffffffffffffffffffffffffffffff16815260200190815260200160002060008282546108bd9190614c4b565b925050819055503373ffffffffffffffffffffffffffffffffffffffff167ff8d4d3ff62faf01eaf82f3b586f2fbeb141edb1f566b539ee6ae9df44fdb6c6b82600001516109096132aa565b604051610917929190614cda565b60405180910390a25050505050565b61092e6130eb565b6000610939826132ca565b03610979576040517f08c379a000000000000000000000000000000000000000000000000000000000815260040161097090614d88565b60405180910390fd5b61098a610985826132ca565b613341565b50565b60008251116109d1576040517f08c379a00000000000000000000000000000000000000000000000000000000081526004016109c890614df4565b60405180910390fd5b6000815111610a15576040517f08c379a0000000000000000000000000000000000000000000000000000000008152600401610a0c90614e60565b60405180910390fd5b610a1d61373d565b600260008154610a2c90614925565b91905081905581600001818152505082816020018190525081816040018190525033816060019073ffffffffffffffffffffffffffffffffffffffff16908173ffffffffffffffffffffffffffffffffffffffff1681525050610a8d6132aa565b8160a0018181525050610a9e6132aa565b8160c001818152505080600f600083600001518152602001908152602001600020600082015181600001556020820151816001019081610ade9190614b79565b506040820151816002019081610af49190614b79565b5060608201518160030160006101000a81548173ffffffffffffffffffffffffffffffffffffffff021916908373ffffffffffffffffffffffffffffffffffffffff16021790555060808201518160030160146101000a81548160ff02191690831515021790555060a0820151816004015560c082015181600501559050506001600e60008360000151815260200190815260200160002060006101000a81548160ff021916908315150217905550601060003373ffffffffffffffffffffffffffffffffffffffff1673ffffffffffffffffffffffffffffffffffffffff168152602001908152602001600020816000015190806001815401808255809150506001900390600052602060002001600090919091909150556001601160003373ffffffffffffffffffffffffffffffffffffffff1673ffffffffffffffffffffffffffffffffffffffff1681526020019081526020016000206000828254610c5d9190614c4b565b925050819055503373ffffffffffffffffffffffffffffffffffffffff167fcf40bd3705e373a5f70135f1d9765c2d97154b94b433601f78a9572c576571248260000151610ca96132aa565b604051610cb7929190614ecc565b60405180910390a2505050565b6004600086815260200190815260200160002060009054906101000a900460ff16610d24576040517f08c379a0000000000000000000000000000000000000000000000000000000008152600401610d1b90614f54565b60405180910390fd5b3373ffffffffffffffffffffffffffffffffffffffff166005600087815260200190815260200160002060010160009054906101000a900473ffffffffffffffffffffffffffffffffffffffff1673ffffffffffffffffffffffffffffffffffffffff1614610dc8576040517f08c379a0000000000000000000000000000000000000000000000000000000008152600401610dbf90614fc0565b60405180910390fd5b6000845111610e0c576040517f08c379a0000000000000000000000000000000000000000000000000000000008152600401610e0390614792565b60405180910390fd5b6000835111610e50576040517f08c379a0000000000000000000000000000000000000000000000000000000008152600401610e47906147fe565b60405180910390fd5b6000825111610e94576040517f08c379a0000000000000000000000000000000000000000000000000000000008152600401610e8b9061486a565b60405180910390fd5b6000815111610ed8576040517f08c379a0000000000000000000000000000000000000000000000000000000008152600401610ecf906148d6565b60405180910390fd5b83600560008781526020019081526020016000206002019081610efb9190614b79565b5082600560008781526020019081526020016000206003019081610f1f9190614b79565b5081600560008781526020019081526020016000206004019081610f439190614b79565b5080600560008781526020019081526020016000206005019081610f679190614b79565b50610f706132aa565b60056000878152602001908152602001600020600801819055503373ffffffffffffffffffffffffffffffffffffffff167ff8d4d3ff62faf01eaf82f3b586f2fbeb141edb1f566b539ee6ae9df44fdb6c6b86610fcb6132aa565b604051610fd992919061502c565b60405180910390a25050505050565b610ff061373d565b600f60008381526020019081526020016000206040518060e0016040529081600082015481526020016001820180546110289061499c565b80601f01602080910402602001604051908101604052809291908181526020018280546110549061499c565b80156110a15780601f10611076576101008083540402835291602001916110a1565b820191906000526020600020905b81548152906001019060200180831161108457829003601f168201915b505050505081526020016002820180546110ba9061499c565b80601f01602080910402602001604051908101604052809291908181526020018280546110e69061499c565b80156111335780601f1061110857610100808354040283529160200191611133565b820191906000526020600020905b81548152906001019060200180831161111657829003601f168201915b505050505081526020016003820160009054906101000a900473ffffffffffffffffffffffffffffffffffffffff1673ffffffffffffffffffffffffffffffffffffffff1673ffffffffffffffffffffffffffffffffffffffff1681526020016003820160149054906101000a900460ff16151515158152602001600482015481526020016005820154815250509050919050565b600e600083815260200190815260200160002060009054906101000a900460ff16611228576040517f08c379a000000000000000000000000000000000000000000000000000000000815260040161121f906150b4565b60405180910390fd5b3373ffffffffffffffffffffffffffffffffffffffff16600f600084815260200190815260200160002060030160009054906101000a900473ffffffffffffffffffffffffffffffffffffffff1673ffffffffffffffffffffffffffffffffffffffff16146112cc576040517f08c379a00000000000000000000000000000000000000000000000000000000081526004016112c390614fc0565b60405180910390fd5b6000815111611310576040517f08c379a000000000000000000000000000000000000000000000000000000000815260040161130790614df4565b60405180910390fd5b80600f600084815260200190815260200160002060010190816113339190614b79565b5061133c6132aa565b600f6000848152602001908152602001600020600501819055503373ffffffffffffffffffffffffffffffffffffffff167fcf40bd3705e373a5f70135f1d9765c2d97154b94b433601f78a9572c57657124836113976132aa565b6040516113a5929190615120565b60405180910390a25050565b6004600082815260200190815260200160002060009054906101000a900460ff16611411576040517f08c379a000000000000000000000000000000000000000000000000000000000815260040161140890614f54565b60405180910390fd5b3373ffffffffffffffffffffffffffffffffffffffff166005600083815260200190815260200160002060010160009054906101000a900473ffffffffffffffffffffffffffffffffffffffff1673ffffffffffffffffffffffffffffffffffffffff16146114b5576040517f08c379a00000000000000000000000000000000000000000000000000000000081526004016114ac90614fc0565b60405180910390fd5b60006004600083815260200190815260200160002060006101000a81548160ff02191690831515021790555060016005600083815260200190815260200160002060060160006101000a81548160ff0219169083151502179055506115186132aa565b60056000838152602001908152602001600020600801819055503373ffffffffffffffffffffffffffffffffffffffff167ff8d4d3ff62faf01eaf82f3b586f2fbeb141edb1f566b539ee6ae9df44fdb6c6b826115736132aa565b6040516115819291906151a8565b60405180910390a250565b6115946130eb565b61159e6000613418565b565b6000806115ac856134dc565b905060006115b98261350c565b90508473ffffffffffffffffffffffffffffffffffffffff166115dc828661353c565b73ffffffffffffffffffffffffffffffffffffffff1614925050509392505050565b60606116086130eb565b600080600090505b600760008573ffffffffffffffffffffffffffffffffffffffff1673ffffffffffffffffffffffffffffffffffffffff16815260200190815260200160002054811015611771576000600660008673ffffffffffffffffffffffffffffffffffffffff1673ffffffffffffffffffffffffffffffffffffffff16815260200190815260200160002082815481106116aa576116a96151e4565b5b906000526020600020015490508473ffffffffffffffffffffffffffffffffffffffff166005600083815260200190815260200160002060010160009054906101000a900473ffffffffffffffffffffffffffffffffffffffff1673ffffffffffffffffffffffffffffffffffffffff1614801561174957506005600082815260200190815260200160002060060160009054906101000a900460ff16155b1561175d57828061175990614925565b9350505b50808061176990614925565b915050611610565b508067ffffffffffffffff81111561178c5761178b6138b5565b5b6040519080825280602002602001820160405280156117c557816020015b6117b26136d9565b8152602001906001900390816117aa5790505b509150600080600090505b600760008673ffffffffffffffffffffffffffffffffffffffff1673ffffffffffffffffffffffffffffffffffffffff16815260200190815260200160002054811015611c43576000600660008773ffffffffffffffffffffffffffffffffffffffff1673ffffffffffffffffffffffffffffffffffffffff168152602001908152602001600020828154811061186a576118696151e4565b5b906000526020600020015490508573ffffffffffffffffffffffffffffffffffffffff166005600083815260200190815260200160002060010160009054906101000a900473ffffffffffffffffffffffffffffffffffffffff1673ffffffffffffffffffffffffffffffffffffffff1614801561190957506005600082815260200190815260200160002060060160009054906101000a900460ff16155b15611c2f576005600082815260200190815260200160002060405180610120016040529081600082015481526020016001820160009054906101000a900473ffffffffffffffffffffffffffffffffffffffff1673ffffffffffffffffffffffffffffffffffffffff1673ffffffffffffffffffffffffffffffffffffffff16815260200160028201805461199d9061499c565b80601f01602080910402602001604051908101604052809291908181526020018280546119c99061499c565b8015611a165780601f106119eb57610100808354040283529160200191611a16565b820191906000526020600020905b8154815290600101906020018083116119f957829003601f168201915b50505050508152602001600382018054611a2f9061499c565b80601f0160208091040260200160405190810160405280929190818152602001828054611a5b9061499c565b8015611aa85780601f10611a7d57610100808354040283529160200191611aa8565b820191906000526020600020905b815481529060010190602001808311611a8b57829003601f168201915b50505050508152602001600482018054611ac19061499c565b80601f0160208091040260200160405190810160405280929190818152602001828054611aed9061499c565b8015611b3a5780601f10611b0f57610100808354040283529160200191611b3a565b820191906000526020600020905b815481529060010190602001808311611b1d57829003601f168201915b50505050508152602001600582018054611b539061499c565b80601f0160208091040260200160405190810160405280929190818152602001828054611b7f9061499c565b8015611bcc5780601f10611ba157610100808354040283529160200191611bcc565b820191906000526020600020905b815481529060010190602001808311611baf57829003601f168201915b505050505081526020016006820160009054906101000a900460ff1615151515815260200160078201548152602001600882015481525050858480611c1090614925565b955081518110611c2357611c226151e4565b5b60200260200101819052505b508080611c3b90614925565b9150506117d0565b505050919050565b60008060009054906101000a900473ffffffffffffffffffffffffffffffffffffffff16905090565b6060600080600090505b601160008573ffffffffffffffffffffffffffffffffffffffff1673ffffffffffffffffffffffffffffffffffffffff16815260200190815260200160002054811015611ddf576000601060008673ffffffffffffffffffffffffffffffffffffffff1673ffffffffffffffffffffffffffffffffffffffff1681526020019081526020016000208281548110611d1857611d176151e4565b5b906000526020600020015490508473ffffffffffffffffffffffffffffffffffffffff16600f600083815260200190815260200160002060030160009054906101000a900473ffffffffffffffffffffffffffffffffffffffff1673ffffffffffffffffffffffffffffffffffffffff16148015611db75750600f600082815260200190815260200160002060030160149054906101000a900460ff16155b15611dcb578280611dc790614925565b9350505b508080611dd790614925565b915050611c7e565b508067ffffffffffffffff811115611dfa57611df96138b5565b5b604051908082528060200260200182016040528015611e3357816020015b611e2061373d565b815260200190600190039081611e185790505b509150600080600090505b601160008673ffffffffffffffffffffffffffffffffffffffff1673ffffffffffffffffffffffffffffffffffffffff1681526020019081526020016000205481101561218c576000601060008773ffffffffffffffffffffffffffffffffffffffff1673ffffffffffffffffffffffffffffffffffffffff1681526020019081526020016000208281548110611ed857611ed76151e4565b5b906000526020600020015490508573ffffffffffffffffffffffffffffffffffffffff16600f600083815260200190815260200160002060030160009054906101000a900473ffffffffffffffffffffffffffffffffffffffff1673ffffffffffffffffffffffffffffffffffffffff16148015611f775750600f600082815260200190815260200160002060030160149054906101000a900460ff16155b1561217857600f60008281526020019081526020016000206040518060e001604052908160008201548152602001600182018054611fb49061499c565b80601f0160208091040260200160405190810160405280929190818152602001828054611fe09061499c565b801561202d5780601f106120025761010080835404028352916020019161202d565b820191906000526020600020905b81548152906001019060200180831161201057829003601f168201915b505050505081526020016002820180546120469061499c565b80601f01602080910402602001604051908101604052809291908181526020018280546120729061499c565b80156120bf5780601f10612094576101008083540402835291602001916120bf565b820191906000526020600020905b8154815290600101906020018083116120a257829003601f168201915b505050505081526020016003820160009054906101000a900473ffffffffffffffffffffffffffffffffffffffff1673ffffffffffffffffffffffffffffffffffffffff1673ffffffffffffffffffffffffffffffffffffffff1681526020016003820160149054906101000a900460ff161515151581526020016004820154815260200160058201548152505085848061215990614925565b95508151811061216c5761216b6151e4565b5b60200260200101819052505b50808061218490614925565b915050611e3e565b505050919050565b6060600080600090505b600d60008581526020019081526020016000208054905081101561221e5760006121f786600d600088815260200190815260200160002084815481106121e7576121e66151e4565b5b9060005260206000200154613172565b1461220b57818061220790614925565b9250505b808061221690614925565b91505061219e565b508067ffffffffffffffff811115612239576122386138b5565b5b60405190808252806020026020018201604052801561227257816020015b61225f61373d565b8152602001906001900390816122575790505b509150600080600090505b600d6000868152602001908152602001600020805490508110156123515760006122d687600d600089815260200190815260200160002084815481106122c6576122c56151e4565b5b9060005260206000200154613172565b1461233e57612313600d60008781526020019081526020016000208281548110612303576123026151e4565b5b9060005260206000200154610fe8565b84838061231f90614925565b945081518110612332576123316151e4565b5b60200260200101819052505b808061234990614925565b91505061227d565b50505092915050565b60006123646130eb565b6004600087815260200190815260200160002060009054906101000a900460ff166123c4576040517f08c379a00000000000000000000000000000000000000000000000000000000081526004016123bb9061525f565b60405180910390fd5b8373ffffffffffffffffffffffffffffffffffffffff166005600088815260200190815260200160002060010160009054906101000a900473ffffffffffffffffffffffffffffffffffffffff1673ffffffffffffffffffffffffffffffffffffffff1614612468576040517f08c379a000000000000000000000000000000000000000000000000000000000815260040161245f906152cb565b60405180910390fd5b600e600086815260200190815260200160002060009054906101000a900460ff166124c8576040517f08c379a00000000000000000000000000000000000000000000000000000000081526004016124bf906150b4565b60405180910390fd5b6124d38385846115a0565b612512576040517f08c379a000000000000000000000000000000000000000000000000000000000815260040161250990614726565b60405180910390fd5b600086858760405160200161252993929190615354565b604051602081830303815290604052805190602001209050612549613792565b60036000815461255890614925565b919050819055816000018181525050878160200181815250508681604001818152505085816060019073ffffffffffffffffffffffffffffffffffffffff16908173ffffffffffffffffffffffffffffffffffffffff16815250508181608001818152505060018160a00190151590811515815250506125d66132aa565b8160c00181815250506125e76132aa565b8160e001818152505080600960008360000151815260200190815260200160002060008201518160000155602082015181600101556040820151816002015560608201518160030160006101000a81548173ffffffffffffffffffffffffffffffffffffffff021916908373ffffffffffffffffffffffffffffffffffffffff1602179055506080820151816004015560a08201518160050160006101000a81548160ff02191690831515021790555060c0820151816006015560e082015181600701559050506001600860008360000151815260200190815260200160002060006101000a81548160ff021916908315150217905550600b6000888152602001908152602001600020816000015190806001815401808255809150506001900390600052602060002001600090919091909150556001600c600089815260200190815260200160002060008282546127409190614c4b565b925050819055508060000151600a600084815260200190815260200160002081905550600d60008981526020019081526020016000208790806001815401808255809150506001900390600052602060002001600090919091909150553373ffffffffffffffffffffffffffffffffffffffff167fe63a460b8dabeb604b9976b03437e24ba6d9e603af187bb174d50ce4f6b3022982600001516127e26132aa565b6040516127f09291906153dd565b60405180910390a2819250505095945050505050565b61280e6136d9565b6128166130eb565b6005600083815260200190815260200160002060405180610120016040529081600082015481526020016001820160009054906101000a900473ffffffffffffffffffffffffffffffffffffffff1673ffffffffffffffffffffffffffffffffffffffff1673ffffffffffffffffffffffffffffffffffffffff1681526020016002820180546128a59061499c565b80601f01602080910402602001604051908101604052809291908181526020018280546128d19061499c565b801561291e5780601f106128f35761010080835404028352916020019161291e565b820191906000526020600020905b81548152906001019060200180831161290157829003601f168201915b505050505081526020016003820180546129379061499c565b80601f01602080910402602001604051908101604052809291908181526020018280546129639061499c565b80156129b05780601f10612985576101008083540402835291602001916129b0565b820191906000526020600020905b81548152906001019060200180831161299357829003601f168201915b505050505081526020016004820180546129c99061499c565b80601f01602080910402602001604051908101604052809291908181526020018280546129f59061499c565b8015612a425780601f10612a1757610100808354040283529160200191612a42565b820191906000526020600020905b815481529060010190602001808311612a2557829003601f168201915b50505050508152602001600582018054612a5b9061499c565b80601f0160208091040260200160405190810160405280929190818152602001828054612a879061499c565b8015612ad45780601f10612aa957610100808354040283529160200191612ad4565b820191906000526020600020905b815481529060010190602001808311612ab757829003601f168201915b505050505081526020016006820160009054906101000a900460ff16151515158152602001600782015481526020016008820154815250509050919050565b600e600082815260200190815260200160002060009054906101000a900460ff16612b73576040517f08c379a0000000000000000000000000000000000000000000000000000000008152600401612b6a906150b4565b60405180910390fd5b3373ffffffffffffffffffffffffffffffffffffffff16600f600083815260200190815260200160002060030160009054906101000a900473ffffffffffffffffffffffffffffffffffffffff1673ffffffffffffffffffffffffffffffffffffffff1614612c17576040517f08c379a0000000000000000000000000000000000000000000000000000000008152600401612c0e90614fc0565b60405180910390fd5b6000600e600083815260200190815260200160002060006101000a81548160ff0219169083151502179055506001600f600083815260200190815260200160002060030160146101000a81548160ff021916908315150217905550612c7a6132aa565b600f600083815260200190815260200160002060050181905550612c9d816135ab565b3373ffffffffffffffffffffffffffffffffffffffff167fcf40bd3705e373a5f70135f1d9765c2d97154b94b433601f78a9572c5765712482612cde6132aa565b604051612cec929190615465565b60405180910390a250565b612cff6130eb565b600073ffffffffffffffffffffffffffffffffffffffff168173ffffffffffffffffffffffffffffffffffffffff1603612d715760006040517f1e4fbdf7000000000000000000000000000000000000000000000000000000008152600401612d6891906142b1565b60405180910390fd5b612d7a81613418565b50565b612d856136d9565b6000612d90836132ca565b03612dd0576040517f08c379a0000000000000000000000000000000000000000000000000000000008152600401612dc790614d88565b60405180910390fd5b6005600060096000612de1866132ca565b815260200190815260200160002060010154815260200190815260200160002060405180610120016040529081600082015481526020016001820160009054906101000a900473ffffffffffffffffffffffffffffffffffffffff1673ffffffffffffffffffffffffffffffffffffffff1673ffffffffffffffffffffffffffffffffffffffff168152602001600282018054612e7d9061499c565b80601f0160208091040260200160405190810160405280929190818152602001828054612ea99061499c565b8015612ef65780601f10612ecb57610100808354040283529160200191612ef6565b820191906000526020600020905b815481529060010190602001808311612ed957829003601f168201915b50505050508152602001600382018054612f0f9061499c565b80601f0160208091040260200160405190810160405280929190818152602001828054612f3b9061499c565b8015612f885780601f10612f5d57610100808354040283529160200191612f88565b820191906000526020600020905b815481529060010190602001808311612f6b57829003601f168201915b50505050508152602001600482018054612fa19061499c565b80601f0160208091040260200160405190810160405280929190818152602001828054612fcd9061499c565b801561301a5780601f10612fef5761010080835404028352916020019161301a565b820191906000526020600020905b815481529060010190602001808311612ffd57829003601f168201915b505050505081526020016005820180546130339061499c565b80601f016020809104026020016040519081016040528092919081815260200182805461305f9061499c565b80156130ac5780601f10613081576101008083540402835291602001916130ac565b820191906000526020600020905b81548152906001019060200180831161308f57829003601f168201915b505050505081526020016006820160009054906101000a900460ff16151515158152602001600782015481526020016008820154815250509050919050565b6130f3613669565b73ffffffffffffffffffffffffffffffffffffffff16613111611c4b565b73ffffffffffffffffffffffffffffffffffffffff161461317057613134613669565b6040517f118cdaa700000000000000000000000000000000000000000000000000000000815260040161316791906142b1565b60405180910390fd5b565b600080600090505b600c60008481526020019081526020016000205481101561329e576000600b600085815260200190815260200160002082815481106131bc576131bb6151e4565b5b906000526020600020015490508473ffffffffffffffffffffffffffffffffffffffff166009600083815260200190815260200160002060030160009054906101000a900473ffffffffffffffffffffffffffffffffffffffff1673ffffffffffffffffffffffffffffffffffffffff1614801561325a57506009600082815260200190815260200160002060050160009054906101000a900460ff165b801561327b5750836009600083815260200190815260200160002060020154145b1561328a5780925050506132a4565b50808061329690614925565b91505061317a565b50600090505b92915050565b60006103e880426132bb91906154a1565b6132c59190614c4b565b905090565b600080600a60008481526020019081526020016000205490506009600082815260200190815260200160002060050160009054906101000a900460ff1680156133285750826009600083815260200190815260200160002060040154145b15613336578091505061333c565b60009150505b919050565b60006009600083815260200190815260200160002060050160006101000a81548160ff0219169083151502179055506133786132aa565b600960008381526020019081526020016000206007018190555060006008600083815260200190815260200160002060006101000a81548160ff0219169083151502179055503373ffffffffffffffffffffffffffffffffffffffff167fe63a460b8dabeb604b9976b03437e24ba6d9e603af187bb174d50ce4f6b30229826133ff6132aa565b60405161340d92919061552f565b60405180910390a250565b60008060009054906101000a900473ffffffffffffffffffffffffffffffffffffffff169050816000806101000a81548173ffffffffffffffffffffffffffffffffffffffff021916908373ffffffffffffffffffffffffffffffffffffffff1602179055508173ffffffffffffffffffffffffffffffffffffffff168173ffffffffffffffffffffffffffffffffffffffff167f8be0079c531659141344cd1fd0a4f28419497f9722a3daafe3b4186f6b6457e060405160405180910390a35050565b6000816040516020016134ef91906155a7565b604051602081830303815290604052805190602001209050919050565b60008160405160200161351f919061562b565b604051602081830303815290604052805190602001209050919050565b60008060008061354b85613671565b92509250925060018682858560405160008152602001604052604051613574949392919061566d565b6020604051602081039080840390855afa158015613596573d6000803e3d6000fd5b50505060206040510351935050505092915050565b60005b600c600083815260200190815260200160002054811015613665576000600b600084815260200190815260200160002082815481106135f0576135ef6151e4565b5b9060005260206000200154905082600960008381526020019081526020016000206002015414801561364257506009600082815260200190815260200160002060050160009054906101000a900460ff165b156136515761365081613341565b5b50808061365d90614925565b9150506135ae565b5050565b600033905090565b600080600060418451146136ba576040517f08c379a00000000000000000000000000000000000000000000000000000000081526004016136b1906146ba565b60405180910390fd5b6020840151925060408401519150606084015160001a90509193909250565b60405180610120016040528060008152602001600073ffffffffffffffffffffffffffffffffffffffff1681526020016060815260200160608152602001606081526020016060815260200160001515815260200160008152602001600081525090565b6040518060e00160405280600081526020016060815260200160608152602001600073ffffffffffffffffffffffffffffffffffffffff16815260200160001515815260200160008152602001600081525090565b604051806101000160405280600081526020016000815260200160008152602001600073ffffffffffffffffffffffffffffffffffffffff1681526020016000801916815260200160001515815260200160008152602001600081525090565b6000604051905090565b600080fd5b600080fd5b600073ffffffffffffffffffffffffffffffffffffffff82169050919050565b600061383182613806565b9050919050565b61384181613826565b811461384c57600080fd5b50565b60008135905061385e81613838565b92915050565b6000819050919050565b61387781613864565b811461388257600080fd5b50565b6000813590506138948161386e565b92915050565b600080fd5b600080fd5b6000601f19601f8301169050919050565b7f4e487b7100000000000000000000000000000000000000000000000000000000600052604160045260246000fd5b6138ed826138a4565b810181811067ffffffffffffffff8211171561390c5761390b6138b5565b5b80604052505050565b600061391f6137f2565b905061392b82826138e4565b919050565b600067ffffffffffffffff82111561394b5761394a6138b5565b5b613954826138a4565b9050602081019050919050565b82818337600083830152505050565b600061398361397e84613930565b613915565b90508281526020810184848401111561399f5761399e61389f565b5b6139aa848285613961565b509392505050565b600082601f8301126139c7576139c661389a565b5b81356139d7848260208601613970565b91505092915050565b600067ffffffffffffffff8211156139fb576139fa6138b5565b5b613a04826138a4565b9050602081019050919050565b6000613a24613a1f846139e0565b613915565b905082815260208101848484011115613a4057613a3f61389f565b5b613a4b848285613961565b509392505050565b600082601f830112613a6857613a6761389a565b5b8135613a78848260208601613a11565b91505092915050565b60008060008060808587031215613a9b57613a9a6137fc565b5b6000613aa98782880161384f565b9450506020613aba87828801613885565b935050604085013567ffffffffffffffff811115613adb57613ada613801565b5b613ae7878288016139b2565b925050606085013567ffffffffffffffff811115613b0857613b07613801565b5b613b1487828801613a53565b91505092959194509250565b6000819050919050565b613b3381613b20565b82525050565b600081519050919050565b600082825260208201905092915050565b6000819050602082019050919050565b613b6e81613864565b82525050565b613b7d81613826565b82525050565b600081519050919050565b600082825260208201905092915050565b60005b83811015613bbd578082015181840152602081019050613ba2565b60008484015250505050565b6000613bd482613b83565b613bde8185613b8e565b9350613bee818560208601613b9f565b613bf7816138a4565b840191505092915050565b60008115159050919050565b613c1781613c02565b82525050565b600061012083016000830151613c366000860182613b65565b506020830151613c496020860182613b74565b5060408301518482036040860152613c618282613bc9565b91505060608301518482036060860152613c7b8282613bc9565b91505060808301518482036080860152613c958282613bc9565b91505060a083015184820360a0860152613caf8282613bc9565b91505060c0830151613cc460c0860182613c0e565b5060e0830151613cd760e0860182613b65565b50610100830151613cec610100860182613b65565b508091505092915050565b6000613d038383613c1d565b905092915050565b6000602082019050919050565b6000613d2382613b39565b613d2d8185613b44565b935083602082028501613d3f85613b55565b8060005b85811015613d7b5784840389528151613d5c8582613cf7565b9450613d6783613d0b565b925060208a01995050600181019050613d43565b50829750879550505050505092915050565b6000604082019050613da26000830185613b2a565b8181036020830152613db48184613d18565b90509392505050565b60008060008060808587031215613dd757613dd66137fc565b5b600085013567ffffffffffffffff811115613df557613df4613801565b5b613e01878288016139b2565b945050602085013567ffffffffffffffff811115613e2257613e21613801565b5b613e2e878288016139b2565b935050604085013567ffffffffffffffff811115613e4f57613e4e613801565b5b613e5b878288016139b2565b925050606085013567ffffffffffffffff811115613e7c57613e7b613801565b5b613e88878288016139b2565b91505092959194509250565b613e9d81613b20565b8114613ea857600080fd5b50565b600081359050613eba81613e94565b92915050565b600060208284031215613ed657613ed56137fc565b5b6000613ee484828501613eab565b91505092915050565b60008060408385031215613f0457613f036137fc565b5b600083013567ffffffffffffffff811115613f2257613f21613801565b5b613f2e858286016139b2565b925050602083013567ffffffffffffffff811115613f4f57613f4e613801565b5b613f5b858286016139b2565b9150509250929050565b600080600080600060a08688031215613f8157613f806137fc565b5b6000613f8f88828901613885565b955050602086013567ffffffffffffffff811115613fb057613faf613801565b5b613fbc888289016139b2565b945050604086013567ffffffffffffffff811115613fdd57613fdc613801565b5b613fe9888289016139b2565b935050606086013567ffffffffffffffff81111561400a57614009613801565b5b614016888289016139b2565b925050608086013567ffffffffffffffff81111561403757614036613801565b5b614043888289016139b2565b9150509295509295909350565b600060208284031215614066576140656137fc565b5b600061407484828501613885565b91505092915050565b600060e0830160008301516140956000860182613b65565b50602083015184820360208601526140ad8282613bc9565b915050604083015184820360408601526140c78282613bc9565b91505060608301516140dc6060860182613b74565b5060808301516140ef6080860182613c0e565b5060a083015161410260a0860182613b65565b5060c083015161411560c0860182613b65565b508091505092915050565b6000602082019050818103600083015261413a818461407d565b905092915050565b60008060408385031215614159576141586137fc565b5b600061416785828601613885565b925050602083013567ffffffffffffffff81111561418857614187613801565b5b614194858286016139b2565b9150509250929050565b6000806000606084860312156141b7576141b66137fc565b5b600084013567ffffffffffffffff8111156141d5576141d4613801565b5b6141e1868287016139b2565b93505060206141f28682870161384f565b925050604084013567ffffffffffffffff81111561421357614212613801565b5b61421f86828701613a53565b9150509250925092565b61423281613c02565b82525050565b600060208201905061424d6000830184614229565b92915050565b600060208284031215614269576142686137fc565b5b60006142778482850161384f565b91505092915050565b6000602082019050818103600083015261429a8184613d18565b905092915050565b6142ab81613826565b82525050565b60006020820190506142c660008301846142a2565b92915050565b600081519050919050565b600082825260208201905092915050565b6000819050602082019050919050565b600060e0830160008301516143106000860182613b65565b50602083015184820360208601526143288282613bc9565b915050604083015184820360408601526143428282613bc9565b91505060608301516143576060860182613b74565b50608083015161436a6080860182613c0e565b5060a083015161437d60a0860182613b65565b5060c083015161439060c0860182613b65565b508091505092915050565b60006143a783836142f8565b905092915050565b6000602082019050919050565b60006143c7826142cc565b6143d181856142d7565b9350836020820285016143e3856142e8565b8060005b8581101561441f5784840389528151614400858261439b565b945061440b836143af565b925060208a019950506001810190506143e7565b50829750879550505050505092915050565b6000602082019050818103600083015261444b81846143bc565b905092915050565b6000806040838503121561446a576144696137fc565b5b60006144788582860161384f565b925050602061448985828601613885565b9150509250929050565b600080600080600060a086880312156144af576144ae6137fc565b5b60006144bd88828901613885565b95505060206144ce88828901613885565b94505060406144df8882890161384f565b935050606086013567ffffffffffffffff811115614500576144ff613801565b5b61450c888289016139b2565b925050608086013567ffffffffffffffff81111561452d5761452c613801565b5b61453988828901613a53565b9150509295509295909350565b600060208201905061455b6000830184613b2a565b92915050565b60006101208301600083015161457a6000860182613b65565b50602083015161458d6020860182613b74565b50604083015184820360408601526145a58282613bc9565b915050606083015184820360608601526145bf8282613bc9565b915050608083015184820360808601526145d98282613bc9565b91505060a083015184820360a08601526145f38282613bc9565b91505060c083015161460860c0860182613c0e565b5060e083015161461b60e0860182613b65565b50610100830151614630610100860182613b65565b508091505092915050565b600060208201905081810360008301526146558184614561565b905092915050565b600082825260208201905092915050565b7f496e76616c6964207369676e6174757265206c656e6774680000000000000000600082015250565b60006146a460188361465d565b91506146af8261466e565b602082019050919050565b600060208201905081810360008301526146d381614697565b9050919050565b7f556e61626c6520746f2076616c6964617465207369676e617475726500000000600082015250565b6000614710601c8361465d565b915061471b826146da565b602082019050919050565b6000602082019050818103600083015261473f81614703565b9050919050565b7f557365726e616d65206d757374206e6f7420626520656d707479000000000000600082015250565b600061477c601a8361465d565b915061478782614746565b602082019050919050565b600060208201905081810360008301526147ab8161476f565b9050919050565b7f504650206d757374206e6f7420626520656d7074790000000000000000000000600082015250565b60006147e860158361465d565b91506147f3826147b2565b602082019050919050565b60006020820190508181036000830152614817816147db565b9050919050565b7f456d61696c2061646472657373206d757374206e6f7420626520656d70747900600082015250565b6000614854601f8361465d565b915061485f8261481e565b602082019050919050565b6000602082019050818103600083015261488381614847565b9050919050565b7f42696f206d757374206e6f7420626520656d7074790000000000000000000000600082015250565b60006148c060158361465d565b91506148cb8261488a565b602082019050919050565b600060208201905081810360008301526148ef816148b3565b9050919050565b7f4e487b7100000000000000000000000000000000000000000000000000000000600052601160045260246000fd5b600061493082613864565b91507fffffffffffffffffffffffffffffffffffffffffffffffffffffffffffffffff8203614962576149616148f6565b5b600182019050919050565b7f4e487b7100000000000000000000000000000000000000000000000000000000600052602260045260246000fd5b600060028204905060018216806149b457607f821691505b6020821081036149c7576149c661496d565b5b50919050565b60008190508160005260206000209050919050565b60006020601f8301049050919050565b600082821b905092915050565b600060088302614a2f7fffffffffffffffffffffffffffffffffffffffffffffffffffffffffffffffff826149f2565b614a3986836149f2565b95508019841693508086168417925050509392505050565b6000819050919050565b6000614a76614a71614a6c84613864565b614a51565b613864565b9050919050565b6000819050919050565b614a9083614a5b565b614aa4614a9c82614a7d565b8484546149ff565b825550505050565b600090565b614ab9614aac565b614ac4818484614a87565b505050565b5b81811015614ae857614add600082614ab1565b600181019050614aca565b5050565b601f821115614b2d57614afe816149cd565b614b07846149e2565b81016020851015614b16578190505b614b2a614b22856149e2565b830182614ac9565b50505b505050565b600082821c905092915050565b6000614b5060001984600802614b32565b1980831691505092915050565b6000614b698383614b3f565b9150826002028217905092915050565b614b8282613b83565b67ffffffffffffffff811115614b9b57614b9a6138b5565b5b614ba5825461499c565b614bb0828285614aec565b600060209050601f831160018114614be35760008415614bd1578287015190505b614bdb8582614b5d565b865550614c43565b601f198416614bf1866149cd565b60005b82811015614c1957848901518255600182019150602085019450602081019050614bf4565b86831015614c365784890151614c32601f891682614b3f565b8355505b6001600288020188555050505b505050505050565b6000614c5682613864565b9150614c6183613864565b9250828201905080821115614c7957614c786148f6565b5b92915050565b614c8881613864565b82525050565b7f4372656174656420436172640000000000000000000000000000000000000000600082015250565b6000614cc4600c8361465d565b9150614ccf82614c8e565b602082019050919050565b6000606082019050614cef6000830185614c7f565b8181036020830152614d0081614cb7565b9050614d0f6040830184614c7f565b9392505050565b7f496e76616c6964206f72204578706972656420746f6b656e2070726f7669646560008201527f6400000000000000000000000000000000000000000000000000000000000000602082015250565b6000614d7260218361465d565b9150614d7d82614d16565b604082019050919050565b60006020820190508181036000830152614da181614d65565b9050919050565b7f446f6d61696e206d757374206e6f7420626520656d7074790000000000000000600082015250565b6000614dde60188361465d565b9150614de982614da8565b602082019050919050565b60006020820190508181036000830152614e0d81614dd1565b9050919050565b7f41636365737320546f6b656e206d757374206e6f7420626520656d7074790000600082015250565b6000614e4a601e8361465d565b9150614e5582614e14565b602082019050919050565b60006020820190508181036000830152614e7981614e3d565b9050919050565b7f5265676973746572656420644170700000000000000000000000000000000000600082015250565b6000614eb6600f8361465d565b9150614ec182614e80565b602082019050919050565b6000606082019050614ee16000830185614c7f565b8181036020830152614ef281614ea9565b9050614f016040830184614c7f565b9392505050565b7f43617264206e6f7420666f756e64000000000000000000000000000000000000600082015250565b6000614f3e600e8361465d565b9150614f4982614f08565b602082019050919050565b60006020820190508181036000830152614f6d81614f31565b9050919050565b7f556e617574686f72697a65640000000000000000000000000000000000000000600082015250565b6000614faa600c8361465d565b9150614fb582614f74565b602082019050919050565b60006020820190508181036000830152614fd981614f9d565b9050919050565b7f5570646174656420436172640000000000000000000000000000000000000000600082015250565b6000615016600c8361465d565b915061502182614fe0565b602082019050919050565b60006060820190506150416000830185614c7f565b818103602083015261505281615009565b90506150616040830184614c7f565b9392505050565b7f64417070206e6f74207265676973746572656400000000000000000000000000600082015250565b600061509e60138361465d565b91506150a982615068565b602082019050919050565b600060208201905081810360008301526150cd81615091565b9050919050565b7f5570646174656420644170700000000000000000000000000000000000000000600082015250565b600061510a600c8361465d565b9150615115826150d4565b602082019050919050565b60006060820190506151356000830185614c7f565b8181036020830152615146816150fd565b90506151556040830184614c7f565b9392505050565b7f44656c6574656420436172640000000000000000000000000000000000000000600082015250565b6000615192600c8361465d565b915061519d8261515c565b602082019050919050565b60006060820190506151bd6000830185614c7f565b81810360208301526151ce81615185565b90506151dd6040830184614c7f565b9392505050565b7f4e487b7100000000000000000000000000000000000000000000000000000000600052603260045260246000fd5b7f4361726420646f6573206e6f7420657869737400000000000000000000000000600082015250565b600061524960138361465d565b915061525482615213565b602082019050919050565b600060208201905081810360008301526152788161523c565b9050919050565b7f4163636573732064656e69656400000000000000000000000000000000000000600082015250565b60006152b5600d8361465d565b91506152c08261527f565b602082019050919050565b600060208201905081810360008301526152e4816152a8565b9050919050565b6000819050919050565b61530661530182613864565b6152eb565b82525050565b60008160601b9050919050565b60006153248261530c565b9050919050565b600061533682615319565b9050919050565b61534e61534982613826565b61532b565b82525050565b600061536082866152f5565b602082019150615370828561533d565b60148201915061538082846152f5565b602082019150819050949350505050565b7f437265617465642053657373696f6e20546f6b656e0000000000000000000000600082015250565b60006153c760158361465d565b91506153d282615391565b602082019050919050565b60006060820190506153f26000830185614c7f565b8181036020830152615403816153ba565b90506154126040830184614c7f565b9392505050565b7f44656c6574656420644170700000000000000000000000000000000000000000600082015250565b600061544f600c8361465d565b915061545a82615419565b602082019050919050565b600060608201905061547a6000830185614c7f565b818103602083015261548b81615442565b905061549a6040830184614c7f565b9392505050565b60006154ac82613864565b91506154b783613864565b92508282026154c581613864565b915082820484148315176154dc576154db6148f6565b5b5092915050565b7f44656163746976617465642053657373696f6e20546f6b656e00000000000000600082015250565b600061551960198361465d565b9150615524826154e3565b602082019050919050565b60006060820190506155446000830185614c7f565b81810360208301526155558161550c565b90506155646040830184614c7f565b9392505050565b600081905092915050565b600061558182613b83565b61558b818561556b565b935061559b818560208601613b9f565b80840191505092915050565b60006155b38284615576565b915081905092915050565b7f19457468657265756d205369676e6564204d6573736167653a0a333200000000600082015250565b60006155f4601c8361556b565b91506155ff826155be565b601c82019050919050565b6000819050919050565b61562561562082613b20565b61560a565b82525050565b6000615636826155e7565b91506156428284615614565b60208201915081905092915050565b600060ff82169050919050565b61566781615651565b82525050565b60006080820190506156826000830187613b2a565b61568f602083018661565e565b61569c6040830185613b2a565b6156a96060830184613b2a565b9594505050505056fea2646970667358221220fb9222264966714537b3fc0a0a66fd67bf0e33968d6bc0928c264108df33ea3164736f6c63430008140033",
  "linkReferences": {},
  "deployedLinkReferences": {}
}