{
  "_format": "hh-sol-artifact-1",
  "contractName": "OAuth",
  "sourceName": "contracts/OAuth.sol",
  "abi": [
    {
      "inputs": [],
      "stateMutability": "nonpayable",
      "type": "constructor"
    },
    {
      "inputs": [
        {
          "internalType": "address",
          "name": "owner",
          "type": "address"
        }
      ],
      "name": "OwnableInvalidOwner",
      "type": "error"
    },
    {
      "inputs": [
        {
          "internalType": "address",
          "name": "account",
          "type": "address"
        }
      ],
      "name": "OwnableUnauthorizedAccount",
      "type": "error"
    },
    {
      "anonymous": false,
      "inputs": [
        {
          "indexed": false,
          "internalType": "uint256",
          "name": "id",
          "type": "uint256"
        },
        {
          "indexed": false,
          "internalType": "string",
          "name": "actionType",
          "type": "string"
        },
        {
          "indexed": true,
          "internalType": "address",
          "name": "executor",
          "type": "address"
        },
        {
          "indexed": false,
          "internalType": "uint256",
          "name": "timestamp",
          "type": "uint256"
        }
      ],
      "name": "CardAction",
      "type": "event"
    },
    {
      "anonymous": false,
      "inputs": [
        {
          "indexed": true,
          "internalType": "address",
          "name": "previousOwner",
          "type": "address"
        },
        {
          "indexed": true,
          "internalType": "address",
          "name": "newOwner",
          "type": "address"
        }
      ],
      "name": "OwnershipTransferred",
      "type": "event"
    },
    {
      "anonymous": false,
      "inputs": [
        {
          "indexed": false,
          "internalType": "uint256",
          "name": "id",
          "type": "uint256"
        },
        {
          "indexed": false,
          "internalType": "string",
          "name": "actionType",
          "type": "string"
        },
        {
          "indexed": true,
          "internalType": "address",
          "name": "executor",
          "type": "address"
        },
        {
          "indexed": false,
          "internalType": "uint256",
          "name": "timestamp",
          "type": "uint256"
        }
      ],
      "name": "ProviderAction",
      "type": "event"
    },
    {
      "anonymous": false,
      "inputs": [
        {
          "indexed": false,
          "internalType": "uint256",
          "name": "id",
          "type": "uint256"
        },
        {
          "indexed": false,
          "internalType": "string",
          "name": "actionType",
          "type": "string"
        },
        {
          "indexed": true,
          "internalType": "address",
          "name": "executor",
          "type": "address"
        },
        {
          "indexed": false,
          "internalType": "uint256",
          "name": "timestamp",
          "type": "uint256"
        }
      ],
      "name": "SessionTokenAction",
      "type": "event"
    },
    {
      "anonymous": false,
      "inputs": [
        {
          "indexed": true,
          "internalType": "address",
          "name": "receiver",
          "type": "address"
        },
        {
          "indexed": false,
          "internalType": "uint256",
          "name": "amount",
          "type": "uint256"
        },
        {
          "indexed": false,
          "internalType": "uint256",
          "name": "timestamp",
          "type": "uint256"
        }
      ],
      "name": "Withdraw",
      "type": "event"
    },
    {
      "inputs": [
        {
          "internalType": "string",
          "name": "_username",
          "type": "string"
        },
        {
          "internalType": "string",
          "name": "_pfp",
          "type": "string"
        },
        {
          "internalType": "string",
          "name": "_emailAddress",
          "type": "string"
        },
        {
          "internalType": "string",
          "name": "_bio",
          "type": "string"
        }
      ],
      "name": "createCard",
      "outputs": [],
      "stateMutability": "nonpayable",
      "type": "function"
    },
    {
      "inputs": [
        {
          "internalType": "uint256",
          "name": "_cardId",
          "type": "uint256"
        },
        {
          "internalType": "uint256",
          "name": "_dappId",
          "type": "uint256"
        },
        {
          "internalType": "address",
          "name": "_user",
          "type": "address"
        },
        {
          "internalType": "string",
          "name": "_message",
          "type": "string"
        },
        {
          "internalType": "bytes",
          "name": "_signature",
          "type": "bytes"
        }
      ],
      "name": "createSession",
      "outputs": [
        {
          "internalType": "bytes32",
          "name": "",
          "type": "bytes32"
        }
      ],
      "stateMutability": "nonpayable",
      "type": "function"
    },
    {
      "inputs": [
        {
          "internalType": "bytes32",
          "name": "_token",
          "type": "bytes32"
        }
      ],
      "name": "deactivateSessionFromToken",
      "outputs": [],
      "stateMutability": "nonpayable",
      "type": "function"
    },
    {
      "inputs": [
        {
          "internalType": "uint256",
          "name": "_id",
          "type": "uint256"
        }
      ],
      "name": "deleteCard",
      "outputs": [],
      "stateMutability": "nonpayable",
      "type": "function"
    },
    {
      "inputs": [
        {
          "internalType": "uint256",
          "name": "_id",
          "type": "uint256"
        }
      ],
      "name": "deleteDapp",
      "outputs": [],
      "stateMutability": "nonpayable",
      "type": "function"
    },
    {
      "inputs": [
        {
          "internalType": "bytes32",
          "name": "_token",
          "type": "bytes32"
        }
      ],
      "name": "fetchUserInfo",
      "outputs": [
        {
          "components": [
            {
              "internalType": "uint256",
              "name": "id",
              "type": "uint256"
            },
            {
              "internalType": "address",
              "name": "owner",
              "type": "address"
            },
            {
              "internalType": "string",
              "name": "username",
              "type": "string"
            },
            {
              "internalType": "string",
              "name": "pfp",
              "type": "string"
            },
            {
              "internalType": "string",
              "name": "emailAddress",
              "type": "string"
            },
            {
              "internalType": "string",
              "name": "bio",
              "type": "string"
            },
            {
              "internalType": "bool",
              "name": "isDeleted",
              "type": "bool"
            },
            {
              "internalType": "uint256",
              "name": "createdAt",
              "type": "uint256"
            },
            {
              "internalType": "uint256",
              "name": "updatedAt",
              "type": "uint256"
            }
          ],
          "internalType": "struct OAuth.CardStruct",
          "name": "Card",
          "type": "tuple"
        }
      ],
      "stateMutability": "view",
      "type": "function"
    },
    {
      "inputs": [],
      "name": "getBalance",
      "outputs": [
        {
          "internalType": "uint256",
          "name": "",
          "type": "uint256"
        }
      ],
      "stateMutability": "view",
      "type": "function"
    },
    {
      "inputs": [
        {
          "internalType": "uint256",
          "name": "_dappId",
          "type": "uint256"
        }
      ],
      "name": "getDapp",
      "outputs": [
        {
          "components": [
            {
              "internalType": "uint256",
              "name": "id",
              "type": "uint256"
            },
            {
              "internalType": "string",
              "name": "domain",
              "type": "string"
            },
            {
              "internalType": "string",
              "name": "accessToken",
              "type": "string"
            },
            {
              "internalType": "address",
              "name": "owner",
              "type": "address"
            },
            {
              "internalType": "bool",
              "name": "isDeleted",
              "type": "bool"
            },
            {
              "internalType": "uint256",
              "name": "createdAt",
              "type": "uint256"
            },
            {
              "internalType": "uint256",
              "name": "updatedAt",
              "type": "uint256"
            }
          ],
          "internalType": "struct OAuth.ProviderDappStruct",
          "name": "dApp",
          "type": "tuple"
        }
      ],
      "stateMutability": "view",
      "type": "function"
    },
    {
      "inputs": [
        {
          "internalType": "string",
          "name": "_token",
          "type": "string"
        }
      ],
      "name": "getDappFromToken",
      "outputs": [
        {
          "components": [
            {
              "internalType": "uint256",
              "name": "id",
              "type": "uint256"
            },
            {
              "internalType": "string",
              "name": "domain",
              "type": "string"
            },
            {
              "internalType": "string",
              "name": "accessToken",
              "type": "string"
            },
            {
              "internalType": "address",
              "name": "owner",
              "type": "address"
            },
            {
              "internalType": "bool",
              "name": "isDeleted",
              "type": "bool"
            },
            {
              "internalType": "uint256",
              "name": "createdAt",
              "type": "uint256"
            },
            {
              "internalType": "uint256",
              "name": "updatedAt",
              "type": "uint256"
            }
          ],
          "internalType": "struct OAuth.ProviderDappStruct",
          "name": "dApp",
          "type": "tuple"
        }
      ],
      "stateMutability": "view",
      "type": "function"
    },
    {
      "inputs": [
        {
          "internalType": "string",
          "name": "_domain",
          "type": "string"
        }
      ],
      "name": "getDappIdFromDomain",
      "outputs": [
        {
          "internalType": "uint256",
          "name": "",
          "type": "uint256"
        }
      ],
      "stateMutability": "view",
      "type": "function"
    },
    {
      "inputs": [
        {
          "internalType": "address",
          "name": "_user",
          "type": "address"
        }
      ],
      "name": "getDapps",
      "outputs": [
        {
          "components": [
            {
              "internalType": "uint256",
              "name": "id",
              "type": "uint256"
            },
            {
              "internalType": "string",
              "name": "domain",
              "type": "string"
            },
            {
              "internalType": "string",
              "name": "accessToken",
              "type": "string"
            },
            {
              "internalType": "address",
              "name": "owner",
              "type": "address"
            },
            {
              "internalType": "bool",
              "name": "isDeleted",
              "type": "bool"
            },
            {
              "internalType": "uint256",
              "name": "createdAt",
              "type": "uint256"
            },
            {
              "internalType": "uint256",
              "name": "updatedAt",
              "type": "uint256"
            }
          ],
          "internalType": "struct OAuth.ProviderDappStruct[]",
          "name": "dApps",
          "type": "tuple[]"
        }
      ],
      "stateMutability": "view",
      "type": "function"
    },
    {
      "inputs": [
        {
          "internalType": "address",
          "name": "_user",
          "type": "address"
        },
        {
          "internalType": "uint256",
          "name": "_cardId",
          "type": "uint256"
        }
      ],
      "name": "getDappsConnectedToCard",
      "outputs": [
        {
          "components": [
            {
              "internalType": "uint256",
              "name": "id",
              "type": "uint256"
            },
            {
              "internalType": "string",
              "name": "domain",
              "type": "string"
            },
            {
              "internalType": "string",
              "name": "accessToken",
              "type": "string"
            },
            {
              "internalType": "address",
              "name": "owner",
              "type": "address"
            },
            {
              "internalType": "bool",
              "name": "isDeleted",
              "type": "bool"
            },
            {
              "internalType": "uint256",
              "name": "createdAt",
              "type": "uint256"
            },
            {
              "internalType": "uint256",
              "name": "updatedAt",
              "type": "uint256"
            }
          ],
          "internalType": "struct OAuth.ProviderDappStruct[]",
          "name": "dApps",
          "type": "tuple[]"
        }
      ],
      "stateMutability": "view",
      "type": "function"
    },
    {
      "inputs": [
        {
          "internalType": "uint256",
          "name": "_cardId",
          "type": "uint256"
        }
      ],
      "name": "getUserCard",
      "outputs": [
        {
          "components": [
            {
              "internalType": "uint256",
              "name": "id",
              "type": "uint256"
            },
            {
              "internalType": "address",
              "name": "owner",
              "type": "address"
            },
            {
              "internalType": "string",
              "name": "username",
              "type": "string"
            },
            {
              "internalType": "string",
              "name": "pfp",
              "type": "string"
            },
            {
              "internalType": "string",
              "name": "emailAddress",
              "type": "string"
            },
            {
              "internalType": "string",
              "name": "bio",
              "type": "string"
            },
            {
              "internalType": "bool",
              "name": "isDeleted",
              "type": "bool"
            },
            {
              "internalType": "uint256",
              "name": "createdAt",
              "type": "uint256"
            },
            {
              "internalType": "uint256",
              "name": "updatedAt",
              "type": "uint256"
            }
          ],
          "internalType": "struct OAuth.CardStruct",
          "name": "Card",
          "type": "tuple"
        }
      ],
      "stateMutability": "view",
      "type": "function"
    },
    {
      "inputs": [
        {
          "internalType": "address",
          "name": "_user",
          "type": "address"
        }
      ],
      "name": "getUserCards",
      "outputs": [
        {
          "components": [
            {
              "internalType": "uint256",
              "name": "id",
              "type": "uint256"
            },
            {
              "internalType": "address",
              "name": "owner",
              "type": "address"
            },
            {
              "internalType": "string",
              "name": "username",
              "type": "string"
            },
            {
              "internalType": "string",
              "name": "pfp",
              "type": "string"
            },
            {
              "internalType": "string",
              "name": "emailAddress",
              "type": "string"
            },
            {
              "internalType": "string",
              "name": "bio",
              "type": "string"
            },
            {
              "internalType": "bool",
              "name": "isDeleted",
              "type": "bool"
            },
            {
              "internalType": "uint256",
              "name": "createdAt",
              "type": "uint256"
            },
            {
              "internalType": "uint256",
              "name": "updatedAt",
              "type": "uint256"
            }
          ],
          "internalType": "struct OAuth.CardStruct[]",
          "name": "Cards",
          "type": "tuple[]"
        }
      ],
      "stateMutability": "view",
      "type": "function"
    },
    {
      "inputs": [
        {
          "internalType": "uint256",
          "name": "_id",
          "type": "uint256"
        },
        {
          "internalType": "string",
          "name": "_domain",
          "type": "string"
        }
      ],
      "name": "modifyDapp",
      "outputs": [],
      "stateMutability": "nonpayable",
      "type": "function"
    },
    {
      "inputs": [],
      "name": "owner",
      "outputs": [
        {
          "internalType": "address",
          "name": "",
          "type": "address"
        }
      ],
      "stateMutability": "view",
      "type": "function"
    },
    {
      "inputs": [
        {
          "internalType": "string",
          "name": "_domain",
          "type": "string"
        },
        {
          "internalType": "string",
          "name": "_accessToken",
          "type": "string"
        }
      ],
      "name": "registerDapp",
      "outputs": [],
      "stateMutability": "nonpayable",
      "type": "function"
    },
    {
      "inputs": [],
      "name": "renounceOwnership",
      "outputs": [],
      "stateMutability": "nonpayable",
      "type": "function"
    },
    {
      "inputs": [
        {
          "internalType": "address",
          "name": "newOwner",
          "type": "address"
        }
      ],
      "name": "transferOwnership",
      "outputs": [],
      "stateMutability": "nonpayable",
      "type": "function"
    },
    {
      "inputs": [
        {
          "internalType": "address",
          "name": "_user",
          "type": "address"
        },
        {
          "internalType": "uint256",
          "name": "_dappId",
          "type": "uint256"
        },
        {
          "internalType": "string",
          "name": "_message",
          "type": "string"
        },
        {
          "internalType": "bytes",
          "name": "_signature",
          "type": "bytes"
        }
      ],
      "name": "triggerLogin",
      "outputs": [
        {
          "internalType": "bytes32",
          "name": "",
          "type": "bytes32"
        },
        {
          "components": [
            {
              "internalType": "uint256",
              "name": "id",
              "type": "uint256"
            },
            {
              "internalType": "address",
              "name": "owner",
              "type": "address"
            },
            {
              "internalType": "string",
              "name": "username",
              "type": "string"
            },
            {
              "internalType": "string",
              "name": "pfp",
              "type": "string"
            },
            {
              "internalType": "string",
              "name": "emailAddress",
              "type": "string"
            },
            {
              "internalType": "string",
              "name": "bio",
              "type": "string"
            },
            {
              "internalType": "bool",
              "name": "isDeleted",
              "type": "bool"
            },
            {
              "internalType": "uint256",
              "name": "createdAt",
              "type": "uint256"
            },
            {
              "internalType": "uint256",
              "name": "updatedAt",
              "type": "uint256"
            }
          ],
          "internalType": "struct OAuth.CardStruct[]",
          "name": "Cards",
          "type": "tuple[]"
        }
      ],
      "stateMutability": "view",
      "type": "function"
    },
    {
      "inputs": [
        {
          "internalType": "uint256",
          "name": "_cardId",
          "type": "uint256"
        },
        {
          "internalType": "string",
          "name": "_username",
          "type": "string"
        },
        {
          "internalType": "string",
          "name": "_pfp",
          "type": "string"
        },
        {
          "internalType": "string",
          "name": "_emailAddress",
          "type": "string"
        },
        {
          "internalType": "string",
          "name": "_bio",
          "type": "string"
        }
      ],
      "name": "updateCard",
      "outputs": [],
      "stateMutability": "nonpayable",
      "type": "function"
    },
    {
      "inputs": [
        {
          "internalType": "address",
          "name": "receiver",
          "type": "address"
        },
        {
          "internalType": "uint256",
          "name": "amount",
          "type": "uint256"
        }
      ],
      "name": "withdraw",
      "outputs": [],
      "stateMutability": "nonpayable",
      "type": "function"
    },
    {
      "stateMutability": "payable",
      "type": "receive"
    }
  ],
  "bytecode": "0x60806040523480156200001157600080fd5b5033600073ffffffffffffffffffffffffffffffffffffffff168173ffffffffffffffffffffffffffffffffffffffff1603620000885760006040517f1e4fbdf70000000000000000000000000000000000000000000000000000000081526004016200007f9190620001a9565b60405180910390fd5b6200009981620000a060201b60201c565b50620001c6565b60008060009054906101000a900473ffffffffffffffffffffffffffffffffffffffff169050816000806101000a81548173ffffffffffffffffffffffffffffffffffffffff021916908373ffffffffffffffffffffffffffffffffffffffff1602179055508173ffffffffffffffffffffffffffffffffffffffff168173ffffffffffffffffffffffffffffffffffffffff167f8be0079c531659141344cd1fd0a4f28419497f9722a3daafe3b4186f6b6457e060405160405180910390a35050565b600073ffffffffffffffffffffffffffffffffffffffff82169050919050565b6000620001918262000164565b9050919050565b620001a38162000184565b82525050565b6000602082019050620001c0600083018462000198565b92915050565b615f5780620001d66000396000f3fe6080604052600436106101395760003560e01c8063715018a6116100ab578063dd55c1b01161006f578063dd55c1b014610454578063e10b79fa14610491578063e247dea8146104ce578063f2fde38b146104f7578063f3fef3a314610520578063f7c91c031461054957610140565b8063715018a61461035b57806388d9f40d146103725780638da5cb5b146103af578063a3104eb5146103da578063c392b0df1461041757610140565b80633901a908116100fd5780633901a9081461023d57806346d8066e1461027a57806348bf10c9146102a357806353d85919146102cc578063555f7817146103095780635e1acf651461033257610140565b806303878f651461014557806306bdd454146101825780630c2ad3f9146101c057806312065fe0146101e95780631d12aa9b1461021457610140565b3661014057005b600080fd5b34801561015157600080fd5b5061016c60048036038101906101679190614145565b610586565b60405161017991906141a7565b60405180910390f35b34801561018e57600080fd5b506101a960048036038101906101a491906142ed565b6105b6565b6040516101b79291906145f9565b60405180910390f35b3480156101cc57600080fd5b506101e760048036038101906101e29190614629565b6106ba565b005b3480156101f557600080fd5b506101fe610abb565b60405161020b91906141a7565b60405180910390f35b34801561022057600080fd5b5061023b6004803603810190610236919061472c565b610acb565b005b34801561024957600080fd5b50610264600480360381019061025f9190614145565b610b32565b60405161027191906147fc565b60405180910390f35b34801561028657600080fd5b506102a1600480360381019061029c919061481e565b610d38565b005b3480156102af57600080fd5b506102ca60048036038101906102c59190614896565b61119d565b005b3480156102d857600080fd5b506102f360048036038101906102ee9190614981565b6114c1565b60405161030091906147fc565b60405180910390f35b34801561031557600080fd5b50610330600480360381019061032b91906149ae565b6116a1565b005b34801561033e57600080fd5b5061035960048036038101906103549190614981565b6118eb565b005b34801561036757600080fd5b50610370611ac6565b005b34801561037e57600080fd5b5061039960048036038101906103949190614a0a565b611ada565b6040516103a69190614a37565b60405180910390f35b3480156103bb57600080fd5b506103c4612127565b6040516103d19190614a68565b60405180910390f35b3480156103e657600080fd5b5061040160048036038101906103fc9190614a0a565b612150565b60405161040e9190614be8565b60405180910390f35b34801561042357600080fd5b5061043e60048036038101906104399190614c0a565b612670565b60405161044b9190614be8565b60405180910390f35b34801561046057600080fd5b5061047b60048036038101906104769190614c4a565b612836565b6040516104889190614cfd565b60405180910390f35b34801561049d57600080fd5b506104b860048036038101906104b39190614981565b612ce2565b6040516104c59190614df2565b60405180910390f35b3480156104da57600080fd5b506104f560048036038101906104f09190614981565b612fe7565b005b34801561050357600080fd5b5061051e60048036038101906105199190614a0a565b613204565b005b34801561052c57600080fd5b5061054760048036038101906105429190614c0a565b61328a565b005b34801561055557600080fd5b50610570600480360381019061056b919061472c565b6133dd565b60405161057d9190614df2565b60405180910390f35b60006105906137c9565b6010826040516105a09190614e50565b9081526020016040518091039020549050919050565b600060606105c26137c9565b6105cd848785613850565b61060c576040517f08c379a000000000000000000000000000000000000000000000000000000000815260040161060390614ec4565b60405180910390fd5b600061061887876138a3565b0361063757600061062887611ada565b8160001b9150915091506106b1565b6009600061064588886138a3565b815260200190815260200160002060040154600067ffffffffffffffff8111156106725761067161401a565b5b6040519080825280602002602001820160405280156106ab57816020015b610698613ed2565b8152602001906001900390816106905790505b50915091505b94509492505050565b60008451116106fe576040517f08c379a00000000000000000000000000000000000000000000000000000000081526004016106f590614f30565b60405180910390fd5b6000835111610742576040517f08c379a000000000000000000000000000000000000000000000000000000000815260040161073990614f9c565b60405180910390fd5b6000825111610786576040517f08c379a000000000000000000000000000000000000000000000000000000000815260040161077d90615008565b60405180910390fd5b60008151116107ca576040517f08c379a00000000000000000000000000000000000000000000000000000000081526004016107c190615074565b60405180910390fd5b6107d2613ed2565b6001600081546107e1906150c3565b91905081905581600001818152505084816040018190525033816020019073ffffffffffffffffffffffffffffffffffffffff16908173ffffffffffffffffffffffffffffffffffffffff1681525050838160600181905250828160800181905250818160a00181905250610854613a61565b8160e0018181525050610865613a61565b816101000181815250508060056000836000015181526020019081526020016000206000820151816000015560208201518160010160006101000a81548173ffffffffffffffffffffffffffffffffffffffff021916908373ffffffffffffffffffffffffffffffffffffffff16021790555060408201518160020190816108ed9190615317565b5060608201518160030190816109039190615317565b5060808201518160040190816109199190615317565b5060a082015181600501908161092f9190615317565b5060c08201518160060160006101000a81548160ff02191690831515021790555060e0820151816007015561010082015181600801559050506001600460008360000151815260200190815260200160002060006101000a81548160ff021916908315150217905550600660003373ffffffffffffffffffffffffffffffffffffffff1673ffffffffffffffffffffffffffffffffffffffff168152602001908152602001600020816000015190806001815401808255809150506001900390600052602060002001600090919091909150556001600760003373ffffffffffffffffffffffffffffffffffffffff1673ffffffffffffffffffffffffffffffffffffffff1681526020019081526020016000206000828254610a5291906153e9565b925050819055503373ffffffffffffffffffffffffffffffffffffffff167ff8d4d3ff62faf01eaf82f3b586f2fbeb141edb1f566b539ee6ae9df44fdb6c6b8260000151610a9e613a61565b604051610aac929190615469565b60405180910390a25050505050565b6000610ac56137c9565b47905090565b610ad36137c9565b6000610ade82613a81565b03610b1e576040517f08c379a0000000000000000000000000000000000000000000000000000000008152600401610b15906154f1565b60405180910390fd5b610b2f610b2a82613a81565b613b18565b50565b610b3a613f36565b610b426137c9565b600f6000601184604051610b569190614e50565b90815260200160405180910390205481526020019081526020016000206040518060e001604052908160008201548152602001600182018054610b989061513a565b80601f0160208091040260200160405190810160405280929190818152602001828054610bc49061513a565b8015610c115780601f10610be657610100808354040283529160200191610c11565b820191906000526020600020905b815481529060010190602001808311610bf457829003601f168201915b50505050508152602001600282018054610c2a9061513a565b80601f0160208091040260200160405190810160405280929190818152602001828054610c569061513a565b8015610ca35780601f10610c7857610100808354040283529160200191610ca3565b820191906000526020600020905b815481529060010190602001808311610c8657829003601f168201915b505050505081526020016003820160009054906101000a900473ffffffffffffffffffffffffffffffffffffffff1673ffffffffffffffffffffffffffffffffffffffff1673ffffffffffffffffffffffffffffffffffffffff1681526020016003820160149054906101000a900460ff16151515158152602001600482015481526020016005820154815250509050919050565b6000825111610d7c576040517f08c379a0000000000000000000000000000000000000000000000000000000008152600401610d739061555d565b60405180910390fd5b6000815111610dc0576040517f08c379a0000000000000000000000000000000000000000000000000000000008152600401610db7906155c9565b60405180910390fd5b600e6000601183604051610dd49190614e50565b908152602001604051809103902054815260200190815260200160002060009054906101000a900460ff1615610e3f576040517f08c379a0000000000000000000000000000000000000000000000000000000008152600401610e3690615635565b60405180910390fd5b6000601083604051610e519190614e50565b90815260200160405180910390205414610ea0576040517f08c379a0000000000000000000000000000000000000000000000000000000008152600401610e97906156a1565b60405180910390fd5b610ea8613f36565b600260008154610eb7906150c3565b91905081905581600001818152505082816020018190525081816040018190525033816060019073ffffffffffffffffffffffffffffffffffffffff16908173ffffffffffffffffffffffffffffffffffffffff1681525050610f18613a61565b8160a0018181525050610f29613a61565b8160c001818152505080600f600083600001518152602001908152602001600020600082015181600001556020820151816001019081610f699190615317565b506040820151816002019081610f7f9190615317565b5060608201518160030160006101000a81548173ffffffffffffffffffffffffffffffffffffffff021916908373ffffffffffffffffffffffffffffffffffffffff16021790555060808201518160030160146101000a81548160ff02191690831515021790555060a0820151816004015560c082015181600501559050506001600e60008360000151815260200190815260200160002060006101000a81548160ff02191690831515021790555080600001516011836040516110439190614e50565b908152602001604051809103902081905550806000015160108460405161106a9190614e50565b908152602001604051809103902081905550601260003373ffffffffffffffffffffffffffffffffffffffff1673ffffffffffffffffffffffffffffffffffffffff168152602001908152602001600020816000015190806001815401808255809150506001900390600052602060002001600090919091909150556001601360003373ffffffffffffffffffffffffffffffffffffffff1673ffffffffffffffffffffffffffffffffffffffff168152602001908152602001600020600082825461113691906153e9565b925050819055503373ffffffffffffffffffffffffffffffffffffffff167fcf40bd3705e373a5f70135f1d9765c2d97154b94b433601f78a9572c576571248260000151611182613a61565b60405161119092919061570d565b60405180910390a2505050565b6004600086815260200190815260200160002060009054906101000a900460ff166111fd576040517f08c379a00000000000000000000000000000000000000000000000000000000081526004016111f490615795565b60405180910390fd5b3373ffffffffffffffffffffffffffffffffffffffff166005600087815260200190815260200160002060010160009054906101000a900473ffffffffffffffffffffffffffffffffffffffff1673ffffffffffffffffffffffffffffffffffffffff16146112a1576040517f08c379a000000000000000000000000000000000000000000000000000000000815260040161129890615801565b60405180910390fd5b60008451116112e5576040517f08c379a00000000000000000000000000000000000000000000000000000000081526004016112dc90614f30565b60405180910390fd5b6000835111611329576040517f08c379a000000000000000000000000000000000000000000000000000000000815260040161132090614f9c565b60405180910390fd5b600082511161136d576040517f08c379a000000000000000000000000000000000000000000000000000000000815260040161136490615008565b60405180910390fd5b60008151116113b1576040517f08c379a00000000000000000000000000000000000000000000000000000000081526004016113a890615074565b60405180910390fd5b836005600087815260200190815260200160002060020190816113d49190615317565b50826005600087815260200190815260200160002060030190816113f89190615317565b508160056000878152602001908152602001600020600401908161141c9190615317565b50806005600087815260200190815260200160002060050190816114409190615317565b50611449613a61565b60056000878152602001908152602001600020600801819055503373ffffffffffffffffffffffffffffffffffffffff167ff8d4d3ff62faf01eaf82f3b586f2fbeb141edb1f566b539ee6ae9df44fdb6c6b866114a4613a61565b6040516114b292919061586d565b60405180910390a25050505050565b6114c9613f36565b600f60008381526020019081526020016000206040518060e0016040529081600082015481526020016001820180546115019061513a565b80601f016020809104026020016040519081016040528092919081815260200182805461152d9061513a565b801561157a5780601f1061154f5761010080835404028352916020019161157a565b820191906000526020600020905b81548152906001019060200180831161155d57829003601f168201915b505050505081526020016002820180546115939061513a565b80601f01602080910402602001604051908101604052809291908181526020018280546115bf9061513a565b801561160c5780601f106115e15761010080835404028352916020019161160c565b820191906000526020600020905b8154815290600101906020018083116115ef57829003601f168201915b505050505081526020016003820160009054906101000a900473ffffffffffffffffffffffffffffffffffffffff1673ffffffffffffffffffffffffffffffffffffffff1673ffffffffffffffffffffffffffffffffffffffff1681526020016003820160149054906101000a900460ff16151515158152602001600482015481526020016005820154815250509050919050565b600e600083815260200190815260200160002060009054906101000a900460ff16611701576040517f08c379a00000000000000000000000000000000000000000000000000000000081526004016116f890615795565b60405180910390fd5b3373ffffffffffffffffffffffffffffffffffffffff16600f600084815260200190815260200160002060030160009054906101000a900473ffffffffffffffffffffffffffffffffffffffff1673ffffffffffffffffffffffffffffffffffffffff16146117a5576040517f08c379a000000000000000000000000000000000000000000000000000000000815260040161179c90615801565b60405180910390fd5b60008151116117e9576040517f08c379a00000000000000000000000000000000000000000000000000000000081526004016117e09061555d565b60405180910390fd5b60006010826040516117fb9190614e50565b9081526020016040518091039020541461184a576040517f08c379a0000000000000000000000000000000000000000000000000000000008152600401611841906156a1565b60405180910390fd5b80600f6000848152602001908152602001600020600101908161186d9190615317565b50611876613a61565b600f6000848152602001908152602001600020600501819055503373ffffffffffffffffffffffffffffffffffffffff167fcf40bd3705e373a5f70135f1d9765c2d97154b94b433601f78a9572c57657124836118d1613a61565b6040516118df9291906158f5565b60405180910390a25050565b6004600082815260200190815260200160002060009054906101000a900460ff1661194b576040517f08c379a000000000000000000000000000000000000000000000000000000000815260040161194290615795565b60405180910390fd5b3373ffffffffffffffffffffffffffffffffffffffff166005600083815260200190815260200160002060010160009054906101000a900473ffffffffffffffffffffffffffffffffffffffff1673ffffffffffffffffffffffffffffffffffffffff16146119ef576040517f08c379a00000000000000000000000000000000000000000000000000000000081526004016119e690615801565b60405180910390fd5b60006004600083815260200190815260200160002060006101000a81548160ff02191690831515021790555060016005600083815260200190815260200160002060060160006101000a81548160ff021916908315150217905550611a52613a61565b60056000838152602001908152602001600020600801819055503373ffffffffffffffffffffffffffffffffffffffff167ff8d4d3ff62faf01eaf82f3b586f2fbeb141edb1f566b539ee6ae9df44fdb6c6b82611aad613a61565b604051611abb92919061597d565b60405180910390a250565b611ace6137c9565b611ad86000613bef565b565b6060611ae46137c9565b600080600090505b600760008573ffffffffffffffffffffffffffffffffffffffff1673ffffffffffffffffffffffffffffffffffffffff16815260200190815260200160002054811015611c4d576000600660008673ffffffffffffffffffffffffffffffffffffffff1673ffffffffffffffffffffffffffffffffffffffff1681526020019081526020016000208281548110611b8657611b856159b9565b5b906000526020600020015490508473ffffffffffffffffffffffffffffffffffffffff166005600083815260200190815260200160002060010160009054906101000a900473ffffffffffffffffffffffffffffffffffffffff1673ffffffffffffffffffffffffffffffffffffffff16148015611c2557506005600082815260200190815260200160002060060160009054906101000a900460ff16155b15611c39578280611c35906150c3565b9350505b508080611c45906150c3565b915050611aec565b508067ffffffffffffffff811115611c6857611c6761401a565b5b604051908082528060200260200182016040528015611ca157816020015b611c8e613ed2565b815260200190600190039081611c865790505b509150600080600090505b600760008673ffffffffffffffffffffffffffffffffffffffff1673ffffffffffffffffffffffffffffffffffffffff1681526020019081526020016000205481101561211f576000600660008773ffffffffffffffffffffffffffffffffffffffff1673ffffffffffffffffffffffffffffffffffffffff1681526020019081526020016000208281548110611d4657611d456159b9565b5b906000526020600020015490508573ffffffffffffffffffffffffffffffffffffffff166005600083815260200190815260200160002060010160009054906101000a900473ffffffffffffffffffffffffffffffffffffffff1673ffffffffffffffffffffffffffffffffffffffff16148015611de557506005600082815260200190815260200160002060060160009054906101000a900460ff16155b1561210b576005600082815260200190815260200160002060405180610120016040529081600082015481526020016001820160009054906101000a900473ffffffffffffffffffffffffffffffffffffffff1673ffffffffffffffffffffffffffffffffffffffff1673ffffffffffffffffffffffffffffffffffffffff168152602001600282018054611e799061513a565b80601f0160208091040260200160405190810160405280929190818152602001828054611ea59061513a565b8015611ef25780601f10611ec757610100808354040283529160200191611ef2565b820191906000526020600020905b815481529060010190602001808311611ed557829003601f168201915b50505050508152602001600382018054611f0b9061513a565b80601f0160208091040260200160405190810160405280929190818152602001828054611f379061513a565b8015611f845780601f10611f5957610100808354040283529160200191611f84565b820191906000526020600020905b815481529060010190602001808311611f6757829003601f168201915b50505050508152602001600482018054611f9d9061513a565b80601f0160208091040260200160405190810160405280929190818152602001828054611fc99061513a565b80156120165780601f10611feb57610100808354040283529160200191612016565b820191906000526020600020905b815481529060010190602001808311611ff957829003601f168201915b5050505050815260200160058201805461202f9061513a565b80601f016020809104026020016040519081016040528092919081815260200182805461205b9061513a565b80156120a85780601f1061207d576101008083540402835291602001916120a8565b820191906000526020600020905b81548152906001019060200180831161208b57829003601f168201915b505050505081526020016006820160009054906101000a900460ff16151515158152602001600782015481526020016008820154815250508584806120ec906150c3565b9550815181106120ff576120fe6159b9565b5b60200260200101819052505b508080612117906150c3565b915050611cac565b505050919050565b60008060009054906101000a900473ffffffffffffffffffffffffffffffffffffffff16905090565b6060600080600090505b601360008573ffffffffffffffffffffffffffffffffffffffff1673ffffffffffffffffffffffffffffffffffffffff168152602001908152602001600020548110156122bb576000601260008673ffffffffffffffffffffffffffffffffffffffff1673ffffffffffffffffffffffffffffffffffffffff16815260200190815260200160002082815481106121f4576121f36159b9565b5b906000526020600020015490508473ffffffffffffffffffffffffffffffffffffffff16600f600083815260200190815260200160002060030160009054906101000a900473ffffffffffffffffffffffffffffffffffffffff1673ffffffffffffffffffffffffffffffffffffffff161480156122935750600f600082815260200190815260200160002060030160149054906101000a900460ff16155b156122a75782806122a3906150c3565b9350505b5080806122b3906150c3565b91505061215a565b508067ffffffffffffffff8111156122d6576122d561401a565b5b60405190808252806020026020018201604052801561230f57816020015b6122fc613f36565b8152602001906001900390816122f45790505b509150600080600090505b601360008673ffffffffffffffffffffffffffffffffffffffff1673ffffffffffffffffffffffffffffffffffffffff16815260200190815260200160002054811015612668576000601260008773ffffffffffffffffffffffffffffffffffffffff1673ffffffffffffffffffffffffffffffffffffffff16815260200190815260200160002082815481106123b4576123b36159b9565b5b906000526020600020015490508573ffffffffffffffffffffffffffffffffffffffff16600f600083815260200190815260200160002060030160009054906101000a900473ffffffffffffffffffffffffffffffffffffffff1673ffffffffffffffffffffffffffffffffffffffff161480156124535750600f600082815260200190815260200160002060030160149054906101000a900460ff16155b1561265457600f60008281526020019081526020016000206040518060e0016040529081600082015481526020016001820180546124909061513a565b80601f01602080910402602001604051908101604052809291908181526020018280546124bc9061513a565b80156125095780601f106124de57610100808354040283529160200191612509565b820191906000526020600020905b8154815290600101906020018083116124ec57829003601f168201915b505050505081526020016002820180546125229061513a565b80601f016020809104026020016040519081016040528092919081815260200182805461254e9061513a565b801561259b5780601f106125705761010080835404028352916020019161259b565b820191906000526020600020905b81548152906001019060200180831161257e57829003601f168201915b505050505081526020016003820160009054906101000a900473ffffffffffffffffffffffffffffffffffffffff1673ffffffffffffffffffffffffffffffffffffffff1673ffffffffffffffffffffffffffffffffffffffff1681526020016003820160149054906101000a900460ff1615151515815260200160048201548152602001600582015481525050858480612635906150c3565b955081518110612648576126476159b9565b5b60200260200101819052505b508080612660906150c3565b91505061231a565b505050919050565b6060600080600090505b600d6000858152602001908152602001600020805490508110156126fa5760006126d386600d600088815260200190815260200160002084815481106126c3576126c26159b9565b5b90600052602060002001546138a3565b146126e75781806126e3906150c3565b9250505b80806126f2906150c3565b91505061267a565b508067ffffffffffffffff8111156127155761271461401a565b5b60405190808252806020026020018201604052801561274e57816020015b61273b613f36565b8152602001906001900390816127335790505b509150600080600090505b600d60008681526020019081526020016000208054905081101561282d5760006127b287600d600089815260200190815260200160002084815481106127a2576127a16159b9565b5b90600052602060002001546138a3565b1461281a576127ef600d600087815260200190815260200160002082815481106127df576127de6159b9565b5b90600052602060002001546114c1565b8483806127fb906150c3565b94508151811061280e5761280d6159b9565b5b60200260200101819052505b8080612825906150c3565b915050612759565b50505092915050565b60006128406137c9565b6004600087815260200190815260200160002060009054906101000a900460ff166128a0576040517f08c379a000000000000000000000000000000000000000000000000000000000815260040161289790615795565b60405180910390fd5b8373ffffffffffffffffffffffffffffffffffffffff166005600088815260200190815260200160002060010160009054906101000a900473ffffffffffffffffffffffffffffffffffffffff1673ffffffffffffffffffffffffffffffffffffffff1614612944576040517f08c379a000000000000000000000000000000000000000000000000000000000815260040161293b90615801565b60405180910390fd5b600e600086815260200190815260200160002060009054906101000a900460ff166129a4576040517f08c379a000000000000000000000000000000000000000000000000000000000815260040161299b90615a34565b60405180910390fd5b6129af838584613850565b6129ee576040517f08c379a00000000000000000000000000000000000000000000000000000000081526004016129e590614ec4565b60405180910390fd5b6000868587604051602001612a0593929190615abd565b604051602081830303815290604052805190602001209050612a25613f8b565b600360008154612a34906150c3565b919050819055816000018181525050878160200181815250508681604001818152505085816060019073ffffffffffffffffffffffffffffffffffffffff16908173ffffffffffffffffffffffffffffffffffffffff16815250508181608001818152505060018160a0019015159081151581525050612ab2613a61565b8160c0018181525050612ac3613a61565b8160e001818152505080600960008360000151815260200190815260200160002060008201518160000155602082015181600101556040820151816002015560608201518160030160006101000a81548173ffffffffffffffffffffffffffffffffffffffff021916908373ffffffffffffffffffffffffffffffffffffffff1602179055506080820151816004015560a08201518160050160006101000a81548160ff02191690831515021790555060c0820151816006015560e082015181600701559050506001600860008360000151815260200190815260200160002060006101000a81548160ff021916908315150217905550600b6000888152602001908152602001600020816000015190806001815401808255809150506001900390600052602060002001600090919091909150556001600c60008981526020019081526020016000206000828254612c1c91906153e9565b925050819055508060000151600a600084815260200190815260200160002081905550600d60008981526020019081526020016000208790806001815401808255809150506001900390600052602060002001600090919091909150553373ffffffffffffffffffffffffffffffffffffffff167fe63a460b8dabeb604b9976b03437e24ba6d9e603af187bb174d50ce4f6b302298260000151612cbe613a61565b604051612ccc929190615469565b60405180910390a2819250505095945050505050565b612cea613ed2565b6005600083815260200190815260200160002060405180610120016040529081600082015481526020016001820160009054906101000a900473ffffffffffffffffffffffffffffffffffffffff1673ffffffffffffffffffffffffffffffffffffffff1673ffffffffffffffffffffffffffffffffffffffff168152602001600282018054612d799061513a565b80601f0160208091040260200160405190810160405280929190818152602001828054612da59061513a565b8015612df25780601f10612dc757610100808354040283529160200191612df2565b820191906000526020600020905b815481529060010190602001808311612dd557829003601f168201915b50505050508152602001600382018054612e0b9061513a565b80601f0160208091040260200160405190810160405280929190818152602001828054612e379061513a565b8015612e845780601f10612e5957610100808354040283529160200191612e84565b820191906000526020600020905b815481529060010190602001808311612e6757829003601f168201915b50505050508152602001600482018054612e9d9061513a565b80601f0160208091040260200160405190810160405280929190818152602001828054612ec99061513a565b8015612f165780601f10612eeb57610100808354040283529160200191612f16565b820191906000526020600020905b815481529060010190602001808311612ef957829003601f168201915b50505050508152602001600582018054612f2f9061513a565b80601f0160208091040260200160405190810160405280929190818152602001828054612f5b9061513a565b8015612fa85780601f10612f7d57610100808354040283529160200191612fa8565b820191906000526020600020905b815481529060010190602001808311612f8b57829003601f168201915b505050505081526020016006820160009054906101000a900460ff16151515158152602001600782015481526020016008820154815250509050919050565b600e600082815260200190815260200160002060009054906101000a900460ff16613047576040517f08c379a000000000000000000000000000000000000000000000000000000000815260040161303e90615795565b60405180910390fd5b3373ffffffffffffffffffffffffffffffffffffffff16600f600083815260200190815260200160002060030160009054906101000a900473ffffffffffffffffffffffffffffffffffffffff1673ffffffffffffffffffffffffffffffffffffffff16146130eb576040517f08c379a00000000000000000000000000000000000000000000000000000000081526004016130e290615801565b60405180910390fd5b6000600e600083815260200190815260200160002060006101000a81548160ff0219169083151502179055506001600f600083815260200190815260200160002060030160146101000a81548160ff02191690831515021790555061314e613a61565b600f60008381526020019081526020016000206005018190555060006010600f600084815260200190815260200160002060010160405161318f9190615b7d565b9081526020016040518091039020819055506131aa81613cb3565b3373ffffffffffffffffffffffffffffffffffffffff167fcf40bd3705e373a5f70135f1d9765c2d97154b94b433601f78a9572c57657124826131eb613a61565b6040516131f9929190615be0565b60405180910390a250565b61320c6137c9565b600073ffffffffffffffffffffffffffffffffffffffff168173ffffffffffffffffffffffffffffffffffffffff160361327e5760006040517f1e4fbdf70000000000000000000000000000000000000000000000000000000081526004016132759190614a68565b60405180910390fd5b61328781613bef565b50565b6132926137c9565b804711156132d5576040517f08c379a00000000000000000000000000000000000000000000000000000000081526004016132cc90615c68565b60405180910390fd5b60008273ffffffffffffffffffffffffffffffffffffffff16826040516132fb90615cb9565b60006040518083038185875af1925050503d8060008114613338576040519150601f19603f3d011682016040523d82523d6000602084013e61333d565b606091505b5050905080613381576040517f08c379a000000000000000000000000000000000000000000000000000000000815260040161337890615d1a565b60405180910390fd5b8273ffffffffffffffffffffffffffffffffffffffff167ff279e6a1f5e320cca91135676d9cb6e44ca8a08c0b88342bcdb1144f6511b568836133c2613a61565b6040516133d0929190615d3a565b60405180910390a2505050565b6133e5613ed2565b60006133f083613a81565b03613430576040517f08c379a0000000000000000000000000000000000000000000000000000000008152600401613427906154f1565b60405180910390fd5b600460006009600061344186613a81565b815260200190815260200160002060010154815260200190815260200160002060009054906101000a900460ff166134ae576040517f08c379a00000000000000000000000000000000000000000000000000000000081526004016134a590615795565b60405180910390fd5b60056000600960006134bf86613a81565b815260200190815260200160002060010154815260200190815260200160002060405180610120016040529081600082015481526020016001820160009054906101000a900473ffffffffffffffffffffffffffffffffffffffff1673ffffffffffffffffffffffffffffffffffffffff1673ffffffffffffffffffffffffffffffffffffffff16815260200160028201805461355b9061513a565b80601f01602080910402602001604051908101604052809291908181526020018280546135879061513a565b80156135d45780601f106135a9576101008083540402835291602001916135d4565b820191906000526020600020905b8154815290600101906020018083116135b757829003601f168201915b505050505081526020016003820180546135ed9061513a565b80601f01602080910402602001604051908101604052809291908181526020018280546136199061513a565b80156136665780601f1061363b57610100808354040283529160200191613666565b820191906000526020600020905b81548152906001019060200180831161364957829003601f168201915b5050505050815260200160048201805461367f9061513a565b80601f01602080910402602001604051908101604052809291908181526020018280546136ab9061513a565b80156136f85780601f106136cd576101008083540402835291602001916136f8565b820191906000526020600020905b8154815290600101906020018083116136db57829003601f168201915b505050505081526020016005820180546137119061513a565b80601f016020809104026020016040519081016040528092919081815260200182805461373d9061513a565b801561378a5780601f1061375f5761010080835404028352916020019161378a565b820191906000526020600020905b81548152906001019060200180831161376d57829003601f168201915b505050505081526020016006820160009054906101000a900460ff16151515158152602001600782015481526020016008820154815250509050919050565b6137d1613dc9565b73ffffffffffffffffffffffffffffffffffffffff166137ef612127565b73ffffffffffffffffffffffffffffffffffffffff161461384e57613812613dc9565b6040517f118cdaa70000000000000000000000000000000000000000000000000000000081526004016138459190614a68565b60405180910390fd5b565b60008273ffffffffffffffffffffffffffffffffffffffff1661388361387d61387887613dd1565b613e01565b84613e31565b73ffffffffffffffffffffffffffffffffffffffff161490509392505050565b600080600090505b600c600084815260200190815260200160002054811015613a55578373ffffffffffffffffffffffffffffffffffffffff1660096000600b60008781526020019081526020016000208481548110613906576139056159b9565b5b9060005260206000200154815260200190815260200160002060030160009054906101000a900473ffffffffffffffffffffffffffffffffffffffff1673ffffffffffffffffffffffffffffffffffffffff161480156139b5575060096000600b6000868152602001908152602001600020838154811061398a576139896159b9565b5b9060005260206000200154815260200190815260200160002060050160009054906101000a900460ff165b8015613a0557508260096000600b600087815260200190815260200160002084815481106139e6576139e56159b9565b5b9060005260206000200154815260200190815260200160002060020154145b15613a4257600b60008481526020019081526020016000208181548110613a2f57613a2e6159b9565b5b9060005260206000200154915050613a5b565b8080613a4d906150c3565b9150506138ab565b50600090505b92915050565b60006103e88042613a729190615d63565b613a7c91906153e9565b905090565b600060096000600a600085815260200190815260200160002054815260200190815260200160002060050160009054906101000a900460ff168015613aee57508160096000600a600086815260200190815260200160002054815260200190815260200160002060040154145b15613b0e57600a6000838152602001908152602001600020549050613b13565b600090505b919050565b60006009600083815260200190815260200160002060050160006101000a81548160ff021916908315150217905550613b4f613a61565b600960008381526020019081526020016000206007018190555060006008600083815260200190815260200160002060006101000a81548160ff0219169083151502179055503373ffffffffffffffffffffffffffffffffffffffff167fe63a460b8dabeb604b9976b03437e24ba6d9e603af187bb174d50ce4f6b3022982613bd6613a61565b604051613be4929190615df1565b60405180910390a250565b60008060009054906101000a900473ffffffffffffffffffffffffffffffffffffffff169050816000806101000a81548173ffffffffffffffffffffffffffffffffffffffff021916908373ffffffffffffffffffffffffffffffffffffffff1602179055508173ffffffffffffffffffffffffffffffffffffffff168173ffffffffffffffffffffffffffffffffffffffff167f8be0079c531659141344cd1fd0a4f28419497f9722a3daafe3b4186f6b6457e060405160405180910390a35050565b60005b600c600083815260200190815260200160002054811015613dc5578160096000600b60008681526020019081526020016000208481548110613cfb57613cfa6159b9565b5b9060005260206000200154815260200190815260200160002060020154148015613d74575060096000600b60008581526020019081526020016000208381548110613d4957613d486159b9565b5b9060005260206000200154815260200190815260200160002060050160009054906101000a900460ff165b15613db257613db1600b60008481526020019081526020016000208281548110613da157613da06159b9565b5b9060005260206000200154613b18565b5b8080613dbd906150c3565b915050613cb6565b5050565b600033905090565b600081604051602001613de49190614e50565b604051602081830303815290604052805190602001209050919050565b600081604051602001613e149190615e9a565b604051602081830303815290604052805190602001209050919050565b600080600080613e4085613ea0565b92509250925060018682858560405160008152602001604052604051613e699493929190615edc565b6020604051602081039080840390855afa158015613e8b573d6000803e3d6000fd5b50505060206040510351935050505092915050565b60008060006041845114613eb357600080fd5b6020840151925060408401519150606084015160001a90509193909250565b60405180610120016040528060008152602001600073ffffffffffffffffffffffffffffffffffffffff1681526020016060815260200160608152602001606081526020016060815260200160001515815260200160008152602001600081525090565b6040518060e00160405280600081526020016060815260200160608152602001600073ffffffffffffffffffffffffffffffffffffffff16815260200160001515815260200160008152602001600081525090565b604051806101000160405280600081526020016000815260200160008152602001600073ffffffffffffffffffffffffffffffffffffffff1681526020016000801916815260200160001515815260200160008152602001600081525090565b6000604051905090565b600080fd5b600080fd5b600080fd5b600080fd5b6000601f19601f8301169050919050565b7f4e487b7100000000000000000000000000000000000000000000000000000000600052604160045260246000fd5b61405282614009565b810181811067ffffffffffffffff821117156140715761407061401a565b5b80604052505050565b6000614084613feb565b90506140908282614049565b919050565b600067ffffffffffffffff8211156140b0576140af61401a565b5b6140b982614009565b9050602081019050919050565b82818337600083830152505050565b60006140e86140e384614095565b61407a565b90508281526020810184848401111561410457614103614004565b5b61410f8482856140c6565b509392505050565b600082601f83011261412c5761412b613fff565b5b813561413c8482602086016140d5565b91505092915050565b60006020828403121561415b5761415a613ff5565b5b600082013567ffffffffffffffff81111561417957614178613ffa565b5b61418584828501614117565b91505092915050565b6000819050919050565b6141a18161418e565b82525050565b60006020820190506141bc6000830184614198565b92915050565b600073ffffffffffffffffffffffffffffffffffffffff82169050919050565b60006141ed826141c2565b9050919050565b6141fd816141e2565b811461420857600080fd5b50565b60008135905061421a816141f4565b92915050565b6142298161418e565b811461423457600080fd5b50565b60008135905061424681614220565b92915050565b600067ffffffffffffffff8211156142675761426661401a565b5b61427082614009565b9050602081019050919050565b600061429061428b8461424c565b61407a565b9050828152602081018484840111156142ac576142ab614004565b5b6142b78482856140c6565b509392505050565b600082601f8301126142d4576142d3613fff565b5b81356142e484826020860161427d565b91505092915050565b6000806000806080858703121561430757614306613ff5565b5b60006143158782880161420b565b945050602061432687828801614237565b935050604085013567ffffffffffffffff81111561434757614346613ffa565b5b61435387828801614117565b925050606085013567ffffffffffffffff81111561437457614373613ffa565b5b614380878288016142bf565b91505092959194509250565b6000819050919050565b61439f8161438c565b82525050565b600081519050919050565b600082825260208201905092915050565b6000819050602082019050919050565b6143da8161418e565b82525050565b6143e9816141e2565b82525050565b600081519050919050565b600082825260208201905092915050565b60005b8381101561442957808201518184015260208101905061440e565b60008484015250505050565b6000614440826143ef565b61444a81856143fa565b935061445a81856020860161440b565b61446381614009565b840191505092915050565b60008115159050919050565b6144838161446e565b82525050565b6000610120830160008301516144a260008601826143d1565b5060208301516144b560208601826143e0565b50604083015184820360408601526144cd8282614435565b915050606083015184820360608601526144e78282614435565b915050608083015184820360808601526145018282614435565b91505060a083015184820360a086015261451b8282614435565b91505060c083015161453060c086018261447a565b5060e083015161454360e08601826143d1565b506101008301516145586101008601826143d1565b508091505092915050565b600061456f8383614489565b905092915050565b6000602082019050919050565b600061458f826143a5565b61459981856143b0565b9350836020820285016145ab856143c1565b8060005b858110156145e757848403895281516145c88582614563565b94506145d383614577565b925060208a019950506001810190506145af565b50829750879550505050505092915050565b600060408201905061460e6000830185614396565b81810360208301526146208184614584565b90509392505050565b6000806000806080858703121561464357614642613ff5565b5b600085013567ffffffffffffffff81111561466157614660613ffa565b5b61466d87828801614117565b945050602085013567ffffffffffffffff81111561468e5761468d613ffa565b5b61469a87828801614117565b935050604085013567ffffffffffffffff8111156146bb576146ba613ffa565b5b6146c787828801614117565b925050606085013567ffffffffffffffff8111156146e8576146e7613ffa565b5b6146f487828801614117565b91505092959194509250565b6147098161438c565b811461471457600080fd5b50565b60008135905061472681614700565b92915050565b60006020828403121561474257614741613ff5565b5b600061475084828501614717565b91505092915050565b600060e08301600083015161477160008601826143d1565b50602083015184820360208601526147898282614435565b915050604083015184820360408601526147a38282614435565b91505060608301516147b860608601826143e0565b5060808301516147cb608086018261447a565b5060a08301516147de60a08601826143d1565b5060c08301516147f160c08601826143d1565b508091505092915050565b600060208201905081810360008301526148168184614759565b905092915050565b6000806040838503121561483557614834613ff5565b5b600083013567ffffffffffffffff81111561485357614852613ffa565b5b61485f85828601614117565b925050602083013567ffffffffffffffff8111156148805761487f613ffa565b5b61488c85828601614117565b9150509250929050565b600080600080600060a086880312156148b2576148b1613ff5565b5b60006148c088828901614237565b955050602086013567ffffffffffffffff8111156148e1576148e0613ffa565b5b6148ed88828901614117565b945050604086013567ffffffffffffffff81111561490e5761490d613ffa565b5b61491a88828901614117565b935050606086013567ffffffffffffffff81111561493b5761493a613ffa565b5b61494788828901614117565b925050608086013567ffffffffffffffff81111561496857614967613ffa565b5b61497488828901614117565b9150509295509295909350565b60006020828403121561499757614996613ff5565b5b60006149a584828501614237565b91505092915050565b600080604083850312156149c5576149c4613ff5565b5b60006149d385828601614237565b925050602083013567ffffffffffffffff8111156149f4576149f3613ffa565b5b614a0085828601614117565b9150509250929050565b600060208284031215614a2057614a1f613ff5565b5b6000614a2e8482850161420b565b91505092915050565b60006020820190508181036000830152614a518184614584565b905092915050565b614a62816141e2565b82525050565b6000602082019050614a7d6000830184614a59565b92915050565b600081519050919050565b600082825260208201905092915050565b6000819050602082019050919050565b600060e083016000830151614ac760008601826143d1565b5060208301518482036020860152614adf8282614435565b91505060408301518482036040860152614af98282614435565b9150506060830151614b0e60608601826143e0565b506080830151614b21608086018261447a565b5060a0830151614b3460a08601826143d1565b5060c0830151614b4760c08601826143d1565b508091505092915050565b6000614b5e8383614aaf565b905092915050565b6000602082019050919050565b6000614b7e82614a83565b614b888185614a8e565b935083602082028501614b9a85614a9f565b8060005b85811015614bd65784840389528151614bb78582614b52565b9450614bc283614b66565b925060208a01995050600181019050614b9e565b50829750879550505050505092915050565b60006020820190508181036000830152614c028184614b73565b905092915050565b60008060408385031215614c2157614c20613ff5565b5b6000614c2f8582860161420b565b9250506020614c4085828601614237565b9150509250929050565b600080600080600060a08688031215614c6657614c65613ff5565b5b6000614c7488828901614237565b9550506020614c8588828901614237565b9450506040614c968882890161420b565b935050606086013567ffffffffffffffff811115614cb757614cb6613ffa565b5b614cc388828901614117565b925050608086013567ffffffffffffffff811115614ce457614ce3613ffa565b5b614cf0888289016142bf565b9150509295509295909350565b6000602082019050614d126000830184614396565b92915050565b600061012083016000830151614d3160008601826143d1565b506020830151614d4460208601826143e0565b5060408301518482036040860152614d5c8282614435565b91505060608301518482036060860152614d768282614435565b91505060808301518482036080860152614d908282614435565b91505060a083015184820360a0860152614daa8282614435565b91505060c0830151614dbf60c086018261447a565b5060e0830151614dd260e08601826143d1565b50610100830151614de76101008601826143d1565b508091505092915050565b60006020820190508181036000830152614e0c8184614d18565b905092915050565b600081905092915050565b6000614e2a826143ef565b614e348185614e14565b9350614e4481856020860161440b565b80840191505092915050565b6000614e5c8284614e1f565b915081905092915050565b600082825260208201905092915050565b7f756e61626c6520746f2076657269667920736967000000000000000000000000600082015250565b6000614eae601483614e67565b9150614eb982614e78565b602082019050919050565b60006020820190508181036000830152614edd81614ea1565b9050919050565b7f757365726e616d65207265717569726564000000000000000000000000000000600082015250565b6000614f1a601183614e67565b9150614f2582614ee4565b602082019050919050565b60006020820190508181036000830152614f4981614f0d565b9050919050565b7f7066702072657175697265640000000000000000000000000000000000000000600082015250565b6000614f86600c83614e67565b9150614f9182614f50565b602082019050919050565b60006020820190508181036000830152614fb581614f79565b9050919050565b7f656d61696c207265717569726564000000000000000000000000000000000000600082015250565b6000614ff2600e83614e67565b9150614ffd82614fbc565b602082019050919050565b6000602082019050818103600083015261502181614fe5565b9050919050565b7f62696f2072657175697265640000000000000000000000000000000000000000600082015250565b600061505e600c83614e67565b915061506982615028565b602082019050919050565b6000602082019050818103600083015261508d81615051565b9050919050565b7f4e487b7100000000000000000000000000000000000000000000000000000000600052601160045260246000fd5b60006150ce8261418e565b91507fffffffffffffffffffffffffffffffffffffffffffffffffffffffffffffffff8203615100576150ff615094565b5b600182019050919050565b7f4e487b7100000000000000000000000000000000000000000000000000000000600052602260045260246000fd5b6000600282049050600182168061515257607f821691505b6020821081036151655761516461510b565b5b50919050565b60008190508160005260206000209050919050565b60006020601f8301049050919050565b600082821b905092915050565b6000600883026151cd7fffffffffffffffffffffffffffffffffffffffffffffffffffffffffffffffff82615190565b6151d78683615190565b95508019841693508086168417925050509392505050565b6000819050919050565b600061521461520f61520a8461418e565b6151ef565b61418e565b9050919050565b6000819050919050565b61522e836151f9565b61524261523a8261521b565b84845461519d565b825550505050565b600090565b61525761524a565b615262818484615225565b505050565b5b818110156152865761527b60008261524f565b600181019050615268565b5050565b601f8211156152cb5761529c8161516b565b6152a584615180565b810160208510156152b4578190505b6152c86152c085615180565b830182615267565b50505b505050565b600082821c905092915050565b60006152ee600019846008026152d0565b1980831691505092915050565b600061530783836152dd565b9150826002028217905092915050565b615320826143ef565b67ffffffffffffffff8111156153395761533861401a565b5b615343825461513a565b61534e82828561528a565b600060209050601f831160018114615381576000841561536f578287015190505b61537985826152fb565b8655506153e1565b601f19841661538f8661516b565b60005b828110156153b757848901518255600182019150602085019450602081019050615392565b868310156153d457848901516153d0601f8916826152dd565b8355505b6001600288020188555050505b505050505050565b60006153f48261418e565b91506153ff8361418e565b925082820190508082111561541757615416615094565b5b92915050565b7f6372656174656400000000000000000000000000000000000000000000000000600082015250565b6000615453600783614e67565b915061545e8261541d565b602082019050919050565b600060608201905061547e6000830185614198565b818103602083015261548f81615446565b905061549e6040830184614198565b9392505050565b7f696e76616c696420746f6b656e00000000000000000000000000000000000000600082015250565b60006154db600d83614e67565b91506154e6826154a5565b602082019050919050565b6000602082019050818103600083015261550a816154ce565b9050919050565b7f646f6d61696e2072657175697265640000000000000000000000000000000000600082015250565b6000615547600f83614e67565b915061555282615511565b602082019050919050565b600060208201905081810360008301526155768161553a565b9050919050565b7f746f6b656e207265717569726564000000000000000000000000000000000000600082015250565b60006155b3600e83614e67565b91506155be8261557d565b602082019050919050565b600060208201905081810360008301526155e2816155a6565b9050919050565b7f746f6b656e206578697374000000000000000000000000000000000000000000600082015250565b600061561f600b83614e67565b915061562a826155e9565b602082019050919050565b6000602082019050818103600083015261564e81615612565b9050919050565b7f646f6d61696e2065786973740000000000000000000000000000000000000000600082015250565b600061568b600c83614e67565b915061569682615655565b602082019050919050565b600060208201905081810360008301526156ba8161567e565b9050919050565b7f7265676973746572656400000000000000000000000000000000000000000000600082015250565b60006156f7600a83614e67565b9150615702826156c1565b602082019050919050565b60006060820190506157226000830185614198565b8181036020830152615733816156ea565b90506157426040830184614198565b9392505050565b7f6e6f7420666f756e640000000000000000000000000000000000000000000000600082015250565b600061577f600983614e67565b915061578a82615749565b602082019050919050565b600060208201905081810360008301526157ae81615772565b9050919050565b7f756e617574686f72697a65640000000000000000000000000000000000000000600082015250565b60006157eb600c83614e67565b91506157f6826157b5565b602082019050919050565b6000602082019050818103600083015261581a816157de565b9050919050565b7f7570646174656400000000000000000000000000000000000000000000000000600082015250565b6000615857600783614e67565b915061586282615821565b602082019050919050565b60006060820190506158826000830185614198565b81810360208301526158938161584a565b90506158a26040830184614198565b9392505050565b7f7570646174650000000000000000000000000000000000000000000000000000600082015250565b60006158df600683614e67565b91506158ea826158a9565b602082019050919050565b600060608201905061590a6000830185614198565b818103602083015261591b816158d2565b905061592a6040830184614198565b9392505050565b7f64656c6574650000000000000000000000000000000000000000000000000000600082015250565b6000615967600683614e67565b915061597282615931565b602082019050919050565b60006060820190506159926000830185614198565b81810360208301526159a38161595a565b90506159b26040830184614198565b9392505050565b7f4e487b7100000000000000000000000000000000000000000000000000000000600052603260045260246000fd5b7f64417070206e6f7420666f756e64000000000000000000000000000000000000600082015250565b6000615a1e600e83614e67565b9150615a29826159e8565b602082019050919050565b60006020820190508181036000830152615a4d81615a11565b9050919050565b6000819050919050565b615a6f615a6a8261418e565b615a54565b82525050565b60008160601b9050919050565b6000615a8d82615a75565b9050919050565b6000615a9f82615a82565b9050919050565b615ab7615ab2826141e2565b615a94565b82525050565b6000615ac98286615a5e565b602082019150615ad98285615aa6565b601482019150615ae98284615a5e565b602082019150819050949350505050565b60008154615b078161513a565b615b118186614e14565b94506001821660008114615b2c5760018114615b4157615b74565b60ff1983168652811515820286019350615b74565b615b4a8561516b565b60005b83811015615b6c57815481890152600182019150602081019050615b4d565b838801955050505b50505092915050565b6000615b898284615afa565b915081905092915050565b7f64656c6574656400000000000000000000000000000000000000000000000000600082015250565b6000615bca600783614e67565b9150615bd582615b94565b602082019050919050565b6000606082019050615bf56000830185614198565b8181036020830152615c0681615bbd565b9050615c156040830184614198565b9392505050565b7f6c6f772062616c616e6365000000000000000000000000000000000000000000600082015250565b6000615c52600b83614e67565b9150615c5d82615c1c565b602082019050919050565b60006020820190508181036000830152615c8181615c45565b9050919050565b600081905092915050565b50565b6000615ca3600083615c88565b9150615cae82615c93565b600082019050919050565b6000615cc482615c96565b9150819050919050565b7f6661696c65640000000000000000000000000000000000000000000000000000600082015250565b6000615d04600683614e67565b9150615d0f82615cce565b602082019050919050565b60006020820190508181036000830152615d3381615cf7565b9050919050565b6000604082019050615d4f6000830185614198565b615d5c6020830184614198565b9392505050565b6000615d6e8261418e565b9150615d798361418e565b9250828202615d878161418e565b91508282048414831517615d9e57615d9d615094565b5b5092915050565b7f6465616374697661746564000000000000000000000000000000000000000000600082015250565b6000615ddb600b83614e67565b9150615de682615da5565b602082019050919050565b6000606082019050615e066000830185614198565b8181036020830152615e1781615dce565b9050615e266040830184614198565b9392505050565b7f19457468657265756d205369676e6564204d6573736167653a0a333200000000600082015250565b6000615e63601c83614e14565b9150615e6e82615e2d565b601c82019050919050565b6000819050919050565b615e94615e8f8261438c565b615e79565b82525050565b6000615ea582615e56565b9150615eb18284615e83565b60208201915081905092915050565b600060ff82169050919050565b615ed681615ec0565b82525050565b6000608082019050615ef16000830187614396565b615efe6020830186615ecd565b615f0b6040830185614396565b615f186060830184614396565b9594505050505056fea26469706673582212207e695d0682ffded4be81580c1b9783a96151c7881717e6a92768e07bc316703864736f6c63430008140033",
  "linkReferences": {},
  "deployedLinkReferences": {}
}