{
  "_format": "hh-sol-artifact-1",
  "contractName": "OAuth",
  "sourceName": "contracts/OAuth.sol",
  "abi": [
    {
      "inputs": [],
      "stateMutability": "nonpayable",
      "type": "constructor"
    },
    {
      "anonymous": false,
      "inputs": [
        {
          "indexed": false,
          "internalType": "uint256",
          "name": "cardId",
          "type": "uint256"
        },
        {
          "indexed": true,
          "internalType": "address",
          "name": "user",
          "type": "address"
        },
        {
          "indexed": false,
          "internalType": "uint256",
          "name": "timestamp",
          "type": "uint256"
        }
      ],
      "name": "CreateCard",
      "type": "event"
    },
    {
      "anonymous": false,
      "inputs": [
        {
          "indexed": true,
          "internalType": "address",
          "name": "user",
          "type": "address"
        },
        {
          "indexed": false,
          "internalType": "uint256",
          "name": "timestamp",
          "type": "uint256"
        }
      ],
      "name": "CreateToken",
      "type": "event"
    },
    {
      "anonymous": false,
      "inputs": [
        {
          "indexed": false,
          "internalType": "uint256",
          "name": "cardId",
          "type": "uint256"
        },
        {
          "indexed": true,
          "internalType": "address",
          "name": "user",
          "type": "address"
        },
        {
          "indexed": false,
          "internalType": "uint256",
          "name": "timestamp",
          "type": "uint256"
        }
      ],
      "name": "DeleteCard",
      "type": "event"
    },
    {
      "anonymous": false,
      "inputs": [
        {
          "indexed": true,
          "internalType": "address",
          "name": "user",
          "type": "address"
        },
        {
          "indexed": false,
          "internalType": "uint256",
          "name": "timestamp",
          "type": "uint256"
        }
      ],
      "name": "DeleteToken",
      "type": "event"
    },
    {
      "anonymous": false,
      "inputs": [
        {
          "indexed": false,
          "internalType": "uint256",
          "name": "dAppId",
          "type": "uint256"
        },
        {
          "indexed": true,
          "internalType": "address",
          "name": "user",
          "type": "address"
        },
        {
          "indexed": false,
          "internalType": "uint256",
          "name": "timestamp",
          "type": "uint256"
        }
      ],
      "name": "DeletedApp",
      "type": "event"
    },
    {
      "anonymous": false,
      "inputs": [
        {
          "indexed": false,
          "internalType": "uint256",
          "name": "dAppId",
          "type": "uint256"
        },
        {
          "indexed": true,
          "internalType": "address",
          "name": "user",
          "type": "address"
        },
        {
          "indexed": false,
          "internalType": "uint256",
          "name": "timestamp",
          "type": "uint256"
        }
      ],
      "name": "RegisterdApp",
      "type": "event"
    },
    {
      "anonymous": false,
      "inputs": [
        {
          "indexed": false,
          "internalType": "uint256",
          "name": "cardId",
          "type": "uint256"
        },
        {
          "indexed": true,
          "internalType": "address",
          "name": "user",
          "type": "address"
        },
        {
          "indexed": false,
          "internalType": "uint256",
          "name": "timestamp",
          "type": "uint256"
        }
      ],
      "name": "UpdateCard",
      "type": "event"
    },
    {
      "inputs": [
        {
          "internalType": "string",
          "name": "username",
          "type": "string"
        },
        {
          "internalType": "string",
          "name": "pfp",
          "type": "string"
        },
        {
          "internalType": "string",
          "name": "email",
          "type": "string"
        },
        {
          "internalType": "string",
          "name": "bio",
          "type": "string"
        }
      ],
      "name": "createCard",
      "outputs": [],
      "stateMutability": "nonpayable",
      "type": "function"
    },
    {
      "inputs": [
        {
          "internalType": "uint256",
          "name": "cardId",
          "type": "uint256"
        },
        {
          "internalType": "uint256",
          "name": "dAppId",
          "type": "uint256"
        },
        {
          "internalType": "address",
          "name": "signer",
          "type": "address"
        },
        {
          "internalType": "uint256",
          "name": "nonce",
          "type": "uint256"
        },
        {
          "internalType": "bytes",
          "name": "signature",
          "type": "bytes"
        }
      ],
      "name": "createToken",
      "outputs": [],
      "stateMutability": "nonpayable",
      "type": "function"
    },
    {
      "inputs": [
        {
          "internalType": "uint256",
          "name": "id",
          "type": "uint256"
        }
      ],
      "name": "deleteCard",
      "outputs": [],
      "stateMutability": "nonpayable",
      "type": "function"
    },
    {
      "inputs": [
        {
          "internalType": "uint256",
          "name": "id",
          "type": "uint256"
        }
      ],
      "name": "deleteDapp",
      "outputs": [],
      "stateMutability": "nonpayable",
      "type": "function"
    },
    {
      "inputs": [
        {
          "internalType": "bytes32",
          "name": "token",
          "type": "bytes32"
        }
      ],
      "name": "deleteToken",
      "outputs": [],
      "stateMutability": "nonpayable",
      "type": "function"
    },
    {
      "inputs": [
        {
          "internalType": "bytes32",
          "name": "token",
          "type": "bytes32"
        }
      ],
      "name": "fetchUserInfoFromToken",
      "outputs": [
        {
          "components": [
            {
              "internalType": "uint256",
              "name": "id",
              "type": "uint256"
            },
            {
              "internalType": "address",
              "name": "owner",
              "type": "address"
            },
            {
              "internalType": "string",
              "name": "username",
              "type": "string"
            },
            {
              "internalType": "string",
              "name": "pfp",
              "type": "string"
            },
            {
              "internalType": "string",
              "name": "email",
              "type": "string"
            },
            {
              "internalType": "string",
              "name": "bio",
              "type": "string"
            },
            {
              "internalType": "bool",
              "name": "isDeleted",
              "type": "bool"
            },
            {
              "internalType": "uint256",
              "name": "createdAt",
              "type": "uint256"
            },
            {
              "internalType": "uint256",
              "name": "updatedAt",
              "type": "uint256"
            }
          ],
          "internalType": "struct OAuth.Card",
          "name": "",
          "type": "tuple"
        }
      ],
      "stateMutability": "view",
      "type": "function"
    },
    {
      "inputs": [
        {
          "internalType": "bytes32[]",
          "name": "tokens",
          "type": "bytes32[]"
        }
      ],
      "name": "fetchUserInfoFromTokens",
      "outputs": [
        {
          "components": [
            {
              "internalType": "uint256",
              "name": "id",
              "type": "uint256"
            },
            {
              "internalType": "address",
              "name": "owner",
              "type": "address"
            },
            {
              "internalType": "string",
              "name": "username",
              "type": "string"
            },
            {
              "internalType": "string",
              "name": "pfp",
              "type": "string"
            },
            {
              "internalType": "string",
              "name": "email",
              "type": "string"
            },
            {
              "internalType": "string",
              "name": "bio",
              "type": "string"
            },
            {
              "internalType": "bool",
              "name": "isDeleted",
              "type": "bool"
            },
            {
              "internalType": "uint256",
              "name": "createdAt",
              "type": "uint256"
            },
            {
              "internalType": "uint256",
              "name": "updatedAt",
              "type": "uint256"
            }
          ],
          "internalType": "struct OAuth.Card[]",
          "name": "",
          "type": "tuple[]"
        }
      ],
      "stateMutability": "view",
      "type": "function"
    },
    {
      "inputs": [
        {
          "internalType": "uint256",
          "name": "id",
          "type": "uint256"
        }
      ],
      "name": "getCard",
      "outputs": [
        {
          "components": [
            {
              "internalType": "uint256",
              "name": "id",
              "type": "uint256"
            },
            {
              "internalType": "address",
              "name": "owner",
              "type": "address"
            },
            {
              "internalType": "string",
              "name": "username",
              "type": "string"
            },
            {
              "internalType": "string",
              "name": "pfp",
              "type": "string"
            },
            {
              "internalType": "string",
              "name": "email",
              "type": "string"
            },
            {
              "internalType": "string",
              "name": "bio",
              "type": "string"
            },
            {
              "internalType": "bool",
              "name": "isDeleted",
              "type": "bool"
            },
            {
              "internalType": "uint256",
              "name": "createdAt",
              "type": "uint256"
            },
            {
              "internalType": "uint256",
              "name": "updatedAt",
              "type": "uint256"
            }
          ],
          "internalType": "struct OAuth.Card",
          "name": "",
          "type": "tuple"
        }
      ],
      "stateMutability": "view",
      "type": "function"
    },
    {
      "inputs": [
        {
          "internalType": "uint256",
          "name": "id",
          "type": "uint256"
        }
      ],
      "name": "getDapp",
      "outputs": [
        {
          "components": [
            {
              "internalType": "uint256",
              "name": "id",
              "type": "uint256"
            },
            {
              "internalType": "string",
              "name": "domain",
              "type": "string"
            },
            {
              "internalType": "bytes32",
              "name": "accessToken",
              "type": "bytes32"
            },
            {
              "internalType": "address",
              "name": "owner",
              "type": "address"
            },
            {
              "internalType": "bool",
              "name": "isDeleted",
              "type": "bool"
            },
            {
              "internalType": "uint256",
              "name": "createdAt",
              "type": "uint256"
            },
            {
              "internalType": "uint256",
              "name": "updatedAt",
              "type": "uint256"
            }
          ],
          "internalType": "struct OAuth.dApp",
          "name": "",
          "type": "tuple"
        }
      ],
      "stateMutability": "view",
      "type": "function"
    },
    {
      "inputs": [
        {
          "internalType": "bytes32",
          "name": "token",
          "type": "bytes32"
        }
      ],
      "name": "getDappFromToken",
      "outputs": [
        {
          "components": [
            {
              "internalType": "uint256",
              "name": "id",
              "type": "uint256"
            },
            {
              "internalType": "string",
              "name": "domain",
              "type": "string"
            },
            {
              "internalType": "bytes32",
              "name": "accessToken",
              "type": "bytes32"
            },
            {
              "internalType": "address",
              "name": "owner",
              "type": "address"
            },
            {
              "internalType": "bool",
              "name": "isDeleted",
              "type": "bool"
            },
            {
              "internalType": "uint256",
              "name": "createdAt",
              "type": "uint256"
            },
            {
              "internalType": "uint256",
              "name": "updatedAt",
              "type": "uint256"
            }
          ],
          "internalType": "struct OAuth.dApp",
          "name": "",
          "type": "tuple"
        }
      ],
      "stateMutability": "view",
      "type": "function"
    },
    {
      "inputs": [
        {
          "internalType": "string",
          "name": "domain",
          "type": "string"
        }
      ],
      "name": "getDappIdFromDomain",
      "outputs": [
        {
          "internalType": "uint256",
          "name": "",
          "type": "uint256"
        }
      ],
      "stateMutability": "view",
      "type": "function"
    },
    {
      "inputs": [],
      "name": "getDapps",
      "outputs": [
        {
          "components": [
            {
              "internalType": "uint256",
              "name": "id",
              "type": "uint256"
            },
            {
              "internalType": "string",
              "name": "domain",
              "type": "string"
            },
            {
              "internalType": "bytes32",
              "name": "accessToken",
              "type": "bytes32"
            },
            {
              "internalType": "address",
              "name": "owner",
              "type": "address"
            },
            {
              "internalType": "bool",
              "name": "isDeleted",
              "type": "bool"
            },
            {
              "internalType": "uint256",
              "name": "createdAt",
              "type": "uint256"
            },
            {
              "internalType": "uint256",
              "name": "updatedAt",
              "type": "uint256"
            }
          ],
          "internalType": "struct OAuth.dApp[]",
          "name": "",
          "type": "tuple[]"
        }
      ],
      "stateMutability": "view",
      "type": "function"
    },
    {
      "inputs": [
        {
          "internalType": "uint256",
          "name": "cardId",
          "type": "uint256"
        }
      ],
      "name": "getDappsConnectedToCard",
      "outputs": [
        {
          "components": [
            {
              "internalType": "uint256",
              "name": "id",
              "type": "uint256"
            },
            {
              "internalType": "string",
              "name": "domain",
              "type": "string"
            },
            {
              "internalType": "bytes32",
              "name": "accessToken",
              "type": "bytes32"
            },
            {
              "internalType": "address",
              "name": "owner",
              "type": "address"
            },
            {
              "internalType": "bool",
              "name": "isDeleted",
              "type": "bool"
            },
            {
              "internalType": "uint256",
              "name": "createdAt",
              "type": "uint256"
            },
            {
              "internalType": "uint256",
              "name": "updatedAt",
              "type": "uint256"
            }
          ],
          "internalType": "struct OAuth.dApp[]",
          "name": "",
          "type": "tuple[]"
        }
      ],
      "stateMutability": "view",
      "type": "function"
    },
    {
      "inputs": [
        {
          "internalType": "address",
          "name": "user",
          "type": "address"
        }
      ],
      "name": "getUserCards",
      "outputs": [
        {
          "components": [
            {
              "internalType": "uint256",
              "name": "id",
              "type": "uint256"
            },
            {
              "internalType": "address",
              "name": "owner",
              "type": "address"
            },
            {
              "internalType": "string",
              "name": "username",
              "type": "string"
            },
            {
              "internalType": "string",
              "name": "pfp",
              "type": "string"
            },
            {
              "internalType": "string",
              "name": "email",
              "type": "string"
            },
            {
              "internalType": "string",
              "name": "bio",
              "type": "string"
            },
            {
              "internalType": "bool",
              "name": "isDeleted",
              "type": "bool"
            },
            {
              "internalType": "uint256",
              "name": "createdAt",
              "type": "uint256"
            },
            {
              "internalType": "uint256",
              "name": "updatedAt",
              "type": "uint256"
            }
          ],
          "internalType": "struct OAuth.Card[]",
          "name": "",
          "type": "tuple[]"
        }
      ],
      "stateMutability": "view",
      "type": "function"
    },
    {
      "inputs": [
        {
          "internalType": "string",
          "name": "domain",
          "type": "string"
        }
      ],
      "name": "registerdApp",
      "outputs": [],
      "stateMutability": "nonpayable",
      "type": "function"
    },
    {
      "inputs": [],
      "name": "totalCards",
      "outputs": [
        {
          "internalType": "uint256",
          "name": "",
          "type": "uint256"
        }
      ],
      "stateMutability": "view",
      "type": "function"
    },
    {
      "inputs": [],
      "name": "totalTokens",
      "outputs": [
        {
          "internalType": "uint256",
          "name": "",
          "type": "uint256"
        }
      ],
      "stateMutability": "view",
      "type": "function"
    },
    {
      "inputs": [],
      "name": "totaldApps",
      "outputs": [
        {
          "internalType": "uint256",
          "name": "",
          "type": "uint256"
        }
      ],
      "stateMutability": "view",
      "type": "function"
    },
    {
      "inputs": [
        {
          "internalType": "address",
          "name": "signer",
          "type": "address"
        },
        {
          "internalType": "uint256",
          "name": "dAppId",
          "type": "uint256"
        },
        {
          "internalType": "uint256",
          "name": "nonce",
          "type": "uint256"
        },
        {
          "internalType": "bytes",
          "name": "signature",
          "type": "bytes"
        }
      ],
      "name": "triggerLogin",
      "outputs": [
        {
          "internalType": "bytes32",
          "name": "",
          "type": "bytes32"
        },
        {
          "components": [
            {
              "internalType": "uint256",
              "name": "id",
              "type": "uint256"
            },
            {
              "internalType": "address",
              "name": "owner",
              "type": "address"
            },
            {
              "internalType": "string",
              "name": "username",
              "type": "string"
            },
            {
              "internalType": "string",
              "name": "pfp",
              "type": "string"
            },
            {
              "internalType": "string",
              "name": "email",
              "type": "string"
            },
            {
              "internalType": "string",
              "name": "bio",
              "type": "string"
            },
            {
              "internalType": "bool",
              "name": "isDeleted",
              "type": "bool"
            },
            {
              "internalType": "uint256",
              "name": "createdAt",
              "type": "uint256"
            },
            {
              "internalType": "uint256",
              "name": "updatedAt",
              "type": "uint256"
            }
          ],
          "internalType": "struct OAuth.Card[]",
          "name": "",
          "type": "tuple[]"
        }
      ],
      "stateMutability": "view",
      "type": "function"
    },
    {
      "inputs": [
        {
          "internalType": "uint256",
          "name": "id",
          "type": "uint256"
        },
        {
          "internalType": "string",
          "name": "username",
          "type": "string"
        },
        {
          "internalType": "string",
          "name": "pfp",
          "type": "string"
        },
        {
          "internalType": "string",
          "name": "email",
          "type": "string"
        },
        {
          "internalType": "string",
          "name": "bio",
          "type": "string"
        }
      ],
      "name": "updateCard",
      "outputs": [],
      "stateMutability": "nonpayable",
      "type": "function"
    }
  ],
  "bytecode": "0x60806040523480156200001157600080fd5b5033600360006101000a81548173ffffffffffffffffffffffffffffffffffffffff021916908373ffffffffffffffffffffffffffffffffffffffff160217905550620000996040518060400160405280600981526020017f6c6f63616c686f737400000000000000000000000000000000000000000000008152506200009f60201b60201c565b62000cc1565b6000815103620000e6576040517f08c379a0000000000000000000000000000000000000000000000000000000008152600401620000dd90620005fa565b60405180910390fd5b6000600982604051620000fa919062000695565b908152602001604051809103902054146200014c576040517f08c379a00000000000000000000000000000000000000000000000000000000081526004016200014390620006fe565b60405180910390fd5b600062000195826040518060400160405280600981526020017f6c6f63616c686f737400000000000000000000000000000000000000000000008152506200052560201b60201c565b9050808015620001b15750600360149054906101000a900460ff165b15620001f4576040517f08c379a0000000000000000000000000000000000000000000000000000000008152600401620001eb9062000796565b60405180910390fd5b6001600360146101000a81548160ff02191690831515021790555060006002549050600073__$1c41232b8c3f9382c4bdca1a05a1ab00e7$__63b063152a856040518263ffffffff1660e01b81526004016200025191906200081b565b602060405180830381865af41580156200026f573d6000803e3d6000fd5b505050506040513d601f19601f820116820180604052508101906200029591906200087f565b905060076040518060e0016040528084815260200186815260200183815260200185620002c35733620002c6565b60005b73ffffffffffffffffffffffffffffffffffffffff1681526020016000151581526020014281526020014281525090806001815401808255809150506001900390600052602060002090600602016000909190919091506000820151816000015560208201518160010190816200033e919062000b20565b506040820151816002015560608201518160030160006101000a81548173ffffffffffffffffffffffffffffffffffffffff021916908373ffffffffffffffffffffffffffffffffffffffff16021790555060808201518160030160146101000a81548160ff02191690831515021790555060a0820151816004015560c08201518160050155505081600985604051620003d9919062000695565b9081526020016040518091039020819055506001600a600084815260200190815260200160002060006101000a81548160ff02191690831515021790555060086000846200042857336200042b565b60005b73ffffffffffffffffffffffffffffffffffffffff1673ffffffffffffffffffffffffffffffffffffffff16815260200190815260200160002082908060018154018082558091505060019003906000526020600020016000909190919091505581600b60008381526020019081526020016000208190555060026000815480929190620004b99062000c36565b919050555082620004cb5733620004ce565b60005b73ffffffffffffffffffffffffffffffffffffffff167f38c218d407ab09a28ad8ac48d547cc738df834b4ef0ac7fb464af97679525b2b83426040516200051792919062000c94565b60405180910390a250505050565b600081518351146200053b576000905062000561565b6200054c826200056760201b60201c565b6200055d846200056760201b60201c565b1490505b92915050565b6000816040516020016200057c919062000695565b604051602081830303815290604052805190602001209050919050565b600082825260208201905092915050565b7f646f6d61696e2069732072657175697265640000000000000000000000000000600082015250565b6000620005e260128362000599565b9150620005ef82620005aa565b602082019050919050565b600060208201905081810360008301526200061581620005d3565b9050919050565b600081519050919050565b600081905092915050565b60005b838110156200065257808201518184015260208101905062000635565b60008484015250505050565b60006200066b826200061c565b62000677818562000627565b93506200068981856020860162000632565b80840191505092915050565b6000620006a382846200065e565b915081905092915050565b7f647570696361746520646f6d61696e20656e7472790000000000000000000000600082015250565b6000620006e660158362000599565b9150620006f382620006ae565b602082019050919050565b600060208201905081810360008301526200071981620006d7565b9050919050565b7f726566657220746f20646f637320666f72206c6f63616c686f737420636f6e6660008201527f696775726174696f6e0000000000000000000000000000000000000000000000602082015250565b60006200077e60298362000599565b91506200078b8262000720565b604082019050919050565b60006020820190508181036000830152620007b1816200076f565b9050919050565b600082825260208201905092915050565b6000601f19601f8301169050919050565b6000620007e7826200061c565b620007f38185620007b8565b93506200080581856020860162000632565b6200081081620007c9565b840191505092915050565b60006020820190508181036000830152620008378184620007da565b905092915050565b600080fd5b6000819050919050565b620008598162000844565b81146200086557600080fd5b50565b60008151905062000879816200084e565b92915050565b6000602082840312156200089857620008976200083f565b5b6000620008a88482850162000868565b91505092915050565b7f4e487b7100000000000000000000000000000000000000000000000000000000600052604160045260246000fd5b7f4e487b7100000000000000000000000000000000000000000000000000000000600052602260045260246000fd5b600060028204905060018216806200092857607f821691505b6020821081036200093e576200093d620008e0565b5b50919050565b60008190508160005260206000209050919050565b60006020601f8301049050919050565b600082821b905092915050565b600060088302620009a87fffffffffffffffffffffffffffffffffffffffffffffffffffffffffffffffff8262000969565b620009b4868362000969565b95508019841693508086168417925050509392505050565b6000819050919050565b6000819050919050565b600062000a01620009fb620009f584620009cc565b620009d6565b620009cc565b9050919050565b6000819050919050565b62000a1d83620009e0565b62000a3562000a2c8262000a08565b84845462000976565b825550505050565b600090565b62000a4c62000a3d565b62000a5981848462000a12565b505050565b5b8181101562000a815762000a7560008262000a42565b60018101905062000a5f565b5050565b601f82111562000ad05762000a9a8162000944565b62000aa58462000959565b8101602085101562000ab5578190505b62000acd62000ac48562000959565b83018262000a5e565b50505b505050565b600082821c905092915050565b600062000af56000198460080262000ad5565b1980831691505092915050565b600062000b10838362000ae2565b9150826002028217905092915050565b62000b2b826200061c565b67ffffffffffffffff81111562000b475762000b46620008b1565b5b62000b5382546200090f565b62000b6082828562000a85565b600060209050601f83116001811462000b98576000841562000b83578287015190505b62000b8f858262000b02565b86555062000bff565b601f19841662000ba88662000944565b60005b8281101562000bd25784890151825560018201915060208501945060208101905062000bab565b8683101562000bf2578489015162000bee601f89168262000ae2565b8355505b6001600288020188555050505b505050505050565b7f4e487b7100000000000000000000000000000000000000000000000000000000600052601160045260246000fd5b600062000c4382620009cc565b91507fffffffffffffffffffffffffffffffffffffffffffffffffffffffffffffffff820362000c785762000c7762000c07565b5b600182019050919050565b62000c8e81620009cc565b82525050565b600060408201905062000cab600083018562000c83565b62000cba602083018462000c83565b9392505050565b615efc8062000cd16000396000f3fe608060405234801561001057600080fd5b506004361061012c5760003560e01c8063801b13c4116100ad578063b5b7940211610071578063b5b7940214610368578063e247dea814610398578063e994c15d146103b4578063eae21ee1146103d2578063f1a3b943146104025761012c565b8063801b13c4146102a057806388d9f40d146102bc5780639188d312146102ec57806392d15c7c1461031c578063b10926671461034c5761012c565b80634add3ac5116100f45780634add3ac5146101e857806353d85919146102065780635da175f4146102365780635e1acf65146102665780637e1c0c09146102825761012c565b806303878f65146101315780630510271c146101615780630c2ad3f9146101925780632baaed18146101ae57806348bf10c9146101cc575b600080fd5b61014b600480360381019061014691906143e6565b61041e565b6040516101589190614448565b60405180910390f35b61017b6004803603810190610176919061458e565b6105fc565b60405161018992919061487e565b60405180910390f35b6101ac60048036038101906101a791906148ae565b610762565b005b6101b6610adc565b6040516101c39190614af2565b60405180910390f35b6101e660048036038101906101e19190614b14565b610ddf565b005b6101f06110d1565b6040516101fd9190614448565b60405180910390f35b610220600480360381019061021b9190614bff565b6110d7565b60405161022d9190614cc8565b60405180910390f35b610250600480360381019061024b9190614bff565b6112f8565b60405161025d9190614af2565b60405180910390f35b610280600480360381019061027b9190614bff565b6117c6565b005b61028a6119a5565b6040516102979190614448565b60405180910390f35b6102ba60048036038101906102b591906143e6565b6119ab565b005b6102d660048036038101906102d19190614cea565b611e0a565b6040516102e39190614d17565b60405180910390f35b61030660048036038101906103019190614bff565b612316565b6040516103139190614e13565b60405180910390f35b61033660048036038101906103319190614e61565b6126e4565b6040516103439190614e13565b60405180910390f35b61036660048036038101906103619190614e8e565b612ab0565b005b610382600480360381019061037d9190614fed565b612f9c565b60405161038f9190614d17565b60405180910390f35b6103b260048036038101906103ad9190614bff565b6133f0565b005b6103bc613693565b6040516103c99190614448565b60405180910390f35b6103ec60048036038101906103e79190614e61565b613699565b6040516103f99190614cc8565b60405180910390f35b61041c60048036038101906104179190614e61565b61393a565b005b60003373ffffffffffffffffffffffffffffffffffffffff16600360009054906101000a900473ffffffffffffffffffffffffffffffffffffffff1673ffffffffffffffffffffffffffffffffffffffff161461047a57600080fd5b600060098360405161048c9190615072565b9081526020016040518091039020549050600a600082815260200190815260200160002060009054906101000a900460ff166104fd576040517f08c379a00000000000000000000000000000000000000000000000000000000081526004016104f4906150e6565b60405180910390fd5b6105b46007828154811061051457610513615106565b5b9060005260206000209060060201600101805461053090615164565b80601f016020809104026020016040519081016040528092919081815260200182805461055c90615164565b80156105a95780601f1061057e576101008083540402835291602001916105a9565b820191906000526020600020905b81548152906001019060200180831161058c57829003601f168201915b5050505050846139ae565b6105f3576040517f08c379a00000000000000000000000000000000000000000000000000000000081526004016105ea906151e1565b60405180910390fd5b80915050919050565b600060603373ffffffffffffffffffffffffffffffffffffffff16600360009054906101000a900473ffffffffffffffffffffffffffffffffffffffff1673ffffffffffffffffffffffffffffffffffffffff161461065a57600080fd5b6106658484886139de565b6106a4576040517f08c379a000000000000000000000000000000000000000000000000000000000815260040161069b9061524d565b60405180910390fd5b6000806106b18888613bfc565b91509150811561074157600c81815481106106cf576106ce615106565b5b906000526020600020906008020160040154600067ffffffffffffffff8111156106fc576106fb6142bb565b5b60405190808252806020026020018201604052801561073557816020015b6107226141d0565b81526020019060019003908161071a5790505b50935093505050610759565b600061074c89611e0a565b8160001b91509350935050505b94509492505050565b60008451036107a6576040517f08c379a000000000000000000000000000000000000000000000000000000000815260040161079d906152b9565b60405180910390fd5b60008351036107ea576040517f08c379a00000000000000000000000000000000000000000000000000000000081526004016107e190615325565b60405180910390fd5b600082510361082e576040517f08c379a000000000000000000000000000000000000000000000000000000000815260040161082590615391565b60405180910390fd5b6000815103610872576040517f08c379a0000000000000000000000000000000000000000000000000000000008152600401610869906153fd565b60405180910390fd5b60008054905060046040518061012001604052808381526020013373ffffffffffffffffffffffffffffffffffffffff1681526020018781526020018681526020018581526020018481526020016000151581526020014281526020014281525090806001815401808255809150506001900390600052602060002090600902016000909190919091506000820151816000015560208201518160010160006101000a81548173ffffffffffffffffffffffffffffffffffffffff021916908373ffffffffffffffffffffffffffffffffffffffff160217905550604082015181600201908161096291906155c9565b50606082015181600301908161097891906155c9565b50608082015181600401908161098e91906155c9565b5060a08201518160050190816109a491906155c9565b5060c08201518160060160006101000a81548160ff02191690831515021790555060e0820151816007015561010082015181600801555050600560003373ffffffffffffffffffffffffffffffffffffffff1673ffffffffffffffffffffffffffffffffffffffff16815260200190815260200160002081908060018154018082558091505060019003906000526020600020016000909190919091505560016006600083815260200190815260200160002060006101000a81548160ff021916908315150217905550600080815480929190610a80906156ca565b91905055503373ffffffffffffffffffffffffffffffffffffffff167f779361fe8de3a59da5c59d133119cf78c0706260542a08cd8ea64758701343678242604051610acd929190615712565b60405180910390a25050505050565b60606000600860003373ffffffffffffffffffffffffffffffffffffffff1673ffffffffffffffffffffffffffffffffffffffff1681526020019081526020016000209050600080600090505b8280549050811015610b9a57600a6000848381548110610b4c57610b4b615106565b5b9060005260206000200154815260200190815260200160002060009054906101000a900460ff1615610b87578180610b83906156ca565b9250505b8080610b92906156ca565b915050610b29565b5060008167ffffffffffffffff811115610bb757610bb66142bb565b5b604051908082528060200260200182016040528015610bf057816020015b610bdd614234565b815260200190600190039081610bd55790505b50905060005b8380549050811015610dd5576000848281548110610c1757610c16615106565b5b90600052602060002001549050600a600082815260200190815260200160002060009054906101000a900460ff1615610dc15760078181548110610c5e57610c5d615106565b5b90600052602060002090600602016040518060e001604052908160008201548152602001600182018054610c9190615164565b80601f0160208091040260200160405190810160405280929190818152602001828054610cbd90615164565b8015610d0a5780601f10610cdf57610100808354040283529160200191610d0a565b820191906000526020600020905b815481529060010190602001808311610ced57829003601f168201915b50505050508152602001600282015481526020016003820160009054906101000a900473ffffffffffffffffffffffffffffffffffffffff1673ffffffffffffffffffffffffffffffffffffffff1673ffffffffffffffffffffffffffffffffffffffff1681526020016003820160149054906101000a900460ff1615151515815260200160048201548152602001600582015481525050838381518110610db557610db4615106565b5b60200260200101819052505b508080610dcd906156ca565b915050610bf6565b5080935050505090565b6006600086815260200190815260200160002060009054906101000a900460ff16610e3f576040517f08c379a0000000000000000000000000000000000000000000000000000000008152600401610e3690615787565b60405180910390fd5b3373ffffffffffffffffffffffffffffffffffffffff1660048681548110610e6a57610e69615106565b5b906000526020600020906009020160010160009054906101000a900473ffffffffffffffffffffffffffffffffffffffff1673ffffffffffffffffffffffffffffffffffffffff1614610ef2576040517f08c379a0000000000000000000000000000000000000000000000000000000008152600401610ee9906157f3565b60405180910390fd5b6000845103610f36576040517f08c379a0000000000000000000000000000000000000000000000000000000008152600401610f2d906152b9565b60405180910390fd5b6000835103610f7a576040517f08c379a0000000000000000000000000000000000000000000000000000000008152600401610f7190615325565b60405180910390fd5b6000825103610fbe576040517f08c379a0000000000000000000000000000000000000000000000000000000008152600401610fb590615391565b60405180910390fd5b6000815103611002576040517f08c379a0000000000000000000000000000000000000000000000000000000008152600401610ff9906153fd565b60405180910390fd5b60006004868154811061101857611017615106565b5b906000526020600020906009020190508481600201908161103991906155c9565b508381600301908161104b91906155c9565b508281600401908161105d91906155c9565b508181600501908161106f91906155c9565b504281600801819055503373ffffffffffffffffffffffffffffffffffffffff167fe172739fcd2c1344b918e5979a85167a8c38da7f33e26d6d2497cedeb551bc6e87426040516110c1929190615712565b60405180910390a2505050505050565b60025481565b6110df614234565b3373ffffffffffffffffffffffffffffffffffffffff16600360009054906101000a900473ffffffffffffffffffffffffffffffffffffffff1673ffffffffffffffffffffffffffffffffffffffff161461113957600080fd5b600a600083815260200190815260200160002060009054906101000a900460ff16611199576040517f08c379a0000000000000000000000000000000000000000000000000000000008152600401611190906150e6565b60405180910390fd5b600782815481106111ad576111ac615106565b5b90600052602060002090600602016040518060e0016040529081600082015481526020016001820180546111e090615164565b80601f016020809104026020016040519081016040528092919081815260200182805461120c90615164565b80156112595780601f1061122e57610100808354040283529160200191611259565b820191906000526020600020905b81548152906001019060200180831161123c57829003601f168201915b50505050508152602001600282015481526020016003820160009054906101000a900473ffffffffffffffffffffffffffffffffffffffff1673ffffffffffffffffffffffffffffffffffffffff1673ffffffffffffffffffffffffffffffffffffffff1681526020016003820160149054906101000a900460ff16151515158152602001600482015481526020016005820154815250509050919050565b60603373ffffffffffffffffffffffffffffffffffffffff16600360009054906101000a900473ffffffffffffffffffffffffffffffffffffffff1673ffffffffffffffffffffffffffffffffffffffff161461135457600080fd5b6006600083815260200190815260200160002060009054906101000a900460ff166113b4576040517f08c379a00000000000000000000000000000000000000000000000000000000081526004016113ab90615787565b60405180910390fd5b3373ffffffffffffffffffffffffffffffffffffffff16600483815481106113df576113de615106565b5b906000526020600020906009020160010160009054906101000a900473ffffffffffffffffffffffffffffffffffffffff1673ffffffffffffffffffffffffffffffffffffffff1614806114805750600360009054906101000a900473ffffffffffffffffffffffffffffffffffffffff1673ffffffffffffffffffffffffffffffffffffffff163373ffffffffffffffffffffffffffffffffffffffff16145b6114bf576040517f08c379a00000000000000000000000000000000000000000000000000000000081526004016114b6906157f3565b60405180910390fd5b600080600090505b601060008581526020019081526020016000208054905081101561155c57600a600060106000878152602001908152602001600020838154811061150e5761150d615106565b5b9060005260206000200154815260200190815260200160002060009054906101000a900460ff1615611549578180611545906156ca565b9250505b8080611554906156ca565b9150506114c7565b5060008167ffffffffffffffff811115611579576115786142bb565b5b6040519080825280602002602001820160405280156115b257816020015b61159f614234565b8152602001906001900390816115975790505b50905060005b60106000868152602001908152602001600020805490508110156117bb5760006010600087815260200190815260200160002082815481106115fd576115fc615106565b5b90600052602060002001549050600a600082815260200190815260200160002060009054906101000a900460ff16156117a7576007818154811061164457611643615106565b5b90600052602060002090600602016040518060e00160405290816000820154815260200160018201805461167790615164565b80601f01602080910402602001604051908101604052809291908181526020018280546116a390615164565b80156116f05780601f106116c5576101008083540402835291602001916116f0565b820191906000526020600020905b8154815290600101906020018083116116d357829003601f168201915b50505050508152602001600282015481526020016003820160009054906101000a900473ffffffffffffffffffffffffffffffffffffffff1673ffffffffffffffffffffffffffffffffffffffff1673ffffffffffffffffffffffffffffffffffffffff1681526020016003820160149054906101000a900460ff161515151581526020016004820154815260200160058201548152505083838151811061179b5761179a615106565b5b60200260200101819052505b5080806117b3906156ca565b9150506115b8565b508092505050919050565b6006600082815260200190815260200160002060009054906101000a900460ff16611826576040517f08c379a000000000000000000000000000000000000000000000000000000000815260040161181d90615787565b60405180910390fd5b3373ffffffffffffffffffffffffffffffffffffffff166004828154811061185157611850615106565b5b906000526020600020906009020160010160009054906101000a900473ffffffffffffffffffffffffffffffffffffffff1673ffffffffffffffffffffffffffffffffffffffff16146118d9576040517f08c379a00000000000000000000000000000000000000000000000000000000081526004016118d0906157f3565b60405180910390fd5b6000600482815481106118ef576118ee615106565b5b9060005260206000209060090201905060018160060160006101000a81548160ff02191690831515021790555042816008018190555060006006600084815260200190815260200160002060006101000a81548160ff0219169083151502179055503373ffffffffffffffffffffffffffffffffffffffff167fc8d59d0304b179a93831748dcb35af0e80f6464ee84bcc11f1e368f1ceb25ec58342604051611999929190615712565b60405180910390a25050565b60015481565b60008151036119ef576040517f08c379a00000000000000000000000000000000000000000000000000000000081526004016119e69061585f565b60405180910390fd5b6000600982604051611a019190615072565b90815260200160405180910390205414611a50576040517f08c379a0000000000000000000000000000000000000000000000000000000008152600401611a47906158cb565b60405180910390fd5b6000611a91826040518060400160405280600981526020017f6c6f63616c686f737400000000000000000000000000000000000000000000008152506139ae565b9050808015611aac5750600360149054906101000a900460ff165b15611aec576040517f08c379a0000000000000000000000000000000000000000000000000000000008152600401611ae39061595d565b60405180910390fd5b6001600360146101000a81548160ff02191690831515021790555060006002549050600073__$1c41232b8c3f9382c4bdca1a05a1ab00e7$__63b063152a856040518263ffffffff1660e01b8152600401611b4791906159c7565b602060405180830381865af4158015611b64573d6000803e3d6000fd5b505050506040513d601f19601f82011682018060405250810190611b8891906159fe565b905060076040518060e0016040528084815260200186815260200183815260200185611bb45733611bb7565b60005b73ffffffffffffffffffffffffffffffffffffffff168152602001600015158152602001428152602001428152509080600181540180825580915050600190039060005260206000209060060201600090919091909150600082015181600001556020820151816001019081611c2d91906155c9565b506040820151816002015560608201518160030160006101000a81548173ffffffffffffffffffffffffffffffffffffffff021916908373ffffffffffffffffffffffffffffffffffffffff16021790555060808201518160030160146101000a81548160ff02191690831515021790555060a0820151816004015560c08201518160050155505081600985604051611cc69190615072565b9081526020016040518091039020819055506001600a600084815260200190815260200160002060006101000a81548160ff0219169083151502179055506008600084611d135733611d16565b60005b73ffffffffffffffffffffffffffffffffffffffff1673ffffffffffffffffffffffffffffffffffffffff16815260200190815260200160002082908060018154018082558091505060019003906000526020600020016000909190919091505581600b60008381526020019081526020016000208190555060026000815480929190611da2906156ca565b919050555082611db25733611db5565b60005b73ffffffffffffffffffffffffffffffffffffffff167f38c218d407ab09a28ad8ac48d547cc738df834b4ef0ac7fb464af97679525b2b8342604051611dfc929190615712565b60405180910390a250505050565b60603373ffffffffffffffffffffffffffffffffffffffff16600360009054906101000a900473ffffffffffffffffffffffffffffffffffffffff1673ffffffffffffffffffffffffffffffffffffffff1614611e6657600080fd5b6000600560008473ffffffffffffffffffffffffffffffffffffffff1673ffffffffffffffffffffffffffffffffffffffff1681526020019081526020016000209050600080600090505b8280549050811015611f225760066000848381548110611ed457611ed3615106565b5b9060005260206000200154815260200190815260200160002060009054906101000a900460ff1615611f0f578180611f0b906156ca565b9250505b8080611f1a906156ca565b915050611eb1565b5060008167ffffffffffffffff811115611f3f57611f3e6142bb565b5b604051908082528060200260200182016040528015611f7857816020015b611f656141d0565b815260200190600190039081611f5d5790505b50905060005b838054905081101561230a576000848281548110611f9f57611f9e615106565b5b906000526020600020015490506006600082815260200190815260200160002060009054906101000a900460ff16156122f65760048181548110611fe657611fe5615106565b5b906000526020600020906009020160405180610120016040529081600082015481526020016001820160009054906101000a900473ffffffffffffffffffffffffffffffffffffffff1673ffffffffffffffffffffffffffffffffffffffff1673ffffffffffffffffffffffffffffffffffffffff16815260200160028201805461207090615164565b80601f016020809104026020016040519081016040528092919081815260200182805461209c90615164565b80156120e95780601f106120be576101008083540402835291602001916120e9565b820191906000526020600020905b8154815290600101906020018083116120cc57829003601f168201915b5050505050815260200160038201805461210290615164565b80601f016020809104026020016040519081016040528092919081815260200182805461212e90615164565b801561217b5780601f106121505761010080835404028352916020019161217b565b820191906000526020600020905b81548152906001019060200180831161215e57829003601f168201915b5050505050815260200160048201805461219490615164565b80601f01602080910402602001604051908101604052809291908181526020018280546121c090615164565b801561220d5780601f106121e25761010080835404028352916020019161220d565b820191906000526020600020905b8154815290600101906020018083116121f057829003601f168201915b5050505050815260200160058201805461222690615164565b80601f016020809104026020016040519081016040528092919081815260200182805461225290615164565b801561229f5780601f106122745761010080835404028352916020019161229f565b820191906000526020600020905b81548152906001019060200180831161228257829003601f168201915b505050505081526020016006820160009054906101000a900460ff16151515158152602001600782015481526020016008820154815250508383815181106122ea576122e9615106565b5b60200260200101819052505b508080612302906156ca565b915050611f7e565b50809350505050919050565b61231e6141d0565b3373ffffffffffffffffffffffffffffffffffffffff16600360009054906101000a900473ffffffffffffffffffffffffffffffffffffffff1673ffffffffffffffffffffffffffffffffffffffff161461237857600080fd5b6006600083815260200190815260200160002060009054906101000a900460ff166123d8576040517f08c379a00000000000000000000000000000000000000000000000000000000081526004016123cf90615787565b60405180910390fd5b600482815481106123ec576123eb615106565b5b906000526020600020906009020160405180610120016040529081600082015481526020016001820160009054906101000a900473ffffffffffffffffffffffffffffffffffffffff1673ffffffffffffffffffffffffffffffffffffffff1673ffffffffffffffffffffffffffffffffffffffff16815260200160028201805461247690615164565b80601f01602080910402602001604051908101604052809291908181526020018280546124a290615164565b80156124ef5780601f106124c4576101008083540402835291602001916124ef565b820191906000526020600020905b8154815290600101906020018083116124d257829003601f168201915b5050505050815260200160038201805461250890615164565b80601f016020809104026020016040519081016040528092919081815260200182805461253490615164565b80156125815780601f1061255657610100808354040283529160200191612581565b820191906000526020600020905b81548152906001019060200180831161256457829003601f168201915b5050505050815260200160048201805461259a90615164565b80601f01602080910402602001604051908101604052809291908181526020018280546125c690615164565b80156126135780601f106125e857610100808354040283529160200191612613565b820191906000526020600020905b8154815290600101906020018083116125f657829003601f168201915b5050505050815260200160058201805461262c90615164565b80601f016020809104026020016040519081016040528092919081815260200182805461265890615164565b80156126a55780601f1061267a576101008083540402835291602001916126a5565b820191906000526020600020905b81548152906001019060200180831161268857829003601f168201915b505050505081526020016006820160009054906101000a900460ff16151515158152602001600782015481526020016008820154815250509050919050565b6126ec6141d0565b60006126f783613d1a565b905060066000600c838154811061271157612710615106565b5b906000526020600020906008020160010154815260200190815260200160002060009054906101000a900460ff1661277e576040517f08c379a000000000000000000000000000000000000000000000000000000000815260040161277590615787565b60405180910390fd5b6004600c828154811061279457612793615106565b5b906000526020600020906008020160010154815481106127b7576127b6615106565b5b906000526020600020906009020160405180610120016040529081600082015481526020016001820160009054906101000a900473ffffffffffffffffffffffffffffffffffffffff1673ffffffffffffffffffffffffffffffffffffffff1673ffffffffffffffffffffffffffffffffffffffff16815260200160028201805461284190615164565b80601f016020809104026020016040519081016040528092919081815260200182805461286d90615164565b80156128ba5780601f1061288f576101008083540402835291602001916128ba565b820191906000526020600020905b81548152906001019060200180831161289d57829003601f168201915b505050505081526020016003820180546128d390615164565b80601f01602080910402602001604051908101604052809291908181526020018280546128ff90615164565b801561294c5780601f106129215761010080835404028352916020019161294c565b820191906000526020600020905b81548152906001019060200180831161292f57829003601f168201915b5050505050815260200160048201805461296590615164565b80601f016020809104026020016040519081016040528092919081815260200182805461299190615164565b80156129de5780601f106129b3576101008083540402835291602001916129de565b820191906000526020600020905b8154815290600101906020018083116129c157829003601f168201915b505050505081526020016005820180546129f790615164565b80601f0160208091040260200160405190810160405280929190818152602001828054612a2390615164565b8015612a705780601f10612a4557610100808354040283529160200191612a70565b820191906000526020600020905b815481529060010190602001808311612a5357829003601f168201915b505050505081526020016006820160009054906101000a900460ff1615151515815260200160078201548152602001600882015481525050915050919050565b3373ffffffffffffffffffffffffffffffffffffffff16600360009054906101000a900473ffffffffffffffffffffffffffffffffffffffff1673ffffffffffffffffffffffffffffffffffffffff1614612b0a57600080fd5b612b158282856139de565b612b54576040517f08c379a0000000000000000000000000000000000000000000000000000000008152600401612b4b9061524d565b60405180910390fd5b6006600086815260200190815260200160002060009054906101000a900460ff16612bb4576040517f08c379a0000000000000000000000000000000000000000000000000000000008152600401612bab90615787565b60405180910390fd5b600a600085815260200190815260200160002060009054906101000a900460ff16612c14576040517f08c379a0000000000000000000000000000000000000000000000000000000008152600401612c0b906150e6565b60405180910390fd5b8273ffffffffffffffffffffffffffffffffffffffff1660048681548110612c3f57612c3e615106565b5b906000526020600020906009020160010160009054906101000a900473ffffffffffffffffffffffffffffffffffffffff1673ffffffffffffffffffffffffffffffffffffffff1614612cc7576040517f08c379a0000000000000000000000000000000000000000000000000000000008152600401612cbe906157f3565b60405180910390fd5b600060015490506000868587604051602001612ce593929190615a94565b604051602081830303815290604052805190602001209050600c6040518061010001604052808481526020018981526020018881526020018773ffffffffffffffffffffffffffffffffffffffff16815260200183815260200160001515815260200142815260200142815250908060018154018082558091505060019003906000526020600020906008020160009091909190915060008201518160000155602082015181600101556040820151816002015560608201518160030160006101000a81548173ffffffffffffffffffffffffffffffffffffffff021916908373ffffffffffffffffffffffffffffffffffffffff1602179055506080820151816004015560a08201518160050160006101000a81548160ff02191690831515021790555060c0820151816006015560e0820151816007015550506001600d600084815260200190815260200160002060006101000a81548160ff02191690831515021790555081600e60008381526020019081526020016000208190555081600f60008773ffffffffffffffffffffffffffffffffffffffff1673ffffffffffffffffffffffffffffffffffffffff168152602001908152602001600020600088815260200190815260200160002081905550601060008881526020019081526020016000208690806001815401808255809150506001900390600052602060002001600090919091909150556011600087815260200190815260200160002082908060018154018082558091505060019003906000526020600020016000909190919091505560016000815480929190612f40906156ca565b91905055508473ffffffffffffffffffffffffffffffffffffffff167fb378e89b40ac5bbe0e2241b596fbe1adc3cf1fb7c982aa1b4560165cf264ee9342604051612f8b9190614448565b60405180910390a250505050505050565b60606000825167ffffffffffffffff811115612fbb57612fba6142bb565b5b604051908082528060200260200182016040528015612ff457816020015b612fe16141d0565b815260200190600190039081612fd95790505b509050600080600090505b84518110156133e557600061302d8683815181106130205761301f615106565b5b6020026020010151613d1a565b905060066000600c838154811061304757613046615106565b5b906000526020600020906008020160010154815260200190815260200160002060009054906101000a900460ff16156133d1576004600c82815481106130905761308f615106565b5b906000526020600020906008020160010154815481106130b3576130b2615106565b5b906000526020600020906009020160405180610120016040529081600082015481526020016001820160009054906101000a900473ffffffffffffffffffffffffffffffffffffffff1673ffffffffffffffffffffffffffffffffffffffff1673ffffffffffffffffffffffffffffffffffffffff16815260200160028201805461313d90615164565b80601f016020809104026020016040519081016040528092919081815260200182805461316990615164565b80156131b65780601f1061318b576101008083540402835291602001916131b6565b820191906000526020600020905b81548152906001019060200180831161319957829003601f168201915b505050505081526020016003820180546131cf90615164565b80601f01602080910402602001604051908101604052809291908181526020018280546131fb90615164565b80156132485780601f1061321d57610100808354040283529160200191613248565b820191906000526020600020905b81548152906001019060200180831161322b57829003601f168201915b5050505050815260200160048201805461326190615164565b80601f016020809104026020016040519081016040528092919081815260200182805461328d90615164565b80156132da5780601f106132af576101008083540402835291602001916132da565b820191906000526020600020905b8154815290600101906020018083116132bd57829003601f168201915b505050505081526020016005820180546132f390615164565b80601f016020809104026020016040519081016040528092919081815260200182805461331f90615164565b801561336c5780601f106133415761010080835404028352916020019161336c565b820191906000526020600020905b81548152906001019060200180831161334f57829003601f168201915b505050505081526020016006820160009054906101000a900460ff16151515158152602001600782015481526020016008820154815250508484815181106133b7576133b6615106565b5b602002602001018190525082806133cd906156ca565b9350505b5080806133dd906156ca565b915050612fff565b508192505050919050565b600a600082815260200190815260200160002060009054906101000a900460ff16613450576040517f08c379a0000000000000000000000000000000000000000000000000000000008152600401613447906150e6565b60405180910390fd5b3373ffffffffffffffffffffffffffffffffffffffff166007828154811061347b5761347a615106565b5b906000526020600020906006020160030160009054906101000a900473ffffffffffffffffffffffffffffffffffffffff1673ffffffffffffffffffffffffffffffffffffffff16148061351c5750600360009054906101000a900473ffffffffffffffffffffffffffffffffffffffff1673ffffffffffffffffffffffffffffffffffffffff163373ffffffffffffffffffffffffffffffffffffffff16145b61355b576040517f08c379a0000000000000000000000000000000000000000000000000000000008152600401613552906157f3565b60405180910390fd5b600060096007838154811061357357613572615106565b5b90600052602060002090600602016001016040516135919190615b54565b9081526020016040518091039020819055506000600a600083815260200190815260200160002060006101000a81548160ff0219169083151502179055506001600782815481106135e5576135e4615106565b5b906000526020600020906006020160030160146101000a81548160ff021916908315150217905550426007828154811061362257613621615106565b5b90600052602060002090600602016005018190555061364081613e24565b3373ffffffffffffffffffffffffffffffffffffffff167fbd81a0594dd8ad3d8a63942a67b1eabb1dbc8b59f46315753d3d1f61a4952fc08242604051613688929190615712565b60405180910390a250565b60005481565b6136a1614234565b3373ffffffffffffffffffffffffffffffffffffffff16600360009054906101000a900473ffffffffffffffffffffffffffffffffffffffff1673ffffffffffffffffffffffffffffffffffffffff16146136fb57600080fd5b6000600b6000848152602001908152602001600020549050600a600082815260200190815260200160002060009054906101000a900460ff16613773576040517f08c379a000000000000000000000000000000000000000000000000000000000815260040161376a906150e6565b60405180910390fd5b826007828154811061378857613787615106565b5b906000526020600020906006020160020154146137da576040517f08c379a00000000000000000000000000000000000000000000000000000000081526004016137d1906151e1565b60405180910390fd5b600781815481106137ee576137ed615106565b5b90600052602060002090600602016040518060e00160405290816000820154815260200160018201805461382190615164565b80601f016020809104026020016040519081016040528092919081815260200182805461384d90615164565b801561389a5780601f1061386f5761010080835404028352916020019161389a565b820191906000526020600020905b81548152906001019060200180831161387d57829003601f168201915b50505050508152602001600282015481526020016003820160009054906101000a900473ffffffffffffffffffffffffffffffffffffffff1673ffffffffffffffffffffffffffffffffffffffff1673ffffffffffffffffffffffffffffffffffffffff1681526020016003820160149054906101000a900460ff1615151515815260200160048201548152602001600582015481525050915050919050565b3373ffffffffffffffffffffffffffffffffffffffff16600360009054906101000a900473ffffffffffffffffffffffffffffffffffffffff1673ffffffffffffffffffffffffffffffffffffffff161461399457600080fd5b600061399f82613d1a565b90506139aa81613eea565b5050565b600081518351146139c257600090506139d8565b6139cb82614074565b6139d484614074565b1490505b92915050565b600080604051806080016040528060528152602001615e7560529139604051602001613a0a9190615072565b604051602081830303815290604052805190602001206040518060400160405280600a81526020017f57656233204f4175746800000000000000000000000000000000000000000000815250604051602001613a669190615072565b604051602081830303815290604052805190602001206040518060400160405280600181526020017f3100000000000000000000000000000000000000000000000000000000000000815250604051602001613ac29190615072565b604051602081830303815290604052805190602001206203113e30604051602001613af1959493929190615b7a565b6040516020818303038152906040528051906020012090506000816040518060400160405280601681526020017f4d6573736167652875696e74323536206e6f6e63652900000000000000000000815250604051602001613b529190615072565b6040516020818303038152906040528051906020012087604051602001613b7a929190615bcd565b60405160208183030381529060405280519060200120604051602001613ba1929190615c63565b6040516020818303038152906040528051906020012090508373ffffffffffffffffffffffffffffffffffffffff16613bda86836140a4565b73ffffffffffffffffffffffffffffffffffffffff1614925050509392505050565b6000806000600f60008673ffffffffffffffffffffffffffffffffffffffff1673ffffffffffffffffffffffffffffffffffffffff16815260200190815260200160002060008581526020019081526020016000205490508473ffffffffffffffffffffffffffffffffffffffff16600c8281548110613c7f57613c7e615106565b5b906000526020600020906008020160030160009054906101000a900473ffffffffffffffffffffffffffffffffffffffff1673ffffffffffffffffffffffffffffffffffffffff16148015613cf8575083600c8281548110613ce457613ce3615106565b5b906000526020600020906008020160020154145b15613d0a576001819250925050613d13565b60008092509250505b9250929050565b6000600d6000600e600085815260200190815260200160002054815260200190815260200160002060009054906101000a900460ff16613d8f576040517f08c379a0000000000000000000000000000000000000000000000000000000008152600401613d8690615ce6565b60405180910390fd5b81600c600e60008581526020019081526020016000205481548110613db757613db6615106565b5b90600052602060002090600802016004015414613e09576040517f08c379a0000000000000000000000000000000000000000000000000000000008152600401613e00906151e1565b60405180910390fd5b600e6000838152602001908152602001600020549050919050565b60005b6011600083815260200190815260200160002080549050811015613ee657600d6000601160008581526020019081526020016000208381548110613e6e57613e6d615106565b5b9060005260206000200154815260200190815260200160002060009054906101000a900460ff1615613ed357613ed2601160008481526020019081526020016000208281548110613ec257613ec1615106565b5b9060005260206000200154613eea565b5b8080613ede906156ca565b915050613e27565b5050565b600d600082815260200190815260200160002060009054906101000a900460ff16613f4a576040517f08c379a0000000000000000000000000000000000000000000000000000000008152600401613f4190615ce6565b60405180910390fd5b6000600d600083815260200190815260200160002060006101000a81548160ff0219169083151502179055506001600c8281548110613f8c57613f8b615106565b5b906000526020600020906008020160050160006101000a81548160ff02191690831515021790555042600c8281548110613fc957613fc8615106565b5b906000526020600020906008020160070181905550600c8181548110613ff257613ff1615106565b5b906000526020600020906008020160030160009054906101000a900473ffffffffffffffffffffffffffffffffffffffff1673ffffffffffffffffffffffffffffffffffffffff167f3446a75847a6ec140826047c567c6387e91c7a1e53a993151f87c730467201e3426040516140699190614448565b60405180910390a250565b6000816040516020016140879190615072565b604051602081830303815290604052805190602001209050919050565b60008060008060418651146140ee576040517f08c379a00000000000000000000000000000000000000000000000000000000081526004016140e590615d52565b60405180910390fd5b6020860151925060408601519150606086015160001a9050601b8160ff16101561412257601b8161411f9190615d7f565b90505b601b8160ff1614806141375750601c8160ff16145b614176576040517f08c379a000000000000000000000000000000000000000000000000000000000815260040161416d90615e00565b60405180910390fd5b600185828585604051600081526020016040526040516141999493929190615e2f565b6020604051602081039080840390855afa1580156141bb573d6000803e3d6000fd5b50505060206040510351935050505092915050565b60405180610120016040528060008152602001600073ffffffffffffffffffffffffffffffffffffffff1681526020016060815260200160608152602001606081526020016060815260200160001515815260200160008152602001600081525090565b6040518060e00160405280600081526020016060815260200160008019168152602001600073ffffffffffffffffffffffffffffffffffffffff16815260200160001515815260200160008152602001600081525090565b6000604051905090565b600080fd5b600080fd5b600080fd5b600080fd5b6000601f19601f8301169050919050565b7f4e487b7100000000000000000000000000000000000000000000000000000000600052604160045260246000fd5b6142f3826142aa565b810181811067ffffffffffffffff82111715614312576143116142bb565b5b80604052505050565b600061432561428c565b905061433182826142ea565b919050565b600067ffffffffffffffff821115614351576143506142bb565b5b61435a826142aa565b9050602081019050919050565b82818337600083830152505050565b600061438961438484614336565b61431b565b9050828152602081018484840111156143a5576143a46142a5565b5b6143b0848285614367565b509392505050565b600082601f8301126143cd576143cc6142a0565b5b81356143dd848260208601614376565b91505092915050565b6000602082840312156143fc576143fb614296565b5b600082013567ffffffffffffffff81111561441a5761441961429b565b5b614426848285016143b8565b91505092915050565b6000819050919050565b6144428161442f565b82525050565b600060208201905061445d6000830184614439565b92915050565b600073ffffffffffffffffffffffffffffffffffffffff82169050919050565b600061448e82614463565b9050919050565b61449e81614483565b81146144a957600080fd5b50565b6000813590506144bb81614495565b92915050565b6144ca8161442f565b81146144d557600080fd5b50565b6000813590506144e7816144c1565b92915050565b600067ffffffffffffffff821115614508576145076142bb565b5b614511826142aa565b9050602081019050919050565b600061453161452c846144ed565b61431b565b90508281526020810184848401111561454d5761454c6142a5565b5b614558848285614367565b509392505050565b600082601f830112614575576145746142a0565b5b813561458584826020860161451e565b91505092915050565b600080600080608085870312156145a8576145a7614296565b5b60006145b6878288016144ac565b94505060206145c7878288016144d8565b93505060406145d8878288016144d8565b925050606085013567ffffffffffffffff8111156145f9576145f861429b565b5b61460587828801614560565b91505092959194509250565b6000819050919050565b61462481614611565b82525050565b600081519050919050565b600082825260208201905092915050565b6000819050602082019050919050565b61465f8161442f565b82525050565b61466e81614483565b82525050565b600081519050919050565b600082825260208201905092915050565b60005b838110156146ae578082015181840152602081019050614693565b60008484015250505050565b60006146c582614674565b6146cf818561467f565b93506146df818560208601614690565b6146e8816142aa565b840191505092915050565b60008115159050919050565b614708816146f3565b82525050565b6000610120830160008301516147276000860182614656565b50602083015161473a6020860182614665565b506040830151848203604086015261475282826146ba565b9150506060830151848203606086015261476c82826146ba565b9150506080830151848203608086015261478682826146ba565b91505060a083015184820360a08601526147a082826146ba565b91505060c08301516147b560c08601826146ff565b5060e08301516147c860e0860182614656565b506101008301516147dd610100860182614656565b508091505092915050565b60006147f4838361470e565b905092915050565b6000602082019050919050565b60006148148261462a565b61481e8185614635565b93508360208202850161483085614646565b8060005b8581101561486c578484038952815161484d85826147e8565b9450614858836147fc565b925060208a01995050600181019050614834565b50829750879550505050505092915050565b6000604082019050614893600083018561461b565b81810360208301526148a58184614809565b90509392505050565b600080600080608085870312156148c8576148c7614296565b5b600085013567ffffffffffffffff8111156148e6576148e561429b565b5b6148f2878288016143b8565b945050602085013567ffffffffffffffff8111156149135761491261429b565b5b61491f878288016143b8565b935050604085013567ffffffffffffffff8111156149405761493f61429b565b5b61494c878288016143b8565b925050606085013567ffffffffffffffff81111561496d5761496c61429b565b5b614979878288016143b8565b91505092959194509250565b600081519050919050565b600082825260208201905092915050565b6000819050602082019050919050565b6149ba81614611565b82525050565b600060e0830160008301516149d86000860182614656565b50602083015184820360208601526149f082826146ba565b9150506040830151614a0560408601826149b1565b506060830151614a186060860182614665565b506080830151614a2b60808601826146ff565b5060a0830151614a3e60a0860182614656565b5060c0830151614a5160c0860182614656565b508091505092915050565b6000614a6883836149c0565b905092915050565b6000602082019050919050565b6000614a8882614985565b614a928185614990565b935083602082028501614aa4856149a1565b8060005b85811015614ae05784840389528151614ac18582614a5c565b9450614acc83614a70565b925060208a01995050600181019050614aa8565b50829750879550505050505092915050565b60006020820190508181036000830152614b0c8184614a7d565b905092915050565b600080600080600060a08688031215614b3057614b2f614296565b5b6000614b3e888289016144d8565b955050602086013567ffffffffffffffff811115614b5f57614b5e61429b565b5b614b6b888289016143b8565b945050604086013567ffffffffffffffff811115614b8c57614b8b61429b565b5b614b98888289016143b8565b935050606086013567ffffffffffffffff811115614bb957614bb861429b565b5b614bc5888289016143b8565b925050608086013567ffffffffffffffff811115614be657614be561429b565b5b614bf2888289016143b8565b9150509295509295909350565b600060208284031215614c1557614c14614296565b5b6000614c23848285016144d8565b91505092915050565b600060e083016000830151614c446000860182614656565b5060208301518482036020860152614c5c82826146ba565b9150506040830151614c7160408601826149b1565b506060830151614c846060860182614665565b506080830151614c9760808601826146ff565b5060a0830151614caa60a0860182614656565b5060c0830151614cbd60c0860182614656565b508091505092915050565b60006020820190508181036000830152614ce28184614c2c565b905092915050565b600060208284031215614d0057614cff614296565b5b6000614d0e848285016144ac565b91505092915050565b60006020820190508181036000830152614d318184614809565b905092915050565b600061012083016000830151614d526000860182614656565b506020830151614d656020860182614665565b5060408301518482036040860152614d7d82826146ba565b91505060608301518482036060860152614d9782826146ba565b91505060808301518482036080860152614db182826146ba565b91505060a083015184820360a0860152614dcb82826146ba565b91505060c0830151614de060c08601826146ff565b5060e0830151614df360e0860182614656565b50610100830151614e08610100860182614656565b508091505092915050565b60006020820190508181036000830152614e2d8184614d39565b905092915050565b614e3e81614611565b8114614e4957600080fd5b50565b600081359050614e5b81614e35565b92915050565b600060208284031215614e7757614e76614296565b5b6000614e8584828501614e4c565b91505092915050565b600080600080600060a08688031215614eaa57614ea9614296565b5b6000614eb8888289016144d8565b9550506020614ec9888289016144d8565b9450506040614eda888289016144ac565b9350506060614eeb888289016144d8565b925050608086013567ffffffffffffffff811115614f0c57614f0b61429b565b5b614f1888828901614560565b9150509295509295909350565b600067ffffffffffffffff821115614f4057614f3f6142bb565b5b602082029050602081019050919050565b600080fd5b6000614f69614f6484614f25565b61431b565b90508083825260208201905060208402830185811115614f8c57614f8b614f51565b5b835b81811015614fb55780614fa18882614e4c565b845260208401935050602081019050614f8e565b5050509392505050565b600082601f830112614fd457614fd36142a0565b5b8135614fe4848260208601614f56565b91505092915050565b60006020828403121561500357615002614296565b5b600082013567ffffffffffffffff8111156150215761502061429b565b5b61502d84828501614fbf565b91505092915050565b600081905092915050565b600061504c82614674565b6150568185615036565b9350615066818560208601614690565b80840191505092915050565b600061507e8284615041565b915081905092915050565b600082825260208201905092915050565b7f64417070206e6f7420666f756e64000000000000000000000000000000000000600082015250565b60006150d0600e83615089565b91506150db8261509a565b602082019050919050565b600060208201905081810360008301526150ff816150c3565b9050919050565b7f4e487b7100000000000000000000000000000000000000000000000000000000600052603260045260246000fd5b7f4e487b7100000000000000000000000000000000000000000000000000000000600052602260045260246000fd5b6000600282049050600182168061517c57607f821691505b60208210810361518f5761518e615135565b5b50919050565b7f4261642072657175657374000000000000000000000000000000000000000000600082015250565b60006151cb600b83615089565b91506151d682615195565b602082019050919050565b600060208201905081810360008301526151fa816151be565b9050919050565b7f556e61626c6520746f20766572696679207369676e6174757265000000000000600082015250565b6000615237601a83615089565b915061524282615201565b602082019050919050565b600060208201905081810360008301526152668161522a565b9050919050565b7f757365726e616d65206973207265717569726564000000000000000000000000600082015250565b60006152a3601483615089565b91506152ae8261526d565b602082019050919050565b600060208201905081810360008301526152d281615296565b9050919050565b7f7066702069732072657175697265640000000000000000000000000000000000600082015250565b600061530f600f83615089565b915061531a826152d9565b602082019050919050565b6000602082019050818103600083015261533e81615302565b9050919050565b7f656d61696c206973207265717569726564000000000000000000000000000000600082015250565b600061537b601183615089565b915061538682615345565b602082019050919050565b600060208201905081810360008301526153aa8161536e565b9050919050565b7f62696f2069732072657175697265640000000000000000000000000000000000600082015250565b60006153e7600f83615089565b91506153f2826153b1565b602082019050919050565b60006020820190508181036000830152615416816153da565b9050919050565b60008190508160005260206000209050919050565b60006020601f8301049050919050565b600082821b905092915050565b60006008830261547f7fffffffffffffffffffffffffffffffffffffffffffffffffffffffffffffffff82615442565b6154898683615442565b95508019841693508086168417925050509392505050565b6000819050919050565b60006154c66154c16154bc8461442f565b6154a1565b61442f565b9050919050565b6000819050919050565b6154e0836154ab565b6154f46154ec826154cd565b84845461544f565b825550505050565b600090565b6155096154fc565b6155148184846154d7565b505050565b5b818110156155385761552d600082615501565b60018101905061551a565b5050565b601f82111561557d5761554e8161541d565b61555784615432565b81016020851015615566578190505b61557a61557285615432565b830182615519565b50505b505050565b600082821c905092915050565b60006155a060001984600802615582565b1980831691505092915050565b60006155b9838361558f565b9150826002028217905092915050565b6155d282614674565b67ffffffffffffffff8111156155eb576155ea6142bb565b5b6155f58254615164565b61560082828561553c565b600060209050601f8311600181146156335760008415615621578287015190505b61562b85826155ad565b865550615693565b601f1984166156418661541d565b60005b8281101561566957848901518255600182019150602085019450602081019050615644565b868310156156865784890151615682601f89168261558f565b8355505b6001600288020188555050505b505050505050565b7f4e487b7100000000000000000000000000000000000000000000000000000000600052601160045260246000fd5b60006156d58261442f565b91507fffffffffffffffffffffffffffffffffffffffffffffffffffffffffffffffff82036157075761570661569b565b5b600182019050919050565b60006040820190506157276000830185614439565b6157346020830184614439565b9392505050565b7f43617264206e6f7420666f756e64000000000000000000000000000000000000600082015250565b6000615771600e83615089565b915061577c8261573b565b602082019050919050565b600060208201905081810360008301526157a081615764565b9050919050565b7f556e617574686f72697a65640000000000000000000000000000000000000000600082015250565b60006157dd600c83615089565b91506157e8826157a7565b602082019050919050565b6000602082019050818103600083015261580c816157d0565b9050919050565b7f646f6d61696e2069732072657175697265640000000000000000000000000000600082015250565b6000615849601283615089565b915061585482615813565b602082019050919050565b600060208201905081810360008301526158788161583c565b9050919050565b7f647570696361746520646f6d61696e20656e7472790000000000000000000000600082015250565b60006158b5601583615089565b91506158c08261587f565b602082019050919050565b600060208201905081810360008301526158e4816158a8565b9050919050565b7f726566657220746f20646f637320666f72206c6f63616c686f737420636f6e6660008201527f696775726174696f6e0000000000000000000000000000000000000000000000602082015250565b6000615947602983615089565b9150615952826158eb565b604082019050919050565b600060208201905081810360008301526159768161593a565b9050919050565b600082825260208201905092915050565b600061599982614674565b6159a3818561597d565b93506159b3818560208601614690565b6159bc816142aa565b840191505092915050565b600060208201905081810360008301526159e1818461598e565b905092915050565b6000815190506159f881614e35565b92915050565b600060208284031215615a1457615a13614296565b5b6000615a22848285016159e9565b91505092915050565b6000819050919050565b615a46615a418261442f565b615a2b565b82525050565b60008160601b9050919050565b6000615a6482615a4c565b9050919050565b6000615a7682615a59565b9050919050565b615a8e615a8982614483565b615a6b565b82525050565b6000615aa08286615a35565b602082019150615ab08285615a7d565b601482019150615ac08284615a35565b602082019150819050949350505050565b60008154615ade81615164565b615ae88186615036565b94506001821660008114615b035760018114615b1857615b4b565b60ff1983168652811515820286019350615b4b565b615b218561541d565b60005b83811015615b4357815481890152600182019150602081019050615b24565b838801955050505b50505092915050565b6000615b608284615ad1565b915081905092915050565b615b7481614483565b82525050565b600060a082019050615b8f600083018861461b565b615b9c602083018761461b565b615ba9604083018661461b565b615bb66060830185614439565b615bc36080830184615b6b565b9695505050505050565b6000604082019050615be2600083018561461b565b615bef6020830184614439565b9392505050565b7f1901000000000000000000000000000000000000000000000000000000000000600082015250565b6000615c2c600283615036565b9150615c3782615bf6565b600282019050919050565b6000819050919050565b615c5d615c5882614611565b615c42565b82525050565b6000615c6e82615c1f565b9150615c7a8285615c4c565b602082019150615c8a8284615c4c565b6020820191508190509392505050565b7f696e76616c69642f64656c6574656420746f6b656e0000000000000000000000600082015250565b6000615cd0601583615089565b9150615cdb82615c9a565b602082019050919050565b60006020820190508181036000830152615cff81615cc3565b9050919050565b7f496e76616c6964207369676e6174757265206c656e6774680000000000000000600082015250565b6000615d3c601883615089565b9150615d4782615d06565b602082019050919050565b60006020820190508181036000830152615d6b81615d2f565b9050919050565b600060ff82169050919050565b6000615d8a82615d72565b9150615d9583615d72565b9250828201905060ff811115615dae57615dad61569b565b5b92915050565b7f496e76616c6964207369676e6174757265207265636f76657279206964000000600082015250565b6000615dea601d83615089565b9150615df582615db4565b602082019050919050565b60006020820190508181036000830152615e1981615ddd565b9050919050565b615e2981615d72565b82525050565b6000608082019050615e44600083018761461b565b615e516020830186615e20565b615e5e604083018561461b565b615e6b606083018461461b565b9594505050505056fe454950373132446f6d61696e28737472696e67206e616d652c737472696e672076657273696f6e2c75696e7432353620636861696e49642c6164647265737320766572696679696e67436f6e747261637429a2646970667358221220928d4ab00f757fb91f7fac8f24e2b30c96561f43aa24fa6f95b1233720616c3f64736f6c63430008140033",
  "linkReferences": {
    "contracts/Utils.sol": {
      "Utils": [
        {
          "length": 20,
          "start": 538
        },
        {
          "length": 20,
          "start": 10211
        }
      ]
    }
  },
  "deployedLinkReferences": {
    "contracts/Utils.sol": {
      "Utils": [
        {
          "length": 20,
          "start": 6930
        }
      ]
    }
  }
}