{
  "_format": "hh-sol-artifact-1",
  "contractName": "OAuth",
  "sourceName": "contracts/OAuth.sol",
  "abi": [
    {
      "inputs": [],
      "stateMutability": "nonpayable",
      "type": "constructor"
    },
    {
      "anonymous": false,
      "inputs": [
        {
          "indexed": false,
          "internalType": "uint256",
          "name": "cardId",
          "type": "uint256"
        },
        {
          "indexed": true,
          "internalType": "address",
          "name": "user",
          "type": "address"
        },
        {
          "indexed": false,
          "internalType": "uint256",
          "name": "timestamp",
          "type": "uint256"
        }
      ],
      "name": "CreateCard",
      "type": "event"
    },
    {
      "anonymous": false,
      "inputs": [
        {
          "indexed": true,
          "internalType": "address",
          "name": "user",
          "type": "address"
        },
        {
          "indexed": false,
          "internalType": "uint256",
          "name": "timestamp",
          "type": "uint256"
        }
      ],
      "name": "CreateToken",
      "type": "event"
    },
    {
      "anonymous": false,
      "inputs": [
        {
          "indexed": false,
          "internalType": "uint256",
          "name": "cardId",
          "type": "uint256"
        },
        {
          "indexed": true,
          "internalType": "address",
          "name": "user",
          "type": "address"
        },
        {
          "indexed": false,
          "internalType": "uint256",
          "name": "timestamp",
          "type": "uint256"
        }
      ],
      "name": "DeleteCard",
      "type": "event"
    },
    {
      "anonymous": false,
      "inputs": [
        {
          "indexed": true,
          "internalType": "address",
          "name": "user",
          "type": "address"
        },
        {
          "indexed": false,
          "internalType": "uint256",
          "name": "timestamp",
          "type": "uint256"
        }
      ],
      "name": "DeleteToken",
      "type": "event"
    },
    {
      "anonymous": false,
      "inputs": [
        {
          "indexed": false,
          "internalType": "uint256",
          "name": "dAppId",
          "type": "uint256"
        },
        {
          "indexed": true,
          "internalType": "address",
          "name": "user",
          "type": "address"
        },
        {
          "indexed": false,
          "internalType": "uint256",
          "name": "timestamp",
          "type": "uint256"
        }
      ],
      "name": "DeletedApp",
      "type": "event"
    },
    {
      "anonymous": false,
      "inputs": [
        {
          "indexed": false,
          "internalType": "uint256",
          "name": "dAppId",
          "type": "uint256"
        },
        {
          "indexed": true,
          "internalType": "address",
          "name": "user",
          "type": "address"
        },
        {
          "indexed": false,
          "internalType": "uint256",
          "name": "timestamp",
          "type": "uint256"
        }
      ],
      "name": "RegisterdApp",
      "type": "event"
    },
    {
      "anonymous": false,
      "inputs": [
        {
          "indexed": false,
          "internalType": "uint256",
          "name": "cardId",
          "type": "uint256"
        },
        {
          "indexed": true,
          "internalType": "address",
          "name": "user",
          "type": "address"
        },
        {
          "indexed": false,
          "internalType": "uint256",
          "name": "timestamp",
          "type": "uint256"
        }
      ],
      "name": "UpdateCard",
      "type": "event"
    },
    {
      "inputs": [
        {
          "internalType": "string",
          "name": "username",
          "type": "string"
        },
        {
          "internalType": "string",
          "name": "pfp",
          "type": "string"
        },
        {
          "internalType": "string",
          "name": "email",
          "type": "string"
        },
        {
          "internalType": "string",
          "name": "bio",
          "type": "string"
        }
      ],
      "name": "createCard",
      "outputs": [],
      "stateMutability": "nonpayable",
      "type": "function"
    },
    {
      "inputs": [
        {
          "internalType": "uint256",
          "name": "cardId",
          "type": "uint256"
        },
        {
          "internalType": "uint256",
          "name": "dAppId",
          "type": "uint256"
        },
        {
          "internalType": "address",
          "name": "signer",
          "type": "address"
        },
        {
          "internalType": "uint256",
          "name": "nonce",
          "type": "uint256"
        },
        {
          "internalType": "bytes",
          "name": "signature",
          "type": "bytes"
        }
      ],
      "name": "createToken",
      "outputs": [],
      "stateMutability": "nonpayable",
      "type": "function"
    },
    {
      "inputs": [
        {
          "internalType": "uint256",
          "name": "id",
          "type": "uint256"
        }
      ],
      "name": "deleteCard",
      "outputs": [],
      "stateMutability": "nonpayable",
      "type": "function"
    },
    {
      "inputs": [
        {
          "internalType": "bytes32",
          "name": "token",
          "type": "bytes32"
        }
      ],
      "name": "deleteToken",
      "outputs": [],
      "stateMutability": "nonpayable",
      "type": "function"
    },
    {
      "inputs": [
        {
          "internalType": "uint256",
          "name": "id",
          "type": "uint256"
        }
      ],
      "name": "deletedApp",
      "outputs": [],
      "stateMutability": "nonpayable",
      "type": "function"
    },
    {
      "inputs": [
        {
          "internalType": "bytes32",
          "name": "token",
          "type": "bytes32"
        }
      ],
      "name": "fetchUserInfoFromToken",
      "outputs": [
        {
          "components": [
            {
              "internalType": "uint256",
              "name": "id",
              "type": "uint256"
            },
            {
              "internalType": "address",
              "name": "owner",
              "type": "address"
            },
            {
              "internalType": "string",
              "name": "username",
              "type": "string"
            },
            {
              "internalType": "string",
              "name": "pfp",
              "type": "string"
            },
            {
              "internalType": "string",
              "name": "email",
              "type": "string"
            },
            {
              "internalType": "string",
              "name": "bio",
              "type": "string"
            },
            {
              "internalType": "bool",
              "name": "isDeleted",
              "type": "bool"
            },
            {
              "internalType": "uint256",
              "name": "createdAt",
              "type": "uint256"
            },
            {
              "internalType": "uint256",
              "name": "updatedAt",
              "type": "uint256"
            }
          ],
          "internalType": "struct OAuth.Card",
          "name": "",
          "type": "tuple"
        }
      ],
      "stateMutability": "view",
      "type": "function"
    },
    {
      "inputs": [
        {
          "internalType": "bytes32[]",
          "name": "tokens",
          "type": "bytes32[]"
        }
      ],
      "name": "fetchUserInfoFromTokens",
      "outputs": [
        {
          "components": [
            {
              "internalType": "uint256",
              "name": "id",
              "type": "uint256"
            },
            {
              "internalType": "address",
              "name": "owner",
              "type": "address"
            },
            {
              "internalType": "string",
              "name": "username",
              "type": "string"
            },
            {
              "internalType": "string",
              "name": "pfp",
              "type": "string"
            },
            {
              "internalType": "string",
              "name": "email",
              "type": "string"
            },
            {
              "internalType": "string",
              "name": "bio",
              "type": "string"
            },
            {
              "internalType": "bool",
              "name": "isDeleted",
              "type": "bool"
            },
            {
              "internalType": "uint256",
              "name": "createdAt",
              "type": "uint256"
            },
            {
              "internalType": "uint256",
              "name": "updatedAt",
              "type": "uint256"
            }
          ],
          "internalType": "struct OAuth.Card[]",
          "name": "",
          "type": "tuple[]"
        }
      ],
      "stateMutability": "view",
      "type": "function"
    },
    {
      "inputs": [
        {
          "internalType": "uint256",
          "name": "id",
          "type": "uint256"
        }
      ],
      "name": "getCard",
      "outputs": [
        {
          "components": [
            {
              "internalType": "uint256",
              "name": "id",
              "type": "uint256"
            },
            {
              "internalType": "address",
              "name": "owner",
              "type": "address"
            },
            {
              "internalType": "string",
              "name": "username",
              "type": "string"
            },
            {
              "internalType": "string",
              "name": "pfp",
              "type": "string"
            },
            {
              "internalType": "string",
              "name": "email",
              "type": "string"
            },
            {
              "internalType": "string",
              "name": "bio",
              "type": "string"
            },
            {
              "internalType": "bool",
              "name": "isDeleted",
              "type": "bool"
            },
            {
              "internalType": "uint256",
              "name": "createdAt",
              "type": "uint256"
            },
            {
              "internalType": "uint256",
              "name": "updatedAt",
              "type": "uint256"
            }
          ],
          "internalType": "struct OAuth.Card",
          "name": "",
          "type": "tuple"
        }
      ],
      "stateMutability": "view",
      "type": "function"
    },
    {
      "inputs": [
        {
          "internalType": "address",
          "name": "user",
          "type": "address"
        }
      ],
      "name": "getUserCards",
      "outputs": [
        {
          "components": [
            {
              "internalType": "uint256",
              "name": "id",
              "type": "uint256"
            },
            {
              "internalType": "address",
              "name": "owner",
              "type": "address"
            },
            {
              "internalType": "string",
              "name": "username",
              "type": "string"
            },
            {
              "internalType": "string",
              "name": "pfp",
              "type": "string"
            },
            {
              "internalType": "string",
              "name": "email",
              "type": "string"
            },
            {
              "internalType": "string",
              "name": "bio",
              "type": "string"
            },
            {
              "internalType": "bool",
              "name": "isDeleted",
              "type": "bool"
            },
            {
              "internalType": "uint256",
              "name": "createdAt",
              "type": "uint256"
            },
            {
              "internalType": "uint256",
              "name": "updatedAt",
              "type": "uint256"
            }
          ],
          "internalType": "struct OAuth.Card[]",
          "name": "",
          "type": "tuple[]"
        }
      ],
      "stateMutability": "view",
      "type": "function"
    },
    {
      "inputs": [
        {
          "internalType": "uint256",
          "name": "id",
          "type": "uint256"
        }
      ],
      "name": "getdApp",
      "outputs": [
        {
          "components": [
            {
              "internalType": "uint256",
              "name": "id",
              "type": "uint256"
            },
            {
              "internalType": "string",
              "name": "domain",
              "type": "string"
            },
            {
              "internalType": "bytes32",
              "name": "accessToken",
              "type": "bytes32"
            },
            {
              "internalType": "address",
              "name": "owner",
              "type": "address"
            },
            {
              "internalType": "bool",
              "name": "isDeleted",
              "type": "bool"
            },
            {
              "internalType": "uint256",
              "name": "createdAt",
              "type": "uint256"
            },
            {
              "internalType": "uint256",
              "name": "updatedAt",
              "type": "uint256"
            }
          ],
          "internalType": "struct OAuth.dApp",
          "name": "",
          "type": "tuple"
        }
      ],
      "stateMutability": "view",
      "type": "function"
    },
    {
      "inputs": [
        {
          "internalType": "bytes32",
          "name": "token",
          "type": "bytes32"
        }
      ],
      "name": "getdAppFromToken",
      "outputs": [
        {
          "components": [
            {
              "internalType": "uint256",
              "name": "id",
              "type": "uint256"
            },
            {
              "internalType": "string",
              "name": "domain",
              "type": "string"
            },
            {
              "internalType": "bytes32",
              "name": "accessToken",
              "type": "bytes32"
            },
            {
              "internalType": "address",
              "name": "owner",
              "type": "address"
            },
            {
              "internalType": "bool",
              "name": "isDeleted",
              "type": "bool"
            },
            {
              "internalType": "uint256",
              "name": "createdAt",
              "type": "uint256"
            },
            {
              "internalType": "uint256",
              "name": "updatedAt",
              "type": "uint256"
            }
          ],
          "internalType": "struct OAuth.dApp",
          "name": "",
          "type": "tuple"
        }
      ],
      "stateMutability": "view",
      "type": "function"
    },
    {
      "inputs": [
        {
          "internalType": "string",
          "name": "domain",
          "type": "string"
        }
      ],
      "name": "getdAppIdFromDomain",
      "outputs": [
        {
          "internalType": "uint256",
          "name": "",
          "type": "uint256"
        }
      ],
      "stateMutability": "view",
      "type": "function"
    },
    {
      "inputs": [],
      "name": "getdApps",
      "outputs": [
        {
          "components": [
            {
              "internalType": "uint256",
              "name": "id",
              "type": "uint256"
            },
            {
              "internalType": "string",
              "name": "domain",
              "type": "string"
            },
            {
              "internalType": "bytes32",
              "name": "accessToken",
              "type": "bytes32"
            },
            {
              "internalType": "address",
              "name": "owner",
              "type": "address"
            },
            {
              "internalType": "bool",
              "name": "isDeleted",
              "type": "bool"
            },
            {
              "internalType": "uint256",
              "name": "createdAt",
              "type": "uint256"
            },
            {
              "internalType": "uint256",
              "name": "updatedAt",
              "type": "uint256"
            }
          ],
          "internalType": "struct OAuth.dApp[]",
          "name": "",
          "type": "tuple[]"
        }
      ],
      "stateMutability": "view",
      "type": "function"
    },
    {
      "inputs": [
        {
          "internalType": "uint256",
          "name": "cardId",
          "type": "uint256"
        }
      ],
      "name": "getdAppsConnectedToCard",
      "outputs": [
        {
          "components": [
            {
              "internalType": "uint256",
              "name": "id",
              "type": "uint256"
            },
            {
              "internalType": "string",
              "name": "domain",
              "type": "string"
            },
            {
              "internalType": "bytes32",
              "name": "accessToken",
              "type": "bytes32"
            },
            {
              "internalType": "address",
              "name": "owner",
              "type": "address"
            },
            {
              "internalType": "bool",
              "name": "isDeleted",
              "type": "bool"
            },
            {
              "internalType": "uint256",
              "name": "createdAt",
              "type": "uint256"
            },
            {
              "internalType": "uint256",
              "name": "updatedAt",
              "type": "uint256"
            }
          ],
          "internalType": "struct OAuth.dApp[]",
          "name": "",
          "type": "tuple[]"
        }
      ],
      "stateMutability": "view",
      "type": "function"
    },
    {
      "inputs": [
        {
          "internalType": "string",
          "name": "domain",
          "type": "string"
        }
      ],
      "name": "registerdApp",
      "outputs": [],
      "stateMutability": "nonpayable",
      "type": "function"
    },
    {
      "inputs": [],
      "name": "totalCards",
      "outputs": [
        {
          "internalType": "uint256",
          "name": "",
          "type": "uint256"
        }
      ],
      "stateMutability": "view",
      "type": "function"
    },
    {
      "inputs": [],
      "name": "totalTokens",
      "outputs": [
        {
          "internalType": "uint256",
          "name": "",
          "type": "uint256"
        }
      ],
      "stateMutability": "view",
      "type": "function"
    },
    {
      "inputs": [],
      "name": "totaldApps",
      "outputs": [
        {
          "internalType": "uint256",
          "name": "",
          "type": "uint256"
        }
      ],
      "stateMutability": "view",
      "type": "function"
    },
    {
      "inputs": [
        {
          "internalType": "address",
          "name": "signer",
          "type": "address"
        },
        {
          "internalType": "uint256",
          "name": "dAppId",
          "type": "uint256"
        },
        {
          "internalType": "uint256",
          "name": "nonce",
          "type": "uint256"
        },
        {
          "internalType": "bytes",
          "name": "signature",
          "type": "bytes"
        }
      ],
      "name": "triggerLogin",
      "outputs": [
        {
          "internalType": "bytes32",
          "name": "",
          "type": "bytes32"
        },
        {
          "components": [
            {
              "internalType": "uint256",
              "name": "id",
              "type": "uint256"
            },
            {
              "internalType": "address",
              "name": "owner",
              "type": "address"
            },
            {
              "internalType": "string",
              "name": "username",
              "type": "string"
            },
            {
              "internalType": "string",
              "name": "pfp",
              "type": "string"
            },
            {
              "internalType": "string",
              "name": "email",
              "type": "string"
            },
            {
              "internalType": "string",
              "name": "bio",
              "type": "string"
            },
            {
              "internalType": "bool",
              "name": "isDeleted",
              "type": "bool"
            },
            {
              "internalType": "uint256",
              "name": "createdAt",
              "type": "uint256"
            },
            {
              "internalType": "uint256",
              "name": "updatedAt",
              "type": "uint256"
            }
          ],
          "internalType": "struct OAuth.Card[]",
          "name": "",
          "type": "tuple[]"
        }
      ],
      "stateMutability": "view",
      "type": "function"
    },
    {
      "inputs": [
        {
          "internalType": "uint256",
          "name": "id",
          "type": "uint256"
        },
        {
          "internalType": "string",
          "name": "username",
          "type": "string"
        },
        {
          "internalType": "string",
          "name": "pfp",
          "type": "string"
        },
        {
          "internalType": "string",
          "name": "email",
          "type": "string"
        },
        {
          "internalType": "string",
          "name": "bio",
          "type": "string"
        }
      ],
      "name": "updateCard",
      "outputs": [],
      "stateMutability": "nonpayable",
      "type": "function"
    }
  ],
  "bytecode": "0x60806040523480156200001157600080fd5b5033600360006101000a81548173ffffffffffffffffffffffffffffffffffffffff021916908373ffffffffffffffffffffffffffffffffffffffff160217905550620000996040518060400160405280600981526020017f6c6f63616c686f737400000000000000000000000000000000000000000000008152506200009f60201b60201c565b62000cc1565b6000815103620000e6576040517f08c379a0000000000000000000000000000000000000000000000000000000008152600401620000dd90620005fa565b60405180910390fd5b6000600982604051620000fa919062000695565b908152602001604051809103902054146200014c576040517f08c379a00000000000000000000000000000000000000000000000000000000081526004016200014390620006fe565b60405180910390fd5b600062000195826040518060400160405280600981526020017f6c6f63616c686f737400000000000000000000000000000000000000000000008152506200052560201b60201c565b9050808015620001b15750600360149054906101000a900460ff165b15620001f4576040517f08c379a0000000000000000000000000000000000000000000000000000000008152600401620001eb9062000796565b60405180910390fd5b6001600360146101000a81548160ff02191690831515021790555060006002549050600073__$1c41232b8c3f9382c4bdca1a05a1ab00e7$__63b063152a856040518263ffffffff1660e01b81526004016200025191906200081b565b602060405180830381865af41580156200026f573d6000803e3d6000fd5b505050506040513d601f19601f820116820180604052508101906200029591906200087f565b905060076040518060e0016040528084815260200186815260200183815260200185620002c35733620002c6565b60005b73ffffffffffffffffffffffffffffffffffffffff1681526020016000151581526020014281526020014281525090806001815401808255809150506001900390600052602060002090600602016000909190919091506000820151816000015560208201518160010190816200033e919062000b20565b506040820151816002015560608201518160030160006101000a81548173ffffffffffffffffffffffffffffffffffffffff021916908373ffffffffffffffffffffffffffffffffffffffff16021790555060808201518160030160146101000a81548160ff02191690831515021790555060a0820151816004015560c08201518160050155505081600985604051620003d9919062000695565b9081526020016040518091039020819055506001600a600084815260200190815260200160002060006101000a81548160ff02191690831515021790555060086000846200042857336200042b565b60005b73ffffffffffffffffffffffffffffffffffffffff1673ffffffffffffffffffffffffffffffffffffffff16815260200190815260200160002082908060018154018082558091505060019003906000526020600020016000909190919091505581600b60008381526020019081526020016000208190555060026000815480929190620004b99062000c36565b919050555082620004cb5733620004ce565b60005b73ffffffffffffffffffffffffffffffffffffffff167f38c218d407ab09a28ad8ac48d547cc738df834b4ef0ac7fb464af97679525b2b83426040516200051792919062000c94565b60405180910390a250505050565b600081518351146200053b576000905062000561565b6200054c826200056760201b60201c565b6200055d846200056760201b60201c565b1490505b92915050565b6000816040516020016200057c919062000695565b604051602081830303815290604052805190602001209050919050565b600082825260208201905092915050565b7f646f6d61696e2069732072657175697265640000000000000000000000000000600082015250565b6000620005e260128362000599565b9150620005ef82620005aa565b602082019050919050565b600060208201905081810360008301526200061581620005d3565b9050919050565b600081519050919050565b600081905092915050565b60005b838110156200065257808201518184015260208101905062000635565b60008484015250505050565b60006200066b826200061c565b62000677818562000627565b93506200068981856020860162000632565b80840191505092915050565b6000620006a382846200065e565b915081905092915050565b7f647570696361746520646f6d61696e20656e7472790000000000000000000000600082015250565b6000620006e660158362000599565b9150620006f382620006ae565b602082019050919050565b600060208201905081810360008301526200071981620006d7565b9050919050565b7f726566657220746f20646f637320666f72206c6f63616c686f737420636f6e6660008201527f696775726174696f6e0000000000000000000000000000000000000000000000602082015250565b60006200077e60298362000599565b91506200078b8262000720565b604082019050919050565b60006020820190508181036000830152620007b1816200076f565b9050919050565b600082825260208201905092915050565b6000601f19601f8301169050919050565b6000620007e7826200061c565b620007f38185620007b8565b93506200080581856020860162000632565b6200081081620007c9565b840191505092915050565b60006020820190508181036000830152620008378184620007da565b905092915050565b600080fd5b6000819050919050565b620008598162000844565b81146200086557600080fd5b50565b60008151905062000879816200084e565b92915050565b6000602082840312156200089857620008976200083f565b5b6000620008a88482850162000868565b91505092915050565b7f4e487b7100000000000000000000000000000000000000000000000000000000600052604160045260246000fd5b7f4e487b7100000000000000000000000000000000000000000000000000000000600052602260045260246000fd5b600060028204905060018216806200092857607f821691505b6020821081036200093e576200093d620008e0565b5b50919050565b60008190508160005260206000209050919050565b60006020601f8301049050919050565b600082821b905092915050565b600060088302620009a87fffffffffffffffffffffffffffffffffffffffffffffffffffffffffffffffff8262000969565b620009b4868362000969565b95508019841693508086168417925050509392505050565b6000819050919050565b6000819050919050565b600062000a01620009fb620009f584620009cc565b620009d6565b620009cc565b9050919050565b6000819050919050565b62000a1d83620009e0565b62000a3562000a2c8262000a08565b84845462000976565b825550505050565b600090565b62000a4c62000a3d565b62000a5981848462000a12565b505050565b5b8181101562000a815762000a7560008262000a42565b60018101905062000a5f565b5050565b601f82111562000ad05762000a9a8162000944565b62000aa58462000959565b8101602085101562000ab5578190505b62000acd62000ac48562000959565b83018262000a5e565b50505b505050565b600082821c905092915050565b600062000af56000198460080262000ad5565b1980831691505092915050565b600062000b10838362000ae2565b9150826002028217905092915050565b62000b2b826200061c565b67ffffffffffffffff81111562000b475762000b46620008b1565b5b62000b5382546200090f565b62000b6082828562000a85565b600060209050601f83116001811462000b98576000841562000b83578287015190505b62000b8f858262000b02565b86555062000bff565b601f19841662000ba88662000944565b60005b8281101562000bd25784890151825560018201915060208501945060208101905062000bab565b8683101562000bf2578489015162000bee601f89168262000ae2565b8355505b6001600288020188555050505b505050505050565b7f4e487b7100000000000000000000000000000000000000000000000000000000600052601160045260246000fd5b600062000c4382620009cc565b91507fffffffffffffffffffffffffffffffffffffffffffffffffffffffffffffffff820362000c785762000c7762000c07565b5b600182019050919050565b62000c8e81620009cc565b82525050565b600060408201905062000cab600083018562000c83565b62000cba602083018462000c83565b9392505050565b615efc8062000cd16000396000f3fe608060405234801561001057600080fd5b506004361061012c5760003560e01c80639188d312116100ad578063b5b7940211610071578063b5b7940214610354578063e7b4908814610384578063e994c15d146103b4578063ed886b27146103d2578063f1a3b943146104025761012c565b80639188d3121461028a57806392d15c7c146102ba578063968652f3146102ea57806397be2d531461031a578063b1092667146103385761012c565b80634add3ac5116100f45780634add3ac5146101e65780635e1acf65146102045780637e1c0c0914610220578063801b13c41461023e57806388d9f40d1461025a5761012c565b80630510271c146101315780630c2ad3f9146101625780631fc93a3a1461017e57806329b579f7146101ae57806348bf10c9146101ca575b600080fd5b61014b6004803603810190610146919061447a565b61041e565b60405161015992919061476a565b60405180910390f35b61017c6004803603810190610177919061483b565b610584565b005b61019860048036038101906101939190614912565b6108fe565b6040516101a591906149ea565b60405180910390f35b6101c860048036038101906101c39190614912565b610b1f565b005b6101e460048036038101906101df9190614a0c565b610dc2565b005b6101ee6110b4565b6040516101fb9190614b06565b60405180910390f35b61021e60048036038101906102199190614912565b6110ba565b005b610228611299565b6040516102359190614b06565b60405180910390f35b61025860048036038101906102539190614b21565b61129f565b005b610274600480360381019061026f9190614b6a565b6116fe565b6040516102819190614b97565b60405180910390f35b6102a4600480360381019061029f9190614912565b611c0a565b6040516102b19190614c93565b60405180910390f35b6102d460048036038101906102cf9190614ce1565b611fd8565b6040516102e19190614c93565b60405180910390f35b61030460048036038101906102ff9190614b21565b6123a4565b6040516103119190614b06565b60405180910390f35b610322612582565b60405161032f9190614e6c565b60405180910390f35b610352600480360381019061034d9190614e8e565b612885565b005b61036e60048036038101906103699190614fed565b612d71565b60405161037b9190614b97565b60405180910390f35b61039e60048036038101906103999190614912565b6131c5565b6040516103ab9190614e6c565b60405180910390f35b6103bc613693565b6040516103c99190614b06565b60405180910390f35b6103ec60048036038101906103e79190614ce1565b613699565b6040516103f991906149ea565b60405180910390f35b61041c60048036038101906104179190614ce1565b61393a565b005b600060603373ffffffffffffffffffffffffffffffffffffffff16600360009054906101000a900473ffffffffffffffffffffffffffffffffffffffff1673ffffffffffffffffffffffffffffffffffffffff161461047c57600080fd5b6104878484886139ae565b6104c6576040517f08c379a00000000000000000000000000000000000000000000000000000000081526004016104bd90615093565b60405180910390fd5b6000806104d38888613bcc565b91509150811561056357600c81815481106104f1576104f06150b3565b5b906000526020600020906008020160040154600067ffffffffffffffff81111561051e5761051d61434f565b5b60405190808252806020026020018201604052801561055757816020015b6105446141d0565b81526020019060019003908161053c5790505b5093509350505061057b565b600061056e896116fe565b8160001b91509350935050505b94509492505050565b60008451036105c8576040517f08c379a00000000000000000000000000000000000000000000000000000000081526004016105bf9061512e565b60405180910390fd5b600083510361060c576040517f08c379a00000000000000000000000000000000000000000000000000000000081526004016106039061519a565b60405180910390fd5b6000825103610650576040517f08c379a000000000000000000000000000000000000000000000000000000000815260040161064790615206565b60405180910390fd5b6000815103610694576040517f08c379a000000000000000000000000000000000000000000000000000000000815260040161068b90615272565b60405180910390fd5b60008054905060046040518061012001604052808381526020013373ffffffffffffffffffffffffffffffffffffffff1681526020018781526020018681526020018581526020018481526020016000151581526020014281526020014281525090806001815401808255809150506001900390600052602060002090600902016000909190919091506000820151816000015560208201518160010160006101000a81548173ffffffffffffffffffffffffffffffffffffffff021916908373ffffffffffffffffffffffffffffffffffffffff1602179055506040820151816002019081610784919061549e565b50606082015181600301908161079a919061549e565b5060808201518160040190816107b0919061549e565b5060a08201518160050190816107c6919061549e565b5060c08201518160060160006101000a81548160ff02191690831515021790555060e0820151816007015561010082015181600801555050600560003373ffffffffffffffffffffffffffffffffffffffff1673ffffffffffffffffffffffffffffffffffffffff16815260200190815260200160002081908060018154018082558091505060019003906000526020600020016000909190919091505560016006600083815260200190815260200160002060006101000a81548160ff0219169083151502179055506000808154809291906108a29061559f565b91905055503373ffffffffffffffffffffffffffffffffffffffff167f779361fe8de3a59da5c59d133119cf78c0706260542a08cd8ea647587013436782426040516108ef9291906155e7565b60405180910390a25050505050565b610906614234565b3373ffffffffffffffffffffffffffffffffffffffff16600360009054906101000a900473ffffffffffffffffffffffffffffffffffffffff1673ffffffffffffffffffffffffffffffffffffffff161461096057600080fd5b600a600083815260200190815260200160002060009054906101000a900460ff166109c0576040517f08c379a00000000000000000000000000000000000000000000000000000000081526004016109b79061565c565b60405180910390fd5b600782815481106109d4576109d36150b3565b5b90600052602060002090600602016040518060e001604052908160008201548152602001600182018054610a07906152c1565b80601f0160208091040260200160405190810160405280929190818152602001828054610a33906152c1565b8015610a805780601f10610a5557610100808354040283529160200191610a80565b820191906000526020600020905b815481529060010190602001808311610a6357829003601f168201915b50505050508152602001600282015481526020016003820160009054906101000a900473ffffffffffffffffffffffffffffffffffffffff1673ffffffffffffffffffffffffffffffffffffffff1673ffffffffffffffffffffffffffffffffffffffff1681526020016003820160149054906101000a900460ff16151515158152602001600482015481526020016005820154815250509050919050565b600a600082815260200190815260200160002060009054906101000a900460ff16610b7f576040517f08c379a0000000000000000000000000000000000000000000000000000000008152600401610b769061565c565b60405180910390fd5b3373ffffffffffffffffffffffffffffffffffffffff1660078281548110610baa57610ba96150b3565b5b906000526020600020906006020160030160009054906101000a900473ffffffffffffffffffffffffffffffffffffffff1673ffffffffffffffffffffffffffffffffffffffff161480610c4b5750600360009054906101000a900473ffffffffffffffffffffffffffffffffffffffff1673ffffffffffffffffffffffffffffffffffffffff163373ffffffffffffffffffffffffffffffffffffffff16145b610c8a576040517f08c379a0000000000000000000000000000000000000000000000000000000008152600401610c81906156c8565b60405180910390fd5b6000600960078381548110610ca257610ca16150b3565b5b9060005260206000209060060201600101604051610cc09190615776565b9081526020016040518091039020819055506000600a600083815260200190815260200160002060006101000a81548160ff021916908315150217905550600160078281548110610d1457610d136150b3565b5b906000526020600020906006020160030160146101000a81548160ff0219169083151502179055504260078281548110610d5157610d506150b3565b5b906000526020600020906006020160050181905550610d6f81613cea565b3373ffffffffffffffffffffffffffffffffffffffff167fbd81a0594dd8ad3d8a63942a67b1eabb1dbc8b59f46315753d3d1f61a4952fc08242604051610db79291906155e7565b60405180910390a250565b6006600086815260200190815260200160002060009054906101000a900460ff16610e22576040517f08c379a0000000000000000000000000000000000000000000000000000000008152600401610e19906157d9565b60405180910390fd5b3373ffffffffffffffffffffffffffffffffffffffff1660048681548110610e4d57610e4c6150b3565b5b906000526020600020906009020160010160009054906101000a900473ffffffffffffffffffffffffffffffffffffffff1673ffffffffffffffffffffffffffffffffffffffff1614610ed5576040517f08c379a0000000000000000000000000000000000000000000000000000000008152600401610ecc906156c8565b60405180910390fd5b6000845103610f19576040517f08c379a0000000000000000000000000000000000000000000000000000000008152600401610f109061512e565b60405180910390fd5b6000835103610f5d576040517f08c379a0000000000000000000000000000000000000000000000000000000008152600401610f549061519a565b60405180910390fd5b6000825103610fa1576040517f08c379a0000000000000000000000000000000000000000000000000000000008152600401610f9890615206565b60405180910390fd5b6000815103610fe5576040517f08c379a0000000000000000000000000000000000000000000000000000000008152600401610fdc90615272565b60405180910390fd5b600060048681548110610ffb57610ffa6150b3565b5b906000526020600020906009020190508481600201908161101c919061549e565b508381600301908161102e919061549e565b5082816004019081611040919061549e565b5081816005019081611052919061549e565b504281600801819055503373ffffffffffffffffffffffffffffffffffffffff167fe172739fcd2c1344b918e5979a85167a8c38da7f33e26d6d2497cedeb551bc6e87426040516110a49291906155e7565b60405180910390a2505050505050565b60025481565b6006600082815260200190815260200160002060009054906101000a900460ff1661111a576040517f08c379a0000000000000000000000000000000000000000000000000000000008152600401611111906157d9565b60405180910390fd5b3373ffffffffffffffffffffffffffffffffffffffff1660048281548110611145576111446150b3565b5b906000526020600020906009020160010160009054906101000a900473ffffffffffffffffffffffffffffffffffffffff1673ffffffffffffffffffffffffffffffffffffffff16146111cd576040517f08c379a00000000000000000000000000000000000000000000000000000000081526004016111c4906156c8565b60405180910390fd5b6000600482815481106111e3576111e26150b3565b5b9060005260206000209060090201905060018160060160006101000a81548160ff02191690831515021790555042816008018190555060006006600084815260200190815260200160002060006101000a81548160ff0219169083151502179055503373ffffffffffffffffffffffffffffffffffffffff167fc8d59d0304b179a93831748dcb35af0e80f6464ee84bcc11f1e368f1ceb25ec5834260405161128d9291906155e7565b60405180910390a25050565b60015481565b60008151036112e3576040517f08c379a00000000000000000000000000000000000000000000000000000000081526004016112da90615845565b60405180910390fd5b60006009826040516112f59190615896565b90815260200160405180910390205414611344576040517f08c379a000000000000000000000000000000000000000000000000000000000815260040161133b906158f9565b60405180910390fd5b6000611385826040518060400160405280600981526020017f6c6f63616c686f73740000000000000000000000000000000000000000000000815250613db0565b90508080156113a05750600360149054906101000a900460ff165b156113e0576040517f08c379a00000000000000000000000000000000000000000000000000000000081526004016113d79061598b565b60405180910390fd5b6001600360146101000a81548160ff02191690831515021790555060006002549050600073__$1c41232b8c3f9382c4bdca1a05a1ab00e7$__63b063152a856040518263ffffffff1660e01b815260040161143b91906159f5565b602060405180830381865af4158015611458573d6000803e3d6000fd5b505050506040513d601f19601f8201168201806040525081019061147c9190615a2c565b905060076040518060e00160405280848152602001868152602001838152602001856114a857336114ab565b60005b73ffffffffffffffffffffffffffffffffffffffff168152602001600015158152602001428152602001428152509080600181540180825580915050600190039060005260206000209060060201600090919091909150600082015181600001556020820151816001019081611521919061549e565b506040820151816002015560608201518160030160006101000a81548173ffffffffffffffffffffffffffffffffffffffff021916908373ffffffffffffffffffffffffffffffffffffffff16021790555060808201518160030160146101000a81548160ff02191690831515021790555060a0820151816004015560c082015181600501555050816009856040516115ba9190615896565b9081526020016040518091039020819055506001600a600084815260200190815260200160002060006101000a81548160ff0219169083151502179055506008600084611607573361160a565b60005b73ffffffffffffffffffffffffffffffffffffffff1673ffffffffffffffffffffffffffffffffffffffff16815260200190815260200160002082908060018154018082558091505060019003906000526020600020016000909190919091505581600b600083815260200190815260200160002081905550600260008154809291906116969061559f565b9190505550826116a657336116a9565b60005b73ffffffffffffffffffffffffffffffffffffffff167f38c218d407ab09a28ad8ac48d547cc738df834b4ef0ac7fb464af97679525b2b83426040516116f09291906155e7565b60405180910390a250505050565b60603373ffffffffffffffffffffffffffffffffffffffff16600360009054906101000a900473ffffffffffffffffffffffffffffffffffffffff1673ffffffffffffffffffffffffffffffffffffffff161461175a57600080fd5b6000600560008473ffffffffffffffffffffffffffffffffffffffff1673ffffffffffffffffffffffffffffffffffffffff1681526020019081526020016000209050600080600090505b828054905081101561181657600660008483815481106117c8576117c76150b3565b5b9060005260206000200154815260200190815260200160002060009054906101000a900460ff16156118035781806117ff9061559f565b9250505b808061180e9061559f565b9150506117a5565b5060008167ffffffffffffffff8111156118335761183261434f565b5b60405190808252806020026020018201604052801561186c57816020015b6118596141d0565b8152602001906001900390816118515790505b50905060005b8380549050811015611bfe576000848281548110611893576118926150b3565b5b906000526020600020015490506006600082815260200190815260200160002060009054906101000a900460ff1615611bea57600481815481106118da576118d96150b3565b5b906000526020600020906009020160405180610120016040529081600082015481526020016001820160009054906101000a900473ffffffffffffffffffffffffffffffffffffffff1673ffffffffffffffffffffffffffffffffffffffff1673ffffffffffffffffffffffffffffffffffffffff168152602001600282018054611964906152c1565b80601f0160208091040260200160405190810160405280929190818152602001828054611990906152c1565b80156119dd5780601f106119b2576101008083540402835291602001916119dd565b820191906000526020600020905b8154815290600101906020018083116119c057829003601f168201915b505050505081526020016003820180546119f6906152c1565b80601f0160208091040260200160405190810160405280929190818152602001828054611a22906152c1565b8015611a6f5780601f10611a4457610100808354040283529160200191611a6f565b820191906000526020600020905b815481529060010190602001808311611a5257829003601f168201915b50505050508152602001600482018054611a88906152c1565b80601f0160208091040260200160405190810160405280929190818152602001828054611ab4906152c1565b8015611b015780601f10611ad657610100808354040283529160200191611b01565b820191906000526020600020905b815481529060010190602001808311611ae457829003601f168201915b50505050508152602001600582018054611b1a906152c1565b80601f0160208091040260200160405190810160405280929190818152602001828054611b46906152c1565b8015611b935780601f10611b6857610100808354040283529160200191611b93565b820191906000526020600020905b815481529060010190602001808311611b7657829003601f168201915b505050505081526020016006820160009054906101000a900460ff1615151515815260200160078201548152602001600882015481525050838381518110611bde57611bdd6150b3565b5b60200260200101819052505b508080611bf69061559f565b915050611872565b50809350505050919050565b611c126141d0565b3373ffffffffffffffffffffffffffffffffffffffff16600360009054906101000a900473ffffffffffffffffffffffffffffffffffffffff1673ffffffffffffffffffffffffffffffffffffffff1614611c6c57600080fd5b6006600083815260200190815260200160002060009054906101000a900460ff16611ccc576040517f08c379a0000000000000000000000000000000000000000000000000000000008152600401611cc3906157d9565b60405180910390fd5b60048281548110611ce057611cdf6150b3565b5b906000526020600020906009020160405180610120016040529081600082015481526020016001820160009054906101000a900473ffffffffffffffffffffffffffffffffffffffff1673ffffffffffffffffffffffffffffffffffffffff1673ffffffffffffffffffffffffffffffffffffffff168152602001600282018054611d6a906152c1565b80601f0160208091040260200160405190810160405280929190818152602001828054611d96906152c1565b8015611de35780601f10611db857610100808354040283529160200191611de3565b820191906000526020600020905b815481529060010190602001808311611dc657829003601f168201915b50505050508152602001600382018054611dfc906152c1565b80601f0160208091040260200160405190810160405280929190818152602001828054611e28906152c1565b8015611e755780601f10611e4a57610100808354040283529160200191611e75565b820191906000526020600020905b815481529060010190602001808311611e5857829003601f168201915b50505050508152602001600482018054611e8e906152c1565b80601f0160208091040260200160405190810160405280929190818152602001828054611eba906152c1565b8015611f075780601f10611edc57610100808354040283529160200191611f07565b820191906000526020600020905b815481529060010190602001808311611eea57829003601f168201915b50505050508152602001600582018054611f20906152c1565b80601f0160208091040260200160405190810160405280929190818152602001828054611f4c906152c1565b8015611f995780601f10611f6e57610100808354040283529160200191611f99565b820191906000526020600020905b815481529060010190602001808311611f7c57829003601f168201915b505050505081526020016006820160009054906101000a900460ff16151515158152602001600782015481526020016008820154815250509050919050565b611fe06141d0565b6000611feb83613de0565b905060066000600c8381548110612005576120046150b3565b5b906000526020600020906008020160010154815260200190815260200160002060009054906101000a900460ff16612072576040517f08c379a0000000000000000000000000000000000000000000000000000000008152600401612069906157d9565b60405180910390fd5b6004600c8281548110612088576120876150b3565b5b906000526020600020906008020160010154815481106120ab576120aa6150b3565b5b906000526020600020906009020160405180610120016040529081600082015481526020016001820160009054906101000a900473ffffffffffffffffffffffffffffffffffffffff1673ffffffffffffffffffffffffffffffffffffffff1673ffffffffffffffffffffffffffffffffffffffff168152602001600282018054612135906152c1565b80601f0160208091040260200160405190810160405280929190818152602001828054612161906152c1565b80156121ae5780601f10612183576101008083540402835291602001916121ae565b820191906000526020600020905b81548152906001019060200180831161219157829003601f168201915b505050505081526020016003820180546121c7906152c1565b80601f01602080910402602001604051908101604052809291908181526020018280546121f3906152c1565b80156122405780601f1061221557610100808354040283529160200191612240565b820191906000526020600020905b81548152906001019060200180831161222357829003601f168201915b50505050508152602001600482018054612259906152c1565b80601f0160208091040260200160405190810160405280929190818152602001828054612285906152c1565b80156122d25780601f106122a7576101008083540402835291602001916122d2565b820191906000526020600020905b8154815290600101906020018083116122b557829003601f168201915b505050505081526020016005820180546122eb906152c1565b80601f0160208091040260200160405190810160405280929190818152602001828054612317906152c1565b80156123645780601f1061233957610100808354040283529160200191612364565b820191906000526020600020905b81548152906001019060200180831161234757829003601f168201915b505050505081526020016006820160009054906101000a900460ff1615151515815260200160078201548152602001600882015481525050915050919050565b60003373ffffffffffffffffffffffffffffffffffffffff16600360009054906101000a900473ffffffffffffffffffffffffffffffffffffffff1673ffffffffffffffffffffffffffffffffffffffff161461240057600080fd5b60006009836040516124129190615896565b9081526020016040518091039020549050600a600082815260200190815260200160002060009054906101000a900460ff16612483576040517f08c379a000000000000000000000000000000000000000000000000000000000815260040161247a9061565c565b60405180910390fd5b61253a6007828154811061249a576124996150b3565b5b906000526020600020906006020160010180546124b6906152c1565b80601f01602080910402602001604051908101604052809291908181526020018280546124e2906152c1565b801561252f5780601f106125045761010080835404028352916020019161252f565b820191906000526020600020905b81548152906001019060200180831161251257829003601f168201915b505050505084613db0565b612579576040517f08c379a000000000000000000000000000000000000000000000000000000000815260040161257090615aa5565b60405180910390fd5b80915050919050565b60606000600860003373ffffffffffffffffffffffffffffffffffffffff1673ffffffffffffffffffffffffffffffffffffffff1681526020019081526020016000209050600080600090505b828054905081101561264057600a60008483815481106125f2576125f16150b3565b5b9060005260206000200154815260200190815260200160002060009054906101000a900460ff161561262d5781806126299061559f565b9250505b80806126389061559f565b9150506125cf565b5060008167ffffffffffffffff81111561265d5761265c61434f565b5b60405190808252806020026020018201604052801561269657816020015b612683614234565b81526020019060019003908161267b5790505b50905060005b838054905081101561287b5760008482815481106126bd576126bc6150b3565b5b90600052602060002001549050600a600082815260200190815260200160002060009054906101000a900460ff16156128675760078181548110612704576127036150b3565b5b90600052602060002090600602016040518060e001604052908160008201548152602001600182018054612737906152c1565b80601f0160208091040260200160405190810160405280929190818152602001828054612763906152c1565b80156127b05780601f10612785576101008083540402835291602001916127b0565b820191906000526020600020905b81548152906001019060200180831161279357829003601f168201915b50505050508152602001600282015481526020016003820160009054906101000a900473ffffffffffffffffffffffffffffffffffffffff1673ffffffffffffffffffffffffffffffffffffffff1673ffffffffffffffffffffffffffffffffffffffff1681526020016003820160149054906101000a900460ff161515151581526020016004820154815260200160058201548152505083838151811061285b5761285a6150b3565b5b60200260200101819052505b5080806128739061559f565b91505061269c565b5080935050505090565b3373ffffffffffffffffffffffffffffffffffffffff16600360009054906101000a900473ffffffffffffffffffffffffffffffffffffffff1673ffffffffffffffffffffffffffffffffffffffff16146128df57600080fd5b6128ea8282856139ae565b612929576040517f08c379a000000000000000000000000000000000000000000000000000000000815260040161292090615093565b60405180910390fd5b6006600086815260200190815260200160002060009054906101000a900460ff16612989576040517f08c379a0000000000000000000000000000000000000000000000000000000008152600401612980906157d9565b60405180910390fd5b600a600085815260200190815260200160002060009054906101000a900460ff166129e9576040517f08c379a00000000000000000000000000000000000000000000000000000000081526004016129e09061565c565b60405180910390fd5b8273ffffffffffffffffffffffffffffffffffffffff1660048681548110612a1457612a136150b3565b5b906000526020600020906009020160010160009054906101000a900473ffffffffffffffffffffffffffffffffffffffff1673ffffffffffffffffffffffffffffffffffffffff1614612a9c576040517f08c379a0000000000000000000000000000000000000000000000000000000008152600401612a93906156c8565b60405180910390fd5b600060015490506000868587604051602001612aba93929190615b2e565b604051602081830303815290604052805190602001209050600c6040518061010001604052808481526020018981526020018881526020018773ffffffffffffffffffffffffffffffffffffffff16815260200183815260200160001515815260200142815260200142815250908060018154018082558091505060019003906000526020600020906008020160009091909190915060008201518160000155602082015181600101556040820151816002015560608201518160030160006101000a81548173ffffffffffffffffffffffffffffffffffffffff021916908373ffffffffffffffffffffffffffffffffffffffff1602179055506080820151816004015560a08201518160050160006101000a81548160ff02191690831515021790555060c0820151816006015560e0820151816007015550506001600d600084815260200190815260200160002060006101000a81548160ff02191690831515021790555081600e60008381526020019081526020016000208190555081600f60008773ffffffffffffffffffffffffffffffffffffffff1673ffffffffffffffffffffffffffffffffffffffff168152602001908152602001600020600088815260200190815260200160002081905550601060008881526020019081526020016000208690806001815401808255809150506001900390600052602060002001600090919091909150556011600087815260200190815260200160002082908060018154018082558091505060019003906000526020600020016000909190919091505560016000815480929190612d159061559f565b91905055508473ffffffffffffffffffffffffffffffffffffffff167fb378e89b40ac5bbe0e2241b596fbe1adc3cf1fb7c982aa1b4560165cf264ee9342604051612d609190614b06565b60405180910390a250505050505050565b60606000825167ffffffffffffffff811115612d9057612d8f61434f565b5b604051908082528060200260200182016040528015612dc957816020015b612db66141d0565b815260200190600190039081612dae5790505b509050600080600090505b84518110156131ba576000612e02868381518110612df557612df46150b3565b5b6020026020010151613de0565b905060066000600c8381548110612e1c57612e1b6150b3565b5b906000526020600020906008020160010154815260200190815260200160002060009054906101000a900460ff16156131a6576004600c8281548110612e6557612e646150b3565b5b90600052602060002090600802016001015481548110612e8857612e876150b3565b5b906000526020600020906009020160405180610120016040529081600082015481526020016001820160009054906101000a900473ffffffffffffffffffffffffffffffffffffffff1673ffffffffffffffffffffffffffffffffffffffff1673ffffffffffffffffffffffffffffffffffffffff168152602001600282018054612f12906152c1565b80601f0160208091040260200160405190810160405280929190818152602001828054612f3e906152c1565b8015612f8b5780601f10612f6057610100808354040283529160200191612f8b565b820191906000526020600020905b815481529060010190602001808311612f6e57829003601f168201915b50505050508152602001600382018054612fa4906152c1565b80601f0160208091040260200160405190810160405280929190818152602001828054612fd0906152c1565b801561301d5780601f10612ff25761010080835404028352916020019161301d565b820191906000526020600020905b81548152906001019060200180831161300057829003601f168201915b50505050508152602001600482018054613036906152c1565b80601f0160208091040260200160405190810160405280929190818152602001828054613062906152c1565b80156130af5780601f10613084576101008083540402835291602001916130af565b820191906000526020600020905b81548152906001019060200180831161309257829003601f168201915b505050505081526020016005820180546130c8906152c1565b80601f01602080910402602001604051908101604052809291908181526020018280546130f4906152c1565b80156131415780601f1061311657610100808354040283529160200191613141565b820191906000526020600020905b81548152906001019060200180831161312457829003601f168201915b505050505081526020016006820160009054906101000a900460ff161515151581526020016007820154815260200160088201548152505084848151811061318c5761318b6150b3565b5b602002602001018190525082806131a29061559f565b9350505b5080806131b29061559f565b915050612dd4565b508192505050919050565b60603373ffffffffffffffffffffffffffffffffffffffff16600360009054906101000a900473ffffffffffffffffffffffffffffffffffffffff1673ffffffffffffffffffffffffffffffffffffffff161461322157600080fd5b6006600083815260200190815260200160002060009054906101000a900460ff16613281576040517f08c379a0000000000000000000000000000000000000000000000000000000008152600401613278906157d9565b60405180910390fd5b3373ffffffffffffffffffffffffffffffffffffffff16600483815481106132ac576132ab6150b3565b5b906000526020600020906009020160010160009054906101000a900473ffffffffffffffffffffffffffffffffffffffff1673ffffffffffffffffffffffffffffffffffffffff16148061334d5750600360009054906101000a900473ffffffffffffffffffffffffffffffffffffffff1673ffffffffffffffffffffffffffffffffffffffff163373ffffffffffffffffffffffffffffffffffffffff16145b61338c576040517f08c379a0000000000000000000000000000000000000000000000000000000008152600401613383906156c8565b60405180910390fd5b600080600090505b601060008581526020019081526020016000208054905081101561342957600a60006010600087815260200190815260200160002083815481106133db576133da6150b3565b5b9060005260206000200154815260200190815260200160002060009054906101000a900460ff16156134165781806134129061559f565b9250505b80806134219061559f565b915050613394565b5060008167ffffffffffffffff8111156134465761344561434f565b5b60405190808252806020026020018201604052801561347f57816020015b61346c614234565b8152602001906001900390816134645790505b50905060005b60106000868152602001908152602001600020805490508110156136885760006010600087815260200190815260200160002082815481106134ca576134c96150b3565b5b90600052602060002001549050600a600082815260200190815260200160002060009054906101000a900460ff16156136745760078181548110613511576135106150b3565b5b90600052602060002090600602016040518060e001604052908160008201548152602001600182018054613544906152c1565b80601f0160208091040260200160405190810160405280929190818152602001828054613570906152c1565b80156135bd5780601f10613592576101008083540402835291602001916135bd565b820191906000526020600020905b8154815290600101906020018083116135a057829003601f168201915b50505050508152602001600282015481526020016003820160009054906101000a900473ffffffffffffffffffffffffffffffffffffffff1673ffffffffffffffffffffffffffffffffffffffff1673ffffffffffffffffffffffffffffffffffffffff1681526020016003820160149054906101000a900460ff1615151515815260200160048201548152602001600582015481525050838381518110613668576136676150b3565b5b60200260200101819052505b5080806136809061559f565b915050613485565b508092505050919050565b60005481565b6136a1614234565b3373ffffffffffffffffffffffffffffffffffffffff16600360009054906101000a900473ffffffffffffffffffffffffffffffffffffffff1673ffffffffffffffffffffffffffffffffffffffff16146136fb57600080fd5b6000600b6000848152602001908152602001600020549050600a600082815260200190815260200160002060009054906101000a900460ff16613773576040517f08c379a000000000000000000000000000000000000000000000000000000000815260040161376a9061565c565b60405180910390fd5b8260078281548110613788576137876150b3565b5b906000526020600020906006020160020154146137da576040517f08c379a00000000000000000000000000000000000000000000000000000000081526004016137d190615aa5565b60405180910390fd5b600781815481106137ee576137ed6150b3565b5b90600052602060002090600602016040518060e001604052908160008201548152602001600182018054613821906152c1565b80601f016020809104026020016040519081016040528092919081815260200182805461384d906152c1565b801561389a5780601f1061386f5761010080835404028352916020019161389a565b820191906000526020600020905b81548152906001019060200180831161387d57829003601f168201915b50505050508152602001600282015481526020016003820160009054906101000a900473ffffffffffffffffffffffffffffffffffffffff1673ffffffffffffffffffffffffffffffffffffffff1673ffffffffffffffffffffffffffffffffffffffff1681526020016003820160149054906101000a900460ff1615151515815260200160048201548152602001600582015481525050915050919050565b3373ffffffffffffffffffffffffffffffffffffffff16600360009054906101000a900473ffffffffffffffffffffffffffffffffffffffff1673ffffffffffffffffffffffffffffffffffffffff161461399457600080fd5b600061399f82613de0565b90506139aa81613eea565b5050565b600080604051806080016040528060528152602001615e75605291396040516020016139da9190615896565b604051602081830303815290604052805190602001206040518060400160405280600a81526020017f57656233204f4175746800000000000000000000000000000000000000000000815250604051602001613a369190615896565b604051602081830303815290604052805190602001206040518060400160405280600181526020017f3100000000000000000000000000000000000000000000000000000000000000815250604051602001613a929190615896565b604051602081830303815290604052805190602001206203113e30604051602001613ac1959493929190615b7a565b6040516020818303038152906040528051906020012090506000816040518060400160405280601681526020017f4d6573736167652875696e74323536206e6f6e63652900000000000000000000815250604051602001613b229190615896565b6040516020818303038152906040528051906020012087604051602001613b4a929190615bcd565b60405160208183030381529060405280519060200120604051602001613b71929190615c63565b6040516020818303038152906040528051906020012090508373ffffffffffffffffffffffffffffffffffffffff16613baa8683614074565b73ffffffffffffffffffffffffffffffffffffffff1614925050509392505050565b6000806000600f60008673ffffffffffffffffffffffffffffffffffffffff1673ffffffffffffffffffffffffffffffffffffffff16815260200190815260200160002060008581526020019081526020016000205490508473ffffffffffffffffffffffffffffffffffffffff16600c8281548110613c4f57613c4e6150b3565b5b906000526020600020906008020160030160009054906101000a900473ffffffffffffffffffffffffffffffffffffffff1673ffffffffffffffffffffffffffffffffffffffff16148015613cc8575083600c8281548110613cb457613cb36150b3565b5b906000526020600020906008020160020154145b15613cda576001819250925050613ce3565b60008092509250505b9250929050565b60005b6011600083815260200190815260200160002080549050811015613dac57600d6000601160008581526020019081526020016000208381548110613d3457613d336150b3565b5b9060005260206000200154815260200190815260200160002060009054906101000a900460ff1615613d9957613d98601160008481526020019081526020016000208281548110613d8857613d876150b3565b5b9060005260206000200154613eea565b5b8080613da49061559f565b915050613ced565b5050565b60008151835114613dc45760009050613dda565b613dcd826141a0565b613dd6846141a0565b1490505b92915050565b6000600d6000600e600085815260200190815260200160002054815260200190815260200160002060009054906101000a900460ff16613e55576040517f08c379a0000000000000000000000000000000000000000000000000000000008152600401613e4c90615ce6565b60405180910390fd5b81600c600e60008581526020019081526020016000205481548110613e7d57613e7c6150b3565b5b90600052602060002090600802016004015414613ecf576040517f08c379a0000000000000000000000000000000000000000000000000000000008152600401613ec690615aa5565b60405180910390fd5b600e6000838152602001908152602001600020549050919050565b600d600082815260200190815260200160002060009054906101000a900460ff16613f4a576040517f08c379a0000000000000000000000000000000000000000000000000000000008152600401613f4190615ce6565b60405180910390fd5b6000600d600083815260200190815260200160002060006101000a81548160ff0219169083151502179055506001600c8281548110613f8c57613f8b6150b3565b5b906000526020600020906008020160050160006101000a81548160ff02191690831515021790555042600c8281548110613fc957613fc86150b3565b5b906000526020600020906008020160070181905550600c8181548110613ff257613ff16150b3565b5b906000526020600020906008020160030160009054906101000a900473ffffffffffffffffffffffffffffffffffffffff1673ffffffffffffffffffffffffffffffffffffffff167f3446a75847a6ec140826047c567c6387e91c7a1e53a993151f87c730467201e3426040516140699190614b06565b60405180910390a250565b60008060008060418651146140be576040517f08c379a00000000000000000000000000000000000000000000000000000000081526004016140b590615d52565b60405180910390fd5b6020860151925060408601519150606086015160001a9050601b8160ff1610156140f257601b816140ef9190615d7f565b90505b601b8160ff1614806141075750601c8160ff16145b614146576040517f08c379a000000000000000000000000000000000000000000000000000000000815260040161413d90615e00565b60405180910390fd5b600185828585604051600081526020016040526040516141699493929190615e2f565b6020604051602081039080840390855afa15801561418b573d6000803e3d6000fd5b50505060206040510351935050505092915050565b6000816040516020016141b39190615896565b604051602081830303815290604052805190602001209050919050565b60405180610120016040528060008152602001600073ffffffffffffffffffffffffffffffffffffffff1681526020016060815260200160608152602001606081526020016060815260200160001515815260200160008152602001600081525090565b6040518060e00160405280600081526020016060815260200160008019168152602001600073ffffffffffffffffffffffffffffffffffffffff16815260200160001515815260200160008152602001600081525090565b6000604051905090565b600080fd5b600080fd5b600073ffffffffffffffffffffffffffffffffffffffff82169050919050565b60006142cb826142a0565b9050919050565b6142db816142c0565b81146142e657600080fd5b50565b6000813590506142f8816142d2565b92915050565b6000819050919050565b614311816142fe565b811461431c57600080fd5b50565b60008135905061432e81614308565b92915050565b600080fd5b600080fd5b6000601f19601f8301169050919050565b7f4e487b7100000000000000000000000000000000000000000000000000000000600052604160045260246000fd5b6143878261433e565b810181811067ffffffffffffffff821117156143a6576143a561434f565b5b80604052505050565b60006143b961428c565b90506143c5828261437e565b919050565b600067ffffffffffffffff8211156143e5576143e461434f565b5b6143ee8261433e565b9050602081019050919050565b82818337600083830152505050565b600061441d614418846143ca565b6143af565b90508281526020810184848401111561443957614438614339565b5b6144448482856143fb565b509392505050565b600082601f83011261446157614460614334565b5b813561447184826020860161440a565b91505092915050565b6000806000806080858703121561449457614493614296565b5b60006144a2878288016142e9565b94505060206144b38782880161431f565b93505060406144c48782880161431f565b925050606085013567ffffffffffffffff8111156144e5576144e461429b565b5b6144f18782880161444c565b91505092959194509250565b6000819050919050565b614510816144fd565b82525050565b600081519050919050565b600082825260208201905092915050565b6000819050602082019050919050565b61454b816142fe565b82525050565b61455a816142c0565b82525050565b600081519050919050565b600082825260208201905092915050565b60005b8381101561459a57808201518184015260208101905061457f565b60008484015250505050565b60006145b182614560565b6145bb818561456b565b93506145cb81856020860161457c565b6145d48161433e565b840191505092915050565b60008115159050919050565b6145f4816145df565b82525050565b6000610120830160008301516146136000860182614542565b5060208301516146266020860182614551565b506040830151848203604086015261463e82826145a6565b9150506060830151848203606086015261465882826145a6565b9150506080830151848203608086015261467282826145a6565b91505060a083015184820360a086015261468c82826145a6565b91505060c08301516146a160c08601826145eb565b5060e08301516146b460e0860182614542565b506101008301516146c9610100860182614542565b508091505092915050565b60006146e083836145fa565b905092915050565b6000602082019050919050565b600061470082614516565b61470a8185614521565b93508360208202850161471c85614532565b8060005b85811015614758578484038952815161473985826146d4565b9450614744836146e8565b925060208a01995050600181019050614720565b50829750879550505050505092915050565b600060408201905061477f6000830185614507565b818103602083015261479181846146f5565b90509392505050565b600067ffffffffffffffff8211156147b5576147b461434f565b5b6147be8261433e565b9050602081019050919050565b60006147de6147d98461479a565b6143af565b9050828152602081018484840111156147fa576147f9614339565b5b6148058482856143fb565b509392505050565b600082601f83011261482257614821614334565b5b81356148328482602086016147cb565b91505092915050565b6000806000806080858703121561485557614854614296565b5b600085013567ffffffffffffffff8111156148735761487261429b565b5b61487f8782880161480d565b945050602085013567ffffffffffffffff8111156148a05761489f61429b565b5b6148ac8782880161480d565b935050604085013567ffffffffffffffff8111156148cd576148cc61429b565b5b6148d98782880161480d565b925050606085013567ffffffffffffffff8111156148fa576148f961429b565b5b6149068782880161480d565b91505092959194509250565b60006020828403121561492857614927614296565b5b60006149368482850161431f565b91505092915050565b614948816144fd565b82525050565b600060e0830160008301516149666000860182614542565b506020830151848203602086015261497e82826145a6565b9150506040830151614993604086018261493f565b5060608301516149a66060860182614551565b5060808301516149b960808601826145eb565b5060a08301516149cc60a0860182614542565b5060c08301516149df60c0860182614542565b508091505092915050565b60006020820190508181036000830152614a04818461494e565b905092915050565b600080600080600060a08688031215614a2857614a27614296565b5b6000614a368882890161431f565b955050602086013567ffffffffffffffff811115614a5757614a5661429b565b5b614a638882890161480d565b945050604086013567ffffffffffffffff811115614a8457614a8361429b565b5b614a908882890161480d565b935050606086013567ffffffffffffffff811115614ab157614ab061429b565b5b614abd8882890161480d565b925050608086013567ffffffffffffffff811115614ade57614add61429b565b5b614aea8882890161480d565b9150509295509295909350565b614b00816142fe565b82525050565b6000602082019050614b1b6000830184614af7565b92915050565b600060208284031215614b3757614b36614296565b5b600082013567ffffffffffffffff811115614b5557614b5461429b565b5b614b618482850161480d565b91505092915050565b600060208284031215614b8057614b7f614296565b5b6000614b8e848285016142e9565b91505092915050565b60006020820190508181036000830152614bb181846146f5565b905092915050565b600061012083016000830151614bd26000860182614542565b506020830151614be56020860182614551565b5060408301518482036040860152614bfd82826145a6565b91505060608301518482036060860152614c1782826145a6565b91505060808301518482036080860152614c3182826145a6565b91505060a083015184820360a0860152614c4b82826145a6565b91505060c0830151614c6060c08601826145eb565b5060e0830151614c7360e0860182614542565b50610100830151614c88610100860182614542565b508091505092915050565b60006020820190508181036000830152614cad8184614bb9565b905092915050565b614cbe816144fd565b8114614cc957600080fd5b50565b600081359050614cdb81614cb5565b92915050565b600060208284031215614cf757614cf6614296565b5b6000614d0584828501614ccc565b91505092915050565b600081519050919050565b600082825260208201905092915050565b6000819050602082019050919050565b600060e083016000830151614d526000860182614542565b5060208301518482036020860152614d6a82826145a6565b9150506040830151614d7f604086018261493f565b506060830151614d926060860182614551565b506080830151614da560808601826145eb565b5060a0830151614db860a0860182614542565b5060c0830151614dcb60c0860182614542565b508091505092915050565b6000614de28383614d3a565b905092915050565b6000602082019050919050565b6000614e0282614d0e565b614e0c8185614d19565b935083602082028501614e1e85614d2a565b8060005b85811015614e5a5784840389528151614e3b8582614dd6565b9450614e4683614dea565b925060208a01995050600181019050614e22565b50829750879550505050505092915050565b60006020820190508181036000830152614e868184614df7565b905092915050565b600080600080600060a08688031215614eaa57614ea9614296565b5b6000614eb88882890161431f565b9550506020614ec98882890161431f565b9450506040614eda888289016142e9565b9350506060614eeb8882890161431f565b925050608086013567ffffffffffffffff811115614f0c57614f0b61429b565b5b614f188882890161444c565b9150509295509295909350565b600067ffffffffffffffff821115614f4057614f3f61434f565b5b602082029050602081019050919050565b600080fd5b6000614f69614f6484614f25565b6143af565b90508083825260208201905060208402830185811115614f8c57614f8b614f51565b5b835b81811015614fb55780614fa18882614ccc565b845260208401935050602081019050614f8e565b5050509392505050565b600082601f830112614fd457614fd3614334565b5b8135614fe4848260208601614f56565b91505092915050565b60006020828403121561500357615002614296565b5b600082013567ffffffffffffffff8111156150215761502061429b565b5b61502d84828501614fbf565b91505092915050565b600082825260208201905092915050565b7f556e61626c6520746f20766572696679207369676e6174757265000000000000600082015250565b600061507d601a83615036565b915061508882615047565b602082019050919050565b600060208201905081810360008301526150ac81615070565b9050919050565b7f4e487b7100000000000000000000000000000000000000000000000000000000600052603260045260246000fd5b7f757365726e616d65206973207265717569726564000000000000000000000000600082015250565b6000615118601483615036565b9150615123826150e2565b602082019050919050565b600060208201905081810360008301526151478161510b565b9050919050565b7f7066702069732072657175697265640000000000000000000000000000000000600082015250565b6000615184600f83615036565b915061518f8261514e565b602082019050919050565b600060208201905081810360008301526151b381615177565b9050919050565b7f656d61696c206973207265717569726564000000000000000000000000000000600082015250565b60006151f0601183615036565b91506151fb826151ba565b602082019050919050565b6000602082019050818103600083015261521f816151e3565b9050919050565b7f62696f2069732072657175697265640000000000000000000000000000000000600082015250565b600061525c600f83615036565b915061526782615226565b602082019050919050565b6000602082019050818103600083015261528b8161524f565b9050919050565b7f4e487b7100000000000000000000000000000000000000000000000000000000600052602260045260246000fd5b600060028204905060018216806152d957607f821691505b6020821081036152ec576152eb615292565b5b50919050565b60008190508160005260206000209050919050565b60006020601f8301049050919050565b600082821b905092915050565b6000600883026153547fffffffffffffffffffffffffffffffffffffffffffffffffffffffffffffffff82615317565b61535e8683615317565b95508019841693508086168417925050509392505050565b6000819050919050565b600061539b615396615391846142fe565b615376565b6142fe565b9050919050565b6000819050919050565b6153b583615380565b6153c96153c1826153a2565b848454615324565b825550505050565b600090565b6153de6153d1565b6153e98184846153ac565b505050565b5b8181101561540d576154026000826153d6565b6001810190506153ef565b5050565b601f82111561545257615423816152f2565b61542c84615307565b8101602085101561543b578190505b61544f61544785615307565b8301826153ee565b50505b505050565b600082821c905092915050565b600061547560001984600802615457565b1980831691505092915050565b600061548e8383615464565b9150826002028217905092915050565b6154a782614560565b67ffffffffffffffff8111156154c0576154bf61434f565b5b6154ca82546152c1565b6154d5828285615411565b600060209050601f83116001811461550857600084156154f6578287015190505b6155008582615482565b865550615568565b601f198416615516866152f2565b60005b8281101561553e57848901518255600182019150602085019450602081019050615519565b8683101561555b5784890151615557601f891682615464565b8355505b6001600288020188555050505b505050505050565b7f4e487b7100000000000000000000000000000000000000000000000000000000600052601160045260246000fd5b60006155aa826142fe565b91507fffffffffffffffffffffffffffffffffffffffffffffffffffffffffffffffff82036155dc576155db615570565b5b600182019050919050565b60006040820190506155fc6000830185614af7565b6156096020830184614af7565b9392505050565b7f64417070206e6f7420666f756e64000000000000000000000000000000000000600082015250565b6000615646600e83615036565b915061565182615610565b602082019050919050565b6000602082019050818103600083015261567581615639565b9050919050565b7f556e617574686f72697a65640000000000000000000000000000000000000000600082015250565b60006156b2600c83615036565b91506156bd8261567c565b602082019050919050565b600060208201905081810360008301526156e1816156a5565b9050919050565b600081905092915050565b60008154615700816152c1565b61570a81866156e8565b94506001821660008114615725576001811461573a5761576d565b60ff198316865281151582028601935061576d565b615743856152f2565b60005b8381101561576557815481890152600182019150602081019050615746565b838801955050505b50505092915050565b600061578282846156f3565b915081905092915050565b7f43617264206e6f7420666f756e64000000000000000000000000000000000000600082015250565b60006157c3600e83615036565b91506157ce8261578d565b602082019050919050565b600060208201905081810360008301526157f2816157b6565b9050919050565b7f646f6d61696e2069732072657175697265640000000000000000000000000000600082015250565b600061582f601283615036565b915061583a826157f9565b602082019050919050565b6000602082019050818103600083015261585e81615822565b9050919050565b600061587082614560565b61587a81856156e8565b935061588a81856020860161457c565b80840191505092915050565b60006158a28284615865565b915081905092915050565b7f647570696361746520646f6d61696e20656e7472790000000000000000000000600082015250565b60006158e3601583615036565b91506158ee826158ad565b602082019050919050565b60006020820190508181036000830152615912816158d6565b9050919050565b7f726566657220746f20646f637320666f72206c6f63616c686f737420636f6e6660008201527f696775726174696f6e0000000000000000000000000000000000000000000000602082015250565b6000615975602983615036565b915061598082615919565b604082019050919050565b600060208201905081810360008301526159a481615968565b9050919050565b600082825260208201905092915050565b60006159c782614560565b6159d181856159ab565b93506159e181856020860161457c565b6159ea8161433e565b840191505092915050565b60006020820190508181036000830152615a0f81846159bc565b905092915050565b600081519050615a2681614cb5565b92915050565b600060208284031215615a4257615a41614296565b5b6000615a5084828501615a17565b91505092915050565b7f4261642072657175657374000000000000000000000000000000000000000000600082015250565b6000615a8f600b83615036565b9150615a9a82615a59565b602082019050919050565b60006020820190508181036000830152615abe81615a82565b9050919050565b6000819050919050565b615ae0615adb826142fe565b615ac5565b82525050565b60008160601b9050919050565b6000615afe82615ae6565b9050919050565b6000615b1082615af3565b9050919050565b615b28615b23826142c0565b615b05565b82525050565b6000615b3a8286615acf565b602082019150615b4a8285615b17565b601482019150615b5a8284615acf565b602082019150819050949350505050565b615b74816142c0565b82525050565b600060a082019050615b8f6000830188614507565b615b9c6020830187614507565b615ba96040830186614507565b615bb66060830185614af7565b615bc36080830184615b6b565b9695505050505050565b6000604082019050615be26000830185614507565b615bef6020830184614af7565b9392505050565b7f1901000000000000000000000000000000000000000000000000000000000000600082015250565b6000615c2c6002836156e8565b9150615c3782615bf6565b600282019050919050565b6000819050919050565b615c5d615c58826144fd565b615c42565b82525050565b6000615c6e82615c1f565b9150615c7a8285615c4c565b602082019150615c8a8284615c4c565b6020820191508190509392505050565b7f696e76616c69642f64656c6574656420746f6b656e0000000000000000000000600082015250565b6000615cd0601583615036565b9150615cdb82615c9a565b602082019050919050565b60006020820190508181036000830152615cff81615cc3565b9050919050565b7f496e76616c6964207369676e6174757265206c656e6774680000000000000000600082015250565b6000615d3c601883615036565b9150615d4782615d06565b602082019050919050565b60006020820190508181036000830152615d6b81615d2f565b9050919050565b600060ff82169050919050565b6000615d8a82615d72565b9150615d9583615d72565b9250828201905060ff811115615dae57615dad615570565b5b92915050565b7f496e76616c6964207369676e6174757265207265636f76657279206964000000600082015250565b6000615dea601d83615036565b9150615df582615db4565b602082019050919050565b60006020820190508181036000830152615e1981615ddd565b9050919050565b615e2981615d72565b82525050565b6000608082019050615e446000830187614507565b615e516020830186615e20565b615e5e6040830185614507565b615e6b6060830184614507565b9594505050505056fe454950373132446f6d61696e28737472696e67206e616d652c737472696e672076657273696f6e2c75696e7432353620636861696e49642c6164647265737320766572696679696e67436f6e747261637429a264697066735822122031bc033a3ab960518f23cf00d9ca3e776dd63ef70891b688f5ad379a02547fb164736f6c63430008140033",
  "linkReferences": {
    "contracts/Utils.sol": {
      "Utils": [
        {
          "length": 20,
          "start": 538
        },
        {
          "length": 20,
          "start": 8407
        }
      ]
    }
  },
  "deployedLinkReferences": {
    "contracts/Utils.sol": {
      "Utils": [
        {
          "length": 20,
          "start": 5126
        }
      ]
    }
  }
}