{
  "_format": "hh-sol-artifact-1",
  "contractName": "OAuth",
  "sourceName": "contracts/OAuth.sol",
  "abi": [
    {
      "inputs": [],
      "stateMutability": "nonpayable",
      "type": "constructor"
    },
    {
      "inputs": [
        {
          "internalType": "address",
          "name": "owner",
          "type": "address"
        }
      ],
      "name": "OwnableInvalidOwner",
      "type": "error"
    },
    {
      "inputs": [
        {
          "internalType": "address",
          "name": "account",
          "type": "address"
        }
      ],
      "name": "OwnableUnauthorizedAccount",
      "type": "error"
    },
    {
      "anonymous": false,
      "inputs": [
        {
          "indexed": false,
          "internalType": "uint256",
          "name": "id",
          "type": "uint256"
        },
        {
          "indexed": false,
          "internalType": "string",
          "name": "actionType",
          "type": "string"
        },
        {
          "indexed": true,
          "internalType": "address",
          "name": "executor",
          "type": "address"
        },
        {
          "indexed": false,
          "internalType": "uint256",
          "name": "timestamp",
          "type": "uint256"
        }
      ],
      "name": "CardAction",
      "type": "event"
    },
    {
      "anonymous": false,
      "inputs": [
        {
          "indexed": true,
          "internalType": "address",
          "name": "previousOwner",
          "type": "address"
        },
        {
          "indexed": true,
          "internalType": "address",
          "name": "newOwner",
          "type": "address"
        }
      ],
      "name": "OwnershipTransferred",
      "type": "event"
    },
    {
      "anonymous": false,
      "inputs": [
        {
          "indexed": false,
          "internalType": "uint256",
          "name": "id",
          "type": "uint256"
        },
        {
          "indexed": false,
          "internalType": "string",
          "name": "actionType",
          "type": "string"
        },
        {
          "indexed": true,
          "internalType": "address",
          "name": "executor",
          "type": "address"
        },
        {
          "indexed": false,
          "internalType": "uint256",
          "name": "timestamp",
          "type": "uint256"
        }
      ],
      "name": "ProviderAction",
      "type": "event"
    },
    {
      "anonymous": false,
      "inputs": [
        {
          "indexed": false,
          "internalType": "uint256",
          "name": "id",
          "type": "uint256"
        },
        {
          "indexed": false,
          "internalType": "string",
          "name": "actionType",
          "type": "string"
        },
        {
          "indexed": true,
          "internalType": "address",
          "name": "executor",
          "type": "address"
        },
        {
          "indexed": false,
          "internalType": "uint256",
          "name": "timestamp",
          "type": "uint256"
        }
      ],
      "name": "SessionTokenAction",
      "type": "event"
    },
    {
      "inputs": [
        {
          "internalType": "string",
          "name": "_username",
          "type": "string"
        },
        {
          "internalType": "string",
          "name": "_pfp",
          "type": "string"
        },
        {
          "internalType": "string",
          "name": "_emailAddress",
          "type": "string"
        },
        {
          "internalType": "string",
          "name": "_bio",
          "type": "string"
        }
      ],
      "name": "createCard",
      "outputs": [],
      "stateMutability": "nonpayable",
      "type": "function"
    },
    {
      "inputs": [
        {
          "internalType": "uint256",
          "name": "_cardId",
          "type": "uint256"
        },
        {
          "internalType": "uint256",
          "name": "_dappId",
          "type": "uint256"
        },
        {
          "internalType": "address",
          "name": "_user",
          "type": "address"
        },
        {
          "internalType": "string",
          "name": "_message",
          "type": "string"
        },
        {
          "internalType": "bytes",
          "name": "_signature",
          "type": "bytes"
        }
      ],
      "name": "createSession",
      "outputs": [
        {
          "internalType": "bytes32",
          "name": "",
          "type": "bytes32"
        }
      ],
      "stateMutability": "nonpayable",
      "type": "function"
    },
    {
      "inputs": [
        {
          "internalType": "bytes32",
          "name": "_token",
          "type": "bytes32"
        }
      ],
      "name": "deactivateSessionFromToken",
      "outputs": [],
      "stateMutability": "nonpayable",
      "type": "function"
    },
    {
      "inputs": [
        {
          "internalType": "uint256",
          "name": "_id",
          "type": "uint256"
        }
      ],
      "name": "deleteCard",
      "outputs": [],
      "stateMutability": "nonpayable",
      "type": "function"
    },
    {
      "inputs": [
        {
          "internalType": "uint256",
          "name": "_id",
          "type": "uint256"
        }
      ],
      "name": "deleteDapp",
      "outputs": [],
      "stateMutability": "nonpayable",
      "type": "function"
    },
    {
      "inputs": [
        {
          "internalType": "bytes32",
          "name": "_token",
          "type": "bytes32"
        }
      ],
      "name": "fetchUserInfo",
      "outputs": [
        {
          "components": [
            {
              "internalType": "uint256",
              "name": "id",
              "type": "uint256"
            },
            {
              "internalType": "address",
              "name": "owner",
              "type": "address"
            },
            {
              "internalType": "string",
              "name": "username",
              "type": "string"
            },
            {
              "internalType": "string",
              "name": "pfp",
              "type": "string"
            },
            {
              "internalType": "string",
              "name": "emailAddress",
              "type": "string"
            },
            {
              "internalType": "string",
              "name": "bio",
              "type": "string"
            },
            {
              "internalType": "bool",
              "name": "isDeleted",
              "type": "bool"
            },
            {
              "internalType": "uint256",
              "name": "createdAt",
              "type": "uint256"
            },
            {
              "internalType": "uint256",
              "name": "updatedAt",
              "type": "uint256"
            }
          ],
          "internalType": "struct OAuth.CardStruct",
          "name": "Card",
          "type": "tuple"
        }
      ],
      "stateMutability": "view",
      "type": "function"
    },
    {
      "inputs": [
        {
          "internalType": "uint256",
          "name": "_dappId",
          "type": "uint256"
        }
      ],
      "name": "getDapp",
      "outputs": [
        {
          "components": [
            {
              "internalType": "uint256",
              "name": "id",
              "type": "uint256"
            },
            {
              "internalType": "string",
              "name": "domain",
              "type": "string"
            },
            {
              "internalType": "string",
              "name": "accessToken",
              "type": "string"
            },
            {
              "internalType": "address",
              "name": "owner",
              "type": "address"
            },
            {
              "internalType": "bool",
              "name": "isDeleted",
              "type": "bool"
            },
            {
              "internalType": "uint256",
              "name": "createdAt",
              "type": "uint256"
            },
            {
              "internalType": "uint256",
              "name": "updatedAt",
              "type": "uint256"
            }
          ],
          "internalType": "struct OAuth.ProviderDappStruct",
          "name": "dApp",
          "type": "tuple"
        }
      ],
      "stateMutability": "view",
      "type": "function"
    },
    {
      "inputs": [
        {
          "internalType": "string",
          "name": "_token",
          "type": "string"
        }
      ],
      "name": "getDappFromToken",
      "outputs": [
        {
          "components": [
            {
              "internalType": "uint256",
              "name": "id",
              "type": "uint256"
            },
            {
              "internalType": "string",
              "name": "domain",
              "type": "string"
            },
            {
              "internalType": "string",
              "name": "accessToken",
              "type": "string"
            },
            {
              "internalType": "address",
              "name": "owner",
              "type": "address"
            },
            {
              "internalType": "bool",
              "name": "isDeleted",
              "type": "bool"
            },
            {
              "internalType": "uint256",
              "name": "createdAt",
              "type": "uint256"
            },
            {
              "internalType": "uint256",
              "name": "updatedAt",
              "type": "uint256"
            }
          ],
          "internalType": "struct OAuth.ProviderDappStruct",
          "name": "dApp",
          "type": "tuple"
        }
      ],
      "stateMutability": "view",
      "type": "function"
    },
    {
      "inputs": [
        {
          "internalType": "address",
          "name": "_user",
          "type": "address"
        }
      ],
      "name": "getDapps",
      "outputs": [
        {
          "components": [
            {
              "internalType": "uint256",
              "name": "id",
              "type": "uint256"
            },
            {
              "internalType": "string",
              "name": "domain",
              "type": "string"
            },
            {
              "internalType": "string",
              "name": "accessToken",
              "type": "string"
            },
            {
              "internalType": "address",
              "name": "owner",
              "type": "address"
            },
            {
              "internalType": "bool",
              "name": "isDeleted",
              "type": "bool"
            },
            {
              "internalType": "uint256",
              "name": "createdAt",
              "type": "uint256"
            },
            {
              "internalType": "uint256",
              "name": "updatedAt",
              "type": "uint256"
            }
          ],
          "internalType": "struct OAuth.ProviderDappStruct[]",
          "name": "dApps",
          "type": "tuple[]"
        }
      ],
      "stateMutability": "view",
      "type": "function"
    },
    {
      "inputs": [
        {
          "internalType": "address",
          "name": "_user",
          "type": "address"
        },
        {
          "internalType": "uint256",
          "name": "_cardId",
          "type": "uint256"
        }
      ],
      "name": "getDappsConnectedToCard",
      "outputs": [
        {
          "components": [
            {
              "internalType": "uint256",
              "name": "id",
              "type": "uint256"
            },
            {
              "internalType": "string",
              "name": "domain",
              "type": "string"
            },
            {
              "internalType": "string",
              "name": "accessToken",
              "type": "string"
            },
            {
              "internalType": "address",
              "name": "owner",
              "type": "address"
            },
            {
              "internalType": "bool",
              "name": "isDeleted",
              "type": "bool"
            },
            {
              "internalType": "uint256",
              "name": "createdAt",
              "type": "uint256"
            },
            {
              "internalType": "uint256",
              "name": "updatedAt",
              "type": "uint256"
            }
          ],
          "internalType": "struct OAuth.ProviderDappStruct[]",
          "name": "dApps",
          "type": "tuple[]"
        }
      ],
      "stateMutability": "view",
      "type": "function"
    },
    {
      "inputs": [
        {
          "internalType": "uint256",
          "name": "_cardId",
          "type": "uint256"
        }
      ],
      "name": "getUserCard",
      "outputs": [
        {
          "components": [
            {
              "internalType": "uint256",
              "name": "id",
              "type": "uint256"
            },
            {
              "internalType": "address",
              "name": "owner",
              "type": "address"
            },
            {
              "internalType": "string",
              "name": "username",
              "type": "string"
            },
            {
              "internalType": "string",
              "name": "pfp",
              "type": "string"
            },
            {
              "internalType": "string",
              "name": "emailAddress",
              "type": "string"
            },
            {
              "internalType": "string",
              "name": "bio",
              "type": "string"
            },
            {
              "internalType": "bool",
              "name": "isDeleted",
              "type": "bool"
            },
            {
              "internalType": "uint256",
              "name": "createdAt",
              "type": "uint256"
            },
            {
              "internalType": "uint256",
              "name": "updatedAt",
              "type": "uint256"
            }
          ],
          "internalType": "struct OAuth.CardStruct",
          "name": "Card",
          "type": "tuple"
        }
      ],
      "stateMutability": "view",
      "type": "function"
    },
    {
      "inputs": [
        {
          "internalType": "address",
          "name": "_user",
          "type": "address"
        }
      ],
      "name": "getUserCards",
      "outputs": [
        {
          "components": [
            {
              "internalType": "uint256",
              "name": "id",
              "type": "uint256"
            },
            {
              "internalType": "address",
              "name": "owner",
              "type": "address"
            },
            {
              "internalType": "string",
              "name": "username",
              "type": "string"
            },
            {
              "internalType": "string",
              "name": "pfp",
              "type": "string"
            },
            {
              "internalType": "string",
              "name": "emailAddress",
              "type": "string"
            },
            {
              "internalType": "string",
              "name": "bio",
              "type": "string"
            },
            {
              "internalType": "bool",
              "name": "isDeleted",
              "type": "bool"
            },
            {
              "internalType": "uint256",
              "name": "createdAt",
              "type": "uint256"
            },
            {
              "internalType": "uint256",
              "name": "updatedAt",
              "type": "uint256"
            }
          ],
          "internalType": "struct OAuth.CardStruct[]",
          "name": "Cards",
          "type": "tuple[]"
        }
      ],
      "stateMutability": "view",
      "type": "function"
    },
    {
      "inputs": [
        {
          "internalType": "uint256",
          "name": "_id",
          "type": "uint256"
        },
        {
          "internalType": "string",
          "name": "_domain",
          "type": "string"
        }
      ],
      "name": "modifyDapp",
      "outputs": [],
      "stateMutability": "nonpayable",
      "type": "function"
    },
    {
      "inputs": [],
      "name": "owner",
      "outputs": [
        {
          "internalType": "address",
          "name": "",
          "type": "address"
        }
      ],
      "stateMutability": "view",
      "type": "function"
    },
    {
      "inputs": [
        {
          "internalType": "string",
          "name": "_domain",
          "type": "string"
        },
        {
          "internalType": "string",
          "name": "_accessToken",
          "type": "string"
        }
      ],
      "name": "registerDapp",
      "outputs": [],
      "stateMutability": "nonpayable",
      "type": "function"
    },
    {
      "inputs": [],
      "name": "renounceOwnership",
      "outputs": [],
      "stateMutability": "nonpayable",
      "type": "function"
    },
    {
      "inputs": [
        {
          "internalType": "address",
          "name": "newOwner",
          "type": "address"
        }
      ],
      "name": "transferOwnership",
      "outputs": [],
      "stateMutability": "nonpayable",
      "type": "function"
    },
    {
      "inputs": [
        {
          "internalType": "address",
          "name": "_user",
          "type": "address"
        },
        {
          "internalType": "uint256",
          "name": "_dappId",
          "type": "uint256"
        },
        {
          "internalType": "string",
          "name": "_message",
          "type": "string"
        },
        {
          "internalType": "bytes",
          "name": "_signature",
          "type": "bytes"
        }
      ],
      "name": "triggerLogin",
      "outputs": [
        {
          "internalType": "bytes32",
          "name": "",
          "type": "bytes32"
        },
        {
          "components": [
            {
              "internalType": "uint256",
              "name": "id",
              "type": "uint256"
            },
            {
              "internalType": "address",
              "name": "owner",
              "type": "address"
            },
            {
              "internalType": "string",
              "name": "username",
              "type": "string"
            },
            {
              "internalType": "string",
              "name": "pfp",
              "type": "string"
            },
            {
              "internalType": "string",
              "name": "emailAddress",
              "type": "string"
            },
            {
              "internalType": "string",
              "name": "bio",
              "type": "string"
            },
            {
              "internalType": "bool",
              "name": "isDeleted",
              "type": "bool"
            },
            {
              "internalType": "uint256",
              "name": "createdAt",
              "type": "uint256"
            },
            {
              "internalType": "uint256",
              "name": "updatedAt",
              "type": "uint256"
            }
          ],
          "internalType": "struct OAuth.CardStruct[]",
          "name": "Cards",
          "type": "tuple[]"
        }
      ],
      "stateMutability": "view",
      "type": "function"
    },
    {
      "inputs": [
        {
          "internalType": "uint256",
          "name": "_cardId",
          "type": "uint256"
        },
        {
          "internalType": "string",
          "name": "_username",
          "type": "string"
        },
        {
          "internalType": "string",
          "name": "_pfp",
          "type": "string"
        },
        {
          "internalType": "string",
          "name": "_emailAddress",
          "type": "string"
        },
        {
          "internalType": "string",
          "name": "_bio",
          "type": "string"
        }
      ],
      "name": "updateCard",
      "outputs": [],
      "stateMutability": "nonpayable",
      "type": "function"
    }
  ],
  "bytecode": "0x60806040523480156200001157600080fd5b5033600073ffffffffffffffffffffffffffffffffffffffff168173ffffffffffffffffffffffffffffffffffffffff1603620000885760006040517f1e4fbdf70000000000000000000000000000000000000000000000000000000081526004016200007f9190620001a9565b60405180910390fd5b6200009981620000a060201b60201c565b50620001c6565b60008060009054906101000a900473ffffffffffffffffffffffffffffffffffffffff169050816000806101000a81548173ffffffffffffffffffffffffffffffffffffffff021916908373ffffffffffffffffffffffffffffffffffffffff1602179055508173ffffffffffffffffffffffffffffffffffffffff168173ffffffffffffffffffffffffffffffffffffffff167f8be0079c531659141344cd1fd0a4f28419497f9722a3daafe3b4186f6b6457e060405160405180910390a35050565b600073ffffffffffffffffffffffffffffffffffffffff82169050919050565b6000620001918262000164565b9050919050565b620001a38162000184565b82525050565b6000602082019050620001c0600083018462000198565b92915050565b615a9c80620001d66000396000f3fe608060405234801561001057600080fd5b50600436106101215760003560e01c8063715018a6116100ad578063dd55c1b011610071578063dd55c1b014610317578063e10b79fa14610347578063e247dea814610377578063f2fde38b14610393578063f7c91c03146103af57610121565b8063715018a61461025f57806388d9f40d146102695780638da5cb5b14610299578063a3104eb5146102b7578063c392b0df146102e757610121565b806346d8066e116100f457806346d8066e146101bf57806348bf10c9146101db57806353d85919146101f7578063555f7817146102275780635e1acf651461024357610121565b806306bdd454146101265780630c2ad3f9146101575780631d12aa9b146101735780633901a9081461018f575b600080fd5b610140600480360381019061013b9190613da3565b6103df565b60405161014e9291906140af565b60405180910390f35b610171600480360381019061016c91906140df565b610525565b005b61018d600480360381019061018891906141e2565b610926565b005b6101a960048036038101906101a4919061420f565b61098d565b6040516101b691906142fb565b60405180910390f35b6101d960048036038101906101d4919061431d565b610b93565b005b6101f560048036038101906101f09190614395565b610f70565b005b610211600480360381019061020c9190614480565b611294565b60405161021e91906142fb565b60405180910390f35b610241600480360381019061023c91906144ad565b611474565b005b61025d60048036038101906102589190614480565b61165d565b005b610267611838565b005b610283600480360381019061027e9190614509565b61184c565b6040516102909190614536565b60405180910390f35b6102a1611e99565b6040516102ae9190614567565b60405180910390f35b6102d160048036038101906102cc9190614509565b611ec2565b6040516102de91906146e7565b60405180910390f35b61030160048036038101906102fc9190614709565b6123e2565b60405161030e91906146e7565b60405180910390f35b610331600480360381019061032c9190614749565b6125a8565b60405161033e91906147fc565b60405180910390f35b610361600480360381019061035c9190614480565b612a54565b60405161036e91906148f1565b60405180910390f35b610391600480360381019061038c9190614480565b612d59565b005b6103ad60048036038101906103a89190614509565b612f3d565b005b6103c960048036038101906103c491906141e2565b612fc3565b6040516103d691906148f1565b60405180910390f35b600060606103eb6133af565b604183511461042f576040517f08c379a000000000000000000000000000000000000000000000000000000000815260040161042690614970565b60405180910390fd5b61043a848785613436565b610479576040517f08c379a0000000000000000000000000000000000000000000000000000000008152600401610470906149dc565b60405180910390fd5b60006104858787613494565b9050600081036104aa57600061049a8861184c565b8160001b9150925092505061051c565b6009600082815260200190815260200160002060040154600067ffffffffffffffff8111156104dc576104db613bd7565b5b60405190808252806020026020018201604052801561051557816020015b6105026139fb565b8152602001906001900390816104fa5790505b5092509250505b94509492505050565b6000845111610569576040517f08c379a000000000000000000000000000000000000000000000000000000000815260040161056090614a48565b60405180910390fd5b60008351116105ad576040517f08c379a00000000000000000000000000000000000000000000000000000000081526004016105a490614ab4565b60405180910390fd5b60008251116105f1576040517f08c379a00000000000000000000000000000000000000000000000000000000081526004016105e890614b20565b60405180910390fd5b6000815111610635576040517f08c379a000000000000000000000000000000000000000000000000000000000815260040161062c90614b8c565b60405180910390fd5b61063d6139fb565b60016000815461064c90614bdb565b91905081905581600001818152505084816040018190525033816020019073ffffffffffffffffffffffffffffffffffffffff16908173ffffffffffffffffffffffffffffffffffffffff1681525050838160600181905250828160800181905250818160a001819052506106bf6135cc565b8160e00181815250506106d06135cc565b816101000181815250508060056000836000015181526020019081526020016000206000820151816000015560208201518160010160006101000a81548173ffffffffffffffffffffffffffffffffffffffff021916908373ffffffffffffffffffffffffffffffffffffffff16021790555060408201518160020190816107589190614e2f565b50606082015181600301908161076e9190614e2f565b5060808201518160040190816107849190614e2f565b5060a082015181600501908161079a9190614e2f565b5060c08201518160060160006101000a81548160ff02191690831515021790555060e0820151816007015561010082015181600801559050506001600460008360000151815260200190815260200160002060006101000a81548160ff021916908315150217905550600660003373ffffffffffffffffffffffffffffffffffffffff1673ffffffffffffffffffffffffffffffffffffffff168152602001908152602001600020816000015190806001815401808255809150506001900390600052602060002001600090919091909150556001600760003373ffffffffffffffffffffffffffffffffffffffff1673ffffffffffffffffffffffffffffffffffffffff16815260200190815260200160002060008282546108bd9190614f01565b925050819055503373ffffffffffffffffffffffffffffffffffffffff167ff8d4d3ff62faf01eaf82f3b586f2fbeb141edb1f566b539ee6ae9df44fdb6c6b82600001516109096135cc565b604051610917929190614f90565b60405180910390a25050505050565b61092e6133af565b6000610939826135ec565b03610979576040517f08c379a00000000000000000000000000000000000000000000000000000000081526004016109709061503e565b60405180910390fd5b61098a610985826135ec565b613663565b50565b610995613a5f565b61099d6133af565b600f60006010846040516109b1919061509a565b90815260200160405180910390205481526020019081526020016000206040518060e0016040529081600082015481526020016001820180546109f390614c52565b80601f0160208091040260200160405190810160405280929190818152602001828054610a1f90614c52565b8015610a6c5780601f10610a4157610100808354040283529160200191610a6c565b820191906000526020600020905b815481529060010190602001808311610a4f57829003601f168201915b50505050508152602001600282018054610a8590614c52565b80601f0160208091040260200160405190810160405280929190818152602001828054610ab190614c52565b8015610afe5780601f10610ad357610100808354040283529160200191610afe565b820191906000526020600020905b815481529060010190602001808311610ae157829003601f168201915b505050505081526020016003820160009054906101000a900473ffffffffffffffffffffffffffffffffffffffff1673ffffffffffffffffffffffffffffffffffffffff1673ffffffffffffffffffffffffffffffffffffffff1681526020016003820160149054906101000a900460ff16151515158152602001600482015481526020016005820154815250509050919050565b6000825111610bd7576040517f08c379a0000000000000000000000000000000000000000000000000000000008152600401610bce906150fd565b60405180910390fd5b6000815111610c1b576040517f08c379a0000000000000000000000000000000000000000000000000000000008152600401610c1290615169565b60405180910390fd5b600e6000601083604051610c2f919061509a565b908152602001604051809103902054815260200190815260200160002060009054906101000a900460ff1615610c9a576040517f08c379a0000000000000000000000000000000000000000000000000000000008152600401610c91906151fb565b60405180910390fd5b610ca2613a5f565b600260008154610cb190614bdb565b91905081905581600001818152505082816020018190525081816040018190525033816060019073ffffffffffffffffffffffffffffffffffffffff16908173ffffffffffffffffffffffffffffffffffffffff1681525050610d126135cc565b8160a0018181525050610d236135cc565b8160c001818152505080600f600083600001518152602001908152602001600020600082015181600001556020820151816001019081610d639190614e2f565b506040820151816002019081610d799190614e2f565b5060608201518160030160006101000a81548173ffffffffffffffffffffffffffffffffffffffff021916908373ffffffffffffffffffffffffffffffffffffffff16021790555060808201518160030160146101000a81548160ff02191690831515021790555060a0820151816004015560c082015181600501559050506001600e60008360000151815260200190815260200160002060006101000a81548160ff0219169083151502179055508060000151601083604051610e3d919061509a565b908152602001604051809103902081905550601160003373ffffffffffffffffffffffffffffffffffffffff1673ffffffffffffffffffffffffffffffffffffffff168152602001908152602001600020816000015190806001815401808255809150506001900390600052602060002001600090919091909150556001601260003373ffffffffffffffffffffffffffffffffffffffff1673ffffffffffffffffffffffffffffffffffffffff1681526020019081526020016000206000828254610f099190614f01565b925050819055503373ffffffffffffffffffffffffffffffffffffffff167fcf40bd3705e373a5f70135f1d9765c2d97154b94b433601f78a9572c576571248260000151610f556135cc565b604051610f63929190615267565b60405180910390a2505050565b6004600086815260200190815260200160002060009054906101000a900460ff16610fd0576040517f08c379a0000000000000000000000000000000000000000000000000000000008152600401610fc7906152ef565b60405180910390fd5b3373ffffffffffffffffffffffffffffffffffffffff166005600087815260200190815260200160002060010160009054906101000a900473ffffffffffffffffffffffffffffffffffffffff1673ffffffffffffffffffffffffffffffffffffffff1614611074576040517f08c379a000000000000000000000000000000000000000000000000000000000815260040161106b9061535b565b60405180910390fd5b60008451116110b8576040517f08c379a00000000000000000000000000000000000000000000000000000000081526004016110af90614a48565b60405180910390fd5b60008351116110fc576040517f08c379a00000000000000000000000000000000000000000000000000000000081526004016110f390614ab4565b60405180910390fd5b6000825111611140576040517f08c379a000000000000000000000000000000000000000000000000000000000815260040161113790614b20565b60405180910390fd5b6000815111611184576040517f08c379a000000000000000000000000000000000000000000000000000000000815260040161117b90614b8c565b60405180910390fd5b836005600087815260200190815260200160002060020190816111a79190614e2f565b50826005600087815260200190815260200160002060030190816111cb9190614e2f565b50816005600087815260200190815260200160002060040190816111ef9190614e2f565b50806005600087815260200190815260200160002060050190816112139190614e2f565b5061121c6135cc565b60056000878152602001908152602001600020600801819055503373ffffffffffffffffffffffffffffffffffffffff167ff8d4d3ff62faf01eaf82f3b586f2fbeb141edb1f566b539ee6ae9df44fdb6c6b866112776135cc565b6040516112859291906153c7565b60405180910390a25050505050565b61129c613a5f565b600f60008381526020019081526020016000206040518060e0016040529081600082015481526020016001820180546112d490614c52565b80601f016020809104026020016040519081016040528092919081815260200182805461130090614c52565b801561134d5780601f106113225761010080835404028352916020019161134d565b820191906000526020600020905b81548152906001019060200180831161133057829003601f168201915b5050505050815260200160028201805461136690614c52565b80601f016020809104026020016040519081016040528092919081815260200182805461139290614c52565b80156113df5780601f106113b4576101008083540402835291602001916113df565b820191906000526020600020905b8154815290600101906020018083116113c257829003601f168201915b505050505081526020016003820160009054906101000a900473ffffffffffffffffffffffffffffffffffffffff1673ffffffffffffffffffffffffffffffffffffffff1673ffffffffffffffffffffffffffffffffffffffff1681526020016003820160149054906101000a900460ff16151515158152602001600482015481526020016005820154815250509050919050565b600e600083815260200190815260200160002060009054906101000a900460ff166114d4576040517f08c379a00000000000000000000000000000000000000000000000000000000081526004016114cb9061544f565b60405180910390fd5b3373ffffffffffffffffffffffffffffffffffffffff16600f600084815260200190815260200160002060030160009054906101000a900473ffffffffffffffffffffffffffffffffffffffff1673ffffffffffffffffffffffffffffffffffffffff1614611578576040517f08c379a000000000000000000000000000000000000000000000000000000000815260040161156f9061535b565b60405180910390fd5b60008151116115bc576040517f08c379a00000000000000000000000000000000000000000000000000000000081526004016115b3906150fd565b60405180910390fd5b80600f600084815260200190815260200160002060010190816115df9190614e2f565b506115e86135cc565b600f6000848152602001908152602001600020600501819055503373ffffffffffffffffffffffffffffffffffffffff167fcf40bd3705e373a5f70135f1d9765c2d97154b94b433601f78a9572c57657124836116436135cc565b6040516116519291906154bb565b60405180910390a25050565b6004600082815260200190815260200160002060009054906101000a900460ff166116bd576040517f08c379a00000000000000000000000000000000000000000000000000000000081526004016116b4906152ef565b60405180910390fd5b3373ffffffffffffffffffffffffffffffffffffffff166005600083815260200190815260200160002060010160009054906101000a900473ffffffffffffffffffffffffffffffffffffffff1673ffffffffffffffffffffffffffffffffffffffff1614611761576040517f08c379a00000000000000000000000000000000000000000000000000000000081526004016117589061535b565b60405180910390fd5b60006004600083815260200190815260200160002060006101000a81548160ff02191690831515021790555060016005600083815260200190815260200160002060060160006101000a81548160ff0219169083151502179055506117c46135cc565b60056000838152602001908152602001600020600801819055503373ffffffffffffffffffffffffffffffffffffffff167ff8d4d3ff62faf01eaf82f3b586f2fbeb141edb1f566b539ee6ae9df44fdb6c6b8261181f6135cc565b60405161182d929190615543565b60405180910390a250565b6118406133af565b61184a600061373a565b565b60606118566133af565b600080600090505b600760008573ffffffffffffffffffffffffffffffffffffffff1673ffffffffffffffffffffffffffffffffffffffff168152602001908152602001600020548110156119bf576000600660008673ffffffffffffffffffffffffffffffffffffffff1673ffffffffffffffffffffffffffffffffffffffff16815260200190815260200160002082815481106118f8576118f761557f565b5b906000526020600020015490508473ffffffffffffffffffffffffffffffffffffffff166005600083815260200190815260200160002060010160009054906101000a900473ffffffffffffffffffffffffffffffffffffffff1673ffffffffffffffffffffffffffffffffffffffff1614801561199757506005600082815260200190815260200160002060060160009054906101000a900460ff16155b156119ab5782806119a790614bdb565b9350505b5080806119b790614bdb565b91505061185e565b508067ffffffffffffffff8111156119da576119d9613bd7565b5b604051908082528060200260200182016040528015611a1357816020015b611a006139fb565b8152602001906001900390816119f85790505b509150600080600090505b600760008673ffffffffffffffffffffffffffffffffffffffff1673ffffffffffffffffffffffffffffffffffffffff16815260200190815260200160002054811015611e91576000600660008773ffffffffffffffffffffffffffffffffffffffff1673ffffffffffffffffffffffffffffffffffffffff1681526020019081526020016000208281548110611ab857611ab761557f565b5b906000526020600020015490508573ffffffffffffffffffffffffffffffffffffffff166005600083815260200190815260200160002060010160009054906101000a900473ffffffffffffffffffffffffffffffffffffffff1673ffffffffffffffffffffffffffffffffffffffff16148015611b5757506005600082815260200190815260200160002060060160009054906101000a900460ff16155b15611e7d576005600082815260200190815260200160002060405180610120016040529081600082015481526020016001820160009054906101000a900473ffffffffffffffffffffffffffffffffffffffff1673ffffffffffffffffffffffffffffffffffffffff1673ffffffffffffffffffffffffffffffffffffffff168152602001600282018054611beb90614c52565b80601f0160208091040260200160405190810160405280929190818152602001828054611c1790614c52565b8015611c645780601f10611c3957610100808354040283529160200191611c64565b820191906000526020600020905b815481529060010190602001808311611c4757829003601f168201915b50505050508152602001600382018054611c7d90614c52565b80601f0160208091040260200160405190810160405280929190818152602001828054611ca990614c52565b8015611cf65780601f10611ccb57610100808354040283529160200191611cf6565b820191906000526020600020905b815481529060010190602001808311611cd957829003601f168201915b50505050508152602001600482018054611d0f90614c52565b80601f0160208091040260200160405190810160405280929190818152602001828054611d3b90614c52565b8015611d885780601f10611d5d57610100808354040283529160200191611d88565b820191906000526020600020905b815481529060010190602001808311611d6b57829003601f168201915b50505050508152602001600582018054611da190614c52565b80601f0160208091040260200160405190810160405280929190818152602001828054611dcd90614c52565b8015611e1a5780601f10611def57610100808354040283529160200191611e1a565b820191906000526020600020905b815481529060010190602001808311611dfd57829003601f168201915b505050505081526020016006820160009054906101000a900460ff1615151515815260200160078201548152602001600882015481525050858480611e5e90614bdb565b955081518110611e7157611e7061557f565b5b60200260200101819052505b508080611e8990614bdb565b915050611a1e565b505050919050565b60008060009054906101000a900473ffffffffffffffffffffffffffffffffffffffff16905090565b6060600080600090505b601260008573ffffffffffffffffffffffffffffffffffffffff1673ffffffffffffffffffffffffffffffffffffffff1681526020019081526020016000205481101561202d576000601160008673ffffffffffffffffffffffffffffffffffffffff1673ffffffffffffffffffffffffffffffffffffffff1681526020019081526020016000208281548110611f6657611f6561557f565b5b906000526020600020015490508473ffffffffffffffffffffffffffffffffffffffff16600f600083815260200190815260200160002060030160009054906101000a900473ffffffffffffffffffffffffffffffffffffffff1673ffffffffffffffffffffffffffffffffffffffff161480156120055750600f600082815260200190815260200160002060030160149054906101000a900460ff16155b1561201957828061201590614bdb565b9350505b50808061202590614bdb565b915050611ecc565b508067ffffffffffffffff81111561204857612047613bd7565b5b60405190808252806020026020018201604052801561208157816020015b61206e613a5f565b8152602001906001900390816120665790505b509150600080600090505b601260008673ffffffffffffffffffffffffffffffffffffffff1673ffffffffffffffffffffffffffffffffffffffff168152602001908152602001600020548110156123da576000601160008773ffffffffffffffffffffffffffffffffffffffff1673ffffffffffffffffffffffffffffffffffffffff16815260200190815260200160002082815481106121265761212561557f565b5b906000526020600020015490508573ffffffffffffffffffffffffffffffffffffffff16600f600083815260200190815260200160002060030160009054906101000a900473ffffffffffffffffffffffffffffffffffffffff1673ffffffffffffffffffffffffffffffffffffffff161480156121c55750600f600082815260200190815260200160002060030160149054906101000a900460ff16155b156123c657600f60008281526020019081526020016000206040518060e00160405290816000820154815260200160018201805461220290614c52565b80601f016020809104026020016040519081016040528092919081815260200182805461222e90614c52565b801561227b5780601f106122505761010080835404028352916020019161227b565b820191906000526020600020905b81548152906001019060200180831161225e57829003601f168201915b5050505050815260200160028201805461229490614c52565b80601f01602080910402602001604051908101604052809291908181526020018280546122c090614c52565b801561230d5780601f106122e25761010080835404028352916020019161230d565b820191906000526020600020905b8154815290600101906020018083116122f057829003601f168201915b505050505081526020016003820160009054906101000a900473ffffffffffffffffffffffffffffffffffffffff1673ffffffffffffffffffffffffffffffffffffffff1673ffffffffffffffffffffffffffffffffffffffff1681526020016003820160149054906101000a900460ff16151515158152602001600482015481526020016005820154815250508584806123a790614bdb565b9550815181106123ba576123b961557f565b5b60200260200101819052505b5080806123d290614bdb565b91505061208c565b505050919050565b6060600080600090505b600d60008581526020019081526020016000208054905081101561246c57600061244586600d600088815260200190815260200160002084815481106124355761243461557f565b5b9060005260206000200154613494565b1461245957818061245590614bdb565b9250505b808061246490614bdb565b9150506123ec565b508067ffffffffffffffff81111561248757612486613bd7565b5b6040519080825280602002602001820160405280156124c057816020015b6124ad613a5f565b8152602001906001900390816124a55790505b509150600080600090505b600d60008681526020019081526020016000208054905081101561259f57600061252487600d600089815260200190815260200160002084815481106125145761251361557f565b5b9060005260206000200154613494565b1461258c57612561600d600087815260200190815260200160002082815481106125515761255061557f565b5b9060005260206000200154611294565b84838061256d90614bdb565b9450815181106125805761257f61557f565b5b60200260200101819052505b808061259790614bdb565b9150506124cb565b50505092915050565b60006125b26133af565b6004600087815260200190815260200160002060009054906101000a900460ff16612612576040517f08c379a0000000000000000000000000000000000000000000000000000000008152600401612609906155fa565b60405180910390fd5b8373ffffffffffffffffffffffffffffffffffffffff166005600088815260200190815260200160002060010160009054906101000a900473ffffffffffffffffffffffffffffffffffffffff1673ffffffffffffffffffffffffffffffffffffffff16146126b6576040517f08c379a00000000000000000000000000000000000000000000000000000000081526004016126ad90615666565b60405180910390fd5b600e600086815260200190815260200160002060009054906101000a900460ff16612716576040517f08c379a000000000000000000000000000000000000000000000000000000000815260040161270d9061544f565b60405180910390fd5b612721838584613436565b612760576040517f08c379a0000000000000000000000000000000000000000000000000000000008152600401612757906149dc565b60405180910390fd5b6000868587604051602001612777939291906156ef565b604051602081830303815290604052805190602001209050612797613ab4565b6003600081546127a690614bdb565b919050819055816000018181525050878160200181815250508681604001818152505085816060019073ffffffffffffffffffffffffffffffffffffffff16908173ffffffffffffffffffffffffffffffffffffffff16815250508181608001818152505060018160a00190151590811515815250506128246135cc565b8160c00181815250506128356135cc565b8160e001818152505080600960008360000151815260200190815260200160002060008201518160000155602082015181600101556040820151816002015560608201518160030160006101000a81548173ffffffffffffffffffffffffffffffffffffffff021916908373ffffffffffffffffffffffffffffffffffffffff1602179055506080820151816004015560a08201518160050160006101000a81548160ff02191690831515021790555060c0820151816006015560e082015181600701559050506001600860008360000151815260200190815260200160002060006101000a81548160ff021916908315150217905550600b6000888152602001908152602001600020816000015190806001815401808255809150506001900390600052602060002001600090919091909150556001600c6000898152602001908152602001600020600082825461298e9190614f01565b925050819055508060000151600a600084815260200190815260200160002081905550600d60008981526020019081526020016000208790806001815401808255809150506001900390600052602060002001600090919091909150553373ffffffffffffffffffffffffffffffffffffffff167fe63a460b8dabeb604b9976b03437e24ba6d9e603af187bb174d50ce4f6b302298260000151612a306135cc565b604051612a3e929190615778565b60405180910390a2819250505095945050505050565b612a5c6139fb565b6005600083815260200190815260200160002060405180610120016040529081600082015481526020016001820160009054906101000a900473ffffffffffffffffffffffffffffffffffffffff1673ffffffffffffffffffffffffffffffffffffffff1673ffffffffffffffffffffffffffffffffffffffff168152602001600282018054612aeb90614c52565b80601f0160208091040260200160405190810160405280929190818152602001828054612b1790614c52565b8015612b645780601f10612b3957610100808354040283529160200191612b64565b820191906000526020600020905b815481529060010190602001808311612b4757829003601f168201915b50505050508152602001600382018054612b7d90614c52565b80601f0160208091040260200160405190810160405280929190818152602001828054612ba990614c52565b8015612bf65780601f10612bcb57610100808354040283529160200191612bf6565b820191906000526020600020905b815481529060010190602001808311612bd957829003601f168201915b50505050508152602001600482018054612c0f90614c52565b80601f0160208091040260200160405190810160405280929190818152602001828054612c3b90614c52565b8015612c885780601f10612c5d57610100808354040283529160200191612c88565b820191906000526020600020905b815481529060010190602001808311612c6b57829003601f168201915b50505050508152602001600582018054612ca190614c52565b80601f0160208091040260200160405190810160405280929190818152602001828054612ccd90614c52565b8015612d1a5780601f10612cef57610100808354040283529160200191612d1a565b820191906000526020600020905b815481529060010190602001808311612cfd57829003601f168201915b505050505081526020016006820160009054906101000a900460ff16151515158152602001600782015481526020016008820154815250509050919050565b600e600082815260200190815260200160002060009054906101000a900460ff16612db9576040517f08c379a0000000000000000000000000000000000000000000000000000000008152600401612db09061544f565b60405180910390fd5b3373ffffffffffffffffffffffffffffffffffffffff16600f600083815260200190815260200160002060030160009054906101000a900473ffffffffffffffffffffffffffffffffffffffff1673ffffffffffffffffffffffffffffffffffffffff1614612e5d576040517f08c379a0000000000000000000000000000000000000000000000000000000008152600401612e549061535b565b60405180910390fd5b6000600e600083815260200190815260200160002060006101000a81548160ff0219169083151502179055506001600f600083815260200190815260200160002060030160146101000a81548160ff021916908315150217905550612ec06135cc565b600f600083815260200190815260200160002060050181905550612ee3816137fe565b3373ffffffffffffffffffffffffffffffffffffffff167fcf40bd3705e373a5f70135f1d9765c2d97154b94b433601f78a9572c5765712482612f246135cc565b604051612f32929190615800565b60405180910390a250565b612f456133af565b600073ffffffffffffffffffffffffffffffffffffffff168173ffffffffffffffffffffffffffffffffffffffff1603612fb75760006040517f1e4fbdf7000000000000000000000000000000000000000000000000000000008152600401612fae9190614567565b60405180910390fd5b612fc08161373a565b50565b612fcb6139fb565b6000612fd6836135ec565b03613016576040517f08c379a000000000000000000000000000000000000000000000000000000000815260040161300d9061503e565b60405180910390fd5b6004600060096000613027866135ec565b815260200190815260200160002060010154815260200190815260200160002060009054906101000a900460ff16613094576040517f08c379a000000000000000000000000000000000000000000000000000000000815260040161308b90615888565b60405180910390fd5b60056000600960006130a5866135ec565b815260200190815260200160002060010154815260200190815260200160002060405180610120016040529081600082015481526020016001820160009054906101000a900473ffffffffffffffffffffffffffffffffffffffff1673ffffffffffffffffffffffffffffffffffffffff1673ffffffffffffffffffffffffffffffffffffffff16815260200160028201805461314190614c52565b80601f016020809104026020016040519081016040528092919081815260200182805461316d90614c52565b80156131ba5780601f1061318f576101008083540402835291602001916131ba565b820191906000526020600020905b81548152906001019060200180831161319d57829003601f168201915b505050505081526020016003820180546131d390614c52565b80601f01602080910402602001604051908101604052809291908181526020018280546131ff90614c52565b801561324c5780601f106132215761010080835404028352916020019161324c565b820191906000526020600020905b81548152906001019060200180831161322f57829003601f168201915b5050505050815260200160048201805461326590614c52565b80601f016020809104026020016040519081016040528092919081815260200182805461329190614c52565b80156132de5780601f106132b3576101008083540402835291602001916132de565b820191906000526020600020905b8154815290600101906020018083116132c157829003601f168201915b505050505081526020016005820180546132f790614c52565b80601f016020809104026020016040519081016040528092919081815260200182805461332390614c52565b80156133705780601f1061334557610100808354040283529160200191613370565b820191906000526020600020905b81548152906001019060200180831161335357829003601f168201915b505050505081526020016006820160009054906101000a900460ff16151515158152602001600782015481526020016008820154815250509050919050565b6133b76138bc565b73ffffffffffffffffffffffffffffffffffffffff166133d5611e99565b73ffffffffffffffffffffffffffffffffffffffff1614613434576133f86138bc565b6040517f118cdaa700000000000000000000000000000000000000000000000000000000815260040161342b9190614567565b60405180910390fd5b565b600080613442856138c4565b9050600061344f826138f4565b90508473ffffffffffffffffffffffffffffffffffffffff166134728286613924565b73ffffffffffffffffffffffffffffffffffffffff1614925050509392505050565b600080600090505b600c6000848152602001908152602001600020548110156135c0576000600b600085815260200190815260200160002082815481106134de576134dd61557f565b5b906000526020600020015490508473ffffffffffffffffffffffffffffffffffffffff166009600083815260200190815260200160002060030160009054906101000a900473ffffffffffffffffffffffffffffffffffffffff1673ffffffffffffffffffffffffffffffffffffffff1614801561357c57506009600082815260200190815260200160002060050160009054906101000a900460ff165b801561359d5750836009600083815260200190815260200160002060020154145b156135ac5780925050506135c6565b5080806135b890614bdb565b91505061349c565b50600090505b92915050565b60006103e880426135dd91906158a8565b6135e79190614f01565b905090565b600080600a60008481526020019081526020016000205490506009600082815260200190815260200160002060050160009054906101000a900460ff16801561364a5750826009600083815260200190815260200160002060040154145b15613658578091505061365e565b60009150505b919050565b60006009600083815260200190815260200160002060050160006101000a81548160ff02191690831515021790555061369a6135cc565b600960008381526020019081526020016000206007018190555060006008600083815260200190815260200160002060006101000a81548160ff0219169083151502179055503373ffffffffffffffffffffffffffffffffffffffff167fe63a460b8dabeb604b9976b03437e24ba6d9e603af187bb174d50ce4f6b30229826137216135cc565b60405161372f929190615936565b60405180910390a250565b60008060009054906101000a900473ffffffffffffffffffffffffffffffffffffffff169050816000806101000a81548173ffffffffffffffffffffffffffffffffffffffff021916908373ffffffffffffffffffffffffffffffffffffffff1602179055508173ffffffffffffffffffffffffffffffffffffffff168173ffffffffffffffffffffffffffffffffffffffff167f8be0079c531659141344cd1fd0a4f28419497f9722a3daafe3b4186f6b6457e060405160405180910390a35050565b60005b600c6000838152602001908152602001600020548110156138b8576000600b600084815260200190815260200160002082815481106138435761384261557f565b5b9060005260206000200154905082600960008381526020019081526020016000206002015414801561389557506009600082815260200190815260200160002060050160009054906101000a900460ff165b156138a4576138a381613663565b5b5080806138b090614bdb565b915050613801565b5050565b600033905090565b6000816040516020016138d7919061509a565b604051602081830303815290604052805190602001209050919050565b60008160405160200161390791906159df565b604051602081830303815290604052805190602001209050919050565b60008060008061393385613993565b9250925092506001868285856040516000815260200160405260405161395c9493929190615a21565b6020604051602081039080840390855afa15801561397e573d6000803e3d6000fd5b50505060206040510351935050505092915050565b600080600060418451146139dc576040517f08c379a00000000000000000000000000000000000000000000000000000000081526004016139d390614970565b60405180910390fd5b6020840151925060408401519150606084015160001a90509193909250565b60405180610120016040528060008152602001600073ffffffffffffffffffffffffffffffffffffffff1681526020016060815260200160608152602001606081526020016060815260200160001515815260200160008152602001600081525090565b6040518060e00160405280600081526020016060815260200160608152602001600073ffffffffffffffffffffffffffffffffffffffff16815260200160001515815260200160008152602001600081525090565b604051806101000160405280600081526020016000815260200160008152602001600073ffffffffffffffffffffffffffffffffffffffff1681526020016000801916815260200160001515815260200160008152602001600081525090565b6000604051905090565b600080fd5b600080fd5b600073ffffffffffffffffffffffffffffffffffffffff82169050919050565b6000613b5382613b28565b9050919050565b613b6381613b48565b8114613b6e57600080fd5b50565b600081359050613b8081613b5a565b92915050565b6000819050919050565b613b9981613b86565b8114613ba457600080fd5b50565b600081359050613bb681613b90565b92915050565b600080fd5b600080fd5b6000601f19601f8301169050919050565b7f4e487b7100000000000000000000000000000000000000000000000000000000600052604160045260246000fd5b613c0f82613bc6565b810181811067ffffffffffffffff82111715613c2e57613c2d613bd7565b5b80604052505050565b6000613c41613b14565b9050613c4d8282613c06565b919050565b600067ffffffffffffffff821115613c6d57613c6c613bd7565b5b613c7682613bc6565b9050602081019050919050565b82818337600083830152505050565b6000613ca5613ca084613c52565b613c37565b905082815260208101848484011115613cc157613cc0613bc1565b5b613ccc848285613c83565b509392505050565b600082601f830112613ce957613ce8613bbc565b5b8135613cf9848260208601613c92565b91505092915050565b600067ffffffffffffffff821115613d1d57613d1c613bd7565b5b613d2682613bc6565b9050602081019050919050565b6000613d46613d4184613d02565b613c37565b905082815260208101848484011115613d6257613d61613bc1565b5b613d6d848285613c83565b509392505050565b600082601f830112613d8a57613d89613bbc565b5b8135613d9a848260208601613d33565b91505092915050565b60008060008060808587031215613dbd57613dbc613b1e565b5b6000613dcb87828801613b71565b9450506020613ddc87828801613ba7565b935050604085013567ffffffffffffffff811115613dfd57613dfc613b23565b5b613e0987828801613cd4565b925050606085013567ffffffffffffffff811115613e2a57613e29613b23565b5b613e3687828801613d75565b91505092959194509250565b6000819050919050565b613e5581613e42565b82525050565b600081519050919050565b600082825260208201905092915050565b6000819050602082019050919050565b613e9081613b86565b82525050565b613e9f81613b48565b82525050565b600081519050919050565b600082825260208201905092915050565b60005b83811015613edf578082015181840152602081019050613ec4565b60008484015250505050565b6000613ef682613ea5565b613f008185613eb0565b9350613f10818560208601613ec1565b613f1981613bc6565b840191505092915050565b60008115159050919050565b613f3981613f24565b82525050565b600061012083016000830151613f586000860182613e87565b506020830151613f6b6020860182613e96565b5060408301518482036040860152613f838282613eeb565b91505060608301518482036060860152613f9d8282613eeb565b91505060808301518482036080860152613fb78282613eeb565b91505060a083015184820360a0860152613fd18282613eeb565b91505060c0830151613fe660c0860182613f30565b5060e0830151613ff960e0860182613e87565b5061010083015161400e610100860182613e87565b508091505092915050565b60006140258383613f3f565b905092915050565b6000602082019050919050565b600061404582613e5b565b61404f8185613e66565b93508360208202850161406185613e77565b8060005b8581101561409d578484038952815161407e8582614019565b94506140898361402d565b925060208a01995050600181019050614065565b50829750879550505050505092915050565b60006040820190506140c46000830185613e4c565b81810360208301526140d6818461403a565b90509392505050565b600080600080608085870312156140f9576140f8613b1e565b5b600085013567ffffffffffffffff81111561411757614116613b23565b5b61412387828801613cd4565b945050602085013567ffffffffffffffff81111561414457614143613b23565b5b61415087828801613cd4565b935050604085013567ffffffffffffffff81111561417157614170613b23565b5b61417d87828801613cd4565b925050606085013567ffffffffffffffff81111561419e5761419d613b23565b5b6141aa87828801613cd4565b91505092959194509250565b6141bf81613e42565b81146141ca57600080fd5b50565b6000813590506141dc816141b6565b92915050565b6000602082840312156141f8576141f7613b1e565b5b6000614206848285016141cd565b91505092915050565b60006020828403121561422557614224613b1e565b5b600082013567ffffffffffffffff81111561424357614242613b23565b5b61424f84828501613cd4565b91505092915050565b600060e0830160008301516142706000860182613e87565b50602083015184820360208601526142888282613eeb565b915050604083015184820360408601526142a28282613eeb565b91505060608301516142b76060860182613e96565b5060808301516142ca6080860182613f30565b5060a08301516142dd60a0860182613e87565b5060c08301516142f060c0860182613e87565b508091505092915050565b600060208201905081810360008301526143158184614258565b905092915050565b6000806040838503121561433457614333613b1e565b5b600083013567ffffffffffffffff81111561435257614351613b23565b5b61435e85828601613cd4565b925050602083013567ffffffffffffffff81111561437f5761437e613b23565b5b61438b85828601613cd4565b9150509250929050565b600080600080600060a086880312156143b1576143b0613b1e565b5b60006143bf88828901613ba7565b955050602086013567ffffffffffffffff8111156143e0576143df613b23565b5b6143ec88828901613cd4565b945050604086013567ffffffffffffffff81111561440d5761440c613b23565b5b61441988828901613cd4565b935050606086013567ffffffffffffffff81111561443a57614439613b23565b5b61444688828901613cd4565b925050608086013567ffffffffffffffff81111561446757614466613b23565b5b61447388828901613cd4565b9150509295509295909350565b60006020828403121561449657614495613b1e565b5b60006144a484828501613ba7565b91505092915050565b600080604083850312156144c4576144c3613b1e565b5b60006144d285828601613ba7565b925050602083013567ffffffffffffffff8111156144f3576144f2613b23565b5b6144ff85828601613cd4565b9150509250929050565b60006020828403121561451f5761451e613b1e565b5b600061452d84828501613b71565b91505092915050565b60006020820190508181036000830152614550818461403a565b905092915050565b61456181613b48565b82525050565b600060208201905061457c6000830184614558565b92915050565b600081519050919050565b600082825260208201905092915050565b6000819050602082019050919050565b600060e0830160008301516145c66000860182613e87565b50602083015184820360208601526145de8282613eeb565b915050604083015184820360408601526145f88282613eeb565b915050606083015161460d6060860182613e96565b5060808301516146206080860182613f30565b5060a083015161463360a0860182613e87565b5060c083015161464660c0860182613e87565b508091505092915050565b600061465d83836145ae565b905092915050565b6000602082019050919050565b600061467d82614582565b614687818561458d565b9350836020820285016146998561459e565b8060005b858110156146d557848403895281516146b68582614651565b94506146c183614665565b925060208a0199505060018101905061469d565b50829750879550505050505092915050565b600060208201905081810360008301526147018184614672565b905092915050565b600080604083850312156147205761471f613b1e565b5b600061472e85828601613b71565b925050602061473f85828601613ba7565b9150509250929050565b600080600080600060a0868803121561476557614764613b1e565b5b600061477388828901613ba7565b955050602061478488828901613ba7565b945050604061479588828901613b71565b935050606086013567ffffffffffffffff8111156147b6576147b5613b23565b5b6147c288828901613cd4565b925050608086013567ffffffffffffffff8111156147e3576147e2613b23565b5b6147ef88828901613d75565b9150509295509295909350565b60006020820190506148116000830184613e4c565b92915050565b6000610120830160008301516148306000860182613e87565b5060208301516148436020860182613e96565b506040830151848203604086015261485b8282613eeb565b915050606083015184820360608601526148758282613eeb565b9150506080830151848203608086015261488f8282613eeb565b91505060a083015184820360a08601526148a98282613eeb565b91505060c08301516148be60c0860182613f30565b5060e08301516148d160e0860182613e87565b506101008301516148e6610100860182613e87565b508091505092915050565b6000602082019050818103600083015261490b8184614817565b905092915050565b600082825260208201905092915050565b7f496e76616c6964207369676e6174757265206c656e6774680000000000000000600082015250565b600061495a601883614913565b915061496582614924565b602082019050919050565b600060208201905081810360008301526149898161494d565b9050919050565b7f556e61626c6520746f2076616c6964617465207369676e617475726500000000600082015250565b60006149c6601c83614913565b91506149d182614990565b602082019050919050565b600060208201905081810360008301526149f5816149b9565b9050919050565b7f557365726e616d65206d757374206e6f7420626520656d707479000000000000600082015250565b6000614a32601a83614913565b9150614a3d826149fc565b602082019050919050565b60006020820190508181036000830152614a6181614a25565b9050919050565b7f504650206d757374206e6f7420626520656d7074790000000000000000000000600082015250565b6000614a9e601583614913565b9150614aa982614a68565b602082019050919050565b60006020820190508181036000830152614acd81614a91565b9050919050565b7f456d61696c2061646472657373206d757374206e6f7420626520656d70747900600082015250565b6000614b0a601f83614913565b9150614b1582614ad4565b602082019050919050565b60006020820190508181036000830152614b3981614afd565b9050919050565b7f42696f206d757374206e6f7420626520656d7074790000000000000000000000600082015250565b6000614b76601583614913565b9150614b8182614b40565b602082019050919050565b60006020820190508181036000830152614ba581614b69565b9050919050565b7f4e487b7100000000000000000000000000000000000000000000000000000000600052601160045260246000fd5b6000614be682613b86565b91507fffffffffffffffffffffffffffffffffffffffffffffffffffffffffffffffff8203614c1857614c17614bac565b5b600182019050919050565b7f4e487b7100000000000000000000000000000000000000000000000000000000600052602260045260246000fd5b60006002820490506001821680614c6a57607f821691505b602082108103614c7d57614c7c614c23565b5b50919050565b60008190508160005260206000209050919050565b60006020601f8301049050919050565b600082821b905092915050565b600060088302614ce57fffffffffffffffffffffffffffffffffffffffffffffffffffffffffffffffff82614ca8565b614cef8683614ca8565b95508019841693508086168417925050509392505050565b6000819050919050565b6000614d2c614d27614d2284613b86565b614d07565b613b86565b9050919050565b6000819050919050565b614d4683614d11565b614d5a614d5282614d33565b848454614cb5565b825550505050565b600090565b614d6f614d62565b614d7a818484614d3d565b505050565b5b81811015614d9e57614d93600082614d67565b600181019050614d80565b5050565b601f821115614de357614db481614c83565b614dbd84614c98565b81016020851015614dcc578190505b614de0614dd885614c98565b830182614d7f565b50505b505050565b600082821c905092915050565b6000614e0660001984600802614de8565b1980831691505092915050565b6000614e1f8383614df5565b9150826002028217905092915050565b614e3882613ea5565b67ffffffffffffffff811115614e5157614e50613bd7565b5b614e5b8254614c52565b614e66828285614da2565b600060209050601f831160018114614e995760008415614e87578287015190505b614e918582614e13565b865550614ef9565b601f198416614ea786614c83565b60005b82811015614ecf57848901518255600182019150602085019450602081019050614eaa565b86831015614eec5784890151614ee8601f891682614df5565b8355505b6001600288020188555050505b505050505050565b6000614f0c82613b86565b9150614f1783613b86565b9250828201905080821115614f2f57614f2e614bac565b5b92915050565b614f3e81613b86565b82525050565b7f4372656174656420436172640000000000000000000000000000000000000000600082015250565b6000614f7a600c83614913565b9150614f8582614f44565b602082019050919050565b6000606082019050614fa56000830185614f35565b8181036020830152614fb681614f6d565b9050614fc56040830184614f35565b9392505050565b7f496e76616c6964206f72204578706972656420746f6b656e2070726f7669646560008201527f6400000000000000000000000000000000000000000000000000000000000000602082015250565b6000615028602183614913565b915061503382614fcc565b604082019050919050565b600060208201905081810360008301526150578161501b565b9050919050565b600081905092915050565b600061507482613ea5565b61507e818561505e565b935061508e818560208601613ec1565b80840191505092915050565b60006150a68284615069565b915081905092915050565b7f446f6d61696e206d757374206e6f7420626520656d7074790000000000000000600082015250565b60006150e7601883614913565b91506150f2826150b1565b602082019050919050565b60006020820190508181036000830152615116816150da565b9050919050565b7f41636365737320546f6b656e206d757374206e6f7420626520656d7074790000600082015250565b6000615153601e83614913565b915061515e8261511d565b602082019050919050565b6000602082019050818103600083015261518281615146565b9050919050565b7f41636365737320746f6b656e2061737369676e656420746f206120644170702060008201527f616c726561647900000000000000000000000000000000000000000000000000602082015250565b60006151e5602783614913565b91506151f082615189565b604082019050919050565b60006020820190508181036000830152615214816151d8565b9050919050565b7f5265676973746572656420644170700000000000000000000000000000000000600082015250565b6000615251600f83614913565b915061525c8261521b565b602082019050919050565b600060608201905061527c6000830185614f35565b818103602083015261528d81615244565b905061529c6040830184614f35565b9392505050565b7f43617264206e6f7420666f756e64000000000000000000000000000000000000600082015250565b60006152d9600e83614913565b91506152e4826152a3565b602082019050919050565b60006020820190508181036000830152615308816152cc565b9050919050565b7f556e617574686f72697a65640000000000000000000000000000000000000000600082015250565b6000615345600c83614913565b91506153508261530f565b602082019050919050565b6000602082019050818103600083015261537481615338565b9050919050565b7f5570646174656420436172640000000000000000000000000000000000000000600082015250565b60006153b1600c83614913565b91506153bc8261537b565b602082019050919050565b60006060820190506153dc6000830185614f35565b81810360208301526153ed816153a4565b90506153fc6040830184614f35565b9392505050565b7f64417070206e6f74207265676973746572656400000000000000000000000000600082015250565b6000615439601383614913565b915061544482615403565b602082019050919050565b600060208201905081810360008301526154688161542c565b9050919050565b7f5570646174656420644170700000000000000000000000000000000000000000600082015250565b60006154a5600c83614913565b91506154b08261546f565b602082019050919050565b60006060820190506154d06000830185614f35565b81810360208301526154e181615498565b90506154f06040830184614f35565b9392505050565b7f44656c6574656420436172640000000000000000000000000000000000000000600082015250565b600061552d600c83614913565b9150615538826154f7565b602082019050919050565b60006060820190506155586000830185614f35565b818103602083015261556981615520565b90506155786040830184614f35565b9392505050565b7f4e487b7100000000000000000000000000000000000000000000000000000000600052603260045260246000fd5b7f4361726420646f6573206e6f7420657869737400000000000000000000000000600082015250565b60006155e4601383614913565b91506155ef826155ae565b602082019050919050565b60006020820190508181036000830152615613816155d7565b9050919050565b7f4163636573732064656e69656400000000000000000000000000000000000000600082015250565b6000615650600d83614913565b915061565b8261561a565b602082019050919050565b6000602082019050818103600083015261567f81615643565b9050919050565b6000819050919050565b6156a161569c82613b86565b615686565b82525050565b60008160601b9050919050565b60006156bf826156a7565b9050919050565b60006156d1826156b4565b9050919050565b6156e96156e482613b48565b6156c6565b82525050565b60006156fb8286615690565b60208201915061570b82856156d8565b60148201915061571b8284615690565b602082019150819050949350505050565b7f437265617465642053657373696f6e20546f6b656e0000000000000000000000600082015250565b6000615762601583614913565b915061576d8261572c565b602082019050919050565b600060608201905061578d6000830185614f35565b818103602083015261579e81615755565b90506157ad6040830184614f35565b9392505050565b7f44656c6574656420644170700000000000000000000000000000000000000000600082015250565b60006157ea600c83614913565b91506157f5826157b4565b602082019050919050565b60006060820190506158156000830185614f35565b8181036020830152615826816157dd565b90506158356040830184614f35565b9392505050565b7f43617264206e6f7420666f756e64210000000000000000000000000000000000600082015250565b6000615872600f83614913565b915061587d8261583c565b602082019050919050565b600060208201905081810360008301526158a181615865565b9050919050565b60006158b382613b86565b91506158be83613b86565b92508282026158cc81613b86565b915082820484148315176158e3576158e2614bac565b5b5092915050565b7f44656163746976617465642053657373696f6e20546f6b656e00000000000000600082015250565b6000615920601983614913565b915061592b826158ea565b602082019050919050565b600060608201905061594b6000830185614f35565b818103602083015261595c81615913565b905061596b6040830184614f35565b9392505050565b7f19457468657265756d205369676e6564204d6573736167653a0a333200000000600082015250565b60006159a8601c8361505e565b91506159b382615972565b601c82019050919050565b6000819050919050565b6159d96159d482613e42565b6159be565b82525050565b60006159ea8261599b565b91506159f682846159c8565b60208201915081905092915050565b600060ff82169050919050565b615a1b81615a05565b82525050565b6000608082019050615a366000830187613e4c565b615a436020830186615a12565b615a506040830185613e4c565b615a5d6060830184613e4c565b9594505050505056fea2646970667358221220aa1e58a91fc4787ac7fbf77707ab861f332ce46df8d12fbcb13aad38876c1a9364736f6c63430008140033",
  "linkReferences": {},
  "deployedLinkReferences": {}
}