{
  "_format": "hh-sol-artifact-1",
  "contractName": "OAuth",
  "sourceName": "contracts/OAuth.sol",
  "abi": [
    {
      "inputs": [],
      "stateMutability": "nonpayable",
      "type": "constructor"
    },
    {
      "anonymous": false,
      "inputs": [
        {
          "indexed": false,
          "internalType": "uint256",
          "name": "cardId",
          "type": "uint256"
        },
        {
          "indexed": true,
          "internalType": "address",
          "name": "user",
          "type": "address"
        },
        {
          "indexed": false,
          "internalType": "uint256",
          "name": "timestamp",
          "type": "uint256"
        }
      ],
      "name": "CreateCard",
      "type": "event"
    },
    {
      "anonymous": false,
      "inputs": [
        {
          "indexed": true,
          "internalType": "address",
          "name": "user",
          "type": "address"
        },
        {
          "indexed": false,
          "internalType": "uint256",
          "name": "timestamp",
          "type": "uint256"
        }
      ],
      "name": "CreateToken",
      "type": "event"
    },
    {
      "anonymous": false,
      "inputs": [
        {
          "indexed": false,
          "internalType": "uint256",
          "name": "cardId",
          "type": "uint256"
        },
        {
          "indexed": true,
          "internalType": "address",
          "name": "user",
          "type": "address"
        },
        {
          "indexed": false,
          "internalType": "uint256",
          "name": "timestamp",
          "type": "uint256"
        }
      ],
      "name": "DeleteCard",
      "type": "event"
    },
    {
      "anonymous": false,
      "inputs": [
        {
          "indexed": true,
          "internalType": "address",
          "name": "user",
          "type": "address"
        },
        {
          "indexed": false,
          "internalType": "uint256",
          "name": "timestamp",
          "type": "uint256"
        }
      ],
      "name": "DeleteToken",
      "type": "event"
    },
    {
      "anonymous": false,
      "inputs": [
        {
          "indexed": false,
          "internalType": "uint256",
          "name": "dAppId",
          "type": "uint256"
        },
        {
          "indexed": true,
          "internalType": "address",
          "name": "user",
          "type": "address"
        },
        {
          "indexed": false,
          "internalType": "uint256",
          "name": "timestamp",
          "type": "uint256"
        }
      ],
      "name": "DeletedApp",
      "type": "event"
    },
    {
      "anonymous": false,
      "inputs": [
        {
          "indexed": false,
          "internalType": "uint256",
          "name": "dAppId",
          "type": "uint256"
        },
        {
          "indexed": true,
          "internalType": "address",
          "name": "user",
          "type": "address"
        },
        {
          "indexed": false,
          "internalType": "uint256",
          "name": "timestamp",
          "type": "uint256"
        }
      ],
      "name": "RegisterdApp",
      "type": "event"
    },
    {
      "anonymous": false,
      "inputs": [
        {
          "indexed": false,
          "internalType": "uint256",
          "name": "cardId",
          "type": "uint256"
        },
        {
          "indexed": true,
          "internalType": "address",
          "name": "user",
          "type": "address"
        },
        {
          "indexed": false,
          "internalType": "uint256",
          "name": "timestamp",
          "type": "uint256"
        }
      ],
      "name": "UpdateCard",
      "type": "event"
    },
    {
      "inputs": [
        {
          "internalType": "string",
          "name": "username",
          "type": "string"
        },
        {
          "internalType": "string",
          "name": "pfp",
          "type": "string"
        },
        {
          "internalType": "string",
          "name": "email",
          "type": "string"
        },
        {
          "internalType": "string",
          "name": "bio",
          "type": "string"
        }
      ],
      "name": "createCard",
      "outputs": [],
      "stateMutability": "nonpayable",
      "type": "function"
    },
    {
      "inputs": [
        {
          "internalType": "uint256",
          "name": "cardId",
          "type": "uint256"
        },
        {
          "internalType": "uint256",
          "name": "dAppId",
          "type": "uint256"
        },
        {
          "internalType": "address",
          "name": "signer",
          "type": "address"
        },
        {
          "internalType": "uint256",
          "name": "nonce",
          "type": "uint256"
        },
        {
          "internalType": "bytes",
          "name": "signature",
          "type": "bytes"
        }
      ],
      "name": "createToken",
      "outputs": [],
      "stateMutability": "nonpayable",
      "type": "function"
    },
    {
      "inputs": [
        {
          "internalType": "uint256",
          "name": "id",
          "type": "uint256"
        }
      ],
      "name": "deleteCard",
      "outputs": [],
      "stateMutability": "nonpayable",
      "type": "function"
    },
    {
      "inputs": [
        {
          "internalType": "bytes32",
          "name": "token",
          "type": "bytes32"
        }
      ],
      "name": "deleteToken",
      "outputs": [],
      "stateMutability": "nonpayable",
      "type": "function"
    },
    {
      "inputs": [
        {
          "internalType": "uint256",
          "name": "id",
          "type": "uint256"
        }
      ],
      "name": "deletedApp",
      "outputs": [],
      "stateMutability": "nonpayable",
      "type": "function"
    },
    {
      "inputs": [
        {
          "internalType": "bytes32",
          "name": "token",
          "type": "bytes32"
        }
      ],
      "name": "fetchUserInfoFromToken",
      "outputs": [
        {
          "components": [
            {
              "internalType": "uint256",
              "name": "id",
              "type": "uint256"
            },
            {
              "internalType": "address",
              "name": "owner",
              "type": "address"
            },
            {
              "internalType": "string",
              "name": "username",
              "type": "string"
            },
            {
              "internalType": "string",
              "name": "pfp",
              "type": "string"
            },
            {
              "internalType": "string",
              "name": "email",
              "type": "string"
            },
            {
              "internalType": "string",
              "name": "bio",
              "type": "string"
            },
            {
              "internalType": "bool",
              "name": "isDeleted",
              "type": "bool"
            },
            {
              "internalType": "uint256",
              "name": "createdAt",
              "type": "uint256"
            },
            {
              "internalType": "uint256",
              "name": "updatedAt",
              "type": "uint256"
            }
          ],
          "internalType": "struct CARD.Card",
          "name": "",
          "type": "tuple"
        }
      ],
      "stateMutability": "view",
      "type": "function"
    },
    {
      "inputs": [
        {
          "internalType": "bytes32[]",
          "name": "tokens",
          "type": "bytes32[]"
        }
      ],
      "name": "fetchUserInfoFromTokens",
      "outputs": [
        {
          "components": [
            {
              "internalType": "uint256",
              "name": "id",
              "type": "uint256"
            },
            {
              "internalType": "address",
              "name": "owner",
              "type": "address"
            },
            {
              "internalType": "string",
              "name": "username",
              "type": "string"
            },
            {
              "internalType": "string",
              "name": "pfp",
              "type": "string"
            },
            {
              "internalType": "string",
              "name": "email",
              "type": "string"
            },
            {
              "internalType": "string",
              "name": "bio",
              "type": "string"
            },
            {
              "internalType": "bool",
              "name": "isDeleted",
              "type": "bool"
            },
            {
              "internalType": "uint256",
              "name": "createdAt",
              "type": "uint256"
            },
            {
              "internalType": "uint256",
              "name": "updatedAt",
              "type": "uint256"
            }
          ],
          "internalType": "struct CARD.Card[]",
          "name": "",
          "type": "tuple[]"
        }
      ],
      "stateMutability": "view",
      "type": "function"
    },
    {
      "inputs": [
        {
          "internalType": "uint256",
          "name": "id",
          "type": "uint256"
        }
      ],
      "name": "getCard",
      "outputs": [
        {
          "components": [
            {
              "internalType": "uint256",
              "name": "id",
              "type": "uint256"
            },
            {
              "internalType": "address",
              "name": "owner",
              "type": "address"
            },
            {
              "internalType": "string",
              "name": "username",
              "type": "string"
            },
            {
              "internalType": "string",
              "name": "pfp",
              "type": "string"
            },
            {
              "internalType": "string",
              "name": "email",
              "type": "string"
            },
            {
              "internalType": "string",
              "name": "bio",
              "type": "string"
            },
            {
              "internalType": "bool",
              "name": "isDeleted",
              "type": "bool"
            },
            {
              "internalType": "uint256",
              "name": "createdAt",
              "type": "uint256"
            },
            {
              "internalType": "uint256",
              "name": "updatedAt",
              "type": "uint256"
            }
          ],
          "internalType": "struct CARD.Card",
          "name": "",
          "type": "tuple"
        }
      ],
      "stateMutability": "view",
      "type": "function"
    },
    {
      "inputs": [
        {
          "internalType": "uint256",
          "name": "id",
          "type": "uint256"
        }
      ],
      "name": "getTokenDetails",
      "outputs": [
        {
          "components": [
            {
              "internalType": "uint256",
              "name": "id",
              "type": "uint256"
            },
            {
              "internalType": "uint256",
              "name": "cardId",
              "type": "uint256"
            },
            {
              "internalType": "uint256",
              "name": "dAppId",
              "type": "uint256"
            },
            {
              "internalType": "address",
              "name": "user",
              "type": "address"
            },
            {
              "internalType": "bytes32",
              "name": "token",
              "type": "bytes32"
            },
            {
              "internalType": "bool",
              "name": "isDeleted",
              "type": "bool"
            },
            {
              "internalType": "uint256",
              "name": "createdAt",
              "type": "uint256"
            },
            {
              "internalType": "uint256",
              "name": "updatedAt",
              "type": "uint256"
            }
          ],
          "internalType": "struct TOKEN.Token",
          "name": "",
          "type": "tuple"
        }
      ],
      "stateMutability": "view",
      "type": "function"
    },
    {
      "inputs": [
        {
          "internalType": "address",
          "name": "user",
          "type": "address"
        }
      ],
      "name": "getUserCards",
      "outputs": [
        {
          "components": [
            {
              "internalType": "uint256",
              "name": "id",
              "type": "uint256"
            },
            {
              "internalType": "address",
              "name": "owner",
              "type": "address"
            },
            {
              "internalType": "string",
              "name": "username",
              "type": "string"
            },
            {
              "internalType": "string",
              "name": "pfp",
              "type": "string"
            },
            {
              "internalType": "string",
              "name": "email",
              "type": "string"
            },
            {
              "internalType": "string",
              "name": "bio",
              "type": "string"
            },
            {
              "internalType": "bool",
              "name": "isDeleted",
              "type": "bool"
            },
            {
              "internalType": "uint256",
              "name": "createdAt",
              "type": "uint256"
            },
            {
              "internalType": "uint256",
              "name": "updatedAt",
              "type": "uint256"
            }
          ],
          "internalType": "struct CARD.Card[]",
          "name": "",
          "type": "tuple[]"
        }
      ],
      "stateMutability": "view",
      "type": "function"
    },
    {
      "inputs": [
        {
          "internalType": "uint256",
          "name": "id",
          "type": "uint256"
        }
      ],
      "name": "getdApp",
      "outputs": [
        {
          "components": [
            {
              "internalType": "uint256",
              "name": "id",
              "type": "uint256"
            },
            {
              "internalType": "string",
              "name": "domain",
              "type": "string"
            },
            {
              "internalType": "bytes32",
              "name": "accessToken",
              "type": "bytes32"
            },
            {
              "internalType": "address",
              "name": "owner",
              "type": "address"
            },
            {
              "internalType": "bool",
              "name": "isDeleted",
              "type": "bool"
            },
            {
              "internalType": "uint256",
              "name": "createdAt",
              "type": "uint256"
            },
            {
              "internalType": "uint256",
              "name": "updatedAt",
              "type": "uint256"
            }
          ],
          "internalType": "struct DAPP.dApp",
          "name": "",
          "type": "tuple"
        }
      ],
      "stateMutability": "view",
      "type": "function"
    },
    {
      "inputs": [
        {
          "internalType": "bytes32",
          "name": "token",
          "type": "bytes32"
        }
      ],
      "name": "getdAppFromToken",
      "outputs": [
        {
          "components": [
            {
              "internalType": "uint256",
              "name": "id",
              "type": "uint256"
            },
            {
              "internalType": "string",
              "name": "domain",
              "type": "string"
            },
            {
              "internalType": "bytes32",
              "name": "accessToken",
              "type": "bytes32"
            },
            {
              "internalType": "address",
              "name": "owner",
              "type": "address"
            },
            {
              "internalType": "bool",
              "name": "isDeleted",
              "type": "bool"
            },
            {
              "internalType": "uint256",
              "name": "createdAt",
              "type": "uint256"
            },
            {
              "internalType": "uint256",
              "name": "updatedAt",
              "type": "uint256"
            }
          ],
          "internalType": "struct DAPP.dApp",
          "name": "",
          "type": "tuple"
        }
      ],
      "stateMutability": "view",
      "type": "function"
    },
    {
      "inputs": [
        {
          "internalType": "string",
          "name": "domain",
          "type": "string"
        }
      ],
      "name": "getdAppIdFromDomain",
      "outputs": [
        {
          "internalType": "uint256",
          "name": "",
          "type": "uint256"
        }
      ],
      "stateMutability": "view",
      "type": "function"
    },
    {
      "inputs": [],
      "name": "getdApps",
      "outputs": [
        {
          "components": [
            {
              "internalType": "uint256",
              "name": "id",
              "type": "uint256"
            },
            {
              "internalType": "string",
              "name": "domain",
              "type": "string"
            },
            {
              "internalType": "bytes32",
              "name": "accessToken",
              "type": "bytes32"
            },
            {
              "internalType": "address",
              "name": "owner",
              "type": "address"
            },
            {
              "internalType": "bool",
              "name": "isDeleted",
              "type": "bool"
            },
            {
              "internalType": "uint256",
              "name": "createdAt",
              "type": "uint256"
            },
            {
              "internalType": "uint256",
              "name": "updatedAt",
              "type": "uint256"
            }
          ],
          "internalType": "struct DAPP.dApp[]",
          "name": "",
          "type": "tuple[]"
        }
      ],
      "stateMutability": "view",
      "type": "function"
    },
    {
      "inputs": [
        {
          "internalType": "uint256",
          "name": "cardId",
          "type": "uint256"
        }
      ],
      "name": "getdAppsConnectedToCard",
      "outputs": [
        {
          "components": [
            {
              "internalType": "uint256",
              "name": "id",
              "type": "uint256"
            },
            {
              "internalType": "string",
              "name": "domain",
              "type": "string"
            },
            {
              "internalType": "bytes32",
              "name": "accessToken",
              "type": "bytes32"
            },
            {
              "internalType": "address",
              "name": "owner",
              "type": "address"
            },
            {
              "internalType": "bool",
              "name": "isDeleted",
              "type": "bool"
            },
            {
              "internalType": "uint256",
              "name": "createdAt",
              "type": "uint256"
            },
            {
              "internalType": "uint256",
              "name": "updatedAt",
              "type": "uint256"
            }
          ],
          "internalType": "struct DAPP.dApp[]",
          "name": "",
          "type": "tuple[]"
        }
      ],
      "stateMutability": "view",
      "type": "function"
    },
    {
      "inputs": [
        {
          "internalType": "string",
          "name": "domain",
          "type": "string"
        }
      ],
      "name": "registerdApp",
      "outputs": [],
      "stateMutability": "nonpayable",
      "type": "function"
    },
    {
      "inputs": [],
      "name": "totalCards",
      "outputs": [
        {
          "internalType": "uint256",
          "name": "",
          "type": "uint256"
        }
      ],
      "stateMutability": "view",
      "type": "function"
    },
    {
      "inputs": [],
      "name": "totalTokens",
      "outputs": [
        {
          "internalType": "uint256",
          "name": "",
          "type": "uint256"
        }
      ],
      "stateMutability": "view",
      "type": "function"
    },
    {
      "inputs": [],
      "name": "totaldApps",
      "outputs": [
        {
          "internalType": "uint256",
          "name": "",
          "type": "uint256"
        }
      ],
      "stateMutability": "view",
      "type": "function"
    },
    {
      "inputs": [
        {
          "internalType": "address",
          "name": "signer",
          "type": "address"
        },
        {
          "internalType": "uint256",
          "name": "dAppId",
          "type": "uint256"
        },
        {
          "internalType": "uint256",
          "name": "nonce",
          "type": "uint256"
        },
        {
          "internalType": "bytes",
          "name": "signature",
          "type": "bytes"
        }
      ],
      "name": "triggerLogin",
      "outputs": [
        {
          "internalType": "bytes32",
          "name": "",
          "type": "bytes32"
        },
        {
          "components": [
            {
              "internalType": "uint256",
              "name": "id",
              "type": "uint256"
            },
            {
              "internalType": "address",
              "name": "owner",
              "type": "address"
            },
            {
              "internalType": "string",
              "name": "username",
              "type": "string"
            },
            {
              "internalType": "string",
              "name": "pfp",
              "type": "string"
            },
            {
              "internalType": "string",
              "name": "email",
              "type": "string"
            },
            {
              "internalType": "string",
              "name": "bio",
              "type": "string"
            },
            {
              "internalType": "bool",
              "name": "isDeleted",
              "type": "bool"
            },
            {
              "internalType": "uint256",
              "name": "createdAt",
              "type": "uint256"
            },
            {
              "internalType": "uint256",
              "name": "updatedAt",
              "type": "uint256"
            }
          ],
          "internalType": "struct CARD.Card[]",
          "name": "",
          "type": "tuple[]"
        }
      ],
      "stateMutability": "view",
      "type": "function"
    },
    {
      "inputs": [
        {
          "internalType": "uint256",
          "name": "id",
          "type": "uint256"
        },
        {
          "internalType": "string",
          "name": "username",
          "type": "string"
        },
        {
          "internalType": "string",
          "name": "pfp",
          "type": "string"
        },
        {
          "internalType": "string",
          "name": "email",
          "type": "string"
        },
        {
          "internalType": "string",
          "name": "bio",
          "type": "string"
        }
      ],
      "name": "updateCard",
      "outputs": [],
      "stateMutability": "nonpayable",
      "type": "function"
    }
  ],
  "bytecode": "0x60806040523480156200001157600080fd5b5033600360006101000a81548173ffffffffffffffffffffffffffffffffffffffff021916908373ffffffffffffffffffffffffffffffffffffffff160217905550620000996040518060400160405280600981526020017f6c6f63616c686f737400000000000000000000000000000000000000000000008152506200009f60201b60201c565b62000d09565b6000815103620000e6576040517f08c379a0000000000000000000000000000000000000000000000000000000008152600401620000dd906200062d565b60405180910390fd5b60006200012f826040518060400160405280600981526020017f6c6f63616c686f737400000000000000000000000000000000000000000000008152506200025560201b60201c565b90508080156200014b5750600360149054906101000a900460ff165b156200018e576040517f08c379a000000000000000000000000000000000000000000000000000000000815260040162000185906200069f565b60405180910390fd5b6001600360146101000a81548160ff021916908315150217905550620001c6600760086009600a600b3388886200029760201b60201c565b60026000815480929190620001db90620006fa565b919050555080620001ed5733620001f0565b60005b73ffffffffffffffffffffffffffffffffffffffff167f38c218d407ab09a28ad8ac48d547cc738df834b4ef0ac7fb464af97679525b2b600160025462000238919062000747565b426040516200024992919062000793565b60405180910390a25050565b600081518351146200026b576000905062000291565b6200027c826200059a60201b60201c565b6200028d846200059a60201b60201c565b1490505b92915050565b60008683604051620002aa919062000839565b90815260200160405180910390205414620002fc576040517f08c379a0000000000000000000000000000000000000000000000000000000008152600401620002f390620008a2565b60405180910390fd5b600088805490509050600073__$e47faa944e4dc2fafddac4070fbe11d151$__63b063152a856040518263ffffffff1660e01b815260040162000340919062000927565b602060405180830381865af41580156200035e573d6000803e3d6000fd5b505050506040513d601f19601f820116820180604052508101906200038491906200098b565b9050896040518060e0016040528084815260200186815260200183815260200185620003b15787620003b4565b60005b73ffffffffffffffffffffffffffffffffffffffff1681526020016000151581526020014281526020014281525090806001815401808255809150506001900390600052602060002090600602016000909190919091506000820151816000015560208201518160010190816200042c919062000c22565b506040820151816002015560608201518160030160006101000a81548173ffffffffffffffffffffffffffffffffffffffff021916908373ffffffffffffffffffffffffffffffffffffffff16021790555060808201518160030160146101000a81548160ff02191690831515021790555060a0820151816004015560c082015181600501555050818885604051620004c6919062000839565b908152602001604051809103902081905550600187600084815260200190815260200160002060006101000a81548160ff0219169083151502179055508860008462000513578662000516565b60005b73ffffffffffffffffffffffffffffffffffffffff1673ffffffffffffffffffffffffffffffffffffffff168152602001908152602001600020829080600181540180825580915050600190039060005260206000200160009091909190915055818660008381526020019081526020016000208190555050505050505050505050565b600081604051602001620005af919062000839565b604051602081830303815290604052805190602001209050919050565b600082825260208201905092915050565b7f646f6d61696e2069732072657175697265640000000000000000000000000000600082015250565b600062000615601283620005cc565b91506200062282620005dd565b602082019050919050565b60006020820190508181036000830152620006488162000606565b9050919050565b7f6261642072657175657374000000000000000000000000000000000000000000600082015250565b600062000687600b83620005cc565b915062000694826200064f565b602082019050919050565b60006020820190508181036000830152620006ba8162000678565b9050919050565b7f4e487b7100000000000000000000000000000000000000000000000000000000600052601160045260246000fd5b6000819050919050565b60006200070782620006f0565b91507fffffffffffffffffffffffffffffffffffffffffffffffffffffffffffffffff82036200073c576200073b620006c1565b5b600182019050919050565b60006200075482620006f0565b91506200076183620006f0565b92508282039050818111156200077c576200077b620006c1565b5b92915050565b6200078d81620006f0565b82525050565b6000604082019050620007aa600083018562000782565b620007b9602083018462000782565b9392505050565b600081519050919050565b600081905092915050565b60005b83811015620007f6578082015181840152602081019050620007d9565b60008484015250505050565b60006200080f82620007c0565b6200081b8185620007cb565b93506200082d818560208601620007d6565b80840191505092915050565b600062000847828462000802565b915081905092915050565b7f647570696361746520646f6d61696e20656e7472790000000000000000000000600082015250565b60006200088a601583620005cc565b9150620008978262000852565b602082019050919050565b60006020820190508181036000830152620008bd816200087b565b9050919050565b600082825260208201905092915050565b6000601f19601f8301169050919050565b6000620008f382620007c0565b620008ff8185620008c4565b935062000911818560208601620007d6565b6200091c81620008d5565b840191505092915050565b60006020820190508181036000830152620009438184620008e6565b905092915050565b600080fd5b6000819050919050565b620009658162000950565b81146200097157600080fd5b50565b60008151905062000985816200095a565b92915050565b600060208284031215620009a457620009a36200094b565b5b6000620009b48482850162000974565b91505092915050565b7f4e487b7100000000000000000000000000000000000000000000000000000000600052604160045260246000fd5b7f4e487b7100000000000000000000000000000000000000000000000000000000600052602260045260246000fd5b6000600282049050600182168062000a3457607f821691505b60208210810362000a4a5762000a49620009ec565b5b50919050565b60008190508160005260206000209050919050565b60006020601f8301049050919050565b600082821b905092915050565b60006008830262000ab47fffffffffffffffffffffffffffffffffffffffffffffffffffffffffffffffff8262000a75565b62000ac0868362000a75565b95508019841693508086168417925050509392505050565b6000819050919050565b600062000b0362000afd62000af784620006f0565b62000ad8565b620006f0565b9050919050565b6000819050919050565b62000b1f8362000ae2565b62000b3762000b2e8262000b0a565b84845462000a82565b825550505050565b600090565b62000b4e62000b3f565b62000b5b81848462000b14565b505050565b5b8181101562000b835762000b7760008262000b44565b60018101905062000b61565b5050565b601f82111562000bd25762000b9c8162000a50565b62000ba78462000a65565b8101602085101562000bb7578190505b62000bcf62000bc68562000a65565b83018262000b60565b50505b505050565b600082821c905092915050565b600062000bf76000198460080262000bd7565b1980831691505092915050565b600062000c12838362000be4565b9150826002028217905092915050565b62000c2d82620007c0565b67ffffffffffffffff81111562000c495762000c48620009bd565b5b62000c55825462000a1b565b62000c6282828562000b87565b600060209050601f83116001811462000c9a576000841562000c85578287015190505b62000c91858262000c04565b86555062000d01565b601f19841662000caa8662000a50565b60005b8281101562000cd45784890151825560018201915060208501945060208101905062000cad565b8683101562000cf4578489015162000cf0601f89168262000be4565b8355505b6001600288020188555050505b505050505050565b615f8f8062000d196000396000f3fe608060405234801561001057600080fd5b50600436106101375760003560e01c80639188d312116100b8578063b5b794021161007c578063b5b794021461035f578063c1e037281461038f578063e7b49088146103bf578063e994c15d146103ef578063ed886b271461040d578063f1a3b9431461043d57610137565b80639188d3121461029557806392d15c7c146102c5578063968652f3146102f557806397be2d5314610325578063b10926671461034357610137565b80634add3ac5116100ff5780634add3ac5146101f15780635e1acf651461020f5780637e1c0c091461022b578063801b13c41461024957806388d9f40d1461026557610137565b80630510271c1461013c5780630c2ad3f91461016d5780631fc93a3a1461018957806329b579f7146101b957806348bf10c9146101d5575b600080fd5b6101566004803603810190610151919061465d565b610459565b60405161016492919061494d565b60405180910390f35b61018760048036038101906101829190614a1e565b610589565b005b6101a3600480360381019061019e9190614af5565b61064c565b6040516101b09190614bcd565b60405180910390f35b6101d360048036038101906101ce9190614af5565b6106c2565b005b6101ef60048036038101906101ea9190614bef565b610898565b005b6101f9610936565b6040516102069190614ce9565b60405180910390f35b61022960048036038101906102249190614af5565b61093c565b005b61023361099d565b6040516102409190614ce9565b60405180910390f35b610263600480360381019061025e9190614d04565b6109a3565b005b61027f600480360381019061027a9190614d4d565b610b3a565b60405161028c9190614d7a565b60405180910390f35b6102af60048036038101906102aa9190614af5565b610bac565b6040516102bc9190614e76565b60405180910390f35b6102df60048036038101906102da9190614ec4565b610c80565b6040516102ec9190614e76565b60405180910390f35b61030f600480360381019061030a9190614d04565b61104c565b60405161031c9190614ce9565b60405180910390f35b61032d6110e1565b60405161033a919061504f565b60405180910390f35b61035d60048036038101906103589190615071565b6110f7565b005b610379600480360381019061037491906151d0565b6111ef565b6040516103869190614d7a565b60405180910390f35b6103a960048036038101906103a49190614af5565b611643565b6040516103b691906152bb565b60405180910390f35b6103d960048036038101906103d49190614af5565b6116b9565b6040516103e6919061504f565b60405180910390f35b6103f7611b9b565b6040516104049190614ce9565b60405180910390f35b61042760048036038101906104229190614ec4565b611ba1565b6040516104349190614bcd565b60405180910390f35b61045760048036038101906104529190614ec4565b611c31565b005b600060603373ffffffffffffffffffffffffffffffffffffffff16600360009054906101000a900473ffffffffffffffffffffffffffffffffffffffff1673ffffffffffffffffffffffffffffffffffffffff16146104b757600080fd5b6104c2848488611ca5565b6104cb57600080fd5b6000806104d88888611ec3565b91509150811561056857600c81815481106104f6576104f56152d7565b5b906000526020600020906008020160040154600067ffffffffffffffff81111561052357610522614532565b5b60405190808252806020026020018201604052801561055c57816020015b610549614353565b8152602001906001900390816105415790505b50935093505050610580565b600061057389610b3a565b8160001b91509350935050505b94509492505050565b6000845111801561059b575060008351115b80156105a8575060008251115b80156105b5575060008151115b6105be57600080fd5b6105d16004600560063388888888611fe1565b6000808154809291906105e390615335565b91905055503373ffffffffffffffffffffffffffffffffffffffff167f779361fe8de3a59da5c59d133119cf78c0706260542a08cd8ea6475870134367600160005461062f919061537d565b4260405161063e9291906153b1565b60405180910390a250505050565b6106546143b7565b3373ffffffffffffffffffffffffffffffffffffffff16600360009054906101000a900473ffffffffffffffffffffffffffffffffffffffff1673ffffffffffffffffffffffffffffffffffffffff16146106ae57600080fd5b6106bb6007600a846121e8565b9050919050565b600a600082815260200190815260200160002060009054906101000a900460ff16610722576040517f08c379a000000000000000000000000000000000000000000000000000000000815260040161071990615437565b60405180910390fd5b3373ffffffffffffffffffffffffffffffffffffffff166007828154811061074d5761074c6152d7565b5b906000526020600020906006020160030160009054906101000a900473ffffffffffffffffffffffffffffffffffffffff1673ffffffffffffffffffffffffffffffffffffffff1614806107ee5750600360009054906101000a900473ffffffffffffffffffffffffffffffffffffffff1673ffffffffffffffffffffffffffffffffffffffff163373ffffffffffffffffffffffffffffffffffffffff16145b61082d576040517f08c379a0000000000000000000000000000000000000000000000000000000008152600401610824906154a3565b60405180910390fd5b61083c60076009600a846123af565b6108458161248c565b3373ffffffffffffffffffffffffffffffffffffffff167fbd81a0594dd8ad3d8a63942a67b1eabb1dbc8b59f46315753d3d1f61a4952fc0824260405161088d9291906153b1565b60405180910390a250565b600084511180156108aa575060008351115b80156108b7575060008251115b80156108c4575060008151115b6108cd57600080fd5b6108df60046006338888888888612552565b3373ffffffffffffffffffffffffffffffffffffffff167fe172739fcd2c1344b918e5979a85167a8c38da7f33e26d6d2497cedeb551bc6e86426040516109279291906153b1565b60405180910390a25050505050565b60025481565b61094a6004600633846126e4565b3373ffffffffffffffffffffffffffffffffffffffff167fc8d59d0304b179a93831748dcb35af0e80f6464ee84bcc11f1e368f1ceb25ec582426040516109929291906153b1565b60405180910390a250565b60015481565b60008151036109e7576040517f08c379a00000000000000000000000000000000000000000000000000000000081526004016109de9061550f565b60405180910390fd5b6000610a28826040518060400160405280600981526020017f6c6f63616c686f73740000000000000000000000000000000000000000000000815250612872565b9050808015610a435750600360149054906101000a900460ff165b15610a83576040517f08c379a0000000000000000000000000000000000000000000000000000000008152600401610a7a9061557b565b60405180910390fd5b6001600360146101000a81548160ff021916908315150217905550610ab3600760086009600a600b3388886128a2565b60026000815480929190610ac690615335565b919050555080610ad65733610ad9565b60005b73ffffffffffffffffffffffffffffffffffffffff167f38c218d407ab09a28ad8ac48d547cc738df834b4ef0ac7fb464af97679525b2b6001600254610b1f919061537d565b42604051610b2e9291906153b1565b60405180910390a25050565b60603373ffffffffffffffffffffffffffffffffffffffff16600360009054906101000a900473ffffffffffffffffffffffffffffffffffffffff1673ffffffffffffffffffffffffffffffffffffffff1614610b9657600080fd5b610ba560046005600685612b93565b9050919050565b610bb4614353565b3373ffffffffffffffffffffffffffffffffffffffff16600360009054906101000a900473ffffffffffffffffffffffffffffffffffffffff1673ffffffffffffffffffffffffffffffffffffffff1614610c0e57600080fd5b6006600083815260200190815260200160002060009054906101000a900460ff16610c6e576040517f08c379a0000000000000000000000000000000000000000000000000000000008152600401610c6590615437565b60405180910390fd5b610c79600483613058565b9050919050565b610c88614353565b6000610c938361336c565b905060066000600c8381548110610cad57610cac6152d7565b5b906000526020600020906008020160010154815260200190815260200160002060009054906101000a900460ff16610d1a576040517f08c379a0000000000000000000000000000000000000000000000000000000008152600401610d1190615437565b60405180910390fd5b6004600c8281548110610d3057610d2f6152d7565b5b90600052602060002090600802016001015481548110610d5357610d526152d7565b5b906000526020600020906009020160405180610120016040529081600082015481526020016001820160009054906101000a900473ffffffffffffffffffffffffffffffffffffffff1673ffffffffffffffffffffffffffffffffffffffff1673ffffffffffffffffffffffffffffffffffffffff168152602001600282018054610ddd906155ca565b80601f0160208091040260200160405190810160405280929190818152602001828054610e09906155ca565b8015610e565780601f10610e2b57610100808354040283529160200191610e56565b820191906000526020600020905b815481529060010190602001808311610e3957829003601f168201915b50505050508152602001600382018054610e6f906155ca565b80601f0160208091040260200160405190810160405280929190818152602001828054610e9b906155ca565b8015610ee85780601f10610ebd57610100808354040283529160200191610ee8565b820191906000526020600020905b815481529060010190602001808311610ecb57829003601f168201915b50505050508152602001600482018054610f01906155ca565b80601f0160208091040260200160405190810160405280929190818152602001828054610f2d906155ca565b8015610f7a5780601f10610f4f57610100808354040283529160200191610f7a565b820191906000526020600020905b815481529060010190602001808311610f5d57829003601f168201915b50505050508152602001600582018054610f93906155ca565b80601f0160208091040260200160405190810160405280929190818152602001828054610fbf906155ca565b801561100c5780601f10610fe15761010080835404028352916020019161100c565b820191906000526020600020905b815481529060010190602001808311610fef57829003601f168201915b505050505081526020016006820160009054906101000a900460ff1615151515815260200160078201548152602001600882015481525050915050919050565b60003373ffffffffffffffffffffffffffffffffffffffff16600360009054906101000a900473ffffffffffffffffffffffffffffffffffffffff1673ffffffffffffffffffffffffffffffffffffffff16146110a857600080fd5b60006009836040516110ba9190615637565b90815260200160405180910390205490506110d96007600a8584613384565b915050919050565b60606110f260076008600a336134e5565b905090565b3373ffffffffffffffffffffffffffffffffffffffff16600360009054906101000a900473ffffffffffffffffffffffffffffffffffffffff1673ffffffffffffffffffffffffffffffffffffffff161461115157600080fd5b61115c828285611ca5565b61116557600080fd5b611182600c600d600e600f601060116006600a60048e8e8e6137fd565b6001600081548092919061119590615335565b91905055508273ffffffffffffffffffffffffffffffffffffffff167fb378e89b40ac5bbe0e2241b596fbe1adc3cf1fb7c982aa1b4560165cf264ee93426040516111e09190614ce9565b60405180910390a25050505050565b60606000825167ffffffffffffffff81111561120e5761120d614532565b5b60405190808252806020026020018201604052801561124757816020015b611234614353565b81526020019060019003908161122c5790505b509050600080600090505b8451811015611638576000611280868381518110611273576112726152d7565b5b602002602001015161336c565b905060066000600c838154811061129a576112996152d7565b5b906000526020600020906008020160010154815260200190815260200160002060009054906101000a900460ff1615611624576004600c82815481106112e3576112e26152d7565b5b90600052602060002090600802016001015481548110611306576113056152d7565b5b906000526020600020906009020160405180610120016040529081600082015481526020016001820160009054906101000a900473ffffffffffffffffffffffffffffffffffffffff1673ffffffffffffffffffffffffffffffffffffffff1673ffffffffffffffffffffffffffffffffffffffff168152602001600282018054611390906155ca565b80601f01602080910402602001604051908101604052809291908181526020018280546113bc906155ca565b80156114095780601f106113de57610100808354040283529160200191611409565b820191906000526020600020905b8154815290600101906020018083116113ec57829003601f168201915b50505050508152602001600382018054611422906155ca565b80601f016020809104026020016040519081016040528092919081815260200182805461144e906155ca565b801561149b5780601f106114705761010080835404028352916020019161149b565b820191906000526020600020905b81548152906001019060200180831161147e57829003601f168201915b505050505081526020016004820180546114b4906155ca565b80601f01602080910402602001604051908101604052809291908181526020018280546114e0906155ca565b801561152d5780601f106115025761010080835404028352916020019161152d565b820191906000526020600020905b81548152906001019060200180831161151057829003601f168201915b50505050508152602001600582018054611546906155ca565b80601f0160208091040260200160405190810160405280929190818152602001828054611572906155ca565b80156115bf5780601f10611594576101008083540402835291602001916115bf565b820191906000526020600020905b8154815290600101906020018083116115a257829003601f168201915b505050505081526020016006820160009054906101000a900460ff161515151581526020016007820154815260200160088201548152505084848151811061160a576116096152d7565b5b6020026020010181905250828061162090615335565b9350505b50808061163090615335565b915050611252565b508192505050919050565b61164b61440f565b3373ffffffffffffffffffffffffffffffffffffffff16600360009054906101000a900473ffffffffffffffffffffffffffffffffffffffff1673ffffffffffffffffffffffffffffffffffffffff16146116a557600080fd5b6116b2600c600d84613bdf565b9050919050565b60603373ffffffffffffffffffffffffffffffffffffffff16600360009054906101000a900473ffffffffffffffffffffffffffffffffffffffff1673ffffffffffffffffffffffffffffffffffffffff161461171557600080fd5b6006600083815260200190815260200160002060009054906101000a900460ff16611775576040517f08c379a000000000000000000000000000000000000000000000000000000000815260040161176c90615437565b60405180910390fd5b3373ffffffffffffffffffffffffffffffffffffffff16600483815481106117a05761179f6152d7565b5b906000526020600020906009020160010160009054906101000a900473ffffffffffffffffffffffffffffffffffffffff1673ffffffffffffffffffffffffffffffffffffffff1614806118415750600360009054906101000a900473ffffffffffffffffffffffffffffffffffffffff1673ffffffffffffffffffffffffffffffffffffffff163373ffffffffffffffffffffffffffffffffffffffff16145b611880576040517f08c379a0000000000000000000000000000000000000000000000000000000008152600401611877906154a3565b60405180910390fd5b600080600090505b601060008581526020019081526020016000208054905081101561191d57600a60006010600087815260200190815260200160002083815481106118cf576118ce6152d7565b5b9060005260206000200154815260200190815260200160002060009054906101000a900460ff161561190a57818061190690615335565b9250505b808061191590615335565b915050611888565b5060008167ffffffffffffffff81111561193a57611939614532565b5b60405190808252806020026020018201604052801561197357816020015b6119606143b7565b8152602001906001900390816119585790505b509050600080600090505b6010600087815260200190815260200160002080549050811015611b8f5760006010600088815260200190815260200160002082815481106119c3576119c26152d7565b5b90600052602060002001549050600a600082815260200190815260200160002060009054906101000a900460ff1615611b7b5760078181548110611a0a57611a096152d7565b5b90600052602060002090600602016040518060e001604052908160008201548152602001600182018054611a3d906155ca565b80601f0160208091040260200160405190810160405280929190818152602001828054611a69906155ca565b8015611ab65780601f10611a8b57610100808354040283529160200191611ab6565b820191906000526020600020905b815481529060010190602001808311611a9957829003601f168201915b50505050508152602001600282015481526020016003820160009054906101000a900473ffffffffffffffffffffffffffffffffffffffff1673ffffffffffffffffffffffffffffffffffffffff1673ffffffffffffffffffffffffffffffffffffffff1681526020016003820160149054906101000a900460ff1615151515815260200160048201548152602001600582015481525050848481518110611b6157611b606152d7565b5b60200260200101819052508280611b7790615335565b9350505b508080611b8790615335565b91505061197e565b50819350505050919050565b60005481565b611ba96143b7565b3373ffffffffffffffffffffffffffffffffffffffff16600360009054906101000a900473ffffffffffffffffffffffffffffffffffffffff1673ffffffffffffffffffffffffffffffffffffffff1614611c0357600080fd5b6000600b6000848152602001908152602001600020549050611c296007600a8386613d29565b915050919050565b3373ffffffffffffffffffffffffffffffffffffffff16600360009054906101000a900473ffffffffffffffffffffffffffffffffffffffff1673ffffffffffffffffffffffffffffffffffffffff1614611c8b57600080fd5b6000611c968261336c565b9050611ca181613f57565b5050565b600080604051806080016040528060528152602001615f0860529139604051602001611cd19190615637565b604051602081830303815290604052805190602001206040518060400160405280600a81526020017f57656233204f4175746800000000000000000000000000000000000000000000815250604051602001611d2d9190615637565b604051602081830303815290604052805190602001206040518060400160405280600181526020017f3100000000000000000000000000000000000000000000000000000000000000815250604051602001611d899190615637565b604051602081830303815290604052805190602001206203113e30604051602001611db895949392919061565d565b6040516020818303038152906040528051906020012090506000816040518060400160405280601681526020017f4d6573736167652875696e74323536206e6f6e63652900000000000000000000815250604051602001611e199190615637565b6040516020818303038152906040528051906020012087604051602001611e419291906156b0565b60405160208183030381529060405280519060200120604051602001611e68929190615746565b6040516020818303038152906040528051906020012090508373ffffffffffffffffffffffffffffffffffffffff16611ea18683613ffa565b73ffffffffffffffffffffffffffffffffffffffff1614925050509392505050565b6000806000600f60008673ffffffffffffffffffffffffffffffffffffffff1673ffffffffffffffffffffffffffffffffffffffff16815260200190815260200160002060008581526020019081526020016000205490508473ffffffffffffffffffffffffffffffffffffffff16600c8281548110611f4657611f456152d7565b5b906000526020600020906008020160030160009054906101000a900473ffffffffffffffffffffffffffffffffffffffff1673ffffffffffffffffffffffffffffffffffffffff16148015611fbf575083600c8281548110611fab57611faa6152d7565b5b906000526020600020906008020160020154145b15611fd1576001819250925050611fda565b60008092509250505b9250929050565b600088805490509050886040518061012001604052808381526020018873ffffffffffffffffffffffffffffffffffffffff1681526020018781526020018681526020018581526020018481526020016000151581526020014281526020014281525090806001815401808255809150506001900390600052602060002090600902016000909190919091506000820151816000015560208201518160010160006101000a81548173ffffffffffffffffffffffffffffffffffffffff021916908373ffffffffffffffffffffffffffffffffffffffff16021790555060408201518160020190816120d39190615929565b5060608201518160030190816120e99190615929565b5060808201518160040190816120ff9190615929565b5060a08201518160050190816121159190615929565b5060c08201518160060160006101000a81548160ff02191690831515021790555060e08201518160070155610100820151816008015550508760008773ffffffffffffffffffffffffffffffffffffffff1673ffffffffffffffffffffffffffffffffffffffff168152602001908152602001600020819080600181540180825580915050600190039060005260206000200160009091909190915055600187600083815260200190815260200160002060006101000a81548160ff021916908315150217905550505050505050505050565b6121f06143b7565b82600083815260200190815260200160002060009054906101000a900460ff1661224f576040517f08c379a000000000000000000000000000000000000000000000000000000000815260040161224690615437565b60405180910390fd5b838281548110612262576122616152d7565b5b90600052602060002090600602016040518060e001604052908160008201548152602001600182018054612295906155ca565b80601f01602080910402602001604051908101604052809291908181526020018280546122c1906155ca565b801561230e5780601f106122e35761010080835404028352916020019161230e565b820191906000526020600020905b8154815290600101906020018083116122f157829003601f168201915b50505050508152602001600282015481526020016003820160009054906101000a900473ffffffffffffffffffffffffffffffffffffffff1673ffffffffffffffffffffffffffffffffffffffff1673ffffffffffffffffffffffffffffffffffffffff1681526020016003820160149054906101000a900460ff161515151581526020016004820154815260200160058201548152505090509392505050565b6000838583815481106123c5576123c46152d7565b5b90600052602060002090600602016001016040516123e39190615a7e565b908152602001604051809103902081905550600082600083815260200190815260200160002060006101000a81548160ff0219169083151502179055506001848281548110612435576124346152d7565b5b906000526020600020906006020160030160146101000a81548160ff02191690831515021790555042848281548110612471576124706152d7565b5b90600052602060002090600602016005018190555050505050565b60005b601160008381526020019081526020016000208054905081101561254e57600d60006011600085815260200190815260200160002083815481106124d6576124d56152d7565b5b9060005260206000200154815260200190815260200160002060009054906101000a900460ff161561253b5761253a60116000848152602001908152602001600020828154811061252a576125296152d7565b5b9060005260206000200154613f57565b5b808061254690615335565b91505061248f565b5050565b86600086815260200190815260200160002060009054906101000a900460ff166125b1576040517f08c379a00000000000000000000000000000000000000000000000000000000081526004016125a890615437565b60405180910390fd5b8573ffffffffffffffffffffffffffffffffffffffff168886815481106125db576125da6152d7565b5b906000526020600020906009020160010160009054906101000a900473ffffffffffffffffffffffffffffffffffffffff1673ffffffffffffffffffffffffffffffffffffffff1614612663576040517f08c379a000000000000000000000000000000000000000000000000000000000815260040161265a906154a3565b60405180910390fd5b6000888681548110612678576126776152d7565b5b90600052602060002090600902019050848160020190816126999190615929565b50838160030190816126ab9190615929565b50828160040190816126bd9190615929565b50818160050190816126cf9190615929565b50428160080181905550505050505050505050565b82600082815260200190815260200160002060009054906101000a900460ff16612743576040517f08c379a000000000000000000000000000000000000000000000000000000000815260040161273a90615437565b60405180910390fd5b8173ffffffffffffffffffffffffffffffffffffffff1684828154811061276d5761276c6152d7565b5b906000526020600020906009020160010160009054906101000a900473ffffffffffffffffffffffffffffffffffffffff1673ffffffffffffffffffffffffffffffffffffffff16146127f5576040517f08c379a00000000000000000000000000000000000000000000000000000000081526004016127ec906154a3565b60405180910390fd5b600084828154811061280a576128096152d7565b5b9060005260206000209060090201905060018160060160006101000a81548160ff021916908315150217905550428160080181905550600084600084815260200190815260200160002060006101000a81548160ff0219169083151502179055505050505050565b60008151835114612886576000905061289c565b61288f82614126565b61289884614126565b1490505b92915050565b600086836040516128b39190615637565b90815260200160405180910390205414612902576040517f08c379a00000000000000000000000000000000000000000000000000000000081526004016128f990615ae1565b60405180910390fd5b600088805490509050600073__$e47faa944e4dc2fafddac4070fbe11d151$__63b063152a856040518263ffffffff1660e01b81526004016129449190615b4b565b602060405180830381865af4158015612961573d6000803e3d6000fd5b505050506040513d601f19601f820116820180604052508101906129859190615b82565b9050896040518060e00160405280848152602001868152602001838152602001856129b057876129b3565b60005b73ffffffffffffffffffffffffffffffffffffffff168152602001600015158152602001428152602001428152509080600181540180825580915050600190039060005260206000209060060201600090919091909150600082015181600001556020820151816001019081612a299190615929565b506040820151816002015560608201518160030160006101000a81548173ffffffffffffffffffffffffffffffffffffffff021916908373ffffffffffffffffffffffffffffffffffffffff16021790555060808201518160030160146101000a81548160ff02191690831515021790555060a0820151816004015560c082015181600501555050818885604051612ac19190615637565b908152602001604051809103902081905550600187600084815260200190815260200160002060006101000a81548160ff02191690831515021790555088600084612b0c5786612b0f565b60005b73ffffffffffffffffffffffffffffffffffffffff1673ffffffffffffffffffffffffffffffffffffffff168152602001908152602001600020829080600181540180825580915050600190039060005260206000200160009091909190915055818660008381526020019081526020016000208190555050505050505050505050565b606060008460008473ffffffffffffffffffffffffffffffffffffffff1673ffffffffffffffffffffffffffffffffffffffff1681526020019081526020016000209050600080600090505b8280549050811015612c4f57856000848381548110612c0157612c006152d7565b5b9060005260206000200154815260200190815260200160002060009054906101000a900460ff1615612c3c578180612c3890615335565b9250505b8080612c4790615335565b915050612bdf565b5060008167ffffffffffffffff811115612c6c57612c6b614532565b5b604051908082528060200260200182016040528015612ca557816020015b612c92614353565b815260200190600190039081612c8a5790505b509050600080600090505b8480549050811015613048576000858281548110612cd157612cd06152d7565b5b9060005260206000200154905088600082815260200190815260200160002060009054906101000a900460ff1615613034578a8181548110612d1657612d156152d7565b5b906000526020600020906009020160405180610120016040529081600082015481526020016001820160009054906101000a900473ffffffffffffffffffffffffffffffffffffffff1673ffffffffffffffffffffffffffffffffffffffff1673ffffffffffffffffffffffffffffffffffffffff168152602001600282018054612da0906155ca565b80601f0160208091040260200160405190810160405280929190818152602001828054612dcc906155ca565b8015612e195780601f10612dee57610100808354040283529160200191612e19565b820191906000526020600020905b815481529060010190602001808311612dfc57829003601f168201915b50505050508152602001600382018054612e32906155ca565b80601f0160208091040260200160405190810160405280929190818152602001828054612e5e906155ca565b8015612eab5780601f10612e8057610100808354040283529160200191612eab565b820191906000526020600020905b815481529060010190602001808311612e8e57829003601f168201915b50505050508152602001600482018054612ec4906155ca565b80601f0160208091040260200160405190810160405280929190818152602001828054612ef0906155ca565b8015612f3d5780601f10612f1257610100808354040283529160200191612f3d565b820191906000526020600020905b815481529060010190602001808311612f2057829003601f168201915b50505050508152602001600582018054612f56906155ca565b80601f0160208091040260200160405190810160405280929190818152602001828054612f82906155ca565b8015612fcf5780601f10612fa457610100808354040283529160200191612fcf565b820191906000526020600020905b815481529060010190602001808311612fb257829003601f168201915b505050505081526020016006820160009054906101000a900460ff161515151581526020016007820154815260200160088201548152505084848151811061301a576130196152d7565b5b6020026020010181905250828061303090615335565b9350505b50808061304090615335565b915050612cb0565b5081945050505050949350505050565b613060614353565b828281548110613073576130726152d7565b5b906000526020600020906009020160405180610120016040529081600082015481526020016001820160009054906101000a900473ffffffffffffffffffffffffffffffffffffffff1673ffffffffffffffffffffffffffffffffffffffff1673ffffffffffffffffffffffffffffffffffffffff1681526020016002820180546130fd906155ca565b80601f0160208091040260200160405190810160405280929190818152602001828054613129906155ca565b80156131765780601f1061314b57610100808354040283529160200191613176565b820191906000526020600020905b81548152906001019060200180831161315957829003601f168201915b5050505050815260200160038201805461318f906155ca565b80601f01602080910402602001604051908101604052809291908181526020018280546131bb906155ca565b80156132085780601f106131dd57610100808354040283529160200191613208565b820191906000526020600020905b8154815290600101906020018083116131eb57829003601f168201915b50505050508152602001600482018054613221906155ca565b80601f016020809104026020016040519081016040528092919081815260200182805461324d906155ca565b801561329a5780601f1061326f5761010080835404028352916020019161329a565b820191906000526020600020905b81548152906001019060200180831161327d57829003601f168201915b505050505081526020016005820180546132b3906155ca565b80601f01602080910402602001604051908101604052809291908181526020018280546132df906155ca565b801561332c5780601f106133015761010080835404028352916020019161332c565b820191906000526020600020905b81548152906001019060200180831161330f57829003601f168201915b505050505081526020016006820160009054906101000a900460ff1615151515815260200160078201548152602001600882015481525050905092915050565b600061337d600c600d600e85614156565b9050919050565b600083600083815260200190815260200160002060009054906101000a900460ff166133e5576040517f08c379a00000000000000000000000000000000000000000000000000000000081526004016133dc90615437565b60405180910390fd5b61349b8583815481106133fb576133fa6152d7565b5b90600052602060002090600602016001018054613417906155ca565b80601f0160208091040260200160405190810160405280929190818152602001828054613443906155ca565b80156134905780601f1061346557610100808354040283529160200191613490565b820191906000526020600020905b81548152906001019060200180831161347357829003601f168201915b505050505084612872565b6134da576040517f08c379a00000000000000000000000000000000000000000000000000000000081526004016134d19061557b565b60405180910390fd5b819050949350505050565b606060008460008473ffffffffffffffffffffffffffffffffffffffff1673ffffffffffffffffffffffffffffffffffffffff1681526020019081526020016000209050600080600090505b82805490508110156135a157856000848381548110613553576135526152d7565b5b9060005260206000200154815260200190815260200160002060009054906101000a900460ff161561358e57818061358a90615335565b9250505b808061359990615335565b915050613531565b5060008167ffffffffffffffff8111156135be576135bd614532565b5b6040519080825280602002602001820160405280156135f757816020015b6135e46143b7565b8152602001906001900390816135dc5790505b509050600080600090505b84805490508110156137ed576000858281548110613623576136226152d7565b5b9060005260206000200154905088600082815260200190815260200160002060009054906101000a900460ff16156137d9578a8181548110613668576136676152d7565b5b90600052602060002090600602016040518060e00160405290816000820154815260200160018201805461369b906155ca565b80601f01602080910402602001604051908101604052809291908181526020018280546136c7906155ca565b80156137145780601f106136e957610100808354040283529160200191613714565b820191906000526020600020905b8154815290600101906020018083116136f757829003601f168201915b50505050508152602001600282015481526020016003820160009054906101000a900473ffffffffffffffffffffffffffffffffffffffff1673ffffffffffffffffffffffffffffffffffffffff1673ffffffffffffffffffffffffffffffffffffffff1681526020016003820160149054906101000a900460ff16151515158152602001600482015481526020016005820154815250508484815181106137bf576137be6152d7565b5b602002602001018190525082806137d590615335565b9350505b5080806137e590615335565b915050613602565b5081945050505050949350505050565b85600084815260200190815260200160002060009054906101000a900460ff1661385c576040517f08c379a000000000000000000000000000000000000000000000000000000000815260040161385390615bfb565b60405180910390fd5b84600083815260200190815260200160002060009054906101000a900460ff166138bb576040517f08c379a00000000000000000000000000000000000000000000000000000000081526004016138b290615c67565b60405180910390fd5b8073ffffffffffffffffffffffffffffffffffffffff168484815481106138e5576138e46152d7565b5b906000526020600020906009020160010160009054906101000a900473ffffffffffffffffffffffffffffffffffffffff1673ffffffffffffffffffffffffffffffffffffffff161461396d576040517f08c379a0000000000000000000000000000000000000000000000000000000008152600401613964906154a3565b60405180910390fd5b60008c805490509050600084838560405160200161398d93929190615cf0565b6040516020818303038152906040528051906020012090508d6040518061010001604052808481526020018781526020018681526020018573ffffffffffffffffffffffffffffffffffffffff16815260200183815260200160001515815260200142815260200142815250908060018154018082558091505060019003906000526020600020906008020160009091909190915060008201518160000155602082015181600101556040820151816002015560608201518160030160006101000a81548173ffffffffffffffffffffffffffffffffffffffff021916908373ffffffffffffffffffffffffffffffffffffffff1602179055506080820151816004015560a08201518160050160006101000a81548160ff02191690831515021790555060c0820151816006015560e08201518160070155505060018d600084815260200190815260200160002060006101000a81548160ff021916908315150217905550818c600083815260200190815260200160002081905550818b60008573ffffffffffffffffffffffffffffffffffffffff1673ffffffffffffffffffffffffffffffffffffffff1681526020019081526020016000206000868152602001908152602001600020819055508960008681526020019081526020016000208490806001815401808255809150506001900390600052602060002001600090919091909150558860008581526020019081526020016000208290806001815401808255809150506001900390600052602060002001600090919091909150555050505050505050505050505050565b613be761440f565b82600083815260200190815260200160002060009054906101000a900460ff16613c46576040517f08c379a0000000000000000000000000000000000000000000000000000000008152600401613c3d90615437565b60405180910390fd5b838281548110613c5957613c586152d7565b5b9060005260206000209060080201604051806101000160405290816000820154815260200160018201548152602001600282015481526020016003820160009054906101000a900473ffffffffffffffffffffffffffffffffffffffff1673ffffffffffffffffffffffffffffffffffffffff1673ffffffffffffffffffffffffffffffffffffffff168152602001600482015481526020016005820160009054906101000a900460ff161515151581526020016006820154815260200160078201548152505090509392505050565b613d316143b7565b83600084815260200190815260200160002060009054906101000a900460ff16613d90576040517f08c379a0000000000000000000000000000000000000000000000000000000008152600401613d8790615437565b60405180910390fd5b81858481548110613da457613da36152d7565b5b90600052602060002090600602016002015414613df6576040517f08c379a0000000000000000000000000000000000000000000000000000000008152600401613ded9061557b565b60405180910390fd5b848381548110613e0957613e086152d7565b5b90600052602060002090600602016040518060e001604052908160008201548152602001600182018054613e3c906155ca565b80601f0160208091040260200160405190810160405280929190818152602001828054613e68906155ca565b8015613eb55780601f10613e8a57610100808354040283529160200191613eb5565b820191906000526020600020905b815481529060010190602001808311613e9857829003601f168201915b50505050508152602001600282015481526020016003820160009054906101000a900473ffffffffffffffffffffffffffffffffffffffff1673ffffffffffffffffffffffffffffffffffffffff1673ffffffffffffffffffffffffffffffffffffffff1681526020016003820160149054906101000a900460ff16151515158152602001600482015481526020016005820154815250509050949350505050565b613f64600c600d8361425e565b600c8181548110613f7857613f776152d7565b5b906000526020600020906008020160030160009054906101000a900473ffffffffffffffffffffffffffffffffffffffff1673ffffffffffffffffffffffffffffffffffffffff167f3446a75847a6ec140826047c567c6387e91c7a1e53a993151f87c730467201e342604051613fef9190614ce9565b60405180910390a250565b6000806000806041865114614044576040517f08c379a000000000000000000000000000000000000000000000000000000000815260040161403b90615d79565b60405180910390fd5b6020860151925060408601519150606086015160001a9050601b8160ff16101561407857601b816140759190615da6565b90505b601b8160ff16148061408d5750601c8160ff16145b6140cc576040517f08c379a00000000000000000000000000000000000000000000000000000000081526004016140c390615e27565b60405180910390fd5b600185828585604051600081526020016040526040516140ef9493929190615e56565b6020604051602081039080840390855afa158015614111573d6000803e3d6000fd5b50505060206040510351935050505092915050565b6000816040516020016141399190615637565b604051602081830303815290604052805190602001209050919050565b600083600084600085815260200190815260200160002054815260200190815260200160002060009054906101000a900460ff166141c9576040517f08c379a00000000000000000000000000000000000000000000000000000000081526004016141c090615ee7565b60405180910390fd5b818584600085815260200190815260200160002054815481106141ef576141ee6152d7565b5b90600052602060002090600802016004015414614241576040517f08c379a00000000000000000000000000000000000000000000000000000000081526004016142389061557b565b60405180910390fd5b826000838152602001908152602001600020549050949350505050565b81600082815260200190815260200160002060009054906101000a900460ff166142bd576040517f08c379a00000000000000000000000000000000000000000000000000000000081526004016142b490615ee7565b60405180910390fd5b600082600083815260200190815260200160002060006101000a81548160ff02191690831515021790555060018382815481106142fd576142fc6152d7565b5b906000526020600020906008020160050160006101000a81548160ff02191690831515021790555042838281548110614339576143386152d7565b5b906000526020600020906008020160070181905550505050565b60405180610120016040528060008152602001600073ffffffffffffffffffffffffffffffffffffffff1681526020016060815260200160608152602001606081526020016060815260200160001515815260200160008152602001600081525090565b6040518060e00160405280600081526020016060815260200160008019168152602001600073ffffffffffffffffffffffffffffffffffffffff16815260200160001515815260200160008152602001600081525090565b604051806101000160405280600081526020016000815260200160008152602001600073ffffffffffffffffffffffffffffffffffffffff1681526020016000801916815260200160001515815260200160008152602001600081525090565b6000604051905090565b600080fd5b600080fd5b600073ffffffffffffffffffffffffffffffffffffffff82169050919050565b60006144ae82614483565b9050919050565b6144be816144a3565b81146144c957600080fd5b50565b6000813590506144db816144b5565b92915050565b6000819050919050565b6144f4816144e1565b81146144ff57600080fd5b50565b600081359050614511816144eb565b92915050565b600080fd5b600080fd5b6000601f19601f8301169050919050565b7f4e487b7100000000000000000000000000000000000000000000000000000000600052604160045260246000fd5b61456a82614521565b810181811067ffffffffffffffff8211171561458957614588614532565b5b80604052505050565b600061459c61446f565b90506145a88282614561565b919050565b600067ffffffffffffffff8211156145c8576145c7614532565b5b6145d182614521565b9050602081019050919050565b82818337600083830152505050565b60006146006145fb846145ad565b614592565b90508281526020810184848401111561461c5761461b61451c565b5b6146278482856145de565b509392505050565b600082601f83011261464457614643614517565b5b81356146548482602086016145ed565b91505092915050565b6000806000806080858703121561467757614676614479565b5b6000614685878288016144cc565b945050602061469687828801614502565b93505060406146a787828801614502565b925050606085013567ffffffffffffffff8111156146c8576146c761447e565b5b6146d48782880161462f565b91505092959194509250565b6000819050919050565b6146f3816146e0565b82525050565b600081519050919050565b600082825260208201905092915050565b6000819050602082019050919050565b61472e816144e1565b82525050565b61473d816144a3565b82525050565b600081519050919050565b600082825260208201905092915050565b60005b8381101561477d578082015181840152602081019050614762565b60008484015250505050565b600061479482614743565b61479e818561474e565b93506147ae81856020860161475f565b6147b781614521565b840191505092915050565b60008115159050919050565b6147d7816147c2565b82525050565b6000610120830160008301516147f66000860182614725565b5060208301516148096020860182614734565b50604083015184820360408601526148218282614789565b9150506060830151848203606086015261483b8282614789565b915050608083015184820360808601526148558282614789565b91505060a083015184820360a086015261486f8282614789565b91505060c083015161488460c08601826147ce565b5060e083015161489760e0860182614725565b506101008301516148ac610100860182614725565b508091505092915050565b60006148c383836147dd565b905092915050565b6000602082019050919050565b60006148e3826146f9565b6148ed8185614704565b9350836020820285016148ff85614715565b8060005b8581101561493b578484038952815161491c85826148b7565b9450614927836148cb565b925060208a01995050600181019050614903565b50829750879550505050505092915050565b600060408201905061496260008301856146ea565b818103602083015261497481846148d8565b90509392505050565b600067ffffffffffffffff82111561499857614997614532565b5b6149a182614521565b9050602081019050919050565b60006149c16149bc8461497d565b614592565b9050828152602081018484840111156149dd576149dc61451c565b5b6149e88482856145de565b509392505050565b600082601f830112614a0557614a04614517565b5b8135614a158482602086016149ae565b91505092915050565b60008060008060808587031215614a3857614a37614479565b5b600085013567ffffffffffffffff811115614a5657614a5561447e565b5b614a62878288016149f0565b945050602085013567ffffffffffffffff811115614a8357614a8261447e565b5b614a8f878288016149f0565b935050604085013567ffffffffffffffff811115614ab057614aaf61447e565b5b614abc878288016149f0565b925050606085013567ffffffffffffffff811115614add57614adc61447e565b5b614ae9878288016149f0565b91505092959194509250565b600060208284031215614b0b57614b0a614479565b5b6000614b1984828501614502565b91505092915050565b614b2b816146e0565b82525050565b600060e083016000830151614b496000860182614725565b5060208301518482036020860152614b618282614789565b9150506040830151614b766040860182614b22565b506060830151614b896060860182614734565b506080830151614b9c60808601826147ce565b5060a0830151614baf60a0860182614725565b5060c0830151614bc260c0860182614725565b508091505092915050565b60006020820190508181036000830152614be78184614b31565b905092915050565b600080600080600060a08688031215614c0b57614c0a614479565b5b6000614c1988828901614502565b955050602086013567ffffffffffffffff811115614c3a57614c3961447e565b5b614c46888289016149f0565b945050604086013567ffffffffffffffff811115614c6757614c6661447e565b5b614c73888289016149f0565b935050606086013567ffffffffffffffff811115614c9457614c9361447e565b5b614ca0888289016149f0565b925050608086013567ffffffffffffffff811115614cc157614cc061447e565b5b614ccd888289016149f0565b9150509295509295909350565b614ce3816144e1565b82525050565b6000602082019050614cfe6000830184614cda565b92915050565b600060208284031215614d1a57614d19614479565b5b600082013567ffffffffffffffff811115614d3857614d3761447e565b5b614d44848285016149f0565b91505092915050565b600060208284031215614d6357614d62614479565b5b6000614d71848285016144cc565b91505092915050565b60006020820190508181036000830152614d9481846148d8565b905092915050565b600061012083016000830151614db56000860182614725565b506020830151614dc86020860182614734565b5060408301518482036040860152614de08282614789565b91505060608301518482036060860152614dfa8282614789565b91505060808301518482036080860152614e148282614789565b91505060a083015184820360a0860152614e2e8282614789565b91505060c0830151614e4360c08601826147ce565b5060e0830151614e5660e0860182614725565b50610100830151614e6b610100860182614725565b508091505092915050565b60006020820190508181036000830152614e908184614d9c565b905092915050565b614ea1816146e0565b8114614eac57600080fd5b50565b600081359050614ebe81614e98565b92915050565b600060208284031215614eda57614ed9614479565b5b6000614ee884828501614eaf565b91505092915050565b600081519050919050565b600082825260208201905092915050565b6000819050602082019050919050565b600060e083016000830151614f356000860182614725565b5060208301518482036020860152614f4d8282614789565b9150506040830151614f626040860182614b22565b506060830151614f756060860182614734565b506080830151614f8860808601826147ce565b5060a0830151614f9b60a0860182614725565b5060c0830151614fae60c0860182614725565b508091505092915050565b6000614fc58383614f1d565b905092915050565b6000602082019050919050565b6000614fe582614ef1565b614fef8185614efc565b93508360208202850161500185614f0d565b8060005b8581101561503d578484038952815161501e8582614fb9565b945061502983614fcd565b925060208a01995050600181019050615005565b50829750879550505050505092915050565b600060208201905081810360008301526150698184614fda565b905092915050565b600080600080600060a0868803121561508d5761508c614479565b5b600061509b88828901614502565b95505060206150ac88828901614502565b94505060406150bd888289016144cc565b93505060606150ce88828901614502565b925050608086013567ffffffffffffffff8111156150ef576150ee61447e565b5b6150fb8882890161462f565b9150509295509295909350565b600067ffffffffffffffff82111561512357615122614532565b5b602082029050602081019050919050565b600080fd5b600061514c61514784615108565b614592565b9050808382526020820190506020840283018581111561516f5761516e615134565b5b835b8181101561519857806151848882614eaf565b845260208401935050602081019050615171565b5050509392505050565b600082601f8301126151b7576151b6614517565b5b81356151c7848260208601615139565b91505092915050565b6000602082840312156151e6576151e5614479565b5b600082013567ffffffffffffffff8111156152045761520361447e565b5b615210848285016151a2565b91505092915050565b610100820160008201516152306000850182614725565b5060208201516152436020850182614725565b5060408201516152566040850182614725565b5060608201516152696060850182614734565b50608082015161527c6080850182614b22565b5060a082015161528f60a08501826147ce565b5060c08201516152a260c0850182614725565b5060e08201516152b560e0850182614725565b50505050565b6000610100820190506152d16000830184615219565b92915050565b7f4e487b7100000000000000000000000000000000000000000000000000000000600052603260045260246000fd5b7f4e487b7100000000000000000000000000000000000000000000000000000000600052601160045260246000fd5b6000615340826144e1565b91507fffffffffffffffffffffffffffffffffffffffffffffffffffffffffffffffff820361537257615371615306565b5b600182019050919050565b6000615388826144e1565b9150615393836144e1565b92508282039050818111156153ab576153aa615306565b5b92915050565b60006040820190506153c66000830185614cda565b6153d36020830184614cda565b9392505050565b600082825260208201905092915050565b7f6e6f7420666f756e640000000000000000000000000000000000000000000000600082015250565b60006154216009836153da565b915061542c826153eb565b602082019050919050565b6000602082019050818103600083015261545081615414565b9050919050565b7f756e617574686f72697a65640000000000000000000000000000000000000000600082015250565b600061548d600c836153da565b915061549882615457565b602082019050919050565b600060208201905081810360008301526154bc81615480565b9050919050565b7f646f6d61696e2069732072657175697265640000000000000000000000000000600082015250565b60006154f96012836153da565b9150615504826154c3565b602082019050919050565b60006020820190508181036000830152615528816154ec565b9050919050565b7f6261642072657175657374000000000000000000000000000000000000000000600082015250565b6000615565600b836153da565b91506155708261552f565b602082019050919050565b6000602082019050818103600083015261559481615558565b9050919050565b7f4e487b7100000000000000000000000000000000000000000000000000000000600052602260045260246000fd5b600060028204905060018216806155e257607f821691505b6020821081036155f5576155f461559b565b5b50919050565b600081905092915050565b600061561182614743565b61561b81856155fb565b935061562b81856020860161475f565b80840191505092915050565b60006156438284615606565b915081905092915050565b615657816144a3565b82525050565b600060a08201905061567260008301886146ea565b61567f60208301876146ea565b61568c60408301866146ea565b6156996060830185614cda565b6156a6608083018461564e565b9695505050505050565b60006040820190506156c560008301856146ea565b6156d26020830184614cda565b9392505050565b7f1901000000000000000000000000000000000000000000000000000000000000600082015250565b600061570f6002836155fb565b915061571a826156d9565b600282019050919050565b6000819050919050565b61574061573b826146e0565b615725565b82525050565b600061575182615702565b915061575d828561572f565b60208201915061576d828461572f565b6020820191508190509392505050565b60008190508160005260206000209050919050565b60006020601f8301049050919050565b600082821b905092915050565b6000600883026157df7fffffffffffffffffffffffffffffffffffffffffffffffffffffffffffffffff826157a2565b6157e986836157a2565b95508019841693508086168417925050509392505050565b6000819050919050565b600061582661582161581c846144e1565b615801565b6144e1565b9050919050565b6000819050919050565b6158408361580b565b61585461584c8261582d565b8484546157af565b825550505050565b600090565b61586961585c565b615874818484615837565b505050565b5b818110156158985761588d600082615861565b60018101905061587a565b5050565b601f8211156158dd576158ae8161577d565b6158b784615792565b810160208510156158c6578190505b6158da6158d285615792565b830182615879565b50505b505050565b600082821c905092915050565b6000615900600019846008026158e2565b1980831691505092915050565b600061591983836158ef565b9150826002028217905092915050565b61593282614743565b67ffffffffffffffff81111561594b5761594a614532565b5b61595582546155ca565b61596082828561589c565b600060209050601f8311600181146159935760008415615981578287015190505b61598b858261590d565b8655506159f3565b601f1984166159a18661577d565b60005b828110156159c9578489015182556001820191506020850194506020810190506159a4565b868310156159e657848901516159e2601f8916826158ef565b8355505b6001600288020188555050505b505050505050565b60008154615a08816155ca565b615a1281866155fb565b94506001821660008114615a2d5760018114615a4257615a75565b60ff1983168652811515820286019350615a75565b615a4b8561577d565b60005b83811015615a6d57815481890152600182019150602081019050615a4e565b838801955050505b50505092915050565b6000615a8a82846159fb565b915081905092915050565b7f647570696361746520646f6d61696e20656e7472790000000000000000000000600082015250565b6000615acb6015836153da565b9150615ad682615a95565b602082019050919050565b60006020820190508181036000830152615afa81615abe565b9050919050565b600082825260208201905092915050565b6000615b1d82614743565b615b278185615b01565b9350615b3781856020860161475f565b615b4081614521565b840191505092915050565b60006020820190508181036000830152615b658184615b12565b905092915050565b600081519050615b7c81614e98565b92915050565b600060208284031215615b9857615b97614479565b5b6000615ba684828501615b6d565b91505092915050565b7f43617264206e6f7420666f756e64000000000000000000000000000000000000600082015250565b6000615be5600e836153da565b9150615bf082615baf565b602082019050919050565b60006020820190508181036000830152615c1481615bd8565b9050919050565b7f64417070206e6f7420666f756e64000000000000000000000000000000000000600082015250565b6000615c51600e836153da565b9150615c5c82615c1b565b602082019050919050565b60006020820190508181036000830152615c8081615c44565b9050919050565b6000819050919050565b615ca2615c9d826144e1565b615c87565b82525050565b60008160601b9050919050565b6000615cc082615ca8565b9050919050565b6000615cd282615cb5565b9050919050565b615cea615ce5826144a3565b615cc7565b82525050565b6000615cfc8286615c91565b602082019150615d0c8285615cd9565b601482019150615d1c8284615c91565b602082019150819050949350505050565b7f496e76616c6964207369676e6174757265206c656e6774680000000000000000600082015250565b6000615d636018836153da565b9150615d6e82615d2d565b602082019050919050565b60006020820190508181036000830152615d9281615d56565b9050919050565b600060ff82169050919050565b6000615db182615d99565b9150615dbc83615d99565b9250828201905060ff811115615dd557615dd4615306565b5b92915050565b7f496e76616c6964207369676e6174757265207265636f76657279206964000000600082015250565b6000615e11601d836153da565b9150615e1c82615ddb565b602082019050919050565b60006020820190508181036000830152615e4081615e04565b9050919050565b615e5081615d99565b82525050565b6000608082019050615e6b60008301876146ea565b615e786020830186615e47565b615e8560408301856146ea565b615e9260608301846146ea565b95945050505050565b7f696e76616c69642f64656c6574656420746f6b656e0000000000000000000000600082015250565b6000615ed16015836153da565b9150615edc82615e9b565b602082019050919050565b60006020820190508181036000830152615f0081615ec4565b905091905056fe454950373132446f6d61696e28737472696e67206e616d652c737472696e672076657273696f6e2c75696e7432353620636861696e49642c6164647265737320766572696679696e67436f6e747261637429a2646970667358221220de9f3047e4b6832b1604200b54cfbc335170dfd3b09ed78f62e035d39f045b3764736f6c63430008140033",
  "linkReferences": {
    "contracts/extra/Utils.sol": {
      "Utils": [
        {
          "length": 20,
          "start": 777
        },
        {
          "length": 20,
          "start": 13864
        }
      ]
    }
  },
  "deployedLinkReferences": {
    "contracts/extra/Utils.sol": {
      "Utils": [
        {
          "length": 20,
          "start": 10511
        }
      ]
    }
  }
}