{
  "_format": "hh-sol-artifact-1",
  "contractName": "OAuth",
  "sourceName": "contracts/OAuth.sol",
  "abi": [
    {
      "inputs": [
        {
          "internalType": "string",
          "name": "_defaultToken",
          "type": "string"
        }
      ],
      "stateMutability": "nonpayable",
      "type": "constructor"
    },
    {
      "inputs": [
        {
          "internalType": "address",
          "name": "owner",
          "type": "address"
        }
      ],
      "name": "OwnableInvalidOwner",
      "type": "error"
    },
    {
      "inputs": [
        {
          "internalType": "address",
          "name": "account",
          "type": "address"
        }
      ],
      "name": "OwnableUnauthorizedAccount",
      "type": "error"
    },
    {
      "anonymous": false,
      "inputs": [
        {
          "indexed": false,
          "internalType": "uint256",
          "name": "id",
          "type": "uint256"
        },
        {
          "indexed": false,
          "internalType": "string",
          "name": "actionType",
          "type": "string"
        },
        {
          "indexed": true,
          "internalType": "address",
          "name": "executor",
          "type": "address"
        },
        {
          "indexed": false,
          "internalType": "uint256",
          "name": "timestamp",
          "type": "uint256"
        }
      ],
      "name": "CardAction",
      "type": "event"
    },
    {
      "anonymous": false,
      "inputs": [
        {
          "indexed": true,
          "internalType": "address",
          "name": "previousOwner",
          "type": "address"
        },
        {
          "indexed": true,
          "internalType": "address",
          "name": "newOwner",
          "type": "address"
        }
      ],
      "name": "OwnershipTransferred",
      "type": "event"
    },
    {
      "anonymous": false,
      "inputs": [
        {
          "indexed": false,
          "internalType": "uint256",
          "name": "id",
          "type": "uint256"
        },
        {
          "indexed": false,
          "internalType": "string",
          "name": "actionType",
          "type": "string"
        },
        {
          "indexed": true,
          "internalType": "address",
          "name": "executor",
          "type": "address"
        },
        {
          "indexed": false,
          "internalType": "uint256",
          "name": "timestamp",
          "type": "uint256"
        }
      ],
      "name": "ProviderAction",
      "type": "event"
    },
    {
      "anonymous": false,
      "inputs": [
        {
          "indexed": false,
          "internalType": "uint256",
          "name": "id",
          "type": "uint256"
        },
        {
          "indexed": false,
          "internalType": "string",
          "name": "actionType",
          "type": "string"
        },
        {
          "indexed": true,
          "internalType": "address",
          "name": "executor",
          "type": "address"
        },
        {
          "indexed": false,
          "internalType": "uint256",
          "name": "timestamp",
          "type": "uint256"
        }
      ],
      "name": "SessionTokenAction",
      "type": "event"
    },
    {
      "inputs": [
        {
          "internalType": "string",
          "name": "str1",
          "type": "string"
        },
        {
          "internalType": "string",
          "name": "str2",
          "type": "string"
        }
      ],
      "name": "compareStrings",
      "outputs": [
        {
          "internalType": "bool",
          "name": "",
          "type": "bool"
        }
      ],
      "stateMutability": "pure",
      "type": "function"
    },
    {
      "inputs": [
        {
          "internalType": "string",
          "name": "_username",
          "type": "string"
        },
        {
          "internalType": "string",
          "name": "_pfp",
          "type": "string"
        },
        {
          "internalType": "string",
          "name": "_emailAddress",
          "type": "string"
        },
        {
          "internalType": "string",
          "name": "_bio",
          "type": "string"
        }
      ],
      "name": "createCard",
      "outputs": [],
      "stateMutability": "nonpayable",
      "type": "function"
    },
    {
      "inputs": [
        {
          "internalType": "uint256",
          "name": "_cardId",
          "type": "uint256"
        },
        {
          "internalType": "uint256",
          "name": "_dappId",
          "type": "uint256"
        },
        {
          "internalType": "address",
          "name": "_user",
          "type": "address"
        },
        {
          "internalType": "string",
          "name": "_message",
          "type": "string"
        },
        {
          "internalType": "bytes",
          "name": "_signature",
          "type": "bytes"
        }
      ],
      "name": "createSession",
      "outputs": [
        {
          "internalType": "bytes32",
          "name": "",
          "type": "bytes32"
        }
      ],
      "stateMutability": "nonpayable",
      "type": "function"
    },
    {
      "inputs": [
        {
          "internalType": "bytes32",
          "name": "_token",
          "type": "bytes32"
        }
      ],
      "name": "deactivateSessionFromToken",
      "outputs": [],
      "stateMutability": "nonpayable",
      "type": "function"
    },
    {
      "inputs": [
        {
          "internalType": "uint256",
          "name": "_id",
          "type": "uint256"
        }
      ],
      "name": "deleteCard",
      "outputs": [],
      "stateMutability": "nonpayable",
      "type": "function"
    },
    {
      "inputs": [
        {
          "internalType": "uint256",
          "name": "_id",
          "type": "uint256"
        }
      ],
      "name": "deleteDapp",
      "outputs": [],
      "stateMutability": "nonpayable",
      "type": "function"
    },
    {
      "inputs": [
        {
          "internalType": "bytes32",
          "name": "_token",
          "type": "bytes32"
        }
      ],
      "name": "fetchUserInfo",
      "outputs": [
        {
          "components": [
            {
              "internalType": "uint256",
              "name": "id",
              "type": "uint256"
            },
            {
              "internalType": "address",
              "name": "owner",
              "type": "address"
            },
            {
              "internalType": "string",
              "name": "username",
              "type": "string"
            },
            {
              "internalType": "string",
              "name": "pfp",
              "type": "string"
            },
            {
              "internalType": "string",
              "name": "emailAddress",
              "type": "string"
            },
            {
              "internalType": "string",
              "name": "bio",
              "type": "string"
            },
            {
              "internalType": "bool",
              "name": "isDeleted",
              "type": "bool"
            },
            {
              "internalType": "uint256",
              "name": "createdAt",
              "type": "uint256"
            },
            {
              "internalType": "uint256",
              "name": "updatedAt",
              "type": "uint256"
            }
          ],
          "internalType": "struct OAuth.CardStruct",
          "name": "Card",
          "type": "tuple"
        }
      ],
      "stateMutability": "view",
      "type": "function"
    },
    {
      "inputs": [],
      "name": "getBalance",
      "outputs": [
        {
          "internalType": "uint256",
          "name": "",
          "type": "uint256"
        }
      ],
      "stateMutability": "view",
      "type": "function"
    },
    {
      "inputs": [
        {
          "internalType": "uint256",
          "name": "_dappId",
          "type": "uint256"
        }
      ],
      "name": "getDapp",
      "outputs": [
        {
          "components": [
            {
              "internalType": "uint256",
              "name": "id",
              "type": "uint256"
            },
            {
              "internalType": "string",
              "name": "domain",
              "type": "string"
            },
            {
              "internalType": "string",
              "name": "accessToken",
              "type": "string"
            },
            {
              "internalType": "address",
              "name": "owner",
              "type": "address"
            },
            {
              "internalType": "bool",
              "name": "isDeleted",
              "type": "bool"
            },
            {
              "internalType": "uint256",
              "name": "createdAt",
              "type": "uint256"
            },
            {
              "internalType": "uint256",
              "name": "updatedAt",
              "type": "uint256"
            }
          ],
          "internalType": "struct OAuth.ProviderDappStruct",
          "name": "dApp",
          "type": "tuple"
        }
      ],
      "stateMutability": "view",
      "type": "function"
    },
    {
      "inputs": [
        {
          "internalType": "string",
          "name": "_token",
          "type": "string"
        }
      ],
      "name": "getDappFromToken",
      "outputs": [
        {
          "components": [
            {
              "internalType": "uint256",
              "name": "id",
              "type": "uint256"
            },
            {
              "internalType": "string",
              "name": "domain",
              "type": "string"
            },
            {
              "internalType": "string",
              "name": "accessToken",
              "type": "string"
            },
            {
              "internalType": "address",
              "name": "owner",
              "type": "address"
            },
            {
              "internalType": "bool",
              "name": "isDeleted",
              "type": "bool"
            },
            {
              "internalType": "uint256",
              "name": "createdAt",
              "type": "uint256"
            },
            {
              "internalType": "uint256",
              "name": "updatedAt",
              "type": "uint256"
            }
          ],
          "internalType": "struct OAuth.ProviderDappStruct",
          "name": "dApp",
          "type": "tuple"
        }
      ],
      "stateMutability": "view",
      "type": "function"
    },
    {
      "inputs": [
        {
          "internalType": "string",
          "name": "_domain",
          "type": "string"
        }
      ],
      "name": "getDappIdFromDomain",
      "outputs": [
        {
          "internalType": "uint256",
          "name": "",
          "type": "uint256"
        }
      ],
      "stateMutability": "view",
      "type": "function"
    },
    {
      "inputs": [
        {
          "internalType": "address",
          "name": "_user",
          "type": "address"
        }
      ],
      "name": "getDapps",
      "outputs": [
        {
          "components": [
            {
              "internalType": "uint256",
              "name": "id",
              "type": "uint256"
            },
            {
              "internalType": "string",
              "name": "domain",
              "type": "string"
            },
            {
              "internalType": "string",
              "name": "accessToken",
              "type": "string"
            },
            {
              "internalType": "address",
              "name": "owner",
              "type": "address"
            },
            {
              "internalType": "bool",
              "name": "isDeleted",
              "type": "bool"
            },
            {
              "internalType": "uint256",
              "name": "createdAt",
              "type": "uint256"
            },
            {
              "internalType": "uint256",
              "name": "updatedAt",
              "type": "uint256"
            }
          ],
          "internalType": "struct OAuth.ProviderDappStruct[]",
          "name": "dApps",
          "type": "tuple[]"
        }
      ],
      "stateMutability": "view",
      "type": "function"
    },
    {
      "inputs": [
        {
          "internalType": "address",
          "name": "_user",
          "type": "address"
        },
        {
          "internalType": "uint256",
          "name": "_cardId",
          "type": "uint256"
        }
      ],
      "name": "getDappsConnectedToCard",
      "outputs": [
        {
          "components": [
            {
              "internalType": "uint256",
              "name": "id",
              "type": "uint256"
            },
            {
              "internalType": "string",
              "name": "domain",
              "type": "string"
            },
            {
              "internalType": "string",
              "name": "accessToken",
              "type": "string"
            },
            {
              "internalType": "address",
              "name": "owner",
              "type": "address"
            },
            {
              "internalType": "bool",
              "name": "isDeleted",
              "type": "bool"
            },
            {
              "internalType": "uint256",
              "name": "createdAt",
              "type": "uint256"
            },
            {
              "internalType": "uint256",
              "name": "updatedAt",
              "type": "uint256"
            }
          ],
          "internalType": "struct OAuth.ProviderDappStruct[]",
          "name": "dApps",
          "type": "tuple[]"
        }
      ],
      "stateMutability": "view",
      "type": "function"
    },
    {
      "inputs": [
        {
          "internalType": "uint256",
          "name": "_cardId",
          "type": "uint256"
        }
      ],
      "name": "getUserCard",
      "outputs": [
        {
          "components": [
            {
              "internalType": "uint256",
              "name": "id",
              "type": "uint256"
            },
            {
              "internalType": "address",
              "name": "owner",
              "type": "address"
            },
            {
              "internalType": "string",
              "name": "username",
              "type": "string"
            },
            {
              "internalType": "string",
              "name": "pfp",
              "type": "string"
            },
            {
              "internalType": "string",
              "name": "emailAddress",
              "type": "string"
            },
            {
              "internalType": "string",
              "name": "bio",
              "type": "string"
            },
            {
              "internalType": "bool",
              "name": "isDeleted",
              "type": "bool"
            },
            {
              "internalType": "uint256",
              "name": "createdAt",
              "type": "uint256"
            },
            {
              "internalType": "uint256",
              "name": "updatedAt",
              "type": "uint256"
            }
          ],
          "internalType": "struct OAuth.CardStruct",
          "name": "Card",
          "type": "tuple"
        }
      ],
      "stateMutability": "view",
      "type": "function"
    },
    {
      "inputs": [
        {
          "internalType": "address",
          "name": "_user",
          "type": "address"
        }
      ],
      "name": "getUserCards",
      "outputs": [
        {
          "components": [
            {
              "internalType": "uint256",
              "name": "id",
              "type": "uint256"
            },
            {
              "internalType": "address",
              "name": "owner",
              "type": "address"
            },
            {
              "internalType": "string",
              "name": "username",
              "type": "string"
            },
            {
              "internalType": "string",
              "name": "pfp",
              "type": "string"
            },
            {
              "internalType": "string",
              "name": "emailAddress",
              "type": "string"
            },
            {
              "internalType": "string",
              "name": "bio",
              "type": "string"
            },
            {
              "internalType": "bool",
              "name": "isDeleted",
              "type": "bool"
            },
            {
              "internalType": "uint256",
              "name": "createdAt",
              "type": "uint256"
            },
            {
              "internalType": "uint256",
              "name": "updatedAt",
              "type": "uint256"
            }
          ],
          "internalType": "struct OAuth.CardStruct[]",
          "name": "Cards",
          "type": "tuple[]"
        }
      ],
      "stateMutability": "view",
      "type": "function"
    },
    {
      "inputs": [
        {
          "internalType": "uint256",
          "name": "_id",
          "type": "uint256"
        },
        {
          "internalType": "string",
          "name": "_domain",
          "type": "string"
        }
      ],
      "name": "modifyDapp",
      "outputs": [],
      "stateMutability": "nonpayable",
      "type": "function"
    },
    {
      "inputs": [],
      "name": "owner",
      "outputs": [
        {
          "internalType": "address",
          "name": "",
          "type": "address"
        }
      ],
      "stateMutability": "view",
      "type": "function"
    },
    {
      "inputs": [
        {
          "internalType": "string",
          "name": "_domain",
          "type": "string"
        },
        {
          "internalType": "string",
          "name": "_accessToken",
          "type": "string"
        }
      ],
      "name": "registerDapp",
      "outputs": [],
      "stateMutability": "nonpayable",
      "type": "function"
    },
    {
      "inputs": [],
      "name": "renounceOwnership",
      "outputs": [],
      "stateMutability": "nonpayable",
      "type": "function"
    },
    {
      "inputs": [
        {
          "internalType": "address",
          "name": "newOwner",
          "type": "address"
        }
      ],
      "name": "transferOwnership",
      "outputs": [],
      "stateMutability": "nonpayable",
      "type": "function"
    },
    {
      "inputs": [
        {
          "internalType": "address",
          "name": "_user",
          "type": "address"
        },
        {
          "internalType": "uint256",
          "name": "_dappId",
          "type": "uint256"
        },
        {
          "internalType": "string",
          "name": "_message",
          "type": "string"
        },
        {
          "internalType": "bytes",
          "name": "_signature",
          "type": "bytes"
        }
      ],
      "name": "triggerLogin",
      "outputs": [
        {
          "internalType": "bytes32",
          "name": "",
          "type": "bytes32"
        },
        {
          "components": [
            {
              "internalType": "uint256",
              "name": "id",
              "type": "uint256"
            },
            {
              "internalType": "address",
              "name": "owner",
              "type": "address"
            },
            {
              "internalType": "string",
              "name": "username",
              "type": "string"
            },
            {
              "internalType": "string",
              "name": "pfp",
              "type": "string"
            },
            {
              "internalType": "string",
              "name": "emailAddress",
              "type": "string"
            },
            {
              "internalType": "string",
              "name": "bio",
              "type": "string"
            },
            {
              "internalType": "bool",
              "name": "isDeleted",
              "type": "bool"
            },
            {
              "internalType": "uint256",
              "name": "createdAt",
              "type": "uint256"
            },
            {
              "internalType": "uint256",
              "name": "updatedAt",
              "type": "uint256"
            }
          ],
          "internalType": "struct OAuth.CardStruct[]",
          "name": "Cards",
          "type": "tuple[]"
        }
      ],
      "stateMutability": "view",
      "type": "function"
    },
    {
      "inputs": [
        {
          "internalType": "uint256",
          "name": "_cardId",
          "type": "uint256"
        },
        {
          "internalType": "string",
          "name": "_username",
          "type": "string"
        },
        {
          "internalType": "string",
          "name": "_pfp",
          "type": "string"
        },
        {
          "internalType": "string",
          "name": "_emailAddress",
          "type": "string"
        },
        {
          "internalType": "string",
          "name": "_bio",
          "type": "string"
        }
      ],
      "name": "updateCard",
      "outputs": [],
      "stateMutability": "nonpayable",
      "type": "function"
    },
    {
      "inputs": [
        {
          "internalType": "address",
          "name": "receiver",
          "type": "address"
        },
        {
          "internalType": "uint256",
          "name": "amount",
          "type": "uint256"
        }
      ],
      "name": "withdraw",
      "outputs": [],
      "stateMutability": "nonpayable",
      "type": "function"
    },
    {
      "stateMutability": "payable",
      "type": "receive"
    }
  ],
  "bytecode": "0x60806040523480156200001157600080fd5b5060405162006be438038062006be4833981810160405281019062000037919062000686565b33600073ffffffffffffffffffffffffffffffffffffffff168173ffffffffffffffffffffffffffffffffffffffff1603620000ad5760006040517f1e4fbdf7000000000000000000000000000000000000000000000000000000008152600401620000a491906200071c565b60405180910390fd5b620000be81620003b660201b60201c565b50620000c96200049e565b600260008154620000da9062000772565b9190508190558160000181815250506040518060400160405280600981526020017f6c6f63616c686f7374000000000000000000000000000000000000000000000081525081602001819052508181604001819052506000816060019073ffffffffffffffffffffffffffffffffffffffff16908173ffffffffffffffffffffffffffffffffffffffff1681525050620001796200047a60201b60201c565b8160a0018181525050620001926200047a60201b60201c565b8160c001818152505080600f600083600001518152602001908152602001600020600082015181600001556020820151816001019081620001d4919062000a00565b506040820151816002019081620001ec919062000a00565b5060608201518160030160006101000a81548173ffffffffffffffffffffffffffffffffffffffff021916908373ffffffffffffffffffffffffffffffffffffffff16021790555060808201518160030160146101000a81548160ff02191690831515021790555060a0820151816004015560c082015181600501559050506001600e60008360000151815260200190815260200160002060006101000a81548160ff0219169083151502179055508060000151601183604051620002b2919062000b29565b90815260200160405180910390208190555080600001516010604051620002d99062000b92565b908152602001604051809103902081905550601260008073ffffffffffffffffffffffffffffffffffffffff1673ffffffffffffffffffffffffffffffffffffffff168152602001908152602001600020816000015190806001815401808255809150506001900390600052602060002001600090919091909150556001601360008073ffffffffffffffffffffffffffffffffffffffff1673ffffffffffffffffffffffffffffffffffffffff1681526020019081526020016000206000828254620003a7919062000ba9565b92505081905550505062000c2f565b60008060009054906101000a900473ffffffffffffffffffffffffffffffffffffffff169050816000806101000a81548173ffffffffffffffffffffffffffffffffffffffff021916908373ffffffffffffffffffffffffffffffffffffffff1602179055508173ffffffffffffffffffffffffffffffffffffffff168173ffffffffffffffffffffffffffffffffffffffff167f8be0079c531659141344cd1fd0a4f28419497f9722a3daafe3b4186f6b6457e060405160405180910390a35050565b60006103e880426200048d919062000be4565b62000499919062000ba9565b905090565b6040518060e00160405280600081526020016060815260200160608152602001600073ffffffffffffffffffffffffffffffffffffffff16815260200160001515815260200160008152602001600081525090565b6000604051905090565b600080fd5b600080fd5b600080fd5b600080fd5b6000601f19601f8301169050919050565b7f4e487b7100000000000000000000000000000000000000000000000000000000600052604160045260246000fd5b6200055c8262000511565b810181811067ffffffffffffffff821117156200057e576200057d62000522565b5b80604052505050565b600062000593620004f3565b9050620005a1828262000551565b919050565b600067ffffffffffffffff821115620005c457620005c362000522565b5b620005cf8262000511565b9050602081019050919050565b60005b83811015620005fc578082015181840152602081019050620005df565b60008484015250505050565b60006200061f6200061984620005a6565b62000587565b9050828152602081018484840111156200063e576200063d6200050c565b5b6200064b848285620005dc565b509392505050565b600082601f8301126200066b576200066a62000507565b5b81516200067d84826020860162000608565b91505092915050565b6000602082840312156200069f576200069e620004fd565b5b600082015167ffffffffffffffff811115620006c057620006bf62000502565b5b620006ce8482850162000653565b91505092915050565b600073ffffffffffffffffffffffffffffffffffffffff82169050919050565b60006200070482620006d7565b9050919050565b6200071681620006f7565b82525050565b60006020820190506200073360008301846200070b565b92915050565b7f4e487b7100000000000000000000000000000000000000000000000000000000600052601160045260246000fd5b6000819050919050565b60006200077f8262000768565b91507fffffffffffffffffffffffffffffffffffffffffffffffffffffffffffffffff8203620007b457620007b362000739565b5b600182019050919050565b600081519050919050565b7f4e487b7100000000000000000000000000000000000000000000000000000000600052602260045260246000fd5b600060028204905060018216806200081257607f821691505b602082108103620008285762000827620007ca565b5b50919050565b60008190508160005260206000209050919050565b60006020601f8301049050919050565b600082821b905092915050565b600060088302620008927fffffffffffffffffffffffffffffffffffffffffffffffffffffffffffffffff8262000853565b6200089e868362000853565b95508019841693508086168417925050509392505050565b6000819050919050565b6000620008e1620008db620008d58462000768565b620008b6565b62000768565b9050919050565b6000819050919050565b620008fd83620008c0565b620009156200090c82620008e8565b84845462000860565b825550505050565b600090565b6200092c6200091d565b62000939818484620008f2565b505050565b5b8181101562000961576200095560008262000922565b6001810190506200093f565b5050565b601f821115620009b0576200097a816200082e565b620009858462000843565b8101602085101562000995578190505b620009ad620009a48562000843565b8301826200093e565b50505b505050565b600082821c905092915050565b6000620009d560001984600802620009b5565b1980831691505092915050565b6000620009f08383620009c2565b9150826002028217905092915050565b62000a0b82620007bf565b67ffffffffffffffff81111562000a275762000a2662000522565b5b62000a338254620007f9565b62000a4082828562000965565b600060209050601f83116001811462000a78576000841562000a63578287015190505b62000a6f8582620009e2565b86555062000adf565b601f19841662000a88866200082e565b60005b8281101562000ab25784890151825560018201915060208501945060208101905062000a8b565b8683101562000ad2578489015162000ace601f891682620009c2565b8355505b6001600288020188555050505b505050505050565b600081905092915050565b600062000aff82620007bf565b62000b0b818562000ae7565b935062000b1d818560208601620005dc565b80840191505092915050565b600062000b37828462000af2565b915081905092915050565b7f6c6f63616c686f73740000000000000000000000000000000000000000000000600082015250565b600062000b7a60098362000ae7565b915062000b878262000b42565b600982019050919050565b600062000b9f8262000b6b565b9150819050919050565b600062000bb68262000768565b915062000bc38362000768565b925082820190508082111562000bde5762000bdd62000739565b5b92915050565b600062000bf18262000768565b915062000bfe8362000768565b925082820262000c0e8162000768565b9150828204841483151762000c285762000c2762000739565b5b5092915050565b615fa58062000c3f6000396000f3fe6080604052600436106101445760003560e01c8063715018a6116100b6578063dd55c1b01161006f578063dd55c1b01461049c578063e10b79fa146104d9578063e247dea814610516578063f2fde38b1461053f578063f3fef3a314610568578063f7c91c03146105915761014b565b8063715018a61461036657806388d9f40d1461037d5780638da5cb5b146103ba578063a3104eb5146103e5578063bed34bba14610422578063c392b0df1461045f5761014b565b80633901a908116101085780633901a9081461024857806346d8066e1461028557806348bf10c9146102ae57806353d85919146102d7578063555f7817146103145780635e1acf651461033d5761014b565b806303878f651461015057806306bdd4541461018d5780630c2ad3f9146101cb57806312065fe0146101f45780631d12aa9b1461021f5761014b565b3661014b57005b600080fd5b34801561015c57600080fd5b50610177600480360381019061017291906141fe565b6105ce565b6040516101849190614260565b60405180910390f35b34801561019957600080fd5b506101b460048036038101906101af91906143a6565b6105fe565b6040516101c29291906146b2565b60405180910390f35b3480156101d757600080fd5b506101f260048036038101906101ed91906146e2565b610702565b005b34801561020057600080fd5b50610209610b03565b6040516102169190614260565b60405180910390f35b34801561022b57600080fd5b50610246600480360381019061024191906147e5565b610b13565b005b34801561025457600080fd5b5061026f600480360381019061026a91906141fe565b610b7a565b60405161027c91906148b5565b60405180910390f35b34801561029157600080fd5b506102ac60048036038101906102a791906148d7565b610d80565b005b3480156102ba57600080fd5b506102d560048036038101906102d0919061494f565b61122e565b005b3480156102e357600080fd5b506102fe60048036038101906102f99190614a3a565b611552565b60405161030b91906148b5565b60405180910390f35b34801561032057600080fd5b5061033b60048036038101906103369190614a67565b611732565b005b34801561034957600080fd5b50610364600480360381019061035f9190614a3a565b6119c5565b005b34801561037257600080fd5b5061037b611ba0565b005b34801561038957600080fd5b506103a4600480360381019061039f9190614ac3565b611bb4565b6040516103b19190614af0565b60405180910390f35b3480156103c657600080fd5b506103cf612201565b6040516103dc9190614b21565b60405180910390f35b3480156103f157600080fd5b5061040c60048036038101906104079190614ac3565b61222a565b6040516104199190614ca1565b60405180910390f35b34801561042e57600080fd5b50610449600480360381019061044491906148d7565b61274a565b6040516104569190614cd2565b60405180910390f35b34801561046b57600080fd5b5061048660048036038101906104819190614ced565b6127b6565b6040516104939190614ca1565b60405180910390f35b3480156104a857600080fd5b506104c360048036038101906104be9190614d2d565b61297c565b6040516104d09190614de0565b60405180910390f35b3480156104e557600080fd5b5061050060048036038101906104fb9190614a3a565b612e28565b60405161050d9190614ed5565b60405180910390f35b34801561052257600080fd5b5061053d60048036038101906105389190614a3a565b61312d565b005b34801561054b57600080fd5b5061056660048036038101906105619190614ac3565b61334a565b005b34801561057457600080fd5b5061058f600480360381019061058a9190614ced565b6133d0565b005b34801561059d57600080fd5b506105b860048036038101906105b391906147e5565b613496565b6040516105c59190614ed5565b60405180910390f35b60006105d8613882565b6010826040516105e89190614f33565b9081526020016040518091039020549050919050565b6000606061060a613882565b610615848785613909565b610654576040517f08c379a000000000000000000000000000000000000000000000000000000000815260040161064b90614fa7565b60405180910390fd5b6000610660878761395c565b0361067f57600061067087611bb4565b8160001b9150915091506106f9565b6009600061068d888861395c565b815260200190815260200160002060040154600067ffffffffffffffff8111156106ba576106b96140d3565b5b6040519080825280602002602001820160405280156106f357816020015b6106e0613f8b565b8152602001906001900390816106d85790505b50915091505b94509492505050565b6000845111610746576040517f08c379a000000000000000000000000000000000000000000000000000000000815260040161073d90615013565b60405180910390fd5b600083511161078a576040517f08c379a00000000000000000000000000000000000000000000000000000000081526004016107819061507f565b60405180910390fd5b60008251116107ce576040517f08c379a00000000000000000000000000000000000000000000000000000000081526004016107c5906150eb565b60405180910390fd5b6000815111610812576040517f08c379a000000000000000000000000000000000000000000000000000000000815260040161080990615157565b60405180910390fd5b61081a613f8b565b600160008154610829906151a6565b91905081905581600001818152505084816040018190525033816020019073ffffffffffffffffffffffffffffffffffffffff16908173ffffffffffffffffffffffffffffffffffffffff1681525050838160600181905250828160800181905250818160a0018190525061089c613b1a565b8160e00181815250506108ad613b1a565b816101000181815250508060056000836000015181526020019081526020016000206000820151816000015560208201518160010160006101000a81548173ffffffffffffffffffffffffffffffffffffffff021916908373ffffffffffffffffffffffffffffffffffffffff160217905550604082015181600201908161093591906153fa565b50606082015181600301908161094b91906153fa565b50608082015181600401908161096191906153fa565b5060a082015181600501908161097791906153fa565b5060c08201518160060160006101000a81548160ff02191690831515021790555060e0820151816007015561010082015181600801559050506001600460008360000151815260200190815260200160002060006101000a81548160ff021916908315150217905550600660003373ffffffffffffffffffffffffffffffffffffffff1673ffffffffffffffffffffffffffffffffffffffff168152602001908152602001600020816000015190806001815401808255809150506001900390600052602060002001600090919091909150556001600760003373ffffffffffffffffffffffffffffffffffffffff1673ffffffffffffffffffffffffffffffffffffffff1681526020019081526020016000206000828254610a9a91906154cc565b925050819055503373ffffffffffffffffffffffffffffffffffffffff167ff8d4d3ff62faf01eaf82f3b586f2fbeb141edb1f566b539ee6ae9df44fdb6c6b8260000151610ae6613b1a565b604051610af492919061554c565b60405180910390a25050505050565b6000610b0d613882565b47905090565b610b1b613882565b6000610b2682613b3a565b03610b66576040517f08c379a0000000000000000000000000000000000000000000000000000000008152600401610b5d906155d4565b60405180910390fd5b610b77610b7282613b3a565b613bd1565b50565b610b82613fef565b610b8a613882565b600f6000601184604051610b9e9190614f33565b90815260200160405180910390205481526020019081526020016000206040518060e001604052908160008201548152602001600182018054610be09061521d565b80601f0160208091040260200160405190810160405280929190818152602001828054610c0c9061521d565b8015610c595780601f10610c2e57610100808354040283529160200191610c59565b820191906000526020600020905b815481529060010190602001808311610c3c57829003601f168201915b50505050508152602001600282018054610c729061521d565b80601f0160208091040260200160405190810160405280929190818152602001828054610c9e9061521d565b8015610ceb5780601f10610cc057610100808354040283529160200191610ceb565b820191906000526020600020905b815481529060010190602001808311610cce57829003601f168201915b505050505081526020016003820160009054906101000a900473ffffffffffffffffffffffffffffffffffffffff1673ffffffffffffffffffffffffffffffffffffffff1673ffffffffffffffffffffffffffffffffffffffff1681526020016003820160149054906101000a900460ff16151515158152602001600482015481526020016005820154815250509050919050565b6000825111610dc4576040517f08c379a0000000000000000000000000000000000000000000000000000000008152600401610dbb90615640565b60405180910390fd5b6000815111610e08576040517f08c379a0000000000000000000000000000000000000000000000000000000008152600401610dff906156ac565b60405180910390fd5b600e6000601183604051610e1c9190614f33565b908152602001604051809103902054815260200190815260200160002060009054906101000a900460ff1615610e87576040517f08c379a0000000000000000000000000000000000000000000000000000000008152600401610e7e90615718565b60405180910390fd5b6000601083604051610e999190614f33565b90815260200160405180910390205414610ee8576040517f08c379a0000000000000000000000000000000000000000000000000000000008152600401610edf90615784565b60405180910390fd5b610f27826040518060400160405280600981526020017f6c6f63616c686f7374000000000000000000000000000000000000000000000081525061274a565b15610f3157600080fd5b610f39613fef565b600260008154610f48906151a6565b91905081905581600001818152505082816020018190525081816040018190525033816060019073ffffffffffffffffffffffffffffffffffffffff16908173ffffffffffffffffffffffffffffffffffffffff1681525050610fa9613b1a565b8160a0018181525050610fba613b1a565b8160c001818152505080600f600083600001518152602001908152602001600020600082015181600001556020820151816001019081610ffa91906153fa565b50604082015181600201908161101091906153fa565b5060608201518160030160006101000a81548173ffffffffffffffffffffffffffffffffffffffff021916908373ffffffffffffffffffffffffffffffffffffffff16021790555060808201518160030160146101000a81548160ff02191690831515021790555060a0820151816004015560c082015181600501559050506001600e60008360000151815260200190815260200160002060006101000a81548160ff02191690831515021790555080600001516011836040516110d49190614f33565b90815260200160405180910390208190555080600001516010846040516110fb9190614f33565b908152602001604051809103902081905550601260003373ffffffffffffffffffffffffffffffffffffffff1673ffffffffffffffffffffffffffffffffffffffff168152602001908152602001600020816000015190806001815401808255809150506001900390600052602060002001600090919091909150556001601360003373ffffffffffffffffffffffffffffffffffffffff1673ffffffffffffffffffffffffffffffffffffffff16815260200190815260200160002060008282546111c791906154cc565b925050819055503373ffffffffffffffffffffffffffffffffffffffff167fcf40bd3705e373a5f70135f1d9765c2d97154b94b433601f78a9572c576571248260000151611213613b1a565b6040516112219291906157f0565b60405180910390a2505050565b6004600086815260200190815260200160002060009054906101000a900460ff1661128e576040517f08c379a000000000000000000000000000000000000000000000000000000000815260040161128590615878565b60405180910390fd5b3373ffffffffffffffffffffffffffffffffffffffff166005600087815260200190815260200160002060010160009054906101000a900473ffffffffffffffffffffffffffffffffffffffff1673ffffffffffffffffffffffffffffffffffffffff1614611332576040517f08c379a0000000000000000000000000000000000000000000000000000000008152600401611329906158e4565b60405180910390fd5b6000845111611376576040517f08c379a000000000000000000000000000000000000000000000000000000000815260040161136d90615013565b60405180910390fd5b60008351116113ba576040517f08c379a00000000000000000000000000000000000000000000000000000000081526004016113b19061507f565b60405180910390fd5b60008251116113fe576040517f08c379a00000000000000000000000000000000000000000000000000000000081526004016113f5906150eb565b60405180910390fd5b6000815111611442576040517f08c379a000000000000000000000000000000000000000000000000000000000815260040161143990615157565b60405180910390fd5b8360056000878152602001908152602001600020600201908161146591906153fa565b508260056000878152602001908152602001600020600301908161148991906153fa565b50816005600087815260200190815260200160002060040190816114ad91906153fa565b50806005600087815260200190815260200160002060050190816114d191906153fa565b506114da613b1a565b60056000878152602001908152602001600020600801819055503373ffffffffffffffffffffffffffffffffffffffff167ff8d4d3ff62faf01eaf82f3b586f2fbeb141edb1f566b539ee6ae9df44fdb6c6b86611535613b1a565b604051611543929190615950565b60405180910390a25050505050565b61155a613fef565b600f60008381526020019081526020016000206040518060e0016040529081600082015481526020016001820180546115929061521d565b80601f01602080910402602001604051908101604052809291908181526020018280546115be9061521d565b801561160b5780601f106115e05761010080835404028352916020019161160b565b820191906000526020600020905b8154815290600101906020018083116115ee57829003601f168201915b505050505081526020016002820180546116249061521d565b80601f01602080910402602001604051908101604052809291908181526020018280546116509061521d565b801561169d5780601f106116725761010080835404028352916020019161169d565b820191906000526020600020905b81548152906001019060200180831161168057829003601f168201915b505050505081526020016003820160009054906101000a900473ffffffffffffffffffffffffffffffffffffffff1673ffffffffffffffffffffffffffffffffffffffff1673ffffffffffffffffffffffffffffffffffffffff1681526020016003820160149054906101000a900460ff16151515158152602001600482015481526020016005820154815250509050919050565b600e600083815260200190815260200160002060009054906101000a900460ff16611792576040517f08c379a000000000000000000000000000000000000000000000000000000000815260040161178990615878565b60405180910390fd5b3373ffffffffffffffffffffffffffffffffffffffff16600f600084815260200190815260200160002060030160009054906101000a900473ffffffffffffffffffffffffffffffffffffffff1673ffffffffffffffffffffffffffffffffffffffff1614611836576040517f08c379a000000000000000000000000000000000000000000000000000000000815260040161182d906158e4565b60405180910390fd5b600081511161187a576040517f08c379a000000000000000000000000000000000000000000000000000000000815260040161187190615640565b60405180910390fd5b600060108260405161188c9190614f33565b908152602001604051809103902054146118db576040517f08c379a00000000000000000000000000000000000000000000000000000000081526004016118d290615784565b60405180910390fd5b61191a816040518060400160405280600981526020017f6c6f63616c686f7374000000000000000000000000000000000000000000000081525061274a565b1561192457600080fd5b80600f6000848152602001908152602001600020600101908161194791906153fa565b50611950613b1a565b600f6000848152602001908152602001600020600501819055503373ffffffffffffffffffffffffffffffffffffffff167fcf40bd3705e373a5f70135f1d9765c2d97154b94b433601f78a9572c57657124836119ab613b1a565b6040516119b99291906159d8565b60405180910390a25050565b6004600082815260200190815260200160002060009054906101000a900460ff16611a25576040517f08c379a0000000000000000000000000000000000000000000000000000000008152600401611a1c90615878565b60405180910390fd5b3373ffffffffffffffffffffffffffffffffffffffff166005600083815260200190815260200160002060010160009054906101000a900473ffffffffffffffffffffffffffffffffffffffff1673ffffffffffffffffffffffffffffffffffffffff1614611ac9576040517f08c379a0000000000000000000000000000000000000000000000000000000008152600401611ac0906158e4565b60405180910390fd5b60006004600083815260200190815260200160002060006101000a81548160ff02191690831515021790555060016005600083815260200190815260200160002060060160006101000a81548160ff021916908315150217905550611b2c613b1a565b60056000838152602001908152602001600020600801819055503373ffffffffffffffffffffffffffffffffffffffff167ff8d4d3ff62faf01eaf82f3b586f2fbeb141edb1f566b539ee6ae9df44fdb6c6b82611b87613b1a565b604051611b95929190615a60565b60405180910390a250565b611ba8613882565b611bb26000613ca8565b565b6060611bbe613882565b600080600090505b600760008573ffffffffffffffffffffffffffffffffffffffff1673ffffffffffffffffffffffffffffffffffffffff16815260200190815260200160002054811015611d27576000600660008673ffffffffffffffffffffffffffffffffffffffff1673ffffffffffffffffffffffffffffffffffffffff1681526020019081526020016000208281548110611c6057611c5f615a9c565b5b906000526020600020015490508473ffffffffffffffffffffffffffffffffffffffff166005600083815260200190815260200160002060010160009054906101000a900473ffffffffffffffffffffffffffffffffffffffff1673ffffffffffffffffffffffffffffffffffffffff16148015611cff57506005600082815260200190815260200160002060060160009054906101000a900460ff16155b15611d13578280611d0f906151a6565b9350505b508080611d1f906151a6565b915050611bc6565b508067ffffffffffffffff811115611d4257611d416140d3565b5b604051908082528060200260200182016040528015611d7b57816020015b611d68613f8b565b815260200190600190039081611d605790505b509150600080600090505b600760008673ffffffffffffffffffffffffffffffffffffffff1673ffffffffffffffffffffffffffffffffffffffff168152602001908152602001600020548110156121f9576000600660008773ffffffffffffffffffffffffffffffffffffffff1673ffffffffffffffffffffffffffffffffffffffff1681526020019081526020016000208281548110611e2057611e1f615a9c565b5b906000526020600020015490508573ffffffffffffffffffffffffffffffffffffffff166005600083815260200190815260200160002060010160009054906101000a900473ffffffffffffffffffffffffffffffffffffffff1673ffffffffffffffffffffffffffffffffffffffff16148015611ebf57506005600082815260200190815260200160002060060160009054906101000a900460ff16155b156121e5576005600082815260200190815260200160002060405180610120016040529081600082015481526020016001820160009054906101000a900473ffffffffffffffffffffffffffffffffffffffff1673ffffffffffffffffffffffffffffffffffffffff1673ffffffffffffffffffffffffffffffffffffffff168152602001600282018054611f539061521d565b80601f0160208091040260200160405190810160405280929190818152602001828054611f7f9061521d565b8015611fcc5780601f10611fa157610100808354040283529160200191611fcc565b820191906000526020600020905b815481529060010190602001808311611faf57829003601f168201915b50505050508152602001600382018054611fe59061521d565b80601f01602080910402602001604051908101604052809291908181526020018280546120119061521d565b801561205e5780601f106120335761010080835404028352916020019161205e565b820191906000526020600020905b81548152906001019060200180831161204157829003601f168201915b505050505081526020016004820180546120779061521d565b80601f01602080910402602001604051908101604052809291908181526020018280546120a39061521d565b80156120f05780601f106120c5576101008083540402835291602001916120f0565b820191906000526020600020905b8154815290600101906020018083116120d357829003601f168201915b505050505081526020016005820180546121099061521d565b80601f01602080910402602001604051908101604052809291908181526020018280546121359061521d565b80156121825780601f1061215757610100808354040283529160200191612182565b820191906000526020600020905b81548152906001019060200180831161216557829003601f168201915b505050505081526020016006820160009054906101000a900460ff16151515158152602001600782015481526020016008820154815250508584806121c6906151a6565b9550815181106121d9576121d8615a9c565b5b60200260200101819052505b5080806121f1906151a6565b915050611d86565b505050919050565b60008060009054906101000a900473ffffffffffffffffffffffffffffffffffffffff16905090565b6060600080600090505b601360008573ffffffffffffffffffffffffffffffffffffffff1673ffffffffffffffffffffffffffffffffffffffff16815260200190815260200160002054811015612395576000601260008673ffffffffffffffffffffffffffffffffffffffff1673ffffffffffffffffffffffffffffffffffffffff16815260200190815260200160002082815481106122ce576122cd615a9c565b5b906000526020600020015490508473ffffffffffffffffffffffffffffffffffffffff16600f600083815260200190815260200160002060030160009054906101000a900473ffffffffffffffffffffffffffffffffffffffff1673ffffffffffffffffffffffffffffffffffffffff1614801561236d5750600f600082815260200190815260200160002060030160149054906101000a900460ff16155b1561238157828061237d906151a6565b9350505b50808061238d906151a6565b915050612234565b508067ffffffffffffffff8111156123b0576123af6140d3565b5b6040519080825280602002602001820160405280156123e957816020015b6123d6613fef565b8152602001906001900390816123ce5790505b509150600080600090505b601360008673ffffffffffffffffffffffffffffffffffffffff1673ffffffffffffffffffffffffffffffffffffffff16815260200190815260200160002054811015612742576000601260008773ffffffffffffffffffffffffffffffffffffffff1673ffffffffffffffffffffffffffffffffffffffff168152602001908152602001600020828154811061248e5761248d615a9c565b5b906000526020600020015490508573ffffffffffffffffffffffffffffffffffffffff16600f600083815260200190815260200160002060030160009054906101000a900473ffffffffffffffffffffffffffffffffffffffff1673ffffffffffffffffffffffffffffffffffffffff1614801561252d5750600f600082815260200190815260200160002060030160149054906101000a900460ff16155b1561272e57600f60008281526020019081526020016000206040518060e00160405290816000820154815260200160018201805461256a9061521d565b80601f01602080910402602001604051908101604052809291908181526020018280546125969061521d565b80156125e35780601f106125b8576101008083540402835291602001916125e3565b820191906000526020600020905b8154815290600101906020018083116125c657829003601f168201915b505050505081526020016002820180546125fc9061521d565b80601f01602080910402602001604051908101604052809291908181526020018280546126289061521d565b80156126755780601f1061264a57610100808354040283529160200191612675565b820191906000526020600020905b81548152906001019060200180831161265857829003601f168201915b505050505081526020016003820160009054906101000a900473ffffffffffffffffffffffffffffffffffffffff1673ffffffffffffffffffffffffffffffffffffffff1673ffffffffffffffffffffffffffffffffffffffff1681526020016003820160149054906101000a900460ff161515151581526020016004820154815260200160058201548152505085848061270f906151a6565b95508151811061272257612721615a9c565b5b60200260200101819052505b50808061273a906151a6565b9150506123f4565b505050919050565b6000815183511461275e57600090506127b0565b8160405160200161276f9190614f33565b60405160208183030381529060405280519060200120836040516020016127969190614f33565b604051602081830303815290604052805190602001201490505b92915050565b6060600080600090505b600d60008581526020019081526020016000208054905081101561284057600061281986600d6000888152602001908152602001600020848154811061280957612808615a9c565b5b906000526020600020015461395c565b1461282d578180612829906151a6565b9250505b8080612838906151a6565b9150506127c0565b508067ffffffffffffffff81111561285b5761285a6140d3565b5b60405190808252806020026020018201604052801561289457816020015b612881613fef565b8152602001906001900390816128795790505b509150600080600090505b600d6000868152602001908152602001600020805490508110156129735760006128f887600d600089815260200190815260200160002084815481106128e8576128e7615a9c565b5b906000526020600020015461395c565b1461296057612935600d6000878152602001908152602001600020828154811061292557612924615a9c565b5b9060005260206000200154611552565b848380612941906151a6565b94508151811061295457612953615a9c565b5b60200260200101819052505b808061296b906151a6565b91505061289f565b50505092915050565b6000612986613882565b6004600087815260200190815260200160002060009054906101000a900460ff166129e6576040517f08c379a00000000000000000000000000000000000000000000000000000000081526004016129dd90615878565b60405180910390fd5b8373ffffffffffffffffffffffffffffffffffffffff166005600088815260200190815260200160002060010160009054906101000a900473ffffffffffffffffffffffffffffffffffffffff1673ffffffffffffffffffffffffffffffffffffffff1614612a8a576040517f08c379a0000000000000000000000000000000000000000000000000000000008152600401612a81906158e4565b60405180910390fd5b600e600086815260200190815260200160002060009054906101000a900460ff16612aea576040517f08c379a0000000000000000000000000000000000000000000000000000000008152600401612ae190615b17565b60405180910390fd5b612af5838584613909565b612b34576040517f08c379a0000000000000000000000000000000000000000000000000000000008152600401612b2b90614fa7565b60405180910390fd5b6000868587604051602001612b4b93929190615ba0565b604051602081830303815290604052805190602001209050612b6b614044565b600360008154612b7a906151a6565b919050819055816000018181525050878160200181815250508681604001818152505085816060019073ffffffffffffffffffffffffffffffffffffffff16908173ffffffffffffffffffffffffffffffffffffffff16815250508181608001818152505060018160a0019015159081151581525050612bf8613b1a565b8160c0018181525050612c09613b1a565b8160e001818152505080600960008360000151815260200190815260200160002060008201518160000155602082015181600101556040820151816002015560608201518160030160006101000a81548173ffffffffffffffffffffffffffffffffffffffff021916908373ffffffffffffffffffffffffffffffffffffffff1602179055506080820151816004015560a08201518160050160006101000a81548160ff02191690831515021790555060c0820151816006015560e082015181600701559050506001600860008360000151815260200190815260200160002060006101000a81548160ff021916908315150217905550600b6000888152602001908152602001600020816000015190806001815401808255809150506001900390600052602060002001600090919091909150556001600c60008981526020019081526020016000206000828254612d6291906154cc565b925050819055508060000151600a600084815260200190815260200160002081905550600d60008981526020019081526020016000208790806001815401808255809150506001900390600052602060002001600090919091909150553373ffffffffffffffffffffffffffffffffffffffff167fe63a460b8dabeb604b9976b03437e24ba6d9e603af187bb174d50ce4f6b302298260000151612e04613b1a565b604051612e1292919061554c565b60405180910390a2819250505095945050505050565b612e30613f8b565b6005600083815260200190815260200160002060405180610120016040529081600082015481526020016001820160009054906101000a900473ffffffffffffffffffffffffffffffffffffffff1673ffffffffffffffffffffffffffffffffffffffff1673ffffffffffffffffffffffffffffffffffffffff168152602001600282018054612ebf9061521d565b80601f0160208091040260200160405190810160405280929190818152602001828054612eeb9061521d565b8015612f385780601f10612f0d57610100808354040283529160200191612f38565b820191906000526020600020905b815481529060010190602001808311612f1b57829003601f168201915b50505050508152602001600382018054612f519061521d565b80601f0160208091040260200160405190810160405280929190818152602001828054612f7d9061521d565b8015612fca5780601f10612f9f57610100808354040283529160200191612fca565b820191906000526020600020905b815481529060010190602001808311612fad57829003601f168201915b50505050508152602001600482018054612fe39061521d565b80601f016020809104026020016040519081016040528092919081815260200182805461300f9061521d565b801561305c5780601f106130315761010080835404028352916020019161305c565b820191906000526020600020905b81548152906001019060200180831161303f57829003601f168201915b505050505081526020016005820180546130759061521d565b80601f01602080910402602001604051908101604052809291908181526020018280546130a19061521d565b80156130ee5780601f106130c3576101008083540402835291602001916130ee565b820191906000526020600020905b8154815290600101906020018083116130d157829003601f168201915b505050505081526020016006820160009054906101000a900460ff16151515158152602001600782015481526020016008820154815250509050919050565b600e600082815260200190815260200160002060009054906101000a900460ff1661318d576040517f08c379a000000000000000000000000000000000000000000000000000000000815260040161318490615878565b60405180910390fd5b3373ffffffffffffffffffffffffffffffffffffffff16600f600083815260200190815260200160002060030160009054906101000a900473ffffffffffffffffffffffffffffffffffffffff1673ffffffffffffffffffffffffffffffffffffffff1614613231576040517f08c379a0000000000000000000000000000000000000000000000000000000008152600401613228906158e4565b60405180910390fd5b6000600e600083815260200190815260200160002060006101000a81548160ff0219169083151502179055506001600f600083815260200190815260200160002060030160146101000a81548160ff021916908315150217905550613294613b1a565b600f60008381526020019081526020016000206005018190555060006010600f60008481526020019081526020016000206001016040516132d59190615c60565b9081526020016040518091039020819055506132f081613d6c565b3373ffffffffffffffffffffffffffffffffffffffff167fcf40bd3705e373a5f70135f1d9765c2d97154b94b433601f78a9572c5765712482613331613b1a565b60405161333f929190615cc3565b60405180910390a250565b613352613882565b600073ffffffffffffffffffffffffffffffffffffffff168173ffffffffffffffffffffffffffffffffffffffff16036133c45760006040517f1e4fbdf70000000000000000000000000000000000000000000000000000000081526004016133bb9190614b21565b60405180910390fd5b6133cd81613ca8565b50565b6133d8613882565b804711156133e557600080fd5b60008273ffffffffffffffffffffffffffffffffffffffff168260405161340b90615d30565b60006040518083038185875af1925050503d8060008114613448576040519150601f19603f3d011682016040523d82523d6000602084013e61344d565b606091505b5050905080613491576040517f08c379a000000000000000000000000000000000000000000000000000000000815260040161348890615d91565b60405180910390fd5b505050565b61349e613f8b565b60006134a983613b3a565b036134e9576040517f08c379a00000000000000000000000000000000000000000000000000000000081526004016134e0906155d4565b60405180910390fd5b60046000600960006134fa86613b3a565b815260200190815260200160002060010154815260200190815260200160002060009054906101000a900460ff16613567576040517f08c379a000000000000000000000000000000000000000000000000000000000815260040161355e90615878565b60405180910390fd5b600560006009600061357886613b3a565b815260200190815260200160002060010154815260200190815260200160002060405180610120016040529081600082015481526020016001820160009054906101000a900473ffffffffffffffffffffffffffffffffffffffff1673ffffffffffffffffffffffffffffffffffffffff1673ffffffffffffffffffffffffffffffffffffffff1681526020016002820180546136149061521d565b80601f01602080910402602001604051908101604052809291908181526020018280546136409061521d565b801561368d5780601f106136625761010080835404028352916020019161368d565b820191906000526020600020905b81548152906001019060200180831161367057829003601f168201915b505050505081526020016003820180546136a69061521d565b80601f01602080910402602001604051908101604052809291908181526020018280546136d29061521d565b801561371f5780601f106136f45761010080835404028352916020019161371f565b820191906000526020600020905b81548152906001019060200180831161370257829003601f168201915b505050505081526020016004820180546137389061521d565b80601f01602080910402602001604051908101604052809291908181526020018280546137649061521d565b80156137b15780601f10613786576101008083540402835291602001916137b1565b820191906000526020600020905b81548152906001019060200180831161379457829003601f168201915b505050505081526020016005820180546137ca9061521d565b80601f01602080910402602001604051908101604052809291908181526020018280546137f69061521d565b80156138435780601f1061381857610100808354040283529160200191613843565b820191906000526020600020905b81548152906001019060200180831161382657829003601f168201915b505050505081526020016006820160009054906101000a900460ff16151515158152602001600782015481526020016008820154815250509050919050565b61388a613e82565b73ffffffffffffffffffffffffffffffffffffffff166138a8612201565b73ffffffffffffffffffffffffffffffffffffffff1614613907576138cb613e82565b6040517f118cdaa70000000000000000000000000000000000000000000000000000000081526004016138fe9190614b21565b60405180910390fd5b565b60008273ffffffffffffffffffffffffffffffffffffffff1661393c61393661393187613e8a565b613eba565b84613eea565b73ffffffffffffffffffffffffffffffffffffffff161490509392505050565b600080600090505b600c600084815260200190815260200160002054811015613b0e578373ffffffffffffffffffffffffffffffffffffffff1660096000600b600087815260200190815260200160002084815481106139bf576139be615a9c565b5b9060005260206000200154815260200190815260200160002060030160009054906101000a900473ffffffffffffffffffffffffffffffffffffffff1673ffffffffffffffffffffffffffffffffffffffff16148015613a6e575060096000600b60008681526020019081526020016000208381548110613a4357613a42615a9c565b5b9060005260206000200154815260200190815260200160002060050160009054906101000a900460ff165b8015613abe57508260096000600b60008781526020019081526020016000208481548110613a9f57613a9e615a9c565b5b9060005260206000200154815260200190815260200160002060020154145b15613afb57600b60008481526020019081526020016000208181548110613ae857613ae7615a9c565b5b9060005260206000200154915050613b14565b8080613b06906151a6565b915050613964565b50600090505b92915050565b60006103e88042613b2b9190615db1565b613b3591906154cc565b905090565b600060096000600a600085815260200190815260200160002054815260200190815260200160002060050160009054906101000a900460ff168015613ba757508160096000600a600086815260200190815260200160002054815260200190815260200160002060040154145b15613bc757600a6000838152602001908152602001600020549050613bcc565b600090505b919050565b60006009600083815260200190815260200160002060050160006101000a81548160ff021916908315150217905550613c08613b1a565b600960008381526020019081526020016000206007018190555060006008600083815260200190815260200160002060006101000a81548160ff0219169083151502179055503373ffffffffffffffffffffffffffffffffffffffff167fe63a460b8dabeb604b9976b03437e24ba6d9e603af187bb174d50ce4f6b3022982613c8f613b1a565b604051613c9d929190615e3f565b60405180910390a250565b60008060009054906101000a900473ffffffffffffffffffffffffffffffffffffffff169050816000806101000a81548173ffffffffffffffffffffffffffffffffffffffff021916908373ffffffffffffffffffffffffffffffffffffffff1602179055508173ffffffffffffffffffffffffffffffffffffffff168173ffffffffffffffffffffffffffffffffffffffff167f8be0079c531659141344cd1fd0a4f28419497f9722a3daafe3b4186f6b6457e060405160405180910390a35050565b60005b600c600083815260200190815260200160002054811015613e7e578160096000600b60008681526020019081526020016000208481548110613db457613db3615a9c565b5b9060005260206000200154815260200190815260200160002060020154148015613e2d575060096000600b60008581526020019081526020016000208381548110613e0257613e01615a9c565b5b9060005260206000200154815260200190815260200160002060050160009054906101000a900460ff165b15613e6b57613e6a600b60008481526020019081526020016000208281548110613e5a57613e59615a9c565b5b9060005260206000200154613bd1565b5b8080613e76906151a6565b915050613d6f565b5050565b600033905090565b600081604051602001613e9d9190614f33565b604051602081830303815290604052805190602001209050919050565b600081604051602001613ecd9190615ee8565b604051602081830303815290604052805190602001209050919050565b600080600080613ef985613f59565b92509250925060018682858560405160008152602001604052604051613f229493929190615f2a565b6020604051602081039080840390855afa158015613f44573d6000803e3d6000fd5b50505060206040510351935050505092915050565b60008060006041845114613f6c57600080fd5b6020840151925060408401519150606084015160001a90509193909250565b60405180610120016040528060008152602001600073ffffffffffffffffffffffffffffffffffffffff1681526020016060815260200160608152602001606081526020016060815260200160001515815260200160008152602001600081525090565b6040518060e00160405280600081526020016060815260200160608152602001600073ffffffffffffffffffffffffffffffffffffffff16815260200160001515815260200160008152602001600081525090565b604051806101000160405280600081526020016000815260200160008152602001600073ffffffffffffffffffffffffffffffffffffffff1681526020016000801916815260200160001515815260200160008152602001600081525090565b6000604051905090565b600080fd5b600080fd5b600080fd5b600080fd5b6000601f19601f8301169050919050565b7f4e487b7100000000000000000000000000000000000000000000000000000000600052604160045260246000fd5b61410b826140c2565b810181811067ffffffffffffffff8211171561412a576141296140d3565b5b80604052505050565b600061413d6140a4565b90506141498282614102565b919050565b600067ffffffffffffffff821115614169576141686140d3565b5b614172826140c2565b9050602081019050919050565b82818337600083830152505050565b60006141a161419c8461414e565b614133565b9050828152602081018484840111156141bd576141bc6140bd565b5b6141c884828561417f565b509392505050565b600082601f8301126141e5576141e46140b8565b5b81356141f584826020860161418e565b91505092915050565b600060208284031215614214576142136140ae565b5b600082013567ffffffffffffffff811115614232576142316140b3565b5b61423e848285016141d0565b91505092915050565b6000819050919050565b61425a81614247565b82525050565b60006020820190506142756000830184614251565b92915050565b600073ffffffffffffffffffffffffffffffffffffffff82169050919050565b60006142a68261427b565b9050919050565b6142b68161429b565b81146142c157600080fd5b50565b6000813590506142d3816142ad565b92915050565b6142e281614247565b81146142ed57600080fd5b50565b6000813590506142ff816142d9565b92915050565b600067ffffffffffffffff8211156143205761431f6140d3565b5b614329826140c2565b9050602081019050919050565b600061434961434484614305565b614133565b905082815260208101848484011115614365576143646140bd565b5b61437084828561417f565b509392505050565b600082601f83011261438d5761438c6140b8565b5b813561439d848260208601614336565b91505092915050565b600080600080608085870312156143c0576143bf6140ae565b5b60006143ce878288016142c4565b94505060206143df878288016142f0565b935050604085013567ffffffffffffffff811115614400576143ff6140b3565b5b61440c878288016141d0565b925050606085013567ffffffffffffffff81111561442d5761442c6140b3565b5b61443987828801614378565b91505092959194509250565b6000819050919050565b61445881614445565b82525050565b600081519050919050565b600082825260208201905092915050565b6000819050602082019050919050565b61449381614247565b82525050565b6144a28161429b565b82525050565b600081519050919050565b600082825260208201905092915050565b60005b838110156144e25780820151818401526020810190506144c7565b60008484015250505050565b60006144f9826144a8565b61450381856144b3565b93506145138185602086016144c4565b61451c816140c2565b840191505092915050565b60008115159050919050565b61453c81614527565b82525050565b60006101208301600083015161455b600086018261448a565b50602083015161456e6020860182614499565b506040830151848203604086015261458682826144ee565b915050606083015184820360608601526145a082826144ee565b915050608083015184820360808601526145ba82826144ee565b91505060a083015184820360a08601526145d482826144ee565b91505060c08301516145e960c0860182614533565b5060e08301516145fc60e086018261448a565b5061010083015161461161010086018261448a565b508091505092915050565b60006146288383614542565b905092915050565b6000602082019050919050565b60006146488261445e565b6146528185614469565b9350836020820285016146648561447a565b8060005b858110156146a05784840389528151614681858261461c565b945061468c83614630565b925060208a01995050600181019050614668565b50829750879550505050505092915050565b60006040820190506146c7600083018561444f565b81810360208301526146d9818461463d565b90509392505050565b600080600080608085870312156146fc576146fb6140ae565b5b600085013567ffffffffffffffff81111561471a576147196140b3565b5b614726878288016141d0565b945050602085013567ffffffffffffffff811115614747576147466140b3565b5b614753878288016141d0565b935050604085013567ffffffffffffffff811115614774576147736140b3565b5b614780878288016141d0565b925050606085013567ffffffffffffffff8111156147a1576147a06140b3565b5b6147ad878288016141d0565b91505092959194509250565b6147c281614445565b81146147cd57600080fd5b50565b6000813590506147df816147b9565b92915050565b6000602082840312156147fb576147fa6140ae565b5b6000614809848285016147d0565b91505092915050565b600060e08301600083015161482a600086018261448a565b506020830151848203602086015261484282826144ee565b9150506040830151848203604086015261485c82826144ee565b91505060608301516148716060860182614499565b5060808301516148846080860182614533565b5060a083015161489760a086018261448a565b5060c08301516148aa60c086018261448a565b508091505092915050565b600060208201905081810360008301526148cf8184614812565b905092915050565b600080604083850312156148ee576148ed6140ae565b5b600083013567ffffffffffffffff81111561490c5761490b6140b3565b5b614918858286016141d0565b925050602083013567ffffffffffffffff811115614939576149386140b3565b5b614945858286016141d0565b9150509250929050565b600080600080600060a0868803121561496b5761496a6140ae565b5b6000614979888289016142f0565b955050602086013567ffffffffffffffff81111561499a576149996140b3565b5b6149a6888289016141d0565b945050604086013567ffffffffffffffff8111156149c7576149c66140b3565b5b6149d3888289016141d0565b935050606086013567ffffffffffffffff8111156149f4576149f36140b3565b5b614a00888289016141d0565b925050608086013567ffffffffffffffff811115614a2157614a206140b3565b5b614a2d888289016141d0565b9150509295509295909350565b600060208284031215614a5057614a4f6140ae565b5b6000614a5e848285016142f0565b91505092915050565b60008060408385031215614a7e57614a7d6140ae565b5b6000614a8c858286016142f0565b925050602083013567ffffffffffffffff811115614aad57614aac6140b3565b5b614ab9858286016141d0565b9150509250929050565b600060208284031215614ad957614ad86140ae565b5b6000614ae7848285016142c4565b91505092915050565b60006020820190508181036000830152614b0a818461463d565b905092915050565b614b1b8161429b565b82525050565b6000602082019050614b366000830184614b12565b92915050565b600081519050919050565b600082825260208201905092915050565b6000819050602082019050919050565b600060e083016000830151614b80600086018261448a565b5060208301518482036020860152614b9882826144ee565b91505060408301518482036040860152614bb282826144ee565b9150506060830151614bc76060860182614499565b506080830151614bda6080860182614533565b5060a0830151614bed60a086018261448a565b5060c0830151614c0060c086018261448a565b508091505092915050565b6000614c178383614b68565b905092915050565b6000602082019050919050565b6000614c3782614b3c565b614c418185614b47565b935083602082028501614c5385614b58565b8060005b85811015614c8f5784840389528151614c708582614c0b565b9450614c7b83614c1f565b925060208a01995050600181019050614c57565b50829750879550505050505092915050565b60006020820190508181036000830152614cbb8184614c2c565b905092915050565b614ccc81614527565b82525050565b6000602082019050614ce76000830184614cc3565b92915050565b60008060408385031215614d0457614d036140ae565b5b6000614d12858286016142c4565b9250506020614d23858286016142f0565b9150509250929050565b600080600080600060a08688031215614d4957614d486140ae565b5b6000614d57888289016142f0565b9550506020614d68888289016142f0565b9450506040614d79888289016142c4565b935050606086013567ffffffffffffffff811115614d9a57614d996140b3565b5b614da6888289016141d0565b925050608086013567ffffffffffffffff811115614dc757614dc66140b3565b5b614dd388828901614378565b9150509295509295909350565b6000602082019050614df5600083018461444f565b92915050565b600061012083016000830151614e14600086018261448a565b506020830151614e276020860182614499565b5060408301518482036040860152614e3f82826144ee565b91505060608301518482036060860152614e5982826144ee565b91505060808301518482036080860152614e7382826144ee565b91505060a083015184820360a0860152614e8d82826144ee565b91505060c0830151614ea260c0860182614533565b5060e0830151614eb560e086018261448a565b50610100830151614eca61010086018261448a565b508091505092915050565b60006020820190508181036000830152614eef8184614dfb565b905092915050565b600081905092915050565b6000614f0d826144a8565b614f178185614ef7565b9350614f278185602086016144c4565b80840191505092915050565b6000614f3f8284614f02565b915081905092915050565b600082825260208201905092915050565b7f756e61626c6520746f2076657269667920736967000000000000000000000000600082015250565b6000614f91601483614f4a565b9150614f9c82614f5b565b602082019050919050565b60006020820190508181036000830152614fc081614f84565b9050919050565b7f757365726e616d65207265717569726564000000000000000000000000000000600082015250565b6000614ffd601183614f4a565b915061500882614fc7565b602082019050919050565b6000602082019050818103600083015261502c81614ff0565b9050919050565b7f7066702072657175697265640000000000000000000000000000000000000000600082015250565b6000615069600c83614f4a565b915061507482615033565b602082019050919050565b600060208201905081810360008301526150988161505c565b9050919050565b7f656d61696c207265717569726564000000000000000000000000000000000000600082015250565b60006150d5600e83614f4a565b91506150e08261509f565b602082019050919050565b60006020820190508181036000830152615104816150c8565b9050919050565b7f62696f2072657175697265640000000000000000000000000000000000000000600082015250565b6000615141600c83614f4a565b915061514c8261510b565b602082019050919050565b6000602082019050818103600083015261517081615134565b9050919050565b7f4e487b7100000000000000000000000000000000000000000000000000000000600052601160045260246000fd5b60006151b182614247565b91507fffffffffffffffffffffffffffffffffffffffffffffffffffffffffffffffff82036151e3576151e2615177565b5b600182019050919050565b7f4e487b7100000000000000000000000000000000000000000000000000000000600052602260045260246000fd5b6000600282049050600182168061523557607f821691505b602082108103615248576152476151ee565b5b50919050565b60008190508160005260206000209050919050565b60006020601f8301049050919050565b600082821b905092915050565b6000600883026152b07fffffffffffffffffffffffffffffffffffffffffffffffffffffffffffffffff82615273565b6152ba8683615273565b95508019841693508086168417925050509392505050565b6000819050919050565b60006152f76152f26152ed84614247565b6152d2565b614247565b9050919050565b6000819050919050565b615311836152dc565b61532561531d826152fe565b848454615280565b825550505050565b600090565b61533a61532d565b615345818484615308565b505050565b5b818110156153695761535e600082615332565b60018101905061534b565b5050565b601f8211156153ae5761537f8161524e565b61538884615263565b81016020851015615397578190505b6153ab6153a385615263565b83018261534a565b50505b505050565b600082821c905092915050565b60006153d1600019846008026153b3565b1980831691505092915050565b60006153ea83836153c0565b9150826002028217905092915050565b615403826144a8565b67ffffffffffffffff81111561541c5761541b6140d3565b5b615426825461521d565b61543182828561536d565b600060209050601f8311600181146154645760008415615452578287015190505b61545c85826153de565b8655506154c4565b601f1984166154728661524e565b60005b8281101561549a57848901518255600182019150602085019450602081019050615475565b868310156154b757848901516154b3601f8916826153c0565b8355505b6001600288020188555050505b505050505050565b60006154d782614247565b91506154e283614247565b92508282019050808211156154fa576154f9615177565b5b92915050565b7f6372656174656400000000000000000000000000000000000000000000000000600082015250565b6000615536600783614f4a565b915061554182615500565b602082019050919050565b60006060820190506155616000830185614251565b818103602083015261557281615529565b90506155816040830184614251565b9392505050565b7f696e76616c696420746f6b656e00000000000000000000000000000000000000600082015250565b60006155be600d83614f4a565b91506155c982615588565b602082019050919050565b600060208201905081810360008301526155ed816155b1565b9050919050565b7f646f6d61696e2072657175697265640000000000000000000000000000000000600082015250565b600061562a600f83614f4a565b9150615635826155f4565b602082019050919050565b600060208201905081810360008301526156598161561d565b9050919050565b7f746f6b656e207265717569726564000000000000000000000000000000000000600082015250565b6000615696600e83614f4a565b91506156a182615660565b602082019050919050565b600060208201905081810360008301526156c581615689565b9050919050565b7f746f6b656e206578697374000000000000000000000000000000000000000000600082015250565b6000615702600b83614f4a565b915061570d826156cc565b602082019050919050565b60006020820190508181036000830152615731816156f5565b9050919050565b7f646f6d61696e2065786973740000000000000000000000000000000000000000600082015250565b600061576e600c83614f4a565b915061577982615738565b602082019050919050565b6000602082019050818103600083015261579d81615761565b9050919050565b7f7265676973746572656400000000000000000000000000000000000000000000600082015250565b60006157da600a83614f4a565b91506157e5826157a4565b602082019050919050565b60006060820190506158056000830185614251565b8181036020830152615816816157cd565b90506158256040830184614251565b9392505050565b7f6e6f7420666f756e640000000000000000000000000000000000000000000000600082015250565b6000615862600983614f4a565b915061586d8261582c565b602082019050919050565b6000602082019050818103600083015261589181615855565b9050919050565b7f756e617574686f72697a65640000000000000000000000000000000000000000600082015250565b60006158ce600c83614f4a565b91506158d982615898565b602082019050919050565b600060208201905081810360008301526158fd816158c1565b9050919050565b7f7570646174656400000000000000000000000000000000000000000000000000600082015250565b600061593a600783614f4a565b915061594582615904565b602082019050919050565b60006060820190506159656000830185614251565b81810360208301526159768161592d565b90506159856040830184614251565b9392505050565b7f7570646174650000000000000000000000000000000000000000000000000000600082015250565b60006159c2600683614f4a565b91506159cd8261598c565b602082019050919050565b60006060820190506159ed6000830185614251565b81810360208301526159fe816159b5565b9050615a0d6040830184614251565b9392505050565b7f64656c6574650000000000000000000000000000000000000000000000000000600082015250565b6000615a4a600683614f4a565b9150615a5582615a14565b602082019050919050565b6000606082019050615a756000830185614251565b8181036020830152615a8681615a3d565b9050615a956040830184614251565b9392505050565b7f4e487b7100000000000000000000000000000000000000000000000000000000600052603260045260246000fd5b7f64417070206e6f7420666f756e64000000000000000000000000000000000000600082015250565b6000615b01600e83614f4a565b9150615b0c82615acb565b602082019050919050565b60006020820190508181036000830152615b3081615af4565b9050919050565b6000819050919050565b615b52615b4d82614247565b615b37565b82525050565b60008160601b9050919050565b6000615b7082615b58565b9050919050565b6000615b8282615b65565b9050919050565b615b9a615b958261429b565b615b77565b82525050565b6000615bac8286615b41565b602082019150615bbc8285615b89565b601482019150615bcc8284615b41565b602082019150819050949350505050565b60008154615bea8161521d565b615bf48186614ef7565b94506001821660008114615c0f5760018114615c2457615c57565b60ff1983168652811515820286019350615c57565b615c2d8561524e565b60005b83811015615c4f57815481890152600182019150602081019050615c30565b838801955050505b50505092915050565b6000615c6c8284615bdd565b915081905092915050565b7f64656c6574656400000000000000000000000000000000000000000000000000600082015250565b6000615cad600783614f4a565b9150615cb882615c77565b602082019050919050565b6000606082019050615cd86000830185614251565b8181036020830152615ce981615ca0565b9050615cf86040830184614251565b9392505050565b600081905092915050565b50565b6000615d1a600083615cff565b9150615d2582615d0a565b600082019050919050565b6000615d3b82615d0d565b9150819050919050565b7f6661696c65640000000000000000000000000000000000000000000000000000600082015250565b6000615d7b600683614f4a565b9150615d8682615d45565b602082019050919050565b60006020820190508181036000830152615daa81615d6e565b9050919050565b6000615dbc82614247565b9150615dc783614247565b9250828202615dd581614247565b91508282048414831517615dec57615deb615177565b5b5092915050565b7f6465616374697661746564000000000000000000000000000000000000000000600082015250565b6000615e29600b83614f4a565b9150615e3482615df3565b602082019050919050565b6000606082019050615e546000830185614251565b8181036020830152615e6581615e1c565b9050615e746040830184614251565b9392505050565b7f19457468657265756d205369676e6564204d6573736167653a0a333200000000600082015250565b6000615eb1601c83614ef7565b9150615ebc82615e7b565b601c82019050919050565b6000819050919050565b615ee2615edd82614445565b615ec7565b82525050565b6000615ef382615ea4565b9150615eff8284615ed1565b60208201915081905092915050565b600060ff82169050919050565b615f2481615f0e565b82525050565b6000608082019050615f3f600083018761444f565b615f4c6020830186615f1b565b615f59604083018561444f565b615f66606083018461444f565b9594505050505056fea2646970667358221220e20574071b9698093180de8791e34ee7bd2c6793dda6b6e80de4a338349a241764736f6c63430008140033",
  "linkReferences": {},
  "deployedLinkReferences": {}
}